:1000000080370020B96D00003DD001008D6D0000EB
:100010008D6D00008D6D00008D6D000000000000F2
:10002000000000000000000000000000ED6700007C
:100030008D6D00000000000099670000F9D90100F3
:10004000A5680000A5680000A5680000A56800007C
:10005000A5680000A5680000A5680000A56800006C
:10006000A5680000A5680000A5680000A56800005C
:10007000A5680000A5680000A5680000A56800004C
:10008000A5680000A5680000A5680000A56800003C
:10009000A5680000A5680000A5680000A56800002C
:1000A000A5680000A5680000A5680000A56800001C
:1000B000A5680000A5680000A5680000A56800000C
:1000C000A5680000A5680000A5680000A5680000FC
:1000D000A5680000A5680000A5680000A5680000EC
:1000E000A5680000A5680000A5680000A5680000DC
:1000F000A5680000A5680000A5680000A5680000CC
:1001000001F0FF01102A2BDB10F0070F08D010F8C8
:10011000013B013A8B422DD010F0070F42B3F6D1CC
:10012000F0B441EA012141EA014122F007047FF0E5
:1001300000070023F0E80256083C85EA010586EA3C
:10014000010685FA47F5A3FA87F586FA47F6A5FA78
:1001500087F68EB9EED1F0BC01F0FF0102F0070284
:1001600032B110F8013B013A83EA010313B1F8D12F
:100170000020704701387047002D06BF3546033810
:10018000073815F0010F07D1013015F4807F02BF49
:10019000013015F4C03F0130F0BC0138704700BF9A
:1001A00081F0004102E000BF83F0004330B54FEA28
:1001B00041044FEA430594EA050F08BF90EA020F95
:1001C0001FBF54EA000C55EA020C7FEA645C7FEA28
:1001D000655C00F0E2804FEA5454D4EB5555B8BF4B
:1001E0006D420CDD2C4480EA020281EA030382EABC
:1001F000000083EA010180EA020281EA0303362D4E
:1002000088BF30BD11F0004F4FEA01314FF4801C20
:100210004CEA113102D0404261EB410113F0004F32
:100220004FEA03334CEA133302D0524263EB4303E9
:1002300094EA050F00F0A780A4F10104D5F1200E87
:100240000DDB02FA0EFC22FA05F2801841F10001E2
:1002500003FA0EF2801843FA05F359410EE0A5F1B6
:1002600020050EF1200E012A03FA0EFC28BF4CF0E7
:10027000020C43FA05F3C01851EBE37101F000459D
:1002800007D54FF0000EDCF1000C7EEB00006EEBAA
:100290000101B1F5801F1BD3B1F5001F0CD3490834
:1002A0005FEA30004FEA3C0C04F101044FEA44528B
:1002B00012F5800F80F09A80BCF1004F08BF5FEA12
:1002C000500C50F1000041EB045141EA050130BDF2
:1002D0005FEA4C0C404141EB0101013C28BFB1F504
:1002E000801FE9D291F0000F04BF01460020B1FA4F
:1002F00081F308BF2033A3F10B03B3F120020CDA22
:100300000C3208DD02F1140CC2F10C0201FA0CF0FF
:1003100021FA02F10CE002F11402D8BFC2F1200C64
:1003200001FA02F120FA0CFCDCBF41EA0C0190401A
:10033000E41AA2BF01EB0451294330BD6FEA040463
:100340001F3C1CDA0C340EDC04F11404C4F120024E
:1003500020FA04F001FA02F340EA030021FA04F360
:1003600045EA030130BDC4F10C04C4F1200220FAB7
:1003700002F001FA04F340EA0300294630BD21FAF5
:1003800004F0294630BD94F0000F83F4801306BFBB
:1003900081F480110134013D4EE77FEA645C18BFAF
:1003A0007FEA655C29D094EA050F08BF90EA020F46
:1003B00005D054EA000C04BF1946104630BD91EA3E
:1003C000030F1EBF0021002030BD5FEA545C05D141
:1003D0004000494128BF41F0004130BD14F5800480
:1003E0003CBF01F5801130BD01F0004545F0FE41F4
:1003F00041F470014FF0000030BD7FEA645C1ABF29
:10040000194610467FEA655C1CBF0B46024650EA5F
:10041000013406BF52EA033591EA030F41F400218B
:1004200030BD00BF90F0000F04BF0021704730B511
:100430004FF4806404F132044FF000054FF00001E6
:1004400050E700BF90F0000F04BF0021704730B5A7
:100450004FF4806404F1320410F0004548BF40427C
:100460004FF000013EE700BF42004FEAE2014FEAD1
:1004700031014FEA02701FBF12F07F4393F07F4FAC
:1004800081F06051704732F07F4208BF704793F0AF
:100490007F4F04BF41F40021704730B54FF46074C2
:1004A00001F0004521F000411CE700BF50EA0102C5
:1004B00008BF704730B54FF000050AE050EA01026E
:1004C00008BF704730B511F0004502D5404261EBDE
:1004D00041014FF4806404F132045FEA915C3FF41F
:1004E000D8AE4FF003025FEADC0C18BF03325FEABC
:1004F000DC0C18BF033202EBDC02C2F1200300FA6D
:1005000003FC20FA02F001FA03FE40EA0E0021FA91
:1005100002F11444BDE600BF70B54FF0FF0C4CF47F
:10052000E06C1CEA11541DBF1CEA135594EA0C0F31
:1005300095EA0C0F00F0DEF82C4481EA030621EA6C
:100540004C5123EA4C5350EA013518BF52EA0335A7
:1005500041F4801143F4801338D0A0FB02CE4FF059
:100560000005E1FB02E506F00042E0FB03E54FF089
:100570000006E1FB03569CF0000F18BF4EF0010E81
:10058000A4F1FF04B6F5007F64F5407404D25FEA7D
:100590004E0E6D4146EB060642EAC62141EA555130
:1005A0004FEAC52040EA5E504FEACE2EB4F1FD0C72
:1005B00088BFBCF5E06F1ED8BEF1004F08BF5FEAF0
:1005C000500E50F1000041EB045170BD06F00046A2
:1005D00046EA010140EA020081EA0301B4EB5C044F
:1005E000C2BFD4EB0C0541EA045170BD41F4801147
:1005F0004FF0000E013C00F3AB8014F1360FDEBF6C
:10060000002001F0004170BDC4F10004203C35DA47
:100610000C341BDC04F11404C4F1200500FA05F3CA
:1006200020FA04F001FA05F240EA020001F000426B
:1006300021F0004110EBD37021FA04F642EB0601E1
:100640005EEA430E08BF20EAD37070BDC4F10C040B
:10065000C4F1200500FA04F320FA05F001FA04F2CF
:1006600040EA020001F0004110EBD37041F10001BB
:100670005EEA430E08BF20EAD37070BDC4F12005C6
:1006800000FA05F24EEA020E20FA04F301FA05F22E
:1006900043EA020321FA04F001F0004121FA04F2D6
:1006A00020EA020000EBD3705EEA430E08BF20EAA6
:1006B000D37070BD94F0000F0FD101F000464000E0
:1006C00041EB010111F4801F08BF013CF7D041EA62
:1006D000060195F0000F18BF704703F00046520066
:1006E00043EB030313F4801F08BF013DF7D043EA37
:1006F0000603704794EA0C0F0CEA135518BF95EAED
:100700000C0F0CD050EA410618BF52EA4306D1D173
:1007100081EA030101F000414FF0000070BD50EA92
:10072000410606BF1046194652EA430619D094EA1C
:100730000C0F02D150EA013613D195EA0C0F05D106
:1007400052EA03361CBF104619460AD181EA03015A
:1007500001F0004141F0FE4141F470014FF0000012
:1007600070BD41F0FE4141F4780170BD70B54FF0AD
:10077000FF0C4CF4E06C1CEA11541DBF1CEA13552D
:1007800094EA0C0F95EA0C0F00F0A7F8A4EB05040F
:1007900081EA030E52EA03354FEA013100F0888006
:1007A0004FEA03334FF0805545EA131343EA1263CF
:1007B0004FEA022245EA111545EA10654FEA002684
:1007C0000EF000419D4208BF964244F1FD0404F53D
:1007D000407402D25B084FEA3202B61A65EB030599
:1007E0005B084FEA32024FF480104FF4002CB6EB56
:1007F000020E75EB030E22BFB61A754640EA0C00D6
:100800005B084FEA3202B6EB020E75EB030E22BF15
:10081000B61A754640EA5C005B084FEA3202B6EB56
:10082000020E75EB030E22BFB61A754640EA9C0015
:100830005B084FEA3202B6EB020E75EB030E22BFE5
:10084000B61A754640EADC0055EA060E18D04FEAA3
:10085000051545EA16754FEA06164FEAC30343EA43
:1008600052734FEAC2025FEA1C1CC0D111F4801F10
:100870000BD141EA00014FF000004FF0004CB6E709
:1008800011F4801F04BF01430020B4F1FD0C88BFA8
:10089000BCF5E06F3FF6AFAEB5EB030C04BFB6EBB3
:1008A000020C5FEA500C50F1000041EB045170BDA6
:1008B0000EF0004E4EEA113114EB5C04C2BFD4EBD3
:1008C0000C0541EA045170BD41F480114FF0000E57
:1008D000013C90E645EA060E8DE60CEA135594EAD3
:1008E0000C0F08BF95EA0C0F3FF43BAF94EA0C0FD6
:1008F0000AD150EA01347FF434AF95EA0C0F7FF44B
:1009000025AF104619462CE795EA0C0F06D152EA9E
:1009100003353FF4FDAE1046194622E750EA410682
:1009200018BF52EA43067FF4C5AE50EA41047FF493
:100930000DAF52EA43057FF4EBAE12E74FEA4102F6
:1009400012F5001215D211D56FF47873B3EB625221
:1009500012D94FEAC12343F0004343EA505311F048
:10096000004F23FA02F018BF404270474FF00000DA
:10097000704750EA013005D111F0004008BF6FF018
:10098000004070474FF00000704700BF4A0011D28E
:1009900012F5001211D20DD56FF47873B3EB6252D9
:1009A0000ED44FEAC12343F0004343EA505323FAE5
:1009B00002F070474FF00000704750EA013002D15A
:1009C0004FF0FF3070474FF0000070474FEA400291
:1009D000B2F1FE4F0FD34FF09E03B3EB12620DD96D
:1009E0004FEA002343F0004310F0004F23FA02F0D7
:1009F00018BF404270474FF00000704712F1610F7E
:100A000001D1420205D110F0004008BF6FF0004054
:100A100070474FF0000070477BB972B90029BEBF24
:100A200000204FF0004106E008BF00281CBF6FF017
:100A300000414FF0FF3000F0B7B9ADF1080C6DE99F
:100A400004CE002909DB002B1ADB00F04DF8DDF89D
:100A500004E0DDE9022304B07047404261EB41014C
:100A6000002B1BDB00F040F8DDF804E0DDE9022399
:100A700004B0404261EB4101524263EB43037047D3
:100A8000524263EB430300F02FF8DDF804E0DDE9A8
:100A9000022304B0404261EB41017047524263EBD4
:100AA000430300F021F8DDF804E0DDE9022304B09F
:100AB000524263EB4303704753B94AB9002908BF58
:100AC00000281CBF4FF0FF314FF0FF3000F06CB931
:100AD000ADF1080C6DE904CE00F006F8DDF804E095
:100AE000DDE9022304B070472DE9F047089E0D466A
:100AF00004468E46002B40F082808A42174646D933
:100B0000B2FA82F24AB1C2F1200105FA02F320FAE8
:100B100001F1974041EA030E94404FEA1748230C35
:100B2000BEFBF8FCB9B208FB1CEE43EA0E430CFB1B
:100B300001F098420AD9FB180CF1FF3580F01681BC
:100B4000984240F21381ACF1020C3B441B1AA4B250
:100B5000B3FBF8F008FB103344EA034400FB01F157
:100B6000A14209D93C1900F1FF3380F00181A14273
:100B700040F2FE8002383C44641A40EA0C400021F6
:100B80001EB1D4400023C6E90043BDE8F08702B996
:100B9000FFDEB2FA82F2002A4FD1CB1B4FEA174E8A
:100BA0001FFA87F80121B3FBFEFC250C0EFB1C335A
:100BB00045EA034508FB0CF3AB4207D97D190CF15C
:100BC000FF3002D2AB4200F2E7808446ED1AA3B2B6
:100BD000B5FBFEF00EFB105543EA054408FB00F898
:100BE000A04507D93C1900F1FF3302D2A04500F21D
:100BF000D7801846A4EB080440EA0C40C0E78B42BB
:100C000008D9002E00F0AF800021C6E90005084693
:100C1000BDE8F087B3FA83F100294BD1AB4202D390
:100C2000824200F2B780841A65EB030301209E46DE
:100C3000002EAAD0C6E9004EA7E7C2F1200C01FAA7
:100C400002F3974020FA0CF04FEA174E21FA0CFC01
:100C50001843BCFBFEF1050C0EFB11CC1FFA87F804
:100C600045EA0C4501FB08F3AB4204FA02F409D94A
:100C70007D1901F1FF3C80F08B80AB4240F288800F
:100C800002393D44EB1A85B2B3FBFEF00EFB103384
:100C900045EA034500FB08F3AB4207D97D1900F193
:100CA000FF3C71D2AB426FD902383D44EB1A40EAA7
:100CB000014178E7C1F1200C8B4022FA0CF71F4369
:100CC00020FA0CF405FA01F34FEA174E25FA0CF559
:100CD0001C43230CB5FBFEF91FFA87F80EFB1955D0
:100CE00043EA054509FB08FAAA4502FA01F200FAAF
:100CF00001F308D97D1909F1FF3047D2AA4545D93A
:100D0000A9F102093D44A5EB0A05A4B2B5FBFEF02A
:100D10000EFB105544EA054400FB08F8A04507D92E
:100D20003C1900F1FF352DD2A0452BD902383C44A7
:100D300040EA0940A4EB0804A0FB02894C45C646E2
:100D40004D4619D316D05EB1B3EB0E0264EB050429
:100D500004FA0CFCCA404CEA0202CC40C6E900246A
:100D60000021BDE8F087314630460EE7AC46EDE69F
:100D7000184601E74345E6D2B8EB020E69EB0705DA
:100D80000138E0E72846D3E760468FE78146BAE7B7
:100D9000614677E708464BE7ACF1020C3D4415E7A6
:100DA00002383C4426E700BF704700BF10F8012B13
:100DB00011F8013B012A28BF9A42F7D0D01A704798
:100DC000034613F8012B002AFBD1181A013870478B
:100DD00001481BF0D0BB00BF28F701008368014920
:100DE0001B6818474806002070B586B0002402230F
:100DF00003948DF81330CDF80F408DF80C308DF83A
:100E00001130494B49491B88ADF80F30072203A820
:100E10008DF8142009F00CFF2146204609F06EFFE2
:100E2000204609F08BFF424B424E1A889B78ADF862
:100E3000082002A90D208DF80A301CF0FCFD0D20C1
:100E40000AF0A2F802A908201CF0F5FD08200AF01B
:100E50009BF801A80AF0C2F80DF105000AF0BEF8EF
:100E60000DF106000AF0BAF80DF107000AF0B6F825
:100E70009DF80440304D0D200AF098F8E30003F18E
:100E8000804303F5F83300F1804000F5C0409DF841
:100E90000540C3F81065C3F814050D200AF092F858
:100EA000E30003F1804303F5F83300F1804000F5DF
:100EB000C0409DF80640C3F81055C3F8140508203B
:100EC0000AF074F8E30003F1804303F5F83300F10E
:100ED000804000F5C040C3F810659DF80740C3F896
:100EE000140508200AF06EF8E30003F1804303F5CF
:100EF000F83300F1804000F5C040C3F81055C3F846
:100F000014059DF804000AF09DF89DF805000AF00C
:100F100099F89DF806000AF095F89DF807000AF088
:100F200091F806B070BD00BFF8F80100D10D0000C7
:100F3000ECEA01000831014004310140F0B50D46F2
:100F40000D4904460020E60946EA4566EF0904F02B
:100F50007F033D46344654EA050618BF63F07F031D
:100F60000B700B781354013054EA0503C0B2EAD178
:100F7000024B1870F0BD00BF34140020351C002057
:100F800070B5254D0246064600212878FFF7D6FFAA
:100F90002B78DA07044606D5204B32180021188832
:100FA000FFF7CCFF04442B789B0706D51B4B321967
:100FB00058880021FFF7C2FF04442B78580706D554
:100FC000164B321998880021FFF7B8FF04442B789C
:100FD000190706D5114B321998680021FFF7AEFFAB
:100FE00004442B78DA0606D50C4B3219D868002158
:100FF000FFF7A4FF04442B789B0606D5074B321954
:1010000018690021FFF79AFF0444054821461BF0A8
:10101000B2FA204670BD00BF361D00203006002009
:1010200033F7010070B5124E30461CF070FDC8B1A8
:10103000104D3146284605F05BF9044680B9B36887
:101040009B6C93B10C494FF4806228461BF0D3FF90
:101050000A494FF4806228461BF0B4FF6423AB6258
:10106000204670BD6FF01204FAE76FF08504F7E7D1
:10107000E8E7010054060020351800203514002050
:10108000F0B585B0FFF7CEFF18480DF057F94FF4D3
:10109000806116480DF058F915481AF0D2FD00236A
:1010A000CDE90133009301231946124843F2FF3280
:1010B00002F02CF8104B186819795B79066987687B
:1010C0003468DA0754BF43F4B05383F4D053012596
:1010D00023F480528D40DB073B684CBF2C43AC436C
:1010E000346005B0BDE8F040184700BFA8060020F6
:1010F00060030020C0060020000000202DE9F04F12
:10110000644BDFF8CC8193B000221A700793079BE1
:101110001C7814B113B0BDE8F08F40F29115002196
:101120004FF480300BF09AFB2A465B495B48C8F8C5
:1011300000501DF066F829465948584E1BF01BFA1E
:10114000D8F80050002DE2DD564957480C60046085
:10115000B44622468B4607461CF8014B7E2C3ED1F6
:10116000B41804600A60DFF86C913A68002A7CD0F9
:10117000DBF800204D484E4CDFF83CA132442546B8
:1011800091780231A9F800101BF0F5F9B9F80020A8
:10119000396848480DF021FA4649474822461AF076
:1011A000D1FB00B345481BF0E6F920461AF084FD58
:1011B00040480DF097FA0022DBF800103A60B9F9C8
:1011C00000200A44D8F800109142CED9905D7E28C4
:1011D00040F01B81B1183960CBF80020C5E701321F
:1011E0009542B9D8BFE7227C002AE4D031480DF0FF
:1011F00079FA2478002CDED10AA8314F314EDFF87D
:10120000D8B010F05EFC296A0AAA50461AF09DFB7D
:101210000FCF0FC63B682C4F46F810393C700AF1CF
:101220009809BAF89E30A1B28B4257D1224810F0EB
:10123000BAFB0023CDE9013300930123194643F2A1
:10124000FF321D4801F062FF1A480DF04BFA1848B2
:101250001AF032FD1D4B19791868012404FA01F1C6
:1012600083685B699847079B1C70134810F09BFBD1
:101270000023CDE901330093012343F2FF321946E5
:101280000D4801F043FF0B480DF02CFA08481AF006
:1012900013FD3CE7351D0020EFEA01003412002069
:1012A0004DF70100BC060020B40600205BF70100EA
:1012B00060030020A8060020C00600206BF7010094
:1012C00098EC010030060020361D002000000020B0
:1012D000440600203212002083F7010009AA484684
:1012E0001AF05DFC099AD17A93790491917A03916D
:1012F000517A0291117A0191D279009213215A46C2
:101300000DA81BF045F942490DA8FFF74FFD60B944
:10131000A1B2286A08AA01311AF0ABFE089B1B890A
:1013200033803B7843F001033B703A490DA8FFF747
:101330003DFD60B9A1B2286A08AA01311AF099FEF0
:10134000089B1B8973803B7843F002033B70324952
:101350000DA8FFF72BFD88B9A1B208AA0131286AB0
:101360001AF087FE089B2D4819891BF004F9089B89
:101370001B89B3803B7843F004033B7028490DA8D8
:10138000FFF714FD88B9A1B208AA0131286A1AF042
:1013900070FE089B234899681BF0EDF8089B9B683A
:1013A000B3603B7843F008033B701F490DA8FFF77B
:1013B000FDFC88B9A1B208AA0131286A1AF059FEC9
:1013C000089B1A4899681BF0D6F8089B9B68F36045
:1013D0003B7843F010033B7015490DA8FFF7E6FC7E
:1013E00088B9A1B208AA0131286A1AF042FE089B06
:1013F000104899681BF0BFF8089B9B6833613B78E5
:1014000043F020033B7001340BE70132DCE600BF00
:1014100095F70100A4F70100B3F70100C2F701003E
:10142000D0F70100DEF70100F7F7010005F8010031
:1014300024F8010032F8010008B510480AF072FAE9
:101440000F4A106028B9BDE808400C490D481BF050
:1014500092B80D4B0D4A1A604FF420629A80012217
:101460009A710B4A9A60FFF7B9FC002804DABDE8CC
:10147000084008481BF07FB808BD00BF51F80100C4
:10148000B806002058F8010048060020E0609033BC
:10149000080004016DF801002DE9F041DFF87C80BF
:1014A0000646D8F800000C4620B91548BDE8F041C2
:1014B0001BF061B8134B4FF482725A81FFF78EFC18
:1014C000002801DA1048F1E72246314600201AF0E0
:1014D000FDFF0E4F0E4B054618802246FF23314676
:1014E00038461CF09CFE3D53D8F800008368A21CCF
:1014F0005B68394698470028B4BF06480648D5E7D8
:1015000081F80100480600206DF80100361C00201B
:10151000301200209CF80100AEF80100B80600204F
:1015200030B5134C13480E25C1B0C4F86C551BF0F0
:1015300022F8D4F86C1510481BF01DF80F48D4F8A9
:1015400024151BF018F8C4F86C55FFF74DFCFFF795
:1015500097FDFFF771FF0A481BF00DF8FFF7CEFD6E
:101560006846FFF70DFD01466846FFF795FFF5E772
:1015700000200040BAF80100CCF80100D8F80100C2
:10158000E2F8010010B50446FEF74CFF02460B4698
:1015900074B100224FF07F53FEF7BEFF640702468E
:1015A0000B4605D0054B0022FEF700FE02460B4617
:1015B00010461946FFF7EAF980B210BD0000F03F6F
:1015C00070B50025061D0446C5610580857030464E
:1015D0000CF0B4FE0D491022304604F110060CF058
:1015E000FCFF30460CF0AAFE09490822304604F1FF
:1015F00020060CF0F2FF30460CF0A0FE0549102248
:1016000030460CF0EAFFE56270BD00BF12F9010040
:10161000FAF8010002F90100F0B50B681BBA03608B
:101620004B681BBA43608B681BBA8360CB68802A07
:101630001BBAC36034D1764C764900F1A005C2686C
:1016400014F8017B0668D3B286EA076651F82330A6
:1016500003F47F437340C2F30726103051F826602D
:1016600006F47F067340160E51F82660C6F307266F
:101670007340C2F3074651F82660360206F07F46F3
:10168000734050F80C6C0360734050F8086C436072
:10169000734083605340C3608542D0D10020F0BDC9
:1016A0000B691BBA03614B69C02A1BBA436141D164
:1016B000574C584900F1A805426914F8017B0668A7
:1016C000D3B286EA076651F8233003F47F437340B0
:1016D000C2F30726854251F8266006F47F0683EAA6
:1016E00006034FEA126651F82660C6F3072683EA1E
:1016F0000603C2F3074651F826604FEA062606F0B5
:101700007F4683EA06034668836183EA06038668A8
:10171000C36183EA0603C668036283EA0603436281
:1017200001D10C20BBE70669734083625340C3625A
:101730001830C1E78B691BBA8361CB69B2F5807F32
:101740001BBAC36161D1324C324A00F1C005C16994
:1017500014F8017B0668CBB286EA076652F823309C
:1017600003F47F437340C1F30726854252F8266095
:1017700006F47F0683EA06034FEA116652F82660F4
:10178000C6F3072683EA0603C1F3074652F826602C
:101790004FEA062606F07F4683EA060346680362A0
:1017A00083EA06038668436283EA0603C6688362A7
:1017B00083EA0603C36201D10E2070E7C3F3072654
:1017C000DFB252F8266052F8277006F47F46C7F35E
:1017D00007273E4307697E401F0EC3F3074352F8B5
:1017E000277052F823303F0207F07F4703F47F034E
:1017F0003B437340466903637340866943637340A8
:1018000059408363C1632030A1E74FF4817046E7FC
:101810002AF90100ACEC01002DE9F04F14680568CD
:101820005768966824BA6C4045683FBA6F4085682F
:1018300036BA6E40D568C2688BB02DBA55404A1092
:1018400001929346A44A84464FEA146E5FFA85F8E3
:10185000DCF8101052F82EE052F828808EEA010EC3
:101860008EEA386EC7F307485FFA84F952F8288089
:10187000DCF8141052F829908EEA382EC6F30728A7
:101880005FFA87FA52F8288052F82AA08EEA384E7A
:101890004FEA1768C7F3072752F8288088EA01083B
:1018A00088EA3968C6F30749DCF8181052F829901D
:1018B00088EA3928C5F30729BBF1010B52F82990B2
:1018C00088EA39484FEA1669F6B252F8299052F878
:1018D000266089EA010989EA3A69C5F3074A4FEAAD
:1018E000156552F82AA0DCF81C1052F8255089EA38
:1018F0003A29C4F3072AC4F3074485EA010552F8DC
:10190000244052F82AA085EA366585EA342552F843
:10191000274085EA34454FEA156689EA3A4952F884
:1019200026100291CEF307465CF8204F52F826109D
:101930000391C8F3072652F8261004915FFA89F63E
:1019400052F8261005915FFA88F652F82610069193
:10195000CEF3072652F826100791C5F3074652F832
:10196000261008914FEA196652F8261009915FFA7D
:101970008EF64FEA1E6E52F8267052F82EE0C5F32E
:101980000726EDB252F826A052F82550C9F30746B3
:10199000C9F3072952F8261052F829904FEA186621
:1019A000C8F3074852F8266052F828802CD084EA01
:1019B0000E0484EA3564DCF804506E4086EA37662B
:1019C00086EA3127099DDCF808600699754085EAAA
:1019D00031660899DCF80C5086EA3126079986EAC8
:1019E0003146029969400D46059985EA31650399AA
:1019F00085EA3125049984EA382484EA394487EA5F
:101A00003A4785EA31451FE74FEA0E2E09F47F4930
:101A10000EF07F4EC5F3072508F47F0845EA090557
:101A20004EEA0808019A85EA08056C4000EB42106E
:101A3000220E1A70220C5A70220A9A70320201F495
:101A40007F0B0AF47F4A02F07F42C7F30727DC705E
:101A500042EA0B0247EA0A07574042687A40110EF1
:101A60001971110C5971DA71110A069A9971C2F340
:101A70000726079A089902F47F421643099A120230
:101A800001F47F0102F07F420A43564082680599C3
:101A90005640320E1A72320C5A72320A9A72029AF6
:101AA000DE721502039A05F07F4502F47F022A4395
:101AB000C1F30725049901F47F410D435540C268E5
:101AC00055402A0E1A732A0C5A732A0A9A73DD7328
:101AD0000BB0BDE8F08F00BFACEC01002DE9F04F7A
:101AE000DBB00024029003920E46F42200211DA8D0
:101AF00099469DF890B1679D9DF8A0711CF0BCFBC4
:101B00000E22214619A8CDE90844CDE90A44CDE9C1
:101B10000C44CDE90E44CDE91044CDE912441894AB
:101B20001CF0AAFB7A49659808221CF05CFB00288F
:101B300000F0A8812246122318A905A80CF09DFDEB
:101B40000C2105A8ADF81A400CF0FEFB0446002855
:101B500040F090816599082205A80CF03EFD0446EE
:101B6000002840F08781494605A80CF094FC044603
:101B7000002840F07F81669B802219681DA8FFF72E
:101B80004BFD0446002840F0758108AB0A211A4637
:101B90001DA85991FFF740FE9DF81A80DDF814A0AA
:101BA000B8F10C0F76D1DAF80000DAF804100CABBB
:101BB00003C3DAF8080018600123ADF83C408DF843
:101BC0003E408DF83F30202E00F09280002F40F0F4
:101BD0005C8105A80CF075FDEB8829680C3B194465
:101BE0000C2205A80CF0F9FCEB880C3B0446EB80BA
:101BF000102E40F08F8028462C890CF092FB214655
:101C00000346112228460CF0E2FE0446002840F06C
:101C1000318101462881324628460CF0E9FB029BBF
:101C20002A681B6A013203F1100153F8040B42F8D1
:101C3000040B8B42F9D10DF1400A4FF00008CDF8AA
:101C400004A0CDF800802B68EA88194608A80DF09A
:101C500011F8EB88113B9BB24246112128460CF04B
:101C6000B6FEEA882B68134400930CA9044610239F
:101C700052461DA80DF051F8E9886FB3039B012B64
:101C800027D10C23424628460CF0A1FE002C00F080
:101C9000A680EFE0214610220CA81CF0EDFA0CAB58
:101CA0004246514608A80CF09DFF4FEA58138DF8A4
:101CB0005E304FEAC8080CAB102214A908A8CDE981
:101CC00014441694ADF85C408DF85F800CF08AFFE8
:101CD00079E70C31E980D9E72B680C22194418A860
:101CE0001CF081FA002800F0D28040F20F14C1E00D
:101CF0002A682C89284614440CF013FB224603461C
:101D00000CA91DA80DF05BF8002F00F0B28066E072
:101D100022F90100302E40F0B1805FB12A682C8991
:101D2000284614440CF0FDFA224603460CA91DA8CF
:101D30000DF045F828462C890CF0F3FA21460346AD
:101D4000112228460CF043FE0446002840F0928001
:101D500001462881302228460CF04AFB029B2A6863
:101D60001B6A013203F1100153F8040B42F8040B13
:101D70008B42F9D10DF140082968CDF80480EB8839
:101D8000113B0093112201F1110308A80CF072FF1E
:101D9000EB88113B9BB20022112128460CF017FE64
:101DA0000446002866D15FB92A682C892846144465
:101DB0000CF0B7FA224603460CA91DA80CF0FFFF51
:101DC000EA882B6813440093424610230CA91DA8EF
:101DD0000CF0A3FFEB88002F42D00C33EB80039B69
:101DE000032B46D105A80CF06CFC0446002841D119
:101DF000594605A80CF00BFB044600283AD10BF11C
:101E00002503DBB2012B08D805A9082019F0FBFB3C
:101E10006599082205A80CF0E0FBE88805A90530C3
:101E200019F0F1FB044628BB314605A80CF0EFFA87
:101E30000446F8B9494605A80CF02DFB0446C8B97C
:101E40000346BDF81A1005982A460CF0F1FD044629
:101E500080B9BDF81A20059928681CF0D2F909E06C
:101E600029680C22194418A81CF0BDF900287FF439
:101E70003CAF002420465BB0BDE8F08F002C3FF45F
:101E800043AFF7E74FF48174F4E70024B0E6002C89
:101E9000EFD0EFE72DE9F0478AB0DDE9127ADDF8FF
:101EA000509006460D4690461C4613B94FF481707B
:101EB0009FE0DB8822899B1A012BF7DD0DF11901C8
:101EC00020460CF014FC002840F093809DF8193057
:101ED000DC2BEBD8C72B23D82D2B51D8202BE5D9C1
:101EE000213B0C2BE2D801A252F823F0891F0000FD
:101EF000AD1E0000AD1E0000AD1E0000891F0000D9
:101F0000891F0000AD1E0000891F0000AD1E0000EB
:101F1000AD1E0000AD1E0000891F0000891F0000DB
:101F2000C83B142BC2D801A252F823F0891F00002D
:101F3000891F0000891F0000891F0000891F000001
:101F4000891F0000AD1E0000891F0000891F0000CE
:101F5000891F0000891F0000891F0000891F0000E1
:101F6000891F0000AD1E0000891F0000AD1E00008B
:101F7000AD1E0000AD1E0000F91F0000F91F00009B
:101F8000412B01D0482B91D10DF11A01204619F0B7
:101F900009FB70BB0DF1190120460CF0A8FB40BBFA
:101FA0009DF8193003F030023A70BAF1000F03D0F7
:101FB00003F003028AF800205B063FF577AF3B7819
:101FC000002B3FF473AF07A920460CF0CEFB80B97D
:101FD000079BB9F1000F01D0C9E900300022CDE91B
:101FE0000342CDE901580092397802223046FFF7CA
:101FF00075FD0AB0BDE8F0870DF11A01204619F011
:10200000D1FA0028F5D1BDF81A20002ABCD0082A40
:102010007FF44CAF08A920460CF048FD08ADB3E7AB
:1020200070B50446104615461E460CF0DFFE02460B
:10203000002865D009B1884264D1002120461CF0F7
:102040001BF925803378A3717378E371B378237219
:10205000F37863723379A3727379E3721D2D0FD80D
:102060000B2D13D90C3D112D10D8DFE805F02C0FE6
:102070000F110F0F0F400F0F0F32400F0F400F2F98
:102080002F2D34D0482D32D0292D32D0002038E0E9
:10209000062284F8382041F20202E2841A4AA2623F
:1020A00040F20112A28502F13D72022302F6017292
:1020B000A370A26484F84E3040F605020123A4F810
:1020C0004C20E383E2E74FF47A43A3800223A3701A
:1020D000DCE78022A283192262830C4A226102F586
:1020E000750201230832A37062612376CEE70123D3
:1020F000EDE7012323762823A383B4236383C5E775
:102100000B2070BD0C20FCE7F402050878001000DD
:1021100037B5134B0446186800909B88ADF804301F
:1021200020460D460CF062FE014698B101200BF0EE
:10213000D9F8286080B10F2C048005D00C2C1EBF6C
:1021400000230093ADF804306A4621460CF0C1FE2E
:1021500003B030BD0B20FBE74FF48270F8E700BFFF
:1021600080EC01002DE9F041904606460F4606221C
:102170001A4940461D461CF036F8044650B32B461B
:102180004246394606F1980019F030FD0446F0B990
:102190002B68E3B9E4362B4642463946304619F0FF
:1021A00025FDC8B92B6893B98FB129463846FFF78A
:1021B000AFFF044658B92B68D8F80020C3F80620B2
:1021C000B8F804205A812968304619F080FC20466E
:1021D000BDE8F0812860FAE70446F8E735F9010028
:1021E000F0B5504CBDF924509DF814609DF818C00E
:1021F0009DF81C70B5F1FF3F08BF2546022A0AD89A
:102200004FF6FF74A14202F10C0218BF01F1FF3139
:10221000D2B218BF89B20024C48004814FF6FF7483
:10222000A14202BF0121C18040F2B2714FEA910E7A
:1022300040F26D1404FB01E4FF2A4FF4C87EB1FBA9
:10224000FEFE74444FF0640EB1FBFEF1A4EB0101FD
:1022500005D1C28842F48172C280012203E0FE2AC5
:102260004FD101220272FF2B50D1C38843F48273F5
:10227000C3800123541C04EB440E1E2414FB0212E1
:102280000524BEFBF4F422441344274A934205D9A3
:10229000A3F52F23A3F6C923002B40D1002303600D
:1022A000FF2E0CBFC3880368858015BF4FF46162A1
:1022B00043F0100302FB0636C38018BF0660BCF172
:1022C000FF0F0DBFC38802683C2343F0200316BFF5
:1022D00013FB0C23C3800360FF2F09BFC38803686F
:1022E00043F04003C38018BFFF18C38818BF0760BE
:1022F00015F5004F14BF43F0800343F4C073C3804F
:10230000F0BDFD2AAFD102220272A6E7FE2B02D158
:1023100004230372ADE7FD2BACD10823F9E7034A90
:102320005343BCE70080FFFFC8FA0A008051010058
:10233000174BB0FBF3F000F5C743243300F515103D
:10234000144A9B0000F28130B3FBF2F30F331844C0
:10235000A0EB930014224243A2F68A1247F22421F2
:1023600041F68943B2FBF3F3B2FBF1F2801A40F27B
:102370006D1202FB13024FF47A705043064A9042EA
:10238000A3F5935094BF0C380B3880B2704700BF50
:1023900080510100B13A02007D890600184BB0FB64
:1023A000F3F000F5C743243300F51510154A9B00E0
:1023B00000F28130B3FBF2F30F331844A0EB93002B
:1023C00014234343A3F68A1347F22422B3FBF2F209
:1023D000801A41F68942B3FBF2F340F26D1202FB20
:1023E0001300094A4FF47A734343934247F28970CA
:1023F000B3FBF0F094BF00F1FF300D38C0B270476E
:1024000080510100B13A02007D8906001A4BB0FBF1
:10241000F3F000F5C743243300F51510174A9B006D
:1024200000F28130B3FBF2F30F331844A0EB9300BA
:1024300014234343A3F68A1347F22422B3FBF2F298
:10244000801A41F68942B3FBF2F340F26D1202FBAF
:1024500013004FF47A7101FB00F347F28972B3FB6A
:10246000F2F21E2303FB120040F259235343B3FB45
:10247000F1F3C01AC0B2704780510100B13A0200B6
:102480000268054BB2FBF3F003FB10204FF46163CD
:10249000B0FBF3F0C0B2704780510100F8B5DDE940
:1024A00008540E46DDE9067C114635B14FF03C0E6E
:1024B000B0FBFEF20EFB12022A703C25B0FBF5F0D9
:1024C000BCF1000F05D0B0FBF5F205FB12028CF851
:1024D00000203C22B0FBF2F02FB11825B0FBF5F242
:1024E00005FB12023A701822B0FBF2F000F5C74566
:1024F000243500F51510264ADFF898C0AD0000F22B
:102500008130B5FBF2F50F352844A0EB950014257A
:102510004543A5F68A1547F2242741F68942B5FBC3
:10252000F2F2B5FBF7F540F26D17401B07FB1207FF
:102530004FF47A7078436045A2F5935247F289755B
:1025400098BF0C3AB0FBF5F58ABF0B3A05F1FF30A6
:10255000A5F10D0006B1328001B108705BB11E20FB
:1025600000FB157040F2592255434FF47A72B5FBC7
:10257000F2F5401B187044B13EB131B12BB11A785D
:10258000097830880CF0FFFF20700020F8BD00BFF4
:10259000B13A02007D8906002DE9F04186B00DF1C7
:1025A0001503029305AB002401930DF1130300936F
:1025B000064603940DF112030DF111020068ADF807
:1025C00016400D460DF116018DF811408DF81240A0
:1025D0008DF813408DF814408DF81540FFF75EFF1D
:1025E000F28802F00703072B00F0DD80337A13F046
:1025F000010716D07F4928460CF03AF8F3885907AE
:1026000000F1AC801CB92F2128460BF000FF337A73
:1026100013F0040423D0784928460CF029F800244C
:1026200023E013F0020406D0744928463C460CF01F
:102630001FF80127E2E7900707D49DF81110022246
:1026400028460CF0B1F92746D8E713F00C0704D060
:102650006B4928460CF00CF8F5E70124CEE71A0781
:1026600075D5684928460CF003F8F388DB0700F1BC
:102670008880002C7BD0BDF8161028460CF0A4F9F9
:102680000024F78807F070071CB9202128460BF0BA
:10269000BEFEF38813F0100840F087809DF81310F9
:1026A000022228460CF080F90024F388990600F1F4
:1026B00089801CB93A2128460BF0A9FE9DF8141018
:1026C000022228460CF070F90024F3885A0600F123
:1026D00085801CB93A2128460BF099FE9DF815100B
:1026E000022228460CF060F9B6F9044014F5004FB8
:1026F00022D0F388DB051FD46442434924B2284624
:102700000BF0B6FF002CB4BF4049414928460BF0FE
:10271000AFFF3C27022294FBF7F6284631460CF027
:1027200043F93C4928460BF0A3FF07FB1641022260
:1027300009B228460CF038F9002128460BF067FE54
:10274000EB880020013BEB8006B0BDE8F0819DF8EE
:102750001210022228460CF027F986E7002F84D0B9
:102760001CB92F2128460BF052FE254954E72F2192
:1027700028460BF04CFEF388D8077FF57CAF214646
:102780007BE7337A13F00C0F09D01CB92F212846B0
:102790000BF03DFE1A4928460BF06AFF70E7002F48
:1027A0003FF46FAFF1E701246BE7002F3FF47DAFFB
:1027B0001CB93A2128460BF02AFE2A2128460BF0A4
:1027C00026FE71E7002F80D01CB93A2128460BF075
:1027D0001EFE2A2128460BF01AFE75E7002F83D033
:1027E0001CB93A2128460BF012FE2A2128460BF08C
:1027F0000EFE79E73BF9010045F9010041F90100BE
:10280000160002004DF9010056F901009806020079
:102810005BF901005DF90100037A5B072DE9F041E6
:102820000568B0F90480044611D50CF042FE064656
:1028300020460CF038FE074620460CF037FE0146D5
:1028400038460CF07EFE064B801B03FB0055C8F398
:102850000E0313B13C2318FB03552846BDE8F08155
:1028600080510100F0B54F1C89B006460D46144654
:1028700000F08180FFF7D0FF002303930DF11603D2
:1028800002930DF11503019305AB00930DF11202B4
:102890000DF1130307A9FFF701FE14F5004F1CBF4C
:1028A0003C2314FB03550DF11B0302930DF11A0396
:1028B000019300270DF1190300930DF117020397FF
:1028C00006AB0DF11E012846FFF7E8FDF28812F075
:1028D00077044AD056064DBF3B469DF816009DF83A
:1028E0001B301846950608D49DF815403C2111FB75
:1028F00004009DF81A4011FB0433D40609D49DF856
:1029000014404FF4616101FB04009DF8194001FB84
:102910000433510708D49DF81340184901FB040003
:102920009DF8184001FB043302F00101920715D411
:1029300051B9BDF81C10BDF81E20914204D01AD226
:102940004FF0FF3009B0F0BD9DF812109DF8172030
:102950009142F4D19842F2D10020F3E70029F9D155
:10296000BDF81C10BDF81E20F2E73046FFF754FFFB
:102970008542F1D0E4D80120E4E700BF8051010096
:10298000F0B50B4F00254FF6FF73AEB2964205F13E
:10299000010503D3D84340BA80B2F0BD0468344483
:1029A000645C5C40E4B237F8144084EA1323ECE73B
:1029B00028F501002DE9F34105460E461C46D2B12B
:1029C000C388ADF806300C200AF094FCA0600BF030
:1029D000B5FCBDF80610A068DFF874800A23490032
:1029E000237089B20BF0B0FC0027BDF80630BB4263
:1029F00013D100200EE00DF1060118F0D3FD20BB2D
:102A00002B89EA88D21ABDF806305B009BB29A4245
:102A1000D9DA707102B0BDE8F0810DF105012846E8
:102A20000BF065FE0028F5D19DF80560A06833091C
:102A300006F00F0618F803100BF0C6FD18F8061084
:102A4000A0680BF0C1FD0137CFE74FF48270E1E7DA
:102A50006DF901002DE9F043C388164602899B1ADF
:102A6000032B89B0054606DC002048710446204649
:102A700009B0BDE8F0830DF11F010BF038FE0446EC
:102A80000028F4D10DF11F0128469DF81F700BF0AE
:102A90002EFE04460028EAD10DF11F0128469DF8BC
:102AA0001F800BF024FE04460028E0D10DF11F0129
:102AB00028469DF81F900BF01AFE04460028D6D138
:102AC0009DF81F30FF2B1CBF03EB83035D0096F9BD
:102AD000003008BF4FF6FF75002B03DB0C200AF017
:102AE00009FCB060074BB0680097CDE90353FF23A2
:102AF0001A46CDE901894FF6FF71FFF771FB1B23E1
:102B00003370B4E70080FFFF2DE9F041C38815461C
:102B100002899B1A042B88B0064606DC0020487107
:102B20000446204608B0BDE8F0810DF11E010BF00F
:102B300007FE04460028F4D10DF11D0130460BF0CC
:102B4000D6FD04460028ECD10DF11D0130469DF85C
:102B50001D700BF0CCFD04460028E2D10DF11D01E3
:102B600030469DF81D800BF0C2FD04460028D8D1E8
:102B700095F90030002B03DB0C200AF0BBFBA860AA
:102B80000C4ABDF81E10A868FF23CDE90332CDE939
:102B900001333A4600934346FFF722FB9DF81D3070
:102BA000072B81BFAA68D38843F00803D3801A2378
:102BB0002B70B6E70080FFFF10B502460B6808894E
:102BC000184492F858300C4603225BB106491BF0BA
:102BD0000AFB20B9238903332381002010BD4FF461
:102BE0008170FBE70149F2E76AF9010067F901002A
:102BF000F0B500260E4F3346F4B2944201DB180ABA
:102C0000F0BD0444655C08245B0815F0800F18BF14
:102C100043F0004313F0800F04F1FF3418BF7B40F2
:102C20006D0014F0FF04EDB2EED10136E4E700BF11
:102C300000BAB6D3F0B58B890A78013B12F0010FC8
:102C400089B004460D468B8140F08A8000F11C0754
:102C50000822444938461BF0C6FAD4F8D420064668
:102C6000A2B194F8A430990710D506AB02930DF1E8
:102C7000150301930DF1170300932B1D394604F141
:102C8000A800FFF707F9002841D01BE0D4F8DC309A
:102C9000002B56D0002E54D194F85830A3B906AB6F
:102CA00002930DF115030193D4F8DC100DF1170315
:102CB000009309682B1D04F1AC0204F1A800FFF792
:102CC000E9F8F0B109B0F0BD94F8A430002BE6D1DA
:102CD00095F83830002BE2D1E28D216B20460BF0C5
:102CE00024FA40B994F8A4309B0701D4E685266302
:102CF00040F20710E6E720460BF015FA0028CED088
:102D0000E0E795F8383013B9012385F83830D4F866
:102D1000F01049B1DDE906230E680027BB4208BF69
:102D2000B2421AD301320A600DF11601281D0BF0D0
:102D3000DEFC0028C6D16B78AB709DF816306B7046
:102D4000C0E706AB02930DF1150301930DF11703D4
:102D5000009304F1AC022B1D90E74FF48E70B1E7A5
:102D60000020AFE75FF901002DE9F3414E780446FA
:102D70000D46002E40F0228101F1040840460BF080
:102D8000D0FA98B10DF107014046AF890BF0AFFCC6
:102D9000002840F0D2809DF807606E70E02E05D8C4
:102DA000BF2E06D8182E7BD8042E4BD84FF4817036
:102DB000C3E0A6F1C003202BF8D801A252F823F0FB
:102DC000E52E0000E52E0000E52E0000E52E0000B7
:102DD000272F0000412F0000AD2D0000572F0000CD
:102DE000B32E0000B32E0000AD2D0000B32E000066
:102DF000CF2E0000CF2E0000AD2D0000CF2E000002
:102E0000B32E0000B32E0000CF2E0000B32E000022
:102E1000CF2E0000CF2E0000AD2D0000CF2E0000E1
:102E20007B2F0000AD2D0000AD2D0000832F000092
:102E3000832F0000A92F0000AD2D0000AD2D000054
:102E4000612F0000731F132BB0D801A252F823F09A
:102E5000BF2E0000BF2E0000AD2D0000AD2D0000E4
:102E6000AD2D0000AD2D0000AD2D00000F2F000096
:102E70004F2F0000732F0000B32F0000AD2D000076
:102E8000AD2D0000AD2D0000AD2D0000AD2D0000DA
:102E9000AD2D0000AD2D0000AD2D0000BF2E0000B7
:102EA000612E1AD85F2E60D8262E0BD8242E7FF6DE
:102EB0007DAF29462046FFF7BDFE00283DD10C2EF0
:102EC0002BD00FE0A6F12C03012B3FF66FAF3A4653
:102ED000294620460EF021FCEFE7A6F16203012B04
:102EE0003FF664AF95F82F3033BBAA896B899A42BD
:102EF00022D00C2E01D0C42E1ED12B7813B195F800
:102F00002E30CBB1294620460EF0AFF815E03A46F8
:102F1000294620460EF071F960B9EB78022B00F0DB
:102F2000C3800C26DEE73A46294620460DF0CDFF49
:102F30000028D7D0441C00D1002002B0BDE8F081A9
:102F4000294620460EF068FA0028F6D1CAE728463E
:102F50000EF063F8F8E7294620460EF008FAF3E78A
:102F6000294620460EF056FBEEE7AB89013BAB81CC
:102F7000B8E740460EF00BFBE6E740460EF028FBB4
:102F8000E2E794F858304BB194F8A430990740F137
:102F9000908029462046FFF74DFED5E73A46294660
:102FA00020460EF0BAFBCFE7294620460EF022FC61
:102FB000CAE7294620460EF0A4FAC5E70B78DA07DF
:102FC0003FF57DAF91F82E00184308D194F85830A2
:102FD0001BB1A6F16003012B05D80023AB81E02EC5
:102FE00005D000200EE00123E02E8B810DD16B8EE9
:102FF0000133AB81294620460EF00CFB6B896B86B2
:1030000000236B7094F85830A3B1C92E0FD8C72E87
:1030100004D8A6F12503012B3FF64FAF6B8EAB8191
:1030200000226A7029462046FFF79EFE45E7CB2E18
:103030008AD1F3E72D2E6B7006D82B2E7FF63DAF8D
:103040006B8EAB810022EDE706F13403DBB2102B6F
:103050003FF67AAFA6F1CC03102B3FF62EAF01A2BC
:1030600052F823F04130000041300000BB2E000038
:1030700041300000BB2E0000BB2E0000BB2E000024
:10308000BB2E00004130000041300000BB2E00008C
:1030900041300000BB2E0000BB2E0000BB2E000004
:1030A00041300000413000002B78DB073FF544AF92
:1030B00037E740F21D1040E790F8352040F20773E3
:1030C000A0F87830052A4FF0000380F87A3090F8A5
:1030D00058300BD143B1094BC3670A23A0F88230A3
:1030E000642380F880307047054BF5E71BB1054B32
:1030F000C3671423F2E7044BFAE700BFFE0F000C8E
:10310000000CFF0FFE0F010C010CFF0F2DE9F8431F
:10311000044600259DF82800DDF8249023634FF035
:103120000108062304F138070E469DF82010E285B9
:1031300084F8503084F8346084F8350084F8361010
:10314000A4F8DA50C4F8DC5084F8E050C4F8A08049
:1031500038460BF0F3F8494638460BF089FAE5613A
:10316000256204F144000BF0E9F84FF48063204934
:10317000A4F854301F4B84F85850AE4214BF0E468A
:103180001E464FF080134FF6FF77636640F201133F
:10319000A4F8683004F19800A4F85270E665A562BE
:1031A00084F8A45018F074FC84F8A450257084F8B6
:1031B0002480201D0BF0C2F804F110000BF0BEF8C3
:1031C00004F1A800A4F82C80FEF7FAF92046A4F830
:1031D000D8700EF0DDFB04F1E40018F059FCC4E9EE
:1031E0003C55A4F8EC702046BDE8F843FFF764BFF7
:1031F0000078B80038C004002DE9F3410C460546BC
:10320000C18820460CF039F828B9284F0646EB88CB
:10321000B1B28B4202D102B0BDE8F0816A462846C5
:103220000EF0BBFC0028F6D1022120460CF017F866
:103230000028F0D1009B204619780BF0B5FF00283C
:10324000E9D1009B204659890CF017F80028E2D1FB
:103250008046009843891FFA88F18B4201D10020F3
:1032600020E001AA04300EF098FCD8B903212046D2
:103270000BF0F5FFB0B9019920460BF014FF88B9A7
:10328000019BD96881B10631062220460BF06BFF05
:1032900040B9019B2046198A0BF094FF08F1010800
:1032A0000028D6D00136B2E73946EDE736FA0100FC
:1032B0002DE9F04F834BD1F8149087B0074618687A
:1032C00004909B88ADF8143088461046B7F8521029
:1032D00015460BF039F80446002840F0ED80B8F8A8
:1032E0004030B3BBB9F81A6083468246B9F81A3049
:1032F0001FFA8BF18B4259D1BAF1000F01D101367F
:10330000B6B2C8F83C60314628460BF0B6FFF0B9BB
:10331000BAF1000F1DD1042128460BF0A0FFB0B96F
:103320000F2128460BF04EFF88B999F80210284665
:103330000BF03AFF58B9062204A928460BF013FFF8
:1033400028B92A46494638460EF03BFE08B10446E5
:10335000B2E0B8F838A0B9F81A30534500F0AC80A4
:1033600002AA514609F1140018F019FC064600287B
:1033700040F0A68007F1900BB7F89630B1B28B42BF
:103380004FD102990B880F2B03D1D8F814309942F2
:1033900058D104212846EE880BF061FF002859D04F
:1033A000B0F5827F044600F0858085E002AA09F12D
:1033B000140018F0F4FB0028C9D102990B880F2BD8
:1033C0000DD10622114404A81AF00DFF30B3D8F82D
:1033D0001420029B9A421CBF06F1FF36B6B2BAF126
:1033E000000F18D107F1900253460092B7F89620CB
:1033F00099B28A420FD00098019303AA18F0CFFB2C
:103400000028A4D1DDE90221019B914203F10103CF
:10341000ECD1013EB6B20BF1010B67E74FF0010AA8
:10342000F9E703AA584618F0BAFB00288FD1DDE966
:1034300002329A4206F101069ED10AF1010A1FFAF0
:103440008AFA88E70622114404A81AF0CCFE002864
:103450009FD0F2E7029B284619880BF0B3FE0028A4
:103460009ED1029B284699780BF09EFE002897D1AA
:1034700002990622114428460BF075FE00288FD1D0
:1034800002992A4638460EF09CFD002888D197F80C
:1034900058302BB9D8F838300133C8F83830CCE779
:1034A00098F83420002AF5D1294638460EF04DFA16
:1034B0000028EFD0EE800024204607B0BDE8F08F52
:1034C0000446F9E786EC01002DE9F743037E4669DF
:1034D0008568022B0AD13169062229B95649284646
:1034E0000BF041FE044610E01144F8E7032B04D131
:1034F000716928460BF074FEF4E7042B23D1F18B9D
:1035000028460BF0BAFE0446C8B1204603B0BDE819
:10351000F08301AA1FFA88F1384618F0AAFD0028A6
:10352000E0D10198294618F0E4FE08F101080028CE
:10353000D8D1F28B1FFA88F39A42EAD1E5E78046A8
:1035400006F11807F5E7052B5BD1F18C28460BF047
:1035500094FE04460028D8D1074606F120084BE027
:1035600001AA40460EF019FB0028BBD102212846D3
:103570000AF04DFF0028B5D1032128460AF047FF85
:103580000028AFD1112128460AF041FF0028A9D117
:10359000019B284619780AF03AFF0028A2D1112190
:1035A00028460AF034FF00289CD1019B2846597810
:1035B0000AF02DFF002895D1092128460AF027FF9F
:1035C00000288FD1019804300AF0B5FEC1B2284618
:1035D0000AF01DFF002885D1019901F10409484630
:1035E0000AF0A9FE00220346494628460BF024F8BB
:1035F000013700287FF476AFF38CB9B28B42AFD19C
:1036000083E7062B01D1F16A73E7072B01D1316BF8
:103610006FE7082B05D196F8341028460BF049FEC9
:1036200060E7092B01D1B16B63E70A2B01D1F16B84
:103630005FE74FF4817468E736FA01002DE9F34142
:10364000017E4669856802296DD128460AF0DFFEB1
:103650000446002840F0BA80032128460AF0D7FE2D
:103660000446002840F0B280122128460AF0CFFE1E
:103670000446002840F0AA8033696BBB0146284607
:103680000AF0E7FE0446002840F0A0800921284601
:103690000AF0BDFE0446002840F098800621284626
:1036A0000AF0B5FE0446002840F090809B490622AF
:1036B00028460AF092FF0446002840F087800F2138
:1036C00028460AF0A4FE044600287FD1002128469F
:1036D0000AF09DFE044679E0198828460AF0B9FEF2
:1036E0000446002872D1092128460AF090FE0446BB
:1036F00000286BD1062128460AF089FE04460028DE
:1037000064D131690622114428460AF066FF044656
:1037100000285BD10F2128460AF079FE04460028D4
:1037200054D1317DD3E7032905D106F1180128468C
:103730000BF08EFDCEE7042902D106F12801F6E751
:10374000052902D106F13801F1E7062904D1B16C4F
:1037500028460BF045FDBDE7072901D1F16CF7E7DD
:1037600008292AD1022128460AF051FE044668BBE6
:10377000032128460AF04BFE044638BB1221284696
:103780000AF045FE044608BBB6F8501028460AF079
:1037900060FE0446D0B906F1540128460BF011FC36
:1037A000044698B9062128460AF031FE044668B955
:1037B000316E28460AF06FFE8CE7092924D1B6F84D
:1037C0006A1028460BF059FD0446C8B1204602B0E5
:1037D000BDE8F08101AA4146384618F04AFC0028AD
:1037E0007FF478AF0198294618F083FD00287FF414
:1037F00071AF08F10108B6F86A304345EAD1E5E750
:10380000804606F16407F6E70A2905D196F86C10A0
:1038100028460BF04EFD5DE70B297BD1022128469F
:103820000AF0F5FD04460028D0D1022128460AF00E
:10383000EEFD04460028C9D1022128460AF0E7FD22
:1038400004460028C2D1022128460AF0E0FD0446C1
:103850000028BBD1092128460AF0D9FD04460028DA
:10386000B4D1062128460AF0D2FD04460028ADD185
:10387000306F00F011FC0622014628460AF0ADFE2A
:1038800004460028A2D1122128460AF0C0FD0446B1
:1038900000289BD1B6F8741028460AF0DAFD0446D9
:1038A000002893D1022128460AF0B1FD04460028E1
:1038B0008CD1022128460AF0AAFD0446002885D1B1
:1038C000092128460AF0A3FD044600287FF47EAFB4
:1038D000062128460AF09BFD044600287FF476AFB7
:1038E000B06F00F0D9FB0622014628460AF075FEAB
:1038F000044600287FF46AAF122128460AF087FDAB
:10390000044600287FF462AFB6F87C1028460AF01F
:10391000A0FDDFE64FF4817458E700BF36FA0100DE
:103920002DE9F347037E46698568022B0AD1B16908
:10393000062229B9594928460BF015FC04460AE02D
:103940001144F8E7032B62D1718C28460BF095FCEB
:103950000446002857D0204602B0BDE8F08701AAEF
:1039600048460EF01AF90028E8D1022128460AF04C
:103970004EFD0028E2D1022128460AF048FD002829
:10398000DCD1092128460AF042FD0028D6D1019B4E
:103990001B682946D88817F036FE0746002878D1DC
:1039A000019BD3F800A050460AF0C5FC3A460346F6
:1039B000514628460AF040FE0028BFD1092128467A
:1039C0000AF025FD0028B9D1019B5B682946D888FB
:1039D00017F019FE074600285BD1019BD3F804A01D
:1039E00050460AF0A8FC3A460346514628460AF0DB
:1039F00023FE08F101080028A0D1738C1FFA88F17A
:103A00008B42ACD1A7E7804606F11C09F5E7042BF1
:103A100004D1316928460BF0E3FB8FE7052B04D175
:103A2000317D28460BF0C0FB88E7062B01D1B16A37
:103A3000F0E7072B04D1B18D28460BF0C3FB7DE7DF
:103A4000082B02D196F82E10EBE7092B02D196F83D
:103A50002F10E6E70A2B02D196F83010E1E70B2B86
:103A600002D196F83110DCE70C2B02D196F8321017
:103A7000D7E70D2B03D1B3786BB1B18EDCE70E2BFA
:103A800009D1B3783BB196F8361028460BF003FC09
:103A900054E73C465FE74FF481745CE736FA010077
:103AA0002DE9F3410F7E4E698D68022F06D196F8FD
:103AB000281028460BF0EFFB044608E0032F5DD1E9
:103AC000F18A28460BF0D9FB0446002852D0204644
:103AD00002B0BDE8F08101AA40460EF05EF8002871
:103AE000EAD1022128460AF092FC0028E4D1032101
:103AF00028460AF08CFC0028DED1092128460AF06D
:103B000086FC0028D8D1019B2946D88817F07BFD78
:103B10000028D1D1019B2846DA8819680AF05DFD9A
:103B20000028C9D1092128460AF071FC0028C3D118
:103B3000019B2946588A17F066FD0028BCD1019BDD
:103B400028465A8AD9680AF048FD0028B4D11221C3
:103B500028460AF05CFC0028AED1019B2846198B50
:103B60000AF077FC01370028A6D1F38AB9B28B425C
:103B7000B1D1ACE7074606F11008F6E7042F40F094
:103B8000BF8090F85830718C002B00F0898000299C
:103B900040F08680112128460BF06FFB0446002878
:103BA00095D15A49022228460FF0C9FB002840F05F
:103BB000AA805749072228460FF0C1FB002840F091
:103BC000A28054493A4628460FF0B9FB002840F03D
:103BD0009A8051490A2228460FF0B1FB002840F094
:103BE00092804E49052228460FF0A9FB002840F09C
:103BF0008A804B490C2228460FF0A1FB002840F098
:103C0000828048490C2228460FF099FB00287AD17F
:103C10004549042228460FF092FB002873D14349FE
:103C2000092228460FF08BFB00286CD140490B225B
:103C300028460FF084FB002865D13E490C22284617
:103C40000FF07DFB00285ED13B490C2228460FF087
:103C500076FB002857D139490C2228460FF06FFB1C
:103C6000002850D136490E2228460FF068FB002864
:103C700049D134490E2228460FF061FB002842D179
:103C800031490E2228460FF05AFB00283BD12F491C
:103C90000E2228460FF053FB041E18BF012416E71E
:103CA00028460BF0EAFA044600287FF410AF0746D6
:103CB00006F11C081FE001AA40460DF06EFF002827
:103CC0007FF4FAAE092128460AF0A1FB00287FF410
:103CD000F3AE019B2946D88817F095FC00287FF4A5
:103CE000EBAE019B2846DA8819680AF076FC0137AA
:103CF00000287FF4E1AE738CB9B28B42DBD1E6E6EB
:103D00004FF48174E3E60124E1E600BF7DF9010090
:103D100080F9010088F901008DF9010098F901008E
:103D20009EF90100ABF90100B8F90100BDF90100ED
:103D3000C7F90100D3F90100E0F90100EDF9010034
:103D4000FAF9010009FA010018FA010027FA010046
:103D50002DE9F341037E46698568022B0AD1F1699A
:103D6000062229B9814928460BF0FDF904460AE0EC
:103D70001144F8E7032B50D1F18C28460BF07DFA63
:103D80000446002845D0204602B0BDE8F08101AAD3
:103D900040460DF002FF04460028F4D102212846D7
:103DA0000AF035FB04460028EDD1032128460AF02D
:103DB0002EFB04460028E6D1112128460AF027FBF5
:103DC00004460028DFD1019B284619780AF01FFB22
:103DD00004460028D7D1112128460AF018FB0446D2
:103DE0000028D0D1019B284659780AF010FB0446E0
:103DF0000028C8D101982946083018F07AFA01370E
:103E000004460028BFD1F38CB9B28B42BFD1002445
:103E1000B9E7074606F12008F5E7042B4ED1F18AF1
:103E200028460BF02AFA04460028ACD1074606F1D2
:103E300010083EE001AA40460DF0AFFE04460028FF
:103E4000A1D1022128460AF0E2FA044600289AD1BC
:103E5000032128460AF0DBFA0446002893D11121F9
:103E600028460AF0D4FA044600288CD1019B284643
:103E700019780AF0CCFA0446002884D1112128468A
:103E80000AF0C5FA044600287FF47DAF019B28465E
:103E900059780AF0BCFA044600287FF474AF019800
:103EA0002946083018F025FA0137044600287FF427
:103EB0006AAFF38AB9B28B42BCD1A8E7052B52D1C5
:103EC00006F12C0738460AF036FA014618B928469A
:103ED0000AF09DFA4AE7022128460AF098FA0446B9
:103EE00000287FF450AF022128460AF090FA0446D9
:103EF00000287FF448AF092128460AF088FA0446D2
:103F000000287FF440AF708E294617F07CFB0446F2
:103F100000287FF438AF38460AF00DFA22460346EF
:103F2000394628460AF088FB044600287FF42BAF68
:103F3000092128460AF06BFA044600287FF423AFD3
:103F4000F08F294617F05FFB044600287FF41BAF73
:103F5000383630460AF0EFF9224603463146284605
:103F60000AF06AFB02E74FF481740CE736FA0100AD
:103F70002DE9F341017E85684669032947D004296C
:103F80004BD0022940F0838028460AF040FA0446CC
:103F9000002849D1042128460AF039FA04460028AD
:103FA00042D13369CBB9014628460BF00BF90446E0
:103FB000002839D13749062228460BF0D4F80446A8
:103FC00090BB014628460BF019F9044660BB014638
:103FD00028460AF01CFA044626E0198828460BF009
:103FE000F1F8044600BB31690622114428460BF063
:103FF000BAF80446C0B9317D28460BF0FFF80446F4
:1040000090B906F1180128460BF022F9E3E706F112
:10401000280128460AF0D5FFDDE7718F28460BF00E
:104020002CF9044600282ED0204602B0BDE8F081CD
:1040300001AA40460DF0B1FD0028CCD1032128464D
:104040000BF00DF90028C6D1019B1B682846198882
:104050000BF0B8F80028BED1019B19680622114464
:1040600028460BF080F80028B5D1019B5B682846F4
:1040700019780BF0C3F801370028ACD1738FB9B2AF
:104080008B42D5D1D0E7074606F13408F6E74FF466
:104090008174C9E736FA010008B10630704701485B
:1040A000704700BF3CFA01002DE9F04F022A8BB0A7
:1040B00080460C461E4640F0E5804B8C2BB94FF4F1
:1040C000817210460BB0BDE8F08F01F11007384641
:1040D00011F038F8054640BB3378092B25D1384616
:1040E0000DF0F4FC05A9ADF81400B0680AF03EFF2D
:1040F0000546D0B9BDF81430E382B3B1014606AA33
:1041000038460DF04AFD002838D1069B9B68B3F86D
:104110000690638C4B45D2D3AA465FFA89F9BDF865
:1041200014301FFA8AF18B421BD13378012B0ED148
:10413000B368DFF890B2D98838460DF0CBFC4FF069
:104140000009B068C2881FFA89F39A4218D198F81A
:104150005830E18A03B1A16338460DF0BBFC2A4612
:10416000AFE706AA38460DF018FD38B9B0684946E1
:104170000AF0CDFE0AF1010A0028D0D00546D4E7A6
:1041800003AA1FFA89F117F074FF05460028E6D14B
:10419000039B9B68DA88638C9A4290D18246039A8B
:1041A0009068C2881FFA8AF39A4211D8082009F051
:1041B000A1F8824617F065FE039B5046996817F0F8
:1041C0004EFF514638460DF0ABFC09F10109B8E746
:1041D00004AA1FFA8AF1019317F04BFF0246002848
:1041E0007FF46FAF049A019B1278092A01D0062A46
:1041F0002CD105AA194604F11C000DF0CEFC024694
:1042000000287FF45EAF049A059B1278092AD3E94F
:1042100000031ED10288082A18D193F90030022B1E
:1042200014D106A817F04BFD049B06A8996818F056
:1042300039F9049A089819210DF01EF9019006A881
:1042400017F099FE019A002A7FF43BAF0AF1010AA8
:10425000A5E7062AFAD101880129F7D193F90030A0
:10426000022BF3D15946063019F0BDFF0028EDD1DD
:10427000049B06A899680BF044F9049806A918F065
:104280003CF8E3E7032A11D100238B6301F110000E
:1042900010F058FF024600287FF413AF324604F1B5
:1042A0001C01404615F09FFD02460AE7042A05D18D
:1042B000184618F058F8A062002202E7052A05D136
:1042C000184618F050F884F82C00F5E7062A69D152
:1042D0001A780AB90A63F4E6986800283FF4EFAE4A
:1042E000C388042B7FF4EBAE06AA002117F0C1FEB1
:1042F000024600287FF4E5AE069818F034F806AAC6
:1043000005460121B06817F0B4FE024600287FF48C
:10431000D8AE2746002347F8303F069B9A68ADB2D7
:1043200012683B46294608F1980017F05FFC0246E8
:1043300000287FF4C6AE236BB3B939462846FDF793
:10434000E7FE024600287FF4BCAE069B206B9B680C
:1043500019680AF0B7FD024600287FF4B2AE216B5F
:1043600008F1E40017F0B3FB06AAB068022117F0C9
:1043700080FE024600287FF4A4AE069817F0F3FFF3
:1043800084F83C0006AAB068032117F072FE0246CA
:1043900000287FF496AE0190069817F0E4FF019A8A
:1043A000E0878EE6072A04D1184617F0DCFFA063E9
:1043B00082E7082A7FF483AE184617F0D4FF6063C3
:1043C0007AE700BF6C020020F0B51C4B85B00546B3
:1043D0000C466E4603F1100718685968324603C24E
:1043E0000833BB421646F7D11CB304EB44063046F3
:1043F00008F080FFD8B12B461C440546202113F855
:10440000012BA97004AF07EB121702F00F0217F887
:10441000107C2F7004AF3A449C4212F8102C6A7042
:1044200005F10305EBD18319002203F8012C05B037
:10443000F0BD012008F05EFF0470F8E742FA0100C9
:104440001B289ABF024B18564FF0FF30704700BF31
:1044500053FA010070B586B0FF238DF811300DF1CD
:104460001503039305AB02930DF1130301930DF1B3
:104470001203054600934FF6FF7604AA0C460DF191
:1044800011030DF116010068ADF816608DF810608B
:104490008DF812608DF813608DF814608DF815603A
:1044A000FDF7FCFFEB88D80748BFADF81660590749
:1044B00018BFFF23BDF8161018BF8DF81530204621
:1044C00009F0C7FF2B7ADA0753D5FE21204609F001
:1044D0009EFF2B7A580757D5FE21204609F097FFFB
:1044E000EB881B075BD49DF8153013B907238DF8B3
:1044F00015309DF81510204609F089FFEB88DE067F
:1045000054BF9DF81210FF21204609F080FFEB8870
:10451000980654BF9DF81310FF21204609F077FF3D
:10452000EB88590654BF9DF81410FF21204609F06E
:104530006EFFE98811F0800118BFFF21204609F0C5
:1045400066FFBDF816204FF6FF739A4202D0EB8843
:10455000DA0526D5144920460AF038F8EB889B0581
:1045600054BF697AFF21204609F051FF002006B0B0
:1045700070BD9B0701D5FD21A8E7EB889E0754BFBE
:104580009DF81010FF21A1E7190701D5FD21A4E72F
:10459000EB885A0754BF9DF81110FF219DE7FF21BA
:1045A000A9E7B5F90410D6E70080FFFF2DE9F34134
:1045B0008846054698F900300978002B26DA01F183
:1045C0007F03DBB2012B07D801F07F010170D8F81F
:1045D00008308360002434E001F17C03DBB2172B48
:1045E00004D87D4A22FA03F3DB0709D401F07F01E6
:1045F0002970D8F80830D3E90023C5E90223E9E798
:104600008268404617F072FE04461AE090F90020D6
:104610000378002A32DAA1F10903012B15D8D8F862
:10462000080001A916F0BEFF044650B9D8F80830BA
:10463000BDF8042019890C2000FB0131A86819F08D
:10464000E0FD204602B0BDE8F0810846FFF7F8FE25
:104650000446ADF80400287880F08000FFF7F0FEF3
:10466000A4B2A04207D1BDF80420A86808F108014F
:1046700019F0C7FDAEE74FF48174E2E7013B012B6F
:1046800004D88368B3F90430002B1FDB284617F0E9
:1046900072FC04460028D4D198F800302B700746ED
:1046A00098F800300A2B13D1D8F80830002B91D09D
:1046B0000C2008F01FFEA86009F040FED8F8083072
:1046C000A868DA88196809F088FF83E70127E7E717
:1046D000092BE9D05A1E012A48D8D8F80830002BF7
:1046E0003FF478AFDB88002B3FF474AFAC682CB993
:1046F000082008F0FFFDC0E90044A860D8F80830A1
:10470000A868D98817F0C1FB0026D8F80800C3882C
:10471000B3423FF45FAF6A46314617F0AAFC044645
:1047200000288ED187B1A86801AA17F0A2FC044620
:10473000002886D1DDE90010FFF738FF0446002885
:104740007FF47FAF0136E0E7102008F0D3FD009939
:10475000077087600190FFF729FF044600287FF467
:1047600070AF0199A86817F0B8FBEBE7192B05D1DA
:10477000D8F80810284617F0C0FD45E71A2B05D1D8
:10478000D8F80810284617F0CAFD3DE71B2B05D1C5
:10479000D8F80810284617F0D4FD35E7042B0DD1C2
:1047A000082008F0A7FDA86009F0C1FCD8F808307F
:1047B000A868DA88196809F035FD25E7192B3FF656
:1047C00009AF064AD256002A7FF704AF08F1080164
:1047D00005F108004CE700BF6100E00081FA01002C
:1047E0002DE9F041CAB0002304460D46014602A857
:1047F0008DF8083004938DF818300893FFF7D6FE33
:104800000646002870D1204617F0B5FB0A2D40F06F
:10481000D6800C2008F06EFDA06009F08FFD9DF899
:1048200008301B2B00F25F81DFE813F032001C0020
:104830001C006200AD006C0077005D015D01BA00F4
:104840005D015D015D015D015D017A008000860012
:104850008B005D019000990086009B00A700B500C9
:10486000B500B500A0687B2109F0D1FD00250498B2
:10487000C388AFB2BB4211D17D21A06809F0C7FD4A
:10488000A068002109F0C3FDA268D388013BD38052
:104890000A23237002A817F06EFB25E00BAAA9B229
:1048A00017F0E7FB002840F01C813FB12C21A068E5
:1048B00009F0ADFDA068202109F0A9FD0B9906A81B
:1048C000FFF774FE002840F00C81A16806A817F0DD
:1048D00094FD074606A817F04EFB0135002FC6D001
:1048E00002A817F048FB3E4630464AB0BDE8F081CA
:1048F0009DF81030A0681BB9804909F0B9FEC7E7E0
:104900007F49FAE7002300930123049AFA210BA8B8
:1049100016F004FFA0680BA9EFE700230093F4E76B
:10492000002300939DF910200123EFE7002300935B
:10493000BDF910200123E9E700239DF81020009322
:10494000E4E70023BDF810200093DFE70123009384
:10495000FA21DDE904230BA816F041FFDAE7002372
:10496000F5E70498FBF780FDCDE90001654BFA22DD
:1049700000210BA819F096FCCCE7DDE90423CDE972
:104980000023614BF3E7049809F0A8FC0146A068F6
:1049900009F086FE7CE7A1680498FDF7FDFD77E746
:1049A000049800283FF474AF09F0FAFF0546014669
:1049B000A06809F05DFE284608F0A4FC68E72378AB
:1049C0000A2B64D1032D09D1049B4C491868FCF7CC
:1049D000EDF9003818BF0120207206E0052D06D140
:1049E000049B186816F0DEFEA060257052E7062DC5
:1049F000F6D00F2D04D1049B186816F0D3FEEBE718
:104A0000102D05D1049B186816F0CCFE2081ECE730
:104A1000112DF0D0122D06D1049B186816F0C2FE9D
:104A20001223208135E7142D06D1049B186816F057
:104A300028FFC4E90201D8E7152DF6D0162DDAD0EB
:104A4000172D07D1049B2F4904F10802186808F0BC
:104A500021FDCAE7182D04D1049B2B4904F108025B
:104A6000F4E7092D3FD1049B0C201F6808F042FC9D
:104A7000A06009F063FC3946A06809F078FF257052
:104A800002A817F078FAA06809F0FDFF2CE79DF85E
:104A90000820192A0DF110082AD81C49192B8F5605
:104AA0000ED81A4AD256BA420DDB04F1080300218F
:104AB000184619F0E1FB3A46414619F0A2FB94E78B
:104AC0004FF0FF32EFE7D3B2BFB29F4203D141466E
:104AD00004F10800F1E718F8031031B901339BB273
:104AE000F3E7064600E7FE26FEE64FF48176FBE696
:104AF000192B4FF0FF37D4D93A46D6E76FFA0100A9
:104B000075FA01007AFA01007DFA010081FA0100CC
:104B100010B402788A4204460B4607D011B910BC83
:104B200017F029BA012A03D109297CD100202DE0F0
:104B30000A2A02D110BCFFF753BE033915290FD83A
:104B4000DFE801F00B0E0B0B0E0E0E0B0E0E0E0E11
:104B50000B0B0B0B0E0B0B0B0B0B19462046E9E74F
:104B6000053A162A5CD8DFE802F00C0C5B5B135B9D
:104B70005B5B1B5B0C0C0C0C5B0C0C0C0C0C4956A3
:104B800056000D2B0CBFFE204FF4817010BC7047F7
:104B9000193B022B98BFFE2088BF4FF48170F5E7C8
:104BA000053B132B3CD801A252F823F02D4B0000FB
:104BB0002D4B0000214C0000214C0000214C000036
:104BC0002D4B0000214C0000214C0000214C000026
:104BD000214C00002D4B00002D4B00002D4B000000
:104BE0002D4B0000214C00002D4B00002D4B0000F0
:104BF0002D4B00002D4B00002D4B00000A2B05D83B
:104C0000092B34BF4FF481700020BFE71A3B012B02
:104C100098BF0020C0E70A2BF2D9193B022BF7E717
:104C20004FF48170B2E7CA1E152AF9D801A151F8D4
:104C300022F000BF5B4B0000214C00005B4B0000EA
:104C40005B4B0000214C0000214C0000214C000077
:104C50005B4B0000214C0000214C0000214C000067
:104C6000214C00005B4B00005B4B00005B4B0000E5
:104C70005B4B0000214C00005B4B00005B4B0000D5
:104C80005B4B00005B4B00005B4B00000B6801338B
:104C90000B60014B1B68184708000020014B18608F
:104CA000704700BF0800002007B50B4600210246F0
:104CB0000191034801A900F065F903B05DF804FB18
:104CC0008D4C000030B585B0CDE9010104460025CA
:104CD00001A90548039500F055F9DDE90230984235
:104CE000B8BF255405B030BD51C501002DE9F84FBE
:104CF000B0F8189019F00808044693460DD0012921
:104D00000CBF49F0100949F02009A0F818908BF366
:104D10001188BFF36F8FBDE8F88F09F007090229EA
:104D200007D1204617F041FC0028F0D00128238B42
:104D300050D16769218B002F15DA256821F0070112
:104D4000C4E9008841F0010121830026218B01F094
:104D5000070ACA4502D0A368002B5CD10DB9002E0A
:104D600074D0002358E001F007035A1F012A20D80D
:104D700021F00701062B256889B2C4E900880CD10F
:104D8000002D2B4638BF00232BB1628B1B680132EC
:104D90006283002BF8D141F002012183204617F0F5
:104DA00004FC06460028D1D0238B43F02003238344
:104DB000CBE7042B0CD121F0070189B221832046D7
:104DC00017F0F3FB05460028BFD041F020012183F6
:104DD0000025BAE7032809D1226923F007031668E2
:104DE00043F00603238300252F46AFE7042806D1AE
:104DF000226923F00703566843F00403F2E705280D
:104E000006D1226923F00703966843F00503E9E71A
:104E100000252E46E8E7012341F0080121838BF3AA
:104E20001188BFF36F8F03BB002D33D116B1214919
:104E30002046B0474FF02003EFF3118B83F3128825
:104E4000BFF36F8F238B23F008032383238BDA06B2
:104E500028D523F0100323830121B4F8189009F01A
:104E6000070900297FF45BAF51E7A1680029DBD077
:104E70000B68D1F804B0002B38BF00239946524686
:104E80003B462046D847B9F1000FCDD0D9F80030C5
:104E90004946EEE729463B46524620462D6817F024
:104EA000A0FBC1E713F020011EBF23F020032383E2
:104EB0000221D2E70FC60100F0B5094E0168024693
:104EC0000A2700200C46013123789D5D6D0701D42F
:104ED0001460F0BD07FB0033A3F13000F2E700BF20
:104EE000750502002DE9F74F14469946D378244AF8
:104EF00013F802A06F2B0AF0030206460F46019238
:104F00002DD028D8582B14BF0A251025DDF8308065
:104F1000AA464FF0000B52465B4630463946FBF737
:104F2000CBFD092AD3B21FD830335F45DBB208BFAF
:104F3000564508F8013D01D3C84512D823789B0691
:104F400005D5082D16D1A37843F00803A370404679
:104F500003B0BDE8F08F03F0F703702BD3E708250B
:104F6000D4E706460F46D6E7019A012A0CBF37332D
:104F70005733DAE7102DEAD1A37843F01003E5E7C1
:104F8000750502002DE9F04F824693B08B4691469D
:104F90001C46002599F8000008B928463AE309F1B3
:104FA00001032528029306D05946D0470028C0F2B5
:104FB00031830135F1E1182200210CA819F05CF9C8
:104FC00099F80130252B59D0029A164612F8013B68
:104FD0002B2B00F08B8079D8202B00F08C80232B9A
:104FE00000F08E809DF8383003F04402442A03D14B
:104FF0006FF386138DF838309DF83830059643F0FE
:1050000080038DF8383033782A2B7ED19DF83930E3
:1050100043F001038DF83930731C05931A782E2A5A
:105020009DF839200CBF0121002161F341028DF868
:1050300039200BD15A1C05925A782A2A7BD19DF827
:10504000392042F004028DF839200233194611F854
:10505000010B6C2800F0B6807DD8682800F08480B1
:105060006A2800F0B9804C2800F0BD809DF83920F6
:105070006FF3C6028DF83920194680E009F102026B
:1050800002928DF83B309DF83930D90740F14981C3
:1050900054F8048BB8F1000F07DA9DF8382042F07D
:1050A00004028DF83820C8F100085A0740F1428107
:1050B00054F8047B002F80F241819DF839306FF362
:1050C00041038DF839304FF0FF3737E12D2B06D0F3
:1050D000302B87D19DF8383043F0400303E09DF832
:1050E000383043F004038DF838306EE79DF83830DF
:1050F00043F00803F7E79DF8383043F01003F2E778
:105100009DF8383043F02003EDE705A8FFF7D4FE03
:10511000059BB34281D09DF838100F90C1F3400237
:1051200042EAD072520062F07F0201F07D010A4330
:105130008DF8382071E705A8FFF7BEFE9DF83830DE
:105140001090C3F3400242EAD07060F341038DF83F
:105150003830059B7AE774289DF8392040D07A28AA
:1051600084D11346062228E05A78682A9DF839200F
:1051700021D1012161F3C6028DF83920991C0B461B
:1051800013F8012B0293782A9DF839308DF83B20D3
:1051900000F2BF80572A33D8412A03D0453A022A69
:1051A00000F2B7809DF83A30042262F302038DF8D2
:1051B0003A30012384E01346022262F3C6038DF8DD
:1051C0003930DCE75A786C2A9DF8392001D1042166
:1051D000D0E713460322F0E79DF839300522ECE7CB
:1051E00013460722E9E7BDF8383023F4F04323F0F3
:1051F000020343F4804343F00203ADF83830BEE7C6
:10520000A2F15801202900F2848001A050F821F079
:10521000D552000013530000135300001353000035
:1052200013530000135300001353000013530000E6
:1052300013530000A551000013530000D552000085
:1052400095520000A5510000A5510000A551000095
:105250001353000095520000135300001353000035
:105260001353000013530000DD520000D55200001C
:10527000F95200001353000013530000F9520000CC
:1052800013530000D55200001353000013530000C5
:10529000D55200009DF83A10012003F0780360F326
:1052A0000201402B8DF83A1002BF9DF8381041F0F2
:1052B00001018DF83810632A31D1003B18BF01235A
:1052C0009DF83820C2F340010B4363F341028DF88F
:1052D0003820D8E69DF83A100220DEE79DF83A2003
:1052E00003F07803A3F14000032161F3020243427B
:1052F0008DF83A204341E3E79DF83A20032113F06B
:10530000780F61F302028DF83A2014BF01230023C5
:10531000D6E79DF8383043F001038DF8383000238C
:10532000CEE79DF93820002AB4BFDDF83C804FF06D
:10533000FF38BAE69F077FF5C6AE109F9DF839107B
:105340000023CDE90F339DF83A3003F00703012B1A
:10535000C1F3C30137D1CB1E042B21D8DFE803F002
:1053600003070720200054F8042BD31704E0073468
:1053700024F00704F4E80223CDE90C239DF838302B
:1053800013F0030655D0029B4A465946504617F083
:105390009FFA0028C0F23E810544DDF80890F9E547
:1053A00054F8042B01294FEAE273CDE90C2305D10F
:1053B0009DF830300C9300230D93DFE70229DDD1F7
:1053C000BDF93020D1E7022B23D1CB1E042B13D8FB
:1053D000DFE803F0030A0A12120022680C9200238D
:1053E000201D0D930446C9E7073424F00700F0E8B8
:1053F0000223CDE90C23F5E754F8043B0C93012973
:105400004FF000030D93D3D00229B7D1BDF830304F
:10541000D0E7042B07D1073424F00704F4E8022373
:10542000CDE90C23AAE7032B04BF54F8043B0C93EB
:10543000A4E79DF83B007828AFD8622820D825281B
:105440003FF4B2AD5828A8D10DF12E030093DDE949
:105450000C0106AB0EAAFFF745FD8146002F0DF1AA
:105460002E000BDB9DF83820A0EB09036FF38612AA
:105470009F428DF8382001D9FF1A0F9707463CE06C
:105480006338152889D801A252F820F00B55000086
:105490006D5500009B5300009B5300009B53000080
:1054A0009B5300006D5500009B5300009B53000070
:1054B0009B5300009B530000CB5500009955000002
:1054C0009D5500009B5300009B530000E5540000D5
:1054D0009B530000995500009B5300009B53000014
:1054E00099550000002FDDF830900ADB3946484618
:1054F00018F00FFF09EB00070026B9F1000F0CD1DF
:105500004BE74846FBF75CFCF4E70C9B8DF8183042
:1055100000260DF119070DF11809A7EB090306B1D3
:1055200001339DF83A20D00669D5023352060F990F
:1055300048BF109A0B4448BF9B18B8F1000F76DDA6
:105540009DF83820A8EB0308C2F3800303935307A8
:105550006DD4500661D53EB159463046D04700283B
:1055600058DB039B01351E46302357E01E0711D43C
:1055700013F0100618BF2026DDE90C23002A73F172
:105580000001BFF661AF524263EB4303CDE90C2348
:105590002D2659E72B26EFE7002655E70C9848B350
:1055A0000DF12E0300930EAA06AB0021FFF79AFC23
:1055B000BDF83A3003F0EF0343F4F04343F0100337
:1055C0008146ADF83A30002648E70C9B07293FF6A4
:1055D000E4AEDFE801F00D04060D08080D0D1D70A6
:1055E000DBE61D80D9E62846E917C3E90001D4E6C9
:1055F0001D60D2E62E4F0646A7F105098DE711077B
:1056000048BF013392E7184659460393D047002814
:10561000039B04DA13B0BDE8F08F202345444246D3
:10562000002AA5EB080108F1FF38ECDC0D462EB18D
:1056300059463046D0470028ECDB01359DF83A301A
:10564000D90601D41A0705D559463020D04700287D
:10565000E0DB01359DF83A30DB0606D59DF83B00CE
:105660005946D0470028D5DB01350F9E2E44731BC9
:10567000002B15DC3B464A465946504617F028F9A0
:105680000028C7DB0544A844A8EB0503002B7FF7DF
:1056900084AE59462020D0470028BBDB0135F3E714
:1056A00059463020D0470028B4DB0135DFE700BF82
:1056B000A0FA010008B504464FF02002EFF3118371
:1056C00082F31288BFF36F8F18F098F9204601F02B
:1056D00021FD034816F04FFF00F08AFFFCE700BFF2
:1056E000A1FA010030B51049104889B0002218F025
:1056F00006FC0F4D0F4900220023CDE906230024AC
:105700000E23CDE90334CDE901440B4B00944FF453
:105710004072284606F0D8FA0849284618F04BFA95
:10572000204609B030BD00BF41570000B003002043
:10573000E803002060240020A95B0000CAFA0100F1
:10574000014806F025BC00BF48030020F0B505461F
:105750000F4E002003460246012715F8014B0CB1FD
:105760008B4200D3F0BD252C02D182F00102F4E778
:10577000002AF2D014F806C01CF0030FEDD0732CF1
:1057800004BF07FA03F2104301330022E5E700BF2C
:10579000750502000C4A002310B513700B4A136004
:1057A0000B4B0C4A1A604FF4004000F0C9FC00F0AB
:1057B00079FA094817F0A3F8BDE8104007490848EE
:1057C0000423282218F0ADB9381D0020BC070020A2
:1057D0000C0000203DC90100C40700204045002006
:1057E000CC07002070B5124BBFF35B8F53E8005F0E
:1057F0006A1C43E800210029F8D1BFF35B8F2DB963
:105800000C4C0D4E361B3611B54200DB70BD237BB0
:1058100053B123689B690BB1204698476368042203
:105820001968204600F030FA01351034ECE700BF6B
:10583000C007002070EA010090EA010010B54FF0A7
:105840002003EFF3118483F31288BFF36F8F0448B2
:1058500017F065F884F31188BFF36F8F10BD00BF98
:10586000C407002010B5044C227812B9034806F092
:105870008FFB0123237010BD371D0020480300203B
:105880000C4BBFF35B8F53E8002F013243E800213C
:105890000029F8D1BFF35B8FBFF35B8F064B53E852
:1058A000002F013A43E800210029F8D1BFF35B8FB4
:1058B000704700BFBC070020B80700200020064B3F
:1058C000BFF35B8F024653E8000F43E80021002935
:1058D000F9D1BFF35B8F7047BC070020F8B5FFF725
:1058E000EDFF0A4C0A4D2D1B07462D110026AE4236
:1058F00000DBF8BD63685B792BB123681B6913B1CA
:1059000039462046984701361034F0E770EA010026
:1059100090EA0100174B984273B5044602D3164B28
:10592000984221D315480022002301A906F06AF904
:105930000546E0B90122019BBFF35B8F53E8001FCE
:1059400043E800200028F9D1BFF35B8F019E331D8F
:105950001F221846214618F0C9FC7E22034686F80D
:10596000232086F824501C46204602B070BD044B0C
:10597000F9E700BF20E70100B0060200CC070020D5
:10598000D2FA010048B1054B984205D3A0339842A2
:105990002CBF0020012070470020704740450020A8
:1059A000434B1B782DE9F74F044603B900B3FFF7CB
:1059B00045FF054678B1BFF35B8F3E4B53E8002FA0
:1059C000013A43E800210029F8D1BFF35B8F9CB175
:1059D000284617F092F82CB9374B1B68002B01DDD5
:1059E000FFF77CFF354816F098FF041E18BF01240E
:1059F000204603B0BDE8F08F314B1B78BBB92B7A42
:105A0000DB0714D417F08CF88046284617F053F8BB
:105A100001464046FFF79AFE2A4B2B4ADFF8BCA00E
:105A2000DFF8BCB09B1A06464FEAD30936B9274EB9
:105A3000274FBF1B3F114FF0000836E0B6FA86F73C
:105A4000C7F11F073946284617F038F8214B98420E
:105A5000024602D3204B984216D31046FFF792FF1E
:105A600090B9524510D06989C1F3891100F0FEF850
:105A70004FEA891343F001030246ADF8003039467E
:105A80004346584616F098FF012303FA07F726EA23
:105A90000706CBE773685B7923B1336829465B68F7
:105AA0003046984708F101081036B845F2DB8FE719
:105AB000371D0020B8070020BC070020C4070020C5
:105AC000381D002020EA010010EA010070EA010000
:105AD00090EA010020E70100B0060200D2FA0100BE
