:10000000C0350020A16C0000E1C70100756C000044
:10001000756C0000756C0000756C0000000000003D
:10002000000000000000000000000000D566000095
:10003000756C000000000000816600009FD0010088
:100040008D6700008D6700008D6700008D670000E0
:100050008D6700008D6700008D6700008D670000D0
:100060008D6700008D6700008D6700008D670000C0
:100070008D6700008D6700008D6700008D670000B0
:100080008D6700008D6700008D6700008D670000A0
:100090008D6700008D6700008D6700008D67000090
:1000A0008D6700008D6700008D6700008D67000080
:1000B0008D6700008D6700008D6700008D67000070
:1000C0008D6700008D6700008D6700008D67000060
:1000D0008D6700008D6700008D6700008D67000050
:1000E0008D6700008D6700008D6700008D67000040
:1000F0008D6700008D6700008D6700008D67000030
:1001000001F0FF01102A2BDB10F0070F08D010F8C8
:10011000013B013A8B422DD010F0070F42B3F6D1CC
:10012000F0B441EA012141EA014122F007047FF0E5
:1001300000070023F0E80256083C85EA010586EA3C
:10014000010685FA47F5A3FA87F586FA47F6A5FA78
:1001500087F68EB9EED1F0BC01F0FF0102F0070284
:1001600032B110F8013B013A83EA010313B1F8D12F
:100170000020704701387047002D06BF3546033810
:10018000073815F0010F07D1013015F4807F02BF49
:10019000013015F4C03F0130F0BC0138704700BF9A
:1001A00081F0004102E000BF83F0004330B54FEA28
:1001B00041044FEA430594EA050F08BF90EA020F95
:1001C0001FBF54EA000C55EA020C7FEA645C7FEA28
:1001D000655C00F0E2804FEA5454D4EB5555B8BF4B
:1001E0006D420CDD2C4480EA020281EA030382EABC
:1001F000000083EA010180EA020281EA0303362D4E
:1002000088BF30BD11F0004F4FEA01314FF4801C20
:100210004CEA113102D0404261EB410113F0004F32
:100220004FEA03334CEA133302D0524263EB4303E9
:1002300094EA050F00F0A780A4F10104D5F1200E87
:100240000DDB02FA0EFC22FA05F2801841F10001E2
:1002500003FA0EF2801843FA05F359410EE0A5F1B6
:1002600020050EF1200E012A03FA0EFC28BF4CF0E7
:10027000020C43FA05F3C01851EBE37101F000459D
:1002800007D54FF0000EDCF1000C7EEB00006EEBAA
:100290000101B1F5801F1BD3B1F5001F0CD3490834
:1002A0005FEA30004FEA3C0C04F101044FEA44528B
:1002B00012F5800F80F09A80BCF1004F08BF5FEA12
:1002C000500C50F1000041EB045141EA050130BDF2
:1002D0005FEA4C0C404141EB0101013C28BFB1F504
:1002E000801FE9D291F0000F04BF01460020B1FA4F
:1002F00081F308BF2033A3F10B03B3F120020CDA22
:100300000C3208DD02F1140CC2F10C0201FA0CF0FF
:1003100021FA02F10CE002F11402D8BFC2F1200C64
:1003200001FA02F120FA0CFCDCBF41EA0C0190401A
:10033000E41AA2BF01EB0451294330BD6FEA040463
:100340001F3C1CDA0C340EDC04F11404C4F120024E
:1003500020FA04F001FA02F340EA030021FA04F360
:1003600045EA030130BDC4F10C04C4F1200220FAB7
:1003700002F001FA04F340EA0300294630BD21FAF5
:1003800004F0294630BD94F0000F83F4801306BFBB
:1003900081F480110134013D4EE77FEA645C18BFAF
:1003A0007FEA655C29D094EA050F08BF90EA020F46
:1003B00005D054EA000C04BF1946104630BD91EA3E
:1003C000030F1EBF0021002030BD5FEA545C05D141
:1003D0004000494128BF41F0004130BD14F5800480
:1003E0003CBF01F5801130BD01F0004545F0FE41F4
:1003F00041F470014FF0000030BD7FEA645C1ABF29
:10040000194610467FEA655C1CBF0B46024650EA5F
:10041000013406BF52EA033591EA030F41F400218B
:1004200030BD00BF90F0000F04BF0021704730B511
:100430004FF4806404F132044FF000054FF00001E6
:1004400050E700BF90F0000F04BF0021704730B5A7
:100450004FF4806404F1320410F0004548BF40427C
:100460004FF000013EE700BF42004FEAE2014FEAD1
:1004700031014FEA02701FBF12F07F4393F07F4FAC
:1004800081F06051704732F07F4208BF704793F0AF
:100490007F4F04BF41F40021704730B54FF46074C2
:1004A00001F0004521F000411CE700BF50EA0102C5
:1004B00008BF704730B54FF000050AE050EA01026E
:1004C00008BF704730B511F0004502D5404261EBDE
:1004D00041014FF4806404F132045FEA915C3FF41F
:1004E000D8AE4FF003025FEADC0C18BF03325FEABC
:1004F000DC0C18BF033202EBDC02C2F1200300FA6D
:1005000003FC20FA02F001FA03FE40EA0E0021FA91
:1005100002F11444BDE600BF70B54FF0FF0C4CF47F
:10052000E06C1CEA11541DBF1CEA135594EA0C0F31
:1005300095EA0C0F00F0DEF82C4481EA030621EA6C
:100540004C5123EA4C5350EA013518BF52EA0335A7
:1005500041F4801143F4801338D0A0FB02CE4FF059
:100560000005E1FB02E506F00042E0FB03E54FF089
:100570000006E1FB03569CF0000F18BF4EF0010E81
:10058000A4F1FF04B6F5007F64F5407404D25FEA7D
:100590004E0E6D4146EB060642EAC62141EA555130
:1005A0004FEAC52040EA5E504FEACE2EB4F1FD0C72
:1005B00088BFBCF5E06F1ED8BEF1004F08BF5FEAF0
:1005C000500E50F1000041EB045170BD06F00046A2
:1005D00046EA010140EA020081EA0301B4EB5C044F
:1005E000C2BFD4EB0C0541EA045170BD41F4801147
:1005F0004FF0000E013C00F3AB8014F1360FDEBF6C
:10060000002001F0004170BDC4F10004203C35DA47
:100610000C341BDC04F11404C4F1200500FA05F3CA
:1006200020FA04F001FA05F240EA020001F000426B
:1006300021F0004110EBD37021FA04F642EB0601E1
:100640005EEA430E08BF20EAD37070BDC4F10C040B
:10065000C4F1200500FA04F320FA05F001FA04F2CF
:1006600040EA020001F0004110EBD37041F10001BB
:100670005EEA430E08BF20EAD37070BDC4F12005C6
:1006800000FA05F24EEA020E20FA04F301FA05F22E
:1006900043EA020321FA04F001F0004121FA04F2D6
:1006A00020EA020000EBD3705EEA430E08BF20EAA6
:1006B000D37070BD94F0000F0FD101F000464000E0
:1006C00041EB010111F4801F08BF013CF7D041EA62
:1006D000060195F0000F18BF704703F00046520066
:1006E00043EB030313F4801F08BF013DF7D043EA37
:1006F0000603704794EA0C0F0CEA135518BF95EAED
:100700000C0F0CD050EA410618BF52EA4306D1D173
:1007100081EA030101F000414FF0000070BD50EA92
:10072000410606BF1046194652EA430619D094EA1C
:100730000C0F02D150EA013613D195EA0C0F05D106
:1007400052EA03361CBF104619460AD181EA03015A
:1007500001F0004141F0FE4141F470014FF0000012
:1007600070BD41F0FE4141F4780170BD70B54FF0AD
:10077000FF0C4CF4E06C1CEA11541DBF1CEA13552D
:1007800094EA0C0F95EA0C0F00F0A7F8A4EB05040F
:1007900081EA030E52EA03354FEA013100F0888006
:1007A0004FEA03334FF0805545EA131343EA1263CF
:1007B0004FEA022245EA111545EA10654FEA002684
:1007C0000EF000419D4208BF964244F1FD0404F53D
:1007D000407402D25B084FEA3202B61A65EB030599
:1007E0005B084FEA32024FF480104FF4002CB6EB56
:1007F000020E75EB030E22BFB61A754640EA0C00D6
:100800005B084FEA3202B6EB020E75EB030E22BF15
:10081000B61A754640EA5C005B084FEA3202B6EB56
:10082000020E75EB030E22BFB61A754640EA9C0015
:100830005B084FEA3202B6EB020E75EB030E22BFE5
:10084000B61A754640EADC0055EA060E18D04FEAA3
:10085000051545EA16754FEA06164FEAC30343EA43
:1008600052734FEAC2025FEA1C1CC0D111F4801F10
:100870000BD141EA00014FF000004FF0004CB6E709
:1008800011F4801F04BF01430020B4F1FD0C88BFA8
:10089000BCF5E06F3FF6AFAEB5EB030C04BFB6EBB3
:1008A000020C5FEA500C50F1000041EB045170BDA6
:1008B0000EF0004E4EEA113114EB5C04C2BFD4EBD3
:1008C0000C0541EA045170BD41F480114FF0000E57
:1008D000013C90E645EA060E8DE60CEA135594EAD3
:1008E0000C0F08BF95EA0C0F3FF43BAF94EA0C0FD6
:1008F0000AD150EA01347FF434AF95EA0C0F7FF44B
:1009000025AF104619462CE795EA0C0F06D152EA9E
:1009100003353FF4FDAE1046194622E750EA410682
:1009200018BF52EA43067FF4C5AE50EA41047FF493
:100930000DAF52EA43057FF4EBAE12E74FEA4102F6
:1009400012F5001215D211D56FF47873B3EB625221
:1009500012D94FEAC12343F0004343EA505311F048
:10096000004F23FA02F018BF404270474FF00000DA
:10097000704750EA013005D111F0004008BF6FF018
:10098000004070474FF00000704700BF4A0011D28E
:1009900012F5001211D20DD56FF47873B3EB6252D9
:1009A0000ED44FEAC12343F0004343EA505323FAE5
:1009B00002F070474FF00000704750EA013002D15A
:1009C0004FF0FF3070474FF0000070474FEA400291
:1009D000B2F1FE4F0FD34FF09E03B3EB12620DD96D
:1009E0004FEA002343F0004310F0004F23FA02F0D7
:1009F00018BF404270474FF00000704712F1610F7E
:100A000001D1420205D110F0004008BF6FF0004054
:100A100070474FF0000070477BB972B90029BEBF24
:100A200000204FF0004106E008BF00281CBF6FF017
:100A300000414FF0FF3000F0B7B9ADF1080C6DE99F
:100A400004CE002909DB002B1ADB00F04DF8DDF89D
:100A500004E0DDE9022304B07047404261EB41014C
:100A6000002B1BDB00F040F8DDF804E0DDE9022399
:100A700004B0404261EB4101524263EB43037047D3
:100A8000524263EB430300F02FF8DDF804E0DDE9A8
:100A9000022304B0404261EB41017047524263EBD4
:100AA000430300F021F8DDF804E0DDE9022304B09F
:100AB000524263EB4303704753B94AB9002908BF58
:100AC00000281CBF4FF0FF314FF0FF3000F06CB931
:100AD000ADF1080C6DE904CE00F006F8DDF804E095
:100AE000DDE9022304B070472DE9F047089E0D466A
:100AF00004468E46002B40F082808A42174646D933
:100B0000B2FA82F24AB1C2F1200105FA02F320FAE8
:100B100001F1974041EA030E94404FEA1748230C35
:100B2000BEFBF8FCB9B208FB1CEE43EA0E430CFB1B
:100B300001F098420AD9FB180CF1FF3580F01681BC
:100B4000984240F21381ACF1020C3B441B1AA4B250
:100B5000B3FBF8F008FB103344EA034400FB01F157
:100B6000A14209D93C1900F1FF3380F00181A14273
:100B700040F2FE8002383C44641A40EA0C400021F6
:100B80001EB1D4400023C6E90043BDE8F08702B996
:100B9000FFDEB2FA82F2002A4FD1CB1B4FEA174E8A
:100BA0001FFA87F80121B3FBFEFC250C0EFB1C335A
:100BB00045EA034508FB0CF3AB4207D97D190CF15C
:100BC000FF3002D2AB4200F2E7808446ED1AA3B2B6
:100BD000B5FBFEF00EFB105543EA054408FB00F898
:100BE000A04507D93C1900F1FF3302D2A04500F21D
:100BF000D7801846A4EB080440EA0C40C0E78B42BB
:100C000008D9002E00F0AF800021C6E90005084693
:100C1000BDE8F087B3FA83F100294BD1AB4202D390
:100C2000824200F2B780841A65EB030301209E46DE
:100C3000002EAAD0C6E9004EA7E7C2F1200C01FAA7
:100C400002F3974020FA0CF04FEA174E21FA0CFC01
:100C50001843BCFBFEF1050C0EFB11CC1FFA87F804
:100C600045EA0C4501FB08F3AB4204FA02F409D94A
:100C70007D1901F1FF3C80F08B80AB4240F288800F
:100C800002393D44EB1A85B2B3FBFEF00EFB103384
:100C900045EA034500FB08F3AB4207D97D1900F193
:100CA000FF3C71D2AB426FD902383D44EB1A40EAA7
:100CB000014178E7C1F1200C8B4022FA0CF71F4369
:100CC00020FA0CF405FA01F34FEA174E25FA0CF559
:100CD0001C43230CB5FBFEF91FFA87F80EFB1955D0
:100CE00043EA054509FB08FAAA4502FA01F200FAAF
:100CF00001F308D97D1909F1FF3047D2AA4545D93A
:100D0000A9F102093D44A5EB0A05A4B2B5FBFEF02A
:100D10000EFB105544EA054400FB08F8A04507D92E
:100D20003C1900F1FF352DD2A0452BD902383C44A7
:100D300040EA0940A4EB0804A0FB02894C45C646E2
:100D40004D4619D316D05EB1B3EB0E0264EB050429
:100D500004FA0CFCCA404CEA0202CC40C6E900246A
:100D60000021BDE8F087314630460EE7AC46EDE69F
:100D7000184601E74345E6D2B8EB020E69EB0705DA
:100D80000138E0E72846D3E760468FE78146BAE7B7
:100D9000614677E708464BE7ACF1020C3D4415E7A6
:100DA00002383C4426E700BF704700BF10F8012B13
:100DB00011F8013B012A28BF9A42F7D0D01A704798
:100DC000034613F8012B002AFBD1181A013870478B
:100DD00001481AF012BF00BF64EB010083680149AB
:100DE0001B6818479405002070B586B000240223C4
:100DF00003948DF81330CDF80F408DF80C308DF83A
:100E00001130494B49491B88ADF80F30072203A820
:100E10008DF8142009F074FC2146204609F0D6FC18
:100E2000204609F0F3FC424B424E1A889B78ADF8FD
:100E3000082002A90D208DF80A301CF04FF90D2072
:100E400009F00AFE02A908201CF048F9082009F060
:100E500003FE01A809F02AFE0DF1050009F026FEA7
:100E60000DF1060009F022FE0DF1070009F01EFE4B
:100E70009DF80440304D0D2009F000FEE30003F121
:100E8000804303F5F83300F1804000F5C0409DF841
:100E90000540C3F81065C3F814050D2009F0FAFDEC
:100EA000E30003F1804303F5F83300F1804000F5DF
:100EB000C0409DF80640C3F81055C3F8140508203B
:100EC00009F0DCFDE30003F1804303F5F83300F1A2
:100ED000804000F5C040C3F810659DF80740C3F896
:100EE0001405082009F0D6FDE30003F1804303F563
:100EF000F83300F1804000F5C040C3F81055C3F846
:100F000014059DF8040009F005FE9DF8050009F0A0
:100F100001FE9DF8060009F0FDFD9DF8070009F0AF
:100F2000F9FD06B070BD00BF16ED0100D10D000047
:100F30002CE101000831014004310140F0B50D46BB
:100F40000D4904460020E60946EA4566EF0904F02B
:100F50007F033D46344654EA050618BF63F07F031D
:100F60000B700B781354013054EA0503C0B2EAD178
:100F7000024B1870F0BD00BF9E160020AF1A002073
:100F800070B5254D0246064600212878FFF7D6FFAA
:100F90002B78DA07044606D5204B32180021188832
:100FA000FFF7CCFF04442B789B0706D51B4B321967
:100FB00058880021FFF7C2FF04442B78580706D554
:100FC000164B321998880021FFF7B8FF04442B789C
:100FD000190706D5114B321998680021FFF7AEFFAB
:100FE00004442B78DA0606D50C4B3219D868002158
:100FF000FFF7A4FF04442B789B0606D5074B321954
:1010000018690021FFF79AFF0444054821461AF0A9
:10101000F4FD204670BD00BFB01B002080050020FD
:101020006FEB010070B5124E30461CF0B7F8C0B13E
:10103000104D3146284605F0CFF8044678B9B3681C
:101040009B6C8BB10C49102228461BF0A6FB0B4968
:101050004FF4806228461BF087FB6423AB62204676
:1010600070BD6FF01204FAE76FF08504F7E700BF78
:101070006CDE0100A00500209F1A00209F160020B2
:10108000F0B585B0FFF7CEFF18480CF00FFC4FF419
:10109000806116480CF010FC15481AF08AF80023FD
:1010A000CDE90133009301231946124843F2FF3280
:1010B00002F028F8104B186819795B79066987687F
:1010C0003468DA0754BF43F4B05383F4D053012596
:1010D00023F480528D40DB073B684CBF2C43AC436C
:1010E000346005B0BDE8F040184700BFF4050020AB
:1010F000B00200200C060020000000202DE9F04F77
:101100005E4BDFF8B0A15E4E93B000221A700793D9
:101110005C4C079B1B7813B113B0BDE8F08F5146B0
:101120004FF4007220461BF08FFA011EF1DD564A83
:10113000DFF86081DFF860B1544F4FF480635046B0
:101140001AF0B4FC524950481CF02FFC3060306853
:1011500000287DD0042319464E4ADFF8449102301E
:101160001AF0CFFCD8F8003031684B481C1244EA22
:101170000324C4F30B04023462004FF48063C8F804
:1011800000201CF093FB00230BF81430434C424921
:1011900038460CF0A4FE42482246394619F08AFE31
:1011A000254688B13F481AF028FD20461AF03CF841
:1011B00038460CF04FFD3068D8F8003034491844F8
:1011C0001CF0F3FB3060C2E7237C002BF3D03846E1
:1011D0000CF040FD2478002CEDD10AA80FF029FF77
:1011E000296A314F0AAA484619F067FEDFF8C8C0DD
:1011F000BCE80F000FC7DCF8003047F810392B4B64
:1012000009F1980B1C709846B9F89E30A1B28B4238
:1012100054D123480FF07FFE0023CDE90133009322
:101220000123194643F2FF321D4801F06BFF1748B6
:101230000CF010FD194819F0F7FF1D4B19791868CB
:10124000012404FA01F183685B699847079B1C70CD
:1012500013480FF060FE0023CDE901330093012312
:1012600043F2FF3219460E4801F04CFF07480CF0DC
:10127000F1FC0A4819F0D8FF4AE700BFAF1B002075
:1012800004060020A0050020B11B0020F40500206A
:10129000D0010020000600209E100020B002002097
:1012A0000C06002089EB010080050020B01B002007
:1012B000000000209E14002048E1010009AA5846C1
:1012C00019F025FF099AD17A93790491917A0391C3
:1012D000517A0291117A0191D27900921321494AEF
:1012E0000DA81AF097FC48490DA8FFF75FFD70B9EB
:1012F000A1B2286A08AA01311AF073F9089B1B8968
:101300003B8098F8003043F0010388F800303F49F3
:101310000DA8FFF74BFD70B9A1B2286A08AA0131E8
:101320001AF05FF9089B1B897B8098F8003043F026
:10133000020388F8003036490DA8FFF737FD98B949
:10134000A1B208AA0131286A1AF04BF9089B31486A
:1013500019891AF052FC089B1B89BB8098F8003051
:1013600043F0040388F800302B490DA8FFF71EFD59
:1013700098B9A1B208AA0131286A1AF032F9089B7B
:10138000264899681AF039FC089B9B68BB6098F85E
:10139000003043F0080388F8003021490DA8FFF71A
:1013A00005FD98B9A1B208AA0131286A1AF019F905
:1013B000089B1C4899681AF020FC089B9B68FB60FE
:1013C00098F8003043F0100388F8003016490DA853
:1013D000FFF7ECFC98B9A1B208AA0131286A1AF00B
:1013E00000F9089B114899681AF007FC089B9B6854
:1013F0003B6198F8003043F0200388F80030013456
:1014000002E700BFA1EB0100B3EB0100C2EB01005A
:10141000D1EB0100E0EB0100EEEB0100FCEB010081
:1014200015EC010023EC010042EC010050EC01003E
:1014300008B5104809F028FD0F4A106028B9BDE82A
:1014400008400C490D481AF0D8BB0D4B0D4A1A60E4
:101450004FF420629A8001229A710B4A9A60FFF73A
:10146000BDFC002804DABDE8084008481AF0C5BBF6
:1014700008BD00BF6FEC01000806002076EC0100FB
:1014800094050020E0609033080004018BEC01001B
:101490002DE9F041DFF87C800646D8F800000C46C4
:1014A00020B91548BDE8F0411AF0A7BB134B4FF423
:1014B00082725A81FFF792FC002801DA1048F1E7A6
:1014C0002246314600201AF0B9FA0E4F0E4B05465F
:1014D00018802246FF23314638461CF0E7F93D5379
:1014E000D8F800008368A21C5B683946984700283A
:1014F000B4BF06480648D5E79FEC010094050020DC
:101500008BEC0100B01A00209C100020BAEC010006
:10151000CCEC01000806002030B5134C13480E2512
:10152000C1B0C4F86C551AF068FBD4F86C151048BB
:101530001AF063FB0F48D4F824151AF05EFBC4F8C8
:101540006C55FFF751FCFFF79BFDFFF771FF0A4851
:101550001AF053FBFFF7D2FD6846FFF711FD014675
:101560006846FFF795FFF5E700200040D8EC010042
:10157000EAEC0100F6EC010000ED010010B50446B4
:10158000FEF750FF02460B4674B100224FF07F5326
:10159000FEF7C2FF640702460B4605D0054B00224A
:1015A000FEF704FE02460B4610461946FFF7EEF919
:1015B00080B210BD0000F03F70B50025061D044646
:1015C000C5610580857030460CF070F90D49102218
:1015D000304604F110060CF0B8FA30460CF066F90B
:1015E00009490822304604F120060CF0AEFA3046D4
:1015F0000CF05CF90549102230460CF0A6FAE562C1
:1016000070BD00BF30ED010018ED010020ED0100BC
:10161000F0B50B681BBA03604B681BBA43608B685C
:101620001BBA8360CB68802A1BBAC36034D1764C66
:10163000764900F1A005C26814F8017B0668D3B2B0
:1016400086EA076651F8233003F47F437340C2F300
:101650000726103051F8266006F47F067340160EF8
:1016600051F82660C6F307267340C2F3074651F8C7
:101670002660360206F07F46734050F80C6C03601B
:10168000734050F8086C4360734083605340C360FC
:101690008542D0D10020F0BD0B691BBA03614B69B4
:1016A000C02A1BBA436141D1574C584900F1A805E3
:1016B000426914F8017B0668D3B286EA076651F8DE
:1016C000233003F47F437340C2F30726854251F869
:1016D000266006F47F0683EA06034FEA126651F895
:1016E0002660C6F3072683EA0603C2F3074651F8CD
:1016F00026604FEA062606F07F4683EA0603466820
:10170000836183EA06038668C36183EA0603C668C9
:10171000036283EA0603436201D10C20BBE706693A
:10172000734083625340C3621830C1E78B691BBAB0
:101730008361CB69B2F5807F1BBAC36161D1324C42
:10174000324A00F1C005C16914F8017B0668CBB2CA
:1017500086EA076652F8233003F47F437340C1F3EF
:101760000726854252F8266006F47F0683EA0603C0
:101770004FEA116652F82660C6F3072683EA06038D
:10178000C1F3074652F826604FEA062606F07F4668
:1017900083EA06034668036283EA060386684362B7
:1017A00083EA0603C668836283EA0603C36201D143
:1017B0000E2070E7C3F30726DFB252F8266052F816
:1017C000277006F47F46C7F307273E4307697E402C
:1017D0001F0EC3F3074352F8277052F823303F021D
:1017E00007F07F4703F47F033B437340466903637D
:1017F000734086694363734059408363C1632030FB
:10180000A1E74FF4817046E748ED01005CE101007B
:101810002DE9F04F146805685768966824BA6C4043
:1018200045683FBA6F40856836BA6E40D568C26871
:101830008BB02DBA55404A1001929346A44A844673
:101840004FEA146E5FFA85F8DCF8101052F82EE0BB
:1018500052F828808EEA010E8EEA386EC7F30748E8
:101860005FFA84F952F82880DCF8141052F82990B5
:101870008EEA382EC6F307285FFA87FA52F82880D6
:1018800052F82AA08EEA384E4FEA1768C7F30727A6
:1018900052F8288088EA010888EA3968C6F30749BF
:1018A000DCF8181052F8299088EA3928C5F307297E
:1018B000BBF1010B52F8299088EA39484FEA1669C2
:1018C000F6B252F8299052F8266089EA010989EAAD
:1018D0003A69C5F3074A4FEA156552F82AA0DCF8C1
:1018E0001C1052F8255089EA3A29C4F3072AC4F398
:1018F000074485EA010552F8244052F82AA085EAF7
:10190000366585EA342552F8274085EA34454FEAA2
:10191000156689EA3A4952F826100291CEF3074635
:101920005CF8204F52F826100391C8F3072652F8AE
:10193000261004915FFA89F652F8261005915FFA95
:1019400088F652F826100691CEF3072652F8261094
:101950000791C5F3074652F8261008914FEA196619
:1019600052F8261009915FFA8EF64FEA1E6E52F871
:10197000267052F82EE0C5F30726EDB252F826A0E5
:1019800052F82550C9F30746C9F3072952F8261023
:1019900052F829904FEA1866C8F3074852F82660B3
:1019A00052F828802CD084EA0E0484EA3564DCF8EE
:1019B00004506E4086EA376686EA3127099DDCF8D6
:1019C00008600699754085EA31660899DCF80C5084
:1019D00086EA3126079986EA3146029969400D4622
:1019E000059985EA3165039985EA3125049984EAE8
:1019F000382484EA394487EA3A4785EA31451FE7C3
:101A00004FEA0E2E09F47F490EF07F4EC5F30725ED
:101A100008F47F0845EA09054EEA0808019A85EAB4
:101A200008056C4000EB4210220E1A70220C5A700E
:101A3000220A9A70320201F47F0B0AF47F4A02F004
:101A40007F42C7F30727DC7042EA0B0247EA0A0726
:101A5000574042687A40110E1971110C5971DA71B0
:101A6000110A069A9971C2F30726079A089902F497
:101A70007F421643099A120201F47F0102F07F426D
:101A80000A435640826805995640320E1A72320C4B
:101A90005A72320A9A72029ADE721502039A05F09D
:101AA0007F4502F47F022A43C1F30725049901F41C
:101AB0007F410D435540C26855402A0E1A732A0CC7
:101AC0005A732A0A9A73DD730BB0BDE8F08F00BF1A
:101AD0005CE101002DE9F04FDBB00024029003929D
:101AE0000E46F42200211DA899469DF890B1679DED
:101AF0009DF8A0711BF007FF0E22214619A8CDE921
:101B00000844CDE90A44CDE90C44CDE90E44CDE9C1
:101B10001044CDE9124418941BF0F5FE7A496598FB
:101B200008221BF0A7FE002800F0A88122461223FD
:101B300018A905A80CF059F80C2105A8ADF81A4011
:101B40000BF0BAFE0446002840F090816599082207
:101B500005A80BF0FAFF0446002840F087814946AB
:101B600005A80BF050FF0446002840F07F81669BDB
:101B7000802219681DA8FFF74BFD0446002840F09D
:101B8000758108AB0A211A461DA85991FFF740FE3E
:101B90009DF81A80DDF814A0B8F10C0F76D1DAF8B0
:101BA0000000DAF804100CAB03C3DAF80800186080
:101BB0000123ADF83C408DF83E408DF83F30202E9B
:101BC00000F09280002F40F05C8105A80CF031F805
:101BD000EB8829680C3B19440C2205A80BF0B5FFD3
:101BE000EB880C3B0446EB80102E40F08F8028469B
:101BF0002C890BF04EFE21460346112228460CF09C
:101C00009EF90446002840F0318101462881324681
:101C100028460BF0A5FE029B2A681B6A013203F1DD
:101C2000100153F8040B42F8040B8B42F9D10DF16B
:101C3000400A4FF00008CDF804A0CDF800802B68D2
:101C4000EA88194608A80CF0CDFAEB88113B9BB244
:101C50004246112128460CF072F9EA882B68134499
:101C600000930CA90446102352461DA80CF00DFB4E
:101C7000E9886FB3039B012B27D10C2342462846EA
:101C80000CF05DF9002C00F0A680EFE02146102258
:101C90000CA81BF038FE0CAB4246514608A80CF0CD
:101CA00059FA4FEA58138DF85E304FEAC8080CAB6A
:101CB000102214A908A8CDE914441694ADF85C408C
:101CC0008DF85F800CF046FA79E70C31E980D9E7AE
:101CD0002B680C22194418A81BF0CCFD002800F03A
:101CE000D28040F20F14C1E02A682C89284614449F
:101CF0000BF0CFFD224603460CA91DA80CF017FBE4
:101D0000002F00F0B28066E040ED0100302E40F080
:101D1000B1805FB12A682C89284614440BF0B9FDC4
:101D2000224603460CA91DA80CF001FB28462C896D
:101D30000BF0AFFD21460346112228460CF0FFF8B8
:101D40000446002840F0928001462881302228462F
:101D50000BF006FE029B2A681B6A013203F1100198
:101D600053F8040B42F8040B8B42F9D10DF14008F3
:101D70002968CDF80480EB88113B0093112201F112
:101D8000110308A80CF02EFAEB88113B9BB200223D
:101D9000112128460CF0D3F80446002866D15FB91B
:101DA0002A682C89284614440BF073FD224603460A
:101DB0000CA91DA80CF0BBFAEA882B681344009309
:101DC000424610230CA91DA80CF05FFAEB88002FE7
:101DD00042D00C33EB80039B032B46D105A80BF0BC
:101DE00028FF0446002841D1594605A80BF0C7FD3D
:101DF000044600283AD10BF12503DBB2012B08D8A9
:101E000005A9082018F0B7FE6599082205A80BF06F
:101E10009CFEE88805A9053018F0ADFE044628BBF5
:101E2000314605A80BF0ABFD0446F8B9494605A8B4
:101E30000BF0E9FD0446C8B90346BDF81A10059831
:101E40002A460CF0ADF8044680B9BDF81A20059971
:101E500028681BF01DFD09E029680C22194418A808
:101E60001BF008FD00287FF43CAF002420465BB047
:101E7000BDE8F08F002C3FF443AFF7E74FF48174D7
:101E8000F4E70024B0E6002CEFD0EFE72DE9F047AF
:101E90008AB0DDE9127ADDF8509006460D4690468C
:101EA0001C4613B94FF481709FE0DB8822899B1A8E
:101EB000012BF7DD0DF1190120460BF0D0FE0028B3
:101EC00040F093809DF81930DC2BEBD8C72B23D83A
:101ED0002D2B51D8202BE5D9213B0C2BE2D801A288
:101EE00052F823F0811F0000A51E0000A51E00006F
:101EF000A51E0000811F0000811F0000A51E00001C
:101F0000811F0000A51E0000A51E0000A51E0000E8
:101F1000811F0000811F0000C83B142BC2D801A202
:101F200052F823F0811F0000811F0000811F000074
:101F3000811F0000811F0000811F0000A51E0000FE
:101F4000811F0000811F0000811F0000811F000011
:101F5000811F0000811F0000811F0000A51E0000DE
:101F6000811F0000A51E0000A51E0000A51E000088
:101F7000F11F0000F11F0000412B01D0482B91D12F
:101F80000DF11A01204618F0C5FD70BB0DF11901C5
:101F900020460BF064FE40BB9DF8193003F0300280
:101FA0003A70BAF1000F03D003F003028AF8002060
:101FB0005B063FF577AF3B78002B3FF473AF07A983
:101FC00020460BF08AFE80B9079BB9F1000F01D0C3
:101FD000C9E900300022CDE90342CDE90158009261
:101FE000397802223046FFF775FD0AB0BDE8F08768
:101FF0000DF11A01204618F08DFD0028F5D1BDF82D
:102000001A20002ABCD0082A7FF44CAF08A9204629
:102010000CF004F808ADB3E770B504461046154659
:102020001E460CF09BF90246002865D009B1884293
:1020300064D1002120461BF066FC25803378A37113
:102040007378E371B3782372F37863723379A37290
:102050007379E3721D2D0FD80B2D13D90C3D112D63
:1020600010D8DFE805F02C0F0F110F0F0F400F0FE6
:102070000F32400F0F400F2F2F2D34D0482D32D06C
:10208000292D32D0002038E0062284F8382041F291
:102090000202E2841A4AA26240F20112A28502F10F
:1020A0003D72022302F60172A370A26484F84E30DE
:1020B00040F605020123A4F84C20E383E2E74FF445
:1020C0007A43A3800223A370DCE78022A283192233
:1020D00062830C4A226102F5750201230832A37063
:1020E00062612376CEE70123EDE7012323762823DF
:1020F000A383B4236383C5E70B2070BD0C20FCE7EA
:10210000F40205087800100037B5134B0446186830
:1021100000909B88ADF8043020460D460CF01EF967
:10212000014698B101200AF095FB286080B10F2C80
:10213000048005D00C2C1EBF00230093ADF80430A2
:102140006A4621460CF07DF903B030BD0B20FBE759
:102150004FF48270F8E700BF2FE101002DE9F04154
:10216000904606460F4606221A4940461D461BF079
:1021700081FB044650B32B464246394606F198008F
:1021800018F0ECFF0446F0B92B68E3B9E4362B46AF
:1021900042463946304618F0E1FFC8B92B6893B97A
:1021A0008FB129463846FFF7AFFF044658B92B6870
:1021B000D8F80020C3F80620B8F804205A8129680E
:1021C000304618F03CFF2046BDE8F0812860FAE771
:1021D0000446F8E753ED0100F0B5504CBDF924502A
:1021E0009DF814609DF818C09DF81C70B5F1FF3F74
:1021F00008BF2546022A0AD84FF6FF74A14202F111
:102200000C0218BF01F1FF31D2B218BF89B200240D
:10221000C48004814FF6FF74A14202BF0121C18036
:1022200040F2B2714FEA910E40F26D1404FB01E4EA
:10223000FF2A4FF4C87EB1FBFEFE74444FF0640EDB
:10224000B1FBFEF1A4EB010105D1C28842F4817219
:10225000C280012203E0FE2A4FD101220272FF2B2D
:1022600050D1C38843F48273C3800123541C04EB10
:10227000440E1E2414FB02120524BEFBF4F4224477
:102280001344274A934205D9A3F52F23A3F6C92364
:10229000002B40D100230360FF2E0CBFC3880368CE
:1022A000858015BF4FF4616243F0100302FB0636D0
:1022B000C38018BF0660BCF1FF0F0DBFC388026862
:1022C0003C2343F0200316BF13FB0C23C3800360A1
:1022D000FF2F09BFC388036843F04003C38018BFC2
:1022E000FF18C38818BF076015F5004F14BF43F0EF
:1022F000800343F4C073C380F0BDFD2AAFD1022236
:102300000272A6E7FE2B02D104230372ADE7FD2B78
:10231000ACD10823F9E7034A5343BCE70080FFFF31
:10232000C8FA0A0080510100174BB0FBF3F000F52A
:10233000C743243300F51510144A9B0000F2813086
:10234000B3FBF2F30F331844A0EB93001422424383
:10235000A2F68A1247F2242141F68943B2FBF3F335
:10236000B2FBF1F2801A40F26D1202FB13024FF43D
:102370007A705043064A9042A3F5935094BF0C38AC
:102380000B3880B2704700BF80510100B13A0200A3
:102390007D890600184BB0FBF3F000F5C7432433EA
:1023A00000F51510154A9B0000F28130B3FBF2F3E3
:1023B0000F331844A0EB930014234343A3F68A136E
:1023C00047F22422B3FBF2F2801A41F68942B3FBB2
:1023D000F2F340F26D1202FB1300094A4FF47A73D4
:1023E0004343934247F28970B3FBF0F094BF00F18E
:1023F000FF300D38C0B2704780510100B13A020081
:102400007D8906001A4BB0FBF3F000F5C743243377
:1024100000F51510174A9B0000F28130B3FBF2F370
:102420000F331844A0EB930014234343A3F68A13FD
:1024300047F22422B3FBF2F2801A41F68942B3FB41
:10244000F2F340F26D1202FB13004FF47A7101FBBC
:1024500000F347F28972B3FBF2F21E2303FB120072
:1024600040F259235343B3FBF1F3C01AC0B2704793
:1024700080510100B13A02000268054BB2FBF3F053
:1024800003FB10204FF46163B0FBF3F0C0B2704760
:1024900080510100F8B5DDE908540E46DDE9067CFF
:1024A000114635B14FF03C0EB0FBFEF20EFB1202AE
:1024B0002A703C25B0FBF5F0BCF1000F05D0B0FB55
:1024C000F5F205FB12028CF800203C22B0FBF2F082
:1024D0002FB11825B0FBF5F205FB12023A70182255
:1024E000B0FBF2F000F5C745243500F51510264A7B
:1024F000DFF898C0AD0000F28130B5FBF2F50F3582
:102500002844A0EB950014254543A5F68A1547F20B
:10251000242741F68942B5FBF2F2B5FBF7F540F20C
:102520006D17401B07FB12074FF47A707843604524
:10253000A2F5935247F2897598BF0C3AB0FBF5F5B6
:102540008ABF0B3A05F1FF30A5F10D0006B13280CC
:1025500001B108705BB11E2000FB157040F25922DA
:1025600055434FF47A72B5FBF2F5401B187044B135
:102570003EB131B12BB11A78097830880CF0BBFA32
:1025800020700020F8BD00BFB13A02007D8906002E
:102590002DE9F04186B00DF11503029305AB00243F
:1025A00001930DF113030093064603940DF11203FA
:1025B0000DF111020068ADF816400D460DF116013F
:1025C0008DF811408DF812408DF813408DF81440AD
:1025D0008DF81540FFF75EFFF28802F00703072B26
:1025E00000F0DD80337A13F0010716D07F492846CA
:1025F0000BF0F6FAF388590700F1AC801CB92F21D3
:1026000028460BF0BCF9337A13F0040423D0784940
:1026100028460BF0E5FA002423E013F0020406D06C
:10262000744928463C460BF0DBFA0127E2E79007A5
:1026300007D49DF81110022228460BF06DFC2746A6
:10264000D8E713F00C0704D06B4928460BF0C8FA02
:10265000F5E70124CEE71A0775D5684928460BF03F
:10266000BFFAF388DB0700F18880002C7BD0BDF82F
:10267000161028460BF060FC0024F78807F070075E
:102680001CB9202128460BF07AF9F38813F01008C2
:1026900040F087809DF81310022228460BF03CFC86
:1026A0000024F388990600F189801CB93A21284654
:1026B0000BF065F99DF81410022228460BF02CFC53
:1026C0000024F3885A0600F185801CB93A21284677
:1026D0000BF055F99DF81510022228460BF01CFC52
:1026E000B6F9044014F5004F22D0F388DB051FD45F
:1026F0006442434924B228460BF072FA002CB4BF5E
:102700004049414928460BF06BFA3C27022294FBD2
:10271000F7F6284631460BF0FFFB3C4928460BF004
:102720005FFA07FB1641022209B228460BF0F4FBC0
:10273000002128460BF023F9EB880020013BEB80B9
:1027400006B0BDE8F0819DF81210022228460BF079
:10275000E3FB86E7002F84D01CB92F2128460BF01D
:102760000EF9254954E72F2128460BF008F9F38884
:10277000D8077FF57CAF21467BE7337A13F00C0F47
:1027800009D01CB92F2128460BF0F9F81A49284620
:102790000BF026FA70E7002F3FF46FAFF1E701244A
:1027A0006BE7002F3FF47DAF1CB93A2128460BF0B0
:1027B000E6F82A2128460BF0E2F871E7002F80D0D6
:1027C0001CB93A2128460BF0DAF82A2128460BF0EA
:1027D000D6F875E7002F83D01CB93A2128460BF0B4
:1027E000CEF82A2128460BF0CAF879E759ED010006
:1027F00063ED01005FED010024F401006BED0100C9
:1028000074ED010077FA010079ED01007BED010024
:10281000037A5B072DE9F0410568B0F904800446AE
:1028200011D50CF0FEF8064620460CF0F4F80746E9
:1028300020460CF0F3F8014638460CF03AF9064B06
:10284000801B03FB0055C8F30E0313B13C2318FB98
:1028500003552846BDE8F08180510100F0B54F1CBA
:1028600089B006460D46144600F08180FFF7D0FF80
:10287000002303930DF1160302930DF11503019349
:1028800005AB00930DF112020DF1130307A9FFF739
:1028900001FE14F5004F1CBF3C2314FB03550DF142
:1028A0001B0302930DF11A03019300270DF1190385
:1028B00000930DF11702039706AB0DF11E01284698
:1028C000FFF7E8FDF28812F077044AD056064DBFB4
:1028D0003B469DF816009DF81B301846950608D417
:1028E0009DF815403C2111FB04009DF81A4011FB96
:1028F0000433D40609D49DF814404FF4616101FB00
:1029000004009DF8194001FB0433510708D49DF8D9
:102910001340184901FB04009DF8184001FB0433E3
:1029200002F00101920715D451B9BDF81C10BDF891
:102930001E20914204D01AD24FF0FF3009B0F0BDF2
:102940009DF812109DF817209142F4D19842F2D1CF
:102950000020F3E70029F9D1BDF81C10BDF81E20B6
:10296000F2E73046FFF754FF8542F1D0E4D801206A
:10297000E4E700BF80510100F0B50B4F00254FF692
:10298000FF73AEB2964205F1010503D3D84340BAB6
:1029900080B2F0BD04683444645C5C40E4B237F853
:1029A000144084EA1323ECE764E901002DE9F341C4
:1029B00005460E461C46D2B1C388ADF806300C2041
:1029C00009F050FFA0600AF071FFBDF80610A06882
:1029D000DFF874800A234900237089B20AF06CFF83
:1029E0000027BDF80630BB4213D100200EE00DF1E8
:1029F000060118F08FF820BB2B89EA88D21ABDF89F
:102A000006305B009BB29A42D9DA707102B0BDE821
:102A1000F0810DF1050128460BF021F90028F5D1D0
:102A20009DF80560A068330906F00F0618F803103A
:102A30000BF082F818F80610A0680BF07DF801374B
:102A4000CFE74FF48270E1E78BED01002DE9F04311
:102A5000C388164602899B1A032B89B0054606DCFB
:102A6000002048710446204609B0BDE8F0830DF10E
:102A70001F010BF0F4F804460028F4D10DF11F01FA
:102A800028469DF81F700BF0EAF804460028EAD1AA
:102A90000DF11F0128469DF81F800BF0E0F8044659
:102AA0000028E0D10DF11F0128469DF81F900BF082
:102AB000D6F804460028D6D19DF81F30FF2B1CBF46
:102AC00003EB83035D0096F9003008BF4FF6FF75F6
:102AD000002B03DB0C2009F0C5FEB060074BB0688B
:102AE0000097CDE90353FF231A46CDE901894FF63C
:102AF000FF71FFF771FB1B233370B4E70080FFFF0A
:102B00002DE9F041C388154602899B1A042B88B031
:102B1000064606DC002048710446204608B0BDE8A1
:102B2000F0810DF11E010BF0C3F804460028F4D12A
:102B30000DF11D0130460BF092F804460028ECD14F
:102B40000DF11D0130469DF81D700BF088F804460C
:102B50000028E2D10DF11D0130469DF81D800BF0DB
:102B60007EF804460028D8D195F90030002B03DB0D
:102B70000C2009F077FEA8600C4ABDF81E10A8686A
:102B8000FF23CDE90332CDE901333A4600934346B2
:102B9000FFF722FB9DF81D30072B81BFAA68D38861
:102BA00043F00803D3801A232B70B6E70080FFFFA1
:102BB00010B502460B680889184492F858300C4644
:102BC00003225BB106491AF055FE20B9238903336D
:102BD0002381002010BD4FF48170FBE70149F2E72B
:102BE00088ED010085ED0100F0B500260E4F33465B
:102BF000F4B2944201DB180AF0BD0444655C082479
:102C00005B0815F0800F18BF43F0004313F0800FEE
:102C100004F1FF3418BF7B406D0014F0FF04EDB2E7
:102C2000EED10136E4E700BF00BAB6D3F0B58B8928
:102C30000A78013B12F0010F89B004460D468B81E2
:102C400040F08A8000F11C070822444938461AF0F7
:102C500011FED4F8D4200646A2B194F8A430990706
:102C600010D506AB02930DF1150301930DF1170377
:102C700000932B1D394604F1A800FFF707F900283F
:102C800041D01BE0D4F8DC30002B56D0002E54D1BC
:102C900094F85830A3B906AB02930DF115030193D4
:102CA000D4F8DC100DF11703009309682B1D04F113
:102CB000AC0204F1A800FFF7E9F8F0B109B0F0BDEB
:102CC00094F8A430002BE6D195F83830002BE2D1EF
:102CD000E28D216B20460AF0E0FC40B994F8A43064
:102CE0009B0701D4E685266340F20710E6E72046FD
:102CF0000AF0D1FC0028CED0E0E795F8383013B9BF
:102D0000012385F83830D4F8F01049B1DDE9062305
:102D10000E680027BB4208BFB2421AD301320A60D4
:102D20000DF11601281D0AF09AFF0028C6D16B7814
:102D3000AB709DF816306B70C0E706AB02930DF1D7
:102D4000150301930DF11703009304F1AC022B1D41
:102D500090E74FF48E70B1E70020AFE77DED010002
:102D60002DE9F3414E7804460D46002E40F02281B5
:102D700001F1040840460AF08CFD98B10DF10701FD
:102D80004046AF890AF06BFF002840F0D2809DF8E2
:102D900007606E70E02E05D8BF2E06D8182E7BD89F
:102DA000042E4BD84FF48170C3E0A6F1C003202B52
:102DB000F8D801A252F823F0DD2E0000DD2E00002D
:102DC000DD2E0000DD2E00001F2F0000392F000037
:102DD000A52D00004F2F0000AB2E0000AB2E0000F1
:102DE000A52D0000AB2E0000C72E0000C72E00004E
:102DF000A52D0000C72E0000AB2E0000AB2E00005A
:102E0000C72E0000AB2E0000C72E0000C72E00000A
:102E1000A52D0000C72E0000732F0000A52D000077
:102E2000A52D00007B2F00007B2F0000A12F0000AC
:102E3000A52D0000A52D0000592F0000731F132B96
:102E4000B0D801A252F823F0B72E0000B72E000030
:102E5000A52D0000A52D0000A52D0000A52D00002A
:102E6000A52D0000072F0000472F00006B2F00004A
:102E7000AB2F0000A52D0000A52D0000A52D000002
:102E8000A52D0000A52D0000A52D0000A52D0000FA
:102E9000A52D0000B72E0000612E1AD85F2E60D835
:102EA000262E0BD8242E7FF67DAF29462046FFF72D
:102EB000BDFE00283DD10C2E2BD00FE0A6F12C0337
:102EC000012B3FF66FAF3A46294620460DF0DDFE56
:102ED000EFE7A6F16203012B3FF664AF95F82F30C0
:102EE00033BBAA896B899A4222D00C2E01D0C42E02
:102EF0001ED12B7813B195F82E30CBB12946204640
:102F00000DF06BFB15E03A46294620460DF02DFCEE
:102F100060B9EB78022B00F0C3800C26DEE73A465E
:102F2000294620460DF089FA0028D7D0441C00D14C
:102F3000002002B0BDE8F081294620460DF024FDB6
:102F40000028F6D1CAE728460DF01FFBF8E729460E
:102F500020460DF0C4FCF3E7294620460DF012FE92
:102F6000EEE7AB89013BAB81B8E740460DF0C7FD0A
:102F7000E6E740460DF0E4FDE2E794F858304BB147
:102F800094F8A430990740F1908029462046FFF735
:102F90004DFED5E73A46294620460DF076FECFE7AE
:102FA000294620460DF0DEFECAE7294620460DF0F0
:102FB00060FDC5E70B78DA073FF57DAF91F82E008D
:102FC000184308D194F858301BB1A6F16003012BC7
:102FD00005D80023AB81E02E05D000200EE00123B0
:102FE000E02E8B810DD16B8E0133AB8129462046BB
:102FF0000DF0C8FD6B896B8600236B7094F8583018
:10300000A3B1C92E0FD8C72E04D8A6F12503012BD2
:103010003FF64FAF6B8EAB8100226A702946204687
:10302000FFF79EFE45E7CB2E8AD1F3E72D2E6B707E
:1030300006D82B2E7FF63DAF6B8EAB810022EDE7DD
:1030400006F13403DBB2102B3FF67AAFA6F1CC03C6
:10305000102B3FF62EAF01A252F823F039300000BA
:1030600039300000B32E000039300000B32E0000CC
:10307000B32E0000B32E0000B32E00003930000044
:1030800039300000B32E000039300000B32E0000AC
:10309000B32E0000B32E000039300000393000009C
:1030A0002B78DB073FF544AF37E740F21D1040E7D0
:1030B00090F8352040F20773A0F87830052A4FF0D9
:1030C000000380F87A3090F858300BD143B1094BA7
:1030D000C3670A23A0F88230642380F880307047E9
:1030E000054BF5E71BB1054BC3671423F2E7044B0F
:1030F000FAE700BFFE0F000C000CFF0FFE0F010CE3
:10310000010CFF0F2DE9F843044600259DF8280027
:10311000DDF8249023634FF00108062304F13807FB
:103120000E469DF82010E28584F8503084F8346013
:1031300084F8350084F83610A4F8DA50C4F8DC506E
:1031400084F8E050C4F8A08038460AF0AFFB494646
:1031500038460AF045FDE561256204F144000AF0B5
:10316000A5FB4FF480632049A4F854301F4B84F82A
:103170005850AE4214BF0E461E464FF080134FF615
:10318000FF77636640F20113A4F8683004F19800F9
:10319000A4F85270E665A56284F8A45017F030FFD9
:1031A00084F8A450257084F82480201D0AF07EFB4A
:1031B00004F110000AF07AFB04F1A800A4F82C80B6
:1031C000FEF7FAF92046A4F8D8700DF099FE04F144
:1031D000E40017F015FFC4E93C55A4F8EC70204654
:1031E000BDE8F843FFF764BF0078B80038C00400BA
:1031F0002DE9F3410C460546C18820460BF0F5FA4F
:1032000028B9284F0646EB88B1B28B4202D102B0F2
:10321000BDE8F0816A4628460DF077FF0028F6D118
:10322000022120460BF0D3FA0028F0D1009B204663
:1032300019780BF071FA0028E9D1009B20465989D2
:103240000BF0D3FA0028E2D18046009843891FFA98
:1032500088F18B4201D1002020E001AA04300DF05A
:1032600054FFD8B9032120460BF0B1FAB0B9019947
:1032700020460BF0D0F988B9019BD96881B106319D
:10328000062220460BF027FA40B9019B2046198AF6
:103290000BF050FA08F101080028D6D00136B2E749
:1032A0003946EDE754EE01002DE9F04F834BD1F89C
:1032B000149087B00746186804909B88ADF81430C6
:1032C00088461046B7F8521015460AF0F5FA04463B
:1032D000002840F0ED80B8F84030B3BBB9F81A6070
:1032E00083468246B9F81A301FFA8BF18B4259D1C6
:1032F000BAF1000F01D10136B6B2C8F83C603146D0
:1033000028460BF072FAF0B9BAF1000F1DD1042172
:1033100028460BF05CFAB0B90F2128460BF00AFAE8
:1033200088B999F8021028460BF0F6F958B9062228
:1033300004A928460BF0CFF928B92A464946384651
:103340000EF0F7F808B10446B2E0B8F838A0B9F8C2
:103350001A30534500F0AC8002AA514609F114001E
:1033600017F0D5FE0646002840F0A68007F1900B26
:10337000B7F89630B1B28B424FD102990B880F2B20
:1033800003D1D8F81430994258D104212846EE8848
:103390000BF01DFA002859D0B0F5827F044600F0EA
:1033A000858085E002AA09F1140017F0B0FE00281C
:1033B000C9D102990B880F2B0DD10622114404A804
:1033C0001AF058FA30B3D8F81420029B9A421CBF66
:1033D00006F1FF36B6B2BAF1000F18D107F190022C
:1033E00053460092B7F8962099B28A420FD00098BF
:1033F000019303AA17F08BFE0028A4D1DDE9022176
:10340000019B914203F10103ECD1013EB6B20BF1F5
:10341000010B67E74FF0010AF9E703AA584617F0D6
:1034200076FE00288FD1DDE902329A4206F10106CC
:103430009ED10AF1010A1FFA8AFA88E7062211448E
:1034400004A81AF017FA00289FD0F2E7029B28463A
:1034500019880BF06FF900289ED1029B28469978B5
:103460000BF05AF9002897D10299062211442846F8
:103470000BF031F900288FD102992A4638460EF018
:1034800058F8002888D197F858302BB9D8F8383038
:103490000133C8F83830CCE798F83420002AF5D149
:1034A000294638460DF009FD0028EFD0EE800024B3
:1034B000204607B0BDE8F08F0446F9E735E101008A
:1034C0002DE9F743037E46698568022B0AD13169ED
:1034D000062229B9564928460BF0FDF8044610E0AB
:1034E0001144F8E7032B04D1716928460BF030F939
:1034F000F4E7042B23D1F18B28460BF076F9044630
:10350000C8B1204603B0BDE8F08301AA1FFA88F1D4
:10351000384618F066F80028E0D10198294618F0DE
:10352000A0F908F101080028D8D1F28B1FFA88F31E
:103530009A42EAD1E5E7804606F11807F5E7052B40
:103540005BD1F18C28460BF050F904460028D8D105
:10355000074606F120084BE001AA40460DF0D5FDD4
:103560000028BBD1022128460AF009FA0028B5D16B
:10357000032128460AF003FA0028AFD1112128467A
:103580000AF0FDF90028A9D1019B284619780AF014
:10359000F6F90028A2D1112128460AF0F0F90028F6
:1035A0009CD1019B284659780AF0E9F9002895D169
:1035B000092128460AF0E3F900288FD10198043048
:1035C0000AF071F9C1B228460AF0D9F9002885D16C
:1035D000019901F1040948460AF065F90022034601
:1035E000494628460AF0E0FA013700287FF476AF12
:1035F000F38CB9B28B42AFD183E7062B01D1F16ACC
:1036000073E7072B01D1316B6FE7082B05D196F8D3
:10361000341028460BF005F960E7092B01D1B16B96
:1036200063E70A2B01D1F16B5FE74FF4817468E720
:1036300054EE01002DE9F341017E466985680229B7
:103640006DD128460AF09BF90446002840F0BA8064
:10365000032128460AF093F90446002840F0B2807E
:10366000122128460AF08BF90446002840F0AA806F
:1036700033696BBB014628460AF0A3F904460028CB
:1036800040F0A080092128460AF079F90446002874
:1036900040F09880062128460AF071F90446002877
:1036A00040F090809B49062228460AF04EFA0446D4
:1036B000002840F087800F2128460AF060F9044670
:1036C00000287FD1002128460AF059F9044679E004
:1036D000198828460AF075F90446002872D1092194
:1036E00028460AF04CF9044600286BD106212846EA
:1036F0000AF045F90446002864D1316906221144D4
:1037000028460AF022FA044600285BD10F212846F9
:103710000AF035F90446002854D1317DD3E7032956
:1037200005D106F1180128460BF04AF8CEE7042926
:1037300002D106F12801F6E7052902D106F1380188
:10374000F1E7062904D1B16C28460BF001F8BDE77A
:10375000072901D1F16CF7E708292AD1022128466F
:103760000AF00DF9044668BB032128460AF007F960
:10377000044638BB122128460AF001F9044608BB6A
:10378000B6F8501028460AF01CF90446D0B906F1E4
:10379000540128460AF0CDFE044698B90621284671
:1037A0000AF0EDF8044668B9316E28460AF02BF9A4
:1037B0008CE7092924D1B6F86A1028460BF015F8D1
:1037C0000446C8B1204602B0BDE8F08101AA4146D6
:1037D000384617F006FF00287FF478AF0198294695
:1037E00018F03FF800287FF471AF08F10108B6F82F
:1037F0006A304345EAD1E5E7804606F16407F6E71B
:103800000A2905D196F86C1028460BF00AF85DE7F6
:103810000B297BD1022128460AF0B1F80446002882
:10382000D0D1022128460AF0AAF804460028C9D1BE
:10383000022128460AF0A3F804460028C2D102213A
:1038400028460AF09CF804460028BBD109212846E6
:103850000AF095F804460028B4D1062128460AF05B
:103860008EF804460028ADD1306F00F011FC06221E
:10387000014628460AF069F904460028A2D112211F
:1038800028460AF07CF8044600289BD1B6F874104C
:1038900028460AF096F80446002893D102212846CB
:1038A0000AF06DF8044600288CD1022128460AF05F
:1038B00066F80446002885D1092128460AF05FF8F9
:1038C000044600287FF47EAF062128460AF057F808
:1038D000044600287FF476AFB06F00F0D9FB0622D3
:1038E000014628460AF031F9044600287FF46AAF01
:1038F000122128460AF043F8044600287FF462AFFC
:10390000B6F87C1028460AF05CF8DFE64FF48174C4
:1039100058E700BF54EE01002DE9F347037E4669E6
:103920008568022B0AD1B169062229B9594928466E
:103930000AF0D1FE04460AE01144F8E7032B62D1F5
:10394000718C28460AF051FF0446002857D02046C3
:1039500002B0BDE8F08701AA48460DF0D6FB00286A
:10396000E8D1022128460AF00AF80028E2D1022113
:1039700028460AF004F80028DCD10921284609F07D
:10398000FEFF0028D6D1019B1B682946D88817F076
:10399000F2F80746002878D1019BD3F800A05046E2
:1039A00009F081FF3A460346514628460AF0FCF8E2
:1039B0000028BFD10921284609F0E1FF0028B9D12C
:1039C000019B5B682946D88817F0D5F80746002880
:1039D0005BD1019BD3F804A0504609F064FF3A463E
:1039E0000346514628460AF0DFF808F1010800288E
:1039F000A0D1738C1FFA88F18B42ACD1A7E7804627
:103A000006F11C09F5E7042B04D1316928460AF0B8
:103A10009FFE8FE7052B04D1317D28460AF07CFEFE
:103A200088E7062B01D1B16AF0E7072B04D1B18DED
:103A300028460AF07FFE7DE7082B02D196F82E106B
:103A4000EBE7092B02D196F82F10E6E70A2B02D1FB
:103A500096F83010E1E70B2B02D196F83110DCE735
:103A60000C2B02D196F83210D7E70D2B03D1B37887
:103A70006BB1B18EDCE70E2B09D1B3783BB196F870
:103A8000361028460AF0BFFE54E73C465FE74FF485
:103A900081745CE754EE01002DE9F3410F7E4E691D
:103AA0008D68022F06D196F8281028460AF0ABFE42
:103AB000044608E0032F5DD1F18A28460AF095FEFE
:103AC0000446002852D0204602B0BDE8F08101AA89
:103AD00040460DF01AFB0028EAD10221284609F0E1
:103AE0004EFF0028E4D10321284609F048FF0028B2
:103AF000DED10921284609F042FF0028D8D1019BD8
:103B00002946D88817F037F80028D1D1019B2846DC
:103B1000DA8819680AF019F80028C9D1092128465D
:103B200009F02DFF0028C3D1019B2946588A17F0C0
:103B300022F80028BCD1019B28465A8AD9680AF08D
:103B400004F80028B4D11221284609F018FF0028F3
:103B5000AED1019B2846198B09F033FF01370028AD
:103B6000A6D1F38AB9B28B42B1D1ACE7074606F1D0
:103B70001008F6E7042F40F0BF8090F85830718CA1
:103B8000002B00F08980002940F086801121284612
:103B90000AF02BFE0446002895D15A4902222846F5
:103BA0000EF085FE002840F0AA80574907222846DB
:103BB0000EF07DFE002840F0A28054493A46284687
:103BC0000EF075FE002840F09A8051490A222846DE
:103BD0000EF06DFE002840F092804E4905222846E6
:103BE0000EF065FE002840F08A804B490C222846E2
:103BF0000EF05DFE002840F0828048490C222846E5
:103C00000EF055FE00287AD14549042228460EF0D0
:103C10004EFE002873D14349092228460EF047FE84
:103C200000286CD140490B2228460EF040FE0028A7
:103C300065D13E490C2228460EF039FE00285ED19F
:103C40003B490C2228460EF032FE002857D1394954
:103C50000C2228460EF02BFE002850D136490E22A9
:103C600028460EF024FE002849D134490E22284669
:103C70000EF01DFE002842D131490E2228460EF0DA
:103C800016FE00283BD12F490E2228460EF00FFECB
:103C9000041E18BF012416E728460AF0A6FD0446B4
:103CA00000287FF410AF074606F11C081FE001AAA8
:103CB00040460DF02AFA00287FF4FAAE0921284682
:103CC00009F05DFE00287FF4F3AE019B2946D888F9
:103CD00016F051FF00287FF4EBAE019B2846DA88EE
:103CE000196809F032FF013700287FF4E1AE738CC8
:103CF000B9B28B42DBD1E6E64FF48174E3E60124EE
:103D0000E1E600BF9BED01009EED0100A6ED010084
:103D1000ABED0100B6ED0100BCED0100C9ED010005
:103D2000D6ED0100DBED0100E5ED0100F1ED010054
:103D3000FEED01000BEE010018EE010027EE010080
:103D400036EE010045EE01002DE9F341037E4669A0
:103D50008568022B0AD1F169062229B981492846D2
:103D60000AF0B9FC04460AE01144F8E7032B50D1ED
:103D7000F18C28460AF039FD0446002845D020463B
:103D800002B0BDE8F08101AA40460DF0BEF904463C
:103D90000028F4D10221284609F0F1FD044600284C
:103DA000EDD10321284609F0EAFD04460028E6D1BA
:103DB0001121284609F0E3FD04460028DFD1019BCC
:103DC0002846197809F0DBFD04460028D7D11121D7
:103DD000284609F0D4FD04460028D0D1019B28468E
:103DE000597809F0CCFD04460028C8D1019829462D
:103DF000083017F036FD013704460028BFD1F38C98
:103E0000B9B28B42BFD10024B9E7074606F12008BA
:103E1000F5E7042B4ED1F18A28460AF0E6FC044669
:103E20000028ACD1074606F110083EE001AA404642
:103E30000DF06BF904460028A1D10221284609F0B3
:103E40009EFD044600289AD10321284609F097FDDB
:103E50000446002893D11121284609F090FD04461C
:103E600000288CD1019B2846197809F088FD04466A
:103E7000002884D11121284609F081FD044600283C
:103E80007FF47DAF019B2846597809F078FD044600
:103E900000287FF474AF01982946083017F0E1FC40
:103EA0000137044600287FF46AAFF38AB9B28B4227
:103EB000BCD1A8E7052B52D106F12C07384609F0F2
:103EC000F2FC014618B9284609F059FD4AE70221DB
:103ED000284609F054FD044600287FF450AF022123
:103EE000284609F04CFD044600287FF448AF09211C
:103EF000284609F044FD044600287FF440AF708E48
:103F0000294616F038FE044600287FF438AF3846BC
:103F100009F0C9FC224603463946284609F044FE0A
:103F2000044600287FF42BAF0921284609F027FD1D
:103F3000044600287FF423AFF08F294616F01BFEBD
:103F4000044600287FF41BAF3836304609F0ABFC3E
:103F5000224603463146284609F026FE02E74FF482
:103F600081740CE754EE01002DE9F341017E856870
:103F70004669032947D004294BD0022940F08380A9
:103F8000284609F0FCFC0446002849D104212846B3
:103F900009F0F5FC0446002842D13369CBB901464B
:103FA00028460AF0C7FB0446002839D137490622C3
:103FB00028460AF090FB044690BB014628460AF0CA
:103FC000D5FB044660BB0146284609F0D8FC0446F0
:103FD00026E0198828460AF0ADFB044600BB31698B
:103FE0000622114428460AF076FB0446C0B9317D0A
:103FF00028460AF0BBFB044690B906F11801284692
:104000000AF0DEFBE3E706F1280128460AF091FA00
:10401000DDE7718F28460AF0E8FB044600282ED021
:10402000204602B0BDE8F08101AA40460DF06DF8CF
:104030000028CCD1032128460AF0C9FB0028C6D1AC
:10404000019B1B68284619880AF074FB0028BED122
:10405000019B19680622114428460AF03CFB0028FF
:10406000B5D1019B5B68284619780AF07FFB0137C0
:104070000028ACD1738FB9B28B42D5D1D0E70746B7
:1040800006F13408F6E74FF48174C9E754EE0100F5
:1040900008B1063070470148704700BF5AEE010072
:1040A0002DE9F04F022A8BB080460C461E4640F0A8
:1040B000E5804B8C2BB94FF4817210460BB0BDE8F4
:1040C000F08F01F11007384610F0F4FA054640BBB6
:1040D0003378092B25D138460CF0B0FF05A9ADF88F
:1040E0001400B0680AF0FAF90546D0B9BDF81430EA
:1040F000E382B3B1014606AA38460DF006F800285F
:1041000038D1069B9B68B3F80690638C4B45D2D39D
:10411000AA465FFA89F9BDF814301FFA8AF18B427A
:104120001BD13378012B0ED1B368DFF890B2D98858
:1041300038460CF087FF4FF00009B068C2881FFABC
:1041400089F39A4218D198F85830E18A03B1A163F3
:1041500038460CF077FF2A46AFE706AA38460CF03F
:10416000D4FF38B9B06849460AF089F90AF1010A62
:104170000028D0D00546D4E703AA1FFA89F117F02A
:1041800030FA05460028E6D1039B9B68DA88638CE9
:104190009A4290D18246039A9068C2881FFA8AF3A5
:1041A0009A4211D8082008F05DFB824617F021F9E9
:1041B000039B5046996817F00AFA514638460CF0AE
:1041C00067FF09F10109B8E704AA1FFA8AF1019310
:1041D00017F007FA024600287FF46FAF049A019B9C
:1041E0001278092A01D0062A2CD105AA194604F111
:1041F0001C000CF08AFF024600287FF45EAF049A90
:10420000059B1278092AD3E900031ED10288082AE7
:1042100018D193F90030022B14D106A817F007F833
:10422000049B06A8996817F0F5FB049A08981921D1
:104230000CF0DAFB019006A817F055F9019A002A54
:104240007FF43BAF0AF1010AA5E7062AFAD10188FB
:104250000129F7D193F90030022BF3D159460630EA
:1042600019F008FB0028EDD1049B06A899680AF014
:1042700000FC049806A917F0F8FAE3E7032A11D125
:1042800000238B6301F1100010F014FA024600289D
:104290007FF413AF324604F11C01404615F05BF881
:1042A00002460AE7042A05D1184617F014FBA0625B
:1042B000002202E7052A05D1184617F00CFB84F806
:1042C0002C00F5E7062A69D11A780AB90A63F4E6E0
:1042D000986800283FF4EFAEC388042B7FF4EBAE60
:1042E00006AA002117F07DF9024600287FF4E5AE0A
:1042F000069817F0F0FA06AA05460121B06817F0F3
:1043000070F9024600287FF4D8AE2746002347F80C
:10431000303F069B9A68ADB212683B46294608F1C9
:10432000980016F01BFF024600287FF4C6AE236BF0
:10433000B3B939462846FDF7E7FE024600287FF468
:10434000BCAE069B206B9B6819680AF073F80246A6
:1043500000287FF4B2AE216B08F1E40016F06FFE86
:1043600006AAB068022117F03CF9024600287FF443
:10437000A4AE069817F0AFFA84F83C0006AAB0681D
:10438000032117F02EF9024600287FF496AE019023
:10439000069817F0A0FA019AE0878EE6072A04D162
:1043A000184617F098FAA06382E7082A7FF483AED4
:1043B000184617F090FA60637AE700BFD301002037
:1043C000F0B51C4B85B005460C466E4603F1100750
:1043D00018685968324603C20833BB421646F7D103
:1043E0001CB304EB4406304608F03CFAD8B12B4627
:1043F0001C440546202113F8012BA97004AF07EBDC
:10440000121702F00F0217F8107C2F7004AF3A4415
:104410009C4212F8102C6A7005F10305EBD1831948
:10442000002203F8012C05B0F0BD012008F01AFAB3
:104430000470F8E760EE01001B289ABF024B185683
:104440004FF0FF30704700BF71EE010070B586B0CD
:10445000FF238DF811300DF11503039305AB029383
:104460000DF1130301930DF11203054600934FF66E
:10447000FF7604AA0C460DF111030DF11601006838
:10448000ADF816608DF810608DF812608DF813602D
:104490008DF814608DF81560FDF7FCFFEB88D807E8
:1044A00048BFADF81660590718BFFF23BDF81610B6
:1044B00018BF8DF81530204609F083FA2B7ADA07F9
:1044C00053D5FE21204609F05AFA2B7A580757D5C2
:1044D000FE21204609F053FAEB881B075BD49DF8B8
:1044E000153013B907238DF815309DF815102046A7
:1044F00009F045FAEB88DE0654BF9DF81210FF2143
:10450000204609F03CFAEB88980654BF9DF813103A
:10451000FF21204609F033FAEB88590654BF9DF875
:104520001410FF21204609F02AFAE98811F08001D1
:1045300018BFFF21204609F022FABDF816204FF6D9
:10454000FF739A4202D0EB88DA0526D5144920463B
:1045500009F0F4FAEB889B0554BF697AFF212046E5
:1045600009F00DFA002006B070BD9B0701D5FD21B2
:10457000A8E7EB889E0754BF9DF81010FF21A1E724
:10458000190701D5FD21A4E7EB885A0754BF9DF810
:104590001110FF219DE7FF21A9E7B5F90410D6E727
:1045A0000080FFFF2DE9F3418846054698F9003069
:1045B0000978002B26DA01F17F03DBB2012B07D843
:1045C00001F07F010170D8F808308360002434E0E6
:1045D00001F17C03DBB2172B04D87D4A22FA03F3E6
:1045E000DB0709D401F07F012970D8F80830D3E93E
:1045F0000023C5E90223E9E78268404617F02EF957
:1046000004461AE090F900200378002A32DAA1F17A
:104610000903012B15D8D8F8080001A916F07AFA79
:10462000044650B9D8F80830BDF8042019890C2088
:1046300000FB0131A86819F02BF9204602B0BDE853
:10464000F0810846FFF7F8FE0446ADF8040028782C
:1046500080F08000FFF7F0FEA4B2A04207D1BDF8C1
:104660000420A86808F1080119F012F9AEE74FF428
:104670008174E2E7013B012B04D88368B3F904306D
:10468000002B1FDB284616F02EFF04460028D4D14D
:1046900098F800302B70074698F800300A2B13D199
:1046A000D8F80830002B91D00C2008F0DBF8A86077
:1046B00009F0FCF8D8F80830A868DA88196809F019
:1046C00044FA83E70127E7E7092BE9D05A1E012ABC
:1046D00048D8D8F80830002B3FF478AFDB88002B9F
:1046E0003FF474AFAC682CB9082008F0BBF8C0E9FF
:1046F0000044A860D8F80830A868D98816F07DFE74
:104700000026D8F80800C388B3423FF45FAF6A467A
:10471000314616F066FF044600288ED187B1A8689E
:1047200001AA16F05EFF0446002886D1DDE90010DC
:10473000FFF738FF044600287FF47FAF0136E0E73B
:10474000102008F08FF80099077087600190FFF73C
:1047500029FF044600287FF470AF0199A86816F07D
:1047600074FEEBE7192B05D1D8F80810284617F08E
:104770007CF845E71A2B05D1D8F80810284617F021
:1047800086F83DE71B2B05D1D8F80810284617F00E
:1047900090F835E7042B0DD1082008F063F8A860E5
:1047A00008F07DFFD8F80830A868DA88196808F0A2
:1047B000F1FF25E7192B3FF609AF064AD256002A2A
:1047C0007FF704AF08F1080105F108004CE700BFCE
:1047D0006100E0009FEE01002DE9F041CAB0002326
:1047E00004460D46014602A88DF8083004938DF862
:1047F00018300893FFF7D6FE0646002870D12046F1
:1048000016F071FE0A2D40F0D6800C2008F02AF830
:10481000A06009F04BF89DF808301B2B00F25F8177
:10482000DFE813F032001C001C006200AD006C00D9
:1048300077005D015D01BA005D015D015D015D0113
:104840005D017A00800086008B005D019000990078
:1048500086009B00A700B500B500B500A0687B21CD
:1048600009F08DF800250498C388AFB2BB4211D17E
:104870007D21A06809F083F8A068002109F07FF885
:10488000A268D388013BD3800A23237002A816F0C4
:104890002AFE25E00BAAA9B216F0A3FE002840F0DC
:1048A0001C813FB12C21A06809F069F8A068202183
:1048B00009F065F80B9906A8FFF774FE002840F090
:1048C0000C81A16806A817F050F8074606A816F054
:1048D0000AFE0135002FC6D002A816F004FE3E469F
:1048E00030464AB0BDE8F0819DF81030A0681BB991
:1048F000804909F075F9C7E77F49FAE7002300937B
:104900000123049AFA210BA816F0C0F9A0680BA99C
:10491000EFE700230093F4E7002300939DF91020B4
:104920000123EFE700230093BDF910200123E9E7FD
:1049300000239DF810200093E4E70023BDF8102029
:104940000093DFE701230093FA21DDE904230BA89C
:1049500016F0FDF9DAE70023F5E70498FBF784FD8C
:10496000CDE90001654BFA2200210BA818F0E1FF08
:10497000CCE7DDE90423CDE90023614BF3E704989C
:1049800008F064FF0146A06809F042F97CE7A168DD
:104990000498FDF7FDFD77E7049800283FF474AF15
:1049A00009F0B6FA05460146A06809F019F928464B
:1049B00007F060FF68E723780A2B64D1032D09D143
:1049C000049B4C491868FCF7F1F9003818BF012026
:1049D000207206E0052D06D1049B186816F09AF99E
:1049E000A060257052E7062DF6D00F2D04D1049B50
:1049F000186816F08FF9EBE7102D05D1049B1868A5
:104A000016F088F92081ECE7112DF0D0122D06D197
:104A1000049B186816F07EF91223208135E7142DC7
:104A200006D1049B186816F0E4F9C4E90201D8E73E
:104A3000152DF6D0162DDAD0172D07D1049B2F494E
:104A400004F10802186807F0DDFFCAE7182D04D149
:104A5000049B2B4904F10802F4E7092D3FD1049B84
:104A60000C201F6807F0FEFEA06008F01FFF39460B
:104A7000A06809F034FA257002A816F034FDA06889
:104A800009F0B9FA2CE79DF80820192A0DF1100851
:104A90002AD81C49192B8F560ED81A4AD256BA4218
:104AA0000DDB04F108030021184618F02CFF3A46EC
:104AB000414618F0EDFE94E74FF0FF32EFE7D3B236
:104AC000BFB29F4203D1414604F10800F1E718F854
:104AD000031031B901339BB2F3E7064600E7FE2627
:104AE000FEE64FF48176FBE6192B4FF0FF37D4D961
:104AF0003A46D6E78DEE010093EE010098EE0100F4
:104B00009BEE01009FEE010010B402788A42044639
:104B10000B4607D011B910BC16F0E5BC012A03D131
:104B200009297CD100202DE00A2A02D110BCFFF710
:104B300053BE033915290FD8DFE801F00B0E0B0B1C
:104B40000E0E0E0B0E0E0E0E0B0B0B0B0E0B0B0B9D
:104B50000B0B19462046E9E7053A162A5CD8DFE830
:104B600002F00C0C5B5B135B5B5B1B5B0C0C0C0CBB
:104B70005B0C0C0C0C0C495656000D2B0CBFFE2088
:104B80004FF4817010BC7047193B022B98BFFE2078
:104B900088BF4FF48170F5E7053B132B3CD801A289
:104BA00052F823F0254B0000254B0000194C000063
:104BB000194C0000194C0000254B0000194C000056
:104BC000194C0000194C0000194C0000254B000046
:104BD000254B0000254B0000254B0000194C000020
:104BE000254B0000254B0000254B0000254B000005
:104BF000254B00000A2B05D8092B34BF4FF48170D8
:104C00000020BFE71A3B012B98BF0020C0E70A2B0A
:104C1000F2D9193B022BF7E74FF48170B2E7CA1EB5
:104C2000152AF9D801A151F822F000BF534B00001A
:104C3000194C0000534B0000534B0000194C00006E
:104C4000194C0000194C0000534B0000194C000097
:104C5000194C0000194C0000194C0000534B000087
:104C6000534B0000534B0000534B0000194C000005
:104C7000534B0000534B0000534B0000534B0000BC
:104C8000534B00000B6801330B60014B1B68184746
:104C900008000020014B1860704700BF080000208A
:104CA00007B50B46002102460191034801A900F017
:104CB00065F903B05DF804FB854C000030B585B0A4
:104CC000CDE901010446002501A90548039500F03E
:104CD00055F9DDE902309842B8BF255405B030BD22
:104CE000D5BB01002DE9F84FB0F8189019F008086D
:104CF000044693460DD001290CBF49F0100949F034
:104D00002009A0F818908BF31188BFF36F8FBDE8CE
:104D1000F88F09F00709022907D1204616F087FF0E
:104D20000028F0D00128238B50D16769218B002FF8
:104D300015DA256821F00701C4E9008841F0010176
:104D400021830026218B01F0070ACA4502D0A368FF
:104D5000002B5CD10DB9002E74D0002358E001F077
:104D600007035A1F012A20D821F00701062B2568C6
:104D700089B2C4E900880CD1002D2B4638BF00232E
:104D80002BB1628B1B6801326283002BF8D141F09A
:104D900002012183204616F04AFF06460028D1D0A2
:104DA000238B43F020032383CBE7042B0CD121F08A
:104DB000070189B22183204616F039FF05460028F5
:104DC000BFD041F0200121830025BAE7032809D193
:104DD000226923F00703166843F0060323830025A6
:104DE0002F46AFE7042806D1226923F0070356684F
:104DF00043F00403F2E7052806D1226923F00703F4
:104E0000966843F00503E9E700252E46E8E701230D
:104E100041F0080121838BF31188BFF36F8F03BB2F
:104E2000002D33D116B121492046B0474FF0200361
:104E3000EFF3118B83F31288BFF36F8F238B23F073
:104E400008032383238BDA0628D523F0100323835A
:104E50000121B4F8189009F0070900297FF45BAF2D
:104E600051E7A1680029DBD00B68D1F804B0002B12
:104E700038BF0023994652463B462046D847B9F1F1
:104E8000000FCDD0D9F800304946EEE729463B4621
:104E9000524620462D6816F0E6FEC1E713F02001C9
:104EA0001EBF23F0200323830221D2E793BC01001D
:104EB000F0B5094E016802460A2700200C46013170
:104EC00023789D5D6D0701D41460F0BD07FB0033AE
:104ED000A3F13000F2E700BF54F901002DE9F74FCC
:104EE00014469946D378244A13F802A06F2B0AF08F
:104EF000030206460F4601922DD028D8582B14BF26
:104F00000A251025DDF83080AA464FF0000B5246E6
:104F10005B4630463946FBF7CFFD092AD3B21FD88E
:104F200030335F45DBB208BF564508F8013D01D379
:104F3000C84512D823789B0605D5082D16D1A3782D
:104F400043F00803A370404603B0BDE8F08F03F0C0
:104F5000F703702BD3E70825D4E706460F46D6E7BC
:104F6000019A012A0CBF37335733DAE7102DEAD103
:104F7000A37843F01003E5E754F901002DE9F04F61
:104F8000824693B08B4691461C46002599F8000056
:104F900008B928463AE309F101032528029306D00F
:104FA0005946D0470028C0F231830135F1E118227B
:104FB00000210CA818F0A7FC99F80130252B59D036
:104FC000029A164612F8013B2B2B00F08B8079D801
:104FD000202B00F08C80232B00F08E809DF8383041
:104FE00003F04402442A03D16FF386138DF838305E
:104FF0009DF83830059643F080038DF838303378CB
:105000002A2B7ED19DF8393043F001038DF83930D9
:10501000731C05931A782E2A9DF839200CBF0121A4
:10502000002161F341028DF839200BD15A1C059201
:105030005A782A2A7BD19DF8392042F004028DF853
:1050400039200233194611F8010B6C2800F0B680A4
:105050007DD8682800F084806A2800F0B9804C2848
:1050600000F0BD809DF839206FF3C6028DF839201D
:10507000194680E009F1020202928DF83B309DF85A
:105080003930D90740F1498154F8048BB8F1000F49
:1050900007DA9DF8382042F004028DF83820C8F174
:1050A00000085A0740F1428154F8047B002F80F237
:1050B00041819DF839306FF341038DF839304FF05D
:1050C000FF3737E12D2B06D0302B87D19DF83830B4
:1050D00043F0400303E09DF8383043F004038DF8BB
:1050E00038306EE79DF8383043F00803F7E79DF855
:1050F000383043F01003F2E79DF8383043F02003D6
:10510000EDE705A8FFF7D4FE059BB34281D09DF8DB
:1051100038100F90C1F3400242EAD072520062F0A0
:105120007F0201F07D010A438DF8382071E705A860
:10513000FFF7BEFE9DF838301090C3F3400242EAFC
:10514000D07060F341038DF83830059B7AE77428FE
:105150009DF8392040D07A2884D11346062228E0D1
:105160005A78682A9DF8392021D1012161F3C602BD
:105170008DF83920991C0B4613F8012B0293782ADD
:105180009DF839308DF83B2000F2BF80572A33D884
:10519000412A03D0453A022A00F2B7809DF83A30FE
:1051A000042262F302038DF83A30012384E01346AF
:1051B000022262F3C6038DF83930DCE75A786C2A94
:1051C0009DF8392001D10421D0E713460322F0E7EE
:1051D0009DF839300522ECE713460722E9E7BDF8D0
:1051E000383023F4F04323F0020343F4804343F0C8
:1051F0000203ADF83830BEE7A2F15801202900F2D1
:10520000848001A050F821F0CD5200000B53000023
:105210000B5300000B5300000B5300000B53000016
:105220000B5300000B5300000B5300009D51000076
:105230000B530000CD5200008D5200009D51000024
:105240009D5100009D5100000B5300008D52000045
:105250000B5300000B5300000B5300000B530000D6
:10526000D5520000CD520000F15200000B53000057
:105270000B530000F15200000B530000CD52000010
:105280000B5300000B530000CD5200009DF83A1064
:10529000012003F0780360F30201402B8DF83A10EF
:1052A00002BF9DF8381041F001018DF83810632AD3
:1052B00031D1003B18BF01239DF83820C2F34001D3
:1052C0000B4363F341028DF83820D8E69DF83A107D
:1052D0000220DEE79DF83A2003F07803A3F14000B6
:1052E000032161F3020243428DF83A204341E3E790
:1052F0009DF83A20032113F0780F61F302028DF834
:105300003A2014BF01230023D6E79DF8383043F03C
:1053100001038DF838300023CEE79DF93820002AAC
:10532000B4BFDDF83C804FF0FF38BAE69F077FF549
:10533000C6AE109F9DF839100023CDE90F339DF8BC
:105340003A3003F00703012BC1F3C30137D1CB1E61
:10535000042B21D8DFE803F003070720200054F8CE
:10536000042BD31704E0073424F00704F4E80223E5
:10537000CDE90C239DF8383013F0030655D0029B7D
:105380004A465946504616F0E5FD0028C0F23E81D7
:105390000544DDF80890F9E554F8042B01294FEA9B
:1053A000E273CDE90C2305D19DF830300C93002336
:1053B0000D93DFE70229DDD1BDF93020D1E7022BC3
:1053C00023D1CB1E042B13D8DFE803F0030A0A1203
:1053D000120022680C920023201D0D930446C9E799
:1053E000073424F00700F0E80223CDE90C23F5E7A9
:1053F00054F8043B0C9301294FF000030D93D3D0D4
:105400000229B7D1BDF83030D0E7042B07D10734DB
:1054100024F00704F4E80223CDE90C23AAE7032BC8
:1054200004BF54F8043B0C93A4E79DF83B00782894
:10543000AFD8622820D825283FF4B2AD5828A8D18B
:105440000DF12E030093DDE90C0106AB0EAAFFF768
:1054500045FD8146002F0DF12E000BDB9DF8382015
:10546000A0EB09036FF386129F428DF8382001D913
:10547000FF1A0F9707463CE06338152889D801A228
:1054800052F820F0035500006555000093530000CA
:1054900093530000935300009353000065550000A0
:1054A0009353000093530000935300009353000064
:1054B000C35500009155000095550000935300001E
:1054C00093530000DD5400009353000091550000F9
:1054D000935300009353000091550000002FDDF816
:1054E00030900ADB3946484618F052FA09EB0007BB
:1054F0000026B9F1000F0CD14BE74846FBF760FCE2
:10550000F4E70C9B8DF8183000260DF119070DF10A
:105510001809A7EB090306B101339DF83A20D0061C
:1055200069D5023352060F9948BF109A0B4448BF01
:105530009B18B8F1000F76DD9DF83820A8EB030822
:10554000C2F38003039353076DD4500661D53EB177
:1055500059463046D047002858DB039B01351E468C
:10556000302357E01E0711D413F0100618BF202671
:10557000DDE90C23002A73F10001BFF661AF52424E
:1055800063EB4303CDE90C232D2659E72B26EFE7E8
:10559000002655E70C9848B30DF12E0300930EAA90
:1055A00006AB0021FFF79AFCBDF83A3003F0EF0399
:1055B00043F4F04343F010038146ADF83A3000263F
:1055C00048E70C9B07293FF6E4AEDFE801F00D0445
:1055D000060D08080D0D1D70DBE61D80D9E6284676
:1055E000E917C3E90001D4E61D60D2E62E4F064656
:1055F000A7F105098DE7110748BF013392E7184667
:1056000059460393D0470028039B04DA13B0BDE842
:10561000F08F202345444246002AA5EB080108F1FB
:10562000FF38ECDC0D462EB159463046D0470028F5
:10563000ECDB01359DF83A30D90601D41A0705D5BF
:1056400059463020D0470028E0DB01359DF83A303C
:10565000DB0606D59DF83B005946D0470028D5DB30
:1056600001350F9E2E44731B002B15DC3B464A462A
:105670005946504616F06EFC0028C7DB0544A84486
:10568000A8EB0503002B7FF784AE59462020D047B6
:105690000028BBDB0135F3E759463020D04700280E
:1056A000B4DB0135DFE700BFBEEE010008B50446FC
:1056B0004FF02002EFF3118382F31288BFF36F8F54
:1056C00017F0EFFC204601F099FC034816F095FA1C
:1056D00000F002FFFCE700BFBFEE010030B510494B
:1056E000104889B0002217F051FF0F4D0F490022DA
:1056F0000023CDE9062300240E23CDE90334CDE9B0
:1057000001440B4B00944FF44072284605F094FD81
:105710000849284617F096FD204609B030BD00BF65
:10572000395700000003002038030020A022002089
:10573000A15B0000E8EE0100014805F0E1BE00BFFA
:1057400094020020F0B505460F4E002003460246A5
:10575000012715F8014B0CB18B4200D3F0BD252C6D
:1057600002D182F00102F4E7002AF2D014F806C058
:105770001CF0030FEDD0732C04BF07FA03F21043A3
:1057800001330022E5E700BF54F901000C4A002371
:1057900010B513700B4A13600B4B0C4A1A604FF490
:1057A000004000F0C9FC00F079FA094816F0E9FB66
:1057B000BDE81040074908480423282217F0F8BC28
:1057C000B21F0020080700200C000020C1BF01000C
:1057D00010070020804300201807002070B5124BEE
:1057E000BFF35B8F53E8005F6A1C43E80021002988
:1057F000F8D1BFF35B8F2DB90C4C0D4E361B361113
:10580000B54200DB70BD237B53B123689B690BB1AC
:1058100020469847636804221968204600F030FA51
:1058200001351034ECE700BF0C070020D4E0010084
:10583000E4E0010010B54FF02003EFF3118483F38F
:105840001288BFF36F8F044816F0ABFB84F3118806
:10585000BFF36F8F10BD00BF1007002010B5044CC0
:10586000227812B9034805F04BFE0123237010BDC6
:10587000B11F0020940200200C4BBFF35B8F53E854
:10588000002F013243E800210029F8D1BFF35B8FDC
:10589000BFF35B8F064B53E8002F013A43E800212A
:1058A0000029F8D1BFF35B8F704700BF08070020C5
:1058B000040700200020064BBFF35B8F024653E82D
:1058C000000F43E800210029F9D1BFF35B8F704737
:1058D00008070020F8B5FFF7EDFF0A4C0A4D2D1B15
:1058E00007462D110026AE4200DBF8BD63685B79E8
:1058F0002BB123681B6913B13946204698470136FE
:105900001034F0E7D4E00100E4E00100174B9842C6
:1059100073B5044602D3164B984221D31548002292
:10592000002301A905F026FC0546E0B90122019BF0
:10593000BFF35B8F53E8001F43E800200028F9D134
:10594000BFF35B8F019E331D1F221846214618F0BE
:105950000CF87E22034686F8232086F824501C4645
:10596000204602B070BD044BF9E700BFCCDD01005A
:1059700090FA010018070020F0EE010048B1054B35
:10598000984205D3A03398422CBF002001207047D5
:105990000020704780430020434B1B782DE9F74FD0
:1059A000044603B900B3FFF745FF054678B1BFF3DE
:1059B0005B8F3E4B53E8002F013A43E8002100295A
:1059C000F8D1BFF35B8F9CB1284616F0D8FB2CB9F9
:1059D000374B1B68002B01DDFFF77CFF354816F0C5
:1059E000DEFA041E18BF0124204603B0BDE8F08F84
:1059F000314B1B78BBB92B7ADB0714D416F0D2FBE2
:105A00008046284616F099FB01464046FFF79AFE6D
:105A10002A4B2B4ADFF8BCA0DFF8BCB09B1A064625
:105A20004FEAD30936B9274E274FBF1B3F114FF01E
:105A3000000836E0B6FA86F7C7F11F073946284650
:105A400016F07EFB214B9842024602D3204B98422F
:105A500016D31046FFF792FF90B9524510D06989CE
:105A6000C1F3891100F0FEF84FEA891343F00103F6
:105A70000246ADF8003039464346584616F0DEFA85
:105A8000012303FA07F726EA0706CBE773685B7979
:105A900023B1336829465B683046984708F101080E
:105AA0001036B845F2DB8FE7B11F00200407002055
:105AB0000807002010070020B21F00208CE0010022
:105AC0007CE00100D4E00100E4E00100CCDD010055
:105AD00090FA0100F0EE01000AEF0100294B37B502
