:10100000404F002009670000755F0200396700004B
:1010100039670000396700003967000000000000F0
:101020000000000000000000000000005564000007
:101030003967000000000000FD630000A95C0000AB
:10104000C96600004D920200C9660000C966000032
:10105000C9660000C9660000C9660000C9660000D4
:10106000C9660000C9660000C9660000C9660000C4
:10107000C9660000C9660000C9660000C9660000B4
:10108000C9660000C9660000C9660000C9660000A4
:10109000C9660000C9660000C9660000C966000094
:1010A000C9660000C9660000C9660000C966000084
:1010B000C9660000C9660000C9660000C966000074
:1010C000C9660000C9660000C9660000C966000064
:1010D000C9660000C9660000C9660000C966000054
:1010E000C9660000C9660000C9660000C966000044
:1010F000C9660000C9660000C9660000C966000034
:1011000081F0004102E000BF83F0004330B54FEAB8
:1011100041044FEA430594EA050F08BF90EA020F25
:101120001FBF54EA000C55EA020C7FEA645C7FEAB8
:10113000655C00F0E2804FEA5454D4EB5555B8BFDB
:101140006D420CDD2C4480EA020281EA030382EA4C
:10115000000083EA010180EA020281EA0303362DDE
:1011600088BF30BD11F0004F4FEA01314FF4801CB1
:101170004CEA113102D0404261EB410113F0004FC3
:101180004FEA03334CEA133302D0524263EB43037A
:1011900094EA050F00F0A780A4F10104D5F1200E18
:1011A0000DDB02FA0EFC22FA05F2801841F1000173
:1011B00003FA0EF2801843FA05F359410EE0A5F147
:1011C00020050EF1200E012A03FA0EFC28BF4CF078
:1011D000020C43FA05F3C01851EBE37101F000452E
:1011E00007D54FF0000EDCF1000C7EEB00006EEB3B
:1011F0000101B1F5801F1BD3B1F5001F0CD34908C5
:101200005FEA30004FEA3C0C04F101044FEA44521B
:1012100012F5800F80F09A80BCF1004F08BF5FEAA2
:10122000500C50F1000041EB045141EA050130BD82
:101230005FEA4C0C404141EB010111F4801FA4F125
:101240000104E9D191F0000F04BF01460020B1FA7A
:1012500081F308BF2033A3F10B03B3F120020CDAB2
:101260000C3208DD02F1140CC2F10C0201FA0CF090
:1012700021FA02F10CE002F11402D8BFC2F1200CF5
:1012800001FA02F120FA0CFCDCBF41EA0C019040AB
:10129000E41AA2BF01EB0451294330BD6FEA0404F4
:1012A0001F3C1CDA0C340EDC04F11404C4F12002DF
:1012B00020FA04F001FA02F340EA030021FA04F3F1
:1012C00045EA030130BDC4F10C04C4F1200220FA48
:1012D00002F001FA04F340EA0300294630BD21FA86
:1012E00004F0294630BD94F0000F83F4801306BF4C
:1012F00081F480110134013D4EE77FEA645C18BF40
:101300007FEA655C29D094EA050F08BF90EA020FD6
:1013100005D054EA000C04BF1946104630BD91EACE
:10132000030F1EBF0021002030BD5FEA545C05D1D1
:101330004000494128BF41F0004130BD14F5800410
:101340003CBF01F5801130BD01F0004545F0FE4184
:1013500041F470014FF0000030BD7FEA645C1ABFB9
:10136000194610467FEA655C1CBF0B46024650EAF0
:10137000013406BF52EA033591EA030F41F400211C
:1013800030BD00BF90F0000F04BF0021704730B5A2
:101390004FF4806404F132044FF000054FF0000177
:1013A00050E700BF90F0000F04BF0021704730B538
:1013B0004FF4806404F1320410F0004548BF40420D
:1013C0004FF000013EE700BF42004FEAE2014FEA62
:1013D00031014FEA02701FBF12F07F4393F07F4F3D
:1013E00081F06051704732F07F4208BF704793F040
:1013F0007F4F04BF41F40021704730B54FF4607453
:1014000001F0004521F000411CE700BF50EA010255
:1014100008BF704730B54FF000050AE050EA0102FE
:1014200008BF704730B511F0004502D5404261EB6E
:1014300041014FF4806404F132045FEA915C3FF4AF
:10144000D8AE4FF003025FEADC0C18BF03325FEA4C
:10145000DC0C18BF033202EBDC02C2F1200300FAFD
:1014600003FC20FA02F001FA03FE40EA0E0021FA22
:1014700002F11444BDE600BF70B54FF0FF0C4CF410
:10148000E06C1CEA11541DBF1CEA135594EA0C0FC2
:1014900095EA0C0F00F0DEF82C4481EA030621EAFD
:1014A0004C5123EA4C5350EA013518BF52EA033538
:1014B00041F4801143F4801338D0A0FB02CE4FF0EA
:1014C0000005E1FB02E506F00042E0FB03E54FF01A
:1014D0000006E1FB03569CF0000F18BF4EF0010E12
:1014E000A4F1FF04B6F5007F64F5407404D25FEA0E
:1014F0004E0E6D4146EB060642EAC62141EA5551C1
:101500004FEAC52040EA5E504FEACE2EB4F1FD0C02
:1015100088BFBCF5E06F1ED8BEF1004F08BF5FEA80
:10152000500E50F1000041EB045170BD06F0004632
:1015300046EA010140EA020081EA0301B4EB5C04DF
:10154000C2BFD4EB0C0541EA045170BD41F48011D7
:101550004FF0000E013C00F3AB8014F1360FDEBFFC
:10156000002001F0004170BDC4F10004203C35DAD8
:101570000C341BDC04F11404C4F1200500FA05F35B
:1015800020FA04F001FA05F240EA020001F00042FC
:1015900021F0004110EBD37021FA04F642EB060172
:1015A0005EEA430E08BF20EAD37070BDC4F10C049C
:1015B000C4F1200500FA04F320FA05F001FA04F260
:1015C00040EA020001F0004110EBD37041F100014C
:1015D0005EEA430E08BF20EAD37070BDC4F1200557
:1015E00000FA05F24EEA020E20FA04F301FA05F2BF
:1015F00043EA020321FA04F001F0004121FA04F267
:1016000020EA020000EBD3705EEA430E08BF20EA36
:10161000D37070BD94F0000F0FD101F00046400070
:1016200041EB010111F4801F08BF013CF7D041EAF2
:10163000060195F0000F18BF704703F000465200F6
:1016400043EB030313F4801F08BF013DF7D043EAC7
:101650000603704794EA0C0F0CEA135518BF95EA7D
:101660000C0F0CD050EA410618BF52EA4306D1D104
:1016700081EA030101F000414FF0000070BD50EA23
:10168000410606BF1046194652EA430619D094EAAD
:101690000C0F02D150EA013613D195EA0C0F05D197
:1016A00052EA03361CBF104619460AD181EA0301EB
:1016B00001F0004141F0FE4141F470014FF00000A3
:1016C00070BD41F0FE4141F4780170BD70B54FF03E
:1016D000FF0C4CF4E06C1CEA11541DBF1CEA1355BE
:1016E00094EA0C0F95EA0C0F00F0A7F8A4EB0504A0
:1016F00081EA030E52EA03354FEA013100F0888097
:101700004FEA03334FF0805545EA131343EA12635F
:101710004FEA022245EA111545EA10654FEA002614
:101720000EF000419D4208BF964244F1FD0404F5CD
:10173000407402D25B084FEA3202B61A65EB030529
:101740005B084FEA32024FF480104FF4002CB6EBE6
:10175000020E75EB030E22BFB61A754640EA0C0066
:101760005B084FEA3202B6EB020E75EB030E22BFA6
:10177000B61A754640EA5C005B084FEA3202B6EBE7
:10178000020E75EB030E22BFB61A754640EA9C00A6
:101790005B084FEA3202B6EB020E75EB030E22BF76
:1017A000B61A754640EADC0055EA060E18D04FEA34
:1017B000051545EA16754FEA06164FEAC30343EAD4
:1017C00052734FEAC2025FEA1C1CC0D111F4801FA1
:1017D0000BD141EA00014FF000004FF0004CB6E79A
:1017E00011F4801F04BF01430020B4F1FD0C88BF39
:1017F000BCF5E06F3FF6AFAEB5EB030C04BFB6EB44
:10180000020C5FEA500C50F1000041EB045170BD36
:101810000EF0004E4EEA113114EB5C04C2BFD4EB63
:101820000C0541EA045170BD41F480114FF0000EE7
:10183000013C90E645EA060E8DE60CEA135594EA63
:101840000C0F08BF95EA0C0F3FF43BAF94EA0C0F66
:101850000AD150EA01347FF434AF95EA0C0F7FF4DB
:1018600025AF104619462CE795EA0C0F06D152EA2F
:1018700003353FF4FDAE1046194622E750EA410613
:1018800018BF52EA43067FF4C5AE50EA41047FF424
:101890000DAF52EA43057FF4EBAE12E74FEA410287
:1018A00012F5001215D211D56FF47873B3EB6252B2
:1018B00012D94FEAC12343F0004343EA505311F0D9
:1018C000004F23FA02F018BF404270474FF000006B
:1018D000704750EA013005D111F0004008BF6FF0A9
:1018E000004070474FF00000704700BF80F000409C
:1018F00002E000BF81F0004142001FBF5FEA4103E8
:1019000092EA030F7FEA226C7FEA236C6AD04FEAE7
:101910001262D2EB1363C1BFD2184140484041402C
:10192000B8BF5B42192B88BF704710F0004F40F4DE
:10193000000020F07F4018BF404211F0004F41F4FA
:10194000000121F07F4118BF494292EA030F3FD0C6
:10195000A2F1010241FA03FC10EB0C00C3F12003D9
:1019600001FA03F100F0004302D5494260EB400068
:10197000B0F5000F13D3B0F1807F06D340084FEAD3
:10198000310102F10102FE2A51D2B1F1004F40EBC8
:10199000C25008BF20F0010040EA03007047490030
:1019A00040EB000010F4000FA2F10102EDD1B0FAFB
:1019B00080FCACF1080CB2EB0C0200FA0CF0AABFF0
:1019C00000EBC25052421843BCBFD040184370478E
:1019D00092F0000F81F4000106BF80F40000013294
:1019E000013BB5E74FEA41037FEA226C18BF7FEA6B
:1019F000236C21D092EA030F04D092F0000F08BFAD
:101A00000846704790EA010F1CBF0020704712F093
:101A10007F4F04D1400028BF40F00040704712F1D2
:101A200000723CBF00F50000704700F0004343F037
:101A3000FE4040F4000070477FEA226216BF08466D
:101A40007FEA23630146420206BF5FEA412390EA30
:101A5000010F40F4800070474FF0000304E000BF26
:101A600010F0004348BF40425FEA000C08BF7047D7
:101A700043F0964301464FF000001CE050EA01029B
:101A800008BF70474FF000030AE000BF50EA0102B0
:101A900008BF704711F0004302D5404261EB41019D
:101AA0005FEA010C02BF84460146002043F0B643C2
:101AB00008BFA3F18053A3F50003BCFA8CF2083AE7
:101AC000A3EBC25310DB01FA02FC634400FA02FCF0
:101AD000C2F12002BCF1004F20FA02F243EB0200F7
:101AE00008BF20F00100704702F1200201FA02FC59
:101AF000C2F1200250EA4C0021FA02F243EB02004C
:101B000008BF20EADC7070474FF0FF0C1CEAD0528F
:101B10001EBF1CEAD15392EA0C0F93EA0C0F6FD050
:101B20001A4480EA010C400218BF5FEA41211ED02E
:101B30004FF0006343EA501043EA5111A0FB01311A
:101B40000CF00040B1F5000F3EBF490041EAD371EF
:101B50005B0040EA010062F17F02FD2A1DD8B3F16B
:101B6000004F40EBC25008BF20F00100704790F0DA
:101B7000000F0CF0004C08BF49024CEA502040EA2C
:101B800051207F3AC2BFD2F1FF0340EAC2507047F2
:101B900040F400004FF00003013A5DDC12F1190F30
:101BA000DCBF00F000407047C2F10002410021FAA2
:101BB00002F1C2F1200200FA02FC5FEA310040F1BA
:101BC000000053EA4C0308BF20EADC70704792F033
:101BD000000F00F0004C02BF400010F4000F013A6B
:101BE000F9D040EA0C0093F0000F01F0004C02BF66
:101BF000490011F4000F013BF9D041EA0C018FE7D5
:101C00000CEAD15392EA0C0F18BF93EA0C0F0AD0DA
:101C100030F0004C18BF31F0004CD8D180EA010000
:101C200000F00040704790F0000F17BF90F0004F99
:101C3000084691F0000F91F0004F14D092EA0C0F7B
:101C400001D142020FD193EA0C0F03D14B0218BF0E
:101C5000084608D180EA010000F0004040F0FE4054
:101C600040F40000704740F0FE4040F440007047F0
:101C70004FF0FF0C1CEAD0521EBF1CEAD15392EA6F
:101C80000C0F93EA0C0F69D0A2EB030280EA010C5F
:101C900049024FEA402037D04FF0805343EA1111F8
:101CA00043EA10130CF000408B4238BF5B0042F156
:101CB0007D024FF4000C8B4224BF5B1A40EA0C00FB
:101CC000B3EB510F24BFA3EB510340EA5C00B3EB2D
:101CD000910F24BFA3EB910340EA9C00B3EBD10F1B
:101CE00024BFA3EBD10340EADC001B0118BF5FEA6D
:101CF0001C1CE0D1FD2A3FF650AF8B4240EBC25096
:101D000008BF20F0010070470CF0004C4CEA502056
:101D10007F32C2BFD2F1FF0340EAC250704740F4A5
:101D200000004FF00003013A37E792F0000F00F097
:101D3000004C02BF400010F4000F013AF9D040EA15
:101D40000C0093F0000F01F0004C02BF490011F4A9
:101D5000000F013BF9D041EA0C0195E70CEAD153A1
:101D600092EA0C0F08D142027FF47DAF93EA0C0F88
:101D70007FF470AF084676E793EA0C0F04D14B026C
:101D80003FF44CAF08466EE730F0004C18BF31F01E
:101D9000004CCAD130F000427FF45CAF31F0004318
:101DA0007FF43CAF5FE700BF7BB972B90029BEBFCB
:101DB00000204FF0004106E008BF00281CBF6FF074
:101DC00000414FF0FF3000F0D3B9ADF1080C6DE9E0
:101DD00004CE002909DB002B1ADB00F061F8DDF8E6
:101DE00004E0DDE9022304B07047404261EB4101A9
:101DF000002B1BDB00F054F8DDF804E0DDE90223E2
:101E000004B0404261EB4101524263EB430370472F
:101E1000524263EB430300F043F8DDF804E0DDE9F0
:101E2000022304B0404261EB41017047524263EB30
:101E3000430300F035F8DDF804E0DDE9022304B0E7
:101E4000524263EB4303704753B94AB9002908BFB4
:101E500000281CBF4FF0FF314FF0FF3000F088B971
:101E6000ADF1080C6DE904CE00F01AF8DDF804E0DD
:101E7000DDE9022304B07047430803F05533C01A6C
:101E8000830803F0333300F03330184400EB1010B4
:101E900000F00F3000EB002000EB0040000E704718
:101EA0002DE9F047089E04468846002B40F08580C7
:101EB0008A42154648D9B2FA82F24AB1C2F12007E5
:101EC00001FA02F320FA07F7954047EA0308944025
:101ED0004FEA154E230CB8FBFEF71FFA85FC0EFBEC
:101EE000178843EA084307FB0CF1994209D9EB181C
:101EF00007F1FF3080F0E380994240F2E080023F3A
:101F00002B445B1AA4B2B3FBFEF00EFB103344EA81
:101F1000034400FB0CFCA44509D92C1900F1FF3344
:101F200080F0CB80A44540F2C88002382C4440EABF
:101F30000740A4EB0C0400271EB1D4400023C6E9DF
:101F400000433946BDE8F087002A53D0B2FA82F246
:101F5000002A40F0B680491B4FEA154E1FFA85F85B
:101F60000127B1FBFEFC230C0EFB1C1143EA0143CD
:101F700008FB0CF1994207D9EB180CF1FF3002D2A3
:101F8000994200F2EC808446591AA3B2B1FBFEF0EC
:101F90000EFB101443EA044408FB00F8A04507D9DF
:101FA0002C1900F1FF3302D2A04500F2DC80184664
:101FB000A4EB080440EA0C40BEE78B4208D9002E8F
:101FC00078D00027C6E9000138463946BDE8F087D9
:101FD000B3FA83F77FB98B4202D3824200F2BD800D
:101FE000841A61EB030301209846002EA9D0C6E9AC
:101FF0000048A6E7FFDEC7F12005BB4022FA05FC3A
:102000004CEA030C01FA07F420FA05F821FA05F36B
:102010004FEA1C4E48EA0404B3FBFEF9210C0EFB08
:1020200019331FFA8CF841EA034309FB08FA9A4571
:1020300002FA07F200FA07F10BD91CEB030309F1CE
:10204000FF3080F088809A4540F28580A9F102092E
:102050006344A3EB0A03A4B2B3FBFEF00EFB103300
:1020600044EA034400FB08F8A04508D91CEB04042B
:1020700000F1FF336BD2A04569D90238644440EACD
:102080000940A4EB0804A0FB02894C45C6464B4618
:1020900054D351D0002E69D0B1EB0E0264EB03048F
:1020A00004FA05F522FA07F3FC401D43C6E9005483
:1020B000002746E73746304643E7184637E70746E6
:1020C0001FE7C2F1200320FA03F7954001FA02F05E
:1020D00021FA03F34FEA154E3843010CB3FBFEF728
:1020E0001FFA85F80EFB173341EA034107FB08F39B
:1020F0008B4204FA02F407D9691807F1FF3C28D291
:102100008B4226D9023F2944CB1A81B2B3FBFEF0A1
:102110000EFB103341EA034100FB08F38B4207D961
:10212000691800F1FF3C10D28B420ED902382944C5
:10213000C91A40EA074714E74145ABD2B8EB020E93
:1021400069EB0C0201381346A4E76046F0E7184635
:1021500095E76746D8E781467BE7384645E7ACF127
:10216000020C2B4410E702382C4421E73746E8E6FE
:10217000704700BF00000000D0B514460F46064669
:10218000FFF78CFB2060FFF70DF902460B46304647
:102190003946FEF7B9FF04A3D3E90023FFF76CF932
:1021A000FFF77CFB6060D0BD0000000080842E4102
:1021B0002DE9F8438946D0E90A71066B164D8C1952
:1021C0003034A742904612A3D3E9002315D8A1FBCF
:1021D0000501FFF739FE20F07F40C9F80000E01B41
:1021E0000BA3D3E90023A0FB0501FFF72DFE20F090
:1021F0007F40C8F80000BDE8F883A7FB0501FFF7A2
:1022000023FE20F07F40C9F8000006F13000E7E728
:102210008D49FD1A0700000000CA9A3B000000002B
:102220002DE9F04F8DB030B917F01AF90646304657
:102230000DB0BDE8F08FCA4B93F84E6016F0010662
:102240001D4601D00C26F2E793F82D2003EB820205
:10225000176B93F8392003EB8203D3F83C8047B126
:10226000384626F091FD3B785A0617D4404626F0B2
:102270008BFD3B7813F00E0F40F098806B6A002BBB
:10228000E0D116F05BFB814630B116F063FB82466D
:1022900058B9484616F058FB0726C8E7062126F02D
:1022A00040FA0028E2D11226C1E717F083FB04466A
:1022B00018B9504616F054FBEBE74FF6FF738385D1
:1022C000C36E00F11C0B13B900F16403C36604F183
:1022D000600204F15C01E06E26F02EFA94F87220A0
:1022E000C4F8CC9022F0070284F8722094F83D20C4
:1022F00002F03F0262F07F0284F83D2094F8402013
:10230000002363F3000284F840200622A4F874201E
:1023100094F88020E36622F0030284F880208E2265
:10232000C4E92E2394F8C220A4F8703022F00302EE
:1023300084F83F3063866363C4E913336365A4F8AC
:102340007830A4F87C30A4F88C3084F88E30C4F84F
:102350009C30A4F8A030A4F8B430A4F8C03084F8BD
:10236000C22084F8CB30A4F8EC3094F8EE20C5F805
:1023700024B0C5E9119A63F3041284F8EE2094F8AE
:102380002020C4F8143163F30002C4E94833C4E9DF
:102390004633C4E90533E46184F8202019F016F8C7
:1023A00020B16F4816F0E2FE032640E795F828308A
:1023B0000121C3F342030DF12B008DF82B3026F0E1
:1023C000E7F9002800F0BF803A7802F00F02022AF5
:1023D00000F1FF3472D17A781032D200504300F508
:1023E000AA72642000FB042095F820305D49ED615D
:1023F000002464F3000385F8203031232B60C5E905
:10240000054455A3D3E900236C60AC60A0FB010137
:10241000FFF71AFDE860B5F84C8026F021FC8146F4
:10242000B8F1000F05D13C7804F00F04631E5C4244
:102430005C4195F82820EB68DFF83CB164F30002BA
:1024400012F001044FF0020A85F828200BAF464A2B
:10245000CDF82CA053D00020CDE905250493CDE97B
:1024600000030321CDE907B7CDE902004B465246F0
:1024700026F0C3FB394616F0FFFA002863D13B4A29
:1024800006954AF2D833CDE904020093CDE907B7A7
:10249000CDE9020001904B4601220321CDF82CA08A
:1024A00026F0ABFB394616F0E7FA00284BD195F839
:1024B0004E3043F0010385F84E30B8E6012A16D0BD
:1024C00098F801301033DB005AB97A78103203F5EE
:1024D0002773D2009833134402F59A7204FB02303A
:1024E00082E7062A07D1797801F11002EFE7162278
:1024F0004FF42D73EDE710224FF4AA73E9E71C495E
:1025000003F2471008601B48CDE90432CDE9065BB1
:102510004FF6FF731FFA88FBCDE90871CDE902433E
:10252000ABFB0001912303FB0B110BA3D3E90023A9
:10253000FFF78AFC4B46CDE9004052460321204676
:1025400014F0D0FDAEE76B6A002B3FF47BAE04487D
:1025500016F00CFE76E600BF8D49FD1A070000005C
:10256000702D002000CA9A3B7D900100BD920100B1
:10257000C02D0020002AE784A18301000000000094
:102580002DE9F04F90F82430414F044690F8380080
:1025900003F0F903C0F3400060F386138DB084F8B4
:1025A000243004F1250114F06DFE94F82030B4F8C5
:1025B0003280E461002565F30003A8FB070184F87D
:1025C0002030912303FB0811C4E905552EA3D3E95C
:1025D0000023FFF739FC31232360636B6560093307
:1025E000A0F13102934232BFE360E5606563A5600C
:1025F000284D064626F034FB02230B93651B3C2333
:10260000B5FBF3F5244BB4F832B0CDE90643234BC8
:102610000593BA46E368049307469123ABFB0A018E
:102620004FF000080DF12C0903FB0B1116A3D3E9A1
:102630000023CDF82090CDF80C80FFF705FC104664
:1026400019464FF47A720023FFF7FEFB0435EDB212
:10265000CDE901600321CDF800803B462A46404683
:1026600026F0CBFA494616F007FA40B994F838300C
:1026700043F0010384F838300DB0BDE8F08F0C2032
:10268000FAE700BFAFF300808D49FD1A0700000094
:10269000002AE784E42D0020A18301005196010067
:1026A000F8B50646002015461F4617F03FF80446C9
:1026B000F8B190F8382090F82430418667F3420250
:1026C00080F838209DF8182066F3C71362F3C4031E
:1026D00080F824300A48ADB2A5FB0001912303FB2A
:1026E000051105A3D3E90023FFF7AEFB60630020CB
:1026F000F8BD0C20FCE700BF8D49FD1A0700000063
:10270000002AE784000000002DE9F04F934690F87E
:102710008C3090F88D2093428DB0044688460BD1C2
:1027200090F8A12090F8A010914224D00122023B01
:1027300080F88E2080F88D3094F88C2094F88D30BD
:10274000D31A03F00303022B40F0658294F88E3015
:10275000012B00F00E82022B00F018844FF47872E7
:10276000CA49CB4821F06AFD404080F311884FF000
:10277000030002DF4FE290F8B53090F8B4108B42BE
:1027800063D05B1ADE07D7D590F8801011F00106F0
:102790002AD016F013F905460028CDD094F8B430AD
:1027A00084F8B530A38DC38003230371037F43F006
:1027B0000303037709234377C377082200212030DE
:1027C00023F0F8FCD4F8BC3085F82030C3F307229E
:1027D0001B0C85F8212085F822302946086816F060
:1027E000C5F816F0CDF8A7E7AA4825F055FF05462D
:1027F0000028A1D094F8B530013B84F8B5308E2381
:10280000C4F8B830037943F003030371092343711B
:1028100094F93D30002BACBF08230E230822C3716E
:102820003146104423F0C6FCD4F8B8302B72C3F301
:1028300007221B0C6A72AB722946204626F097FBD2
:10284000B4F87A30A4F87C3076E790F8C13090F88C
:10285000C0108B425ED05B1ADD077FF56DAF90F83C
:10286000C23013F0010523D18A4825F015FF014637
:1028700000283FF461AF94F8C130013B84F8C130C7
:1028800094F8C23043F0010384F8C23003798572B2
:1028900043F003030371062343710C23C3710B231D
:1028A0000372592343724FF0FF33C3720373C4E7BB
:1028B000980722D516F082F8014600283FF43CAF75
:1028C00094F8C03084F8C130A38DC3800323037112
:1028D000037F43F003030377062343770C23C37777
:1028E00094F8C33080F82030B4F8C430A0F8213018
:1028F000B4F8C630A0F8233070E740F67A32634966
:10290000634821F09BFC404080F311884FF00300A6
:1029100002DF11E790F8ED1090F8EC3099423FF4A7
:102920000BAF5D4D2B6813B198427FF405AF94F85F
:10293000EE3003F00703052B00F2188101A151F8D6
:1029400023F000BF5D290000D7290000232B0000E1
:102950003927000039270000392700004D48E68E4E
:10296000678E25F099FE014600283FF4E5AE94F805
:10297000EE30042262F3020384F8EE30037943F070
:1029800003030371182343710F23C371B4F8F030AC
:102990000381B4F8F2304381B4F8F4308381B4F8A1
:1029A000F630C3813E4400230374C37403755E4450
:1029B0004FF0FF33A0F8116043758375C37503763C
:1029C00043768376C376037743778377204626F072
:1029D000CEFA2C6034E794F8EF60EEB12D4825F084
:1029E0005BFE014600283FF4A7AE037943F00303E2
:1029F00003711123C371032343710F23037294F8EE
:102A0000EF304372204626F0B2FA94F8EC3084F8A6
:102A1000ED3000232B608FE694F93D30002B3DDB39
:102A200094F8EE30C4F8AC60052161F3020394F829
:102A3000F81084F8EE30012384F8B03011B3B4F804
:102A4000F030B3FBF1F3013313FB01F39BB2A4F8B5
:102A5000A430B4F8F430A4F8A630B4F8F630A4F8F2
:102A6000A83094F8A230022161F3010394F8EE102B
:102A7000C1F3C00161F38203013A84F8A23084F803
:102A8000A12059E6B4F8F230E1E700BFC90D030018
:102A9000EDBC0200E42F0020602F0020634825F0E9
:102AA000FBFD014600283FF447AE037943F00303E2
:102AB0000371182343711023C371B4F8F0300381FC
:102AC000B4F8F2304381B4F8F4308381B4F8F630CE
:102AD000C38194F8F8300374B4F8FA30A0F81130D8
:102AE000B4F8FC30A0F81330B4F8FE30A0F815307C
:102AF000B4F80031A0F81730B4F80231A0F819305A
:102B0000B4F80431A0F81B30B4F80631A0F81D3039
:102B1000204626F02CFA94F8EC3084F8ED302E6044
:102B20000AE615F04BFF014600283FF405AE94F885
:102B3000EE20032363F3020284F8EE20A28D0371DA
:102B4000037FC28043F003030377182343770F23E7
:102B5000C377B4F8F0300384B4F8F2304384B4F8A7
:102B6000F4308384B4F8F630C38437E640F6874205
:102B7000C5E62F4B196801B91C60618EE68E0E44C4
:102B800094F8A2105E4411F00300B6B252D00120B6
:102B900015F0FCFE074600283DD0244825F07CFDBA
:102BA0000546C0B315F00AFF3B68D4F89C205A6074
:102BB00094F8A230C4F89C706FF3010384F8A2303B
:102BC000238E1E442B790636B6B243F00303A4F8D5
:102BD00090602B710C236B710023EB7194F8B03073
:102BE0002B7240F2E242D4F8AC30B3FBF2F3A5F81A
:102BF0000930B4F8A430A5F80B30B4F8A630A5F825
:102C00000D30B4F8A830A5F80F30A5F811602946AA
:102C1000204626F0ACF994F8C92094F8C8309A42BE
:102C200040F0048200200DB0BDE8F08FE42F0020BA
:102C3000602F0020B4F890100A91771ABFB23904BF
:102C4000E9D494F8A01084F8A11084F88D2094F8A9
:102C5000EC1094F8ED208A4209D094F8EE2002F0AE
:102C60000702052A04BF84F8ED10A4F87C001A6856
:102C7000D4F89C50944204BF00221A600DB12B6816
:102C80005BB940F60E12B849B84821F0D7FA404077
:102C900080F311884FF0030002DF2868B4F8A42005
:102CA0004368C4F89C30E38DB4F8A6C0B4F8A8100B
:102CB0009A4213D1238E634510D140F2E24303FBC5
:102CC00002FE42F2107303FB01E3013BB3FBFEF390
:102CD000B4F876E09BB29E4500F02081A38DEB8096
:102CE00015232B7100232B77EA83A5F820C0698474
:102CF000294615F03BFE15F043FE2368002B0ADA47
:102D0000D4E9012023F0004390422CBF804490443A
:102D10002360A8EB0308E38DB4F8A450DFF868A2A1
:102D200013FB07F39BB2B3FBF5F11FFA81F915FB17
:102D300009F292B2934240F2E24080F0F280D31A5C
:102D40005843A0FB0A0186A3D3E90023FFF77CF8D0
:102D500020F07F408044638E9B440A9B9E1B94F925
:102D60003D304E445E44002B40F2E24B66860BFB46
:102D700005F580F2E480E26C636C03FB1727E764DF
:102D800026F0D2FA064694F88000C0F3820018F0CC
:102D90006BFB94F8B02006440BFB02F262656E43B5
:102DA0000022C4F8882006F57426E26C704806F20A
:102DB0003F266B08B6FBF0F606FB09F0963B024493
:102DC000A3649A4294BFE264E364666464A3D3E9B3
:102DD0000023A0FB0A01FFF737F8A8EB0008D4F89E
:102DE000AC00B0FBFBF00BFB00F05DA3D3E90023CC
:102DF000A0FB0A01FFF728F8A5EB060920F07F47A2
:102E0000B4F8A430E385B4F8A6302386B4F8A8302B
:102E100042F2107202FB0353013BB3FBF5F3A4F83B
:102E20007630544B2B44B3FBF5F594F8A230A4F85C
:102E30007A505A0744BF0023A4F8783002210120B9
:102E40001AF0BEF8002202210646012013F0E2FB30
:102E5000204616F0BBFD0530C5B2474B00942A460C
:102E60000121002014F0D4F930F002030BD040F619
:102E7000B7123D493D4821F0E1F9404080F3118807
:102E80004FF0030002DFA9FB0A23CDE90A23DDE9A5
:102E90000A0133A3D3E90023FEF7D6FF374B08948A
:102EA000CDE90643364B0593E36804934FF6FE7372
:102EB0000393344B0A9920F07F44A4FB03ABB1EB9E
:102EC0000A004FF007030B9903FB04BB61EB0B01F6
:102ED0004FF47A720023FEF7B7FF4346CDE9014075
:102EE00000972A460121002025F087FE30F00203DA
:102EF0000BD040F6D1121C491C4821F09FF94040EC
:102F000080F311884FF0030002DF26B10122022175
:102F1000104613F07FFB6FF0470084E601232B710E
:102F2000E6E605FB113189B248430DA3D3E900233E
:102F3000A0FB0A01FEF788FFA8EB00080BE740F6AC
:102F400087120949094821F079F9404080F3118836
:102F50004FF0030002DF0027A94651E7AFF30080DE
:102F60008D49FD1A07000000C90D0300EDBC0200E9
:102F700040420F00FF5962026D9801002198010044
:102F800041AB01008D49FD1A00CA9A3BE38E618E68
:102F90000B449B4494F89030DB071FFA8BFB25D53C
:102FA000354825F079FB054600283FF434AE94F807
:102FB00090306FF3000384F89030238E9B440379A4
:102FC0000BF1060B43F00303A4F896B0037108233A
:102FD00043710123C371052204F19101083023F0EC
:102FE000BFF8B4F89630A5F80D3010E6B4F8963076
:102FF000ABEB030B1BF4004F7FF40DAE04F138056F
:1030000084F88D2004F191010522284623F0A8F8C8
:103010000521284625F0BCFB94F83D3060F30503FC
:1030200084F83D30012384F82831F4E5124825F076
:1030300033FB014680B194F8C83084F8C930037975
:1030400043F00303037102234371C37194F8CA3040
:103050000372204625F08BFFB4F87C0000287FF433
:10306000E1ADB4F87630012B02D9A4F87C30D9E573
:103070000133A4F87C30D6E5E42F002000000000E6
:103080002DE9F04F91B01E460C903046136850F871
:103090000C5BD3F800A00C4691462E31032206F1BA
:1030A000080B23F05DF806F11C07042204F12A0145
:1030B000584623F055F8052204F13A01384623F02A
:1030C0004FF80521384625F063FB96F8213000F0D3
:1030D0003F0060F30503012886F8213040F22A8181
:1030E00094F83F30C3F3040386F82230053B03F025
:1030F000FF030B2B00F21E81D9F800304FF00008BF
:10310000C3F80880A78E778294F8372094F8363079
:1031100043EA0223B382638E0B9340F2E2435F43A0
:1031200094F83F3095F880205B0963F3840285F8BA
:10313000802026F0F9F80D9095F88000C0F3820009
:1031400018F092F90D9B1844784300F574207E4BDB
:1031500000F23F20B0FBF3F07B08963BF36294F85B
:103160003130B06240F2E2425343F363238F0D9358
:1031700042F2107202FB0372013AB2FBF7F2A5F8B9
:103180007620724A59463A4405F18400B2FBF7F2C0
:10319000A5F87A20042222F0E3FF94F81CB004F191
:1031A0001E0106220EA822F0DBFFCBF3801B4FF49A
:1031B0008072A28384F81EB00EA9062204F11F00BB
:1031C00022F0CEFF728A0D9BE284B28A638595F865
:1031D00080302285C3F3820384F82C30284616F011
:1031E000F5FB21463082E0800C98594C15F0BEFB6F
:1031F00015F0C6FB4146404626F06AF83123834667
:1032000000F252402B60C5F804804DA3D3E900239F
:10321000C5F80880A0FB0401FEF716FEB36A0B99FF
:10322000FF1AD9F80C3040F2E24202FB013320F0E1
:103230007F4003F28633A3EB0B0342460221E86092
:1032400001200B9313F0E6F9504616F0E7F8821CC4
:10325000404BCDF800A0D2B20121404613F0D8FF78
:10326000514617F053FC9AF82830DB0707D50122A6
:10327000CDF8008043461146404613F0C9FF28466A
:1032800016F0A4FBA7FB04672DA3D3E90023804617
:1032900039463046FEF7D8FDD9F80830A3F1310998
:1032A0004FF4B67308932C4BCDE906532B4B059383
:1032B000EB6804932A4B20F07F45A5FB03BC072352
:1032C00003FB05CCB6EB0B0067EB0C014FF0000ADB
:1032D0004FF47A720023CDF80CA0FEF7B5FD0B99E0
:1032E00017A3D3E90023CDE90150A1FB0401FEF7A8
:1032F000ABFD08F1050820F07F405FFA88F80090E8
:103300004B4642460121504625F077FC30F002033F
:103310000BD04FF4B7721349134820F08FFF404091
:1033200080F311884FF0030002DF012202211046D2
:1033300013F070F911B0BDE8F08F00BFAFF300805B
:103340008D49FD1A0700000040420F00FF5962023C
:1033500000CA9A3B0DAB0100E5AA010041AB010098
:103360008D49FD1A1B0E0300EDBC02000000000099
:103370002DE9F04F8FB083460DF137010DF1360086
:1033800025F0FBFCDFF8D8809DF836300A939DF8D5
:1033900037300B93DFF8CC9025F062FCD8F8004072
:1033A000A4FB094528A3D3E90023824629462046E9
:1033B000FEF74AFD0646D8F80400254B0593002782
:1033C00021A3D3E90023A0FB0901CDF818B0CDE972
:1033D0000777FEF739FD1F4B26F07F46A6FB03BC9F
:1033E00020F07F40072303FB06CCCDE90370B4EB4C
:1033F0000B0065EB0C014FF47A720023FEF724FDFD
:103400005346CDE9016000970B9A0A98032125F0F5
:10341000F4FB30F0020314D10F4A104800231EF0D1
:1034200071FD58B19DF837209DF8360003211AF040
:10343000D3FE6FF03B000FB0BDE8F08FD8F80C0062
:10344000F9E76FF04700F6E78D49FD1A0700000025
:103450007DE201008D49FD1A447B0B00783300208A
:103460006833002000CA9A3B38B50F4D044625F05A
:10347000F7FBA96825F0F6FB0C49B0FBF4F4044413
:10348000686807A3D3E90023A0FB0101FEF7DCFC79
:1034900020F07F40844294BF0020012038BD00BF4F
:1034A0008D49FD1A070000006833002000CA9A3BCE
:1034B000F8B5D0E913C64C681D4F02460868A41B36
:1034C000A0EB0C00E517C7FB0045002C75F10003CD
:1034D00025DA106BD36A644265EB4505C11792F893
:1034E0002020012AC7FB030112D1114A02FB0C6301
:1034F000002BB8BF5B4203FB01F2DF1700FB072282
:10350000A3FB0001114408A3D3E90023FEF74CFC00
:10351000A04271EB0503B4BF01200020F8BD906A02
:10352000536AC117DBE700BF00E1F50500000000AA
:1035300040420F00000000002DE9F0430B688BB003
:103540000C461988054626F03DFA6B4628220021D4
:10355000184622F02FFE6468374A002C08BF044644
:10356000D4E9001330A7D7E9006702FB0131CB177C
:103570009F4208BF8E424FD30FF2B409D9E90089A8
:1035800040F6FF70C0FB0189404632463B46494643
:10359000FEF75AFC1FFA80F8D4E90232264901FBF3
:1035A000032C6246D3179F4208BF664537D320A13C
:1035B000D1E9000140F6FF76C6FB0C011AA3D3E95E
:1035C0000023FEF741FC86B25FFA88F1284626F018
:1035D000F2F9310141EA1821C9B2284626F0EBF987
:1035E000C6F30711284626F0E6F9217C284626F086
:1035F000E2F9D4E906011BF049FE0146284626F00F
:10360000DAF9D4E908011BF041FE014628460BB067
:10361000BDE8F04326F0CFB94FF00008BCE7002624
:10362000D2E700BFAFF3008000E1F5050000000025
:1036300080F0FA020000000040420F00014820F034
:10364000FDBD00BF74BA0200014820F0F7BD00BF05
:1036500033BA020008B5024820F0F0FD002008BD92
:103660000BBA020008B50146024820F0E7FD002031
:1036700008BD00BF64BA0200082808B504D1064896
:1036800020F0DCFD002008BD012801D10348F7E748
:103690006FF02200F7E700BF42BA020052BA020000
:1036A00010B5224820F0CAFD214C1021204621F0FF
:1036B0005DFB62782378134062791340FF2B0DD1B4
:1036C0001C4B1A7822705A7862709A78A270DB7854
:1036D000E370194B1A7822715B78637100F0DEF8A1
:1036E0000146164824F093F8014620B11448BDE87D
:1036F000104020F0A3BD134820F0A0FD124820F098
:103700009DFD21F0D8F9032011F018FE10F1450FAE
:10371000014606D10D4820F091FD0D4B01221A7093
:1037200010BD08B10B48E2E70B48F4E758B90200B6
:1037300032350020A4000010A800001088030020EB
:1037400066B9020089B902009BB90200ACB9020057
:1037500042350020D5B90200F3B9020038B50F4850
:103760000F4D20F06BFD0F4805F09CFA04462B78B6
:1037700033B15CB121460C48BDE8384020F05EBD55
:1037800000214FF4A4701EF02FFBF0E7074820F053
:1037900055FD0748BDE8384020F050BDF8B802009C
:1037A00042350020A13600000FB902002FB90200F7
:1037B00046B90200014820F041BD00BF91BA0200A5
:1037C000014820F03BBD00BFA2BA0200F7B5154C7E
:1037D000154D2146284620F085FC144B1860D0B9C1
:1037E0002868FEF73DF91249FEF742FAFDF7ECFDB5
:1037F000064620680F46FEF733F90D49FEF738FA02
:10380000FDF7E2FD3246CDE900013B46094803F0F1
:10381000E5FA03B0F0BD084803B0BDE8F04003F09E
:10382000DDBA00BF401A0020481A0020441A0020C8
:1038300000007A44B2BA020001BB020010B514467F
:10384000FFF7C4FF064B1868FDF7ACFD054B0022DF
:10385000FDF73CFF2246FEF78FFC034B186810BDB6
:10386000401A002000408F40441A002010B5144632
:10387000FFF7ACFF064B1868FDF794FD054B0022DF
:10388000FDF724FF2246FEF777FC034B186810BDB6
:10389000481A002000408F40441A002008B520F04C
:1038A00066FB002000F0E2F8004808BD48AC0200CA
:1038B0002DE9F84312F44065064688461446D0F8D0
:1038C0000490C7680CD093050AD41949194840F2EE
:1038D000362220F0B3FC40F23621154820F060FF7C
:1038E000E00404D51DB1E10748BF84F4E05401238E
:1038F00003FA08F5D9F800301D420AD10C490D48E9
:1039000040F2452220F09AFC40F24521084820F080
:1039100047FFB36822461B6841463046984728B99E
:103920003B68E2074CBF2B43AB433B60BDE8F883E9
:10393000C3BC0200EDBC020010B52A481CF04CFCD0
:10394000294A106020B92948BDE8104020F076BC13
:10395000062141F20162FFF7ABFF254C002801462A
:10396000206004DA2348BDE8104020F067BC1D4801
:103970001CF032FC204A106008B92048E4E7082116
:1039800041F20162FFF794FF00280146206001DA4E
:103990001B48E8E71B481CF01FFC1B4A106008B9D5
:1039A0001A48D1E7092141F20162FFF781FF00289F
:1039B0000146206001DA1648D5E70A481CF00CFCE5
:1039C000144A106008B91448BEE70C2141F20162A4
:1039D000FFF76EFF00280146206001DA0F48C2E7BA
:1039E00010BD00BFBCBB02004C1A0020C3BB0200CC
:1039F0005C1A0020D7BB0200501A002003BC020052
:103A000017BC02001CBB0200541A002043BC020079
:103A100057BC0200581A002083BC020097BC020069
:103A200008B50D4820F00AFC4FF080530B48D3F83E
:103A3000A420114620F002FC094820F0FFFBFFF70C
:103A40007BFF084820F0FAFB074820F0F7FBBDE8B1
:103A50000840FFF783BE00BF05BD02001EBD020087
:103A60005ABD020074BD020092BD020007B50D4AA6
:103A70000346092B106892880090ADF804200ED8F8
:103A800030338DF8043068461CF0A6FB064B1860F6
:103A9000B0FA80F04009404203B05DF804FB4FF0FB
:103AA000FF30F9E7A6BD0200601A00201FB50346EB
:103AB0000748CDE90112032200688DF80C208268C6
:103AC00001A954680122A04740B204B010BD00BF54
:103AD000601A00201FB503460748CDE901120222F3
:103AE00000688DF80C20826801A954680122A04763
:103AF00040B204B010BD00BF601A0020024B442049
:103B0000198820F0C6BA00BF7C0B002010B5094C04
:103B10000A44914200D110BD11F8013B43401809FD
:103B2000205C80EA0310C3B21809205C80EA03100D
:103B3000C0B2EEE7ACBD0200436870B503F003030A
:103B40000546022B0E46A96010D0032B04D0012B92
:103B50000FD10024204601E00468002000236B60A0
:103B600010B131461FF0B2FA204670BD0068002443
:103B7000F4E745220449054820F060FB452102484E
:103B800020F00EFE0024E8E7BCBD0200EDBC020000
:103B90000B6801330B60014B1B68184708050020B8
:103BA00007B50023019302460B46034801A900F024
:103BB00047FC03B05DF804FB913B000030B585B0D5
:103BC000CDE901010446002501A90548039500F04F
:103BD00037FCDDE902309842B8BF255405B030BD4E
:103BE000174202002DE9F74FB0F81C8018F0080FBB
:103BF000044693461CD001290CBF48F0100848F039
:103C00002008A0F81C8004F114001EF043FB40B90A
:103C1000B949BA48A72220F011FBA721B64820F0E5
:103C2000BFFD8BF31188BFF36F8F03B0BDE8F08F3A
:103C3000B34EDFF8C89208F00708022906D12046E3
:103C400020F016FB0028DED0012861D1D4F818A09E
:103C5000A38BBAF1000F19DA0027256823F00703B8
:103C6000C4E9007743F00103A383A38B03F00702A9
:103C70004245009203D0A268002A40F0EF8015B9B7
:103C8000002F00F029814FF00008E9E003F007025F
:103C9000511F01291ED8002123F00703062A256899
:103CA0009BB2C4E900110AD13DB1E28B29460968F3
:103CB000013292B20029FAD1E28343F00203A383D6
:103CC000204620F0D5FA18B1A38B43F02003A3833C
:103CD0000027CAE7042A0FD123F007039AB2A28370
:103CE000204620F0C5FA002800F0B68042F02002FD
:103CF000A28300252F46B8E73146484640F2191204
:103D000020F09CFA40F21911304620F049FDF0E70E
:103D1000032831D1B8F1000F0AD0314648464FF49C
:103D2000AA7220F08BFA4FF4AA71304620F038FDC9
:103D3000236853B93146484640F2551220F07EFAC6
:103D400040F25511304620F02BFD23691F6857B90A
:103D5000314648464FF4AC7220F070FA4FF4AC7123
:103D6000304620F01DFDA38B23F0070343F006032C
:103D7000A3830025AA4678E704282ED1B8F1020FC4
:103D80000AD03146484640F25B1220F057FA40F222
:103D90005B11304620F004FDE38B53B131464846B9
:103DA0004FF4AE7220F04AFA4FF4AE71304620F074
:103DB000F7FC23695F6857B93146484640F25F1205
:103DC00020F03CFA40F25F11304620F0E9FCA38B72
:103DD00023F0070343F00403CAE705282ED1B8F106
:103DE000010F0AD0314648464FF4B17220F026FA4E
:103DF0004FF4B171304620F0D3FC236853B93146FB
:103E0000484640F2631220F019FA40F2631130463E
:103E100020F0C6FC23699F6857B9314648464FF4E5
:103E2000B37220F00BFA4FF4B371304620F0B8FCB7
:103E3000A38B23F0070343F0050399E740F26912CF
:103E40003146484620F0FAF9002540F26911304623
:103E500020F0A6FC2F468DE705464BE74FF0010802
:103E600043F00803A38304F11403184601931EF0E2
:103E700011FA40B920494846A72220F0DFF9A721CE
:103E80001D4820F08DFC8BF31188BFF36F8FB8F1C4
:103E9000000F39D1002D49D117B11A492046B84732
:103EA0004FF02003EFF3118B83F31188BFF36F8F73
:103EB00001981EF0E1F940B90F4948467C2220F0F4
:103EC000BDF97C210C4820F06BFC01981EF0F2F942
:103ED000A38B23F00803A383A38BDA0630D523F04A
:103EE0001003A3830121B4F81C8008F007080029FF
:103EF0007FF4A3AE87E600BF01BE0200EDBC020066
:103F0000DFBD0200513F0000A1680029C2D0D1F8F6
:103F10000080D1F804B0009A53462046D847B8F143
:103F2000000FB7D04146D8F80080F2E7D5F80080FE
:103F3000009A29465346204620F0B6F94546A9E79F
:103F400013F020011EBF23F02003A3830221CAE740
:103F5000F8B504460F4600F114054FF02003EFF3C7
:103F6000118683F31188BFF36F8F28461EF084F902
:103F700040B90A490A487C2220F060F97C210748B0
:103F800020F00EFC28461EF095F9A7613246204627
:103F90000121BDE8F840FFF725BE00BF01BE0200C9
:103FA000EDBC02002DE9F0470446884620F092F966
:103FB000061E52DB04F114094FF02003EFF3118ABF
:103FC00083F31188BFF36F8F48461EF055F940B94F
:103FD000324933487C2220F031F97C212F4820F0EF
:103FE000DFFB48461EF066F9E38BA28B4FF6FF71AC
:103FF0008B4202F007054AD0022D1CD10133E38326
:104000002E46012748461EF045F940B92349244869
:10401000A72220F013F9A721204820F0C1FB8AF342
:104020001188BFF36F8FC7B100232A46414620464F
:1040300020F03AF911E0930701D0062D10D10023AA
:10404000C8F800306368EBB9C4E900882E4605BBA8
:10405000524602212046FFF7C5FD3046BDE8F087F5
:10406000052D18D0012D0AD00E490D4840F2C51279
:1040700020F0E4F840F2C5110A4820F091FB6FF0FF
:10408000040606E0C3F80080C4F80480DEE76FF0A1
:104090000A060027B6E76FF02206FAE701BE020023
:1040A000EDBC0200DFBD020070B5044600F114054E
:1040B0004FF02003EFF3118683F31188BFF36F8F66
:1040C00028461EF0D9F840B9224923487C2220F026
:1040D000B5F87C211F4820F063FB28461EF0EAF863
:1040E000A38B03F00703022B17D0012B0CBF6FF03B
:1040F00004046FF0220428461EF0CCF840B915499C
:104100001548A72220F09AF8A721124820F048FB72
:1041100086F31188BFF36F8F17E0E38B53B90F4914
:104120000D484FF4F67220F089F84FF4F6710B4801
:1041300020F036FBE38B013B9BB2E3833BB9204687
:1041400032460221FFF74EFD0224204670BD0224B4
:10415000D1E700BF01BE0200EDBC0200DFBD0200DE
:104160002DE9F041164DDFF85C8007464FF0FF3235
:104170004FF0FF3338461CF0FBFD04460028F5D015
:10418000466846B9294640461C2220F057F81C21B3
:10419000284620F005FBBFF35B8F04F1080353E8CA
:1041A000002F22F0010143E800100028F7D1BFF3EF
:1041B0005B8FD30701D52046B0471DF007FDD5E73B
:1041C00027BE0200EDBC020070B5002937D005689B
:1041D000AB68B3F5004F2CBF082404240C1B641BF0
:1041E000E4082146284620F0B7F840B9144915489C
:1041F0009B2220F023F89B21114820F0D1FA214680
:10420000284620F0B0F8261800223146284620F033
:104210008DF8301A844208D009490A48A42220F0B7
:104220000DF8A421064820F0BBFA214628460022BA
:1042300020F09FF82146BDE8704020F0DDB970BD48
:104240004ABE0200EDBC02002DE9F04701F1FF3A41
:104250001AEA010F064689461446056808D0324915
:104260003248FC221FF0EAFFFC212F4820F098FA88
:10427000AA68B2F5004F2CBF08230423994505D83E
:1042800021463046BDE8F04720F0F4B91CB90027BC
:104290003846BDE8F087B2EBD40FF8D909EB04013A
:1042A000C91A284620F081F80146284620F01EF958
:1042B00080460028EBD0AB68B3F5004F2CBF082632
:1042C000042606EBC0072F445744C9F1000907EA4A
:1042D0000907BE1B3C44761B0734F60824F007048C
:1042E000641BB0424FEAE40408D201463246284635
:1042F00020F08FF84146284620F039F9314628460B
:1043000020F031F83044844208D231462846224613
:1043100020F07FF82146284620F029F90122314675
:10432000284620F026F8B3E74ABE0200EDBC0200A2
:10433000B2F5802FF8B507460D4616460ED2042A70
:104340000AD83D493D484FF4B6721FF077FF4FF44D
:10435000B671394820F024FA042300E00823F61A45
:10436000EC1D354424F0070425F007052D1B172DFF
:104370004FEAD5060AD83049304840F275121FF08E
:104380005DFF40F275112C4820F00AFA002200234C
:104390003C60C4E900230023E3603146A660204668
:1043A00020F00DF801218500471C20461FF0FDFF7D
:1043B0001B35ED082844B0420AD31F491F4840F27C
:1043C00081121FF03BFF40F281111B4820F0E8F9F9
:1043D000002304F110021946BB4229DB2A4620467D
:1043E00000211FF0DEFF771B2046012200211FF075
:1043F000C0FF3A4629461FF0D4FF2B4629462046E7
:1044000000221FF09EFF3146204600221FF0C9FF08
:104410003B463146204600221FF093FF314620469E
:1044200001221FF0A6FF2946BDE8F84020F09FB802
:1044300042F8041B0133CFE74ABE0200EDBC020084
:104440002DE9F04F93B08A46039093461C46002511
:104450009BF8000008B9284617E325280BF101074F
:1044600007D05146039B98470028C0F20E830135C0
:1044700000E2182200210CA821F09CFE9BF80130DC
:10448000252B7CD00022CDE90422BC461046914663
:10449000174690461646964663461CF8011B2B2984
:1044A00000F09F8000F29580202900F09D80232954
:1044B00000F09D802EB19DF838606EF382068DF875
:1044C00038602FB19DF8386068F3C3068DF8386006
:1044D00028B19DF8380069F304108DF8380004986D
:1044E00028B19DF8380040F020008DF8380032B136
:1044F0009DF83820059860F386128DF838209DF8D5
:10450000382002F04400442803D16FF386128DF85E
:1045100038209DF838202A2942F080028DF8382072
:1045200040F081805A1C9DF8393043F001038DF82A
:10453000393013782E2B9DF839300CBF0121002122
:1045400061F341038DF8393079D153782A2B6FD03C
:10455000013200210A26104610F8013BA3F1300772
:10456000092F40F293809DF838301091C3F340003A
:1045700040EAD17161F341038DF838305FE00BF10F
:1045800002078DF83B309DF83930D90740F1198189
:1045900054F8049BB9F1000F07DA9DF8382042F077
:1045A00004028DF83820C9F100095A0740F1128140
:1045B000234653F8048BB8F1000F80F225819DF853
:1045C00039206FF341028DF839201C464FF0FF3837
:1045D00005E12D290ED030297FF46CAF0122059220
:1045E0005AE70127B84657E70120814654E70123DF
:1045F000049351E70126B6464EE70CFB0101303922
:104600003246164616F8010BA0F13007092FF4D9EF
:1046100093428ED09DF838300F91C90F61F341035A
:104620008DF8383085E71A4600214FF00A0CE8E78C
:104630009DF8393043F004038DF8393002321746C3
:1046400017F8013B6A2B47D025D84C2B50D0682B4C
:104650002ED0174617F8012B8DF83B20672A9DF8BE
:10466000393060D8652A55D2582A00F098804CD845
:10467000412A4FD002D3453A022A4BD99DF838300F
:1046800043F001038DF8383000236AE006FB013166
:10469000303902465FE7742B26D07A2B20D06C2B62
:1046A000D7D153786C2B9DF8393013D1042105E014
:1046B0005378682B9DF8393006D1012161F3C60388
:1046C0008DF83930971CC5E7022262F3C6038DF8D6
:1046D0003930BFE70322F8E79DF839300522F4E7C7
:1046E0009DF839300622F0E79DF839300722ECE7D3
:1046F000BDF8383023F4F04323F0020343F4804341
:1047000043F00203ADF83830A4E7632A47D012D84B
:10471000612AB3D19DF83A30042262F302038DF886
:104720003A3001231DE0702A2CD024D86E2A3AD0CA
:1047300035D8692AA2D19DF83A10012003F07803F8
:1047400060F30201402B8DF83A1002BF9DF838103B
:1047500041F001018DF83810632A95D1003318BF5C
:1047600001239DF83820C2F340010B4363F341025B
:104770008DF8382007E7752A11D0782A0FD0732AD0
:104780007FF47CAF9DF83A20032113F0780F61F39A
:1047900002028DF83A2014BF01230023E1E79DF8BF
:1047A0003A100220CAE79DF83A2003F07803A3F1FB
:1047B0004000032161F3020243428DF83A20434155
:1047C000CFE79DF93820002AB4BFDDF83C904FF0C8
:1047D000FF39EAE69B077FF5F9AEDDF840809DF8EA
:1047E00039200023CDE90F339DF83A3003F0070359
:1047F000012BC2F3C3023FD1D31E042B14D8DFE830
:1048000003F0050D0D1313001C46E8E7234653F88B
:10481000040BC117CDE90C011C461CE0073424F041
:104820000703F3E80201F5E72346012A53F8040BD6
:104830004FEAE071CDE90C011C4605D19DF83030FE
:104840000C9300230D9306E0022A04D1BDF9300039
:10485000C117CDE90C019DF8383013F003063FD0A5
:104860003B465A46514603981FF084FF0028C0F289
:104870000C810544BB46EBE5022B20D1D31E042B53
:104880000ED8DFE803F00309090D0D0020680C9035
:104890000021231D0D91BFE7E31D23F00703C0E7AF
:1048A0002346012A53F8041B0C914FF000010D918F
:1048B0001C46C3D0022ACED1BDF83030C0E7042B4D
:1048C00007D1E31D23F00704F4E80201CDE90C0150
:1048D000C1E7032BBFD1234653F8041B0C919BE780
:1048E0009DF83B006E2800F0A8803CD8632871D06A
:1048F00022D825283FF4B5AD5828BBD10DF12E03A1
:1049000000930EAA06ABDDE90C011FF0E6FE83461C
:10491000B8F1000F0DF12E000CDB9DF83820A0EB54
:104920000B036FF3861298458DF8382002D9A8EB57
:1049300003030F93804645E0642801D0692899D18C
:104940001E0778D413F0100618BF2026DDE90C23CB
:10495000002A73F10001D1DA524263EB4303CDE93F
:104960000C232D26CAE7732820D01BD86F28C5D06A
:1049700070287FF47FAF0C98002873D00DF12E03C0
:1049800000930EAA06AB31461FF0A7FEBDF83A30E1
:1049900003F0EF0343F4F04343F010038346ADF814
:1049A0003A30B5E77528A9D07828A6E7B8F1000F06
:1049B000DDF830B00ADB4146584621F069FB0BEBCD
:1049C00000080026BBF1000F0BD153E7584621F039
:1049D00058FBF4E70C9B8DF818300DF119080DF118
:1049E000180BA8EB0B0306B101339DF83A20D00653
:1049F0003ED5023352060F9948BF109A0B4448BF68
:104A00009B18B9F1000F4DDD9DF83820A9EB030983
:104A1000C2F380030493002B44D1500638D546B12D
:104A200051463046039B984700282EDB049B0135F6
:104A30001E4630232DE02B2688E70C9B072A3FF6E5
:104A400019AFDFE802F00D04060D08080D0D1D700A
:104A500010E71D800EE72846E917C3E9000109E7C2
:104A60001D6007E7DFF8C8800646A8F1050BB8E728
:104A7000110748BF0133BDE7184604935146039B15
:104A8000984700284A46049B05DA13B0BDE8F08F2A
:104A900020234A464D44002AA5EB020102F1FF39CA
:104AA000EADC0D4636B151463046039B9847002854
:104AB000EBDB01359DF83A30D90601D41A0706D54B
:104AC00051463020039B98470028DEDB01359DF8D6
:104AD0003A30DB0607D551469DF83B00039B9847CB
:104AE0000028D2DB01350F9E2E44731B002B16DCF1
:104AF00043465A46514603981FF03CFE0028C4DB4B
:104B00000544A944A9EB0503002B7FF7B3AE51463A
:104B10002020039B98470028B7DB0135F2E7514678
:104B20003020039B98470028AFDB0135DDE700BF4D
:104B300070BE02002DE9F7430F4681460821C06A86
:104B4000124E1FF0A8FE3C68241A80463C6004EA1E
:104B50000605AC4203D8002003B0BDE8F08308236B
:104B60006A46214648461FF026FE0028F4D16846D2
:104B70001FF07CFE38B9BDF80230BDF804203C605F
:104B8000354013441D44A4EB0804E2E70000FFFF96
:104B90002DE9F04F044693B00821C06A1FF07BFE58
:104BA00063681B0C1B04814601A9E08901931FF077
:104BB0007CFE019BA18904AD1944A1EB09012A46A1
:104BC0000823204602911FF0F6FD021EC0F29580D8
:104BD000E36A1A790023E95C91427FD10133082B03
:104BE000F9D1019920461FF06AFE024685E0029B3A
:104BF000BDF812201B0C1B0413440293DFF804B110
:104C0000DDF808A006AA02A920461FF080FE024691
:104C1000002872D106A81FF029FE002835D163684C
:104C2000039308AA03A92046039D1FF070FE0246C5
:104C3000002862D1BDF82020BDF818309A4227D054
:104C40006268039B9A42ECD155451ED1BDF81C30D9
:104C5000DBB1BDF81A300AEA0B071F4406A8A368A7
:104C6000ADF81A301FF00EFEE36ABDF81C801E6816
:104C7000764206F02006B8F1000F0FD106A92046B3
:104C80001FF0DDFE0246002837D1CA45B8D1A8E79B
:104C900008A81FF0EBFD0028D2D1D5E746453546E0
:104CA00028BF45460AAA2B46394620461FF083FDF9
:104CB000024610BB35B10AAA2B46A16820461FF058
:104CC00076FE02462946E06A1FF0E5FDA368184417
:104CD000A06092B9A8EB05082F44CCE7029B2846B8
:104CE000A3EB09091FF0C2FD002880D002A92046CD
:104CF000FFF720FF0246002880D0104613B0BDE821
:104D0000F08F00BF0000FFFF2DE9F047044686B09A
:104D10000D4600F11406304625F064FA28461BF0D3
:104D20005BFAA06248B9452188481FF087FA6FF006
:104D30000505284606B0BDE8F08783681B699847DB
:104D4000E06230B9824845211FF078FA6FF015050E
:104D5000EFE7A06A83681B6998470368013B1F2B34
:104D600002D945217B48EFE7A06A216803AA24F015
:104D700045FF10B145217848E6E7A3892BB1049A95
:104D8000B3FBF2F502FB153515B145217348DBE79E
:104D9000E389012B02D845217148D5E7E36A0095E4
:104DA00093F804904FF0FF324FF0FF3330461BF082
:104DB00055FD0821E06A1FF06EFD2F468046E3890D
:104DC0001FFA85FA534565D8E389BB4200F0A280FB
:104DD00053450CD1009908234A46A1EB080120460F
:104DE0001FF020FD18B96946E0891FF05EFD009BA9
:104DF0005C4FA3EB08023B406260A360D4E901135F
:104E000099420ED3082301AA20461FF0D4FC054680
:104E100018BB01AB13F8012B91457ED10135082D4C
:104E2000F8D1D4E901318B4207D95B1A4A462046B2
:104E30001FF0F8FC051E10DB50D16368494FE08974
:104E40003B40694600931FF030FDA38900994A4614
:104E500020461FF0E7FC051E46DA30461BF0D2FD67
:104E6000002D7FF466AF01232374E289A3893E48B5
:104E700049211FF0E3F962683C4893B24921120CC2
:104E80001FF0DCF9A2683A4893B24921120C1FF0D6
:104E9000D5F94EE7A1892B04A1EB080113FA81F1A2
:104EA0004A460823204600911FF0BCFC70B16946B9
:104EB000E0891FF0FAFC013708234A460099204692
:104EC000BFB21FF0AFFC00283FF47EAF013576E79C
:104ED000BAF1000F36D06FF01C05BEE7E26AA36896
:104EE00012681344A3609CE7B7D0616820461FF0A6
:104EF000E6FC05460028B0D16068A3893840184414
:104F0000A0EB480060603840A0602046FFF740FEFC
:104F10000546A2E76FF020059FE701A81FF0A6FC59
:104F2000656878B9009ABDF80600BDF808A03A4057
:104F30000244A2605146E06A1FF0ADFC1044A84252
:104F4000A060C5D0A5EB0805656057E78ABE0200E2
:104F5000ABBE0200D2BE0200F4BE020011BF0200CE
:104F60002ABF02000000FFFF52BF02006EBF020016
:104F700085BF02002DE9F04F1E46037C89B0044630
:104F8000894690464BB9452165481FF057F96FF0A7
:104F90000C05284609B0BDE8F08FC26A082110460A
:104FA0001FF079FC3146824610461FF074FCA3893D
:104FB0000AEB4A029B1AB3420746C0F0AB801EB10F
:104FC000B8F1000F00F0A6806368039304AA03A958
:104FD0002046DDF80CB01FF09AFC05460028D8D119
:104FE000BDF810304B4505D06268039B9A42EDD165
:104FF000DEB9CEE704A81FF039FC0028F4D1BDF8D3
:10500000143086B1B34210D1BDF812004FEA1B41F3
:10501000090401443346424620461FF0DAFB0028CB
:1050200003DC0546B5E7002BB3D0002F3FD104F1D8
:10503000140A4FF0FF334FF0FF325046DFF8E4B070
:105040001BF00CFC0023E289934260D0D4E90121DB
:10505000781882422ED3FF2306A8ADF81890ADF839
:105060001A10ADF81C608DF81E301FF00BFC36B125
:1050700033464246A16820461FF099FC054631465A
:10508000E06A1FF008FCA3681844A060002D44D11A
:1050900006A920461FF0D3FC054600283DD1324624
:1050A000019250461BF0AEFC019A154671E7574439
:1050B000BFB2BCE70821E06A01931FF0ECFB4FF69A
:1050C000FF71ADF818100021ADF81C101118ADF8E3
:1050D0001A10A18902EA0B020A44121A626006A899
:1050E0001FF0D0FB06A920461FF0A9FC211DE08976
:1050F0001FF0DBFB626802EA0B02A2602046FFF7AA
:1051000047FD02460028CBD1019B01339BE76FF09E
:105110001B02C5E76FF015053BE72A46C0E700BF55
:1051200071BE02000000FFFF2DE9FF471F46037C10
:10513000BDF8308004468A46914643B92648452149
:105140001FF07CF86FF00C0004B0BDE8F087082178
:10515000C06A1FF0A0FBA389A3EB4000B84238D37C
:1051600063680193002502AA01A92046019E1FF051
:10517000CEFB0028E8D1BDF80830534505D102A880
:105180001FF074FB08B90135ADB26268019B9A4209
:1051900018D04545E7D9BDF80C30BBB1454515D30E
:1051A000BDF80A00310CBB424FEA014128BF3B4623
:1051B00001444A4620461FF0FEFA0028C4D1BDF83B
:1051C0000C00C1E7BDF808305345E4D06FF0010092
:1051D000BAE76FF01500B7E771BE0200084B30B5B3
:1051E0001D68084B196800239D4202DC002210460E
:1051F00030BD1C010A190C5D8442F8D00133F3E77D
:10520000C8AC02000C050020084B1B6810B50C460A
:105210002BB1FFF7E3FF28B12060002010BD6FF035
:105220000C00FBE76FF00100F8E700BF0C05002061
:1052300030B589B00C4615460190FFF7CFFFB8B1E5
:105240004368029383682268C068CDE90335002370
:105250000593CDE906231FF00EFC60B101AA0749B2
:1052600024F0D0FC079808B9059B236009B030BD35
:105270006FF01500FAE76FF01200F7E77B4A0200C3
:105280000F4B2DE9F0411C6806460F469046A4B12D
:105290004FF0FF324FF0FF330A481BF0DFFA63682C
:1052A0003A469D68314643462046A847044605488D
:1052B0001BF0A8FB2046BDE8F0816FF00104F9E780
:1052C0006C1A0020800D002000230360044B5A68F4
:1052D00012B9C3E90000704710605860704700BF02
:1052E000641A0020014B1860704700BF6C1A002040
:1052F00030B585B000230546CDE9023301904FF06B
:10530000FF334FF0FF320B481BF0A8FA0A4B1C6822
:1053100034B1636820461B6801A998472468F7E701
:10532000284600F0CBF8044602481BF06BFB2046F1
:1053300005B030BD800D0020641A00201FB5CDE9F6
:10534000010103924FF0FF334FF0FF3209481BF089
:1053500085FA094B1C6834B1636820461B6801A9B3
:1053600098472468F7E703481BF04CFB002004B083
:1053700010BD00BF800D0020641A0020024B0022E7
:10538000C3E90022704700BF641A0020024B0022CC
:10539000C3E90022FFF7F2BF701A00202DE9F3479E
:1053A00007460E4609B100230B60DFF89880224CB7
:1053B000DFF894900025C246444508D949461F4865
:1053C00094221EF03BFF942148461FF0E9F9544512
:1053D00008D31B4B1C680CB1143CC4B9284602B05E
:1053E000BDE8F08701AA216838461FF06BFB60B169
:1053F00025B90EB1019B3360254606E000222968DD
:1054000020681FF05FFB0028F3D11434D4E701AA11
:10541000216838461FF056FB60B125B90EB1019BDB
:105420003360254606E00022296820681FF04AFB09
:105430000028F3D16469CEE768A70200EDBC020042
:10544000701A0020BCA80200DFBF02002DE9F04363
:1054500085B005460C9C03900E4617469846B4B19D
:10546000216879B103AA1FF02DFB58B9002006E08E
:10547000A36800933A46434631460398C84705B0AF
:10548000BDE8F083D4F80490B9F1000FF0D103A97E
:105490002846FFF783FF0028E8D084680398434636
:1054A0003A463146A04703460028DFD02A46452128
:1054B00001481EF0C3FED9E7B5BF02002DE9F8434D
:1054C0001F4F204CDFF8888006460025B946BC42B5
:1054D00008D941461C48F4221EF0B0FEF421404693
:1054E0001FF05EF94C4507D3184B1C680CB1143CF7
:1054F000A4B92846BDE8F8831EB9E3684BB9143453
:10550000E5E70022314620681FF0DCFA0028F4D1DC
:10551000F5E79847002D08BF0546F0E71EB9E36898
:105520004BB96469E2E70022314620681FF0CAFAED
:105530000028F4D1F5E79847002D08BF0546F0E7AD
:10554000BCA8020068A70200EDBC0200701A00208F
:10555000DFBF020010B5064C23783BB9FFF716FFFA
:1055600000F064F808B90123237010BD0020FCE7A7
:10557000433500202DE9F047048FDFF8AC9001346B
:1055800098B080468A46A4B200F10806651EADB206
:10559000B5F5004F45D04A2305AA294630461FF0ED
:1055A00063FA04F57F543F34A4B207462146012331
:1055B0000DF10B0230461FF057FA002F014603DCB5
:1055C000002803DC2C46E1E7002816DCB8F8383068
:1055D000AB4209D142466B1E22F8383F4FF40041DE
:1055E00002233046FFF7C6FC294630461FF038FA42
:1055F000214630461FF034FAE4E718AB1F4400237D
:1056000007F84C3C4A46CDF800A003AB05A803962A
:10561000ADF81040FFF71AFF0028D3D018B0BDE84E
:10562000F0870020FAE700BF314B02007FB501236D
:10563000694603200193FFF7E7FD0446002837D1B0
:1056400002AA01A90320FFF7F3FD10F1130F04468E
:105650002ED040B110F10C0405D0404080F31188E9
:105660004FF0040002DF0399B1F5803F23D2009A86
:10567000002395681846084485429CB203D3013341
:10568000082BF8D11C460D4D5368AB602846D368F3
:10569000EC82A982EB631FF0E2FA044640B9084E9F
:1056A0006E602846FFF710FE28466E60FFF71AFE70
:1056B000204604B070BD6FF02404F9E7781A00208A
:1056C00010050020F8B506464FF02003EFF31185D2
:1056D00083F31188BFF36F8F18481CF0CDFD40B9DC
:1056E000174918487C221EF0A9FD7C2114481FF0A0
:1056F00057F812481CF0DEFD134B1C6864B1134FC1
:10570000D4E90132002E08BF134613B197F9000007
:1057100098472468002CF3D108481CF0BBFD40B921
:1057200007490848A7221EF089FDA72104481FF059
:1057300037F885F31188BFF36F8FF8BDB81A0020D2
:1057400001BE0200EDBC0200BC1A0020443500205E
:10575000F8B5144F97F90040A21C02D11FF09BFA34
:105760000446114D631C2C701AD0104E00230120EA
:105770003360FFF7A7FF0CB90D4B1C7095F90000C3
:1057800020F041FD306848B901233360FE233B70AF
:10579000FFF798FF95F9000020F040FD95F90040D3
:1057A0002046F8BD260C00204435002020050020AE
:1057B000F336002010B5041E08DD0A490A482D22E0
:1057C0001EF03CFD2D2107481EF0EAFFBFF35B8F62
:1057D000064B53F82400BFF35B8FB0FA80F040090A
:1057E00010BD00BF17C00200EDBC0200C41A0020AB
:1057F00008B504464FF02002EFF3118382F31188BD
:10580000BFF36F8F1FF0E3FA204601F011FB03484E
:105810001EF014FD00F0ECFEFCE700BF41C00200EA
:105820002DE9F0410E4C051BC5F347130C255D43D4
:10583000074605F148000E46204440211FF039FA82
:10584000011E08DB074B2C44C4E91036064B5B599C
:10585000BDE8F041184738463346BDE8F0411847E7
:10586000D81A0020154D0200E0AC020038B5CCB2C9
:10587000012C054608D9084908487E221EF0DEFCA6
:105880007E2105481EF08CFFEB680C2104FB0131E2
:10589000886C00F0070038BD6AC00200EDBC020051
:1058A000F8B5CCB2012C05461746C6680AD9184986
:1058B000184840F253121EF0C1FC40F25311144834
:1058C0001EF06EFF4FF02003EFF3118183F3118878
:1058D000BFF36F8F0C2303FB0462926C12F0C002C3
:1058E00001D0974211D103FB046301229A64002086
:1058F00081F31188BFF36F8F30B96B680C2202FB04
:105900000434636898470020F8BD4FF0FF30EFE79C
:105910006AC00200EDBC020070B50D460649411A8E
:105920000446491140220548FFF7BAFF2B460146BD
:105930002046BDE870401847D81A0020400C0020CF
:10594000002270B501210446104600F0C5FD00207C
:1059500000F090FD0F4819F025FF0F4B984215D12C
:1059600019F040FFE6680D4930461EF0C2FC0028E1
:105970000BDB0125B564E468084904F120001EF042
:10598000B8FC002801DB6565002070BD6FF00400E5
:10599000FBE700BFD55900000000AD0BF8AC0200DA
:1059A00001460C2309484B4370B5C418D4E910567E
:1059B00000224833226418441FF099F92DB1324671
:1059C0002B460348BDE87040184770BDD81A002028
:1059D000400C0020012808B510D050B1032811D088
:1059E0000F49104840F26A221EF028FC40F26A215A
:1059F00010E00D4B986C10F0070010D1BDE8084086
:105A0000FFF7CEBF0649074840F266221EF016FC9B
:105A100040F266210248BDE808401EF0C1BE08BD44
:105A20006AC00200EDBC0200D81A002008B54FF091
:105A30002003EFF3118183F31188BFF36F8F124AB4
:105A4000136843F0020013F0010310600CD04FF014
:105A50008042D2F80C34D2F80C2413F0010303D0A6
:105A60000A481FF044F9012381F31188BFF36F8FB7
:105A700023B10020BDE80840FFF792BF0120BDE838
:105A8000084019F0CBBE00BF301B0020201B0020B7
:105A9000094BBFF35B8F53E8002F22F0020143E86C
:105AA00000100028F7D1BFF35B8FD30702D4012089
:105AB00019F002BF704700BF301B00207FB50022E5
:105AC0000123CDE9022304ABCDE90433094ACDF823
:105AD00000D06B46CDF804D01FF02EF9002805DB6E
:105AE0004FF48042002368461CF00CFA07B05DF8C2
:105AF00004FB00BF334D0200024BC0B203EB401069
:105B0000704700BFD81A0020094BBFF35B8F53E8E2
:105B1000002F42F0010143E800100028F7D1BFF345
:105B20005B8F930702D4012019F078BE704700BF45
:105B3000301B0020094BBFF35B8F53E8002F22F08E
:105B4000010143E800100028F7D1BFF35B8F9307F2
:105B500002D4012019F0B0BE704700BF301B0020F6
:105B60002DE9F8434749BFF35B8F0546012251E811
:105B7000003F41E800200028F9D1BFF35B8F9BB9BB
:105B8000414942484B60CB608A60FEF70BFA00281F
:105B90000ADA3F493F4840F226221EF04FFB40F20E
:105BA00026213B481EF0FCFD95B3022D54D8012D53
:105BB00007D14FF08043D3F81C3403F00303012BCB
:105BC00026D024F098FB18B9334B1B78002B50D10A
:105BD0004FF02003EFF3118983F31188BFF36F8F28
:105BE00001242E4E2E4FDFF8BC804FF08042D2F8B9
:105BF0001834D2F81824D2030CD503F00303012B78
:105C000001D0012D06D10CB389F31188BFF36F8F3A
:105C1000BDE8F883ACB1484600F0F8FC4FF0804294
:105C2000D2F81835002BE0D131680029DDD033607F
:105C300033680123C2F81835C7F88031C8F800303E
:105C4000D3E7002121201CF0CFF8E7E74FF0804395
:105C50000222C3F80423DBE70D490E484FF40E720D
:105C60001EF0ECFA4FF40E710948BDE8F8431EF03F
:105C700097BD4FF080430222C3F8082304468146B3
:105C8000AFE700BF341B0020C81A0020F81A00201C
:105C90006AC00200EDBC0200F4360020040100409E
:105CA00000E100E00800004010B5064C064821461F
:105CB00017221EF0C3FA20461721BDE810401EF03F
:105CC0006FBD00BFD1C00200EDBC0200044A1368E2
:105CD000C91A21F07F40034413601CF02FBE00BF9F
:105CE000441B00202DE9F84F850005F1804500F1A7
:105CF000500405F58835A400A4B2DFF87C80D5F8FF
:105D00004025DFF878A004F180444FF4803721F07B
:105D10007F4604F588348740C146D8F804B5A2EB25
:105D20000B0222F07F422BF07F43012AC5F8403559
:105D300002D1132024F0E5FA0BF10202B31A23F08A
:105D40007F43534528BF1646002323602368C9F8C4
:105D5000447326F07F43C5F84035D9F804359B4598
:105D600007D0F31A023B23F07F43B3F5000F32460E
:105D7000D3D8BDE8F88F00BF0010014001008000BB
:105D8000F8B5104E104F0025104B00201C681A4625
:105D900005B1F8BDD6F80413C903FAD5396800294E
:105DA000F7D03D6039684FF48031C6F84813D6F813
:105DB000401501251CB118605A68A047E4E714603B
:105DC000E7E700BF0010014040110140381B0020F0
:105DD00038B5104D00244FF48033C5F80845C5F898
:105DE00004330D4B4FF40032C3F8802101212246C9
:105DF000112000F071FB112000F03CFB074A012349
:105E00001360074A2B6002201360FFF7A9FE2046AB
:105E100038BD00BF0010014000E100E00810014063
:105E2000401B0020134BB0F1FF3F08BF184601385C
:105E300000281CDD9842A8BF18460F4BD3F8042554
:105E40000E4B1968521A12F4000F22F07F4318BF4C
:105E500000200B4A013303440A48106000205060C0
:105E6000044A934294BFC9188918FFF73BBF00202A
:105E7000E3E700BFFFFF7F0000100140441B00204C
:105E8000381B0020CD5C000038B54FF02003EFF345
:105E9000118583F31188BFF36F8F15481CF0ECF95F
:105EA00040B9144914487C221EF0C8F97C211148DD
:105EB0001EF076FC0E481CF0FDF9104B0C48D3F890
:105EC00004450F4B1B68E41A24F07F441CF0E2F9F0
:105ED00040B908490848A7221EF0B0F9A721054893
:105EE0001EF05EFC85F31188BFF36F8F204638BD2E
:105EF000481B002001BE0200EDBC02000010014062
:105F0000441B002001481DF0A9B900BF04AD0200E8
:105F100008B5D0B14368042B11D100220368BFF348
:105F20005B8F53E8001F012903D143E800200028BC
:105F3000F7D1BFF35B8F074808BF104608BD3BB1E0
:105F400000681AF05FFD0020F8E76FF4E040F5E725
:105F50000148F3E7E98FFFFFEA8FFFFF10B5044622
:105F600018B90D4B0D485B689847616808290DD03A
:105F700031F004030AD011F0020108D0214608488C
:105F80001AF01EFC002323600023636010BD14225E
:105F9000206820F00FF9F7E71C0B002034C1020045
:105FA0004C1B002010B5044618B9164B16485B6808
:105FB00098476368042B23D0082B21D0CBB92368E2
:105FC000BBB94FF0FF324FF0FF3321460F481AF0B4
:105FD0009DFB08B923681BB90A4B0D485B689847BD
:105FE00014220021206820F0E5F8636843F00203E2
:105FF0006360206824F0F6F8636843F0010363608F
:1060000010BD00BF1C0B002034C102004C1B00203F
:106010005AC1020008B5F8B14368042B10D101221F
:106020000368BFF35B8F53E8001F002903D143E8E7
:1060300000200028F7D1BFF35B8F0BD1002008BDF3
:106040006BB100684FF0FF324FF0FF331AF006FCDF
:106050000028F3D00348F2E76FF4E040EFE702488E
:10606000EDE700BFE98FFFFFEA8FFFFF08B50649A4
:1060700006484023142224F09AF805490548BDE853
:1060800008401DF069B900BF681B00204C1B0020B0
:106090001CAD02000CAD0200014B1868704700BF38
:1060A00044050020F0B5082289B00C4606461FF0D2
:1060B00051F8CB6A03930B6B04934B6B05938B6B7B
:1060C0000693CB6B0793002708236A466946684608
:1060D000CDE9017700971EF042FF082305466A4686
:1060E000314630461EF03BFF236B0393636B0493F2
:1060F000A36B0593E36B0544CDE906376A46082395
:10610000694668461EF02BFF3146054408236A465F
:1061100030461EF024FF236A0093636A0193A36A4A
:106120000293A36B0693E36B0793054408236A4627
:106130003046CDE9047703971EF011FF636A0093A0
:10614000A36AA26B0193E36A02930492636BE26B0E
:106150000393CDE90523236A0793054408236A4680
:1061600030461EF0FCFEE36A0093236B0193636BE1
:106170000293236A0693A36A0793054408236A4699
:106180003046CDE9047703971FF01AF8236B00938C
:10619000636B0193A36B0293E36B0393636A0693B0
:1061A000E36A07932D1A08236A463046CDE904773F
:1061B0001FF006F8636B0093A36B0193E36B0293EC
:1061C000236A0393636A0493A36ACDE90537236BBB
:1061D00007932D1A08236A4630461EF0F1FFA36B81
:1061E0000093E36BCDE90137636A0393A36A0493D9
:1061F000E36ACDE90537636B07932D1A08236A46D6
:1062000030461EF0DDFF2D1A0D4C0FD435B9082293
:10621000314620461EF0AAFF01280FD0082322464F
:10622000314630461EF0CCFF2D1AEFE708232246F8
:10623000314630461EF093FE2D18F7D409B0F0BD5C
:1062400034AD0200F0B5284E07460C460FCE8DB097
:1062500001AD0FC50FCE0FC596E8070085E8070012
:10626000002F3CD0002C3CD0381F21460246103471
:106270004B780D781B0443EA0563CD782B438D786A
:10628000043143EA05238C4242F8043FF0D1174C15
:1062900004218A07036918D14FEA33631A0EA55CFB
:1062A000DAB2A25C42EA0562C3F30745C3F30723EF
:1062B000655DE35C42EA054242EA03220CAD21F04F
:1062C00003032B4453F82C3C534050F8042F013166
:1062D00053402C290361DCD101200DB0F0BD3846BC
:1062E000FBE72046F9E700BFF0AA020087C10200E1
:1062F0002DE9F043154689B00746002859D00029FA
:106300005AD0002A5AD010230A46684619461EF071
:1063100062FD29466846DFF8A8901FF068FC05F189
:106320001006C846A0356C466A4610231178013B1A
:1063300019F8011002F8011BF8D168461FF09CFC07
:10634000694604A81FF0D1FC01A905A81FF0CDFCE7
:1063500002A906A81FF0C9FC03A907A81FF0C5FCE5
:10636000102319460DEB030268461EF034FD31463A
:10637000684610361FF03BFCAE42D4D1102623787D
:10638000013E18F8033004F8013BF8D168461FF0CD
:1063900073FC294668461FF02AFC102319466A46FA
:1063A00038461EF018FD6846102231461EF020FDCA
:1063B000012009B0BDE8F0830846FAE71046F8E787
:1063C00087C102000A4A0B4993680968C3F888101C
:1063D0000949C3F884004B6843F080534B600023A5
:1063E00083F31188BFF36F8F9368D3F888007047E9
:1063F00090340020D8B7020000ED00E013498A680D
:106400004FF040001044EFF3098C80E8F01F20208B
:1064100080F31188BFF36F8F0D4F4FF000668A6ACB
:106420008A603E60D2F884000023C2F8843080F392
:10643000118804B5104600F0C5FBBDE8044002F128
:10644000400090E8F01F8CF30988704790340020DA
:1064500004ED00E01EF0040F0CBFEFF30880EFF333
:106460000980816911F8021C0229FFD001B51FF0D3
:106470007DFD01BD43B2002B08DB012200F01F00AF
:1064800002FA00F05B09024A42F82300704700BF9D
:1064900000E100E043B2002B0DDB01225B0900F0BC
:1064A0001F0002FA00F02033034A42F82300BFF332
:1064B0004F8FBFF36F8F704700E100E04209054B3B
:1064C00000F01F0053F82220012303FA00F01040CF
:1064D000704700BF00E100E038B54C1C072C0546B2
:1064E00008D90E490E485F221DF0A8FE5F210B4817
:1064F0001EF056F96BB2002BA8BF03F160434FEAC0
:106500004414BCBF05F00F05064BE4B2AABF03F567
:1065100061435C5583F8004338BD00BF87C2020069
:10652000EDBC020014ED00E008B572B6044B586AE9
:1065300018B100225A6223F030FE62B608BD00BFD7
:106540009034002042F8203C009B42F81C3C0A4951
:10655000019B42F8183C029B42F8143C21F00101D7
:106560004FF0807342F8043C42F8081C0023203AA4
:106570000266C0F884307047194302000B4B024694
:10658000986890B112F1160F406F05D0A0F120036A
:10659000934206D8824204D281422CBF00210121BD
:1065A00000E00021002908BF00207047903400203F
:1065B00008B504460E46154600F0F8FA084B20468A
:1065C0009C6000F0FFFA284686F30988002163B634
:1065D00081F31188BFF36F8F002200231DF09CFE12
:1065E00090340020014910220A60704710ED00E04D
:1065F00072B6404080F31188BFF36F8FBFF34F8FA7
:1066000030BF62B6BFF36F8F704700BF72B64940AC
:1066100081F3118820BF80F3118862B6704700BFF4
:1066200037B505460C46C9B18B680093D1E9002304
:106630000E4845211DF002FE63690093D4E903234F
:1066400045210B481DF0FAFDE2690A4845211DF07D
:10665000F5FDA269084845211DF0F0FD21462846B8
:1066600003B0BDE8304019F0E5BD00BFBDC2020077
:10667000F1C2020025C3020039C3020030BFFFF798
:10668000FDBF00BF0E4A08B50E4B22F07F029A6094
:10669000BFF34F8FBFF36F8FD3F8882022F47002BF
:1066A000C3F88820EFF3148323F0040383F31488E2
:1066B00019F05CFE1BF004FF00F04AFA19F07AFEB4
:1066C0000010000000ED00E001B572B60B4A506A00
:1066D00000281EBF0021516223F05FFD62B6EFF378
:1066E0000580A0F110004FEAC0000549014409C926
:1066F0009847BDE801400349084700009034002056
:10670000A4A50200356B00001FF07BFD202080F364
:10671000118808484FF40261401880F30988EFF3AC
:1067200014800221084380F31488BFF36F8FFFF7B2
:10673000A9FF0000C0500020EFF30880EFF30981AB
:1067400001B5724600F02CF901BD00BF2DE9F04102
:10675000364C054688463648452116461DF06EFDE6
:10676000A26AD70603D5452132481DF067FDA36A0A
:10677000180703D5452130481DF060FD2B4CA36A56
:10678000990722D46FF01507284CA26AD30703D5C6
:1067900045212A481DF052FDA36A9C0603D54521D8
:1067A00027481DF04BFD214CA36AD80622D4A36ACA
:1067B00099071FD400251D4A936A43F0FF03936293
:1067C000002333702846BDE8F08145211D481DF0A7
:1067D00035FD676BA36A1A06D4D53A4645211A4897
:1067E0001DF02CFDB8F1000FCED0A36A23F080037A
:1067F000A362C9E763681A05DCD529463846FFF766
:10680000BDFE054618B180F309880225D3E7A36AC7
:10681000DB06CFD54FF4A1720C490D481DF00EFDDB
:106820004FF4A17109481DF0BBFFC4E700ED00E083
:1068300012C402002DC4020065C40200B5C40200E7
:10684000D9C402007DC402009AC402000DC5020032
:10685000EDBC020070B5234C06460D46224845218A
:106860001DF0ECFCA26AD10403D545211F481DF0A0
:10687000E5FCA36A1A0503D545211D481DF0DEFC81
:10688000184CA36A9B0510D51A4845211DF0D6FC6B
:10689000A26BA36A180408D5452117481DF0CEFC49
:1068A0001EB1A36A23F40043A3620E4CA36A5905E8
:1068B00003D5452111481DF0C1FCA36ADA050BD5AB
:1068C0000F4845211DF0BAFC064A936A002043F4A4
:1068D0007F439362287070BDA36A9B04F4D5452161
:1068E0000848EFE700ED00E06CC3020087C3020038
:1068F00065C402009DC30200BBC30200D5C30200F1
:10690000F5C30200D9C4020010B51D4C1D48452135
:106910001DF094FCA26A930103D545211A481DF08D
:106920008DFCA36ADC0103D5452118481DF086FCC7
:10693000134CA26A100303D5452115481DF07EFCB7
:10694000A36A590303D5452112481DF077FC0C4C6E
:10695000A26A920303D545210F481DF06FFCA36A7C
:10696000DB0303D545210D481DF068FC044A936AFA
:106970006FEA03436FEA13439362002010BD00BF28
:1069800000ED00E047C5020064C502007CC50200BE
:106990009BC50200BEC50200E8C5020007C6020092
:1069A0002DE9F041514BD3F804808AB0C8F30807B1
:1069B000002585F31188BFF36F8F02F07F43B3F199
:1069C0007F4F07D102F00C03082B10D14521484816
:1069D0001DF034FC40F2C532464947481DF02EFCFC
:1069E00040F2C53143481DF0DBFE002606E01207E9
:1069F0004EBF0E4606460125002EEBD00023FA1EA0
:106A00008DF807301C461346092B5CD8DFE803F0ED
:106A1000055054345B5B5B5B5B58452137481DF088
:106A20000DFC324B8DF80740DC6A14F0020405D0EF
:106A3000334845211DF002FC002420E0DB6A5B00A6
:106A40001DD545212F481DF0F9FB2F4B1B7833B185
:106A50000DF1070201213046FFF778FE0EE02B4BC7
:106A60001B782BB10DF107010120FFF7F3FE05E0C4
:106A7000274B1B889BB213B1FFF746FF04469DF8D6
:106A8000073093B92022314602A81FF069FB099B09
:106A900035B3C3F3080222B96FEA53236FEA4323E5
:106AA000099302A92046FFF7BBFD0AB0BDE8F081BB
:106AB0000DF107020021CEE70DF107010020D4E718
:106AC00045211448B6E71449144A154818F4F87FCC
:106AD00008BF0A46A7F1100345211DF0AFFBABE745
