:10000000E06A00202D660000AFEE02005D66000091
:100010005D6600005D6600005D6600000000000097
:1000200000000000000000000000000079630000F4
:100030005D66000000000000216300006D5B0000B1
:10004000ED65000037340300ED650000ED6500004C
:10005000ED650000ED650000ED650000ED65000058
:10006000ED650000ED650000ED650000ED65000048
:10007000ED650000ED650000ED650000ED65000038
:10008000ED650000ED650000ED650000ED65000028
:10009000ED650000ED650000ED650000ED65000018
:1000A000ED650000ED650000ED650000ED65000008
:1000B000ED650000ED650000ED650000ED650000F8
:1000C000ED650000ED650000ED650000ED650000E8
:1000D000ED650000ED650000ED650000ED650000D8
:1000E000ED650000ED650000ED650000ED650000C8
:1000F000ED650000ED650000ED650000ED650000B8
:1001000001F0FF01102A2BDB10F0070F08D010F8C8
:10011000013B013A8B422DD010F0070F42B3F6D1CC
:10012000F0B441EA012141EA014122F007047FF0E5
:1001300000070023F0E80256083C85EA010586EA3C
:10014000010685FA47F5A3FA87F586FA47F6A5FA78
:1001500087F68EB9EED1F0BC01F0FF0102F0070284
:1001600032B110F8013B013A83EA010313B1F8D12F
:100170000020704701387047002D06BF3546033810
:10018000073815F0010F07D1013015F4807F02BF49
:10019000013015F4C03F0130F0BC0138704700BF9A
:1001A00081F0004102E000BF83F0004330B54FEA28
:1001B00041044FEA430594EA050F08BF90EA020F95
:1001C0001FBF54EA000C55EA020C7FEA645C7FEA28
:1001D000655C00F0E2804FEA5454D4EB5555B8BF4B
:1001E0006D420CDD2C4480EA020281EA030382EABC
:1001F000000083EA010180EA020281EA0303362D4E
:1002000088BF30BD11F0004F4FEA01314FF4801C20
:100210004CEA113102D0404261EB410113F0004F32
:100220004FEA03334CEA133302D0524263EB4303E9
:1002300094EA050F00F0A780A4F10104D5F1200E87
:100240000DDB02FA0EFC22FA05F2801841F10001E2
:1002500003FA0EF2801843FA05F359410EE0A5F1B6
:1002600020050EF1200E012A03FA0EFC28BF4CF0E7
:10027000020C43FA05F3C01851EBE37101F000459D
:1002800007D54FF0000EDCF1000C7EEB00006EEBAA
:100290000101B1F5801F1BD3B1F5001F0CD3490834
:1002A0005FEA30004FEA3C0C04F101044FEA44528B
:1002B00012F5800F80F09A80BCF1004F08BF5FEA12
:1002C000500C50F1000041EB045141EA050130BDF2
:1002D0005FEA4C0C404141EB010111F4801FA4F195
:1002E0000104E9D191F0000F04BF01460020B1FAEA
:1002F00081F308BF2033A3F10B03B3F120020CDA22
:100300000C3208DD02F1140CC2F10C0201FA0CF0FF
:1003100021FA02F10CE002F11402D8BFC2F1200C64
:1003200001FA02F120FA0CFCDCBF41EA0C0190401A
:10033000E41AA2BF01EB0451294330BD6FEA040463
:100340001F3C1CDA0C340EDC04F11404C4F120024E
:1003500020FA04F001FA02F340EA030021FA04F360
:1003600045EA030130BDC4F10C04C4F1200220FAB7
:1003700002F001FA04F340EA0300294630BD21FAF5
:1003800004F0294630BD94F0000F83F4801306BFBB
:1003900081F480110134013D4EE77FEA645C18BFAF
:1003A0007FEA655C29D094EA050F08BF90EA020F46
:1003B00005D054EA000C04BF1946104630BD91EA3E
:1003C000030F1EBF0021002030BD5FEA545C05D141
:1003D0004000494128BF41F0004130BD14F5800480
:1003E0003CBF01F5801130BD01F0004545F0FE41F4
:1003F00041F470014FF0000030BD7FEA645C1ABF29
:10040000194610467FEA655C1CBF0B46024650EA5F
:10041000013406BF52EA033591EA030F41F400218B
:1004200030BD00BF90F0000F04BF0021704730B511
:100430004FF4806404F132044FF000054FF00001E6
:1004400050E700BF90F0000F04BF0021704730B5A7
:100450004FF4806404F1320410F0004548BF40427C
:100460004FF000013EE700BF42004FEAE2014FEAD1
:1004700031014FEA02701FBF12F07F4393F07F4FAC
:1004800081F06051704732F07F4208BF704793F0AF
:100490007F4F04BF41F40021704730B54FF46074C2
:1004A00001F0004521F000411CE700BF50EA0102C5
:1004B00008BF704730B54FF000050AE050EA01026E
:1004C00008BF704730B511F0004502D5404261EBDE
:1004D00041014FF4806404F132045FEA915C3FF41F
:1004E000D8AE4FF003025FEADC0C18BF03325FEABC
:1004F000DC0C18BF033202EBDC02C2F1200300FA6D
:1005000003FC20FA02F001FA03FE40EA0E0021FA91
:1005100002F11444BDE600BF70B54FF0FF0C4CF47F
:10052000E06C1CEA11541DBF1CEA135594EA0C0F31
:1005300095EA0C0F00F0DEF82C4481EA030621EA6C
:100540004C5123EA4C5350EA013518BF52EA0335A7
:1005500041F4801143F4801338D0A0FB02CE4FF059
:100560000005E1FB02E506F00042E0FB03E54FF089
:100570000006E1FB03569CF0000F18BF4EF0010E81
:10058000A4F1FF04B6F5007F64F5407404D25FEA7D
:100590004E0E6D4146EB060642EAC62141EA555130
:1005A0004FEAC52040EA5E504FEACE2EB4F1FD0C72
:1005B00088BFBCF5E06F1ED8BEF1004F08BF5FEAF0
:1005C000500E50F1000041EB045170BD06F00046A2
:1005D00046EA010140EA020081EA0301B4EB5C044F
:1005E000C2BFD4EB0C0541EA045170BD41F4801147
:1005F0004FF0000E013C00F3AB8014F1360FDEBF6C
:10060000002001F0004170BDC4F10004203C35DA47
:100610000C341BDC04F11404C4F1200500FA05F3CA
:1006200020FA04F001FA05F240EA020001F000426B
:1006300021F0004110EBD37021FA04F642EB0601E1
:100640005EEA430E08BF20EAD37070BDC4F10C040B
:10065000C4F1200500FA04F320FA05F001FA04F2CF
:1006600040EA020001F0004110EBD37041F10001BB
:100670005EEA430E08BF20EAD37070BDC4F12005C6
:1006800000FA05F24EEA020E20FA04F301FA05F22E
:1006900043EA020321FA04F001F0004121FA04F2D6
:1006A00020EA020000EBD3705EEA430E08BF20EAA6
:1006B000D37070BD94F0000F0FD101F000464000E0
:1006C00041EB010111F4801F08BF013CF7D041EA62
:1006D000060195F0000F18BF704703F00046520066
:1006E00043EB030313F4801F08BF013DF7D043EA37
:1006F0000603704794EA0C0F0CEA135518BF95EAED
:100700000C0F0CD050EA410618BF52EA4306D1D173
:1007100081EA030101F000414FF0000070BD50EA92
:10072000410606BF1046194652EA430619D094EA1C
:100730000C0F02D150EA013613D195EA0C0F05D106
:1007400052EA03361CBF104619460AD181EA03015A
:1007500001F0004141F0FE4141F470014FF0000012
:1007600070BD41F0FE4141F4780170BD70B54FF0AD
:10077000FF0C4CF4E06C1CEA11541DBF1CEA13552D
:1007800094EA0C0F95EA0C0F00F0A7F8A4EB05040F
:1007900081EA030E52EA03354FEA013100F0888006
:1007A0004FEA03334FF0805545EA131343EA1263CF
:1007B0004FEA022245EA111545EA10654FEA002684
:1007C0000EF000419D4208BF964244F1FD0404F53D
:1007D000407402D25B084FEA3202B61A65EB030599
:1007E0005B084FEA32024FF480104FF4002CB6EB56
:1007F000020E75EB030E22BFB61A754640EA0C00D6
:100800005B084FEA3202B6EB020E75EB030E22BF15
:10081000B61A754640EA5C005B084FEA3202B6EB56
:10082000020E75EB030E22BFB61A754640EA9C0015
:100830005B084FEA3202B6EB020E75EB030E22BFE5
:10084000B61A754640EADC0055EA060E18D04FEAA3
:10085000051545EA16754FEA06164FEAC30343EA43
:1008600052734FEAC2025FEA1C1CC0D111F4801F10
:100870000BD141EA00014FF000004FF0004CB6E709
:1008800011F4801F04BF01430020B4F1FD0C88BFA8
:10089000BCF5E06F3FF6AFAEB5EB030C04BFB6EBB3
:1008A000020C5FEA500C50F1000041EB045170BDA6
:1008B0000EF0004E4EEA113114EB5C04C2BFD4EBD3
:1008C0000C0541EA045170BD41F480114FF0000E57
:1008D000013C90E645EA060E8DE60CEA135594EAD3
:1008E0000C0F08BF95EA0C0F3FF43BAF94EA0C0FD6
:1008F0000AD150EA01347FF434AF95EA0C0F7FF44B
:1009000025AF104619462CE795EA0C0F06D152EA9E
:1009100003353FF4FDAE1046194622E750EA410682
:1009200018BF52EA43067FF4C5AE50EA41047FF493
:100930000DAF52EA43057FF4EBAE12E74FF0FF3CF8
:1009400006E000BF4FF0010C02E000BF4FF0010CC9
:100950004DF804CD4FEA410C7FEA6C5C4FEA430C42
:1009600018BF7FEA6C5C1BD001B050EA410C0CBF91
:1009700052EA430C91EA030F02BF90EA020F0020F3
:10098000704710F1000F91EA030F58BF994208BF5A
:1009900090422CBFD8176FEAE37040F00100704717
:1009A0004FEA410C7FEA6C5C02D150EA013C07D16E
:1009B0004FEA430C7FEA6C5CD6D152EA033CD3D0B9
:1009C0005DF8040B704700BF8446104662468C46B3
:1009D0001946634600E000BF01B5FFF7B7FF0028E6
:1009E00048BF10F1000F01BD4DF808EDFFF7F4FF0F
:1009F0000CBF012000205DF808FB00BF4DF808ED9A
:100A0000FFF7EAFF34BF012000205DF808FB00BFBC
:100A10004DF808EDFFF7E0FF94BF012000205DF8DE
:100A200008FB00BF4DF808EDFFF7CEFF94BF012093
:100A300000205DF808FB00BF4DF808EDFFF7C4FF8C
:100A400034BF012000205DF808FB00BF4FEA4102DF
:100A500012F5001215D211D56FF47873B3EB625210
:100A600012D94FEAC12343F0004343EA505311F037
:100A7000004F23FA02F018BF404270474FF00000C9
:100A8000704750EA013005D111F0004008BF6FF007
:100A9000004070474FF00000704700BF4A0011D27D
:100AA00012F5001211D20DD56FF47873B3EB6252C8
:100AB0000ED44FEAC12343F0004343EA505323FAD4
:100AC00002F070474FF00000704750EA013002D149
:100AD0004FF0FF3070474FF00000704780F000404B
:100AE00002E000BF81F0004142001FBF5FEA410306
:100AF00092EA030F7FEA226C7FEA236C6AD04FEA06
:100B00001262D2EB1363C1BFD2184140484041404A
:100B1000B8BF5B42192B88BF704710F0004F40F4FC
:100B2000000020F07F4018BF404211F0004F41F418
:100B3000000121F07F4118BF494292EA030F3FD0E4
:100B4000A2F1010241FA03FC10EB0C00C3F12003F7
:100B500001FA03F100F0004302D5494260EB400086
:100B6000B0F5000F13D3B0F1807F06D340084FEAF1
:100B7000310102F10102FE2A51D2B1F1004F40EBE6
:100B8000C25008BF20F0010040EA0300704749004E
:100B900040EB000010F4000FA2F10102EDD1B0FA19
:100BA00080FCACF1080CB2EB0C0200FA0CF0AABF0E
:100BB00000EBC25052421843BCBFD04018437047AC
:100BC00092F0000F81F4000106BF80F400000132B2
:100BD000013BB5E74FEA41037FEA226C18BF7FEA89
:100BE000236C21D092EA030F04D092F0000F08BFCB
:100BF0000846704790EA010F1CBF0020704712F0B2
:100C00007F4F04D1400028BF40F00040704712F1F0
:100C100000723CBF00F50000704700F0004343F055
:100C2000FE4040F4000070477FEA226216BF08468B
:100C30007FEA23630146420206BF5FEA412390EA4E
:100C4000010F40F4800070474FF0000304E000BF44
:100C500010F0004348BF40425FEA000C08BF7047F5
:100C600043F0964301464FF000001CE050EA0102B9
:100C700008BF70474FF000030AE000BF50EA0102CE
:100C800008BF704711F0004302D5404261EB4101BB
:100C90005FEA010C02BF84460146002043F0B643E0
:100CA00008BFA3F18053A3F50003BCFA8CF2083A05
:100CB000A3EBC25310DB01FA02FC634400FA02FC0E
:100CC000C2F12002BCF1004F20FA02F243EB020015
:100CD00008BF20F00100704702F1200201FA02FC77
:100CE000C2F1200250EA4C0021FA02F243EB02006A
:100CF00008BF20EADC7070474FF0FF0C1CEAD052AE
:100D00001EBF1CEAD15392EA0C0F93EA0C0F6FD06E
:100D10001A4480EA010C400218BF5FEA41211ED04C
:100D20004FF0006343EA501043EA5111A0FB013138
:100D30000CF00040B1F5000F3EBF490041EAD3710D
:100D40005B0040EA010062F17F02FD2A1DD8B3F189
:100D5000004F40EBC25008BF20F00100704790F0F8
:100D6000000F0CF0004C08BF49024CEA502040EA4A
:100D700051207F3AC2BFD2F1FF0340EAC250704710
:100D800040F400004FF00003013A5DDC12F1190F4E
:100D9000DCBF00F000407047C2F10002410021FAC0
:100DA00002F1C2F1200200FA02FC5FEA310040F1D8
:100DB000000053EA4C0308BF20EADC70704792F051
:100DC000000F00F0004C02BF400010F4000F013A89
:100DD000F9D040EA0C0093F0000F01F0004C02BF84
:100DE000490011F4000F013BF9D041EA0C018FE7F3
:100DF0000CEAD15392EA0C0F18BF93EA0C0F0AD0F9
:100E000030F0004C18BF31F0004CD8D180EA01001E
:100E100000F00040704790F0000F17BF90F0004FB7
:100E2000084691F0000F91F0004F14D092EA0C0F99
:100E300001D142020FD193EA0C0F03D14B0218BF2C
:100E4000084608D180EA010000F0004040F0FE4072
:100E500040F40000704740F0FE4040F4400070470E
:100E60004FF0FF0C1CEAD0521EBF1CEAD15392EA8D
:100E70000C0F93EA0C0F69D0A2EB030280EA010C7D
:100E800049024FEA402037D04FF0805343EA111116
:100E900043EA10130CF000408B4238BF5B0042F174
:100EA0007D024FF4000C8B4224BF5B1A40EA0C0019
:100EB000B3EB510F24BFA3EB510340EA5C00B3EB4B
:100EC000910F24BFA3EB910340EA9C00B3EBD10F39
:100ED00024BFA3EBD10340EADC001B0118BF5FEA8B
:100EE0001C1CE0D1FD2A3FF650AF8B4240EBC250B4
:100EF00008BF20F0010070470CF0004C4CEA502075
:100F00007F32C2BFD2F1FF0340EAC250704740F4C3
:100F100000004FF00003013A37E792F0000F00F0B5
:100F2000004C02BF400010F4000F013AF9D040EA33
:100F30000C0093F0000F01F0004C02BF490011F4C7
:100F4000000F013BF9D041EA0C0195E70CEAD153BF
:100F500092EA0C0F08D142027FF47DAF93EA0C0FA6
:100F60007FF470AF084676E793EA0C0F04D14B028A
:100F70003FF44CAF08466EE730F0004C18BF31F03C
:100F8000004CCAD130F000427FF45CAF31F0004336
:100F90007FF43CAF5FE700BF7BB972B90029BEBFE9
:100FA00000204FF0004106E008BF00281CBF6FF092
:100FB00000414FF0FF3000F0D3B9ADF1080C6DE9FE
:100FC00004CE002909DB002B1ADB00F061F8DDF804
:100FD00004E0DDE9022304B07047404261EB4101C7
:100FE000002B1BDB00F054F8DDF804E0DDE9022300
:100FF00004B0404261EB4101524263EB430370474E
:10100000524263EB430300F043F8DDF804E0DDE90E
:10101000022304B0404261EB41017047524263EB4E
:10102000430300F035F8DDF804E0DDE9022304B005
:10103000524263EB4303704753B94AB9002908BFD2
:1010400000281CBF4FF0FF314FF0FF3000F088B98F
:10105000ADF1080C6DE904CE00F01AF8DDF804E0FB
:10106000DDE9022304B07047430803F05533C01A8A
:10107000830803F0333300F03330184400EB1010D2
:1010800000F00F3000EB002000EB0040000E704736
:101090002DE9F047089E04468846002B40F08580E5
:1010A0008A42154648D9B2FA82F24AB1C2F1200703
:1010B00001FA02F320FA07F7954047EA0308944043
:1010C0004FEA154E230CB8FBFEF71FFA85FC0EFB0A
:1010D000178843EA084307FB0CF1994209D9EB183A
:1010E00007F1FF3080F0E380994240F2E080023F58
:1010F0002B445B1AA4B2B3FBFEF00EFB103344EAA0
:10110000034400FB0CFCA44509D92C1900F1FF3362
:1011100080F0CB80A44540F2C88002382C4440EADD
:101120000740A4EB0C0400271EB1D4400023C6E9FD
:1011300000433946BDE8F087002A53D0B2FA82F264
:10114000002A40F0B680491B4FEA154E1FFA85F879
:101150000127B1FBFEFC230C0EFB1C1143EA0143EB
:1011600008FB0CF1994207D9EB180CF1FF3002D2C1
:10117000994200F2EC808446591AA3B2B1FBFEF00A
:101180000EFB101443EA044408FB00F8A04507D9FD
:101190002C1900F1FF3302D2A04500F2DC80184682
:1011A000A4EB080440EA0C40BEE78B4208D9002EAD
:1011B00078D00027C6E9000138463946BDE8F087F7
:1011C000B3FA83F77FB98B4202D3824200F2BD802B
:1011D000841A61EB030301209846002EA9D0C6E9CA
:1011E0000048A6E7FFDEC7F12005BB4022FA05FC58
:1011F0004CEA030C01FA07F420FA05F821FA05F38A
:101200004FEA1C4E48EA0404B3FBFEF9210C0EFB26
:1012100019331FFA8CF841EA034309FB08FA9A458F
:1012200002FA07F200FA07F10BD91CEB030309F1EC
:10123000FF3080F088809A4540F28580A9F102094C
:101240006344A3EB0A03A4B2B3FBFEF00EFB10331E
:1012500044EA034400FB08F8A04508D91CEB040449
:1012600000F1FF336BD2A04569D90238644440EAEB
:101270000940A4EB0804A0FB02894C45C6464B4636
:1012800054D351D0002E69D0B1EB0E0264EB0304AD
:1012900004FA05F522FA07F3FC401D43C6E90054A1
:1012A000002746E73746304643E7184637E7074604
:1012B0001FE7C2F1200320FA03F7954001FA02F07C
:1012C00021FA03F34FEA154E3843010CB3FBFEF746
:1012D0001FFA85F80EFB173341EA034107FB08F3B9
:1012E0008B4204FA02F407D9691807F1FF3C28D2AF
:1012F0008B4226D9023F2944CB1A81B2B3FBFEF0C0
:101300000EFB103341EA034100FB08F38B4207D97F
:10131000691800F1FF3C10D28B420ED902382944E3
:10132000C91A40EA074714E74145ABD2B8EB020EB1
:1013300069EB0C0201381346A4E76046F0E7184653
:1013400095E76746D8E781467BE7384645E7ACF145
:10135000020C2B4410E702382C4421E73746E8E61C
:10136000704700BF10F8012B11F8013B012A28BF7C
:101370009A42F7D0D01A7047034613F8012B002A7F
:10138000FBD1181A01387047D0B514460F460646EF
:10139000FFF75CFB2060FFF755F802460B4630462E
:1013A0003946FEF701FF04A3D3E90023FFF7B4F8A1
:1013B000FFF74CFB6060D0BD0000000080842E4130
:1013C000114B10B5C3F8E400FFF72CF80CA3D3E9D8
:1013D0000023FFF7CBF9FFF761FB0446C0F3074199
:1013E00006202EF03BFAC4F3072107202EF036FA30
:1013F000E1B20820BDE810402EF030BAAFF3008013
:101400000000000080844E40D43100200000000025
:1014100038B509202EF02DFA054606202EF029FABF
:10142000044607202EF025FA000240EA0444082072
:101430002EF01FFA2043FEF7F5FF1BA3D3E900238C
:10144000FFF76AF8FFF72AFB0021044609202EF077
:1014500005FA3B202EF00DFA40F04001C9B23B20C6
:101460002EF0FCF93B202EF004FA8206FAD4104844
:10147000FFF7A6FF3B202EF0FCF940F04001C9B277
:101480003B202EF0EBF93B202EF0F3F98306FAD443
:10149000294609202EF0E2F92046BDE83840FFF742
:1014A0008FBF00BFAFF300800000000080844E407B
:1014B00000A1BC33000000002DE9F84F884620B1A0
:1014C000012855D00020BDE8F88F6F4C2720B4F8D4
:1014D000FC502EF0CEF9013520F0F8002844FEF73C
:1014E000B1FF94F8FE300022002B3CD1674BFEF791
:1014F0005DFE064630200F462EF0BBF930F0F903B2
:101500000CBF0023614B002230463946FEF74EFEE9
:10151000064640460F46FEF795FF02460B4630460C
:101520003946FEF743FE94F800310022EBB9002360
:10153000FEF73CFE0022564BFEF7EEFF0646D4F8BF
:10154000F8000F46FEF76EFF02460B46304639465E
:10155000FFF70CF900224F4BFEF7DEFF2AF012FED8
:10156000FFF79CFAAFE70023C1E74FF08043DFE7C6
:10157000454CD4F82031073B022B78D8464A02EB81
:10158000C303D3E90067D4F824510120A840FEF733
:1015900059FF02460B4630463946FFF7E7F8024648
:1015A0000B4600203949FFF7E1F80646B4F82A0156
:1015B0000F46FEF747FF0022384BFEF7F7FD324695
:1015C0003B46FEF7A9FF94F82C3182468B4694F8EF
:1015D0002E01A900C1F11C01002B01EB001101EB50
:1015E000C80114BF14200020081AFEF71BFF94F84E
:1015F0002831002B804614BF02200020281A8000CA
:101600008946FEF70FFF02460B4640464946FFF764
:10161000ADF801F0ADFD804694F82901894604300B
:10162000FEF710FF42464B46FEF776FF00220023EE
:1016300004460D46FFF700FAE0B10022144B2046A5
:101640002946FEF7B3FD32463B46FEF765FF52469C
:101650005B46FEF7ABFD00220E4BFEF75DFF08A3D5
:10166000D3E90023FEF7A2FD01F006FE78E700268D
:10167000002788E700200649E5E700BFAFF30080B8
:101680002B8716D9CEF7EF3FD43100200000F03F72
:101690000000204000408F404855030000001140EA
:1016A0002DE9F04F89B005460093129B0393BDF8D6
:1016B000503002939DF8603004930C469DF86430DE
:1016C0009DF86810079190469DF86C200692BDF831
:1016D0004C609DF854709DF858A09DF85CB005933F
:1016E0000AF0C6FADDE906212DB1012D00F0858052
:1016F00009B0BDE8F08FAA4D039BC5F8F880C5F886
:10170000F43085F80221C5F8F04085F8FE7085F8C0
:10171000FFA085F800B185F80111A5F8FC604046EE
:10172000FEF780FE02460B468046894600209D4912
:10173000FFF71CF800229C4BFEF7EEFECDE90001FE
:101740000298FEF77FFE02460B46DDE90001FEF738
:10175000E3FE0022954BFEF7DFFEFFF79FF94246BE
:101760004B46C5F808018CA1D1E90001FEF7FEFF48
:10177000FFF794F985B2290A02202EF06FF8E9B23A
:1017800003202EF06BF820460AF088F8014612205C
:101790002EF064F803980AF081F8014613202EF029
:1017A0005DF8310A25202EF059F8F1B226202EF0EE
:1017B00055F807B3514632202EF050F830202EF065
:1017C00058F8002F00F06F0014BF00216FF07F0168
:1017D00040EA0B100143C9B230202EF03FF831200F
:1017E0002EF047F840F04001C9B2312009B0BDE801
:1017F000F04F2EF033B8FF21DDE7022C00D9FEE7D1
:1018000004F10709664C009B84F82931049B84F895
:101810002F31B8F10C0F059BA4F82A61C4E9489850
:1018200084F82C7184F82DA184F82EB184F830311D
:1018300084F8311184F8322100F29F80B8F1050F4D
:1018400040F2A280B9F1070F75D0B9F1080F79D035
:1018500000251D2084F828512EF00BF8009B47EA44
:10186000430141EA0911C9B21D202DF0F7FF1E20E6
:101870002DF0FFFF029BC3F3012100F0080041EAB5
:101880008B01014341EA0811C9B21E202DF0E6FF89
:1018900026202DF0EEFF94F8281120F0080040EAF1
:1018A000C101C9B226202DF0D9FF9DF808101F20D4
:1018B0002DF0D4FF310A20202DF0D0FFF1B22120ED
:1018C0002DF0CCFF1FB1514622202DF0C7FF94F818
:1018D0002F216AB144202DF0CCFF60F07F01C9B206
:1018E00044202DF0BBFF94F8301124202DF0B6FFDA
:1018F000B9F1090F33D1D4F8E4202D4B9A424FF0BF
:1019000002014FF0360026D92DF0A8FF64213A20BD
:101910002DF0A4FFB8F1060F4FF0310022D12DF0C9
:10192000A8FF00F0F80141F0050131202DF096FFED
:101930000C2137205AE7A8F10B05012D8CBF00259B
:10194000012586E7A8F10C035D425D4181E7002592
:101950004FF006087DE72DF081FF7F21D7E70321B7
:101960003620D5E72DF085FF00F0F80141F00301A6
:1019700031202DF073FF0A21DBE7B9F1070F4FF09B
:101980000C087FF462AF64E7B9F1070FDFD04FF0C6
:1019900006085AE7AFF300800000000080847E4113
:1019A000D43100200000F03F0000204000408F4074
:1019B00040DD4A1F000000002DE9F04F87B01E46B1
:1019C0009DF8543001939DF8583002938A469DF853
:1019D0005C3018990592049303910546109C9DF87C
:1019E00044B0BDF848909DF84C809DF850700AF0C6
:1019F0003FF9504606F056F9DDE90313059A25B183
:101A0000012D63D007B0BDE8F08F8148C0E93B26C7
:101A1000C0F8F84080F8007180F8013180F8E8A043
:101A2000A0F8FC9080F8FE80C0F804111046FEF784
:101A3000F9FC73A3D3E90023FEF798FEFFF72EF815
:101A400085B2290A04202DF009FFE9B205202DF006
:101A500005FF2046FEF7E6FC02460B466AA1D1E9E7
:101A60000001FEF783FEFFF719F884B2210A022075
:101A70002DF0F4FEE1B203202DF0F0FE4FEA192123
:101A800025202DF0EBFE5FFA89F126202DF0E6FEF1
:101A900030202DF0EEFEB8F1000F00F06F0014BF03
:101AA00000216FF07F0140EA07173943C9B23020A7
:101AB0002DF0D4FE31202DF0DCFE40F04001C9B203
:101AC000312007B0BDE8F04F2DF0C8BE504A022EBD
:101AD00082F81CA1924600D9FEE70736C2E94864A5
:101AE00082F829B1A2F82A9182F82C81019A8AF809
:101AF0002F210C2C029A8AF830218AF82E718AF84C
:101B00003131CAF8341171D8052C74D9072E53D04D
:101B1000082E58D00025019B8AF828516BB144202B
:101B20002DF0A7FE60F07F01C9B244202DF096FE93
:101B30009AF8301124202DF091FE48EA4B081D2020
:101B400048EA06162DF095FEF1B21D202DF086FE16
:101B50001E202DF08EFEBF0000F00B0047EA041798
:101B60000743F9B21E202DF079FE26202DF081FECC
:101B70009AF8281120F0080040EAC101C9B22620D5
:101B80002DF06CFE4FEA192120202DF067FE212058
:101B90005FFA89F12DF062FE062C4FF031001AD168
:101BA0002DF067FE00F0F80141F0050131202DF025
:101BB00055FE0C21372084E7A4F10B05012D8CBFC5
:101BC00000250125A7E7A4F10C035D425D41A2E7D2
:101BD000002506249FE72DF04CFE00F0F80141F0AF
:101BE000030131202DF03AFE0A21E3E7072E4FF0E2
:101BF0000C048DD18FE7072EEAD0062488E700BFBA
:101C00000000000080844E400000000080847E417F
:101C1000D431002000000000314B93F8E01001297E
:101C200070B51C4602D002294CD070BD93F8E1205B
:101C3000CAB1012AF9D193F82F31002BF5D0022136
:101C400012202DF00BFE274B1B68002BEDD05C699A
:101C5000002CEAD01C202DF00CFE234600F03F00A3
:101C6000BDE8704018479B6E0BB984F80C11B4F8AE
:101C70000C51012DD9D11C480AF02AFC112084F8FE
:101C80000D512DF0F6FD4008404284F80E011B2056
:101C90002DF0EFFD05461C202DF0EBFD40EA052060
:101CA000FEF7D0FB0CA3D3E90023FEF735FCFEF7CB
:101CB000CDFEC4F810010C202DF0DBFD400984F8A6
:101CC0001401B2E793F8E120012AAED193F82F3145
:101CD000002BAAD0B4E700BF0000000080844E4073
:101CE000D4310020A0310020A431002000000000E9
:101CF0002DE9F8438946D0E90A71066B164D8C1917
:101D00003034A742904612A3D3E9002315D8A1FB93
:101D10000501FFF791F920F07F40C9F80000E01BB2
:101D20000BA3D3E90023A0FB0501FFF785F920F001
:101D30007F40C8F80000BDE8F883A7FB0501FFF766
:101D40007BF920F07F40C9F8000006F13000E7E79A
:101D50008D49FD1A0700000000CA9A3B00000000F0
:101D60002DE9F04F8DB030B91EF01CF80646304614
:101D70000DB0BDE8F08FCA4B93F84E6016F0010627
:101D80001D4601D00C26F2E793F82D2003EB8202CA
:101D9000176B93F8392003EB8203D3F83C8047B1EB
:101DA000384631F0E9F83B785A0617D4404631F00E
:101DB000E3F83B7813F00E0F40F098806B6A002B2D
:101DC000E0D11DF059FA814630B11DF061FA82462A
:101DD00058B948461DF056FA0726C8E7062130F0E4
:101DE00098FD0028E2D11226C1E71EF083FA0446CE
:101DF00018B950461DF052FAEBE74FF6FF73838592
:101E0000C36E00F11C0B13B900F16403C36604F147
:101E1000600204F15C01E06E30F086FD94F87220FF
:101E2000C4F8CC9022F0070284F8722094F83D2088
:101E300002F03F0262F07F0284F83D2094F84020D7
:101E4000002363F3000284F840200622A4F87420E3
:101E500094F88020E36622F0030284F880208E222A
:101E6000C4E92E2394F8C220A4F8703022F00302B3
:101E700084F83F3063866363C4E913336365A4F871
:101E80007830A4F87C30A4F88C3084F88E30C4F814
:101E90009C30A4F8A030A4F8B430A4F8C03084F882
:101EA000C22084F8CB30A4F8EC3094F8EE20C5F8CA
:101EB00024B0C5E9119A63F3041284F8EE2094F873
:101EC0002020C4F8143163F30002C4E94833C4E9A4
:101ED0004633C4E90533E46184F820201FF016FF7F
:101EE00020B16F481DF0A4FD032640E795F8283087
:101EF0000121C3F342030DF12B008DF82B3030F09C
:101F00003FFD002800F0BF803A7802F00F02022A5D
:101F100000F1FF3472D17A781032D200504300F5CC
:101F2000AA72642000FB042095F820305D49ED6121
:101F3000002464F3000385F8203031232B60C5E9C9
:101F4000054455A3D3E900236C60AC60A0FB0101FC
:101F5000FFF772F8E860B5F84C8030F079FF814601
:101F6000B8F1000F05D13C7804F00F04631E5C4209
:101F70005C4195F82820EB68DFF83CB164F300027F
:101F800012F001044FF0020A85F828200BAF464AF0
:101F9000CDF82CA053D00020CDE905250493CDE940
:101FA00000030321CDE907B7CDE902004B465246B5
:101FB00030F01BFF39461DF0FDF9002863D13B4A84
:101FC00006954AF2D833CDE904020093CDE907B76C
:101FD000CDE9020001904B4601220321CDF82CA04F
:101FE00030F003FF39461DF0E5F900284BD195F894
:101FF0004E3043F0010385F84E30B8E6012A16D082
:1020000098F801301033DB005AB97A78103203F5B2
:102010002773D2009833134402F59A7204FB0230FE
:1020200082E7062A07D1797801F11002EFE716223C
:102030004FF42D73EDE710224FF4AA73E9E71C4922
:1020400003F2471008601B48CDE90432CDE9065B76
:102050004FF6FF731FFA88FBCDE90871CDE9024303
:10206000ABFB0001912303FB0B110BA3D3E900236E
:10207000FEF7E2FF4B46CDE90040524603212046E1
:102080001BF0D8FCAEE76B6A002B3FF47BAE044834
:102090001DF0CEFC76E600BF8D49FD1A070000005A
:1020A0007443002000CA9A3B41F90100FDFB010086
:1020B000C4430020002AE784DDEC0100000000009A
:1020C0002DE9F04F90F82430414F044690F8380045
:1020D00003F0F903C0F3400060F386138DB084F879
:1020E000243004F125011BF075FD94F82030B4F87C
:1020F0003280E461002565F30003A8FB070184F842
:102100002030912303FB0811C4E905552EA3D3E920
:102110000023FEF791FF31232360636B6560093371
:10212000A0F13102934232BFE360E5606563A560D0
:10213000284D064630F08CFE02230B93651B3C2392
:10214000B5FBF3F5244BB4F832B0CDE90643234B8D
:102150000593BA46E368049307469123ABFB0A0153
:102160004FF000080DF12C0903FB0B1116A3D3E966
:102170000023CDF82090CDF80C80FEF75DFF1046CF
:1021800019464FF47A720023FEF756FF0435EDB27C
:10219000CDE901600321CDF800803B462A46404648
:1021A00030F023FE49461DF005F940B994F8383067
:1021B00043F0010384F838300DB0BDE8F08F0C20F7
:1021C000FAE700BFAFF300808D49FD1A0700000059
:1021D000002AE784E8430020DDEC010099FF0100BC
:1021E000F8B50646002015461F461DF043FF04467D
:1021F000F8B190F8382090F82430418667F3420215
:1022000080F838209DF8182066F3C71362F3C403E2
:1022100080F824300A48ADB2A5FB0001912303FBEE
:10222000051105A3D3E90023FEF706FF6063002034
:10223000F8BD0C20FCE700BF8D49FD1A0700000027
:10224000002AE784000000002DE9F04F934690F843
:102250008C3090F88D2093428DB0044688460BD187
:1022600090F8A12090F8A010914224D00122023BC6
:1022700080F88E2080F88D3094F88C2094F88D3082
:10228000D31A03F00303022B40F05D8294F88E30E2
:10229000012B00F00682022B00F010844FF47872BC
:1022A000C649C7482AF0A4FF404080F311884FF088
:1022B000030002DF47E290F8B53090F8B4108B428B
:1022C0005CD05B1ADE07D7D590F8805015F0010579
:1022D00027D01DF011F801460028CDD094F8B43075
:1022E00084F8B530A38DC38003230371037F43F0CB
:1022F0000303037709234377C37700230362436211
:10230000D4F8BC3080F82030C3F307221B0C80F8CF
:10231000212080F8223008681CF0C6FF1CF0CEFF98
:10232000AAE7A84830F0BCFA01460028A4D094F8E7
:10233000B530013B84F8B5308E23C4F8B83003794A
:1023400043F0030303710923437194F93D30856021
:10235000002BACBF08230E23C560C371D4F8B8307E
:102360000372C3F307221B0C42728372204630F0C3
:10237000F4FEB4F87A30A4F87C307DE790F8C130F0
:1023800090F8C0108B425ED05B1ADD077FF574AF0A
:1023900090F8C23013F0010523D18A4830F080FA5A
:1023A000014600283FF468AF94F8C130013B84F83F
:1023B000C13094F8C23043F0010384F8C23003798D
:1023C000857243F003030371062343710C23C37129
:1023D0000B230372592343724FF0FF33C37203730D
:1023E000C4E7980722D51CF087FF014600283FF478
:1023F00043AF94F8C03084F8C130A38DC380032369
:102400000371037F43F003030377062343770C2311
:10241000C37794F8C33080F82030B4F8C430A0F803
:102420002130B4F8C630A0F8233074E740F67A3291
:10243000624963482AF0DCFE404080F311884FF087
:10244000030002DF18E790F8ED1090F8EC309942A5
:102450003FF412AF5C4D2B6813B198427FF40CAF80
:1024600094F8EE3003F00703052B00F2178101A169
:1024700051F823F08D2400000725000053260000AA
:102480007922000079220000792200004D48E68E72
:10249000678E30F005FA014600283FF4EDAE94F85F
:1024A000EE30042262F3020384F8EE30037943F045
:1024B00003030371182343710F23C371B4F8F03081
:1024C0000381B4F8F2304381B4F8F4308381B4F876
:1024D000F630C3813E4400230374C37403755E4425
:1024E0004FF0FF33A0F8116043758375C375037611
:1024F00043768376C376037743778377204630F03D
:102500002CFE2C6035E794F8EF60EEB12D4830F0EA
:10251000C7F9014600283FF4AFAE037943F0030347
:1025200003711123C371032343710F23037294F8C2
:10253000EF304372204630F010FE94F8EC3084F80F
:10254000ED3000232B6097E694F93D30002B3DDB06
:1025500094F8EE30C4F8AC60052161F3020394F8FE
:10256000F81084F8EE30012384F8B03011B3B4F8D9
:10257000F030B3FBF1F3013313FB01F39BB2A4F88A
:10258000A430B4F8F430A4F8A630B4F8F630A4F8C7
:10259000A83094F8A230022161F3010394F8EE1000
:1025A000C1F3C00161F38203013A84F8A23084F8D8
:1025B000A12061E6B4F8F230E1E700BFABC8030048
:1025C0003A6A0300E845002064450020634830F083
:1025D00067F9014600283FF44FAE037943F0030347
:1025E0000371182343711023C371B4F8F0300381D1
:1025F000B4F8F2304381B4F8F4308381B4F8F630A3
:10260000C38194F8F8300374B4F8FA30A0F81130AC
:10261000B4F8FC30A0F81330B4F8FE30A0F8153050
:10262000B4F80031A0F81730B4F80231A0F819302E
:10263000B4F80431A0F81B30B4F80631A0F81D300E
:10264000204630F08AFD94F8EC3084F8ED302E60AE
:1026500012E61CF051FE014600283FF40DAE94F83E
:10266000EE20032363F3020284F8EE20A28D0371AF
:10267000037FC28043F003030377182343770F23BC
:10268000C377B4F8F0300384B4F8F2304384B4F87C
:10269000F4308384B4F8F630C3843CE640F68742D5
:1026A000C6E62F4B196801B91C60618EE68E0E4498
:1026B00094F8A2105E4411F00300B6B252D001208B
:1026C0001CF002FE074600283DD0244830F0E8F810
:1026D0000546C0B31CF010FE3B68D4F89C205A603D
:1026E00094F8A230C4F89C706FF3010384F8A23010
:1026F000238E1E442B790636B6B243F00303A4F8AA
:1027000090602B710C236B710023EB7194F8B03047
:102710002B7240F2E242D4F8AC30B3FBF2F3A5F8EE
:102720000930B4F8A430A5F80B30B4F8A630A5F8F9
:102730000D30B4F8A830A5F80F30A5F8116029467F
:10274000204630F00AFD94F8C92094F8C8309A4227
:1027500040F0038200200DB0BDE8F08FE845002076
:1027600064450020B4F890100A91771ABFB239047A
:10277000E9D494F8A01084F8A11084F88D2094F87E
:10278000EC1094F8ED208A4209D094F8EE2002F083
:102790000702052A04BF84F8ED10A4F87C001A682B
:1027A000D4F89C50944204BF00221A600DB12B68EB
:1027B0005BB940F60E12B849B8482AF019FD4040FE
:1027C00080F311884FF0030002DF2868B4F8A420DA
:1027D0004368C4F89C30E38DB4F8A6C0B4F8A810E0
:1027E0009A4213D1238E634510D140F2E24303FB9A
:1027F00002FE42F2107303FB01E3013BB3FBFEF365
:10280000B4F876E09BB29E4500F02081A38DEB806A
:1028100015232B7100232B77EA83A5F820C0698448
:1028200029461CF041FD1CF049FD2368002B0ADA03
:10283000D4E9012023F0004390422CBF804490440F
:102840002360A8EB0308E38DB4F8A450DFF868A276
:1028500013FB07F39BB2B3FBF5F11FFA81F915FBEC
:1028600009F292B2934240F2E24080F0F280D31A31
:102870005843A0FB0A0186A3D3E90023FEF7DCFB43
:1028800020F07F408044638E9B440A9B9E1B94F9FA
:102890003D304E445E44002B40F2E24B66860BFB1B
:1028A00005F580F2E480E26C636C03FB1727E764B4
:1028B00030F02FFE064694F88000C0F382001FF02F
:1028C00073FA94F8B02006440BFB02F262656E4383
:1028D0000022C4F8882006F57426E26C704806F2DF
:1028E0003F266B08B6FBF0F606FB09F0963B024468
:1028F000A3649A4294BFE264E364666464A3D3E988
:102900000023A0FB0A01FEF797FBA8EB0008D4F810
:10291000AC00B0FBFBF00BFB00F05DA3D3E90023A0
:10292000A0FB0A01FEF788FBA5EB060920F07F4714
:10293000B4F8A430E385B4F8A6302386B4F8A83000
:1029400042F2107202FB0353013BB3FBF5F3A4F810
:102950007630544B2B44B3FBF5F594F8A230A4F831
:102960007A505A0744BF0023A4F87830022101208E
:1029700020F0CAFF00220221064601201AF0F2FAD6
:1029800020461DF0C3FC0530C5B2474B00942A46D3
:10299000012100201BF0E4F830F002030BD040F6D8
:1029A000B7123D493D482AF023FC404080F311888E
:1029B0004FF0030002DFA9FB0A23CDE90A23DDE97A
:1029C0000A0133A3D3E90023FEF736FB374B089403
:1029D000CDE90643364B0593E36804934FF6FE7347
:1029E0000393344B0A9920F07F44A4FB03ABB1EB73
:1029F0000A004FF007030B9903FB04BB61EB0B01CB
:102A00004FF47A720023FEF717FB4346CDE90140ED
:102A100000972A460121002030F0E7F930F0020348
:102A20000BD040F6D1121C491C482AF0E1FB404073
:102A300080F311884FF0030002DF26B1012202214A
:102A400010461AF08FFA6FF08B0084E601232B7189
:102A5000E6E605FB113189B248430DA3D3E9002313
:102A6000A0FB0A01FEF7E8FAA8EB00080BE740F626
:102A70008712094909482AF0BBFB404080F31188BE
:102A80004FF0030002DF0027A94651E7AFF30080B3
:102A90008D49FD1A07000000ABC803003A6A030025
:102AA00040420F00FF596202B501020069010200B5
:102AB0007D1402008D49FD1A00CA9A3BE38E618E97
:102AC0000B449B4494F89030DB071FFA8BFB25D511
:102AD00035482FF0E5FE014600283FF434AE94F867
:102AE00090306FF3000384F89030238E9B44037979
:102AF0000BF1060B43F00303A4F896B0037108230F
:102B000043710123C371234653F8910F88601B79E9
:102B10000B73B4F89630A1F80D3011E6B4F8963086
:102B2000ABEB030B1BF4004F7FF40DAE234684F890
:102B30008D2053F8912FA26304F138001B790371A3
:102B400005212FF01DFF94F83D3060F3050384F854
:102B50003D30012384F82831F5E513482FF0A0FE1D
:102B6000014680B194F8C83084F8C930037943F045
:102B70000303037102234371C37194F8CA300372D3
:102B8000204630F0EAFAB4F87C0000287FF4E2AD89
:102B9000B4F87630012B02D9A4F87C30DAE50133A1
:102BA000A4F87C30D7E500BFE84500200000000015
:102BB0002DE9F04F1D46136891460A46D3F800A050
:102BC0002B460C4632F82E1F53F80C6BA9819278D5
:102BD0009A70D4F82A30AB602346834653F83A2FD4
:102BE000EA6105F11C001B79037191B005212FF0FA
:102BF000C7FE95F8213000F03F0060F3050301287F
:102C000085F8213040F22B8194F83F30C3F3040360
:102C100085F82230053B03F0FF030B2B00F21F81E8
:102C2000D9F800304FF00008C3F80880A78E6F82F3
:102C300094F8372094F8363043EA0223AB82638E4F
:102C40000A9340F2E2435F4394F83F3096F88020C5
:102C50005B0963F3840286F8802030F05AFC0D9003
:102C600096F88000C0F382001FF09EF80D9B184478
:102C7000784300F574207E4B00F23F20B0FBF3F068
:102C80007B08963BEB6294F83130A86240F2E24256
:102C90005343EB63228F42F2107303FB0273013B39
:102CA000B3FBF7F3A6F87630724B3B44B3FBF7F374
:102CB000A6F87A30AB68C6F884302146237F51F8F5
:102CC0001E0F0E908988ADF83C10C3F38013A377D4
:102CD0004FF48071BDF83C30A183C4F81F00A4F804
:102CE00023306B8AE384AB8A238596F88030628533
:102CF000C3F3820384F82C3030461DF007FB2146D5
:102D00002882E08058461CF0CFFA1CF0D7FA4146E2
:102D1000404630F0D2FBDFF878B1C6F804800446B4
:102D2000312300F252403360C6F808804EA3D3E945
:102D30000023A0FB0B01FEF77FF9AB6A0A99FF1A8B
:102D4000D9F80C3040F2E24202FB013320F07F4020
:102D500003F2863342460221F06001201C1B1AF068
:102D600001F950461CF0FCFF821C434BCDF800A03B
:102D7000D2B2012140461AF0F3FE51461EF064FB28
:102D80009AF8283013F0010F5D4607D00122CDF8E4
:102D900000804346114640461AF0E2FE30461DF0E0
:102DA000B5FAA7FB0523CDE90A2380462EA3D3E974
:102DB0000023DDE90A01FEF73FF9D9F808300A9946
:102DC000A3F131094FF4B67308932C4BCDE9066398
:102DD0002B4B0593F36804932A4B20F07F46A6FB08
:102DE00003ABB1EB0A004FF007030B9903FB06BBE3
:102DF00061EB0B0108F105074FF47A724FF0000800
:102E00000023CDF80C80FEF717F917A3D3E90023B0
:102E1000CDE90160A4FB0501FEF70EF9FFB220F039
:102E20007F4000904B463A46012140462FF0DDFF9F
:102E300030F002030BD04FF4B772134913482AF055
:102E4000D7F9404080F311884FF0030002DF0122E0
:102E50000221104611B0BDE8F04F1AF083B811B04E
:102E6000BDE8F08FAFF300808D49FD1A0700000028
:102E700040420F00FF59620249140200211402006F
:102E80007D1402008D49FD1AFDC803003A6A030053
:102E900000CA9A3B000000002DE9F04F8FB0834636
:102EA0000DF137010DF1360030F05FF8DFF8D88012
:102EB0009DF836300A939DF837300B93DFF8CC90AD
:102EC0002FF0C6FFD8F80040A4FB094528A3D3E99A
:102ED0000023824629462046FEF7AEF80646D8F87B
:102EE0000400254B0593002721A3D3E90023A0FB71
:102EF0000901CDF818B0CDE90777FEF79DF81F4B13
:102F000026F07F46A6FB03BC20F07F40072303FB8F
:102F100006CCCDE90370B4EB0B0065EB0C014FF46C
:102F20007A720023FEF788F85346CDE901600097D6
:102F30000B9A0A9803212FF058FF30F0020314D1A6
:102F40000F4A1048002327F061F858B19DF8372048
:102F50009DF83600032122F009FB6FF073000FB0DB
:102F6000BDE8F08FD8F80C00F9E76FF08B00F6E7BA
:102F70008D49FD1A07000000115602008D49FD1A07
:102F8000447B0B007C4900206C49002000CA9A3B1E
:102F900038B50F4D04462FF05BFFA9682FF05AFF9C
:102FA0000C49B0FBF4F40444686807A3D3E9002398
:102FB000A0FB0101FEF740F820F07F40844294BF5F
:102FC0000020012038BD00BF8D49FD1A0700000018
:102FD0006C49002000CA9A3BD0E9132C2DE9F84334
:102FE0004E680C681E49A6EB0C06A41AF717C1FB25
:102FF0000467002E77F1000328DA046BC36A764277
:1030000067EB4707E517C1FB034590F8201001293E
:1030100014D1134800FB02C031F00CFD00FB05F396
:103020004FEAE07904FB0933A0FB040119440AA329
:10303000D3E90023FDF7B0FF04460D46B44275EB1B
:103040000703B4BF01200020BDE8F883846A436A07
:10305000E517D8E7AFF3008000E1F50500000000B8
:1030600040420F00000000002DE9F0430B688BB0D8
:103070000C461988054630F0BBFD6B46282200211E
:10308000184631F024FD6468374A002C08BF044616
:10309000D4E9001330A7D7E9006702FB0131CB1751
:1030A0009F4208BF8E424FD30FF2B409D9E900897D
:1030B00040F6FF70C0FB0189404632463B46494618
:1030C000FDF7BAFF1FFA80F8D4E90232264901FB66
:1030D000032C6246D3179F4208BF664537D320A111
:1030E000D1E9000140F6FF76C6FB0C011AA3D3E933
:1030F0000023FDF7A1FF86B25FFA88F1284630F081
:1031000070FD310141EA1821C9B2284630F069FD4D
:10311000C6F30711284630F064FD217C284630F0C4
:1031200060FDD4E9060123F0B1FC0146284630F0E9
:1031300058FDD4E9080123F0A9FC014628460BB04C
:10314000BDE8F04330F04DBD4FF00008BCE700266D
:10315000D2E700BFAFF3008000E1F50500000000FA
:1031600080F0FA020000000040420F000000000062
:10317000C1F30A522DE9F041A2F2FF36132E0B469D
:103180000D460446074634DC002E1FDB384A42FA5F
:1031900006F808EA0102024330D033A3D3E9002342
:1031A000FDF704F800220023FDF746FC48B1002D8E
:1031B00004DD4FF4801343FA06F6354425EA08058A
:1031C00000273C4629462046BDE8F08126A3D3E9E6
:1031D0000023FCF7EBFF00220023FDF72DFC002865
:1031E000EFD0002D3ADB55EA040733D00027214DFC
:1031F000E7E7332E06DDB6F5806F26D01946204668
:10320000BDE8F081A2F213424FF0FF3828FA02F82D
:1032100018EA000FF2D014A3D3E90023FCF7C6FF8D
:1032200000220023FDF708FC0028CAD0002D09DD8C
:10323000142E11D00123C6F1340603FA06F637190D
:1032400028BFED1827EA0807BBE70246FCF7AEFFE8
:103250000446D4E73D46B4E70135F3E700274FF0D5
:103260000045AEE7AFF300809C7500883CE4377EF4
:10327000FFFF0F000000F03FC1F30A522DE9F041BB
:10328000A2F2FF36132E0B460D460446074631DCEC
:10329000002E1FDB384A42FA06F808EA0102024310
:1032A0002DD033A3D3E90023FCF780FF00220023B5
:1032B000FDF7C2FB48B1002D04DA4FF4801343FA46
:1032C00006F6354425EA080500273C4629462046EF
:1032D000BDE8F08126A3D3E90023FCF767FF0022B5
:1032E0000023FDF7A9FB0028EFD0002D29DB0027E4
:1032F0003D46EAE7332E06DDB6F5806F1CD0194651
:103300002046BDE8F081A2F213424FF0FF3828FAC0
:1033100002F818EA000FF2D015A3D3E90023FCF756
:1033200045FF00220023FDF787FB0028CDD0002DAC
:1033300010DB27EA0807C8E70246FCF737FF044618
:10334000DEE725F000430D4A1F43002F18BF154646
:103350000027BAE7142E08D00123C6F1340603FA79
:1033600006F6371928BFED18E3E70135E1E700BF9E
:103370009C7500883CE4377EFFFF0F000000F0BF23
:10338000014829F035BF00BFC8670300014829F094
:103390002FBF00BF8767030008B5024829F028FF48
:1033A000002008BD5F67030008B50146024829F008
:1033B0001FFF002008BD00BFB8670300082808B53C
:1033C00004D1064829F014FF002008BD012801D1CE
:1033D0000348F7E76FF08500F7E700BF9667030043
:1033E000A667030010B5224829F002FF214C1021E6
:1033F00020462AF050FC627823781340627913400B
:10340000FF2B0DD11C4B1A7822705A7862709A7873
:10341000A270DB78E370194B1A7822715B786371C4
:1034200000F0DEF8014616482EF01FF9014620B1E3
:103430001448BDE8104029F0DBBE134829F0D8FE3F
:10344000124829F0D5FE2AF0D9FA032018F01EFC04
:1034500010F1780F014606D10D4829F0C9FE0D4B39
:1034600001221A7010BD08B10B48E2E70B48F4E7DF
:10347000AC6603008E4B0020A4000010A8000010D2
:1034800088030020BA660300DD660300EF660300D0
:10349000006703009E4B0020296703004767030075
:1034A00038B50F480F4D29F0A3FE0F480BF084FCF0
:1034B00004462B7833B15CB121460C48BDE8384056
:1034C00029F096BE00214FF4A47026F011FDF0E71C
:1034D000074829F08DFE0748BDE8384029F088BE2E
:1034E0004C6603009E4B0020E5330000636603003A
:1034F000836603009A660300014829F079BE00BF85
:10350000E5670300014829F073BE00BFF6670300BA
:10351000F7B5154C154D2146284629F0BDFD144B35
:103520001860D0B92868FDF793FB1249FDF798FCA5
:10353000FCF79AFF064620680F46FDF789FB0D4908
:10354000FDF78EFCFCF790FF3246CDE900013B46CB
:10355000094828F007FF03B0F0BD084803B0BDE8F4
:10356000F04028F0FFBE00BF381E0020401E0020A3
:103570003C1E002000007A440668030055680300E2
:1035800010B51446FFF7C4FF064B1868FCF75AFF46
:10359000054B0022FDF7EAF82246FDF7F5FE034B46
:1035A000186810BD381E002000408F403C1E0020CF
:1035B00010B51446FFF7ACFF064B1868FCF742FF46
:1035C000054B0022FDF7D2F82246FDF7DDFE034B46
:1035D000186810BD401E002000408F403C1E002097
:1035E00008B529F09EFC002000F0E6F900214FF418
:1035F000004026F07DFCFFF78BFF014808BD00BFAF
:10360000205603002DE9F84312F44065064688462B
:103610001446D0F80490C7680CD093050AD4194911
:10362000194840F2362229F0E3FD40F236211548D0
:103630002AF057F8E00404D51DB1E10748BF84F42F
:10364000E054012303FA08F5D9F800301D420AD1ED
:103650000C490D4840F2452229F0CAFD40F24521AF
:1036600008482AF03EF8B36822461B6841463046B7
:10367000984728B93B68E2074CBF2B43AB433B60FC
:10368000BDE8F883106A03003A6A030043682DE935
:10369000F0411B68C76801258D401D42044616464F
:1036A0000AD11549154840F2EB3229F0A1FD40F24C
:1036B000EB3111482AF015F83B681D4263681B681E
:1036C00018BF86F001061D420AD10B490B4840F293
:1036D000C13229F08DFD40F2C13107482AF001F8CE
:1036E00036B1A368DB6829462046BDE8F04118479B
:1036F000A3681B69F7E700BF106A03003A6A03007A
:1037000010B52A4824F094FD294A106020B92948B0
:10371000BDE8104029F06CBD0D2141F20162FFF7B8
:1037200071FF254C00280146206004DA2348BDE8DB
:10373000104029F05DBD1D4824F07AFD204A10603C
:1037400008B92048E4E70E2141F20162FFF75AFF71
:1037500000280146206001DA1B48E8E7134824F0FE
:1037600067FD1A4A106008B91948D1E70F2141F2E4
:103770000162FFF747FF00280146206001DA154883
:10378000D5E70A4824F054FD134A106008B91348DD
:10379000BEE7102141F20162FFF734FF0028014625
:1037A000206001DA0E48C2E710BD00BF7068030058
:1037B000441E002010690300541E002024690300E9
:1037C000481E002050690300646903004C1E00205D
:1037D00090690300A4690300501E0020D069030013
:1037E000E4690300054B10B5024604460D21186834
:1037F000FFF74CFF024B1C7010BD00BF441E0020A1
:103800009F4B0020054B10B5024604461021186856
:10381000FFF73CFF024B1C7010BD00BF501E002084
:10382000B20D00202DE9F0414D48D4B029F0E0FC64
:103830004FF080534B48D3F8A420114629F0D8FC10
:10384000494829F0D5FCFFF75BFF484829F0D0FC38
:10385000474829F0CDFCFFF723FE464B464A47492F
:1038600006AEC6E90023464B08ADC5E90013454B3B
:103870000AAC274603F1100C186859683A4603C28F
:10388000083363451746F7D13F4829F0B1FC3F485C
:1038900024F0CEFC28B93E4829F0AAFC54B0BDE87B
:1038A000F0814FF0FF324FF0FF338168CDE9002304
:1038B0000DF115080DF11607CDF80C8002978B68F5
:1038C000FF2214A998479DF8501098F90030B7F9D5
:1038D0000020304829F08CFC2F4829F089FC03F0A7
:1038E000B1FC011E03DA2D4829F082FCD6E7012045
:1038F00003F010FC00232A488DF84C3012960E95E8
:10390000CDE90F4429F074FC264829F071FC0EA87B
:1039100003F052FB011E06DA234829F069FC01205E
:10392000FFF760FFBAE70120FFF76CFF1F48204D4B
:10393000204C29F05DFC012313222946022003F0CC
:10394000FDFB10F10B0F05D100214FF4A02026F054
:10395000CFFAF0E70028F7DB204629F049FCF3E72F
:10396000526A03006B6A0300A76A0300C16A03007E
:10397000DF6A03000E986600ADD913FCBB1B04D0B0
:103980007ED5B370F8540300F36A03000E6B030096
:10399000156B0300456B0300606B03007B6B03003A
:1039A000966B0300AF6B0300B86B0300DA6B030088
:1039B000B30D0020EC6B030007B50D4A0346092B3D
:1039C000106892880090ADF804200ED830338DF83E
:1039D0000430684624F02CFC064B1860B0FA80F0E6
:1039E0004009404203B05DF804FB4FF0FF30F9E7B7
:1039F000F96B0300581E00201FB503460748CDE9A8
:103A00000112032200688DF80C20826801A9546815
:103A10000122A04740B204B010BD00BF581E0020D4
:103A20001FB503460748CDE90112022200688DF850
:103A30000C20826801A954680122A04740B204B05A
:103A400010BD00BF581E0020024B4420198829F0E9
:103A5000FABA00BF080D002010B5094C0A44914283
:103A600000D110BD11F8013B43401809205C80EAE9
:103A70000310C3B21809205C80EA0310C0B2EEE75D
:103A8000FF6B0300436870B503F003030546022B88
:103A90000E46A96010D0032B04D0012B0FD10024B7
:103AA000204601E00468002000236B6010B131461D
:103AB00027F01AFC204670BD00680024F4E7452278
:103AC0000449054829F094FB4521024829F009FEE4
:103AD0000024E8E70F6C03003A6A03000B68013327
:103AE0000B60014B1B68184708050020014B18604C
:103AF000704700BF0805002007B500230193024668
:103B00000B46034801A900F0ADFC03B05DF804FBCF
:103B1000DD3A000030B585B0CDE90101044600254D
:103B200001A90548039500F09DFCDDE902309842AB
:103B3000B8BF255405B030BDCBD102002DE9F74FF9
:103B4000B0F81C8018F0080F044693461CD00129D9
:103B50000CBF48F0100848F02008A0F81C8004F1C1
:103B6000140026F01BFC40B9B949BA48A72229F035
:103B70003FFBA721B64829F0B4FD8BF31188BFF3B2
:103B80006F8F03B0BDE8F08FB34EDFF8C89208F036
:103B90000708022906D1204629F044FB0028DED080
:103BA000012861D1D4F818A0A38BBAF1000F19DA5B
:103BB0000027256823F00703C4E9007743F00103D9
:103BC000A383A38B03F007024245009203D0A268AF
:103BD000002A40F0EF8015B9002F00F029814FF046
:103BE0000008E9E003F00702511F01291ED8002157
:103BF00023F00703062A25689BB2C4E900110AD105
:103C00003DB1E28B29460968013292B20029FAD10E
:103C1000E28343F00203A383204629F003FB18B19B
:103C2000A38B43F02003A3830027CAE7042A0FD104
:103C300023F007039AB2A283204629F0F3FA002862
:103C400000F0B68042F02002A28300252F46B8E79C
:103C50003146484640F2191229F0CAFA40F21911C9
:103C6000304629F03EFDF0E7032831D1B8F1000FCE
:103C70000AD0314648464FF4AA7229F0B9FA4FF4F7
:103C8000AA71304629F02DFD236853B931464846C4
:103C900040F2551229F0ACFA40F25511304629F0A5
:103CA00020FD23691F6857B9314648464FF4AC726E
:103CB00029F09EFA4FF4AC71304629F012FDA38B27
:103CC00023F0070343F00603A3830025AA4678E701
:103CD00004282ED1B8F1020F0AD03146484640F2EE
:103CE0005B1229F085FA40F25B11304629F0F9FCAD
:103CF000E38B53B1314648464FF4AE7229F078FA5F
:103D00004FF4AE71304629F0ECFC23695F6857B977
:103D10003146484640F25F1229F06AFA40F25F11DC
:103D2000304629F0DEFCA38B23F0070343F00403A5
:103D3000CAE705282ED1B8F1010F0AD0314648460E
:103D40004FF4B17229F054FA4FF4B171304629F0B2
:103D5000C8FC236853B93146484640F2631229F043
:103D600047FA40F26311304629F0BBFC23699F6893
:103D700057B9314648464FF4B37229F039FA4FF437
:103D8000B371304629F0ADFCA38B23F0070343F059
:103D9000050399E740F269123146484629F028FAAE
:103DA000002540F26911304629F09BFC2F468DE733
:103DB00005464BE74FF0010843F00803A38304F1E5
:103DC00014031846019326F0E9FA40B92049484601
:103DD000A72229F00DFAA7211D4829F082FC8BF3B8
:103DE0001188BFF36F8FB8F1000F39D1002D49D181
:103DF00017B11A492046B8474FF02003EFF3118B53
:103E000083F31188BFF36F8F019826F0B9FA40B998
:103E10000F4948467C2229F0EBF97C210C4829F017
:103E200060FC019826F0CAFAA38B23F00803A38351
:103E3000A38BDA0630D523F01003A3830121B4F855
:103E40001C8008F0070800297FF4A3AE87E600BFB6
:103E5000546C03003A6A0300326C0300A93E000070
:103E6000A1680029C2D0D1F80080D1F804B0009A2E
:103E700053462046D847B8F1000FB7D04146D8F88E
:103E80000080F2E7D5F80080009A29465346204684
:103E900029F0E4F94546A9E713F020011EBF23F0FD
:103EA0002003A3830221CAE7F8B504460F4600F1B8
:103EB00014054FF02003EFF3118683F31188BFF34D
:103EC0006F8F284626F05CFA40B90A490A487C22DE
:103ED00029F08EF97C21074829F003FC284626F0BA
:103EE0006DFAA761324620460121BDE8F840FFF790
:103EF00025BE00BF546C03003A6A03002DE9F04769
:103F00000446884629F0C0F9061E52DB04F1140964
:103F10004FF02003EFF3118A83F31188BFF36F8F03
:103F2000484626F02DFA40B9324933487C2229F020
:103F30005FF97C212F4829F0D4FB484626F03EFA51
:103F4000E38BA28B4FF6FF718B4202F007054AD03C
:103F5000022D1CD10133E3832E460127484626F06B
:103F60001DFA40B923492448A72229F041F9A72185
:103F7000204829F0B6FB8AF31188BFF36F8FC7B1D1
:103F800000232A464146204629F068F911E09307AC
:103F900001D0062D10D10023C8F800306368EBB9BA
:103FA000C4E900882E4605BB524602212046FFF791
:103FB000C5FD3046BDE8F087052D18D0012D0AD08B
:103FC0000E490D4840F2C51229F012F940F2C51110
:103FD0000A4829F086FB6FF0040606E0C3F800806B
:103FE000C4F80480DEE76FF00A060027B6E76FF03A
:103FF0008506FAE7546C03003A6A0300326C03004A
:1040000070B5044600F114054FF02003EFF311865C
:1040100083F31188BFF36F8F284626F0B1F940B9BA
:10402000224923487C2229F0E3F87C211F4829F00B
:1040300058FB284626F0C2F9A38B03F00703022B96
:1040400017D0012B0CBF6FF004046FF085042846D5
:1040500026F0A4F940B915491548A72229F0C8F857
:10406000A721124829F03DFB86F31188BFF36F8F1B
:1040700017E0E38B53B90F490D484FF4F67229F05E
:10408000B7F84FF4F6710B4829F02BFBE38B013B9B
:104090009BB2E3833BB9204632460221FFF74EFD37
:1040A0000224204670BD0224D1E700BF546C0300F7
:1040B0003A6A0300326C03002DE9F041164DDFF837
:1040C0005C8007464FF0FF324FF0FF33384624F054
:1040D00065FE04460028F5D0466846B929464046A4
:1040E0001C2229F085F81C21284629F0FAFABFF392
:1040F0005B8F04F1080353E8002F22F0010143E82D
:1041000000100028F7D1BFF35B8FD30701D52046FD
:10411000B04725F0DFFDD5E77A6C03003A6A03006B
:1041200070B5002937D00568AB68B3F5004F2CBFD8
:10413000082404240C1B641BE4082146284629F0AB
:10414000F9F840B9144915489B2229F051F89B21F0
:10415000114829F0C6FA2146284629F0F2F8261817
:1041600000223146284629F0CFF8301A844208D080
:1041700009490A48A42229F03BF8A421064829F05D
:10418000B0FA21462846002229F0E1F82146BDE890
:10419000704029F01FBA70BD9D6C03003A6A03009D
:1041A0002DE9F04701F1FF3A1AEA010F0646894668
:1041B0001446056808D032493248FC2229F018F824
:1041C000FC212F4829F08DFAAA68B2F5004F2CBFC8
:1041D00008230423994505D821463046BDE8F04719
:1041E00029F036BA1CB900273846BDE8F087B2EB93
:1041F000D40FF8D909EB0401C91A284629F0C3F8ED
:104200000146284629F060F980460028EBD0AB68CB
:10421000B3F5004F2CBF0826042606EBC0072F4439
:104220005744C9F1000907EA0907BE1B3C44761B45
:104230000734F60824F00704641BB0424FEAE40494
:1042400008D201463246284629F0D1F84146284690
:1042500029F07BF93146284629F073F8304484422E
:1042600008D231462846224629F0C1F82146284680
:1042700029F06BF901223146284629F068F8B3E7A6
:104280009D6C03003A6A0300B2F5802FF8B507462B
:104290000D4616460ED2042A0AD83D493D484FF431
:1042A000B67228F0A5FF4FF4B671394829F019FA13
:1042B000042300E00823F61AEC1D354424F007041B
:1042C00025F007052D1B172D4FEAD5060AD83049D2
:1042D000304840F2751228F08BFF40F275112C48DF
:1042E00029F0FFF9002200233C60C4E900230023E9
:1042F000E3603146A660204629F04FF80121850091
:10430000471C204629F03FF81B35ED082844B042F1
:104310000AD31F491F4840F2811228F069FF40F27A
:1043200081111B4829F0DDF9002304F11002194620
:10433000BB4229DB2A462046002129F020F8771BC2
:1043400020460122002129F002F83A46294629F0A8
:1043500016F82B4629462046002228F0E0FF314679
:104360002046002229F00BF83B4631462046002229
:1043700028F0D5FF31462046012228F0E8FF2946E3
:10438000BDE8F84029F0E1B842F8041B0133CFE75B
:104390009D6C03003A6A0300F0B50268074E0023E3
:1043A0000A27114601320C78A55D6D0702D4016021
:1043B0001846F0BD07FB0343303BF2E72FD803005C
:1043C0002DE9F74F14460193D378254A13F802904C
:1043D0006F2B06460F4609F003092ED029D8582B1B
:1043E0000CBF10250A25DDF83080AA464FF0000BDF
:1043F00052465B4630463946FCF71EFE092AD3B2C8
:1044000022D830335F45DBB208BF564508F8013D7E
:1044100002D3019B984514D823789B0605D5082D17
:1044200018D1A37843F00803A370404603B0BDE859
:10443000F08F702B03D0782BD2E70825D3E7102517
:10444000D1E706460F46D3E7B9F1010F0CBF37336A
:104450005733D7E7102DE8D1A37843F01003E3E7F3
:104460002FD803002DE9F04F814693B08A4693463A
:104470001C4600259BF8000008B92846D9E20BF13C
:1044800001032528029306D05146C8470028C0F2F0
:10449000D0820135B2E1182200210CA830F017FBC0
:1044A0009BF80130252B55D0029A164612F8013B95
:1044B0002B2B00F0878075D8202B00F08880232BD1
:1044C00000F08A809DF8383003F04402442A03D17A
:1044D0006FF386138DF838309DF83830059643F029
:1044E00080038DF8383033782A2B7AD19DF8393013
:1044F00043F001038DF83930721C059213782E2B8E
:104500009DF839300CBF0121002161F341038DF882
:1045100039300BD1531C059353782A2B75D19DF854
:10452000393043F004038DF839300232114611F866
:10453000010B6A2800F0B68077D84C2800F0BA80CA
:1045400068287FD09DF839306FF3C6038DF8393075
:10455000114682E00BF1020202928DF83B309DF889
:104560003930D90740F10E8154F8048BB8F1000FAF
:1045700007DA9DF8382042F004028DF83820C8F19F
:1045800000085A0740F1078154F8047B002F80F29D
:1045900006819DF839306FF341038DF839304FF0C3
:1045A000FF37FCE02D2B06D0302B8BD19DF8383017
:1045B00043F0400303E09DF8383043F004038DF8E6
:1045C000383072E79DF8383043F00803F7E79DF87C
:1045D000383043F01003F2E79DF8383043F0200301
:1045E000EDE705A8FFF7D8FE059AB24285D09DF801
:1045F00038300F9043F08003C3F3400141EAD0719B
:1046000061F341038DF8383077E705A8FFF7C4FE62
:104610009DF838301090C3F3400242EAD07262F342
:1046200041038DF83830059A80E774289DF83930B9
:104630003ED07A283AD06C2884D150786C282FD17B
:10464000042105E05378682B9DF8393022D10121EF
:1046500061F3C6038DF83930911C0B4613F8012B1A
:104660000293672A8DF83B209DF839303DD8652AA2
:1046700032D2582A74D02AD8412A2DD002D3453AB2
:10468000022A29D99DF8383043F001038DF83830DB
:10469000002348E0022262F3C6038DF83930DCE7DC
:1046A0000322F8E79DF839300522F4E70622F2E705
:1046B0000722F0E7BDF8383023F4F04323F002037B
:1046C00043F4804343F00203ADF83830C5E7632A72
:1046D00046D012D8612AD5D19DF83A30042262F32F
:1046E00002038DF83A3001231DE0702A2BD024D824
:1046F0006E2A39D034D8692AC4D19DF83A100120E5
:1047000003F0780360F30201402B8DF83A1002BFEA
:104710009DF8381041F001018DF83810632AB7D1A7
:10472000003318BF01239DF83820C2F340010B432A
:1047300063F341028DF8382011E7752A10D0782AEA
:104740000ED0732A9ED19DF83A20032113F0780FE2
:1047500061F302028DF83A2014BF01230023E2E73F
:104760009DF83A100220CBE79DF83A2003F0780339
:10477000A3F14000032161F3020243428DF83A2085
:104780004341D0E79DF93820002AB4BFDDF83C80D2
:104790004FF0FF38F5E69F077FF501AF109F9DF8BA
:1047A0003A200023CDE90F3302F007029DF839309B
:1047B000012AC3F3C30337D1DA1E042A21D8DFE864
:1047C00002F003070720200054F8040BC11704E08F
:1047D000073424F00704F4E80201CDE90C019DF848
:1047E000382012F0030655D0029B5A4651464846DF
:1047F00028F061FF0028C0F21C810544DDF808B0F4
:1048000038E654F8040B012B4FEAE071CDE90C01B6
:1048100005D19DF830200C9200220D92DFE7022B8B
:10482000DDD1BDF93000D1E7022A23D1DA1E042AF6
:1048300013D8DFE802F0030A0A12120020680C9075
:104840000021221D0D911446C9E7073424F0070208
:10485000F2E80201CDE90C01F5E754F8042B0C92C3
:10486000012B4FF000020D92D3D0022BB7D1BDF82F
:104870003020D0E7042A07D1073424F00704F4E8F5
:104880000201CDE90C01AAE7032A04BF54F8042B66
:104890000C92A4E79DF83B006E2800F0A4803AD863
:1048A00063286ED020D825283FF4EEAD5828A5D136
:1048B0000DF12E0300930EAA06ABDDE90C01FFF704
:1048C0007FFD8346002F0DF12E000BDB9DF8382075
:1048D000A0EB0B036FF386129F428DF8382001D9AD
:1048E000FF1A0F97074644E0642801D0692885D154
:1048F000160776D412F0100618BF2026DDE90C2327
:10490000002A73F10001D3DA524263EB4303CDE98D
:104910000C232D26CCE7732820D01BD86F28C7D0B6
:1049200070287FF46BAF0C98002871D00DF12E0326
:1049300000930EAA06AB3146FFF742FDBDF83A30B0
:1049400003F0EF0343F4F04343F010038346ADF864
:104950003A30B7E77528ABD07828A8E7002FDDF804
:1049600030B00ADB3946584630F015F90BEB00073A
:104970000026BBF1000F0BD140E75846FCF7FCFCCA
:10498000F4E70C9B8DF818300DF119070DF1180B99
:10499000A7EB0B0306B101339DF83A20D0063CD5B6
:1049A000023352060F9948BF109A0B4448BF9B1818
:1049B000B8F1000F4ADD9DF83820A8EB0308C2F3D8
:1049C00080030393002B41D1500635D53EB15146AB
:1049D0003046C84700282CDB039B01351E46302398
:1049E0002BE02B268AE70C9A072B3FF607AFDFE870
:1049F00003F00D04060D08080D0D1570FEE6158078
:104A0000FCE62846E917C2E90001F7E61560F5E67D
:104A10002E4F0646A7F1050BBAE7110748BF013331
:104A2000BFE7184651460393C84700284246039BF8
:104A300005DA13B0BDE8F08F202342464544002A32
:104A4000A5EB020102F1FF38EBDC0D462EB1514619
:104A50003046C8470028ECDB01359DF83A30D906CE
:104A600001D41A0705D551463020C8470028E0DB9D
:104A700001359DF83A30DB0606D551469DF83B00DE
:104A8000C8470028D5DB01350F9E2E44731B002B31
:104A900015DC3B465A465146484628F00CFE002895
:104AA000C7DB0544A844A8EB0503002B7FF7A6AE9F
:104AB00051462020C8470028BBDB0135F3E75146AB
:104AC0003020C8470028B4DB0135DFE7C36C0300A2
:104AD0002DE9F7430F4681460821C06A124E28F09F
:104AE0007CFE3C68241A80463C6004EA0605AC4221
:104AF00003D8002003B0BDE8F08308236A462146AE
:104B0000484628F0F9FD0028F4D1684628F050FE08
:104B100038B9BDF80230BDF804203C60354013447C
:104B20001D44A4EB0804E2E70000FFFF2DE9F04F6D
:104B3000044693B00821C06A28F04FFE63681B0C3E
:104B40001B04814601A9E089019328F050FE019BD6
:104B5000A18904AD1944A1EB09012A460823204686
:104B6000029128F0C9FD021EC0F29580E36A1A790D
:104B70000023E95C91427FD10133082BF9D10199DF
:104B8000204628F03EFE024685E0029BBDF812203A
:104B90001B0C1B0413440293DFF804B1DDF808A0DA
:104BA00006AA02A9204628F054FE0246002872D127
:104BB00006A828F0FDFD002835D16368039308AAF4
:104BC00003A92046039D28F044FE0246002862D136
:104BD000BDF82020BDF818309A4227D06268039BA8
:104BE0009A42ECD155451ED1BDF81C30DBB1BDF861
:104BF0001A300AEA0B071F4406A8A368ADF81A305A
:104C000028F0E2FDE36ABDF81C801E68764206F0DB
:104C10002006B8F1000F0FD106A9204628F0B2FEF9
:104C20000246002837D1CA45B8D1A8E708A828F01D
:104C3000BFFD0028D2D1D5E74645354628BF4546B9
:104C40000AAA2B463946204628F056FD024610BBDC
:104C500035B10AAA2B46A168204628F04AFE024632
:104C60002946E06A28F0B9FDA3681844A06092B90B
:104C7000A8EB05082F44CCE7029B2846A3EB0909C3
:104C800028F096FD002880D002A92046FFF720FFDB
:104C90000246002880D0104613B0BDE8F08F00BF58
:104CA0000000FFFF2DE9F047044686B00D4600F1F5
:104CB000140630462FF001FD284623F0B9FAA06211
:104CC00048B94521884828F093FA6FF00505284631
:104CD00006B0BDE8F08783681B699847E06230B989
:104CE0008248452128F084FA6FF01505EFE7A06AA5
:104CF00083681B6998470368013B1F2B02D9452134
:104D00007B48EFE7A06A216803AA2FF01BF910B1D6
:104D100045217848E6E7A3892BB1049AB3FBF2F565
:104D200002FB153515B145217348DBE7E389012BFB
:104D300002D845217148D5E7E36A009593F80490BD
:104D40004FF0FF324FF0FF33304623F09DFD082136
:104D5000E06A28F042FD2F468046E3891FFA85FA73
:104D6000534565D8E389BB4200F0A28053450CD17E
:104D7000009908234A46A1EB0801204628F0F3FCDD
:104D800018B96946E08928F032FD009B5C4FA3EB1F
:104D900008023B406260A360D4E9011399420ED33C
:104DA000082301AA204628F0A7FC054618BB01AB42
:104DB00013F8012B91457ED10135082DF8D1D4E9A6
:104DC00001318B4207D95B1A4A46204628F0CBFCBA
:104DD000051E10DB50D16368494FE0893B406946AE
:104DE000009328F004FDA38900994A46204628F044
:104DF000BAFC051E46DA304623F01AFE002D7FF479
:104E000066AF01232374E289A3893E48492128F033
:104E1000EFF962683C4893B24921120C28F0E8F996
:104E2000A2683A4893B24921120C28F0E1F94EE702
:104E3000A1892B04A1EB080113FA81F14A4608234A
:104E40002046009128F08FFC70B16946E08928F077
:104E5000CEFC013708234A4600992046BFB228F00D
:104E600082FC00283FF47EAF013576E7BAF1000FEF
:104E700036D06FF01C05BEE7E26AA36812681344DF
:104E8000A3609CE7B7D06168204628F0BAFC0546CD
:104E90000028B0D16068A38938401844A0EB4800CE
:104EA00060603840A0602046FFF740FE0546A2E75C
:104EB0006FF02C059FE701A828F07AFC656878B9A7
:104EC000009ABDF80600BDF808A03A400244A2606E
:104ED0005146E06A28F081FC1044A842A060C5D089
:104EE000A5EB0805656057E7DD6C0300FE6C030069
:104EF000256D0300476D0300646D03007D6D0300A5
:104F00000000FFFFA56D0300C16D0300D86D030015
:104F10002DE9F04F1E46037C89B004468946904631
:104F20004BB94521654828F063F96FF00C05284618
:104F300009B0BDE8F08FC26A0821104628F04DFC88
:104F400031468246104628F048FCA3890AEB4A0203
:104F50009B1AB3420746C0F0AB801EB1B8F1000FF8
:104F600000F0A6806368039304AA03A92046DDF835
:104F70000CB028F06EFC05460028D8D1BDF81030E2
:104F80004B4505D06268039B9A42EDD1DEB9CEE76E
:104F900004A828F00DFC0028F4D1BDF8143086B127
:104FA000B34210D1BDF812004FEA1B41090401447D
:104FB00033464246204628F0ADFB002803DC054678
:104FC000B5E7002BB3D0002F3FD104F1140A4FF006
:104FD000FF334FF0FF325046DFF8E4B023F054FCCB
:104FE0000023E289934260D0D4E9012178188242FB
:104FF0002ED3FF2306A8ADF81890ADF81A10ADF81F
:105000001C608DF81E3028F0DFFB36B13346424677
:10501000A168204628F06DFC05463146E06A28F07C
:10502000DCFBA3681844A060002D44D106A92046EB
:1050300028F0A8FC054600283DD132460192504692
:1050400023F0F6FC019A154671E75744BFB2BCE75E
:105050000821E06A019328F0C0FB4FF6FF71ADF81C
:1050600018100021ADF81C101118ADF81A10A18904
:1050700002EA0B020A44121A626006A828F0A4FB96
:1050800006A9204628F07EFC211DE08928F0AFFB10
:10509000626802EA0B02A2602046FFF747FD024663
:1050A0000028CBD1019B01339BE76FF01B02C5E7C2
:1050B0006FF015053BE72A46C0E700BFC46C03004C
:1050C0000000FFFF2DE9FF471F46037CBDF830803D
:1050D00004468A46914643B92648452128F088F877
:1050E0006FF00C0004B0BDE8F0870821C06A28F01A
:1050F00074FBA389A3EB4000B84238D363680193E3
:10510000002502AA01A92046019E28F0A2FB002842
:10511000E8D1BDF80830534505D102A828F048FB76
:1051200008B90135ADB26268019B9A4218D0454575
:10513000E7D9BDF80C30BBB1454515D3BDF80A0021
:10514000310CBB424FEA014128BF3B4601444A466D
:10515000204628F0D1FA0028C4D1BDF80C00C1E7E0
:10516000BDF808305345E4D06FF00100BAE76FF0A6
:105170001500B7E7C46C0300084B30B51D68084B39
:10518000196800239D4202DC0022104630BD1C013C
:105190000A190C5D8442F8D00133F3E7A0560300EE
:1051A0000C050020084B1B6810B50C462BB1FFF70F
:1051B000E3FF28B12060002010BD6FF00C00FBE77A
:1051C0006FF00100F8E700BF0C05002030B589B092
:1051D0000C4615460190FFF7CFFFB8B14368029324
:1051E00083682268C068CDE9033500230593CDE9C3
:1051F000062328F0E3FB60B101AA07492EF0A6FEC2
:10520000079808B9059B236009B030BD6FF0150001
:10521000FAE76FF01200F7E7C1D902000F4B2DE952
:10522000F0411C6806460F469046A4B14FF0FF328D
:105230004FF0FF330A4823F027FB63683A469D6826
:10524000314643462046A8470446054823F0F0FB74
:105250002046BDE8F0816FF00104F9E7641E0020EC
:10526000E40F002000230360044B5A6812B9C3E91D
:105270000000704710605860704700BF5C1E00203F
:10528000014B1860704700BF641E002030B585B028
:1052900000230546CDE9023301904FF0FF334FF074
:1052A000FF320B4823F0F0FA0A4B1C6834B16368F4
:1052B00020461B6801A998472468F7E7284600F0B4
:1052C000CBF80446024823F0B3FB204605B030BDBE
:1052D000E40F00205C1E00201FB5CDE90101039200
:1052E0004FF0FF334FF0FF32094823F0CDFA094B5E
:1052F0001C6834B1636820461B6801A9984724687C
:10530000F7E7034823F094FB002004B010BD00BF72
:10531000E40F00205C1E0020024B0022C3E90022A3
:10532000704700BF5C1E0020024B0022C3E9002230
:10533000FFF7F2BF681E00202DE9F34707460E462F
:1053400009B100230B60DFF89880224CDFF89490BD
:105350000025C246444508D949461F48942227F0F3
:1053600047FF9421484628F0BCF9544508D31B4B0D
:105370001C680CB1143CC4B9284602B0BDE8F087E3
:1053800001AA2168384628F040FB60B125B90EB16A
:10539000019B3360254606E000222968206828F03A
:1053A00034FB0028F3D11434D4E701AA216838462D
:1053B00028F02BFB60B125B90EB1019B3360254667
:1053C00006E000222968206828F01FFB0028F3D19E
:1053D0006469CEE7A85003003A6A0300681E002003
:1053E000FC510300326E03002DE9F04385B0054601
:1053F0000C9C03900E4617469846B4B1216879B1CB
:1054000003AA28F002FB58B9002006E0A368009325
:105410003A46434631460398C84705B0BDE8F08395
:10542000D4F80490B9F1000FF0D103A92846FFF792
:1054300083FF0028E8D08468039843463A46314603
:10544000A04703460028DFD02A464521014827F01F
:10545000CFFED9E7086E03002DE9F8431F4F204C1B
:10546000DFF8888006460025B946BC4208D9414687
:105470001C48F42227F0BCFEF421404628F031F904
:105480004C4507D3184B1C680CB1143CA4B92846F2
:10549000BDE8F8831EB9E3684BB91434E5E7002290
:1054A0003146206828F0B1FA0028F4D1F5E7984792
:1054B000002D08BF0546F0E71EB9E3684BB96469E3
:1054C000E2E700223146206828F09FFA0028F4D154
:1054D000F5E79847002D08BF0546F0E7FC510300AB
:1054E000A85003003A6A0300681E0020326E0300D1
:1054F00010B5064C23783BB9FFF716FF00F064F8AF
:1055000008B90123237010BD0020FCE7A04B002048
:105510002DE9F047048FDFF8AC90013498B0804655
:105520008A46A4B200F10806651EADB2B5F5004F7B
:1055300045D04A2305AA2946304628F038FA04F512
:105540007F543F34A4B20746214601230DF10B02DC
:10555000304628F02CFA002F014603DC002803DC3B
:105560002C46E1E7002816DCB8F83830AB4209D108
:1055700042466B1E22F8383F4FF40041022330466A
:10558000FFF7C6FC2946304628F00DFA2146304682
:1055900028F009FAE4E718AB1F44002307F84C3C55
:1055A0004A46CDF800A003AB05A80396ADF810401D
:1055B000FFF71AFF0028D3D018B0BDE8F08700200D
:1055C000FAE700BF77DA02007FB5012369460420BD
:1055D0000193FFF7E7FD0446002837D102AA01A98D
:1055E0000420FFF7F3FD10F1130F04462ED040B155
:1055F00010F10C0405D0404080F311884FF00400F6
:1056000002DF0399B1F5803F23D2009A0023956809
:105610001846084485429CB203D30133082BF8D1C5
:105620001C460D4D5368AB602846D368EC82A982B6
:10563000EB6328F0B7FA044640B9084E6E6028467E
:10564000FFF710FE28466E60FFF71AFE204604B0F2
:1056500070BD6FF02004F9E7701E002010050020D7
:1056600008B504464FF02002EFF3118382F311884E
:10567000BFF36F8F28F040FB204601F0B5FB0348D5
:1056800027F0B6FD00F046FFFCE700BF6A6E03009E
:1056900010B50748074C22F0CBFD074B1860204699
:1056A00001F028FB2046FEF721FA002010BD00BFC4
:1056B000936E0300BD560000B01E00200A2838B5C6
:1056C0000446074D04D1286883680D215B6898471C
:1056D00028688368E1B25B689847204638BD00BF00
:1056E000B01E00202DE9F0410E4C051BC5F34713F9
:1056F0000C255D43074605F148000E462044402135
:1057000028F06CFA011E08DB074B2C44C4E9103664
:10571000064B5B59BDE8F041184738463346BDE8B3
:10572000F0411847C41E00203FDC0200B8560300B9
:1057300038B5CCB2012C054608D9084908487E2264
:1057400027F056FD7E21054827F0CBFFEB680C21A2
:1057500004FB0131886C00F0070038BD9A6E03002D
:105760003A6A0300F8B5CCB2012C05461746C66864
:105770000AD91849184840F2531227F039FD40F26F
:105780005311144827F0ADFF4FF02003EFF31181C0
:1057900083F31188BFF36F8F0C2303FB0462926CB9
:1057A00012F0C00201D0974211D103FB0463012221
:1057B0009A64002081F31188BFF36F8F30B96B6852
:1057C0000C2202FB0434636898470020F8BD4FF0B8
:1057D000FF30EFE79A6E03003A6A030070B50D469A
:1057E0000649411A0446491140220548FFF7BAFF0D
:1057F0002B4601462046BDE870401847C41E0020D5
:10580000F40D0020002270B501210446104600F07E
:10581000F5FD002000F0C0FD0F4821F0ABFB0F4B61
:10582000984215D121F0C6FBE6680D49304627F0B5
:105830003AFD00280BDB0125B564E468084904F152
:10584000200027F030FD002801DB6565002070BDD9
:105850006FF00400FBE700BF995800000000AD0B9B
:10586000D056030001460C2309484B4370B5C418B9
:10587000D4E91056002248332264184428F0CCF9A9
:105880002DB132462B460348BDE87040184770BD25
:10589000C41E0020F40D0020012808B510D050B11E
:1058A000032811D00F49104840F26A2227F0A0FCCB
:1058B00040F26A2110E00D4B986C10F0070010D1F7
:1058C000BDE80840FFF7CEBF0649074840F2662210
:1058D00027F08EFC40F266210248BDE8084027F020
:1058E00000BF08BD9A6E03003A6A0300C41E002080
:1058F00008B54FF02003EFF3118183F31188BFF354
:105900006F8F124A136843F0020013F00103106016
:105910000CD04FF08042D2F80C34D2F80C2413F0A3
:10592000010303D00A4828F077F9012381F3118895
:10593000BFF36F8F23B10020BDE80840FFF792BF8F
:105940000120BDE8084021F051BB00BF1C1F002012
:105950000C1F0020094BBFF35B8F53E8002F22F090
:10596000020143E800100028F7D1BFF35B8FD30793
:1059700002D4012021F088BB704700BF1C1F00200B
:105980007FB500220123CDE9022304ABCDE9043326
:10599000094ACDF800D06B46CDF804D028F061F963
:1059A000002805DB4FF480420023684624F02EFBDC
:1059B00007B05DF804FB00BF5DDC0200024BC0B223
:1059C00003EB4010704700BFC41E0020094BBFF31B
:1059D0005B8F53E8002F42F0010143E800100028DC
:1059E000F7D1BFF35B8F930702D4012021F0FEBAF9
:1059F000704700BF1C1F0020094BBFF35B8F53E8AB
:105A0000002F22F0010143E800100028F7D1BFF376
:105A10005B8F930702D4012021F036BB704700BF93
:105A20001C1F00202DE9F8434749BFF35B8F054653
:105A3000012251E8003F41E800200028F9D1BFF3DE
:105A40005B8F9BB9414942484B60CB608A60FEF74F
:105A500055FA00280ADA3F493F4840F2262227F04B
:105A6000C7FB40F226213B4827F03BFE95B3022DB1
:105A700054D8012D07D14FF08043D3F81C3403F0E4
:105A80000303012B26D02EF0A1FE18B9334B1B784F
:105A9000002B50D14FF02003EFF3118983F31188CD
:105AA000BFF36F8F01242E4E2E4FDFF8BC804FF0D6
:105AB0008042D2F81834D2F81824D2030CD503F05F
:105AC0000303012B01D0012D06D10CB389F31188FA
:105AD000BFF36F8FBDE8F883ACB1484600F028FDF6
