:10000000602B0020F56A000083B40100496B0000FA
:10001000496B0000496B0000496B000000000000C4
:10002000000000000000000000000000A5680000C3
:10003000496B0000000000005168000067B4010037
:10004000B56A0000B56A0000B56A0000B56A000034
:10005000B56A0000B56A0000B56A0000B56A000024
:10006000B56A0000B56A0000B56A0000B56A000014
:10007000B56A0000B56A0000B56A0000B56A000004
:10008000B56A0000B56A0000B56A0000B56A0000F4
:10009000B56A0000B56A0000B56A0000B56A0000E4
:1000A000B56A0000B56A0000B56A0000B56A0000D4
:1000B000B56A0000B56A0000B56A0000B56A0000C4
:1000C000B56A0000B56A0000B56A0000B56A0000B4
:1000D000B56A0000B56A0000B56A0000B56A0000A4
:1000E000B56A0000B56A0000B56A0000B56A000094
:1000F000B56A0000B56A0000B56A0000B56A000084
:1001000001F0FF01102A2BDB10F0070F08D010F8C8
:10011000013B013A8B422DD010F0070F42B3F6D1CC
:10012000F0B441EA012141EA014122F007047FF0E5
:1001300000070023F0E80256083C85EA010586EA3C
:10014000010685FA47F5A3FA87F586FA47F6A5FA78
:1001500087F68EB9EED1F0BC01F0FF0102F0070284
:1001600032B110F8013B013A83EA010313B1F8D12F
:100170000020704701387047002D06BF3546033810
:10018000073815F0010F07D1013015F4807F02BF49
:10019000013015F4C03F0130F0BC0138704700BF9A
:1001A00081F0004102E000BF83F0004330B54FEA28
:1001B00041044FEA430594EA050F08BF90EA020F95
:1001C0001FBF54EA000C55EA020C7FEA645C7FEA28
:1001D000655C00F0E2804FEA5454D4EB5555B8BF4B
:1001E0006D420CDD2C4480EA020281EA030382EABC
:1001F000000083EA010180EA020281EA0303362D4E
:1002000088BF30BD11F0004F4FEA01314FF4801C20
:100210004CEA113102D0404261EB410113F0004F32
:100220004FEA03334CEA133302D0524263EB4303E9
:1002300094EA050F00F0A780A4F10104D5F1200E87
:100240000DDB02FA0EFC22FA05F2801841F10001E2
:1002500003FA0EF2801843FA05F359410EE0A5F1B6
:1002600020050EF1200E012A03FA0EFC28BF4CF0E7
:10027000020C43FA05F3C01851EBE37101F000459D
:1002800007D54FF0000EDCF1000C7EEB00006EEBAA
:100290000101B1F5801F1BD3B1F5001F0CD3490834
:1002A0005FEA30004FEA3C0C04F101044FEA44528B
:1002B00012F5800F80F09A80BCF1004F08BF5FEA12
:1002C000500C50F1000041EB045141EA050130BDF2
:1002D0005FEA4C0C404141EB0101013C28BFB1F504
:1002E000801FE9D291F0000F04BF01460020B1FA4F
:1002F00081F308BF2033A3F10B03B3F120020CDA22
:100300000C3208DD02F1140CC2F10C0201FA0CF0FF
:1003100021FA02F10CE002F11402D8BFC2F1200C64
:1003200001FA02F120FA0CFCDCBF41EA0C0190401A
:10033000E41AA2BF01EB0451294330BD6FEA040463
:100340001F3C1CDA0C340EDC04F11404C4F120024E
:1003500020FA04F001FA02F340EA030021FA04F360
:1003600045EA030130BDC4F10C04C4F1200220FAB7
:1003700002F001FA04F340EA0300294630BD21FAF5
:1003800004F0294630BD94F0000F83F4801306BFBB
:1003900081F480110134013D4EE77FEA645C18BFAF
:1003A0007FEA655C29D094EA050F08BF90EA020F46
:1003B00005D054EA000C04BF1946104630BD91EA3E
:1003C000030F1EBF0021002030BD5FEA545C05D141
:1003D0004000494128BF41F0004130BD14F5800480
:1003E0003CBF01F5801130BD01F0004545F0FE41F4
:1003F00041F470014FF0000030BD7FEA645C1ABF29
:10040000194610467FEA655C1CBF0B46024650EA5F
:10041000013406BF52EA033591EA030F41F400218B
:1004200030BD00BF90F0000F04BF0021704730B511
:100430004FF4806404F132044FF000054FF00001E6
:1004400050E700BF90F0000F04BF0021704730B5A7
:100450004FF4806404F1320410F0004548BF40427C
:100460004FF000013EE700BF42004FEAE2014FEAD1
:1004700031014FEA02701FBF12F07F4393F07F4FAC
:1004800081F06051704732F07F4208BF704793F0AF
:100490007F4F04BF41F40021704730B54FF46074C2
:1004A00001F0004521F000411CE700BF50EA0102C5
:1004B00008BF704730B54FF000050AE050EA01026E
:1004C00008BF704730B511F0004502D5404261EBDE
:1004D00041014FF4806404F132045FEA915C3FF41F
:1004E000D8AE4FF003025FEADC0C18BF03325FEABC
:1004F000DC0C18BF033202EBDC02C2F1200300FA6D
:1005000003FC20FA02F001FA03FE40EA0E0021FA91
:1005100002F11444BDE600BF70B54FF0FF0C4CF47F
:10052000E06C1CEA11541DBF1CEA135594EA0C0F31
:1005300095EA0C0F00F0DEF82C4481EA030621EA6C
:100540004C5123EA4C5350EA013518BF52EA0335A7
:1005500041F4801143F4801338D0A0FB02CE4FF059
:100560000005E1FB02E506F00042E0FB03E54FF089
:100570000006E1FB03569CF0000F18BF4EF0010E81
:10058000A4F1FF04B6F5007F64F5407404D25FEA7D
:100590004E0E6D4146EB060642EAC62141EA555130
:1005A0004FEAC52040EA5E504FEACE2EB4F1FD0C72
:1005B00088BFBCF5E06F1ED8BEF1004F08BF5FEAF0
:1005C000500E50F1000041EB045170BD06F00046A2
:1005D00046EA010140EA020081EA0301B4EB5C044F
:1005E000C2BFD4EB0C0541EA045170BD41F4801147
:1005F0004FF0000E013C00F3AB8014F1360FDEBF6C
:10060000002001F0004170BDC4F10004203C35DA47
:100610000C341BDC04F11404C4F1200500FA05F3CA
:1006200020FA04F001FA05F240EA020001F000426B
:1006300021F0004110EBD37021FA04F642EB0601E1
:100640005EEA430E08BF20EAD37070BDC4F10C040B
:10065000C4F1200500FA04F320FA05F001FA04F2CF
:1006600040EA020001F0004110EBD37041F10001BB
:100670005EEA430E08BF20EAD37070BDC4F12005C6
:1006800000FA05F24EEA020E20FA04F301FA05F22E
:1006900043EA020321FA04F001F0004121FA04F2D6
:1006A00020EA020000EBD3705EEA430E08BF20EAA6
:1006B000D37070BD94F0000F0FD101F000464000E0
:1006C00041EB010111F4801F08BF013CF7D041EA62
:1006D000060195F0000F18BF704703F00046520066
:1006E00043EB030313F4801F08BF013DF7D043EA37
:1006F0000603704794EA0C0F0CEA135518BF95EAED
:100700000C0F0CD050EA410618BF52EA4306D1D173
:1007100081EA030101F000414FF0000070BD50EA92
:10072000410606BF1046194652EA430619D094EA1C
:100730000C0F02D150EA013613D195EA0C0F05D106
:1007400052EA03361CBF104619460AD181EA03015A
:1007500001F0004141F0FE4141F470014FF0000012
:1007600070BD41F0FE4141F4780170BD70B54FF0AD
:10077000FF0C4CF4E06C1CEA11541DBF1CEA13552D
:1007800094EA0C0F95EA0C0F00F0A7F8A4EB05040F
:1007900081EA030E52EA03354FEA013100F0888006
:1007A0004FEA03334FF0805545EA131343EA1263CF
:1007B0004FEA022245EA111545EA10654FEA002684
:1007C0000EF000419D4208BF964244F1FD0404F53D
:1007D000407402D25B084FEA3202B61A65EB030599
:1007E0005B084FEA32024FF480104FF4002CB6EB56
:1007F000020E75EB030E22BFB61A754640EA0C00D6
:100800005B084FEA3202B6EB020E75EB030E22BF15
:10081000B61A754640EA5C005B084FEA3202B6EB56
:10082000020E75EB030E22BFB61A754640EA9C0015
:100830005B084FEA3202B6EB020E75EB030E22BFE5
:10084000B61A754640EADC0055EA060E18D04FEAA3
:10085000051545EA16754FEA06164FEAC30343EA43
:1008600052734FEAC2025FEA1C1CC0D111F4801F10
:100870000BD141EA00014FF000004FF0004CB6E709
:1008800011F4801F04BF01430020B4F1FD0C88BFA8
:10089000BCF5E06F3FF6AFAEB5EB030C04BFB6EBB3
:1008A000020C5FEA500C50F1000041EB045170BDA6
:1008B0000EF0004E4EEA113114EB5C04C2BFD4EBD3
:1008C0000C0541EA045170BD41F480114FF0000E57
:1008D000013C90E645EA060E8DE60CEA135594EAD3
:1008E0000C0F08BF95EA0C0F3FF43BAF94EA0C0FD6
:1008F0000AD150EA01347FF434AF95EA0C0F7FF44B
:1009000025AF104619462CE795EA0C0F06D152EA9E
:1009100003353FF4FDAE1046194622E750EA410682
:1009200018BF52EA43067FF4C5AE50EA41047FF493
:100930000DAF52EA43057FF4EBAE12E74FEA4102F6
:1009400012F5001215D211D56FF47873B3EB625221
:1009500012D94FEAC12343F0004343EA505311F048
:10096000004F23FA02F018BF404270474FF00000DA
:10097000704750EA013005D111F0004008BF6FF018
:10098000004070474FF00000704700BF4A0011D28E
:1009900012F5001211D20DD56FF47873B3EB6252D9
:1009A0000ED44FEAC12343F0004343EA505323FAE5
:1009B00002F070474FF00000704750EA013002D15A
:1009C0004FF0FF3070474FF0000070474FEA400291
:1009D000B2F1FE4F0FD34FF09E03B3EB12620DD96D
:1009E0004FEA002343F0004310F0004F23FA02F0D7
:1009F00018BF404270474FF00000704712F1610F7E
:100A000001D1420205D110F0004008BF6FF0004054
:100A100070474FF0000070477BB972B90029BEBF24
:100A200000204FF0004106E008BF00281CBF6FF017
:100A300000414FF0FF3000F0B7B9ADF1080C6DE99F
:100A400004CE002909DB002B1ADB00F04DF8DDF89D
:100A500004E0DDE9022304B07047404261EB41014C
:100A6000002B1BDB00F040F8DDF804E0DDE9022399
:100A700004B0404261EB4101524263EB43037047D3
:100A8000524263EB430300F02FF8DDF804E0DDE9A8
:100A9000022304B0404261EB41017047524263EBD4
:100AA000430300F021F8DDF804E0DDE9022304B09F
:100AB000524263EB4303704753B94AB9002908BF58
:100AC00000281CBF4FF0FF314FF0FF3000F06CB931
:100AD000ADF1080C6DE904CE00F006F8DDF804E095
:100AE000DDE9022304B070472DE9F047089E0D466A
:100AF00004468E46002B40F082808A42174646D933
:100B0000B2FA82F24AB1C2F1200105FA02F320FAE8
:100B100001F1974041EA030E94404FEA1748230C35
:100B2000BEFBF8FCB9B208FB1CEE43EA0E430CFB1B
:100B300001F098420AD9FB180CF1FF3580F01681BC
:100B4000984240F21381ACF1020C3B441B1AA4B250
:100B5000B3FBF8F008FB103344EA034400FB01F157
:100B6000A14209D93C1900F1FF3380F00181A14273
:100B700040F2FE8002383C44641A40EA0C400021F6
:100B80001EB1D4400023C6E90043BDE8F08702B996
:100B9000FFDEB2FA82F2002A4FD1CB1B4FEA174E8A
:100BA0001FFA87F80121B3FBFEFC250C0EFB1C335A
:100BB00045EA034508FB0CF3AB4207D97D190CF15C
:100BC000FF3002D2AB4200F2E7808446ED1AA3B2B6
:100BD000B5FBFEF00EFB105543EA054408FB00F898
:100BE000A04507D93C1900F1FF3302D2A04500F21D
:100BF000D7801846A4EB080440EA0C40C0E78B42BB
:100C000008D9002E00F0AF800021C6E90005084693
:100C1000BDE8F087B3FA83F100294BD1AB4202D390
:100C2000824200F2B780841A65EB030301209E46DE
:100C3000002EAAD0C6E9004EA7E7C2F1200C01FAA7
:100C400002F3974020FA0CF04FEA174E21FA0CFC01
:100C50001843BCFBFEF1050C0EFB11CC1FFA87F804
:100C600045EA0C4501FB08F3AB4204FA02F409D94A
:100C70007D1901F1FF3C80F08B80AB4240F288800F
:100C800002393D44EB1A85B2B3FBFEF00EFB103384
:100C900045EA034500FB08F3AB4207D97D1900F193
:100CA000FF3C71D2AB426FD902383D44EB1A40EAA7
:100CB000014178E7C1F1200C8B4022FA0CF71F4369
:100CC00020FA0CF405FA01F34FEA174E25FA0CF559
:100CD0001C43230CB5FBFEF91FFA87F80EFB1955D0
:100CE00043EA054509FB08FAAA4502FA01F200FAAF
:100CF00001F308D97D1909F1FF3047D2AA4545D93A
:100D0000A9F102093D44A5EB0A05A4B2B5FBFEF02A
:100D10000EFB105544EA054400FB08F8A04507D92E
:100D20003C1900F1FF352DD2A0452BD902383C44A7
:100D300040EA0940A4EB0804A0FB02894C45C646E2
:100D40004D4619D316D05EB1B3EB0E0264EB050429
:100D500004FA0CFCCA404CEA0202CC40C6E900246A
:100D60000021BDE8F087314630460EE7AC46EDE69F
:100D7000184601E74345E6D2B8EB020E69EB0705DA
:100D80000138E0E72846D3E760468FE78146BAE7B7
:100D9000614677E708464BE7ACF1020C3D4415E7A6
:100DA00002383C4426E700BF704700BF10F8012B13
:100DB00011F8013B012A28BF9A42F7D0D01A704798
:100DC000034613F8012B002AFBD1181A013870478B
:100DD000836801491B6818472C050020F0B50D46B3
:100DE0000D4904460020E60946EA4566EF0904F08D
:100DF0007F033D46344654EA050618BF63F07F037F
:100E00000B700B781354013054EA0503C0B2EAD1D9
:100E1000024B1870F0BD00BF3610002037100020C4
:100E200070B52D4D064629782C4819F0ADFC324698
:100E300028780021FFF7D2FF2B78DA07044606D581
:100E4000274B321800211888FFF7C8FF04442B787D
:100E50009B0706D5224B321958880021FFF7BEFFA9
:100E600004442B78580706D51D4B32199888002169
:100E7000FFF7B4FF04442B78190706D5184B321935
:100E800098680021FFF7AAFF04442B78DA0606D5FC
:100E9000134B3219D8680021FFF7A0FF04442B78C8
:100EA0009B0606D50E4B321918690021FFF796FFF5
:100EB000044421460B4819F067FC31780A4819F0C0
:100EC00063FC7178094819F05FFCB178084819F0A3
:100ED0005BFC204670BD00BF371100207CD30100B1
:100EE0001805002089D30100A3D30100B8D3010065
:100EF000CDD301001FB50D4C05F044F820460BF092
:100F000071FE4FF4007120460BF072FE084818F095
:100F1000B0FF0023CDE9013300930123054843F2DC
:100F2000FF32194601F09AFF04B010BD38050020C9
:100F300068020020480500202DE9F04F874C884FBB
:100F400091B0254605F00EF8E288A388511C99421D
:100F5000C0B20CDD9B1A13F0FF0309D1814819F0D0
:100F600013FC7E480CF012F811B0BDE8F08F01239D
:100F70002968DFF8F4818854EA887B4813442146C5
:100F8000774AEB8018F025FE30B1784819F0FCFB69
:100F9000384618F0A9FFD5E73B7C002BD2D020467D
:100FA0000BF0F4FF3E78002ECCD108A80FF07FF9AB
:100FB0006F4D796B6F48704CDFF8F4A1DFF8F4B136
:100FC00019F0E2FB396A08AA404618F005FE0FCD79
:100FD0000FC42B68694D44F810392E7008F1980938
:100FE000B8F89E30B1B28B4206D15C480BF0CEFF10
:100FF0005B4818F079FFB7E707AA484618F0E7FE04
:10100000079AD17A93790491917A0391517A029156
:10101000117A0191D2790092132152460BA819F04E
:10102000C0FB079890F80BC08179037AC279CDF89C
:1010300008C090F80AC0CDF804C0407A0090584625
:1010400019F0A2FB4E490BA8FFF7B0FE88B9B1B268
:1010500006AA0131386A19F024F9069B4948198912
:1010600019F092FB069B1B8923802B7843F0010328
:101070002B7045490BA8FFF799FE88B9B1B206AAB3
:101080000131386A19F00DF9069B4048198919F0A9
:101090007BFB069B1B8963802B7843F002032B703C
:1010A0003B490BA8FFF782FE88B9B1B206AA01310D
:1010B000386A19F0F6F8069B3648198919F064FB6E
:1010C000069B1B89A3802B7843F004032B703249C5
:1010D0000BA8FFF76BFE88B9B1B206AA0131386AD6
:1010E00019F0DFF8069B2D48996819F04DFB069B17
:1010F0009B68A3602B7843F008032B7028490BA84A
:10110000FFF754FE88B9B1B206AA0131386A19F066
:10111000C8F8069B2348996819F036FB069B9B6824
:10112000E3602B7843F010032B701F490BA8FFF7E7
:101130003DFE88B9B1B206AA0131386A19F0B1F89A
:10114000069B1A48996819F01FFB069B9B68236150
:101150002B7843F020032B70013641E7380500203F
:1011600068020020E2D3010048050020F3D301000B
:1011700078C901000BD401001805002037110020A8
:101180004AD4010059D4010067D4010076D401008B
:1011900084D4010093D40100A1D40100AFD4010094
:1011A000C8D40100D6D40100F5D4010003D5010054
:1011B00021D4010033D4010008B5104809F0C0F86B
:1011C0000F4A106028B9BDE808400C490D4819F0D5
:1011D000DBBA0D4B0D4A1A604FF420629A8001224F
:1011E0009A710B4A9A60FFF7F3FD002804DABDE814
:1011F0000840084819F0C8BA08BD00BF22D5010050
:101200004405002029D501002C050020E060903322
:10121000080004013ED501002DE9F041DFF87C8093
:101220000646D8F800000C4620B91548BDE8F04144
:1012300019F0AABA134B4FF482725A81FFF7C8FD16
:10124000002801DA1048F1E722463146002019F063
:1012500055FA0E4F0E4B054618802246FF233146A5
:1012600038461AF04BFF3D53D8F800008368A21CA3
:101270005B68394698470028B4BF06480648D5E75A
:1012800052D501002C0500203ED501003810002069
:10129000341000206DD501007FD5010044050020E9
:1012A00000B50A48C1B019F06FFAFFF723FEFFF747
:1012B00083FF074819F068FAFFF73EFE6846FFF71C
:1012C000AFFD01466846FFF7A7FFF5E78BD50100A4
:1012D0009DD5010010B50446FFF7A4F802460B4661
:1012E00074B100224FF07F53FFF716F964070246EE
:1012F0000B4605D0054B0022FEF758FF02460B4671
:1013000010461946FFF742FB80B210BD0000F03FC7
:1013100070B50025061D0446C56105808570304600
:101320000BF060FC0D491022304604F110060BF062
:10133000A8FD30460BF056FC09490822304604F15E
:1013400020060BF09EFD30460BF04CFC05491022A8
:1013500030460BF096FDE56270BD00BFCBD50100B5
:10136000B3D50100BBD50100F0B50B681BBA036013
:101370004B681BBA43608B681BBA8360CB68802ABA
:101380001BBAC36034D1764C764900F1A005C2681F
:1013900014F8017B0668D3B286EA076651F8233059
:1013A00003F47F437340C2F30726103051F82660E0
:1013B00006F47F067340160E51F82660C6F3072622
:1013C0007340C2F3074651F82660360206F07F46A6
:1013D000734050F80C6C0360734050F8086C436025
:1013E000734083605340C3608542D0D10020F0BD7C
:1013F0000B691BBA03614B69C02A1BBA436141D117
:10140000574C584900F1A805426914F8017B066859
:10141000D3B286EA076651F8233003F47F43734062
:10142000C2F30726854251F8266006F47F0683EA58
:1014300006034FEA126651F82660C6F3072683EAD0
:101440000603C2F3074651F826604FEA062606F067
:101450007F4683EA06034668836183EA060386685B
:10146000C36183EA0603C668036283EA0603436234
:1014700001D10C20BBE70669734083625340C3620D
:101480001830C1E78B691BBA8361CB69B2F5807FE5
:101490001BBAC36161D1324C324A00F1C005C16947
:1014A00014F8017B0668CBB286EA076652F823304F
:1014B00003F47F437340C1F30726854252F8266048
:1014C00006F47F0683EA06034FEA116652F82660A7
:1014D000C6F3072683EA0603C1F3074652F82660DF
:1014E0004FEA062606F07F4683EA06034668036253
:1014F00083EA06038668436283EA0603C66883625A
:1015000083EA0603C36201D10E2070E7C3F3072606
:10151000DFB252F8266052F8277006F47F46C7F310
:1015200007273E4307697E401F0EC3F3074352F867
:10153000277052F823303F0207F07F4703F47F0300
:101540003B4373404669036373408669436373405A
:1015500059408363C1632030A1E74FF4817046E7AF
:10156000E3D501008CC901002DE9F04F146805682E
:101570005768966824BA6C4045683FBA6F408568E2
:1015800036BA6E40D568C2688BB02DBA55404A1045
:1015900001929346A44A84464FEA146E5FFA85F896
:1015A000DCF8101052F82EE052F828808EEA010E76
:1015B0008EEA386EC7F307485FFA84F952F828803C
:1015C000DCF8141052F829908EEA382EC6F307285A
:1015D0005FFA87FA52F8288052F82AA08EEA384E2D
:1015E0004FEA1768C7F3072752F8288088EA0108EE
:1015F00088EA3968C6F30749DCF8181052F82990D0
:1016000088EA3928C5F30729BBF1010B52F8299064
:1016100088EA39484FEA1669F6B252F8299052F82A
:10162000266089EA010989EA3A69C5F3074A4FEA5F
:10163000156552F82AA0DCF81C1052F8255089EAEA
:101640003A29C4F3072AC4F3074485EA010552F88E
:10165000244052F82AA085EA366585EA342552F8F6
:10166000274085EA34454FEA156689EA3A4952F837
:1016700026100291CEF307465CF8204F52F8261050
:101680000391C8F3072652F8261004915FFA89F6F1
:1016900052F8261005915FFA88F652F82610069146
:1016A000CEF3072652F826100791C5F3074652F8E5
:1016B000261008914FEA196652F8261009915FFA30
:1016C0008EF64FEA1E6E52F8267052F82EE0C5F3E1
:1016D0000726EDB252F826A052F82550C9F3074666
:1016E000C9F3072952F8261052F829904FEA1866D4
:1016F000C8F3074852F8266052F828802CD084EAB4
:101700000E0484EA3564DCF804506E4086EA3766DD
:1017100086EA3127099DDCF808600699754085EA5C
:1017200031660899DCF80C5086EA3126079986EA7A
:101730003146029969400D46059985EA316503995C
:1017400085EA3125049984EA382484EA394487EA11
:101750003A4785EA31451FE74FEA0E2E09F47F49E3
:101760000EF07F4EC5F3072508F47F0845EA09050A
:101770004EEA0808019A85EA08056C4000EB421021
:10178000220E1A70220C5A70220A9A70320201F448
:101790007F0B0AF47F4A02F07F42C7F30727DC7011
:1017A00042EA0B0247EA0A07574042687A40110EA4
:1017B0001971110C5971DA71110A069A9971C2F3F3
:1017C0000726079A089902F47F421643099A1202E3
:1017D00001F47F0102F07F420A4356408268059976
:1017E0005640320E1A72320C5A72320A9A72029AA9
:1017F000DE721502039A05F07F4502F47F022A4348
:10180000C1F30725049901F47F410D435540C26897
:1018100055402A0E1A732A0C5A732A0A9A73DD73DA
:101820000BB0BDE8F08F00BF8CC901002DE9F04F6F
:10183000DBB00024029003920E46F42200211DA882
:1018400099469DF890B1679D9DF8A0711AF083FCB0
:101850000E22214619A8CDE90844CDE90A44CDE974
:101860000C44CDE90E44CDE91044CDE9124418945E
:101870001AF071FC7A49659808221AF023FC0028B6
:1018800000F0A8812246122318A905A80BF049FBF5
:101890000C2105A8ADF81A400BF0AAF9044600285F
:1018A00040F090816599082205A80BF0EAFA0446F9
:1018B000002840F08781494605A80BF040FA04460D
:1018C000002840F07F81669B802219681DA8FFF7E1
:1018D0004BFD0446002840F0758108AB0A211A46EA
:1018E0001DA85991FFF740FE9DF81A80DDF814A05D
:1018F000B8F10C0F76D1DAF80000DAF804100CAB6E
:1019000003C3DAF8080018600123ADF83C408DF8F5
:101910003E408DF83F30202E00F09280002F40F0A6
:101920005C8105A80BF021FBEB8829680C3B19446E
:101930000C2205A80BF0A5FAEB880C3B0446EB80C3
:10194000102E40F08F8028462C890BF03EF921465E
:101950000346112228460BF08EFC0446002840F076
:10196000318101462881324628460BF095F9029BC9
:101970002A681B6A013203F1100153F8040B42F884
:10198000040B8B42F9D10DF1400A4FF00008CDF85D
:1019900004A0CDF800802B68EA88194608A80BF04F
:1019A000BDFDEB88113B9BB24246112128460BF04E
:1019B00062FCEA882B68134400930CA904461023A8
:1019C00052461DA80BF0E2FDE9886FB3039B012B83
:1019D00027D10C23424628460BF04DFC002C00F08A
:1019E000A680EFE0214610220CA81AF0B4FB0CAB45
:1019F0004246514608A80BF049FD4FEA58138DF8AE
:101A00005E304FEAC8080CAB102214A908A8CDE933
:101A100014441694ADF85C408DF85F800BF036FDF1
:101A200079E70C31E980D9E72B680C22194418A812
:101A30001AF048FB002800F0D28040F20F14C1E0F9
:101A40002A682C89284614440BF0BFF82246034626
:101A50000CA91DA80BF0ECFD002F00F0B28066E091
:101A6000DBD50100302E40F0B1805FB12A682C89AF
:101A7000284614440BF0A9F8224603460CA91DA8D9
:101A80000BF0D6FD28462C890BF09FF82146034623
:101A9000112228460BF0EFFB0446002840F092800C
:101AA00001462881302228460BF0F6F8029B2A686E
:101AB0001B6A013203F1100153F8040B42F8040BC6
:101AC0008B42F9D10DF140082968CDF80480EB88EC
:101AD000113B0093112201F1110308A80BF01EFD28
:101AE000EB88113B9BB20022112128460BF0C3FB6F
:101AF0000446002866D15FB92A682C892846144418
:101B00000BF063F8224603460CA91DA80BF090FDCC
:101B1000EA882B6813440093424610230CA91DA8A1
:101B20000BF034FDEB88002F42D00C33EB80039B8D
:101B3000032B46D105A80BF018FA0446002841D122
:101B4000594605A80BF0B7F8044600283AD10BF126
:101B50002503DBB2012B08D805A9082017F09AFE4F
:101B60006599082205A80BF08CF9E88805A90530CD
:101B700017F090FE044628BB314605A80BF09BF8F1
:101B80000446F8B9494605A80BF0D9F80446C8B987
:101B90000346BDF81A1005982A460BF09DFB044633
:101BA00080B9BDF81A20059928681AF099FA09E059
:101BB00029680C22194418A81AF084FA00287FF426
:101BC0003CAF002420465BB0BDE8F08F002C3FF412
:101BD00043AFF7E74FF48174F4E70024B0E6002C3C
:101BE000EFD0EFE72DE9F0478AB0DDE9127ADDF8B2
:101BF000509006460D4690461C4613B94FF481702E
:101C00009FE0DB8822899B1A012BF7DD0DF119017A
:101C100020460BF0C0F9002840F093809DF8193061
:101C2000DC2BEBD8C72B23D82D2B51D8202BE5D973
:101C3000213B0C2BE2D801A252F823F0D91C000062
:101C4000FD1B0000FD1B0000FD1B0000D91C000057
:101C5000D91C0000FD1B0000D91C0000FD1B00006A
:101C6000FD1B0000FD1B0000D91C0000D91C00005A
:101C7000C83B142BC2D801A252F823F0D91C000093
:101C8000D91C0000D91C0000D91C0000D91C000080
:101C9000D91C0000FD1B0000D91C0000D91C00004D
:101CA000D91C0000D91C0000D91C0000D91C000060
:101CB000D91C0000FD1B0000D91C0000FD1B00000A
:101CC000FD1B0000FD1B0000491D0000491D000018
:101CD000412B01D0482B91D10DF11A01204617F06C
:101CE000A8FD70BB0DF1190120460BF054F940BB63
:101CF0009DF8193003F030023A70BAF1000F03D0AA
:101D000003F003028AF800205B063FF577AF3B78CB
:101D1000002B3FF473AF07A920460BF07AF980B986
:101D2000079BB9F1000F01D0C9E900300022CDE9CD
:101D30000342CDE901580092397802223046FFF77C
:101D400075FD0AB0BDE8F0870DF11A01204617F0C5
:101D500070FD0028F5D1BDF81A20002ABCD0082A51
:101D60007FF44CAF08A920460BF0F4FA08ADB3E7B6
:101D700070B50446104615461E460BF070FC024630
:101D8000002865D009B1884264D1002120461AF0AC
:101D9000E2F925803378A3717378E371B378237205
:101DA000F37863723379A3727379E3721D2D0FD8C0
:101DB0000B2D13D90C3D112D10D8DFE805F02C0F99
:101DC0000F110F0F0F400F0F0F32400F0F400F2F4B
:101DD0002F2D34D0482D32D0292D32D0002038E09C
:101DE000062284F8382041F20202E2841A4AA262F2
:101DF00040F20112A28502F13D72022302F6017245
:101E0000A370A26484F84E3040F605020123A4F8C2
:101E10004C20E383E2E74FF47A43A3800223A370CC
:101E2000DCE78022A283192262830C4A226102F538
:101E3000750201230832A37062612376CEE7012385
:101E4000EDE7012323762823A383B4236383C5E727
:101E50000B2070BD0C20FCE7F40205087800100090
:101E600037B5134B0446186800909B88ADF80430D2
:101E700020460D460BF0F3FB014698B1012009F016
:101E800091FE286080B10F2C048005D00C2C1EBF61
:101E900000230093ADF804306A4621460BF052FC53
:101EA00003B030BD0B20FBE74FF48270F8E700BFB2
:101EB0005CC901002DE9F041904606460F46062216
:101EC0001A4940461D461AF0FDF8044650B32B4609
:101ED0004246394606F1980017F0A0FF0446F0B9D3
:101EE0002B68E3B9E4362B4642463946304617F0B4
:101EF00095FFC8B92B6893B98FB129463846FFF7CB
:101F0000AFFF044658B92B68D8F80020C3F8062064
:101F1000B8F804205A812968304617F01FFF204680
:101F2000BDE8F0812860FAE70446F8E7EED5010045
:101F3000F0B5504CBDF924509DF814609DF818C0C0
:101F40009DF81C70B5F1FF3F08BF2546022A0AD84C
:101F50004FF6FF74A14202F10C0218BF01F1FF31EC
:101F6000D2B218BF89B20024C48004814FF6FF7436
:101F7000A14202BF0121C18040F2B2714FEA910E2D
:101F800040F26D1404FB01E4FF2A4FF4C87EB1FB5C
:101F9000FEFE74444FF0640EB1FBFEF1A4EB0101B0
:101FA00005D1C28842F48172C280012203E0FE2A78
:101FB0004FD101220272FF2B50D1C38843F48273A8
:101FC000C3800123541C04EB440E1E2414FB021294
:101FD0000524BEFBF4F422441344274A934205D956
:101FE000A3F52F23A3F6C923002B40D100230360C0
:101FF000FF2E0CBFC3880368858015BF4FF4616254
:1020000043F0100302FB0636C38018BF0660BCF124
:10201000FF0F0DBFC38802683C2343F0200316BFA7
:1020200013FB0C23C3800360FF2F09BFC388036821
:1020300043F04003C38018BFFF18C38818BF076070
:1020400015F5004F14BF43F0800343F4C073C38001
:10205000F0BDFD2AAFD102220272A6E7FE2B02D10B
:1020600004230372ADE7FD2BACD10823F9E7034A43
:102070005343BCE70080FFFFC8FA0A00805101000B
:10208000174BB0FBF3F000F5C743243300F51510F0
:10209000144A9B0000F28130B3FBF2F30F33184473
:1020A000A0EB930014224243A2F68A1247F22421A5
:1020B00041F68943B2FBF3F3B2FBF1F2801A40F22E
:1020C0006D1202FB13024FF47A705043064A90429D
:1020D000A3F5935094BF0C380B3880B2704700BF03
:1020E00080510100B13A02007D890600184BB0FB17
:1020F000F3F000F5C743243300F51510154A9B0093
:1021000000F28130B3FBF2F30F331844A0EB9300DD
:1021100014234343A3F68A1347F22422B3FBF2F2BB
:10212000801A41F68942B3FBF2F340F26D1202FBD2
:102130001300094A4FF47A734343934247F289707C
:10214000B3FBF0F094BF00F1FF300D38C0B2704720
:1021500080510100B13A02007D8906001A4BB0FBA4
:10216000F3F000F5C743243300F51510174A9B0020
:1021700000F28130B3FBF2F30F331844A0EB93006D
:1021800014234343A3F68A1347F22422B3FBF2F24B
:10219000801A41F68942B3FBF2F340F26D1202FB62
:1021A00013004FF47A7101FB00F347F28972B3FB1D
:1021B000F2F21E2303FB120040F259235343B3FBF8
:1021C000F1F3C01AC0B2704780510100B13A020069
:1021D0000268054BB2FBF3F003FB10204FF4616380
:1021E000B0FBF3F0C0B2704780510100F8B5DDE9F3
:1021F00008540E46DDE9067C114635B14FF03C0E21
:10220000B0FBFEF20EFB12022A703C25B0FBF5F08B
:10221000BCF1000F05D0B0FBF5F205FB12028CF803
:1022200000203C22B0FBF2F02FB11825B0FBF5F2F4
:1022300005FB12023A701822B0FBF2F000F5C74518
:10224000243500F51510264ADFF898C0AD0000F2DD
:102250008130B5FBF2F50F352844A0EB950014252D
:102260004543A5F68A1547F2242741F68942B5FB76
:10227000F2F2B5FBF7F540F26D17401B07FB1207B2
:102280004FF47A7078436045A2F5935247F289750E
:1022900098BF0C3AB0FBF5F58ABF0B3A05F1FF3059
:1022A000A5F10D0006B1328001B108705BB11E20AE
:1022B00000FB157040F2592255434FF47A72B5FB7A
:1022C000F2F5401B187044B13EB131B12BB11A7810
:1022D000097830880BF090FD20700020F8BD00BF19
:1022E000B13A02007D8906002DE9F04186B00DF17A
:1022F0001503029305AB002401930DF11303009322
:10230000064603940DF112030DF111020068ADF8B9
:1023100016400D460DF116018DF811408DF8124052
:102320008DF813408DF814408DF81540FFF75EFFCF
:10233000F28802F00703072B00F0DD80337A13F0F8
:10234000010716D07F4928460AF0E6FDF3885907B1
:1023500000F1AC801CB92F2128460AF0ACFC337A7E
:1023600013F0040423D0784928460AF0D5FD002450
:1023700023E013F0020406D0744928463C460AF0D4
:10238000CBFD0127E2E7900707D49DF81110022248
:1023900028460AF05DFF2746D8E713F00C0704D063
:1023A0006B4928460AF0B8FDF5E70124CEE71A0785
:1023B00075D5684928460AF0AFFDF388DB0700F1C0
:1023C0008880002C7BD0BDF8161028460AF050FFFC
:1023D0000024F78807F070071CB9202128460AF06E
:1023E0006AFCF38813F0100840F087809DF8131002
:1023F000022228460AF02CFF0024F388990600F1F7
:1024000089801CB93A2128460AF055FC9DF8141021
:10241000022228460AF01CFF0024F3885A0600F125
:1024200085801CB93A2128460AF045FC9DF8151014
:10243000022228460AF00CFFB6F9044014F5004FBA
:1024400022D0F388DB051FD46442434924B22846D6
:102450000AF062FD002CB4BF4049414928460AF009
:102460005BFD3C27022294FBF7F6284631460AF032
:10247000EFFE3C4928460AF04FFD07FB16410222B9
:1024800009B228460AF0E4FE002128460AF013FCAF
:10249000EB880020013BEB8006B0BDE8F0819DF8A1
:1024A0001210022228460AF0D3FE86E7002F84D0BD
:1024B0001CB92F2128460AF0FEFB254954E72F219D
:1024C00028460AF0F8FBF388D8077FF57CAF214651
:1024D0007BE7337A13F00C0F09D01CB92F21284663
:1024E0000AF0E9FB1A4928460AF016FD70E7002FAA
:1024F0003FF46FAFF1E701246BE7002F3FF47DAFAE
:102500001CB93A2128460AF0D6FB2A2128460AF0AF
:10251000D2FB71E7002F80D01CB93A2128460AF07F
:10252000CAFB2A2128460AF0C6FB75E7002F83D094
:102530001CB93A2128460AF0BEFB2A2128460AF097
:10254000BAFB79E7F4D50100FED50100FAD5010008
:10255000C5DC010006D601000FD60100C8E201006B
:1025600014D6010016D60100037A5B072DE9F0416D
:102570000568B0F90480044611D50BF0D3FB06467C
:1025800020460BF0C9FB074620460BF0C8FB01466E
:1025900038460BF00FFC064B801B03FB0055C8F3BD
:1025A0000E0313B13C2318FB03552846BDE8F08108
:1025B00080510100F0B54F1C89B006460D46144607
:1025C00000F08180FFF7D0FF002303930DF1160385
:1025D00002930DF11503019305AB00930DF1120267
:1025E0000DF1130307A9FFF701FE14F5004F1CBFFF
:1025F0003C2314FB03550DF11B0302930DF11A0349
:10260000019300270DF1190300930DF117020397B1
:1026100006AB0DF11E012846FFF7E8FDF28812F027
:1026200077044AD056064DBF3B469DF816009DF8EC
:102630001B301846950608D49DF815403C2111FB27
:1026400004009DF81A4011FB0433D40609D49DF808
:1026500014404FF4616101FB04009DF8194001FB37
:102660000433510708D49DF81340184901FB0400B6
:102670009DF8184001FB043302F00101920715D4C4
:1026800051B9BDF81C10BDF81E20914204D01AD2D9
:102690004FF0FF3009B0F0BD9DF812109DF81720E3
:1026A0009142F4D19842F2D10020F3E70029F9D108
:1026B000BDF81C10BDF81E20F2E73046FFF754FFAE
:1026C0008542F1D0E4D80120E4E700BF8051010049
:1026D000F0B50B4F00254FF6FF73AEB2964205F1F1
:1026E000010503D3D84340BA80B2F0BD0468344436
:1026F000645C5C40E4B237F8144084EA1323ECE7EE
:102700007CD101002DE9F34105460E461C46D2B1AD
:10271000C388ADF806300C2009F04CFAA0600AF02E
:1027200061FABDF80610A068DFF874800A2349003A
:10273000237089B20AF05CFA0027BDF80630BB426C
:1027400013D100200EE00DF1060117F072F820BB46
:102750002B89EA88D21ABDF806305B009BB29A42F8
:10276000D9DA707102B0BDE8F0810DF1050128469B
:102770000AF011FC0028F5D19DF80560A068330926
:1027800006F00F0618F803100AF072FB18F806108E
:10279000A0680AF06DFB0137CFE74FF48270E1E7E4
:1027A00026D601002DE9F043C388164602899B1AFC
:1027B000032B89B0054606DC0020487104462046FC
:1027C00009B0BDE8F0830DF11F010AF0E4FB0446F7
:1027D0000028F4D10DF11F0128469DF81F700AF062
:1027E000DAFB04460028EAD10DF11F0128469DF8C6
:1027F0001F800AF0D0FB04460028E0D10DF11F0134
:1028000028469DF81F900AF0C6FB04460028D6D142
:102810009DF81F30FF2B1CBF03EB83035D0096F96F
:10282000003008BF4FF6FF75002B03DB0C2009F0CA
:10283000C1F9B060074BB0680097CDE90353FF239F
:102840001A46CDE901894FF6FF71FFF771FB1B2393
:102850003370B4E70080FFFF2DE9F041C3881546CF
:1028600002899B1A042B88B0064606DC00204871BA
:102870000446204608B0BDE8F0810DF11E010AF0C3
:10288000B3FB04460028F4D10DF11D0130460AF0D7
:1028900082FB04460028ECD10DF11D0130469DF865
:1028A0001D700AF078FB04460028E2D10DF11D01ED
:1028B00030469DF81D800AF06EFB04460028D8D1F2
:1028C00095F90030002B03DB0C2009F073F9A860A8
:1028D0000C4ABDF81E10A868FF23CDE90332CDE9EC
:1028E00001333A4600934346FFF722FB9DF81D3023
:1028F000072B81BFAA68D38843F00803D3801A232B
:102900002B70B6E70080FFFF10B502460B68088900
:10291000184492F858300C4603225BB1064919F06E
:10292000D1FB20B9238903332381002010BD4FF44C
:102930008170FBE70149F2E723D6010020D60100B0
:10294000F0B500260E4F3346F4B2944201DB180A6C
:10295000F0BD0444655C08245B0815F0800F18BFC7
:1029600043F0004313F0800F04F1FF3418BF7B40A5
:102970006D0014F0FF04EDB2EED10136E4E700BFC4
:1029800000BAB6D3F0B58B890A78013B12F0010F7B
:1029900089B004460D468B8140F08A8000F11C0707
:1029A00008224449384619F08DFBD4F8D420064655
:1029B000A2B194F8A430990710D506AB02930DF19B
:1029C000150301930DF1170300932B1D394604F1F4
:1029D000A800FFF707F9002841D01BE0D4F8DC304D
:1029E000002B56D0002E54D194F85830A3B906AB22
:1029F00002930DF115030193D4F8DC100DF11703C8
:102A0000009309682B1D04F1AC0204F1A800FFF744
:102A1000E9F8F0B109B0F0BD94F8A430002BE6D18C
:102A200095F83830002BE2D1E28D216B204609F079
:102A3000D0FF40B994F8A4309B0701D4E685266303
:102A400040F20710E6E7204609F0C1FF0028CED08B
:102A5000E0E795F8383013B9012385F83830D4F819
:102A6000F01049B1DDE906230E680027BB4208BF1C
:102A7000B2421AD301320A600DF11601281D0AF084
:102A80008AFA0028C6D16B78AB709DF816306B704F
:102A9000C0E706AB02930DF1150301930DF1170387
:102AA000009304F1AC022B1D90E74FF48E70B1E758
:102AB0000020AFE718D601002DE9F3414E78044617
:102AC0000D46002E40F0228101F1040840460AF034
:102AD0007CF898B10DF107014046AF890AF05BFA26
:102AE000002840F0D2809DF807606E70E02E05D877
:102AF000BF2E06D8182E7BD8042E4BD84FF48170E9
:102B0000C3E0A6F1C003202BF8D801A252F823F0AD
:102B1000352C0000352C0000352C0000352C000031
:102B2000772C0000912C0000FD2A0000A72C00004B
:102B3000032C0000032C0000FD2A0000032C0000E1
:102B40001F2C00001F2C0000FD2A00001F2C00007D
:102B5000032C0000032C00001F2C0000032C00009D
:102B60001F2C00001F2C0000FD2A00001F2C00005D
:102B7000CB2C0000FD2A0000FD2A0000D32C000011
:102B8000D32C0000F92C0000FD2A0000FD2A0000D3
:102B9000B12C0000731F132BB0D801A252F823F000
:102BA0000F2C00000F2C0000FD2A0000FD2A000061
:102BB000FD2A0000FD2A0000FD2A00005F2C000015
:102BC0009F2C0000C32C0000032D0000FD2A0000F4
:102BD000FD2A0000FD2A0000FD2A0000FD2A000059
:102BE000FD2A0000FD2A0000FD2A00000F2C000035
:102BF000612E1AD85F2E60D8262E0BD8242E7FF691
:102C00007DAF29462046FFF7BDFE00283DD10C2EA2
:102C10002BD00FE0A6F12C03012B3FF66FAF3A4605
:102C2000294620460DF0B2F9EFE7A6F16203012B29
:102C30003FF664AF95F82F3033BBAA896B899A426F
:102C400022D00C2E01D0C42E1ED12B7813B195F8B2
:102C50002E30CBB1294620460CF040FE15E03A4616
:102C6000294620460CF002FF60B9EB78022B00F0F9
:102C7000C3800C26DEE73A46294620460CF05EFD6E
:102C80000028D7D0441C00D1002002B0BDE8F0815C
:102C9000294620460CF0F9FF0028F6D1CAE728465D
:102CA0000CF0F4FDF8E7294620460CF099FFF3E715
:102CB000294620460DF0E7F8EEE7AB89013BAB81F2
:102CC000B8E740460DF09CF8E6E740460DF0B9F84D
:102CD000E2E794F858304BB194F8A430990740F1EA
:102CE000908029462046FFF74DFED5E73A46294613
:102CF00020460DF04BF9CFE7294620460DF0B3F9F9
:102D0000CAE7294620460DF035F8C5E70B78DA0703
:102D10003FF57DAF91F82E00184308D194F8583054
:102D20001BB1A6F16003012B05D80023AB81E02E77
:102D300005D000200EE00123E02E8B810DD16B8E9B
:102D40000133AB81294620460DF09DF86B896B86D7
:102D500000236B7094F85830A3B1C92E0FD8C72E3A
:102D600004D8A6F12503012B3FF64FAF6B8EAB8144
:102D700000226A7029462046FFF79EFE45E7CB2ECB
:102D80008AD1F3E72D2E6B7006D82B2E7FF63DAF40
:102D90006B8EAB810022EDE706F13403DBB2102B22
:102DA0003FF67AAFA6F1CC03102B3FF62EAF01A26F
:102DB00052F823F0912D0000912D00000B2C000003
:102DC000912D00000B2C00000B2C00000B2C0000A0
:102DD0000B2C0000912D0000912D00000B2C000009
:102DE000912D00000B2C00000B2C00000B2C000080
:102DF000912D0000912D00002B78DB073FF544AFAB
:102E000037E740F21D1040E790F8352040F2077395
:102E1000A0F87830052A4FF0000380F87A3090F857
:102E200058300BD143B1094BC3670A23A0F8823055
:102E3000642380F880307047054BF5E71BB1054BE4
:102E4000C3671423F2E7044BFAE700BFFE0F000C40
:102E5000000CFF0FFE0F010C010CFF0F2DE9F843D2
:102E6000044600259DF82800DDF8249023634FF0E8
:102E70000108062304F138070E469DF82010E2856C
:102E800084F8503084F8346084F8350084F83610C3
:102E9000A4F8DA50C4F8DC5084F8E050C4F8A080FC
:102EA000384609F09FFE494638460AF035F8E56194
:102EB000256204F1440009F095FE4FF48063204937
:102EC000A4F854301F4B84F85850AE4214BF0E463D
:102ED0001E464FF080134FF6FF77636640F20113F2
:102EE000A4F8683004F19800A4F85270E665A56271
:102EF00084F8A45016F013FF84F8A450257084F8C9
:102F00002480201D09F06EFE04F1100009F06AFE15
:102F100004F1A800A4F82C80FEF7FAF92046A4F8E2
:102F2000D8700DF06EF904F1E40016F0F8FEC4E973
:102F30003C55A4F8EC702046BDE8F843FFF764BFA9
:102F40000078B80038C004002DE9F3410C4605466E
:102F5000C18820460AF0CAFD28B9284F0646EB88EA
:102F6000B1B28B4202D102B0BDE8F0816A46284678
:102F70000DF009FA0028F6D1022120460AF0A8FD3A
:102F80000028F0D1009B204619780AF046FD002861
:102F9000E9D1009B204659890AF0A8FD0028E2D11A
:102FA0008046009843891FFA88F18B4201D10020A6
:102FB00020E001AA04300DF0E6F9D8B9032120463B
:102FC0000AF086FDB0B9019920460AF0A5FC88B93F
:102FD000019BD96881B10631062220460AF0FCFC2B
:102FE00040B9019B2046198A0AF025FD08F1010825
:102FF0000028D6D00136B2E73946EDE7EFD601001A
:103000002DE9F04F834BD1F8149087B0074618682C
:1030100004909B88ADF8143088461046B7F85210DB
:10302000154609F0E5FD0446002840F0ED80B8F8AB
:103030004030B3BBB9F81A6083468246B9F81A30FB
:103040001FFA8BF18B4259D1BAF1000F01D1013631
:10305000B6B2C8F83C60314628460AF047FDF0B9E0
:10306000BAF1000F1DD1042128460AF031FDB0B994
:103070000F2128460AF0DFFC88B999F8021028468B
:103080000AF0CBFC58B9062204A928460AF0A4FC91
:1030900028B92A46494638460DF089FB08B104464E
:1030A000B2E0B8F838A0B9F81A30534500F0AC8057
:1030B00002AA514609F1140016F089FE06460028BE
:1030C00040F0A68007F1900BB7F89630B1B28B4272
:1030D0004FD102990B880F2B03D1D8F814309942A5
:1030E00058D104212846EE880AF0F2FC002859D075
:1030F000B0F5827F044600F0858085E002AA09F1E0
:10310000140016F064FE0028C9D102990B880F2B19
:103110000DD10622114404A818F0D4FF30B3D8F81A
:103120001420029B9A421CBF06F1FF36B6B2BAF1D8
:10313000000F18D107F1900253460092B7F896207D
:1031400099B28A420FD00098019303AA16F03FFE6D
:103150000028A4D1DDE90221019B914203F1010382
:10316000ECD1013EB6B20BF1010B67E74FF0010A5B
:10317000F9E703AA584616F02AFE00288FD1DDE9A8
:1031800002329A4206F101069ED10AF1010A1FFAA3
:103190008AFA88E70622114404A818F093FF002851
:1031A0009FD0F2E7029B284619880AF044FC0028C9
:1031B0009ED1029B284699780AF02FFC002897D1CF
:1031C00002990622114428460AF006FC00288FD1F5
:1031D00002992A4638460DF0EAFA002888D197F875
:1031E00058302BB9D8F838300133C8F83830CCE72C
:1031F00098F83420002AF5D1294638460CF0DEFF35
:103200000028EFD0EE800024204607B0BDE8F08F04
:103210000446F9E762C901002DE9F743037E4669D8
:103220008568022B0AD13169062229B956492846F8
:103230000AF0D2FB044610E01144F8E7032B04D156
:10324000716928460AF005FCF4E7042B23D1F18BC1
:1032500028460AF04BFC0446C8B1204603B0BDE83E
:10326000F08301AA1FFA88F1384617F01AF80028EF
:10327000E0D10198294617F054F908F10108002817
:10328000D8D1F28B1FFA88F39A42EAD1E5E780465B
:1032900006F11807F5E7052B5BD1F18C28460AF0FB
:1032A00025FC04460028D8D1074606F120084BE04B
:1032B00001AA40460DF067F80028BBD1022128463C
:1032C00009F0F9FC0028B5D10321284609F0F3FCE8
:1032D0000028AFD11121284609F0EDFC0028A9D122
:1032E000019B2846197809F0E6FC0028A2D111219B
:1032F000284609F0E0FC00289CD1019B284659781B
:1033000009F0D9FC002895D10921284609F0D3FC01
:1033100000288FD10198043009F061FCC1B2284621
:1033200009F0C9FC002885D1019901F1040948463A
:1033300009F055FC002203464946284609F0D0FD15
:10334000013700287FF476AFF38CB9B28B42AFD14E
:1033500083E7062B01D1F16A73E7072B01D1316BAB
:103360006FE7082B05D196F8341028460AF0DAFBEF
:1033700060E7092B01D1B16B63E70A2B01D1F16B37
:103380005FE74FF4817468E7EFD601002DE9F34160
:10339000017E4669856802296DD1284609F08BFCBB
:1033A0000446002840F0BA800321284609F083FC37
:1033B0000446002840F0B2801221284609F07BFC28
:1033C0000446002840F0AA8033696BBB01462846BA
:1033D00009F093FC0446002840F0A080092128460B
:1033E00009F069FC0446002840F098800621284630
:1033F00009F061FC0446002840F090809B490622B9
:10340000284609F03EFD0446002840F087800F2141
:10341000284609F050FC044600287FD100212846A8
:1034200009F049FC044679E01988284609F065FC52
:103430000446002872D10921284609F03CFC0446C4
:1034400000286BD10621284609F035FC04460028E7
:1034500064D1316906221144284609F012FD044660
:1034600000285BD10F21284609F025FC04460028DE
:1034700054D1317DD3E7032905D106F1180128463F
:103480000AF01FFBCEE7042902D106F12801F6E776
:10349000052902D106F13801F1E7062904D1B16C02
:1034A00028460AF0D6FABDE7072901D1F16CF7E703
:1034B00008292AD10221284609F0FDFB044668BBF1
:1034C0000321284609F0F7FB044638BB12212846A1
:1034D00009F0F1FB044608BBB6F85010284609F085
:1034E0000CFC0446D0B906F1540128460AF0A2F9B2
:1034F000044698B90621284609F0DDFB044668B960
:10350000316E284609F01BFC8CE7092924D1B6F856
:103510006A1028460AF0EAFA0446C8B1204602B00A
:10352000BDE8F08101AA4146384616F0BAFE0028EF
:103530007FF478AF0198294616F0F3FF00287FF456
:1035400071AF08F10108B6F86A304345EAD1E5E702
:10355000804606F16407F6E70A2905D196F86C1053
:1035600028460AF0DFFA5DE70B297BD102212846C5
:1035700009F0A1FB04460028D0D10221284609F019
:103580009AFB04460028C9D10221284609F093FB82
:1035900004460028C2D10221284609F08CFB0446CB
:1035A0000028BBD10921284609F085FB04460028E4
:1035B000B4D10621284609F07EFB04460028ADD18F
:1035C000306F00F011FC06220146284609F059FC34
:1035D00004460028A2D11221284609F06CFB0446BB
:1035E00000289BD1B6F87410284609F086FB0446E3
:1035F000002893D10221284609F05DFB04460028EB
:103600008CD10221284609F056FB0446002885D1BA
:103610000921284609F04FFB044600287FF47EAFBD
:103620000621284609F047FB044600287FF476AFC0
:10363000B06F00F0D9FB06220146284609F021FCB4
:10364000044600287FF46AAF1221284609F033FBB4
:10365000044600287FF462AFB6F87C10284609F0D3
:103660004CFBDFE64FF4817458E700BFEFD6010052
:103670002DE9F347037E46698568022B0AD1B169BB
:10368000062229B9594928460AF0A6F904460AE053
:103690001144F8E7032B62D1718C28460AF026FA10
:1036A0000446002857D0204602B0BDE8F08701AAA2
:1036B00048460CF068FE0028E8D10221284609F0AF
:1036C000FAFA0028E2D10221284609F0F4FA00288B
:1036D000DCD10921284609F0EEFA0028D6D1019B59
:1036E0001B682946D88816F0D5F80746002878D1F7
:1036F000019BD3F800A0504609F071FA3A46034600
:103700005146284609F0ECFB0028BFD10921284684
:1037100009F0D1FA0028B9D1019B5B682946D88805
:1037200016F0B8F8074600285BD1019BD3F804A037
:10373000504609F054FA3A4603465146284609F0E5
:10374000CFFB08F101080028A0D1738C1FFA88F183
:103750008B42ACD1A7E7804606F11C09F5E7042BA4
:1037600004D1316928460AF074F98FE7052B04D19A
:10377000317D28460AF051F988E7062B01D1B16A5C
:10378000F0E7072B04D1B18D28460AF054F97DE704
:10379000082B02D196F82E10EBE7092B02D196F8F0
:1037A0002F10E6E70A2B02D196F83010E1E70B2B39
:1037B00002D196F83110DCE70C2B02D196F83210CA
:1037C000D7E70D2B03D1B3786BB1B18EDCE70E2BAD
:1037D00009D1B3783BB196F8361028460AF094F92F
:1037E00054E73C465FE74FF481745CE7EFD6010095
:1037F0002DE9F3410F7E4E698D68022F06D196F8B0
:10380000281028460AF080F9044608E0032F5DD10D
:10381000F18A28460AF06AF90446002852D0204668
:1038200002B0BDE8F08101AA40460CF0ACFD0028D2
:10383000EAD10221284609F03EFA0028E4D103210A
:10384000284609F038FA0028DED10921284609F077
:1038500032FA0028D8D1019B2946D88816F01AF8E8
:103860000028D1D1019B2846DA88196809F009FBA4
:103870000028C9D10921284609F01DFA0028C3D122
:10388000019B2946588A16F005F80028BCD1019BF7
:1038900028465A8AD96809F0F4FA0028B4D11221CE
:1038A000284609F008FA0028AED1019B2846198B5A
:1038B00009F023FA01370028A6D1F38AB9B28B4266
:1038C000B1D1ACE7074606F11008F6E7042F40F047
:1038D000BF8090F85830718C002B00F0898000294F
:1038E00040F08680112128460AF000F9044600289D
:1038F00095D15A49022228460EF017F9002840F0C7
:10390000AA805749072228460EF00FF9002840F0F8
:10391000A28054493A4628460EF007F9002840F0A4
:103920009A8051490A2228460EF0FFF8002840F0FC
:1039300092804E49052228460EF0F7F8002840F004
:103940008A804B490C2228460EF0EFF8002840F000
:10395000828048490C2228460EF0E7F800287AD1E8
:103960004549042228460EF0E0F8002873D1434967
:10397000092228460EF0D9F800286CD140490B22C4
:1039800028460EF0D2F8002865D13E490C22284680
:103990000EF0CBF800285ED13B490C2228460EF0F1
:1039A000C4F8002857D139490C2228460EF0BDF83A
:1039B000002850D136490E2228460EF0B6F80028CD
:1039C00049D134490E2228460EF0AFF8002842D1E2
:1039D00031490E2228460EF0A8F800283BD12F4985
:1039E0000E2228460EF0A1F8041E18BF012416E787
:1039F00028460AF07BF8044600287FF410AF0746FB
:103A000006F11C081FE001AA40460CF0BCFC00288F
:103A10007FF4FAAE0921284609F04DF900287FF419
:103A2000F3AE019B2946D88815F034FF00287FF4B7
:103A3000EBAE019B2846DA88196809F022FA0137B3
:103A400000287FF4E1AE738CB9B28B42DBD1E6E69D
:103A50004FF48174E3E60124E1E600BF36D60100AD
:103A600039D6010041D6010046D6010051D60100E9
:103A700057D6010064D6010071D6010076D6010048
:103A800080D601008CD6010099D60100A6D601008F
:103A9000B3D60100C2D60100D1D60100E0D60100A4
:103AA0002DE9F341037E46698568022B0AD1F1694D
:103AB000062229B98149284609F08EFF04460AE00A
:103AC0001144F8E7032B50D1F18C28460AF00EF888
:103AD0000446002845D0204602B0BDE8F08101AA86
:103AE00040460CF050FC04460028F4D10221284640
:103AF00009F0E1F804460028EDD10321284609F039
:103B0000DAF804460028E6D11121284609F0D3F856
:103B100004460028DFD1019B2846197809F0CBF82C
:103B200004460028D7D11121284609F0C4F80446DC
:103B30000028D0D1019B2846597809F0BCF80446EA
:103B40000028C8D101982946083016F0EAFC013750
:103B500004460028BFD1F38CB9B28B42BFD10024F8
:103B6000B9E7074606F12008F5E7042B4ED1F18AA4
:103B7000284609F0BBFF04460028ACD1074606F1F1
:103B800010083EE001AA40460CF0FDFB0446002868
:103B9000A1D10221284609F08EF8044600289AD1C6
:103BA0000321284609F087F80446002893D1112103
:103BB000284609F080F8044600288CD1019B28464D
:103BC000197809F078F80446002884D11121284694
:103BD00009F071F8044600287FF47DAF019B284668
:103BE000597809F068F8044600287FF474AF01980A
:103BF0002946083016F095FC0137044600287FF46A
:103C00006AAFF38AB9B28B42BCD1A8E7052B52D177
:103C100006F12C07384608F0E2FF014618B928469D
:103C200009F049F84AE70221284609F044F8044619
:103C300000287FF450AF0221284609F03CF80446E2
:103C400000287FF448AF0921284609F034F80446DB
:103C500000287FF440AF708E294615F01BFE044605
:103C600000287FF438AF384608F0B9FF22460346F3
:103C70003946284609F034F9044600287FF42BAF72
:103C80000921284609F017F8044600287FF423AFDD
:103C9000F08F294615F0FEFD044600287FF41BAF87
:103CA0003836304608F09BFF224603463146284608
:103CB00009F016F902E74FF481740CE7EFD6010022
:103CC0002DE9F341017E85684669032947D004291F
:103CD0004BD0022940F08380284608F0ECFF0446D0
:103CE000002849D10421284608F0E5FF04460028B1
:103CF00042D13369CBB90146284609F09CFE0446FF
:103D0000002839D137490622284609F065FE0446C5
:103D100090BB0146284609F0AAFE044660BB014656
:103D2000284608F0C8FF044626E01988284609F00E
:103D300082FE044600BB316906221144284609F080
:103D40004BFE0446C0B9317D284609F090FE04467A
:103D500090B906F11801284609F0B3FEE3E706F131
:103D60002801284609F066FDDDE7718F284609F035
:103D7000BDFE044600282ED0204602B0BDE8F081EA
:103D800001AA40460CF0FFFA0028CCD103212846B6
:103D900009F09EFE0028C6D1019B1B6828461988A1
:103DA00009F049FE0028BED1019B19680622114482
:103DB000284609F011FE0028B5D1019B5B68284612
:103DC000197809F054FE01370028ACD1738FB9B2CD
:103DD0008B42D5D1D0E7074606F13408F6E74FF419
:103DE0008174C9E7EFD6010008B106307047014879
:103DF000704700BFF5D601002DE9F04F022A8BB0C5
:103E000080460C461E4640F0E5804B8C2BB94FF4A3
:103E1000817210460BB0BDE8F08F01F110073846F3
:103E20000FF086FD054640BB3378092B25D1384677
:103E30000CF042FA05A9ADF81400B06809F0CFFC07
:103E40000546D0B9BDF81430E382B3B1014606AAE5
:103E500038460CF098FA002838D1069B9B68B3F8D6
:103E60000690638C4B45D2D3AA465FFA89F9BDF818
:103E700014301FFA8AF18B421BD13378012B0ED1FB
:103E8000B368DFF890B2D98838460CF019FA4FF0D1
:103E90000009B068C2881FFA89F39A4218D198F8CD
:103EA0005830E18A03B1A16338460CF009FA2A467A
:103EB000AFE706AA38460CF066FA38B9B06849464A
:103EC00009F05EFC0AF1010A0028D0D00546D4E7CB
:103ED00003AA1FFA89F116F0E4F905460028E6D195
:103EE000039B9B68DA88638C9A4290D18246039A3E
:103EF0009068C2881FFA8AF39A4211D8082007F006
:103F000059FE824616F0D5F8039B5046996816F084
:103F1000BEF9514638460CF0F9F909F10109B8E744
:103F200004AA1FFA8AF1019316F0BBF90246002891
:103F30007FF46FAF049A019B1278092A01D0062AF8
:103F40002CD105AA194604F11C000CF01CFA0246FB
:103F500000287FF45EAF049A059B1278092AD3E902
:103F600000031ED10288082A18D193F90030022BD1
:103F700014D106A815F0BBFF049B06A8996816F09B
:103F8000A9FB049A089819210BF0AFFE019006A82E
:103F900016F009F9019A002A7FF43BAF0AF1010AF1
:103FA000A5E7062AFAD101880129F7D193F9003053
:103FB000022BF3D15946063018F084F80028EDD1D1
:103FC000049B06A8996809F0D5FE049806A916F086
:103FD000ACFAE3E7032A11D100238B6301F110004F
:103FE0000FF0A6FC024600287FF413AF324604F11E
:103FF0001C01404614F03EF802460AE7042A05D1A7
:10400000184616F0C8FAA062002202E7052A05D178
:10401000184616F0C0FA84F82C00F5E7062A69D194
:104020001A780AB90A63F4E6986800283FF4EFAEFC
:10403000C388042B7FF4EBAE06AA002116F031F9F9
:10404000024600287FF4E5AE069816F0A4FA06AA08
:1040500005460121B06816F024F9024600287FF4D5
:10406000D8AE2746002347F8303F069B9A68ADB28A
:1040700012683B46294608F1980015F0CFFE02462B
:1040800000287FF4C6AE236BB3B939462846FDF746
:10409000E7FE024600287FF4BCAE069B206B9B68BF
:1040A000196809F048FB024600287FF4B2AE216B84
:1040B00008F1E40015F052FE06AAB068022116F0DD
:1040C000F0F8024600287FF4A4AE069816F063FAD2
:1040D00084F83C0006AAB068032116F0E2F8024614
:1040E00000287FF496AE0190069816F054FA019AD3
:1040F000E0878EE6072A04D1184616F04CFAA06332
:1041000082E7082A7FF483AE184616F044FA60630B
:104110007AE700BFC4010020F0B51C4B85B005460E
:104120000C466E4603F1100718685968324603C200
:104130000833BB421646F7D11CB304EB44063046A5
:1041400007F038FDD8B12B461C440546202113F852
:10415000012BA97004AF07EB121702F00F0217F83A
:10416000107C2F7004AF3A449C4212F8102C6A70F5
:1041700005F10305EBD18319002203F8012C05B0EA
:10418000F0BD012007F016FD0470F8E7FBD6010032
:104190001B289ABF024B18564FF0FF30704700BFE4
:1041A0000CD7010070B586B0FF238DF811300DF1EA
:1041B0001503039305AB02930DF1130301930DF166
:1041C0001203054600934FF6FF7604AA0C460DF144
:1041D00011030DF116010068ADF816608DF810603E
:1041E0008DF812608DF813608DF814608DF81560ED
:1041F000FDF7FCFFEB88D80748BFADF816605907FC
:1042000018BFFF23BDF8161018BF8DF815302046D3
:1042100008F073FD2B7ADA0753D5FE21204608F00B
:104220004AFD2B7A580757D5FE21204608F043FD5A
:10423000EB881B075BD49DF8153013B907238DF865
:1042400015309DF81510204608F035FDEB88DE0688
:1042500054BF9DF81210FF21204608F02CFDEB887A
:10426000980654BF9DF81310FF21204608F023FD47
:10427000EB88590654BF9DF81410FF21204608F022
:104280001AFDE98811F0800118BFFF21204608F0CF
:1042900012FDBDF816204FF6FF739A4202D0EB884C
:1042A000DA0526D51449204608F0E4FDEB889B0585
:1042B00054BF697AFF21204608F0FDFC002006B0BB
:1042C00070BD9B0701D5FD21A8E7EB889E0754BF71
:1042D0009DF81010FF21A1E7190701D5FD21A4E7E2
:1042E000EB885A0754BF9DF81110FF219DE7FF216D
:1042F000A9E7B5F90410D6E70080FFFF2DE9F341E7
:104300008846054698F900300978002B26DA01F135
:104310007F03DBB2012B07D801F07F010170D8F8D1
:1043200008308360002434E001F17C03DBB2172BFA
:1043300004D87D4A22FA03F3DB0709D401F07F0198
:104340002970D8F80830D3E90023C5E90223E9E74A
:104350008268404616F0E2F804461AE090F9002020
:104360000378002A32DAA1F10903012B15D8D8F815
:10437000080001A915F05DFA044650B9D8F80830D4
:10438000BDF8042019890C2000FB0131A86817F042
:10439000A7FE204602B0BDE8F0810846FFF7F8FE10
:1043A0000446ADF80400287880F08000FFF7F0FEA6
:1043B000A4B2A04207D1BDF80420A86808F1080102
:1043C00017F08EFEAEE74FF48174E2E7013B012B5C
:1043D00004D88368B3F90430002B1FDB284615F09E
:1043E000E2FE04460028D4D198F800302B7007462E
:1043F00098F800300A2B13D1D8F80830002B91D050
:104400000C2007F0D7FBA86008F0ECFBD8F80830C8
:10441000A868DA88196808F034FD83E70127E7E720
:10442000092BE9D05A1E012A48D8D8F80830002BA9
:104430003FF478AFDB88002B3FF474AFAC682CB945
:10444000082007F0B7FBC0E90044A860D8F808309E
:10445000A868D98815F031FE0026D8F80800C3886E
:10446000B3423FF45FAF6A46314615F01AFF044687
:1044700000288ED187B1A86801AA15F012FF044662
:10448000002886D1DDE90010FFF738FF0446002838
:104490007FF47FAF0136E0E7102007F08BFB009937
:1044A000077087600190FFF729FF044600287FF41A
:1044B00070AF0199A86815F028FEEBE7192B05D11C
:1044C000D8F80810284616F030F845E71A2B05D121
:1044D000D8F80810284616F03AF83DE71B2B05D10E
:1044E000D8F80810284616F044F835E7042B0DD10B
:1044F000082007F05FFBA86008F06DFAD8F80830D4
:10450000A868DA88196808F0E1FA25E7192B3FF660
:1045100009AF064AD256002A7FF704AF08F1080116
:1045200005F108004CE700BF6100E0003AD7010048
:104530002DE9F041CAB0002304460D46014602A809
:104540008DF8083004938DF818300893FFF7D6FEE5
:104550000646002870D1204615F025FE0A2D40F0B1
:10456000D6800C2007F026FBA06008F03BFB9DF8EE
:1045700008301B2B00F25F81DFE813F032001C00D3
:104580001C006200AD006C0077005D015D01BA00A7
:104590005D015D015D015D015D017A0080008600C5
:1045A0008B005D019000990086009B00A700B5007C
:1045B000B500B500A0687B2108F07DFB00250498BC
:1045C000C388AFB2BB4211D17D21A06808F073FB54
:1045D000A068002108F06FFBA268D388013BD3805C
:1045E0000A23237002A815F0DEFD25E00BAAA9B26C
:1045F00015F057FE002840F01C813FB12C21A06827
:1046000008F059FBA068202108F055FB0B9906A87B
:10461000FFF774FE002840F00C81A16806A816F090
:1046200004F8074606A815F0BEFD0135002FC6D0D8
:1046300002A815F0B8FD3E4630464AB0BDE8F0810C
:104640009DF81030A0681BB9804908F065FCC7E7E9
:104650007F49FAE7002300930123049AFA210BA86B
:1046600015F0A3F9A0680BA9EFE700230093F4E786
:10467000002300939DF910200123EFE7002300930E
:10468000BDF910200123E9E700239DF810200093D5
:10469000E4E70023BDF810200093DFE70123009337
:1046A000FA21DDE904230BA815F0E0F9DAE700238D
:1046B000F5E70498FBF7D8FECDE90001654BFA2237
:1046C00000210BA817F05DFDCCE7DDE90423CDE95F
:1046D0000023614BF3E7049808F054FA0146A06800
:1046E00008F032FC7CE7A1680498FDF7FDFD77E750
:1046F000049800283FF474AF08F0A6FD0546014673
:10470000A06808F009FC284607F05CFA68E72378FF
:104710000A2B64D1032D09D1049B4C491868FCF77E
:1047200045FB003818BF0120207206E0052D06D198
:10473000049B186815F07DF9A060257052E7062DDE
:10474000F6D00F2D04D1049B186815F072F9EBE731
:10475000102D05D1049B186815F06BF92081ECE74A
:10476000112DF0D0122D06D1049B186815F061F9B7
:104770001223208135E7142D06D1049B186815F00B
:10478000C7F9C4E90201D8E7152DF6D0162DDAD005
:10479000172D07D1049B2F4904F10802186807F070
:1047A000D9FACAE7182D04D1049B2B4904F1080259
:1047B000F4E7092D3FD1049B0C201F6807F0FAF99C
:1047C000A06008F00FFA3946A06808F024FD2570B3
:1047D00002A815F0E8FCA06808F0A9FD2CE79DF8F8
:1047E0000820192A0DF110082AD81C49192B8F56B8
:1047F0000ED81A4AD256BA420DDB04F10803002142
:10480000184617F0A8FC3A46414617F069FC94E7B1
:104810004FF0FF32EFE7D3B2BFB29F4203D1414620
:1048200004F10800F1E718F8031031B901339BB225
:10483000F3E7064600E7FE26FEE64FF48176FBE648
:10484000192B4FF0FF37D4D93A46D6E728D70100C5
:104850002ED7010033D7010036D701003AD7010027
:1048600010B402788A4204460B4607D011B910BC36
:1048700015F099BC012A03D109297CD100202DE033
:104880000A2A02D110BCFFF753BE033915290FD8ED
:10489000DFE801F00B0E0B0B0E0E0E0B0E0E0E0EC4
:1048A0000B0B0B0B0E0B0B0B0B0B19462046E9E702
:1048B000053A162A5CD8DFE802F00C0C5B5B135B50
:1048C0005B5B1B5B0C0C0C0C5B0C0C0C0C0C495656
:1048D00056000D2B0CBFFE204FF4817010BC7047AA
:1048E000193B022B98BFFE2088BF4FF48170F5E77B
:1048F000053B132B3CD801A252F823F07D48000061
:104900007D480000714900007149000071490000B4
:104910007D480000714900007149000071490000A4
:10492000714900007D4800007D4800007D4800007E
:104930007D480000714900007D4800007D4800006E
:104940007D4800007D4800007D4800000A2B05D806
:10495000092B34BF4FF481700020BFE71A3B012BB5
:1049600098BF0020C0E70A2BF2D9193B022BF7E7CA
:104970004FF48170B2E7CA1E152AF9D801A151F887
:1049800022F000BFAB48000071490000AB480000B6
:10499000AB480000714900007149000071490000F6
:1049A000AB480000714900007149000071490000E6
:1049B00071490000AB480000AB480000AB48000064
:1049C000AB48000071490000AB480000AB48000054
:1049D000AB480000AB480000AB4800000B68013357
:1049E0000B60014B1B68184700000020014B18604A
:1049F000704700BF0000002007B50B4600210246AB
:104A00000191034801A900F065F903B05DF804FBCA
:104A1000DD49000030B585B0CDE90101044600252F
:104A200001A90548039500F055F9DDE902309842E7
:104A3000B8BF255405B030BD63A701002DE9F84F7C
:104A4000B0F8189019F00808044693460DD00129D3
:104A50000CBF49F0100949F02009A0F818908BF319
:104A60001188BFF36F8FBDE8F88F09F0070902299D
:104A700007D1204615F0A2FE0028F0D00128238B94
:104A800050D16769218B002F15DA256821F00701C5
:104A9000C4E9008841F0010121830026218B01F047
:104AA000070ACA4502D0A368002B5CD10DB9002EBD
:104AB00074D0002358E001F007035A1F012A20D8C0
:104AC00021F00701062B256889B2C4E900880CD1C2
:104AD000002D2B4638BF00232BB1628B1B6801329F
:104AE0006283002BF8D141F002012183204615F0AA
:104AF00065FE06460028D1D0238B43F02003238394
:104B0000CBE7042B0CD121F0070189B22183204689
:104B100015F054FE05460028BFD041F02001218346
:104B20000025BAE7032809D1226923F00703166894
:104B300043F00603238300252F46AFE7042806D160
:104B4000226923F00703566843F00403F2E70528BF
:104B500006D1226923F00703966843F00503E9E7CD
:104B600000252E46E8E7012341F0080121838BF35D
:104B70001188BFF36F8F03BB002D33D116B12149CC
:104B80002046B0474FF02003EFF3118B83F31188D9
:104B9000BFF36F8F238B23F008032383238BDA0665
:104BA00028D523F0100323830121B4F8189009F0CD
:104BB000070900297FF45BAF51E7A1680029DBD02A
:104BC0000B68D1F804B0002B38BF00239946524639
:104BD0003B462046D847B9F1000FCDD0D9F8003078
:104BE0004946EEE729463B46524620462D6815F0D9
:104BF00001FEC1E713F020011EBF23F02003238331
:104C00000221D2E721A80100F0B5094E0168024651
:104C10000A2700200C46013123789D5D6D0701D4E1
:104C20001460F0BD07FB0033A3F13000F2E700BFD2
:104C3000A5E101002DE9F74F14469946D378244A9F
:104C400013F802A06F2B0AF0030206460F460192EA
:104C50002DD028D8582B14BF0A251025DDF8308018
:104C6000AA464FF0000B52465B4630463946FBF7EA
:104C700023FF092AD3B21FD830335F45DBB208BF08
:104C8000564508F8013D01D3C84512D823789B0644
:104C900005D5082D16D1A37843F00803A37040462C
:104CA00003B0BDE8F08F03F0F703702BD3E70825BE
:104CB000D4E706460F46D6E7019A012A0CBF3733E0
:104CC0005733DAE7102DEAD1A37843F01003E5E774
:104CD000A5E101002DE9F04F824693B08B46914645
:104CE0001C46002599F8000008B928463AE309F166
:104CF00001032528029306D05946D0470028C0F268
:104D000031830135F1E1182200210CA817F023FAB4
:104D100099F80130252B59D0029A164612F8013B1A
:104D20002B2B00F08B8079D8202B00F08C80232B4C
:104D300000F08E809DF8383003F04402442A03D1FD
:104D40006FF386138DF838309DF83830059643F0B0
:104D500080038DF8383033782A2B7ED19DF8393096
:104D600043F001038DF83930731C05931A782E2A0D
:104D70009DF839200CBF0121002161F341028DF81B
:104D800039200BD15A1C05925A782A2A7BD19DF8DA
:104D9000392042F004028DF839200233194611F807
:104DA000010B6C2800F0B6807DD8682800F0848064
:104DB0006A2800F0B9804C2800F0BD809DF83920A9
:104DC0006FF3C6028DF83920194680E009F102021E
:104DD00002928DF83B309DF83930D90740F1498176
:104DE00054F8048BB8F1000F07DA9DF8382042F030
:104DF00004028DF83820C8F100085A0740F14281BA
:104E000054F8047B002F80F241819DF839306FF314
:104E100041038DF839304FF0FF3737E12D2B06D0A5
:104E2000302B87D19DF8383043F0400303E09DF8E4
:104E3000383043F004038DF838306EE79DF8383091
:104E400043F00803F7E79DF8383043F01003F2E72A
:104E50009DF8383043F02003EDE705A8FFF7D4FEB6
:104E6000059BB34281D09DF838100F90C1F34002EA
:104E700042EAD072520062F07F0201F07D010A43E3
:104E80008DF8382071E705A8FFF7BEFE9DF8383091
:104E90001090C3F3400242EAD07060F341038DF8F2
:104EA0003830059B7AE774289DF8392040D07A285D
:104EB00084D11346062228E05A78682A9DF83920C2
:104EC00021D1012161F3C6028DF83920991C0B46CE
:104ED00013F8012B0293782A9DF839308DF83B2086
:104EE00000F2BF80572A33D8412A03D0453A022A1C
:104EF00000F2B7809DF83A30042262F302038DF885
:104F00003A30012384E01346022262F3C6038DF88F
:104F10003930DCE75A786C2A9DF8392001D1042118
:104F2000D0E713460322F0E79DF839300522ECE77D
:104F300013460722E9E7BDF8383023F4F04323F0A5
:104F4000020343F4804343F00203ADF83830BEE778
:104F5000A2F15801202900F2848001A050F821F02C
:104F600025500000635000006350000063500000B3
:104F70006350000063500000635000006350000065
:104F800063500000F54E0000635000002550000003
:104F9000E54F0000F54E0000F54E0000F54E000014
:104FA00063500000E54F00006350000063500000B4
:104FB00063500000635000002D5000002550000099
:104FC0004950000063500000635000004950000049
:104FD0006350000025500000635000006350000043
:104FE000255000009DF83A10012003F0780360F38B
:104FF0000201402B8DF83A1002BF9DF8381041F0A5
:1050000001018DF83810632A31D1003B18BF01230C
:105010009DF83820C2F340010B4363F341028DF841
:105020003820D8E69DF83A100220DEE79DF83A20B5
:1050300003F07803A3F14000032161F3020243422D
:105040008DF83A204341E3E79DF83A20032113F01D
:10505000780F61F302028DF83A2014BF0123002378
:10506000D6E79DF8383043F001038DF8383000233F
:10507000CEE79DF93820002AB4BFDDF83C804FF020
:10508000FF38BAE69F077FF5C6AE109F9DF839102E
:105090000023CDE90F339DF83A3003F00703012BCD
:1050A000C1F3C30137D1CB1E042B21D8DFE803F0B5
:1050B00003070720200054F8042BD31704E007341B
:1050C00024F00704F4E80223CDE90C239DF83830DE
:1050D00013F0030655D0029B4A465946504615F038
:1050E00000FD0028C0F23E810544DDF80890F9E596
:1050F00054F8042B01294FEAE273CDE90C2305D1C2
:105100009DF830300C9300230D93DFE70229DDD1A9
:10511000BDF93020D1E7022B23D1CB1E042B13D8AD
:10512000DFE803F0030A0A12120022680C9200233F
:10513000201D0D930446C9E7073424F00700F0E86A
:105140000223CDE90C23F5E754F8043B0C93012925
:105150004FF000030D93D3D00229B7D1BDF8303002
:10516000D0E7042B07D1073424F00704F4E8022326
:10517000CDE90C23AAE7032B04BF54F8043B0C939E
:10518000A4E79DF83B007828AFD8622820D82528CE
:105190003FF4B2AD5828A8D10DF12E030093DDE9FC
:1051A0000C0106AB0EAAFFF745FD8146002F0DF15D
:1051B0002E000BDB9DF83820A0EB09036FF386125D
:1051C0009F428DF8382001D9FF1A0F9707463CE01F
:1051D0006338152889D801A252F820F05B520000EC
:1051E000BD520000EB500000EB500000EB500000FF
:1051F000EB500000BD520000EB500000EB500000EF
:10520000EB500000EB5000001B530000E95200007F
:10521000ED520000EB500000EB5000003552000052
:10522000EB500000E9520000EB500000EB50000092
:10523000E9520000002FDDF830900ADB394648467D
:1052400016F0CEFF09EB00070026B9F1000F0CD1D4
:105250004BE74846FBF7B4FDF4E70C9B8DF818309C
:1052600000260DF119070DF11809A7EB090306B186
:1052700001339DF83A20D00669D5023352060F99C2
:1052800048BF109A0B4448BF9B18B8F1000F76DD59
:105290009DF83820A8EB0308C2F38003039353075B
:1052A0006DD4500661D53EB159463046D0470028EE
:1052B00058DB039B01351E46302357E01E0711D4EF
:1052C00013F0100618BF2026DDE90C23002A73F125
:1052D0000001BFF661AF524263EB4303CDE90C23FB
:1052E0002D2659E72B26EFE7002655E70C9848B303
:1052F0000DF12E0300930EAA06AB0021FFF79AFCD6
:10530000BDF83A3003F0EF0343F4F04343F01003E9
:105310008146ADF83A30002648E70C9B07293FF656
:10532000E4AEDFE801F00D04060D08080D0D1D7058
:10533000DBE61D80D9E62846E917C3E90001D4E67B
:105340001D60D2E62E4F0646A7F105098DE711072D
:1053500048BF013392E7184659460393D0470028C7
:10536000039B04DA13B0BDE8F08F20234544424686
:10537000002AA5EB080108F1FF38ECDC0D462EB140
:1053800059463046D0470028ECDB01359DF83A30CD
:10539000D90601D41A0705D559463020D047002830
:1053A000E0DB01359DF83A30DB0606D59DF83B0081
:1053B0005946D0470028D5DB01350F9E2E44731B7C
:1053C000002B15DC3B464A465946504615F089FBF2
:1053D0000028C7DB0544A844A8EB0503002B7FF792
:1053E00084AE59462020D0470028BBDB0135F3E7C7
:1053F00059463020D0470028B4DB0135DFE700BF35
:1054000059D7010008B504464FF02002EFF311838D
:1054100082F31188BFF36F8F16F027F8204601F052
:1054200073FF034815F0B0F901F0D4FAFCE700BFB0
:105430005AD7010030B51049104889B0002216F043
:1054400010FE0F4D0F4900220023CDE90623002452
:105450000E23CDE90334CDE901440B4B00944FF406
:105460004072284605F02EF90849284616F076FCC9
:10547000204609B030BD00BF91540000B8020020A2
:10548000F0020020401800201D59000083D70100C1
:10549000014805F07BBA00BF58020020F0B5054670
:1054A0000F4E002003460246012715F8014B0CB1B0
:1054B0008B4200D3F0BD252C02D182F00102F4E72B
:1054C000002AF2D014F806C01CF0030FEDD0732CA4
:1054D00004BF07FA03F2104301330022E5E700BFDF
:1054E000A5E1010010B50B4B00221A700A4B0B4AC4
:1054F0001A604FF4004000F0C1FC00F071FA084857
:1055000015F006FBBDE81040064907480423282291
:1055100016F0DABB39110020040000204FAB010067
:105520004C060020203900205406002010B54FF012
:105530002003EFF3118483F31188BFF36F8F0448C6
:1055400015F0F6FA84F31188BFF36F8F10BD00BF1A
:105550004C060020064BBFF35B8F53E8002F01324F
:1055600043E800210029F8D1BFF35B8F704700BFEB
:10557000440600200020064BBFF35B8F024653E831
:10558000000F43E800210029F9D1BFF35B8F70477A
:1055900044060020F8B5FFF7EDFF0A4C0A4D2D1B1D
:1055A00007462D110026AE4200DBF8BD63685B792B
:1055B0002BB123681B6913B1394620469847013641
:1055C0001034F0E7F8C8010008C90100044A054B8F
:1055D0009B1AB1EBD30F34BF52F831000020704753
:1055E000A0C80100F8C80100094B4268C31A1B118A
:1055F000013310B513714368064C196001225A71CA
:10560000227812B9044805F0C1F90123237010BDB6
:10561000F8C80100381100205802002070B5124B64
:10562000BFF35B8F53E8005F6A1C43E80021002949
:10563000F8D1BFF35B8F2DB90C4C0D4E361B3611D4
:10564000B54200DB70BD237B53B123689B690BB16E
:10565000204698476368042219682046FFF7C4FF74
:1056600001351034ECE700BF48060020F8C80100FF
:1056700008C90100174B984273B5044602D3164B74
:10568000984221D315480022002301A904F0B8FF55
:105690000546E0B90122019BBFF35B8F53E8001F71
:1056A00043E800200028F9D1BFF35B8F019E331D32
:1056B0001F221846214616F080FD7E22034686F8FA
:1056C000232086F824501C46204602B070BD044BAF
:1056D000F9E700BFF0C50100E0E201005406002038
:1056E0008BD7010048B1054B984205D3A0339842AF
:1056F0002CBF002001207047002070472039002077
:105700002DE9F04F464B1B7885B0044603B900B332
:10571000FFF70CFF054678B1BFF35B8F414B53E8B1
:10572000002F013A43E800210029F8D1BFF35B8F35
:105730009CB1284615F0EAFA2CB93B4B1B68002BAC
:1057400001DDFFF727FF394815F0F0F9041E18BFF7
:105750000124204605B0BDE8F08F354B1B78CBB94E
:105760002B7ADB0716D415F0E4FA8046284615F0AC
:10577000ABFA01464046FFF791FE2E4F2E4BDFF865
:10578000D4B0DB1BDB0803932C4BDB1B06464FEA34
:10579000D30A36B92A4E2B4FBF1B3F114FF00008DA
:1057A0003AE0B6FA86F1C1F11F094946284615F0DC
:1057B0008EFA254B9842014602D3244B98421AD3C5
:1057C0000846FFF78FFF0246A8B9214B994212D035
:1057D0006B890399C3F389138B4238BF57F8332081
:1057E0004FEA8A1343F00103ADF8003049464346BF
:1057F000584615F0EAF9012101FA09F126EA0106F5
:10580000C7E773685B7923B1336829465B68304624
:10581000984708F101081036B845F2DB89E700BF68
:105820003811002040060020440600204C060020CD
:1058300039110020A0C80100F8C80100B0C801005B
:10584000F8C8010008C90100F0C50100E0E201004C
:105850008BD70100A5D70100294B37B51B684181C3
:1058600004469847E0604FF02003EFF3118583F37F
:105870001188BFF36F8F2348214615F04DF985F34A
:105880001188BFF36F8FBFF35B8F1F4B53E8002F5F
:10589000013243E800210029F8D1BFF35B8F1B4A96
:1058A000127882B14FF02003EFF3118483F3118853
:1058B000BFF36F8F0020FFF723FF84F31188BFF33E
:1058C0006F8F03B030BD124A1B681268002AF8D0EF
:1058D000012B0AD100220023CDE900230D484FF40B
:1058E0000042002305F0E6FEEBE70A2BE9D1094868
:1058F00016F0C3FB084803B0BDE8304005F046B8D9
:10590000040000204C060020400600203911002031
:1059100070060020B80200205802002010B5FFF7E2
:105920007DFE05F0ADFC0C4B186030B10B4B1B68D5
:10593000092B02DD0A4805F029F8094C0020FFF781
:10594000DFFE0028FAD14FF0FF324FF0FF33204640
:1059500005F03CF8F2E700BF70060020400600208A
:1059600058020020F8B50E4F3D7875B90D4C0E4E1B
:10597000FFF754FE361B3611B54207DB0020FFF758
:10598000BFFE0028FAD101233B70F8BD63685B7944
:105990001BB1236820465B69984701351034EBE75B
:1059A00039110020F8C8010008C9010007B5043802
:1059B0000190BFF35B8F50E8003F5A1E40E8002182
:1059C0000029F8D1BFF35B8F012B03D1034801A954
:1059D00016F095F903B05DF804FB00BF54060020F3
:1059E0002023024902481A4616F06EB9C039002039
:1059F0007406002037B50023094D01930120FFF7FD
:105A00007FFE0446FFF7A6FD0022002301A92846D9
:105A100004F0F6FD08B1002CF0D1019803B030BDC0
:105A20007406002007B500230193074800220023D5
:105A300001A904F0E5FD10B1FFF7DCFF019001982A
:105A400003B05DF804FB00BF74060020F0B5037AD4
:105A5000457A85B02D090190D8071CD4DDB100240A
:105A600026460198314615F032F90746FFF73AFE0F
:105A700070B134B9019B29461869FFF70FFD044640
:105A800048B124FA06F3D90702D53846FFF78EFF4E
:105A90000136AE42E5D3019B1A7A920704D55B69C1
:105AA000084C0393039B2BB9064801A916F027F96C
:105AB00005B0F0BD1D6803A9204616F020F9039536
:105AC000F0E700BF740600200EB403B503AB014637
:105AD00053F8042B04480193FFF7FCF802B05DF87B
