:10100000E0600020816F00001F8C0200B16F0000C3
:10101000B16F0000B16F0000B16F00000000000070
:10102000000000000000000000000000CD6C000087
:10103000B16F000000000000756C00002165000029
:10104000416F00004FC20200416F0000416F00007D
:10105000416F0000416F0000416F0000416F0000D0
:10106000416F0000416F0000416F0000416F0000C0
:10107000416F0000416F0000416F0000416F0000B0
:10108000416F0000416F0000416F0000416F0000A0
:10109000416F0000416F0000416F0000416F000090
:1010A000416F0000416F0000416F0000416F000080
:1010B000416F0000416F0000416F0000416F000070
:1010C000416F0000416F0000416F0000416F000060
:1010D000416F0000416F0000416F0000416F000050
:1010E000416F0000416F0000416F0000416F000040
:1010F000416F0000416F0000416F0000416F000030
:1011000001F0FF01102A2BDB10F0070F08D010F8B8
:10111000013B013A8B422DD010F0070F42B3F6D1BC
:10112000F0B441EA012141EA014122F007047FF0D5
:1011300000070023F0E80256083C85EA010586EA2C
:10114000010685FA47F5A3FA87F586FA47F6A5FA68
:1011500087F68EB9EED1F0BC01F0FF0102F0070274
:1011600032B110F8013B013A83EA010313B1F8D11F
:101170000020704701387047002D06BF3546033800
:10118000073815F0010F07D1013015F4807F02BF39
:10119000013015F4C03F0130F0BC0138704700BF8A
:1011A00081F0004102E000BF83F0004330B54FEA18
:1011B00041044FEA430594EA050F08BF90EA020F85
:1011C0001FBF54EA000C55EA020C7FEA645C7FEA18
:1011D000655C00F0E2804FEA5454D4EB5555B8BF3B
:1011E0006D420CDD2C4480EA020281EA030382EAAC
:1011F000000083EA010180EA020281EA0303362D3E
:1012000088BF30BD11F0004F4FEA01314FF4801C10
:101210004CEA113102D0404261EB410113F0004F22
:101220004FEA03334CEA133302D0524263EB4303D9
:1012300094EA050F00F0A780A4F10104D5F1200E77
:101240000DDB02FA0EFC22FA05F2801841F10001D2
:1012500003FA0EF2801843FA05F359410EE0A5F1A6
:1012600020050EF1200E012A03FA0EFC28BF4CF0D7
:10127000020C43FA05F3C01851EBE37101F000458D
:1012800007D54FF0000EDCF1000C7EEB00006EEB9A
:101290000101B1F5801F1BD3B1F5001F0CD3490824
:1012A0005FEA30004FEA3C0C04F101044FEA44527B
:1012B00012F5800F80F09A80BCF1004F08BF5FEA02
:1012C000500C50F1000041EB045141EA050130BDE2
:1012D0005FEA4C0C404141EB010111F4801FA4F185
:1012E0000104E9D191F0000F04BF01460020B1FADA
:1012F00081F308BF2033A3F10B03B3F120020CDA12
:101300000C3208DD02F1140CC2F10C0201FA0CF0EF
:1013100021FA02F10CE002F11402D8BFC2F1200C54
:1013200001FA02F120FA0CFCDCBF41EA0C0190400A
:10133000E41AA2BF01EB0451294330BD6FEA040453
:101340001F3C1CDA0C340EDC04F11404C4F120023E
:1013500020FA04F001FA02F340EA030021FA04F350
:1013600045EA030130BDC4F10C04C4F1200220FAA7
:1013700002F001FA04F340EA0300294630BD21FAE5
:1013800004F0294630BD94F0000F83F4801306BFAB
:1013900081F480110134013D4EE77FEA645C18BF9F
:1013A0007FEA655C29D094EA050F08BF90EA020F36
:1013B00005D054EA000C04BF1946104630BD91EA2E
:1013C000030F1EBF0021002030BD5FEA545C05D131
:1013D0004000494128BF41F0004130BD14F5800470
:1013E0003CBF01F5801130BD01F0004545F0FE41E4
:1013F00041F470014FF0000030BD7FEA645C1ABF19
:10140000194610467FEA655C1CBF0B46024650EA4F
:10141000013406BF52EA033591EA030F41F400217B
:1014200030BD00BF90F0000F04BF0021704730B501
:101430004FF4806404F132044FF000054FF00001D6
:1014400050E700BF90F0000F04BF0021704730B597
:101450004FF4806404F1320410F0004548BF40426C
:101460004FF000013EE700BF42004FEAE2014FEAC1
:1014700031014FEA02701FBF12F07F4393F07F4F9C
:1014800081F06051704732F07F4208BF704793F09F
:101490007F4F04BF41F40021704730B54FF46074B2
:1014A00001F0004521F000411CE700BF50EA0102B5
:1014B00008BF704730B54FF000050AE050EA01025E
:1014C00008BF704730B511F0004502D5404261EBCE
:1014D00041014FF4806404F132045FEA915C3FF40F
:1014E000D8AE4FF003025FEADC0C18BF03325FEAAC
:1014F000DC0C18BF033202EBDC02C2F1200300FA5D
:1015000003FC20FA02F001FA03FE40EA0E0021FA81
:1015100002F11444BDE600BF70B54FF0FF0C4CF46F
:10152000E06C1CEA11541DBF1CEA135594EA0C0F21
:1015300095EA0C0F00F0DEF82C4481EA030621EA5C
:101540004C5123EA4C5350EA013518BF52EA033597
:1015500041F4801143F4801338D0A0FB02CE4FF049
:101560000005E1FB02E506F00042E0FB03E54FF079
:101570000006E1FB03569CF0000F18BF4EF0010E71
:10158000A4F1FF04B6F5007F64F5407404D25FEA6D
:101590004E0E6D4146EB060642EAC62141EA555120
:1015A0004FEAC52040EA5E504FEACE2EB4F1FD0C62
:1015B00088BFBCF5E06F1ED8BEF1004F08BF5FEAE0
:1015C000500E50F1000041EB045170BD06F0004692
:1015D00046EA010140EA020081EA0301B4EB5C043F
:1015E000C2BFD4EB0C0541EA045170BD41F4801137
:1015F0004FF0000E013C00F3AB8014F1360FDEBF5C
:10160000002001F0004170BDC4F10004203C35DA37
:101610000C341BDC04F11404C4F1200500FA05F3BA
:1016200020FA04F001FA05F240EA020001F000425B
:1016300021F0004110EBD37021FA04F642EB0601D1
:101640005EEA430E08BF20EAD37070BDC4F10C04FB
:10165000C4F1200500FA04F320FA05F001FA04F2BF
:1016600040EA020001F0004110EBD37041F10001AB
:101670005EEA430E08BF20EAD37070BDC4F12005B6
:1016800000FA05F24EEA020E20FA04F301FA05F21E
:1016900043EA020321FA04F001F0004121FA04F2C6
:1016A00020EA020000EBD3705EEA430E08BF20EA96
:1016B000D37070BD94F0000F0FD101F000464000D0
:1016C00041EB010111F4801F08BF013CF7D041EA52
:1016D000060195F0000F18BF704703F00046520056
:1016E00043EB030313F4801F08BF013DF7D043EA27
:1016F0000603704794EA0C0F0CEA135518BF95EADD
:101700000C0F0CD050EA410618BF52EA4306D1D163
:1017100081EA030101F000414FF0000070BD50EA82
:10172000410606BF1046194652EA430619D094EA0C
:101730000C0F02D150EA013613D195EA0C0F05D1F6
:1017400052EA03361CBF104619460AD181EA03014A
:1017500001F0004141F0FE4141F470014FF0000002
:1017600070BD41F0FE4141F4780170BD70B54FF09D
:10177000FF0C4CF4E06C1CEA11541DBF1CEA13551D
:1017800094EA0C0F95EA0C0F00F0A7F8A4EB0504FF
:1017900081EA030E52EA03354FEA013100F08880F6
:1017A0004FEA03334FF0805545EA131343EA1263BF
:1017B0004FEA022245EA111545EA10654FEA002674
:1017C0000EF000419D4208BF964244F1FD0404F52D
:1017D000407402D25B084FEA3202B61A65EB030589
:1017E0005B084FEA32024FF480104FF4002CB6EB46
:1017F000020E75EB030E22BFB61A754640EA0C00C6
:101800005B084FEA3202B6EB020E75EB030E22BF05
:10181000B61A754640EA5C005B084FEA3202B6EB46
:10182000020E75EB030E22BFB61A754640EA9C0005
:101830005B084FEA3202B6EB020E75EB030E22BFD5
:10184000B61A754640EADC0055EA060E18D04FEA93
:10185000051545EA16754FEA06164FEAC30343EA33
:1018600052734FEAC2025FEA1C1CC0D111F4801F00
:101870000BD141EA00014FF000004FF0004CB6E7F9
:1018800011F4801F04BF01430020B4F1FD0C88BF98
:10189000BCF5E06F3FF6AFAEB5EB030C04BFB6EBA3
:1018A000020C5FEA500C50F1000041EB045170BD96
:1018B0000EF0004E4EEA113114EB5C04C2BFD4EBC3
:1018C0000C0541EA045170BD41F480114FF0000E47
:1018D000013C90E645EA060E8DE60CEA135594EAC3
:1018E0000C0F08BF95EA0C0F3FF43BAF94EA0C0FC6
:1018F0000AD150EA01347FF434AF95EA0C0F7FF43B
:1019000025AF104619462CE795EA0C0F06D152EA8E
:1019100003353FF4FDAE1046194622E750EA410672
:1019200018BF52EA43067FF4C5AE50EA41047FF483
:101930000DAF52EA43057FF4EBAE12E74FEA4102E6
:1019400012F5001215D211D56FF47873B3EB625211
:1019500012D94FEAC12343F0004343EA505311F038
:10196000004F23FA02F018BF404270474FF00000CA
:10197000704750EA013005D111F0004008BF6FF008
:10198000004070474FF00000704700BF7BB972B94C
:101990000029BEBF00204FF0004106E008BF00282C
:1019A0001CBF6FF000414FF0FF3000F0D3B9ADF134
:1019B000080C6DE904CE002909DB002B1ADB00F0CE
:1019C00061F8DDF804E0DDE9022304B0704740422D
:1019D00061EB4101002B1BDB00F054F8DDF804E063
:1019E000DDE9022304B0404261EB4101524263EB66
:1019F00043037047524263EB430300F043F8DDF8C2
:101A000004E0DDE9022304B0404261EB410170478C
:101A1000524263EB430300F035F8DDF804E0DDE902
:101A2000022304B0524263EB4303704753B94AB9EF
:101A3000002908BF00281CBF4FF0FF314FF0FF30D6
:101A400000F088B9ADF1080C6DE904CE00F01AF889
:101A5000DDF804E0DDE9022304B07047430803F039
:101A60005533C01A830803F0333300F03330184481
:101A700000EB101000F00F3000EB002000EB0040F6
:101A8000000E70472DE9F047089E04468846002B5B
:101A900040F085808A42154648D9B2FA82F24AB1AE
:101AA000C2F1200701FA02F320FA07F7954047EA4E
:101AB000030894404FEA154E230CB8FBFEF71FFABB
:101AC00085FC0EFB178843EA084307FB0CF199429B
:101AD00009D9EB1807F1FF3080F0E380994240F21A
:101AE000E080023F2B445B1AA4B2B3FBFEF00EFB76
:101AF000103344EA034400FB0CFCA44509D92C191B
:101B000000F1FF3380F0CB80A44540F2C88002385A
:101B10002C4440EA0740A4EB0C0400271EB1D4403B
:101B20000023C6E900433946BDE8F087002A53D0B8
:101B3000B2FA82F2002A40F0B680491B4FEA154EF5
:101B40001FFA85F80127B1FBFEFC230C0EFB1C11CC
:101B500043EA014308FB0CF1994207D9EB180CF159
:101B6000FF3002D2994200F2EC808446591AA3B2A7
:101B7000B1FBFEF00EFB101443EA044408FB00F82E
:101B8000A04507D92C1900F1FF3302D2A04500F27D
:101B9000DC801846A4EB080440EA0C40BEE78B4208
:101BA00008D9002E78D00027C6E90001384639460A
:101BB000BDE8F087B3FA83F77FB98B4202D3824244
:101BC00000F2BD80841A61EB030301209846002EC9
:101BD000A9D0C6E90048A6E7FFDEC7F12005BB4053
:101BE00022FA05FC4CEA030C01FA07F420FA05F886
:101BF00021FA05F34FEA1C4E48EA0404B3FBFEF950
:101C0000210C0EFB19331FFA8CF841EA034309FB40
:101C100008FA9A4502FA07F200FA07F10BD91CEB11
:101C2000030309F1FF3080F088809A4540F28580F7
:101C3000A9F102096344A3EB0A03A4B2B3FBFEF0CB
:101C40000EFB103344EA034400FB08F8A04508D912
:101C50001CEB040400F1FF336BD2A04569D90238B4
:101C6000644440EA0940A4EB0804A0FB02894C4507
:101C7000C6464B4654D351D0002E69D0B1EB0E026C
:101C800064EB030404FA05F522FA07F3FC401D4354
:101C9000C6E90054002746E73746304643E7184672
:101CA00037E707461FE7C2F1200320FA03F7954004
:101CB00001FA02F021FA03F34FEA154E3843010C02
:101CC000B3FBFEF71FFA85F80EFB173341EA034119
:101CD00007FB08F38B4204FA02F407D9691807F1ED
:101CE000FF3C28D28B4226D9023F2944CB1A81B22D
:101CF000B3FBFEF00EFB103341EA034100FB08F397
:101D00008B4207D9691800F1FF3C10D28B420ED9E3
:101D100002382944C91A40EA074714E74145ABD2C3
:101D2000B8EB020E69EB0C0201381346A4E76046DB
:101D3000F0E7184695E76746D8E781467BE73846DF
:101D400045E7ACF1020C2B4410E702382C4421E7A4
:101D50003746E8E6704700BF4FF0FF3C06E000BFA3
:101D60004FF0010C02E000BF4FF0010C4DF804CD24
:101D70004FEA410C7FEA6C5C4FEA430C18BF7FEAE4
:101D80006C5C1BD001B050EA410C0CBF52EA430C12
:101D900091EA030F02BF90EA020F0020704710F192
:101DA000000F91EA030F58BF994208BF90422CBF21
:101DB000D8176FEAE37040F0010070474FEA410C1A
:101DC0007FEA6C5C02D150EA013C07D14FEA430C38
:101DD0007FEA6C5CD6D152EA033CD3D05DF8040BA9
:101DE000704700BF8446104662468C4619466346DB
:101DF00000E000BF01B5FFF7B7FF002848BF10F1B2
:101E0000000F01BD4DF808EDFFF7F4FF0CBF0120F6
:101E100000205DF808FB00BF4DF808EDFFF7EAFF72
:101E200034BF012000205DF808FB00BF4DF808ED2D
:101E3000FFF7E0FF94BF012000205DF808FB00BF22
:101E40004DF808EDFFF7CEFF94BF012000205DF8AC
:101E500008FB00BF4DF808EDFFF7C4FF34BF0120B9
:101E600000205DF808FB00BF4FEA410C7FEA6C5C84
:101E700002D150EA013C0AD14FEA430C7FEA6C5C84
:101E800002D152EA033C02D14FF0000070474FF0FC
:101E90000100704710F8012B11F8013B012A28BFFF
:101EA0009A42F7D0D01A7047034613F8012B002A44
:101EB000FBD1181A01387047D0B514460F460646B4
:101EC000FFF73CFD2060FFF7BDFA02460B463046A7
:101ED0003946FFF769F904A3D3E90023FFF71CFB98
:101EE000FFF72CFD6060D0BD0000000080842E4113
:101EF0002DE9F8438946D0E90A71066B164D8C1915
:101F00003034A742904612A3D3E9002315D8A1FB91
:101F10000501FFF78BFD20F07F40C9F80000E01BB2
:101F20000BA3D3E90023A0FB0501FFF77FFD20F001
:101F30007F40C8F80000BDE8F883A7FB0501FFF764
:101F400075FD20F07F40C9F8000006F13000E7E79A
:101F50008D49FD1A0700000000CA9A3B00000000EE
:101F60002DE9F04F8DB030B918F064FF06463046C9
:101F70000DB0BDE8F08FCA4B93F84E6016F0010625
:101F80001D4601D00C26F2E793F82D2003EB8202C8
:101F9000176B93F8392003EB8203D3F83C8047B1E9
:101FA000384629F0F2FE3B785A0617D4404629F00D
:101FB000ECFE3B7813F00E0F40F098806B6A002B1C
:101FC000E0D118F0A1F9814630B118F0A9F98246A4
:101FD00058B9484618F09EF90726C8E7062129F0A7
:101FE000A1FB0028E2D11226C1E719F0CBF9044683
:101FF00018B9504618F09AF9EBE74FF6FF7383854E
:10200000C36E00F11C0B13B900F16403C36604F145
:10201000600204F15C01E06E29F08FFB94F87220FD
:10202000C4F8CC9022F0070284F8722094F83D2086
:1020300002F03F0262F07F0284F83D2094F84020D5
:10204000002363F3000284F840200622A4F87420E1
:1020500094F88020E36622F0030284F880208E2228
:10206000C4E92E2394F8C220A4F8703022F00302B1
:1020700084F83F3063866363C4E913336365A4F86F
:102080007830A4F87C30A4F88C3084F88E30C4F812
:102090009C30A4F8A030A4F8B430A4F8C03084F880
:1020A000C22084F8CB30A4F8EC3094F8EE20C5F8C8
:1020B00024B0C5E9119A63F3041284F8EE2094F871
:1020C0002020C4F8143163F30002C4E94833C4E9A2
:1020D0004633C4E90533E46184F820201AF066FE33
:1020E00020B16F4818F0ECFC032640E795F8283043
:1020F0000121C3F342030DF12B008DF82B3029F0A1
:1021000048FB002800F0BF803A7802F00F02022A54
:1021100000F1FF3472D17A781032D200504300F5CA
:10212000AA72642000FB042095F820305D49ED611F
:10213000002464F3000385F8203031232B60C5E9C7
:10214000054455A3D3E900236C60AC60A0FB0101FA
:10215000FFF76CFCE860B5F84C8029F082FD814601
:10216000B8F1000F05D13C7804F00F04631E5C4207
:102170005C4195F82820EB68DFF83CB164F300027D
:1021800012F001044FF0020A85F828200BAF464AEE
:10219000CDF82CA053D00020CDE905250493CDE93E
:1021A00000030321CDE907B7CDE902004B465246B3
:1021B00029F024FD394618F045F9002863D13B4A3F
:1021C00006954AF2D833CDE904020093CDE907B76A
:1021D000CDE9020001904B4601220321CDF82CA04D
:1021E00029F00CFD394618F02DF900284BD195F84F
:1021F0004E3043F0010385F84E30B8E6012A16D080
:1022000098F801301033DB005AB97A78103203F5B0
:102210002773D2009833134402F59A7204FB0230FC
:1022200082E7062A07D1797801F11002EFE716223A
:102230004FF42D73EDE710224FF4AA73E9E71C4920
:1022400003F2471008601B48CDE90432CDE9065B74
:102250004FF6FF731FFA88FBCDE90871CDE9024301
:10226000ABFB0001912303FB0B110BA3D3E900236C
:10227000FFF7DCFB4B46CDE90040524603212046E8
:1022800016F020FCAEE76B6A002B3FF47BAE0448EF
:1022900018F016FC76E600BF8D49FD1A0700000015
:1022A0004C3B002000CA9A3BD1A901008DAC010033
:1022B0009C3B0020002AE7846D9D01000000000087
:1022C0002DE9F04F90F82430414F044690F8380043
:1022D00003F0F903C0F3400060F386138DB084F877
:1022E000243004F1250116F0BDFC94F82030B4F838
:1022F0003280E461002565F30003A8FB070184F840
:102300002030912303FB0811C4E905552EA3D3E91E
:102310000023FFF78BFB31232360636B6560093378
:10232000A0F13102934232BFE360E5606563A560CE
:10233000284D064629F095FC02230B93651B3C2390
:10234000B5FBF3F5244BB4F832B0CDE90643234B8B
:102350000593BA46E368049307469123ABFB0A0151
:102360004FF000080DF12C0903FB0B1116A3D3E964
:102370000023CDF82090CDF80C80FFF757FB1046D6
:1023800019464FF47A720023FFF750FB0435EDB283
:10239000CDE901600321CDF800803B462A46404646
:1023A00029F02CFC494618F04DF840B994F8383023
:1023B00043F0010384F838300DB0BDE8F08F0C20F5
:1023C000FAE700BFAFF300808D49FD1A0700000057
:1023D000002AE784C03B00206D9D010029B0010068
:1023E000F8B50646002015461F4618F08BFE044639
:1023F000F8B190F8382090F82430418667F3420213
:1024000080F838209DF8182066F3C71362F3C403E0
:1024100080F824300A48ADB2A5FB0001912303FBEC
:10242000051105A3D3E90023FFF700FB606300203B
:10243000F8BD0C20FCE700BF8D49FD1A0700000025
:10244000002AE784000000002DE9F04F934690F841
:102450008C3090F88D2093428DB0044688460BD185
:1024600090F8A12090F8A010914224D00122023BC4
:1024700080F88E2080F88D3094F88C2094F88D3080
:10248000D31A03F00303022B40F05D8294F88E30E0
:10249000012B00F00682022B00F010844FF47872BA
:1024A000C649C74824F063FD404080F311884FF0CF
:1024B000030002DF47E290F8B53090F8B4108B4289
:1024C0005CD05B1ADE07D7D590F8805015F0010577
:1024D00027D017F059FF01460028CDD094F8B4302A
:1024E00084F8B530A38DC38003230371037F43F0C9
:1024F0000303037709234377C3770023036243620F
:10250000D4F8BC3080F82030C3F307221B0C80F8CD
:10251000212080F82230086817F00EFF17F016FF10
:10252000AAE7A84829F0C5F801460028A4D094F8E5
:10253000B530013B84F8B5308E23C4F8B830037948
:1025400043F0030303710923437194F93D3085601F
:10255000002BACBF08230E23C560C371D4F8B8307C
:102560000372C3F307221B0C42728372204629F0C8
:10257000FDFCB4F87A30A4F87C307DE790F8C130E7
:1025800090F8C0108B425ED05B1ADD077FF574AF08
:1025900090F8C23013F0010523D18A4829F089F858
:1025A000014600283FF468AF94F8C130013B84F83D
:1025B000C13094F8C23043F0010384F8C23003798B
:1025C000857243F003030371062343710C23C37127
:1025D0000B230372592343724FF0FF33C37203730B
:1025E000C4E7980722D517F0CFFE014600283FF434
:1025F00043AF94F8C03084F8C130A38DC380032367
:102600000371037F43F003030377062343770C230F
:10261000C37794F8C33080F82030B4F8C430A0F801
:102620002130B4F8C630A0F8233074E740F67A328F
:102630006249634824F09BFC404080F311884FF0CE
:10264000030002DF18E790F8ED1090F8EC309942A3
:102650003FF412AF5C4D2B6813B198427FF40CAF7E
:1026600094F8EE3003F00703052B00F2178101A167
:1026700051F823F08D2600000727000053280000A2
:102680007924000079240000792400004D48E68E6A
:10269000678E29F00EF8014600283FF4EDAE94F85D
:1026A000EE30042262F3020384F8EE30037943F043
:1026B00003030371182343710F23C371B4F8F0307F
:1026C0000381B4F8F2304381B4F8F4308381B4F874
:1026D000F630C3813E4400230374C37403755E4423
:1026E0004FF0FF33A0F8116043758375C37503760F
:1026F00043768376C376037743778377204629F042
:1027000035FC2C6035E794F8EF60EEB12D4828F0E9
:10271000D0FF014600283FF4AFAE037943F0030336
:1027200003711123C371032343710F23037294F8C0
:10273000EF304372204629F019FC94F8EC3084F80D
:10274000ED3000232B6097E694F93D30002B3DDB04
:1027500094F8EE30C4F8AC60052161F3020394F8FC
:10276000F81084F8EE30012384F8B03011B3B4F8D7
:10277000F030B3FBF1F3013313FB01F39BB2A4F888
:10278000A430B4F8F430A4F8A630B4F8F630A4F8C5
:10279000A83094F8A230022161F3010394F8EE10FE
:1027A000C1F3C00161F38203013A84F8A23084F8D6
:1027B000A12061E6B4F8F230E1E700BFD64F030094
:1027C00094FA020018400020943F0020634828F04B
:1027D00070FF014600283FF44FAE037943F0030336
:1027E0000371182343711023C371B4F8F0300381CF
:1027F000B4F8F2304381B4F8F4308381B4F8F630A1
:10280000C38194F8F8300374B4F8FA30A0F81130AA
:10281000B4F8FC30A0F81330B4F8FE30A0F815304E
:10282000B4F80031A0F81730B4F80231A0F819302C
:10283000B4F80431A0F81B30B4F80631A0F81D300C
:10284000204629F093FB94F8EC3084F8ED302E60AC
:1028500012E617F099FD014600283FF40DAE94F8FA
:10286000EE20032363F3020284F8EE20A28D0371AD
:10287000037FC28043F003030377182343770F23BA
:10288000C377B4F8F0300384B4F8F2304384B4F87A
:10289000F4308384B4F8F630C3843CE640F68742D3
:1028A000C6E62F4B196801B91C60618EE68E0E4496
:1028B00094F8A2105E4411F00300B6B252D0012089
:1028C00017F04AFD074600283DD0244828F0F1FEC5
:1028D0000546C0B317F058FD3B68D4F89C205A60F9
:1028E00094F8A230C4F89C706FF3010384F8A2300E
:1028F000238E1E442B790636B6B243F00303A4F8A8
:1029000090602B710C236B710023EB7194F8B03045
:102910002B7240F2E242D4F8AC30B3FBF2F3A5F8EC
:102920000930B4F8A430A5F80B30B4F8A630A5F8F7
:102930000D30B4F8A830A5F80F30A5F8116029467D
:10294000204629F013FB94F8C92094F8C8309A4225
:1029500040F0038200200DB0BDE8F08F1840002049
:10296000943F0020B4F890100A91771ABFB239044E
:10297000E9D494F8A01084F8A11084F88D2094F87C
:10298000EC1094F8ED208A4209D094F8EE2002F081
:102990000702052A04BF84F8ED10A4F87C001A6829
:1029A000D4F89C50944204BF00221A600DB12B68E9
:1029B0005BB940F60E12B849B84824F0D8FA404046
:1029C00080F311884FF0030002DF2868B4F8A420D8
:1029D0004368C4F89C30E38DB4F8A6C0B4F8A810DE
:1029E0009A4213D1238E634510D140F2E24303FB98
:1029F00002FE42F2107303FB01E3013BB3FBFEF363
:102A0000B4F876E09BB29E4500F02081A38DEB8068
:102A100015232B7100232B77EA83A5F820C0698446
:102A2000294617F089FC17F091FC2368002B0ADA7D
:102A3000D4E9012023F0004390422CBF804490440D
:102A40002360A8EB0308E38DB4F8A450DFF868A274
:102A500013FB07F39BB2B3FBF5F11FFA81F915FBEA
:102A600009F292B2934240F2E24080F0F280D31A2F
:102A70005843A0FB0A0186A3D3E90023FEF7D6FF43
:102A800020F07F408044638E9B440A9B9E1B94F9F8
:102A90003D304E445E44002B40F2E24B66860BFB19
:102AA00005F580F2E480E26C636C03FB1727E764B2
:102AB00029F03BFC064694F88000C0F382001AF02F
:102AC000C3F994F8B02006440BFB02F262656E4332
:102AD0000022C4F8882006F57426E26C704806F2DD
:102AE0003F266B08B6FBF0F606FB09F0963B024466
:102AF000A3649A4294BFE264E364666464A3D3E986
:102B00000023A0FB0A01FEF791FFA8EB0008D4F810
:102B1000AC00B0FBFBF00BFB00F05DA3D3E900239E
:102B2000A0FB0A01FEF782FFA5EB060920F07F4714
:102B3000B4F8A430E385B4F8A6302386B4F8A830FE
:102B400042F2107202FB0353013BB3FBF5F3A4F80E
:102B50007630544B2B44B3FBF5F594F8A230A4F82F
:102B60007A505A0744BF0023A4F87830022101208C
:102B70001BF01AFF002202210646012015F03AFA46
:102B8000204618F00BFC0530C5B2474B00942A468E
:102B90000121002016F02CF830F002030BD040F693
:102BA000B7123D493D4824F0E2F9404080F31188D6
:102BB0004FF0030002DFA9FB0A23CDE90A23DDE978
:102BC0000A0133A3D3E90023FEF730FF374B089403
:102BD000CDE90643364B0593E36804934FF6FE7345
:102BE0000393344B0A9920F07F44A4FB03ABB1EB71
:102BF0000A004FF007030B9903FB04BB61EB0B01C9
:102C00004FF47A720023FEF711FF4346CDE90140ED
:102C100000972A460121002028F0F0FF30F002033F
:102C20000BD040F6D1121C491C4824F0A0F94040BA
:102C300080F311884FF0030002DF26B10122022148
:102C4000104615F0D7F96FF08B0084E601232B7145
:102C5000E6E605FB113189B248430DA3D3E9002311
:102C6000A0FB0A01FEF7E2FEA8EB00080BE740F626
:102C700087120949094824F07AF9404080F3118805
:102C80004FF0030002DF0027A94651E7AFF30080B1
:102C90008D49FD1A07000000D64F030094FA020088
:102CA00040420F00FF59620245B20100F9B1010034
:102CB0001DC501008D49FD1A00CA9A3BE38E618E45
:102CC0000B449B4494F89030DB071FFA8BFB25D50F
:102CD000354828F0EEFC014600283FF434AE94F865
:102CE00090306FF3000384F89030238E9B44037977
:102CF0000BF1060B43F00303A4F896B0037108230D
:102D000043710123C371234653F8910F88601B79E7
:102D10000B73B4F89630A1F80D3011E6B4F8963084
:102D2000ABEB030B1BF4004F7FF40DAE234684F88E
:102D30008D2053F8912FA26304F138001B790371A1
:102D4000052128F026FD94F83D3060F3050384F852
:102D50003D30012384F82831F5E5134828F0A9FC1B
:102D6000014680B194F8C83084F8C930037943F043
:102D70000303037102234371C37194F8CA300372D1
:102D8000204629F0F3F8B4F87C0000287FF4E2AD87
:102D9000B4F87630012B02D9A4F87C30DAE501339F
:102DA000A4F87C30D7E500BF1840002000000000E8
:102DB0002DE9F04F1D46136891460A46D3F800A04E
:102DC0002B460C4632F82E1F53F80C6BA9819278D3
:102DD0009A70D4F82A30AB602346834653F83A2FD2
:102DE000EA6105F11C001B79037191B0052128F0FF
:102DF000D0FC95F8213000F03F0060F30503012876
:102E000085F8213040F22B8194F83F30C3F304035E
:102E100085F82230053B03F0FF030B2B00F21F81E6
:102E2000D9F800304FF00008C3F80880A78E6F82F1
:102E300094F8372094F8363043EA0223AB82638E4D
:102E40000A9340F2E2435F4394F83F3096F88020C3
:102E50005B0963F3840286F8802029F066FA0D90FE
:102E600096F88000C0F3820019F0EEFF0D9B184425
:102E7000784300F574207E4B00F23F20B0FBF3F066
:102E80007B08963BEB6294F83130A86240F2E24254
:102E90005343EB63228F42F2107303FB0273013B37
:102EA000B3FBF7F3A6F87630724B3B44B3FBF7F372
:102EB000A6F87A30AB68C6F884302146237F51F8F3
:102EC0001E0F0E908988ADF83C10C3F38013A377D2
:102ED0004FF48071BDF83C30A183C4F81F00A4F802
:102EE00023306B8AE384AB8A238596F88030628531
:102EF000C3F3820384F82C30304618F04FFA214691
:102F00002882E080584617F017FA17F01FFA41465A
:102F1000404629F0DEF9DFF878B1C6F804800446AF
:102F2000312300F252403360C6F808804EA3D3E943
:102F30000023A0FB0B01FEF779FDAB6A0A99FF1A8B
:102F4000D9F80C3040F2E24202FB013320F07F401E
:102F500003F2863342460221F06001201C1B15F06B
:102F600049F8504617F044FF821C434BCDF800A0AF
:102F7000D2B20121404615F03BFE514619F0B4FA99
:102F80009AF8283013F0010F5D4607D00122CDF8E2
:102F9000008043461146404615F02AFE304618F0A0
:102FA000FDF9A7FB0523CDE90A2380462EA3D3E92B
:102FB0000023DDE90A01FEF739FDD9F808300A9946
:102FC000A3F131094FF4B67308932C4BCDE9066396
:102FD0002B4B0593F36804932A4B20F07F46A6FB06
:102FE00003ABB1EB0A004FF007030B9903FB06BBE1
:102FF00061EB0B0108F105074FF47A724FF00008FE
:103000000023CDF80C80FEF711FD17A3D3E90023B0
:10301000CDE90160A4FB0501FEF708FDFFB220F039
:103020007F4000904B463A460121404628F0E6FD9D
:1030300030F002030BD04FF4B7721349134823F05A
:1030400096FF404080F311884FF0030002DF012219
:103050000221104611B0BDE8F04F14F0CBBF11B003
:10306000BDE8F08FAFF300808D49FD1A0700000026
:1030700040420F00FF596202E9C40100C1C40100CF
:103080001DC501008D49FD1A2850030094FA020065
:1030900000CA9A3B000000002DE9F04F8FB0834634
:1030A0000DF137010DF1360028F068FEDFF8D88009
:1030B0009DF836300A939DF837300B93DFF8CC90AB
:1030C00028F0CFFDD8F80040A4FB094528A3D3E998
:1030D0000023824629462046FEF7A8FC0646D8F87B
:1030E0000400254B0593002721A3D3E90023A0FB6F
:1030F0000901CDF818B0CDE90777FEF797FC1F4B13
:1031000026F07F46A6FB03BC20F07F40072303FB8D
:1031100006CCCDE90370B4EB0B0065EB0C014FF46A
:103120007A720023FEF782FC5346CDE901600097D6
:103130000B9A0A98032128F061FD30F0020314D1A4
:103140000F4A1048002320F0F5FB58B19DF83720B6
:103150009DF8360003211CF06DFD6FF073000FB079
:10316000BDE8F08FD8F80C00F9E76FF08B00F6E7B8
:103170008D49FD1A07000000D9FC01008D49FD1A98
:10318000447B0B00EC440020DC44002000CA9A3B46
:1031900038B50F4D044628F064FDA96828F063FD9A
:1031A0000C49B0FBF4F40444686807A3D3E9002396
:1031B000A0FB0101FEF73AFC20F07F40844294BF5F
:1031C0000020012038BD00BF8D49FD1A0700000016
:1031D000DC44002000CA9A3BD0E9132C2DE9F843C7
:1031E0004E680C681E49A6EB0C06A41AF717C1FB23
:1031F0000467002E77F1000328DA046BC36A764275
:1032000067EB4707E517C1FB034590F8201001293C
:1032100014D1134800FB02C02AF0A2F900FB05F309
:103220004FEAE07904FB0933A0FB040119440AA327
:10323000D3E90023FEF7AAFB04460D46B44275EB22
:103240000703B4BF01200020BDE8F883846A436A05
:10325000E517D8E7AFF3008000E1F50500000000B6
:1032600040420F00000000002DE9F0430B688BB0D6
:103270000C461988054629F0C7FB6B462822002119
:1032800018462AF0BAF96468374A002C08BF044689
:10329000D4E9001330A7D7E9006702FB0131CB174F
:1032A0009F4208BF8E424FD30FF2B409D9E900897B
:1032B00040F6FF70C0FB0189404632463B46494616
:1032C000FEF7B4FB1FFA80F8D4E90232264901FB6D
:1032D000032C6246D3179F4208BF664537D320A10F
:1032E000D1E9000140F6FF76C6FB0C011AA3D3E931
:1032F0000023FEF79BFB86B25FFA88F1284629F08F
:103300007CFB310141EA1821C9B2284629F075FB3E
:10331000C6F30711284629F070FB217C284629F0C6
:103320006CFBD4E906011DF0DFFC0146284629F0BC
:1033300064FBD4E908011DF0D7FC014628460BB018
:10334000BDE8F04329F059BB4FF00008BCE7002668
:10335000D2E700BFAFF3008000E1F50500000000F8
:1033600080F0FA020000000040420F000000000060
:103370002DE9F04F476A97B080461D46239E92463E
:103380009B4647B9102022F007FBC0E90177C8F837
:1033900024000760C760D8F82430196859B15A680A
:1033A0004A60012393408B6040462AF08FFBD8F897
:1033B000243000221A602B1EAABF002323F0004BEA
:1033C0003360A74BBCBF0122326033EA0B035C467B
:1033D0001AD1229A42F20F731360CBF3130353EA0C
:1033E0000A0300F05E85249B53B99E4B21E09E4B5F
:1033F00005930833249A1360059817B0BDE8F08F41
:10340000984B05930333F5E70022002350465946B5
:10341000CDE90CABFEF7F6FC074660B1229A01231A
:103420001360249B002B00F03985904B249A136085
:10343000013B0593E0E714AB019315AB00934046C5
:10344000DDE90C232AF047FDCBF30A560390002E4A
:103450007FD00D9B1297C3F31303DDE90C4543F0B6
:103460007F5545F44015A6F2FF360022804B2046DA
:103470002946FDF799FE74A3D3E90023FEF74CF823
:1034800073A3D3E90023FDF791FE044630460D46B1
:10349000FDF7D8FF70A3D3E90023FEF73DF80246FD
:1034A0000B4620462946FDF781FE04460D46FEF7F1
:1034B00045FA00228146002320462946FEF7ACFC4F
:1034C00048B14846FDF7BEFF22462B46FEF79AFC60
:1034D00008B909F1FF39B9F1160F57D8654B03EB5D
:1034E000C903D3E90023DDE90C01FEF795FC0028B0
:1034F0004ED009F1FF3900231193149B9E1B731EBC
:10350000099345BFC6F101030893002300234CBF74
:1035100009930893B9F1000F3CDB099BCDF840906B
:103520004B44099300230A93209B092B00F2A680A9
:10353000052BC4BF043B2093209BA3F10203CCBF07
:1035400000240124032B00F2A480DFE803F02D3ACD
:10355000387BDDE914631E4406F232402028C1BFE7
:10356000C0F14000844006F212402AFA00F0D6BFB3
:10357000C0F1200020430AFA00F0FDF753FF0123B9
:103580000446A1F1F875013E12936EE70123B3E7FB
:103590001190B2E7089BA3EB09030893C9F100035C
:1035A0000A9300231093BFE700230B93219B002B6A
:1035B00072DC0123069304931A4621920BE0012347
:1035C000F3E700230B93219B4B4406930133012B1C
:1035D0000493B8BF0123D8F8245000226A60042263
:1035E00002F11400984269685AD940462AF03AFA22
:1035F000D8F8243028601B680593049B0E2B00F23A
:10360000D280002C00F0CF80B9F1000F66DD194A9E
:1036100009F00F0302EBC303D3E90034CDE90E3404
:103620004FEA2914E00657D5134BDDE90C01D3E925
:103630000823FEF79BF804F00F0482468B4603270D
:103640000D4D3EE00123BDE761436F63A787D23F85
:10365000B3C8608B288AC63FFB799F501344D33F81
:103660000000F07F4C5E0300435E030052FB02004B
:103670000000F83F60E8020038E80200012400235F
:1036800020930B944FF0FF330693049300221223F0
:1036900093E701230B93F5E7219B069304939AE7A5
:1036A0000131696052009BE7E10708D5DDE90E01B1
:1036B000D5E90023FDF730FFCDE90E010137641095
:1036C0000835002CF0D1DDE90E2350465946FEF7AF
:1036D0004DF882468B461AE00227B1E700F09D8044
:1036E000C9F100049C4B9D4D04F00F0203EBC20393
:1036F000D3E90023DDE90C01FDF70EFF241182461A
:103700008B4600230227002C7CD1002BE1D1119B9A
:10371000002B00F084800022914B504659465D46B4
:10372000FEF77AFB00287AD0049B002B77D0069B0B
:10373000002B36DD5046594600228A4BFDF7ECFE41
:10374000069C09F1FF3682468B4601373846FDF765
:1037500079FE52465B46FDF7DFFE0022824BFDF705
:1037600025FDA1F15075CDE90E010F95002C59D121
:1037700000227E4B50465946FDF716FD0E9A2B4609
:1037800082468B46FEF766FB002840F088820E9A40
:1037900005F1004350465946FEF73EFB002840F035
:1037A0007C82DDE90CAB159B002BC0F24D81B9F199
:1037B0000E0F00F34981684B03EBC903D3E90034D2
:1037C000CDE90634219B002B80F2D480049B002B92
:1037D00000F3D08040F060820022644BDDE90601F6
:1037E000FDF79AFE52465B46FEF72AFB049C2646EE
:1037F000002840F03982059D312305F8013B09F18D
:10380000010935E2E20705D5D5E90023FDF784FE7D
:10381000013701236410083575E7022777E74E4624
:10382000049C93E74C4B03EBC40353E90201059B53
:103830001C440B9B002B44D002460B4600204C49F5
:10384000FDF794FFDDE90E23FDF7AEFCCDE90E0197
:10385000059D59465046FEF771F80746FDF7F2FD03
:1038600002460B4650465946FDF79EFC303705F898
:10387000017BDDE90E2382468B46FEF7CDFA002858
:1038800060D152465B4600203549FDF78DFCDDE9ED
:103890000E23FEF7C1FA002840F0B680A54280D082
:1038A0000022304BDDE90E01FDF736FE0022CDE9A6
:1038B0000E012C4B50465946FDF72EFE82468B4694
:1038C000C7E7DDE90E23FDF727FECDE90E01059FD1
:1038D000254659465046FEF731F81390FDF7B2FDE4
:1038E00002460B4650465946FDF75EFC139B3033AB
:1038F00007F8013BA74282468B464FF0000225D1D4
:103900001B4BDDE90E01FDF751FC02460B4650460C
:103910005946FEF79FFA002876D1DDE90E230020F4
:103920001349FDF741FC02460B4650465946FEF747
:1039300073FA00283FF435AF15F8013C302B05F140
:10394000FF3201D0B1464EE01546F5E7054BFDF7D5
:10395000E3FD82468B46BCE760E8020038E80200DF
:103960000000F03F0000244000001C400000144014
:103970000000E03F5F46059DDFF84CB556464FF02E
:10398000000ADDE9062330463946FDF7EFFEFDF774
:10399000D5FF0446FDF756FDDDE90623FDF7BCFD26
:1039A00002460B463046394604F13006FDF7FCFB73
:1039B00005F8016B059E049FAE1BB74202460B46FD
:1039C00035D1FDF7F3FBDDE9062306460F46FEF78A
:1039D00041FAC0B9DDE9062330463946FEF712FA4E
:1039E00008B1E3070FD4039940462AF06FF800238B
:1039F000229A2B7009F101031360249B002B3FF4E2
:103A0000FBAC1D60F8E44E4615F8012C392A05F18F
:103A1000FF3306D1059A9A4207D105993022013623
:103A20000A701A7801321A708CE71D46ECE752468C
:103A30005B46FDF771FD0022002306460F46FEF7A8
:103A4000E1F900289DD0CEE70B9A002A00F0CC8047
:103A5000209A012A00F3AE80129A002A00F0A68074
:103A600003F233430A9C089D089A1A440892099A63
:103A700001211A44404609922AF0CAF80646002D50
:103A80000CDD099B002B09DDAB42089AA8BF2B4631
:103A9000D21A0892099AED1AD31A09930A9BF3B124
:103AA0000B9B002B00F0A480002C10DD3146224639
:103AB000404622F0CBFC039A0146064640462AF0D7
:103AC000B0F80399074640462AF000F803970A9B8E
:103AD0001A1B04D00399404622F0B8FC0390012140
:103AE00040462AF095F8109B002B044640F3828054
:103AF0001A460146404622F0A9FC209B012B0446B1
:103B00007BDD0027236904EB830318692AF030F872
:103B1000C0F12000099B184410F01F0000F08B80BA
:103B2000C0F12003042B40F38480C0F11C00089BEB
:103B300003440893099B034405440993089B002B05
:103B400005DD1A46039940462AF0FBF80390099BCD
:103B5000002B05DD21461A4640462AF0F2F80446BD
:103B6000119B002B69D0214603982AF03DF90028CB
:103B700063DA00230A220399404629F0BEFF0B9B1B
:103B8000039009F1FF39002B00F0928100233146A8
:103B90000A22404629F0B1FF069B002B064600F39F
:103BA0008780209B022B40F383804EE0149BC3F15F
:103BB000360357E7049B5C1E0A9BA342BFBF0A9BC8
:103BC0000A94E21A109BB6BF9B181C1B1093049B0F
:103BD000B8BF0024002BB9BF089B049A089D049B22
:103BE000BCBF9D1A00233FE70A9C089D0B9E46E739
:103BF0000A9A6FE7209B012B17DCBAF1000F14D152
:103C0000CBF313039BB92BF000473F0D3F0537B1B2
:103C1000089B01330893099B013309930127109BEB
:103C2000002B7FF46FAF012074E70027F7E75746BA
:103C3000F5E783D018461C3079E7049B002B31DC74
:103C4000209B022B2EDD049B0693069B63B9214625
:103C50000522404629F051FF0146044603982AF008
:103C6000C3F800283FF7C7AD219B059D6FEA030904
:103C700000272146404629F029FF002E3FF4B3AE2D
:103C80002FB1B74203D03946404629F01FFF3146D5
:103C9000404629F01BFFA6E600242646E4E7B1468D
:103CA0002646A8E50B9B002B00F0BC80049B0693E6
:103CB000002D05DD31462A4640462AF042F80646E8
:103CC000002F52D07168404629F0CCFE3269023292
:103CD0000546920006F10C010C3029F053FC01223C
:103CE000294640462AF02DF8059B01330493DDE96F
:103CF000052313440A930AF0010337460993064645
:103D0000049B0398214603F1FF3A29F0EBFD394665
:103D1000069000F1300B03982AF066F832460890BE
:103D2000214640462AF07AF8C2680546FAB90146AB
:103D300003982AF059F80246294640460B9229F08A
:103D4000C5FE209B0B9A049D43EA0201099B0B438D
:103D50000FD1BBF1390F28D0089B002B02DD069B49
:103D600003F1310B8AF800B083E73046BCE701224B
:103D7000E2E7089B002B04DB20990B4309990B43D6
:103D80001ED1002AEEDD01220399404629F0D9FF19
:103D9000214603902AF028F8002803DCE2D11BF02A
:103DA000010FDFD0BBF1390FD9D139238AF80030A8
:103DB00015F8013C392B05F1FF3264D0013369E07D
:103DC000002A07DDBBF1390FEFD00BF101038AF8B0
:103DD00000304EE7049B0A9A03F801BC93423AD0A4
:103DE00000230A220399404629F087FEB742039038
:103DF0004FF000034FF00A023946404607D129F040
:103E00007CFE07460646049B0133049378E729F0BD
:103E100074FE3146074600230A22404629F06DFE13
:103E20000646F0E7049B0693059D0398214629F07A
:103E300059FD00F1300B059B05F801BBEA1A069B02
:103E4000934207DD00230A220399404629F055FEDC
:103E50000390EAE7002701220399404629F071FF09
:103E60002146039029F0C0FF0028A1DC02D11BF0FD
:103E7000010F9DD115F8013C302B05F1FF327FF485
:103E8000F8AE1546F6E7059B934205D1059A09F170
:103E9000010931231370ECE6154689E7084BFFF75B
:103EA000C8BA249B002B7FF4A2AA064BFFF7C1BA25
:103EB000069B002BB8DC209B022B3FF7C6AEB3E776
:103EC00051FB0200435E030000002440014823F040
:103ED0004EB800BF54F80200014823F048B800BFB4
:103EE00013F8020008B5024823F041F8002008BD8D
:103EF000EBF7020008B50146024823F038F800202D
:103F000008BD00BF44F80200082808B504D10648DF
:103F100023F02DF8002008BD012801D10348F7E760
:103F20006FF08500F7E700BF22F8020032F80200C8
:103F300010B5224823F01BF8214C1021204623F015
:103F400069FD62782378134062791340FF2B0DD10D
:103F50001C4B1A7822705A7862709A78A270DB78BB
:103F6000E370194B1A7822715B78637100F0F0F8F6
:103F70000146164826F07BF9014620B11448BDE8F9
:103F8000104022F0F4BF134822F0F1FF124822F053
:103F9000EEFF23F0F2FB032012F072FB10F1780F1A
:103FA000014606D10D4822F0E2FF0D4B01221A70A6
:103FB00010BD08B10B48E2E70B48F4E738F7020000
:103FC000CC460020A4000010A8000010900400209F
:103FD00046F7020069F702007BF702008CF7020047
:103FE000DC460020B5F70200D3F7020038B50F48D1
:103FF0000F4D22F0BCFF0F4805F0DCFA04462B7889
:1040000033B15CB121460C48BDE8384022F0AFBF67
:1040100000214FF4A4701FF0FFFBF0E7074822F0E7
:10402000A6FF0748BDE8384022F0A1BFD8F602003D
:10403000DC460020313F0000EFF602000FF70200DF
:1040400026F70200014822F092BF00BF71F802007B
:10405000014822F08CBF00BF82F802000A4B0B4AD5
:104060000B490C4810B522F042FE0B4B188010B1E2
:104070000A4822F071F84FF4004200230849094829
:10408000BDE810401FF088BE482500204C250020C8
:10409000804600208446002082460020ADF80200C1
:1040A0001015002090240020064B10B518881446E7
:1040B000FDF7B8F92246FDF7FFFE034BB3F9000008
:1040C00010BD00BF8046002082460020064B10B580
:1040D00018881446FDF7A6F92246FDF7EDFE034BBE
:1040E000B3F9000010BD00BF8446002082460020C6
:1040F000084B10B518681446FDF7A4F9064B0022CA
:10410000FDF734FB2246FDF7D7FE044BB3F9000060
:1041100010BD00BF4825002000408F40824600208F
:10412000084B10B518681446FDF78CF9064B0022B1
:10413000FDF71CFB2246FDF7BFFE044BB3F9000060
:1041400010BD00BF4C25002000408F40824600205B
:1041500010B522F01EFD002000F004F922F033FE1D
:104160000B4B0C4C188001460B4821F0F5FF302218
:104170000021204629F041FA084B63604FF40042C9
:104180000023214606481FF007FE064810BD00BF69
:10419000824600201015002092F802005D400000C9
:1041A0009024002028E902002DE9F84312F440652C
:1041B000064688461446D0F80490C7680CD093058C
:1041C0000AD41949194840F2362222F0D0FE40F2B2
:1041D0003621154823F044F9E00404D51DB1E10768
:1041E00048BF84F4E054012303FA08F5D9F80030FD
:1041F0001D420AD10C490D4840F2452222F0B7FE7B
:1042000040F24521084823F02BF9B36822461B6889
:1042100041463046984728B93B68E2074CBF2B43DC
:10422000AB433B60BDE8F8836AFA020094FA0200EF
:1042300010B52A481DF0FEFC294A106020B9294813
:10424000BDE8104022F093BE062141F20162FFF763
:10425000ABFF254C00280146206004DA2348BDE866
:10426000104022F084BE1D481DF0E4FC204A10607E
:1042700008B92048E4E7082141F20162FFF794FF02
:1042800000280146206001DA1B48E8E71B481DF0C2
:10429000D1FC1B4A106008B91A48D1E7092141F244
:1042A0000162FFF781FF00280146206001DA16480D
:1042B000D5E70A481DF0BEFC144A106008B914483E
:1042C000BEE70C2141F20162FFF76EFF00280146B4
:1042D000206001DA0F48C2E710BD00BF63F9020099
:1042E000502500206AF90200602500207EF90200B6
:1042F00054250020AAF90200BEF90200C3F802000A
:1043000058250020EAF90200FEF902005C25002091
:104310002AFA02003EFA020008B50D4822F027FEF4
:104320004FF080530B48D3F8A420114622F01FFE13
:10433000094822F01CFEFFF77BFF084822F017FE19
:10434000074822F014FEBDE80840FFF74FBE00BF4B
:10435000ACFA0200C5FA020001FB02001BFB0200DE
:1043600039FB020007B50D4A0346092B10689288F5
:104370000090ADF804200ED830338DF80430684634
:104380001DF058FC064B1860B0FA80F0400940421E
:1043900003B05DF804FB4FF0FF30F9E74DFB02007E
:1043A000642500201FB503460748CDE9011203220A
:1043B00000688DF80C20826801A954680122A0478A
:1043C00040B204B010BD00BF642500201FB50346F5
:1043D0000748CDE90112022200688DF80C2082689E
:1043E00001A954680122A04740B204B010BD00BF2B
:1043F00064250020024B7020198822F05CBC00BFAD
:104400007C100020002930B525DD144B98421EDBBE
:1044100000F59C40124B203098421AD842F210749A
:10442000104DB0FBF4F204FB120055F8223038B105
:10443000013255F82220D21A5043B0FBF4F0034465
:10444000DB084B4343F2D400B3FBF0F030BD002057
:10445000E4E7054BF4E70020F8E700BFE0B1FFFF19
:104460008F5F010060E902008506030010B5094C6A
:104470000A44914200D110BD11F8013B4340180994
:10448000205C80EA0310C3B21809205C80EA0310A4
:10449000C0B2EEE753FB0200436870B503F00303BC
:1044A0000546022B0E46A96010D0032B04D0012B29
:1044B0000FD10024204601E00468002000236B6037
:1044C00010B1314620F01AFB204670BD0068002470
:1044D000F4E745220449054822F049FD45210248F8
:1044E00022F0BEFF0024E8E763FB020094FA02001A
:1044F0000B6801330B60014B1B681847C006002096
:1045000007B50023019302460B46034801A900F0BA
:10451000ADFC03B05DF804FBF144000030B585B09C
:10452000CDE901010446002501A90548039500F0E5
:104530009DFCDDE902309842B8BF255405B030BD7E
:10454000496F02002DE9F74FB0F81C8018F0080FF2
:10455000044693461CD001290CBF48F0100848F0CF
:104560002008A0F81C8004F114001FF0ABFB40B938
:10457000B949BA48A72222F0FAFCA721B64822F08E
:104580006FFF8BF31188BFF36F8F03B0BDE8F08F1F
:10459000B34EDFF8C89208F00708022906D120467A
:1045A00022F0FFFC0028DED0012861D1D4F818A049
:1045B000A38BBAF1000F19DA0027256823F007034F
:1045C000C4E9007743F00103A383A38B03F0070240
:1045D0004245009203D0A268002A40F0EF8015B94E
:1045E000002F00F029814FF00008E9E003F00702F6
:1045F000511F01291ED8002123F00703062A256830
:104600009BB2C4E900110AD13DB1E28B2946096889
:10461000013292B20029FAD1E28343F00203A3836C
:10462000204622F0BEFC18B1A38B43F02003A383E5
:104630000027CAE7042A0FD123F007039AB2A28306
:10464000204622F0AEFC002800F0B68042F02002A6
:10465000A28300252F46B8E73146484640F219129A
:1046600022F085FC40F21911304622F0F9FEF0E705
:10467000032831D1B8F1000F0AD0314648464FF433
:10468000AA7222F074FC4FF4AA71304622F0E8FEC0
:10469000236853B93146484640F2551222F067FC70
:1046A00040F25511304622F0DBFE23691F6857B9EE
:1046B000314648464FF4AC7222F059FC4FF4AC71CD
:1046C000304622F0CDFEA38B23F0070343F0060310
:1046D000A3830025AA4678E704282ED1B8F1020F5B
:1046E0000AD03146484640F25B1222F040FC40F2CC
:1046F0005B11304622F0B4FEE38B53B1314648469D
:104700004FF4AE7222F033FC4FF4AE71304622F01B
:10471000A7FE23695F6857B93146484640F25F12E9
:1047200022F025FC40F25F11304622F099FEA38B67
:1047300023F0070343F00403CAE705282ED1B8F19C
:10474000010F0AD0314648464FF4B17222F00FFCF7
:104750004FF4B171304622F083FE236853B93146DD
:10476000484640F2631222F002FC40F263113046E8
:1047700022F076FE23699F6857B9314648464FF4C8
:10478000B37222F0F4FB4FF4B371304622F068FEAE
:10479000A38B23F0070343F0050399E740F2691266
:1047A0003146484622F0E3FB002540F269113046CD
:1047B00022F056FE2F468DE705464BE74FF00108E5
:1047C00043F00803A38304F11403184601931FF078
:1047D00079FA40B920494846A72222F0C8FBA72110
:1047E0001D4822F03DFE8BF31188BFF36F8FB8F1A7
:1047F000000F39D1002D49D117B11A492046B847C9
:104800004FF02003EFF3118B83F31188BFF36F8F09
:1048100001981FF049FA40B90F4948467C2222F01E
:10482000A6FB7C210C4822F01BFE01981FF05AFACF
:10483000A38B23F00803A383A38BDA0630D523F0E0
:104840001003A3830121B4F81C8008F00708002995
:104850007FF4A3AE87E600BFA8FB020094FA020033
:1048600086FB0200B1480000A1680029C2D0D1F83F
:104870000080D1F804B0009A53462046D847B8F1DA
:10488000000FB7D04146D8F80080F2E7D5F8008095
:10489000009A29465346204622F09FFB4546A9E749
:1048A00013F020011EBF23F02003A3830221CAE7D7
:1048B000F8B504460F4600F114054FF02003EFF35E
:1048C000118683F31188BFF36F8F28461FF0ECF930
:1048D00040B90A490A487C2222F049FB7C2107485A
:1048E00022F0BEFD28461FF0FDF9A76132462046A2
:1048F0000121BDE8F840FFF725BE00BFA8FB02007C
:1049000094FA02002DE9F0470446884622F07BFB2A
:10491000061E52DB04F114094FF02003EFF3118A55
:1049200083F31188BFF36F8F48461FF0BDF940B97C
:10493000324933487C2222F01AFB7C212F4822F096
:104940008FFD48461FF0CEF9E38BA28B4FF6FF7127
:104950008B4202F007054AD0022D1CD10133E383BC
:104960002E46012748461FF0ADF940B92349244897
:10497000A72222F0FCFAA721204822F071FD8AF339
:104980001188BFF36F8FC7B100232A4641462046E6
:1049900022F023FB11E0930701D0062D10D1002354
:1049A000C8F800306368EBB9C4E900882E4605BB3F
:1049B000524602212046FFF7C5FD3046BDE8F0878C
:1049C000052D18D0012D0AD00E490D4840F2C51210
:1049D00022F0CDFA40F2C5110A4822F041FD6FF0F5
:1049E000040606E0C3F80080C4F80480DEE76FF038
:1049F0000A060027B6E76FF08506FAE7A8FB020073
:104A000094FA020086FB020070B5044600F114051A
:104A10004FF02003EFF3118683F31188BFF36F8FFC
:104A200028461FF041F940B9224923487C2222F050
:104A30009EFA7C211F4822F013FD28461FF052F9F0
:104A4000A38B03F00703022B17D0012B0CBF6FF0D1
:104A500004046FF0850428461FF034F940B9154965
:104A60001548A72222F083FAA721124822F0F8FC69
:104A700086F31188BFF36F8F17E0E38B53B90F49AB
:104A80000D484FF4F67222F072FA4FF4F6710B48AB
:104A900022F0E6FCE38B013B9BB2E3833BB920466B
:104AA00032460221FFF74EFD0224204670BD02244B
:104AB000D1E700BFA8FB020094FA020086FB0200C7
:104AC0002DE9F041164DDFF85C8007464FF0FF32CC
:104AD0004FF0FF3338461DF063FE04460028F5D042
:104AE000466846B9294640461C2222F040FA1C215D
:104AF000284622F0B5FCBFF35B8F04F1080353E8AE
:104B0000002F22F0010143E800100028F7D1BFF385
:104B10005B8FD30701D52046B0471EF06FFDD5E768
:104B2000CEFB020094FA020070B5002937D0056868
:104B3000AB68B3F5004F2CBF082404240C1B641B86
:104B4000E4082146284622F0B4FA40B91449154831
:104B50009B2222F00CFA9B21114822F081FC214675
:104B6000284622F0ADFA261800223146284622F0C7
:104B70008AFA301A844208D009490A48A42222F04D
:104B8000F6F9A421064822F06BFC214628460022B3
:104B900022F09CFA2146BDE8704022F0DABB70BDDD
:104BA000F1FB020094FA02002DE9F04701F1FF3A0F
:104BB0001AEA010F064689461446056808D03249AC
:104BC0003248FC2222F0D3F9FC212F4822F048FC85
:104BD000AA68B2F5004F2CBF08230423994505D8D5
:104BE00021463046BDE8F04722F0F1BB1CB9002752
:104BF0003846BDE8F087B2EBD40FF8D909EB0401D1
:104C0000C91A284622F07EFA0146284622F01BFBEC
:104C100080460028EBD0AB68B3F5004F2CBF0826C8
:104C2000042606EBC0072F445744C9F1000907EAE0
:104C30000907BE1B3C44761B0734F60824F0070422
:104C4000641BB0424FEAE40408D2014632462846CB
:104C500022F08CFA4146284622F036FB314628469F
:104C600022F02EFA3044844208D2314628462246A9
:104C700022F07CFA2146284622F026FB012231460A
:104C8000284622F023FAB3E7F1FB020094FA02006F
:104C9000B2F5802FF8B507460D4616460ED2042A07
:104CA0000AD83D493D484FF4B67222F060F94FF4FE
:104CB000B671394822F0D4FB042300E00823F61A29
:104CC000EC1D354424F0070425F007052D1B172D96
:104CD0004FEAD5060AD83049304840F2751222F022
:104CE00046F940F275112C4822F0BAFB002200234D
:104CF0003C60C4E900230023E3603146A6602046FF
:104D000022F00AFA01218500471C204622F0FAF918
:104D10001B35ED082844B0420AD31F491F4840F212
:104D2000811222F024F940F281111B4822F098FBF5
:104D3000002304F110021946BB4229DB2A46204613
:104D4000002122F0DBF9771B20460122002122F00E
:104D5000BDF93A46294622F0D1F92B46294620468C
:104D6000002222F09BF931462046002222F0C6F9AB
:104D70003B4631462046002222F090F9314620463B
:104D8000012222F0A3F92946BDE8F84022F09CBA9E
:104D900042F8041B0133CFE7F1FB020094FA020052
:104DA000F0B50268074E00230A27114601320C783D
:104DB000A55D6D0702D401601846F0BD07FB0343F3
:104DC000303BF2E7115D03002DE9F74F14460193E4
:104DD000D378254A13F802906F2B06460F4609F048
:104DE00003092ED029D8582B0CBF10250A25DDF831
:104DF0003080AA464FF0000B52465B46304639469B
:104E0000FCF714FE092AD3B222D830335F45DBB257
:104E100008BF564508F8013D02D3019B984514D8B8
:104E200023789B0605D5082D18D1A37843F00803F5
:104E3000A370404603B0BDE8F08F702B03D0782BF1
:104E4000D2E70825D3E71025D1E706460F46D3E77A
:104E5000B9F1010F0CBF37335733D7E7102DE8D125
:104E6000A37843F01003E3E7115D03002DE9F04F51
:104E7000814693B08A4693461C4600259BF8000065
:104E800008B92846D9E20BF101032528029306D080
:104E90005146C8470028C0F2D0820135B2E118223D
:104EA00000210CA828F0A9FB9BF80130252B55D038
:104EB000029A164612F8013B2B2B00F0878075D81A
:104EC000202B00F08880232B00F08A809DF838305A
:104ED00003F04402442A03D16FF386138DF838306F
:104EE0009DF83830059643F080038DF838303378DC
:104EF0002A2B7AD19DF8393043F001038DF83930EF
:104F0000721C059213782E2B9DF839300CBF0121AD
:104F1000002161F341038DF839300BD1531C059307
:104F200053782A2B75D19DF8393043F004038DF85E
:104F300039300232114611F8010B6A2800F0B680B0
:104F400077D84C2800F0BA8068287FD09DF8393097
:104F50006FF3C6038DF83930114682E00BF102027F
:104F600002928DF83B309DF83930D90740F10E811F
:104F700054F8048BB8F1000F07DA9DF8382042F09E
:104F800004028DF83820C8F100085A0740F1078163
:104F900054F8047B002F80F206819DF839306FF3BE
:104FA00041038DF839304FF0FF37FCE02D2B06D050
:104FB000302B8BD19DF8383043F0400303E09DF84F
:104FC000383043F004038DF8383072E79DF83830FC
:104FD00043F00803F7E79DF8383043F01003F2E799
:104FE0009DF8383043F02003EDE705A8FFF7D8FE21
:104FF000059AB24285D09DF838300F9043F0800377
:10500000C3F3400141EAD07161F341038DF83830B8
:1050100077E705A8FFF7C4FE9DF838301090C3F37A
:10502000400242EAD07262F341038DF83830059AAB
:1050300080E774289DF839303ED07A283AD06C2821
:1050400084D150786C282FD1042105E05378682B47
:105050009DF8393022D1012161F3C6038DF8393032
:10506000911C0B4613F8012B0293672A8DF83B2005
:105070009DF839303DD8652A32D2582A74D02AD8C2
:10508000412A2DD002D3453A022A29D99DF8383039
:1050900043F001038DF83830002348E0022262F328
:1050A000C6038DF83930DCE70322F8E79DF8393084
:1050B0000522F4E70622F2E70722F0E7BDF83830D0
:1050C00023F4F04323F0020343F4804343F002034C
:1050D000ADF83830C5E7632A46D012D8612AD5D159
:1050E0009DF83A30042262F302038DF83A3001232E
:1050F0001DE0702A2BD024D86E2A39D034D8692AE2
:10510000C4D19DF83A10012003F0780360F3020146
:10511000402B8DF83A1002BF9DF8381041F0010184
:105120008DF83810632AB7D1003318BF01239DF8DA
:105130003820C2F340010B4363F341028DF838205D
:1051400011E7752A10D0782A0ED0732A9ED19DF8C7
:105150003A20032113F0780F61F302028DF83A2010
:1051600014BF01230023E2E79DF83A100220CBE7A9
:105170009DF83A2003F07803A3F14000032161F386
:10518000020243428DF83A204341D0E79DF938208E
:10519000002AB4BFDDF83C804FF0FF38F5E69F07EA
:1051A0007FF501AF109F9DF83A200023CDE90F3322
:1051B00002F007029DF83930012AC3F3C30337D147
:1051C000DA1E042A21D8DFE802F0030707202000B6
:1051D00054F8040BC11704E0073424F00704F4E882
:1051E0000201CDE90C019DF8382012F0030655D0DC
:1051F000029B5A465146484622F01CF90028C0F24C
:105200001C810544DDF808B038E654F8040B012B86
:105210004FEAE071CDE90C0105D19DF830200C92E8
:1052200000220D92DFE7022BDDD1BDF93000D1E77E
:10523000022A23D1DA1E042A13D8DFE802F0030A77
:105240000A12120020680C900021221D0D911446B4
:10525000C9E7073424F00702F2E80201CDE90C01A6
:10526000F5E754F8042B0C92012B4FF000020D923D
:10527000D3D0022BB7D1BDF83020D0E7042A07D114
:10528000073424F00704F4E80201CDE90C01AAE791
:10529000032A04BF54F8042B0C92A4E79DF83B00AA
:1052A0006E2800F0A4803AD863286ED020D8252834
:1052B0003FF4EEAD5828A5D10DF12E0300930EAAB0
:1052C00006ABDDE90C01FFF77FFD8346002F0DF1F2
:1052D0002E000BDB9DF83820A0EB0B036FF386123A
:1052E0009F428DF8382001D9FF1A0F97074644E0F6
:1052F000642801D0692885D1160776D412F01006EB
:1053000018BF2026DDE90C23002A73F10001D3DA4F
:10531000524263EB4303CDE90C232D26CCE77328DF
:1053200020D01BD86F28C7D070287FF46BAF0C98A3
:10533000002871D00DF12E0300930EAA06AB314662
:10534000FFF742FDBDF83A3003F0EF0343F4F043BA
:1053500043F010038346ADF83A30B7E77528ABD079
:105360007828A8E7002FDDF830B00ADB3946584628
:1053700028F0ACFA0BEB00070026BBF1000F0BD1B5
:1053800040E75846FCF790FDF4E70C9B8DF8183089
:105390000DF119070DF1180BA7EB0B0306B1013343
:1053A0009DF83A20D0063CD5023352060F9948BFEB
:1053B000109A0B4448BF9B18B8F1000F4ADD9DF8C6
:1053C0003820A8EB0308C2F380030393002B41D1DC
:1053D000500635D53EB151463046C84700282CDB33
:1053E000039B01351E4630232BE02B268AE70C9ABF
:1053F000072B3FF607AFDFE803F00D04060D0808A2
:105400000D0D1570FEE61580FCE62846E917C2E989
:105410000001F7E61560F5E62E4F0646A7F1050BED
:10542000BAE7110748BF0133BFE718465146039357
:10543000C84700284246039B05DA13B0BDE8F08F49
:10544000202342464544002AA5EB020102F1FF3821
:10545000EBDC0D462EB151463046C8470028ECDB48
:1054600001359DF83A30D90601D41A0705D55146C1
:105470003020C8470028E0DB01359DF83A30DB06D4
:1054800006D551469DF83B00C8470028D5DB0135BD
:105490000F9E2E44731B002B15DC3B465A4651468B
:1054A000484621F0C7FF0028C7DB0544A844A8EB05
:1054B0000503002B7FF7A6AE51462020C8470028E1
:1054C000BBDB0135F3E751463020C8470028B4DB89
:1054D0000135DFE717FC02002DE9F7430F4681464F
:1054E0000821C06A124E22F037F83C68241A804620
:1054F0003C6004EA0605AC4203D8002003B0BDE8D6
:10550000F08308236A462146484621F0B4FF00286C
:10551000F4D1684622F00BF838B9BDF80230BDF876
:1055200004203C60354013441D44A4EB0804E2E72A
:105530000000FFFF2DE9F04F044693B00821C06A38
:1055400022F00AF863681B0C1B04814601A9E0895C
:10555000019322F00BF8019BA18904AD1944A1EB42
:1055600009012A4608232046029121F084FF021EE9
:10557000C0F29580E36A1A790023E95C91427FD1F9
:105580000133082BF9D10199204621F0F9FF024699
:1055900085E0029BBDF812201B0C1B0413440293F0
:1055A000DFF804B1DDF808A006AA02A9204622F01F
:1055B0000FF80246002872D106A821F0B8FF002893
:1055C00035D16368039308AA03A92046039D21F0FF
:1055D000FFFF0246002862D1BDF82020BDF8183038
:1055E0009A4227D06268039B9A42ECD155451ED15E
:1055F000BDF81C30DBB1BDF81A300AEA0B071F44B6
:1056000006A8A368ADF81A3021F09DFFE36ABDF843
:105610001C801E68764206F02006B8F1000F0FD1FC
:1056200006A9204622F06DF80246002837D1CA4567
:10563000B8D1A8E708A821F07AFF0028D2D1D5E791
:105640004645354628BF45460AAA2B4639462046D8
:1056500021F011FF024610BB35B10AAA2B46A16802
:10566000204622F005F802462946E06A21F074FF40
:10567000A3681844A06092B9A8EB05082F44CCE7B2
:10568000029B2846A3EB090921F051FF002880D096
:1056900002A92046FFF720FF0246002880D01046CE
:1056A00013B0BDE8F08F00BF0000FFFF2DE9F04709
:1056B000044686B00D4600F11406304627F0B4FDCE
:1056C00028461CF0B7FAA06248B94521884821F065
:1056D0004EFC6FF00505284606B0BDE8F0878368EC
:1056E0001B699847E06230B98248452121F03FFCB0
:1056F0006FF01505EFE7A06A83681B699847036898
:10570000013B1F2B02D945217B48EFE7A06A2168A6
:1057100003AA27F095FA10B145217848E6E7A38956
:105720002BB1049AB3FBF2F502FB153515B14521F7
:105730007348DBE7E389012B02D845217148D5E79F
:10574000E36A009593F804904FF0FF324FF0FF3377
:1057500030461CF09BFD0821E06A21F0FDFE2F463B
:105760008046E3891FFA85FA534565D8E389BB4231
:1057700000F0A28053450CD1009908234A46A1EBC2
:105780000801204621F0AEFE18B96946E08921F0F3
:10579000EDFE009B5C4FA3EB08023B406260A36000
:1057A000D4E9011399420ED3082301AA204621F01F
:1057B00062FE054618BB01AB13F8012B91457ED163
:1057C0000135082DF8D1D4E901318B4207D95B1A94
:1057D0004A46204621F086FE051E10DB50D1636844
:1057E000494FE0893B406946009321F0BFFEA38901
:1057F00000994A46204621F075FE051E46DA3046DD
:105800001CF018FE002D7FF466AF01232374E2899B
:10581000A3893E48492121F0AAFB62683C4893B223
:105820004921120C21F0A3FBA2683A4893B2492106
:10583000120C21F09CFB4EE7A1892B04A1EB08017F
:1058400013FA81F14A4608232046009121F04AFECE
:1058500070B16946E08921F089FE013708234A4684
:1058600000992046BFB221F03DFE00283FF47EAFF4
:10587000013576E7BAF1000F36D06FF01C05BEE7B0
:10588000E26AA36812681344A3609CE7B7D061681A
:10589000204621F075FE05460028B0D16068A38936
:1058A00038401844A0EB480060603840A0602046B3
:1058B000FFF740FE0546A2E76FF02C059FE701A821
:1058C00021F035FE656878B9009ABDF80600BDF88C
:1058D00008A03A400244A2605146E06A21F03CFE32
:1058E0001044A842A060C5D0A5EB0805656057E745
:1058F00031FC020052FC020079FC02009BFC020019
:10590000B8FC0200D1FC02000000FFFFF9FC02001D
:1059100015FD02002CFD02002DE9F04F1E46037C10
:1059200089B00446894690464BB94521654821F027
:105930001EFB6FF00C05284609B0BDE8F08FC26A67
:105940000821104621F008FE31468246104621F01B
:1059500003FEA3890AEB4A029B1AB3420746C0F032
:10596000AB801EB1B8F1000F00F0A680636803930E
:1059700004AA03A92046DDF80CB021F029FE054653
:105980000028D8D1BDF810304B4505D06268039B84
:105990009A42EDD1DEB9CEE704A821F0C8FD002877
:1059A000F4D1BDF8143086B1B34210D1BDF8120065
:1059B0004FEA1B410904014433464246204621F088
:1059C00068FD002803DC0546B5E7002BB3D0002FA7
:1059D0003FD104F1140A4FF0FF334FF0FF3250462D
:1059E000DFF8E4B01CF052FC0023E289934260D05F
:1059F000D4E90121781882422ED3FF2306A8ADF8FE
:105A00001890ADF81A10ADF81C608DF81E3021F01A
:105A10009AFD36B133464246A168204621F028FE61
:105A200005463146E06A21F097FDA3681844A0605E
:105A3000002D44D106A9204621F063FE054600282A
:105A40003DD13246019250461CF0F4FC019A1546B5
:105A500071E75744BFB2BCE70821E06A019321F027
:105A60007BFD4FF6FF71ADF818100021ADF81C104A
:105A70001118ADF81A10A18902EA0B020A44121A91
:105A8000626006A821F05FFD06A9204621F039FEDC
:105A9000211DE08921F06AFD626802EA0B02A26022
:105AA0002046FFF747FD02460028CBD1019B01337A
:105AB0009BE76FF01B02C5E76FF015053BE72A4631
:105AC000C0E700BF18FC02000000FFFF2DE9FF4700
:105AD0001F46037CBDF8308004468A46914643B990
:105AE0002648452121F043FA6FF00C0004B0BDE8D0
:105AF000F0870821C06A21F02FFDA389A3EB4000A5
:105B0000B84238D363680193002502AA01A9204650
:105B1000019E21F05DFD0028E8D1BDF80830534515
:105B200005D102A821F003FD08B90135ADB26268C4
:105B3000019B9A4218D04545E7D9BDF80C30BBB15E
:105B4000454515D3BDF80A00310CBB424FEA01416F
:105B500028BF3B4601444A46204621F08CFC0028E1
:105B6000C4D1BDF80C00C1E7BDF808305345E4D0FE
:105B70006FF00100BAE76FF01500B7E718FC0200FC
:105B8000084B30B51D68084B196800239D4202DCA4
:105B90000022104630BD1C010A190C5D8442F8D069
:105BA0000133F3E7D8E90200C4060020084B1B6864
:105BB00010B50C462BB1FFF7E3FF28B120600020A1
:105BC00010BD6FF00C00FBE76FF00100F8E700BFBD
:105BD000C406002030B589B00C4615460190FFF789
:105BE000CFFFB8B14368029383682268C068CDE9EB
:105BF000033500230593CDE9062321F09EFD60B116
:105C000001AA074927F020F8079808B9059B2360E7
:105C100009B030BD6FF01500FAE76FF01200F7E73A
:105C20003F7702000F4B2DE9F0411C6806460F46F6
:105C30009046A4B14FF0FF324FF0FF330A481CF0FA
:105C400025FB63683A469D68314643462046A8478F
:105C5000044605481CF0EEFB2046BDE8F0816FF0DD
:105C60000104F9E770250020BC1200200023036026
:105C7000044B5A6812B9C3E90000704710605860BD
:105C8000704700BF68250020014B1860704700BFB7
:105C90007025002030B585B000230546CDE90233DC
:105CA00001904FF0FF334FF0FF320B481CF0EEFA3B
:105CB0000A4B1C6834B1636820461B6801A99847E9
:105CC0002468F7E7284600F0CBF8044602481CF0A9
:105CD000B1FB204605B030BDBC1200206825002075
:105CE0001FB5CDE9010103924FF0FF334FF0FF32B2
:105CF00009481CF0CBFA094B1C6834B16368204694
:105D00001B6801A998472468F7E703481CF092FB39
:105D1000002004B010BD00BFBC1200206825002088
:105D2000024B0022C3E90022704700BF6825002013
:105D3000024B0022C3E90022FFF7F2BF74250020C6
:105D40002DE9F34707460E4609B100230B60DFF843
:105D50009880224CDFF894900025C246444508D92B
:105D600049461F48942221F002F99421484621F027
:105D700077FB544508D31B4B1C680CB1143CC4B9C9
:105D8000284602B0BDE8F08701AA2168384621F014
:105D9000FBFC60B125B90EB1019B3360254606E0DE
:105DA00000222968206821F0EFFC0028F3D1143488
:105DB000D4E701AA2168384621F0E6FC60B125B994
:105DC0000EB1019B3360254606E000222968206859
:105DD00021F0DAFC0028F3D16469CEE738E3020051
:105DE00094FA0200742500208CE4020086FD020073
:105DF0002DE9F04385B005460C9C03900E461746EE
:105E00009846B4B1216879B103AA21F0BDFC58B914
:105E1000002006E0A36800933A46434631460398C3
:105E2000C84705B0BDE8F083D4F80490B9F1000F7D
:105E3000F0D103A92846FFF783FF0028E8D0846843
:105E4000039843463A463146A04703460028DFD030
:105E50002A464521014821F08AF8D9E75CFD020075
:105E60002DE9F8431F4F204CDFF8888006460025B7
:105E7000B946BC4208D941461C48F42221F077F8C3
:105E8000F421404621F0ECFA4C4507D3184B1C682E
:105E90000CB1143CA4B92846BDE8F8831EB9E368E8
:105EA0004BB91434E5E700223146206821F06CFC40
:105EB0000028F4D1F5E79847002D08BF0546F0E724
:105EC0001EB9E3684BB96469E2E7002231462068F5
:105ED00021F05AFC0028F4D1F5E79847002D08BFBF
:105EE0000546F0E78CE4020038E3020094FA020071
:105EF0007425002086FD020010B5064C23783BB9BE
:105F0000FFF716FF00F064F808B90123237010BDF5
:105F10000020FCE7DD4600202DE9F047048FDFF884
:105F2000AC90013498B080468A46A4B200F10806CD
:105F3000651EADB2B5F5004F45D04A2305AA2946E6
:105F4000304621F0F3FB04F57F543F34A4B20746FA
:105F5000214601230DF10B02304621F0E7FB002F13
:105F6000014603DC002803DC2C46E1E7002816DCB0
:105F7000B8F83830AB4209D142466B1E22F8383FA0
:105F80004FF4004102233046FFF7C6FC2946304655
:105F900021F0C8FB2146304621F0C4FBE4E718ABF2
:105FA0001F44002307F84C3C4A46CDF800A003AB41
:105FB00005A80396ADF81040FFF71AFF0028D3D0CC
:105FC00018B0BDE8F0870020FAE700BFF5770200BF
:105FD0007FB50123694603200193FFF7E7FD0446DF
:105FE000002837D102AA01A90320FFF7F3FD10F121
:105FF000130F04462ED040B110F10C0405D04040E0
:1060000080F311884FF0040002DF0399B1F5803F5F
:1060100023D2009A002395681846084485429CB212
:1060200003D30133082BF8D11C460D4D5368AB60E8
:106030002846D368EC82A982EB6321F072FC044607
:1060400040B9084E6E602846FFF710FE28466E6085
:10605000FFF71AFE204604B070BD6FF02004F9E788
:106060007C250020C806002008B504464FF0200219
:10607000EFF3118382F31188BFF36F8F21F0FBFCE4
:10608000204601F055FB034820F071FF00F0ECFEC4
:10609000FCE700BFBEFD02002DE9F0410E4C051BE0
:1060A000C5F347130C255D43074605F148000E462E
:1060B0002044402121F051FC011E08DB074B2C44F9
:1060C000C4E91036064B5B59BDE8F0411847384625
:1060D0003346BDE8F0411847CC250020BD790200C9
:1060E000F0E9020038B5CCB2012C054608D90849C0
:1060F00008487E2220F03BFF7E21054821F0B0F9C0
:10610000EB680C2104FB0131886C00F0070038BDFE
:10611000E7FD020094FA0200F8B5CCB2012C054666
:106120001746C6680AD91849184840F2531220F099
:106130001EFF40F25311144821F092F94FF0200352
:10614000EFF3118183F31188BFF36F8F0C2303FBEF
:106150000462926C12F0C00201D0974211D103FB8D
:10616000046301229A64002081F31188BFF36F8FCA
:1061700030B96B680C2202FB043463689847002036
:10618000F8BD4FF0FF30EFE7E7FD020094FA0200A0
:1061900070B50D460649411A04464911402205488A
:1061A000FFF7BAFF2B4601462046BDE8704018476E
:1061B000CC2500207C110020002270B5012104466E
:1061C000104600F0C5FD002000F090FD0F481BF0C8
:1061D00017F80F4B984215D11BF032F8E6680D49BD
:1061E000304620F01FFF00280BDB0125B564E46872
:1061F000084904F1200020F015FF002801DB656547
:10620000002070BD6FF00400FBE700BF4D6200008E
:106210000000AD0B08EA020001460C2309484B437D
:1062200070B5C418D4E910560022483322641844CB
:1062300021F0B1FB2DB132462B460348BDE870403A
:10624000184770BDCC2500207C110020012808B51E
:1062500010D050B1032811D00F49104840F26A22E3
:1062600020F085FE40F26A2110E00D4B986C10F092
:10627000070010D1BDE80840FFF7CEBF0649074828
:1062800040F2662220F073FE40F266210248BDE82B
:10629000084021F0E5B808BDE7FD020094FA0200CD
:1062A000CC25002008B54FF02003EFF3118183F3D4
:1062B0001188BFF36F8F124A136843F0020013F086
:1062C000010310600CD04FF08042D2F80C34D2F8A9
:1062D0000C2413F0010303D00A4821F05CFB0123D6
:1062E00081F31188BFF36F8F23B10020BDE8084010
:1062F000FFF792BF0120BDE808401AF0BDBF00BF04
:106300002426002014260020094BBFF35B8F53E89E
:10631000002F22F0020143E800100028F7D1BFF35C
:106320005B8FD30702D401201AF0F4BF704700BF7F
:10633000242600207FB500220123CDE9022304ABEF
:10634000CDE90433094ACDF800D06B46CDF804D02E
:1063500021F046FB002805DB4FF48042002368460D
:106360001DF0E8FA07B05DF804FB00BFDB7902001E
:10637000024BC0B203EB4010704700BFCC25002099
:10638000094BBFF35B8F53E8002F42F0010143E854
:1063900000100028F7D1BFF35B8F930702D40120D0
:1063A0001AF06ABF704700BF24260020094BBFF3D4
:1063B0005B8F53E8002F22F0010143E80010002812
:1063C000F7D1BFF35B8F930702D401201AF0A2BF6D
:1063D000704700BF242600202DE9F8434749BFF34A
:1063E0005B8F0546012251E8003F41E8002000286C
:1063F000F9D1BFF35B8F9BB9414942484B60CB60F9
:106400008A60FEF77FFA00280ADA3F493F4840F2E7
:10641000262220F0ACFD40F226213B4821F020F856
:1064200095B3022D54D8012D07D14FF08043D3F8F6
:106430001C3403F00303012B26D026F07EFF18B98D
:10644000334B1B78002B50D14FF02003EFF3118911
:1064500083F31188BFF36F8F01242E4E2E4FDFF888
:10646000BC804FF08042D2F81834D2F81824D203FE
:106470000CD503F00303012B01D0012D06D10CB381
:1064800089F31188BFF36F8FBDE8F883ACB148463C
:1064900000F0F8FC4FF08042D2F81835002BE0D124
:1064A00031680029DDD0336033680123C2F8183524
:1064B000C7F88031C8F80030D3E7002121201DF053
:1064C000ABF9E7E74FF080430222C3F80423DBE790
:1064D0000D490E484FF40E7220F049FD4FF40E7135
:1064E0000948BDE8F84320F0BBBF4FF080430222CB
:1064F000C3F8082304468146AFE700BF28260020E2
:10650000BC250020EC250020E7FD020094FA0200E3
:106510008C4800200401004000E100E00800004039
:1065200010B5064C06482146172220F020FD2046D3
:106530001721BDE8104020F093BF00BF4EFE0200BF
:1065400094FA0200044A1368C91A21F07F400344F8
:1065500013601DF00BBF00BF382600202DE9F84F57
:10656000850005F1804500F1500405F58835A4004B
:10657000A4B2DFF87C80D5F84025DFF878A004F1DC
:1065800080444FF4803721F07F4604F588348740FB
:10659000C146D8F804B5A2EB0B0222F07F422BF0E3
:1065A0007F43012AC5F8403502D1132026F0CBFEE7
:1065B0000BF10202B31A23F07F43534528BF16465E
:1065C000002323602368C9F8447326F07F43C5F88D
:1065D0004035D9F804359B4507D0F31A023B23F028
:1065E0007F43B3F5000F3246D3D8BDE8F88F00BF24
:1065F0000010014001008000F8B5104E104F00253A
:10660000104B00201C681A4605B1F8BDD6F80413DB
:10661000C903FAD539680029F7D03D6039684FF4CD
:106620008031C6F84813D6F8401501251CB1186012
:106630005A68A047E4E71460E7E700BF0010014094
:10664000401101402C26002038B5104D00244FF495
:106650008033C5F80845C5F804330D4B4FF40032BC
:10666000C3F8802101212246112000F071FB112086
:1066700000F03CFB074A01231360074A2B6002200D
:106680001360FFF7A9FE204638BD00BF001001408F
:1066900000E100E00810014034260020134BB0F167
:1066A000FF3F08BF1846013800281CDD9842A8BFEC
:1066B00018460F4BD3F804250E4B1968521A12F4E2
:1066C000000F22F07F4318BF00200B4A0133034420
:1066D0000A48106000205060044A934294BFC918D1
:1066E0008918FFF73BBF0020E3E700BFFFFF7F00F3
:1066F00000100140382600202C26002045650000AF
:1067000038B54FF02003EFF3118583F31188BFF301
:106710006F8F15481DF0C8FA40B9144914487C22FF
:1067200020F025FC7C21114820F09AFE0E481DF037
:10673000D9FA104B0C48D3F804450F4B1B68E41AE8
:1067400024F07F441DF0BEFA40B908490848A7224A
:1067500020F00DFCA721054820F082FE85F311886A
:10676000BFF36F8F204638BD3C260020A8FB0200F7
:1067700094FA0200001001403826002001481EF063
:1067800085BA00BF14EA020008B5D0B14368042BF3
:1067900011D100220368BFF35B8F53E8001F01296A
:1067A00003D143E800200028F7D1BFF35B8F0748EF
:1067B00008BF104608BD3BB100681BF03BFE00203F
:1067C000F8E76FF4E040F5E70148F3E7E98FFFFFF2
:1067D000EA8FFFFF10B5044618B90D4B0D485B68F2
:1067E0009847616808290DD031F004030AD011F0F0
:1067F000020108D0214608481BF0FAFC0023236060
:106800000023636010BD1422206826F0F6FEF7E72F
:106810004C0E0020B1FE02004026002010B50446B8
:1068200018B9164B16485B6898476368042B23D049
:10683000082B21D0CBB92368BBB94FF0FF324FF002
:10684000FF3321460F481BF079FC08B923681BB9B8
:106850000A4B0D485B68984714220021206826F0F7
:10686000CCFE636843F002036360206826F0DCFC22
:10687000636843F00103636010BD00BF4C0E00204D
:10688000B1FE020040260020D7FE020008B5F8B194
:106890004368042B10D101220368BFF35B8F53E8D8
:1068A000001F002903D143E800200028F7D1BFF3DF
:1068B0005B8F0BD1002008BD6BB100684FF0FF3239
:1068C0004FF0FF331BF0E2FC0028F3D00348F2E75F
:1068D0006FF4E040EFE70248EDE700BFE98FFFFF0C
:1068E000EA8FFFFF08B5064906484023142226F028
:1068F00080FC05490548BDE808401EF045BA00BFC8
:106900005C260020402600202CEA02001CEA02003F
:10691000014B1868704700BFF8060020F0B5082248
:1069200089B00C46064621F06AFACB6A03930B6BDA
:1069300004934B6B05938B6B0693CB6B07930027EC
:1069400008236A4669466846CDE90177009721F039
:106950005BF9082305466A463146304621F054F972
:10696000236B0393636B0493A36B0593E36B054461
:10697000CDE906376A4608236946684621F044F99E
:106980003146054408236A46304621F03DF9236A22
:106990000093636A0193A36A0293A36B0693E36B6C
:1069A0000793054408236A463046CDE904770397E8
:1069B00021F02AF9636A0093A36AA26B0193E36A48
:1069C00002930492636BE26B0393CDE90523236A80
:1069D0000793054408236A46304621F015F9E36A17
:1069E0000093236B0193636B0293236A0693A36A5C
:1069F0000793054408236A463046CDE90477039798
:106A000021F033FA236B0093636B0193A36B029322
:106A1000E36B0393636A0693E36A07932D1A0823D3
:106A20006A463046CDE9047721F01FFA636B009384
:106A3000A36B0193E36B0293236A0393636A04934A
:106A4000A36ACDE90537236B07932D1A08236A46FD
:106A5000304621F00AFAA36B0093E36BCDE90137CE
:106A6000636A0393A36A0493E36ACDE90537636B12
:106A700007932D1A08236A46304621F0F6F92D1A9D
:106A80000D4C0FD435B908223146204621F0C3F908
:106A900001280FD0082322463146304621F0E5F97F
:106AA0002D1AEFE7082322463146304621F0ACF894
:106AB0002D18F7D409B0F0BD44EA0200F0B5284E15
:106AC00007460C460FCE8DB001AD0FC50FCE0FC5DA
:106AD00096E8070085E80700002F3CD0002C3CD04A
