:10000000A083002025A10100BFE10200F9A00100AA
:10001000F9A00100F9A00100F9A001000000000012
:10002000000000000000000000000000019E010030
:10003000F9A0010000000000AD9D01002B3E03006F
:10004000B99E010055400300B99E0100B99E010010
:10005000B99E0100B99E0100B99E0100B99E010040
:100060001D400300B99E0100B99E01003B40030002
:10007000B99E0100B99E0100B99E0100B99E010020
:10008000B99E0100B99E0100B99E0100B99E010010
:10009000B99E0100B99E0100B99E0100B99E010000
:1000A000B99E0100B99E0100B99E0100B99E0100F0
:1000B000B99E0100B99E0100B99E0100B99E0100E0
:1000C000B99E0100B99E0100B99E0100B99E0100D0
:1000D000B99E0100B99E0100B99E0100B99E0100C0
:1000E000B99E0100B99E0100B99E0100B99E0100B0
:1000F000B99E0100B99E0100B99E0100B99E0100A0
:1001000053B94AB9002908BF00281CBF4FF0FF317E
:100110004FF0FF3000F080B9ADF1080C6DE904CE6E
:1001200000F01AF8DDF804E0DDE9022304B07047BE
:10013000430803F05533C01A830803F0333300F04B
:100140003330184400EB101000F00F3000EB0020AB
:1001500000EB0040000E70472DE9F047089E0D4669
:1001600004468E46002B40F082808A42174646D9CC
:10017000B2FA82F24AB1C2F1200105FA02F320FA82
:1001800001F1974041EA030E94404FEA1748230CCF
:10019000BEFBF8FCB9B208FB1CEE43EA0E430CFBB5
:1001A00001F098420AD9FB180CF1FF3580F0168156
:1001B000984240F21381ACF1020C3B441B1AA4B2EA
:1001C000B3FBF8F008FB103344EA034400FB01F1F1
:1001D000A14209D93C1900F1FF3380F00181A1420D
:1001E00040F2FE8002383C44641A40EA0C40002190
:1001F0001EB1D4400023C6E90043BDE8F08702B930
:10020000FFDEB2FA82F2002A4FD1CB1B4FEA174E23
:100210001FFA87F80121B3FBFEFC250C0EFB1C33F3
:1002200045EA034508FB0CF3AB4207D97D190CF1F5
:10023000FF3002D2AB4200F2E7808446ED1AA3B24F
:10024000B5FBFEF00EFB105543EA054408FB00F831
:10025000A04507D93C1900F1FF3302D2A04500F2B6
:10026000D7801846A4EB080440EA0C40C0E78B4254
:1002700008D9002E00F0AF800021C6E9000508462D
:10028000BDE8F087B3FA83F100294BD1AB4202D32A
:10029000824200F2B780841A65EB030301209E4678
:1002A000002EAAD0C6E9004EA7E7C2F1200C01FA41
:1002B00002F3974020FA0CF04FEA174E21FA0CFC9B
:1002C0001843BCFBFEF1050C0EFB11CC1FFA87F89E
:1002D00045EA0C4501FB08F3AB4204FA02F409D9E4
:1002E0007D1901F1FF3C80F08B80AB4240F28880A9
:1002F00002393D44EB1A85B2B3FBFEF00EFB10331E
:1003000045EA034500FB08F3AB4207D97D1900F12C
:10031000FF3C71D2AB426FD902383D44EB1A40EA40
:10032000014178E7C1F1200C8B4022FA0CF71F4302
:1003300020FA0CF405FA01F34FEA174E25FA0CF5F2
:100340001C43230CB5FBFEF91FFA87F80EFB195569
:1003500043EA054509FB08FAAA4502FA01F200FA48
:1003600001F308D97D1909F1FF3047D2AA4545D9D3
:10037000A9F102093D44A5EB0A05A4B2B5FBFEF0C4
:100380000EFB105544EA054400FB08F8A04507D9C8
:100390003C1900F1FF352DD2A0452BD902383C4441
:1003A00040EA0940A4EB0804A0FB02894C45C6467C
:1003B0004D4619D316D05EB1B3EB0E0264EB0504C3
:1003C00004FA0CFCCA404CEA0202CC40C6E9002404
:1003D0000021BDE8F087314630460EE7AC46EDE639
:1003E000184601E74345E6D2B8EB020E69EB070574
:1003F0000138E0E72846D3E760468FE78146BAE751
:10040000614677E708464BE7ACF1020C3D4415E73F
:1004100002383C4426E700BF704700BFF8B51546D8
:100420000A4A1C4656682EB101B02A46B446BDE8B9
:10043000F040604700208DF80000684612F032FC62
:100440009DF80000281A20700020F8BD0000002050
:10045000002819D003781349134A13B1012B0ED089
:1004600011E00379012B00D06BB943790BB1012B5B
:1004700009D18368643B8B4205D2C0680EE00379E2
:10048000012B02D00BB10020704743790BB1012B37
:10049000F9D1C368643B8B42F5D280689042F2D8B0
:1004A000012070473D860100FF1FA10710B5054CD4
:1004B000206810B1804700202060BDE8104002F0A5
:1004C00025B80000080000202DE9F0410E46050087
:1004D00004D000F045F8074600240AE06FF015004C
:1004E000BDE8F081204600F041F8807838B1641C06
:1004F000E4B2BC42F6D300BF6FF00B00F0E7274632
:10050000FF2CF9D0204600F031F8044612F065FDCA
:1005100027712146074801F0D1FFE070202805D05F
:100520000120A560A07037700020D9E76FF022008D
:10053000D6E700004B2D010010B5820702D06FF006
:100540000D0010BD054A1170506028B101EBC101CA
:100550008A00002112F0C7FF002010BD0C0000200F
:1005600001480078704700000C00002005490A7817
:10057000904201D300207047496800EBC00001EBB6
:10058000800070470C00002070B50546202A27D057
:1005900019481A4C00EB831C0CEB420004EB83035C
:1005A000202922D00CEB410140784C78487020463D
:1005B00001460CEB4100914205704078F8D193F868
:1005C0002220202A1ABF0CEB4202547083F82140EB
:1005D00020220CEB410C8CF8012083F8221070BD16
:1005E00040F27E21702003F0D1F993F8204040784A
:1005F00083F82000DBE7000054190020D419002004
:100600002DE9FF4F85B015460C4602F05DF92844F0
:1006100020F07F4002902168081A0002C11700EB09
:1006200011600012002800F3D580AC48089FAC4E42
:1006300000EB8700039090F820502020E9460DF150
:1006400004088DF8000006F5407A202D18BF0AEB4B
:10065000871B25D005EB450006EBC0002268C1686A
:10066000511A0902CA1701EB12610830091217D496
:10067000618971B1418961B900F0BAFD02F024F9D4
:100680002168081A0002C11700EB1160001233281C
:1006900006DB0BEB450089F800504578202DD9D1B9
:1006A00099F8000088F80000A146202D1CBF8D4855
:1006B00000EB871B00F00E8105EB450106EBC10A3C
:1006C000D9F80420DAF808104846891A0902CA172E
:1006D00001EB12610AF10807091215D47989002982
:1006E00000F0F8804189002940F0F48000F080FD9E
:1006F00002F0EAF83968081A0002C11700EB11602D
:100700000012332880F2E68088F800509AF814101E
:1007100099F80C00814206D90BEB45004578202D55
:10072000CAD100F0D7B89DF8040000EB400006EBFA
:10073000C005688AEF68002843D16089E8B3A868DB
:1007400012F0E9FC698A2A7C674B1144491C421863
:10075000984204D940F20961702003F017F9634808
:10076000814204DD40F20A61702003F00FF9604815
:10077000814204DA40F20B61702003F007F95D4812
:100780009042DCBF02F5F702A2F1F85205DD002A23
:10079000BCBFA2F5F70202F1F852104602F094F83D
:1007A00020F07F41781A0002C21700EB126000129D
:1007B0003328B8BF01F1330000E002E0B8BF20F0F9
:1007C0007F470298381A0002C11700EB116000122F
:1007D000002803DD09B00020BDE8F08FD4E9001047
:1007E000401A384427F07F4120F07F40C4E90010D0
:1007F0000398DDF820806F4690F8205020200DF1FE
:10080000040A8DF80000202D1CBF364800EB881923
:1008100025D000BF05EB450006EBC0002268C1688B
:10082000511A0902CA1701EB12610830091216D4D5
:10083000618971B1418961B900F0DAFC02F044F8D4
:100840002168081A0002C11700EB1160001233285A
:1008500005DB09EB45003D704578202DDAD138786D
:100860008AF800002746202D1CBF1E4800EB881B7D
:1008700030D005EB450106EBC1097968D9F80820AD
:100880003846511A0902CA1701EB126109F108082A
:10089000091212D4B8F80A10E1B14189D1B900F0B7
:1008A000A7FC02F011F8D8F80010081A0002C117CE
:1008B00000EB1160001233280CDA8AF8005099F826
:1008C0001400397B88427FF62EAF0BEB450045784C
:1008D000202DCED109B00120BDE8F08FD419002021
:1008E0005416002054190020FF7F841E0020A10709
:1008F00000E05EF80080841E2DE9F05F04463C486D
:100900000E4600EB86003B4F90F820502020984682
:100910009246107007F54079202D18BF09EB861B11
:1009200028D000BF05EB450007EBC00000F108012F
:10093000C0682268101A0002C21700EB1260001291
:1009400018D4608978B1488968B9084600F050FC2D
:1009500001F0BAFF2168081A0002C11700EB11600C
:100960000012332806DB0BEB45008AF8005045786F
:10097000202DD7D19AF8000088F80000202D18BF4C
:1009800009EB861A30D005EB450107EBC109616818
:10099000D9F808202046511A0902CA1701EB126142
:1009A00009F10806091210D47189E9B14189D9B950
:1009B00000F01EFC01F088FF3168081A0002C11720
:1009C00000EB1160001233280EDA88F8005099F815
:1009D0001400217B884202D80020BDE8F09F0AEB7A
:1009E00045004578202DCED10120BDE8F09F0000C4
:1009F000D4190020541600202DE9F74F4FF00008BD
:100A000098B016460D46C34602F0D6F90446012DAD
:100A100018BF022D05D040F694114FF0700002F07F
:100A2000B5FFFD4901200860FC4989680860002085
:100A30000C90401E0E90FA4906EB460001EBC003F5
:100A400008330FAF0FCB87E80F000FA800F0D0FBE3
:100A50000D90F348BDF84690B0F89C03ADF84C00FB
:100A6000B9F1000F14BF4FF0010A4FF0000A0F98C0
:100A70001490BAF1000F09D0EA4890F82C0028B978
:100A800002F020FF002808BF012700D00027E64819
:100A90000022159200781646012818BF032840D17D
:100AA000E148B0F80280A8EB09001590C84538D994
:100AB0000D9B6FEA0801DFF874E358180DF10C0C78
:100AC00017AA734504D940F20961702002F05EFF55
:100AD000D74B994204DD40F20A61702002F056FFC4
:100AE000D44B994204DA40F20B61702002F04EFFC1
:100AF000D1498142DCBF00F5F700A0F1F85005DDD7
:100B00000028BCBFA0F5F70000F1F850614601F0E5
:100B1000F7FE03980F9920F07F400390081A20F009
:100B20007F42002F18BF322604D19DF84C000028C8
:100B300018BF0226B4F1807F08D00F98001B000276
:100B4000C11700EB11600012012802DA0421189885
:100B50000BE047B1B34890F82D0020B19DF84C0050
:100B6000061C18BF022620460121B9F1000F02D051
:100B7000159B1E2B02DA9DF84C3013B14FF0010B80
:100B8000491E8B19A8499DF84DE0097815910F99D8
:100B9000891A21F07F4CACEB00010902CE1701EB62
:100BA00016610912994218DB002A18BFCDF83CC023
:100BB0000F9E0597002701F0F9FF301A0002C117B8
:100BC00000EB116000123E283FDA012D20D0701E8C
:100BD000059920F07F4019B32DE082B1BEF1000FDE
:100BE00004BF159903290AD027B99DF84C10002994
:100BF00018BF9B1E00228DF84C209046C7E707BB0C
:100C00009DF84C10E9B100218DF84C109B1EBEE7F9
:100C1000B4F1807F20D140F60D11702002F0B6FEB5
:100C2000B4F1807F07D0211A0902CA1701EB1261C3
:100C30000912042903DD044601F0BEFF0CE000297F
:100C40000ADD1BB00020BDE8F08F701E20F07F444D
:100C5000204601F0B1FF5746B4F1807F28D00F98AD
:100C6000DDF840C0001B8BF00103744A20F07F4088
:100C7000ACEB040C2CF07F4C834298BFB0F5800F96
:100C8000DFD26245DDD3204612F045FA67490D9A5E
:100C90004B1C161AB6EB930F24BFA0EB020CBCEB57
:100CA000930F10D3B14208D2081A1044461C0AE030
:100CB00040F62C21702002F069FE61452CD2891A81
:100CC0000844401C46425748807F50B3284645465A
:100CD0004FF0000BD846012805D0022002F0B4F9ED
:100CE000012002F0B1F9A9452CD2A6EB05014FF085
:100CF00001034FF003024FF0020002F0DDF800287C
:100D000008BF4FF00108B9F1000F35D00123A6EB61
:100D100009010322184623E040F60C31702002F04E
:100D200035FEC14534BF40464846BBF1000F14BFF5
:100D300000211E210844B042C8DB40F63F2170204C
:100D400002F024FE10D90123A6EB09010322184664
:100D500002F0B2F828B37DB1711B012303220220F7
:100D600002F0AAF8E8B107E055EA090004D040F61D
:100D70007711702002F00AFE012303223146002081
:100D800002F09AF868B10125B8F1000F03D0149869
:100D90000F908DF84CB0DFF8A880BAF1000F0ED19B
:100DA00009E0022002F050F9012002F04DF91BB0D9
:100DB0000020BDE8F08F1B4890F82D0000B14FB324
:100DC000DFF860A09AF82C0018B102F025FC8AF830
:100DD0002CB007B3A4F1320020F07F414FF4002083
:100DE000C8F8000000230322052002F065F868B36C
:100DF0004FF08044052002F007FA1249C1F81005AF
:100E0000C1F814451049E0120860064C94F82D0012
:100E1000F0B35BE01BE01FE0080500401400002079
:100E200054160020D419002016000020FF7F841ED5
:100E30000020A10700E05EF80080841EFFFF3F0055
:100E400008F5014098F0014004F5014035E0DFF875
:100E5000B8A09AF82C0058B32B4C94F82D0050B140
:100E60004FF40020C8F80000052002F0EDF802F071
:100E70003BFC84F82DB00CAC244894E80E10C0F86C
:100E80008013C0F88423C0F88833C0F88CC300E016
:100E900018E010AC94E80E10C0F89013C0F894233A
:100EA000C0F89833C0F89CC31BB00120BDE8F08F98
:100EB00002F0CEFB8AF82C508BE740F23E317020D6
:100EC00002F064FD02F002FC84F82D50A6EB09004C
:100ED000A0F11901002904DC40F66921702002F01C
:100EE00055FD03220123104601F0E6FF38B1084802
:100EF0008068C0F800B00748C0F800B0BBE740F613
:100F00007421702002F042FDD419002054160020F4
:100F100014000020080500402DE9F043064683B088
:100F200008789073CF7A5773887A107308891446BB
:100F300050810D460A785F4999464FEA810C4B4231
:100F4000ACF101085AB1C043D5F8048004F108029D
:100F500088423DDD40F20A61702002F017FDEE6824
:100F60006D686FEA000904F1080206EB09004645C6
:100F700004D940F20961702002F008FD8945E9DCDE
:100F8000994528DB8445DCBF00F5F700A0F1F85057
:100F900005DD0028BCBFA0F5F70000F1F8502146A0
:100FA00001F0AEFC206820F07F417019401C2160E8
:100FB000002F08BF7A3003D0012F08BF44302DD155
:100FC00001F082FC20F07F40606003B0BDE8F08358
:100FD0000146984204DA40F20B61702002F0D6FC20
:100FE0008445DCBFA1F1F450A0F5902005DD002878
:100FF000BCBF01F1F45000F59020214601F080FCC7
:101000002068002F20F07F4108F10100216008BF17
:101010007A3008D0012F08BF443004D040F2B161CB
:10102000702002F0B3FC01F04FFC20F07F416160C2
:10103000608901AA694601F063FC1F4890F82F10EF
:10104000202923D00069401D20F07F40D4E90021F1
:10105000891A2060084420F07F4060604B46324689
:101060002146E868FFF7CCFA00281CBF03B0BDE8B2
:10107000F083D4E90010401A304426F07F4120F07C
:101080007F40C4E9001003B0BDE8F083608906F139
:10109000090720B102F016FC002808BF32370748C4
:1010A00041780098814284BF081A074427F07F40A6
:1010B000CCE700000020A107D41900201600002072
:1010C00010B5154C94F82F00202818BF10BD94F8C7
:1010D0002E2004EB820090F82010202917D0DFF892
:1010E0003CC00CEB821303EB41035B7880F82030AB
:1010F000012380F8233084F82B3084F82F1002204D
:1011000000F0B0F8002084F82A00A07710BD40F26B
:101110008B31702002F03AFCD419002054190020C1
:101120002DE9F05FDFF8B88098F82E5008EB8500C5
:1011300090F82140202C08BFBDE8F09FDFF8A4B054
:10114000DFF8A4A0AAF540790AEB8517072617F85F
:10115000140001280ED0042808BF02260AD0052852
:101160000CBF0326062805D040F6D9014FF07000C9
:1011700002F00CFCBBF1000F18BFAFF30080EFF3DF
:10118000108072B607EB44014A7808EB850181F8BC
:10119000212091F82220A24204BF202281F822209F
:1011A000B8B12A462146012000F05CF804EB440166
:1011B00009EBC10059F8312040683146904798F852
:1011C0002E5008EB850090F82140202CBCD1BDE8C2
:1011D000F09F0648002818BFAFF3008062B6E0E732
:1011E000D419002000000000541900200000000065
:1011F00010B50446006811F08EFF02466089217A1E
:10120000144B0844411C50189A4204D940F2096119
:10121000702002F0BBFB104A914204DD40F20A61EB
:10122000702002F0B3FB0D4A914204DA40F20B61E8
:10123000702002F0ABFB0A498142DEBF00F5F700E7
:10124000A0F1F85010BD0028BCBFA0F5F70000F1D8
:10125000F85010BDFF7F841E0020A10700E05EF85B
:101260000080841EDFF854C010B500230CEB821CF4
:1012700007281ED2DFE800F0050505050404040078
:1012800001230CF81100002B08BF10BD0C4800EB27
:10129000820292F8220020280EBF82F821100CEB67
:1012A0004000417020200CEB4103587082F822105E
:1012B00010BD4FF41571702002F068FB5419002026
:1012C000D41900202DE9F34F83B05C48049900EB5A
:1012D0008100019090F8204003982546012818BF0E
:1012E000022805D04FF42B614FF0700002F04EFB46
:1012F0000027202D4AD0514800910026807F0028E9
:1013000008BF022601F052FCDFF838A104EB4401CB
:101310000AEBC101DFF828918A68C968121A091A14
:1013200022F07F4221F07F41964298BFB2F5800FB4
:1013300001D2894528D2444A009902EB811B2246FA
:101340000BEB42014C78202C16D004EB44010AEB45
:10135000C10CDCF80880DCF80CC0A8EB000828F011
:101360007F48ACEB000121F07F41464598BFB8F5BE
:10137000800FE4D28945E2D3202A05D02021042021
:10138000009BFFF701F90446AC4215D12F48002815
:1013900018BFAFF3008001F009FC284C94F830101E
:1013A00020290DD0E168821C511A0902CA1701EBED
:1013B00012610912002903DD05B00020BDE8F08F9D
:1013C000202D0DD02A460399FFF716FB58B301983C
:1013D00080F8237084F8305005B00120BDE8F08F0C
:1013E00094F82C0018B102F017F984F82C7094F8D6
:1013F0002D0050B116494FF400200860052001F07F
:1014000023FE02F071F984F82D70042001F01CFE17
:1014100001F082FE202084F830000E4880680760CA
:101420000D480760D8E72A4620210420049BFFF7D7
:10143000ABF805B00020BDE8F08F0000D419002003
:10144000FFFF3F0054160020541900200000000048
:1014500008F501401400002008050040064910B5B9
:1014600091F82F20202A1CBF887710BD40F2EA3166
:10147000702002F08BFA0000D41900202DE9F04F03
:101480005B4E814685B096F82F008A4620284DD0C5
:1014900096F82F0006F10C0400EB4000A6F56078EA
:1014A00008EBC00720208DF8000096F82E0003AA54
:1014B00006EB800001A990F8205030690290306856
:1014C000484401F01DFAF86801994A4A0844A9F114
:1014D000640191422FD8B968411A21F07F41B1F5DA
:1014E000800F28D220F07F406060304684F80CA046
:1014F00090F82E00EA46202D1CBF3F4901EB801BCF
:101500003CD005EB450008EBC0076068BA6821468F
:10151000101A0002C21700EB126007F10806001251
:101520001BD4708950B3488948B127E040F67B311D
:10153000702002F02BFA05B00120BDE8F08F2046A4
:10154000FFF756FE01F0C0F93168081A0002C11712
:1015500000EB11600012332810DA8AF80050397D50
:10156000207B814205D80298606005B00220BDE86A
:10157000F08F0BEB45004578202DC2D1052001F0FE
:1015800063FD1B4C4FF0FF30A06094F82E309DF8A7
:1015900000202021202A13BF052004EB830090F8AF
:1015A0002000FEF7F1FF94F82E20134901EB821181
:1015B00094F82F2001EB42014870206848442060D5
:1015C000012084F82B00607E012805D12069401E8F
:1015D00020F07F4001F08AFB9DF80000202803D016
:1015E0000648407802F0A2FA05B00020BDE8F08F6E
:1015F000D41900209C1FA1075419002014000020BA
:1016000070B5234A92F82F10202939D092F82F1064
:10161000A2F5607301EB410103EBC10C92F82E10AF
:1016200092F82E4002EB810191F82010A2F1800582
:1016300005EB8414202928D001EB410503EBC505F7
:101640002D7D854284BF04EB41014978F2D801EB3E
:10165000410103EBC101DCF80C0089681468081A29
:101660000002C11700EB1160001207D411F053FD06
:1016700004F16401884224BF001B70BD002070BDCE
:1016800040F64D31702002F081F94FF0FF3070BD0F
:10169000D4190020064810B590F82F1020291CBF3F
:1016A000007E10BD40F67431702002F06FF900002A
:1016B000D41900200246144B10B508449A4204D9AC
:1016C00040F20961702002F061F9104A914204DD94
:1016D00040F20A61702002F059F90D4A914204DA91
:1016E00040F20B61702002F051F90A498142DEBFDD
:1016F00000F5F700A0F1F85010BD0028BCBFA0F520
:10170000F70000F1F85010BDFF7F841E0020A107F4
:1017100000E05EF80080841E104A0B1A02F1010CF2
:10172000B3EB9C0F3CBF1846704710B5441AB4EB9E
:101730009C0F3CBF184610BD9A4203D2101A0844B1
:10174000401C10BDA24204D2511A0844401C404221
:1017500010BD40F60C31702002F018F9FF7F841E96
:10176000074991F83020824204BF4868704700EB77
:101770004000044901EBC0000830FFF739BD00000C
:10178000D4190020541600200E4910B591F82F00EE
:10179000202812D091F82F00A1F5607200EB4000D4
:1017A00002EBC00091F82F10406801EB410152F8A4
:1017B0003120BDE810400421104740F6BC017020E4
:1017C00002F0E4F8D4190020F8B56D4D6D490126FA
:1017D00005F56074082873D2DFE800F004679DAF58
:1017E000CD44B4B994F82C0018B901F031FF84F855
:1017F0002C60E08A10B102F065F888B1FFF760FC58
:1018000084F82960A168B1F1FF3F05D001230322CC
:10181000052001F051FB40B1607E012810D109E0A4
:101820004FF40761702002F0B1F840F675017020A6
:1018300002F0ACF82069401E20F07F4001F056FA1B
:1018400094F82F0094F82F1000EB400005EBC00037
:10185000406801EB410155F8312001B00121BDE89C
:10186000F0401047FFF72CFC4FF0FF30A06094F8D9
:1018700029008DF800009DF8000088B194F82F0031
:1018800094F82F1000EB400005EBC000406801EB1E
:10189000410155F8312001B00621BDE8F040104764
:1018A00040F68601702002F071F8FFF709FC84F819
:1018B000286002F007F820B194F82C0030B109E05C
:1018C00059E040F69601702002F060F801F0C0FE89
:1018D00084F82C6094F82D0058B12B494FF4002067
:1018E0000860052001F0B0FB01F0FEFE002084F846
:1018F0002D0094F82F0094F82F1000EB400005EB1A
:10190000C000406801EB410155F8312001B00021D1
:10191000BDE8F040104701F049FCE08A10B101F049
:10192000D1FF28B119480078032808BF6677F8BDB1
:1019300040F6A101702002F029F815480660886879
:101940000660F8BD0878BDE8F84002F0EFB8FFF790
:10195000B7FB94F82F0094F82F1000EB400005EB34
:10196000C000406801EB410155F8312001B005216C
:10197000BDE8F040104740F6B401702002F006F8D0
:10198000541600201400002008F501401600002025
:1019900008050040034810B5407811F0BCFB80B248
:1019A00010BD0000160000202DE9F34F8246DC48F0
:1019B0008BB00068DB4DC005C00D0ED0103840B2B2
:1019C0000028B8BF00F00F0000F1E020ACBF90F895
:1019D000000490F8140D40090DD00C984FF0000B46
:1019E0000078002818BF012818D040F24F714FF03E
:1019F000700001F0CBFF95F82F004FF0010B20286D
:101A000007D00C98007848B140F24B71702001F07B
:101A1000BDFF4FF4E961702001F0B8FFC24C24B162
:101A2000002140F25270AFF30080C0490AEB4A0037
:101A300001EBC0004FF00108009024B1002140F2FA
:101A40005A70AFF30080B8F1000F09D095F82E60FE
:101A50004FF0000985F82B90BBF1000F07D032E062
:101A6000B348002818BFAFF3008062B6EEE73746F0
:101A7000012020EA0706AF48402200EB871100EB67
:101A8000861011F0B6FC24B1002140F2CD50AFF326
:101A9000008005EB870105EB8600096A016224B12D
:101AA000002140F2D150AFF3008024B1002140F278
:101AB0006470AFF3008095F82B008DF804009DF85A
:101AC00004000028B9D124B1002140F26E70AFF3B8
:101AD000008001F06BF88046334606AA0C99FFF7A8
:101AE0001BFA24B1002140F27570AFF300809149D8
:101AF00006A801EB861717F81A10012918BF02294A
:101B00003CD10699079BA1EB08018B4A21F07F414C
:101B1000A3EB080323F07F43022971D3B1F5800FB3
:101B20006ED29A426CD34FF0010901AB05AA31463F
:101B3000FEF7E2FE00286BD09DF814109DF80420FB
:101B400033468A4268D00520FEF71EFD07EB4A01A6
:101B500048709DF81400202803BF05EB860080F82C
:101B600020A080F8239007EB400018BF80F801A068
:101B7000324651465FF00300FFF774FB05EB860029
:101B800090F823008DF804009DF8047024B1002122
:101B900040F27C70AFF300806848002818BFAFF3B4
:101BA0000080EFF3108872B624B1002140F28270F9
:101BB000AFF3008095F82B008DF804009DF8040029
:101BC00000287FF43AAF24B1002140F28A70AFF3CD
:101BD00000800DF1180E00989EE80E1000F108002C
:101BE000B9F1000F80E80E1044D024B1002140F27A
:101BF0009770AFF30080BBF1000F2CD116E0FFE728
:101C0000324651460420FFF72DFB4FF00109B5E79E
:101C1000324651460420AFE7202919BF07EB4100A7
:101C2000407805EB860090F820008FE79FB195F88B
:101C30002F0020280FD124B1002140F29C70AFF377
:101C4000008031460220FFF73DFB20B90C98007858
:101C5000F0B301284CD024B1002140F2B970AFF3A9
:101C60000080BBF1000F18BF01204AD085F82B007F
:101C70004FF0010924B1002140F2CA70AFF3008097
:101C8000B8F1000F45D024B1002140F2CE70AFF37F
:101C90000080B9F1000F11D095F82E0005EB8000FF
:101CA00090F82100202809D024B1002140F2D570FD
:101CB000AFF300802248407801F038FF24B10021C2
:101CC00040F2DA70AFF300800DB04846BDE8F08F07
:101CD000FFE724B1002140F2A470AFF3008095F833
:101CE0002E2051460420FFF7BDFA4FF00109C1E74D
:101CF000002C3FF4A2AE002140F2AF70AFF30080A1
:101D00009BE695F82E10012020EA010185F82E109F
:101D1000ACE70748002818BFAFF3008062B6B2E70F
:101D200004ED00E0D419002000000000541600204B
:101D30000000000054190020FFFF3F0000000000D9
:101D4000140000202DE9F14FA5488CB00068C005B3
:101D5000C00D11D0103840B20028B8BF00F00F00FD
:101D600000F1E020ACBF90F8000490F8140D400999
:101D700008BF4FF0010901D04FF000090C9800781E
:101D800000284FF000001CBF0DB0BDE8F08FDFF859
:101D900054A2954D954C4FF0000B0B9025B10021AE
:101DA0004FF4CB60AFF3008094F82E6084F82BB032
:101DB0004FF0000825B1002140F25D60AFF30080D4
:101DC000B9F1000F1DD13746012020EA07068848E7
:101DD000402200EB871100EB861011F00AFB25B1C1
:101DE000002140F2CD50AFF3008004EB870104EBFB
:101DF0008600096A016225B1002140F2D150AFF39B
:101E0000008025B1002140F26560AFF3008000F052
:101E1000CDFE074633466A460C99FFF77DF825B19B
:101E2000002140F26B60AFF3008094F82F0020286F
:101E300014D020690099091A0902CA1701EB12612E
:101E400009120BD5DDE90021891A20F07F420844F0
:101E500020F07F40CDE900204FF001084DB1002176
:101E600040F27560AFF30080002140F27B60AFF379
:101E7000008000980199C01BC91B20F07F4021F011
:101E80007F41B0F5800F05D28A4503D3B9F1000F29
:101E90000CD103E0B9F1000F38D094E033463A4654
:101EA00069465448FEF7ACFB48EA0008B8F1000F59
:101EB00022D0009811F02FF9BDF80A109DF80820E3
:101EC0004D4B1144491C4218984241D8494881421F
:101ED0005ADC404281425FDB581C9042DCBF02F575
:101EE000F702A2F1F85205DD002ABCBFA2F5F70205
:101EF00002F1F8520C98C26001200B90002D62D0C4
:101F0000002140F28E60AFF300805CE0BDF80A0073
:101F100008AA07A900F0F4FC94F82F0020281CD090
:101F20002069401D20F07F40DDE90021891A01442D
:101F300021F07F41CDE9000111F0EDF8BDF80A1064
:101F40009DF808202C4B11444A1C8118984218D93E
:101F500040F20961702001F019FDBDF80A0007F197
:101F6000090620B101F0AEFC002808BF3236234834
:101F700041780798814284BF081A064426F07F40C2
:101F8000D2E71C48824204DD40F20A61702001F071
:101F9000FDFC1B48824204DA40F20B61702001F024
:101FA000F5FC18488842DCBF01F5F701A1F1F851B2
:101FB00005DD0029BCBFA1F5F70101F1F8510C982E
:101FC000C16001200B9094F82B008DF810009DF853
:101FD000100000287FF4E2AE0B980DB0BDE8F08F42
:101FE00004ED00E0FFFF3F0000000000D4190020D6
:101FF000541900200020A107FF7F841E1600002036
:1020000000E05EF80080841E2DE9F14F884D8CB011
:1020100095F82E00002009900120864C4FF0000911
:10202000A5F180078046089024B1002140F2E970B4
:10203000AFF300800898002837D000BF85F82B90B8
:1020400024B1002140F2EE70AFF3008095F82EA08D
:10205000402228EA0A0607EB861007EB8A1183461E
:1020600011F0C7F924B1002140F2CD50AFF3008048
:1020700005EB860005EB8A010090096A016224B134
:10208000002140F2D150AFF3008095F82B008DF87D
:1020900008009DF8080078B1002C1CBF002140F218
:1020A000F470C1D0AFF30080BEE76348002818BFCA
:1020B000AFF3008062B6C1E724B100214FF4FF60A6
:1020C000AFF300800C981BF81000032872D1DDF8E4
:1020D00000A0CDF818A00C999AF82000884214BFEF
:1020E0004FF0000B4FF0010B0AF1200C8646202226
:1020F00007EB861303E0024603EB42004078884278
:1021000002D020280AD0F6E7202807D0864507D13C
:1021100003EB4E0040788CF8000007E048460CE0E6
:1021200003EB400003EB42014078487024B10021EA
:1021300040F23750AFF30080404610EA0B0F18BF53
:102140008AF82380002852D024B1002140F2FD708B
:10215000AFF30080324601200C99FFF783F8069810
:1021600090F823008DF808009DF808A024B1002104
:1021700040F60800AFF300803048002818BFAFF3E6
:102180000080EFF3108072B6089024B1002140F671
:102190000D00AFF3008095F82B008DF808009DF836
:1021A000080040B1002C1CBF002140F611003FF494
:1021B0003BAF77E71BE0BAF1000F08D095F82F008E
:1021C000202804D131460220FFF77CF808B324B15F
:1021D000002140F62500AFF3008095F82E0028EA94
:1021E000000085F82E0085F82B800120099024B18D
:1021F000002140F62E00AFF30080089888B124B18A
:10220000002140F63200AFF3008009980DB0BDE820
:10221000F08F002CF1D000214FF40260AFF300806A
:10222000E6E70548002818BFAFF3008062B6E6E78E
:10223000D419002000000000000000000000000091
:10224000202824BF0020704700EB4000034B43F8D8
:10225000301003EBC000426001207047541600208C
:1022600010B5202811D20E4991F82E30A1F180022C
:1022700002EB831C1CF810303BB191F82E3002EBBE
:10228000831212F81020012A01D0002010BD91F80D
:102290002E2001460020FEF7E5FF012010BD0000C2
:1022A000D41900202DE9F84F804E804696F82E0074
:1022B000A6F1800707EB801010F81800002868D0FE
:1022C00096F82E907A4D25B1002140F6C130AFF33B
:1022D000008007EB891414F81800012818D0C0B248
:1022E00004281CBF0528062858D02DB14FF0000146
:1022F00040F6CD30AFF3008001F06EFC25B1002137
:1023000040F6D130AFF3008014F818000128E6D170
:10231000012425B1002140F6D830AFF30080002C15
:1023200042D0002086F82B0025B1002140F6DD3098
:10233000AFF3008096F82EB0012020EA0B0907EBDE
:102340008B1107EB8910402211F053F825B10021C1
:1023500040F2CD50AFF3008006EB8B0006EB890A0C
:10236000006ACAF8200025B1002140F2D150AFF335
:10237000008096F82B008DF800009DF80000D0B189
:10238000002D1CBF002140F6E330C2D0AFF3008027
:10239000BFE740F6B831702001F0F8FA4A464146EE
:1023A0000120FEF75FFFA9E74248002818BFAFF3FE
:1023B000008062B6B5E725B1002140F6E730AFF303
:1023C00000809AF821200AF1210114464FF0200BD9
:1023D00007EB89100AF1220A03E0A34600EB4B0346
:1023E0005C78444502D0202C2BD0F6E7202C28D056
:1023F000A24204D100EB42004078087005E000EBF7
:10240000440100EB4B0049784170BAF1000F11D044
:1024100025B1002140F22F50AFF300809AF8000060
:10242000A04207D125B1002140F23250AFF3008025
:102430008AF800B05DB1002140F23750AFF3008060
:1024400000E025B1002140F6EB30AFF300801A48E0
:10245000002818BFAFF30080EFF3108472B696F82F
:102460002B008DF800009DF8000038B1002D1CBF36
:10247000002140F6F1303FF44CAF87E786F82E900C
:10248000012086F82B0054B1002D08BFBDE8F88F5D
:10249000002140F6FE30AFF30080BDE8F88F05481C
:1024A000002818BFAFF3008062B6EDE7D419002012
:1024B00000000000000000000000000070B50D46A4
:1024C000064601F0EDF90F4890F82E2000248038E0
:1024D00000EB821010F8141029B1611CCCB2202C32
:1024E000F8D3202070BD084804EB440140F8316067
:1024F00000EBC100214645600120FEF7B3FE2046F7
:1025000070BD0000D4190020541600202DE9F04FB2
:1025100083B000F04BFB054600F0FEFD674CA06861
:10252000B0F1FF3F1CBF4FF0FF30A060A07FDFF88D
:1025300090B1A8B9D4E90301081A0002C11700EB51
:10254000116000124FF40C7110F012FE2169084462
:10255000281A0002C11700EB11600012C00F13D03F
:10256000607E28B394F829008DF800009DF80000E3
:10257000F0B100F027FC00BF94F82A00F0B140F25F
:102580004741702001F002FA94F82F0094F82F10C0
:1025900000EB40000BEBC000406801EB41015BF831
:1025A0003120082190474FF48661702001F0EEF948
:1025B000E81C20F07F4000F0FFFADDE74FF0010A51
:1025C00084F82AA094F82F00202824D094F82F8093
:1025D000202084F82F0084F83000002684F828603A
:1025E00084F82960374826600078022816BF03283F
:1025F00001200020207794F82E7004EB870999F8C9
:102600002000202831D000EB40000BEBC000817D82
:10261000012905D029E040F24A41702001F0B6F9C5
:10262000AB4600F10805408A01AA694600F068F946
:1026300094F82F00202804D02069401D20F07F400E
:102640000BE068890BF1090B28B101F03BF9002878
:1026500008BF0BF1320B2BF07F40D5E90021891A1E
:102660002860084420F07F40686039460120FEF76A
:1026700029FE0028F9D0144800EB871010F8180044
:10268000022804D13A4641460620FEF7EBFD84F8C5
:102690002BA099F82100202803D00C48407801F0A5
:1026A00045FA207F002804BF03B0BDE8F08F00F09A
:1026B0007DFD2677667703B0BDE8F08FD419002042
:1026C0005416002016000020541900201400002089
:1026D00010B5324C82B094F82F10202908D0A16890
:1026E000B1F1FF3F09D040F6E921702001F04EF929
:1026F00040F6E821702001F049F962680146284B54
:1027000050189A4204D940F20961702001F03EF954
:10271000244A914204DD40F20A61702001F036F94A
:10272000214A914204DA40F20B61702001F02EF947
:102730001E498142DCBF00F5F700A0F1F85005DD2D
:102740000028BCBFA0F5F70000F1F85001AA6946C7
:1027500000F0D6F89DF804000F288CBF012000205F
:102760000099084420F07F41A16094F829008DF879
:1027700000009DF80000002804BF02B010BD012336
:102780000322052000F098FB00281CBF02B010BDFA
:1027900040F6F121702001F0F9F80000D419002072
:1027A000FF7F841E0020A10700E05EF80080841EE9
:1027B00070B51E4C202184F8201084F8211084F874
:1027C0002210002084F8230084F82E0084F82F10B3
:1027D000421EA2602060A07784F8280084F82900B7
:1027E0002077607784F83010114984F82C0084F841
:1027F0002D00087048704880A4F182011022887072
:1028000001F8040F521EFAD10A4D012684F82A60FD
:10281000FF202870084801F06BF9687001F0C6F9D4
:10282000A86000F00BFD84F8316070BDD419002061
:1028300016000020140000202111000070B505468C
:10284000012000FA05F40E46002A08BF08480CD003
:10285000002000F0D9FCE90001F1804101F5F831D8
:10286000C1F81005C1F814650248046070BD00008D
:1028700008F5014004F5014070B5044615460846C8
:1028800010F049FC0F4A011B531CB1EB930F24BFFE
:10289000A4EB000CBCEB930F0BD38A4203D2111BA9
:1028A0000844411C05E0624507D2101A2044401C30
:1028B000414201F10F00281A70BD40F60C31702022
:1028C00001F064F8FF7F841E410B48F237625143E8
:1028D0000A0C094B510202FB03020848504300F561
:1028E00086306E30400D5B4210FB03F3B2EB532F8A
:1028F00088BF491C08447047F7C2FFFF6F0C0100F6
:10290000430B48F2376C03FB0CF330B41B0CDFF8BD
:1029100044C05C0203FB0C030F4858434FEA505C71
:1029200004EB0C0043F609541CFB04F404F5807C12
:1029300043F60855A3EB5C2C2C440CF0FF0CB3EBD6
:10294000542F84BF4FF0000C401C086082F800C078
:1029500030BC7047F7C2FFFF6F0C01002DE9F0415A
:10296000384CD4F80403DFF8E08010F4803F4FF4D3
:1029700000664FF0E0274FF000051CBFD4F840017F
:10298000002817D0C4F84051C7F880622F4800686B
:10299000D8F80010A0EB010020F07F40022802D3FD
:1029A000B0F5800F06D34FF48030C4F8080304203C
:1029B000FEF70AFFD4F8040310F4003F1CBFD4F85C
:1029C0004401002817D0C4F84451C7F88062204859
:1029D0000068D8F80010A0EB010020F07F4002282A
:1029E00002D3B0F5800F06D34FF40030C4F80803CB
:1029F0000520FEF7E9FED4F8040310F4802F1ABF77
:102A0000D4F848010028BDE8F081C4F84851C7F85F
:102A1000806210480068D8F80010A0EB010020F098
:102A20007F40022804D3B0F5800F38BFBDE8F081A5
:102A30004FF48020C4F80803BDE8F0410620FEF7FB
:102A4000C3BE000000B0004004B5004040B50040E7
:102A500044B5004048B500402DE9F0413A4D287892
:102A600004286CD0E81C0122017859B1012908BF63
:102A70006A7002D0697800295CD002210170407828
:102A800000F0E2FA314CD4F804034FF0000810F4DF
:102A9000002F4FF480764FF0E0271CBFD4F84C0194
:102AA000002808D04FF0030000F0CEFAC7F880628B
:102AB0000320FEF789FED4F8040310F4802F1CBF16
:102AC000D4F84801002808D04FF0020000F0BCFA0A
:102AD000C7F880620220FEF777FED4F8040310F4F2
:102AE000003F1CBFD4F84401002808D04FF001007B
:102AF00000F0AAFAC7F880620120FEF765FED4F85C
:102B0000040310F4803F1ABFD4F840010028BDE848
:102B1000F0814FF0000000F097FAC7F880620420BF
:102B20002870C5F80880C4F80082BDE8F041002094
:102B3000FEF74ABE4FF45A716C2000F027FFBDE843
:102B4000F0410720FEF740BE20000020008000403A
:102B5000012213024FF0E0210020C1F8803101F57D
:102B6000C071BFF34F8FBFF36F8FC1F800310C49B5
:102B70004A60431EC1F808330A4B1860C1F840018F
:102B80001B1D1860C1F844011B1D1860C1F84801E5
:102B90001B1D1860C1F84C010A6103494870704759
:102BA000008000404085004020000020014800686F
:102BB0007047000004B500402DE9F05F414E044627
:102BC000F71E96F800C0F868BCF1010F04BFA042E0
:102BD000BDE8F09F4FF040413B4A11603B496FF424
:102BE0008023C1F808333A4A4FF00005BCF1000FCA
:102BF00057D06FF4A023C1F848331560C1F8445191
:102C0000D1F848214FF0E0294FF00108002A04BF15
:102C10004FF40062C9F880224FF48033C1F80833C2
:102C2000C1F84833C1F840512A4AD2F800A0A4EBB9
:102C30000A0A2AF07F4BBBF1020F3CD34FF0020A85
:102C4000BBF5800F37D2C1F84045C1F84433BCF121
:102C5000000F05D01168411A21F07F410229F9D3F4
:102C6000C7F808803D70FFF773FF1B480560001D23
:102C7000C0F800A01949042008601949C1F80C8067
:102C8000BA68C1F800228101C9F88012C9F80011A0
:102C9000144A41071160FC60707086F80080BDE83E
:102CA000F09FC1F84833104B1D60C1F840511560CA
:102CB000C1F84451A4E7C1F8405540F2F1116C202D
:102CC00000F064FE2300002008F5014000B0004041
:102CD00044B5004004B50040048500401085004024
:102CE0000080004004F5014040B500402DE9F0416E
:102CF0002B4CE168814214BF01220022DFF8A4C0FE
:102D00009CF80070022F02D0002A38D003E0002A7D
:102D100008BFBDE8F081627882B3234B4FF0804258
:102D20001A60224B9513C3F80853C3F84853002682
:102D3000C3F840611E4AD2F80080A0EB080828F0D2
:102D40007F48B8F1020F24D3B8F5800F21D2C3F821
:102D50004005C3F844532FB11368CB1A23F07F43C7
:102D6000022BF9D3134B02214A071A60E0600420BA
:102D70008CF801008CF80010BDE8F08104E040F20E
:102D8000FF116C2000F002FE40F203216C2000F0E5
:102D9000FDFDC3F8406540F20F216C2000F0F6FD08
:102DA000200000202300002008F5014000B0004072
:102DB00004B5004004F501400148C06870470000B8
:102DC000200000202DE9F04133486FF48024C0F842
:102DD0000843DFF8C8C0324A00219CF8003063B1D4
:102DE0006FF4A024C0F848431160C0F8441100BF3C
:102DF000D0F84801012280B909E0C0F84843294CC5
:102E00002160C0F840111160C0F84411F0E74FF0A4
:102E1000E0244FF40060C4F88002022B04D040F29A
:102E20001B216C2000F0B2FD1F4E30681F4CC01CEF
:102E300020F07F40E3681E4D98420BD03768DF1BBF
:102E400027F07F47042F05D3B7F5800F02D2FFF795
:102E5000B3FE1BE03068181A20F07F40022813D31D
:102E6000B0F5800F10D2134B4FF080401860A26075
:102E700021706A60EA604000191F086004208CF825
:102E800001008CF8002001E0A2602170A068C5F864
:102E90000002BDE8F081000000B0004023000020E7
:102EA00044B5004040B5004004B50040200000207B
:102EB0000080004008F501402DE9F047DFF874C1BB
:102EC00001274FF000089CF800509CF801C007282B
:102ED0007ED2DFE800F0040404046A6A6A00564CFB
:102EE000E668B6F1807F04BF6478002C02D0022D22
:102EF00005D03CE040F24E216C2000F047FD4FEA47
:102F00008C0404F18046ACF104042406A40D04F101
:102F1000804906F5004609F530490024012D02D00C
:102F2000022D11D020E0BCF1040F05D2D6F840A14B
:102F3000BAF1000F18D104E0D9F840A1BAF1000F9E
:102F400012D14FF000440FE0BCF1040F05D2D6F8C7
:102F500040A1BAF1000F07D104E0D9F840A1BAF1BD
:102F6000000F01D144F0804414F0804FD5D1334C90
:102F700000F1100C07FA0CFCC4F808C380002044D0
:102F800052B10764D0F840658D1B25F07F45AA42F9
:102F900098BFB5F5800F43D2C0F84015012B08BF8C
:102FA000C4F804C30120BDE8F08735B1844504D1DD
:102FB00040F271216C2000F0E9FC001FC0B2012B2F
:102FC0000CBF01240024032806D340F24B1100E07B
:102FD0002BE06C2000F0DAFCDFF864C000F1100395
:102FE00007FA03F3CCF80833CCF848338000604488
:102FF000C0F840814AB1134D2E688D1B25F07F45E6
:10300000AA4298BFB5F5800F0AD2C0F84015002C2F
:1030100018BFCCF80433CCF844330120BDE8F08766
:10302000C0F840850020BDE8F08740F276216C2092
:1030300000F0ACFC230000202000002000800040B5
:1030400000B0004004B50040F8B50127002407286F
:103050004CD2DFE800F00404040416161600264AD9
:1030600000F1100107FA01F1C2F8081381001144C0
:10307000C1F84045C1F84041204951F82000009076
:10308000F8BD1F4D011FCEB2297879B16A7882420E
:103090000CD11C4A4FF040401060012908BFFFF7D7
:1030A00057FD2C7018494FF08070C86006F1100071
:1030B00007FA00F11548C0F80813C0F84813B0002B
:1030C00000F1804000F53040D0F84015104A1268F9
:1030D000891A21F07F41022924BFC0F84045C0F879
:1030E00040410C4850F826000090F8BD40F2EF2116
:1030F0006C2000F04BFC000000800040408100404C
:103100002300002008F501402000002000B000400E
:1031100004B5004040B100401E496FF48023C1F85F
:1031200008331D481D4A90F800C00020BCF1000F74
:103130000AD06FF4A023C1F848331060C1F84401ED
:10314000D1F8481181B909E0C1F84833144B18602F
:10315000C1F840011060C1F84401F1E74FF0E022EE
:103160004FF40061C2F880120E494FF0FF32C1F8EF
:1031700008230D4A1060C1F84001121D1060C1F80B
:103180004401121D1060C1F84801121D1060C1F801
:103190004C01704700B000402300002044B50040BF
:1031A00040B500400080004040850040084890F94C
:1031B00002000028B8BF704700F01F01012202FA88
:1031C00001F14009800000F1E020C0F800127047D2
:1031D0002000002010B507280DD2DFE800F004041D
:1031E000040406060600064902E0001F0549C0B2B5
:1031F00001EB800010BD40F29A216C2000F0C6FB6C
:103200004081004040B1004010B507280DD2DFE8F2
:1032100000F00404040406060600064902E0001F4C
:103220000549C0B201EB800010BD40F29A216C202C
:1032300000F0ACFB4081004040B1004070B519483F
:10324000002404210470C01E01708905C160FFF7CD
:103250007FFC01254FF0E02CEB02CCF88031BFF36E
:103260004F8FBFF36F8FCCF880320F4A5560956057
:103270000E4801680029FCD1481EC2F80803C2F8B4
:1032800048030B480460C2F84041001D0460C2F8C6
:103290004441001D0460C2F84841CCF8003115607B
:1032A00070BD00002300002000B0004004B50040C5
:1032B00040B500402DE9F041164C607A002827D037
:1032C0004FF480718D0528460FF076FF80464FF44D
:1032D000827128460FF070FF00260746B8F1000FF4
:1032E00009D00120C5F80803207920B12671E069D2
:1032F00008B18047E66137B1C5F804610220C5F81E
:10330000080300F08BFA4046BDE8F04100F05AB8DF
:10331000BDE8F0813000002010B50FF0F7FF30B9A4
:1033200010F015F818B910F048F8002802D002493A
:103330000220086010BD0000340C004070B500F0A1
:1033400087F900F0BFFA094C4FF0804530B1FFF724
:10335000E3FF012028610420A07204E00320A07292
:103360000120C5F804030020E07170BD300000208A
:1033700070B5134CA079F0B1012803D0E179401E5B
:10338000814218DA00F09EFA054600F06FFBA17941
:10339000012902D9E179491CE1710DB1616900E0AF
:1033A0002169411A022902DA11F1020F07DC0DB17D
:1033B000606100E02061BDE87040FFF7BFBF70BDF5
:1033C000300000202DE9F04706464FF080454FF4CD
:1033D000867128460FF0F0FE80464FF4887128462B
:1033E0000FF0EAFE274C8246277804F108000FF020
:1033F00057FF10B14FF4D57116E04FF0010946B1F7
:10340000A07A032805D10420A072FFF785FFC5F834
:1034100010900026B8F1000F18D0C5F80C61A07A02
:10342000042804D04FF4DE716D2000F0AFFA0FF0E5
:103430006DFF28B90FF08BFF10B90FF0BEFF08B178
:10344000114806600220A07200F0E6F8BAF1000F01
:1034500008D0C5F81061A07A022801D1FFF788FFD3
:10346000C5F814903FB12670A07A022801D1FFF769
:1034700065FF00F0D1F8BDE8F047024808300FF0D2
:1034800026BF000030000020340C00402DE9F0473A
:103490005C4C4FF000080646C4F8188043788278E8
:1034A0000078E07263710127A271BD0784F807807C
:1034B000052824D2DFE800F00F03051F2100A761D3
:1034C00009E000F0C5F8012128460FF07AFE002837
:1034D000F9D00220A0610FF0A0FEB0B100F00CFA0C
:1034E000217E01F0030188420FD1B07950B1022052
:1034F000C5F804036AE04448ECE74448EAE74FF4BF
:103500004C7149E000F0CCF960E0EF604FF4827A52
:10351000C5F80481A069C5F818050FF0E3FE40B9AD
:103520000FF0EAFE28B90FF0FEFE10B90FF00FFF02
:1035300038B14FF080513648D1F84412C1F34231CE
:1035400001600FF0CFFE40B90FF0D6FE28B90FF0A2
:10355000EAFE10B90FF0FBFE10B12D4810300760E5
:10356000AF600220C5F80403B07978BBD5F8040336
:1035700010F0020F0ED0DFF89C90D9F80010C9436C
:1035800041F30017D9F8001041F01001C9F80010FC
:103590007F1C07E040F2F1216D2000F0F7F900BF39
:1035A00000F01AFB514628460FF006FE0028F7D01F
:1035B00000F076F92FB9D9F8001021F01001C9F800
:1035C00000100220C5F80803C5F80481A07970B185
:1035D000307860B900F076F9064600F047FA6FF0EF
:1035E000004216B1C4E9042001E0C4E9040201214B
:1035F00028460FF0E6FD08B100F05EF984F80A8075
:10360000BDE8F08730000020010002000100030047
:103610003C05004010ED00E010B5EFF3108472B6E9
:103620000A48417829B14178491E4170417829B151
:1036300008E040F20D116D2000F0A8F9807808B97B
:1036400000F04EF9002C00D162B610BD3000002011
:1036500010B5EFF3108472B606484178491C4170EA
:103660004078012801D10FF0C3FD002C00D162B6D3
:1036700010BD000030000020054810B5C17821B110
:1036800000210171C170FFF7C7FF002010BD0000CD
:103690003000002070B50C4CE17861B90125E5706F
:1036A000E061FFF7D5FF00F00DF930B1E06910B12E
:1036B00080470020E061002070BD4FF08040257100
:1036C000C0F80453F7E7000030000020EFF310804B
:1036D00072B604498A78521C8A70002800D162B6FA
:1036E000704700003000002010B5EFF3108472B670
:1036F0000A48817829B18178491E8170417829B1C1
:1037000008E040F225116D2000F040F9807808B9FA
:1037100000F0E6F8002C00D162B610BD30000020A9
:103720002DE9F04104006FF015003CD02178042908
:1037300039D80029617838D0002934D1A1780029FE
:1037400031D100200FF003FD00200FF0F3FC4FF00B
:1037500080484FF0FF31C8F808130026C8F8006110
:10376000C8F80461C8F80C61C8F81061144F7E7085
:10377000A088B8810FF033FD012508B1FD707D7080
:10378000012140460FF01DFD08B100F095F82046DC
:10379000FFF77CFE7D7200200FF0CCFC4FF0E021A3
:1037A0003046C1F80051BDE8F0810029FBD0202946
:1037B000F9D8A1782129F6D80129C2D1F3E7000070
:1037C0003000002001488089704700003000002050
:1037D00010B50D480FF064FD0B49083948B10120C0
:1037E00008704FF0E021C1F80002BDE81040FFF77B
:1037F0002FBF887A022801D1FFF7A0FDBDE8104055
:1038000001480FF064BD0000380000200248807AB3
:10381000002800D00120704730000020F8B51F4D6F
:10382000E87A00280FD1287E00F003000FF0E5FCB5
:10383000002808D0EFF3108172B6FFF7E7FF18B148
:10384000002900D162B6F8BD0126AE7201B962B698
:1038500018204FF08044C4F80803A6614FF420708C
:10386000ADF80000BDF80000411EADF80010F9D21F
:103870000027C4F80C71C4F81071084808300FF024
:1038800022FD2F70FFF75AFD6661687900F07F0016
:10389000C4F838051820C4F80403F8BD300000202F
:1038A00010B5044C207E00F003000FF0A6FC0028A9
:1038B000F8D010BD30000020014901200870704789
:1038C000E80300204FF08040D0F8000118B9034809
:1038D0000078002800D0012070470000E803002095
:1038E0004FF08040012141600021C0F800110148E3
:1038F00001707047E80300200248006800F00300F0
:10390000704700001C04004010B531B1012907D0F8
:1039100040F2023105A000F00FF8D0F8140401E0E5
:10392000D0F8080400F0010010BD00006E72665F60
:10393000636C6F636B2E6800024A526802B11047D5
:10394000FEE7000050000020064810B5002101608D
:103950000121016008460FF077FCBDE8104001200E
:103960000FF065BCFC1F0040074810B50121416005
:10397000891EC0F808130C200FF066FCBDE810404B
:103980000C200FF054BC000000C00040FEB5104AEF
:103990005568E5B1002203466E460A2403E0B0FBF9
:1039A000F4F0521CD2B20028F9D1B0540AE000BFA2
:1039B000B3FBF4F004FB1030B3FBF4F3521ED2B2AD
:1039C0003030B054002AF3D13046A847FEBDFEE7A0
:1039D0005000002070B5174C06460D46607810B1B7
:1039E0004FF0FF3070BD06B9134E62602570FFF7CF
:1039F000ABFFFFF7B9FF3046FFF792FE0600F1D1AB
:103A0000FEF7D6FEFFF70AFF0FF0ECFA28460FF09C
:103A10000EFC0120002D09DB05F01F0100FA01F169
:103A20006A09920002F1E022C2F80011607030468B
:103A300070BD0000500000206A320100014840784B
:103A40007047000050000020074890F9000000284F
:103A500009DB00F01F02012191404009800000F1C4
:103A6000E020C0F800127047500000202DE9F0411E
:103A700001264FF0E02231034FF000084046C2F823
:103A80008011BFF34F8FBFF36F8F164CC4F8000146
:103A90000C200FF0F8FB144D2868C04340F30017CA
:103AA000286840F010002860C4F8046326607F1C7A
:103AB00002E000BF00F090F8D4F800010028F9D02F
:103AC0001FB9286820F01000286008480568666063
:103AD000C4F80863C4F800810C200FF0D4FB28461A
:103AE000BDE8F08100C0004010ED00E008C50040D6
:103AF00010B5024605200C4904E000BF01EBC003ED
:103B00001B7933B1401EC0B2F8D24B216920FFF7B8
:103B10003DFF41F8302001EBC00100224A718A715B
:103B200001220A7110BD0000081A002010B50528F6
:103B300001D35A2106E00A4901EBC00001790129AD
:103B400003D05B216920FFF721FF41798279491C6D
:103B5000C9B28A4200D04171BDE81040FFF774BF7E
:103B6000081A002070B505250E4E0F4C16E021787E
:103B700006EBC1000279012A08D1427983799A4281
:103B800004D04279827156F8310080472078401C79
:103B9000C0B22070052801D3002020706D1EEDB248
:103BA000E5D270BD081A0020E903002000B50FF02F
:103BB00099FB40B90FF0A0FB28B90FF0B4FB10B986
:103BC0000FF0C5FB08B1024800BD024800BD00006F
:103BD0000C05004000E7014010B50FF0B8FB30B312
:103BE000EFF31080C8B1002172B612480268036872
:103BF000C2F3001243F0100303604FF0E023D3F848
:103C00000042D3F804321C4300D040BF20BF00BFA5
:103C100000BF00BF00BF12B105E00121E4E7026868
:103C200022F010020260002900D062B610BD20BF51
:103C300010BD000010ED00E070B50E4C607800285B
:103C400017D120780025012806D102202070206994
:103C500010B12069804725612078032809D125709B
:103C60002069002805D06068406980472069804746
:103C7000256170BD5800002010B5084C207802283E
:103C800002D02078032802D1606880688047002035
:103C9000A0706070BDE81040FFF7CEBF5800002054
:103CA00002480078002800D001207047580000200A
:103CB00038B50446052804D340F237116820FFF7D1
:103CC00065FEFFF7B9FF104D0120687028780228C3
:103CD00016D16868C168204688470C4901EB440248
:103CE000527882420DD3A87801280AD011F8140026
:103CF0008DF800008DF801406868016868468847C3
:103D000038BD0120F4E7000058000020941E002078
:103D100005490A78022A04D00A78032A01D0002033
:103D200070474968096908475800002010B558B124
:103D300008490A78022A02D00A78032A09D1496878
:103D40004968BDE81040084740F24D116820FFF770
:103D50001DFE10BD5800002005480178022904D03E
:103D60000178032901D0002070474068806900472E
:103D700058000020BF350100DB350100C9350100C6
:103D8000D5350100C3350100BD350100BB3501004B
:103D9000E1350100CF350100B5350100AD35010039
:103DA000B1350100A73501000148006800680047EF
:103DB0006C00002001480068006900476C0000208A
:103DC000014A1268926810476C00002001480068A0
:103DD000C06800476C000020014A12685268104712
:103DE0006C00002001490968096A08476C0000203E
:103DF0000148007870470000EA0300201FB5174C07
:103E0000207A022800D202208DF80100E0790328F0
:103E100000D203208DF80000A079ADF8040060798D
:103E2000ADF8020068460CF05FFB08B1802110E09D
:103E3000E068029002A80CF06DFB08B1842108E054
:103E400007480068039003A812F0E9FF002803D098
:103E50008821032000F038F91FBD0000301A00202F
:103E6000944100007CB5044600680D4600F1030053
:103E700020F0030020604FF00000009001900878CF
:103E80008DF8010048788DF8020088788DF80300DD
:103E9000C8788DF80400287916008DF8050001D047
:103EA000002000E02068694600F00AFB2168084411
:103EB0002060A97841B16B8AEA7806B1002000F051
:103EC000E3FD2168084420601248C17879B1297C5B
:103ED00069B1007908B1FF2200E025220EB100206F
:103EE00000E0206800F066FE216808442060287920
:103EF00000280DD02068C01C20F0030020602A7D1F
:103F0000297906B100200CF0BBFF2168084420602D
:103F10007CBD00007000002010B528B114220449B7
:103F20000FF067FA002010BD6FF0150010BD000003
:103F3000B041000070B510B16FF02C0070BD284C7E
:103F4000607810B14FF0FF3070BD09B36FF015000D
:103F5000002AF9D0234B0B29F6D2DFE801F006073F
:103F60000A0D111420281A2B2E00EDE71078187076
:103F700027E01078587024E01068C3F8050020E0AE
:103F80001068D8601DE01178DA789142DCD399701E
:103F900017E011789A789142D6D8D97011E0E1787B
:103FA00011B111780229CFD31078187409E0108864
:103FB000588206E01078187103E011780229C3D303
:103FC00019750122074900200FF00CFBB0F5803F66
:103FD00002DB6FF00B0070BD0121A17070BD00000D
:103FE00070000020301A002070B50C46050019D072
:103FF000C4B100F011F9C0B12846FFF779FD0C4DAE
:1040000000220C49287020460FF0ECFA13F073FDE3
:10401000002128780CF0B2FDFFF7F0FE0120687057
:10402000002070BD6FF0150070BD4FF0FF3070BD07
:1040300070000020301A002030B587B005000CD089
:10404000FFF7FCFC4FF0FF3420B1FFF7BBFBB0F5EE
:10405000FA7F05D9204607B030BD6FF01500FAE7AA
:10406000134C1448A56000F007FA00206070A0709F
:10407000E07020711822104968460FF0BAF9182232
:1040800069460E480FF0B5F9EFF3108472B60C488C
:104090006FF00C0100F030FE0A4800F0F1FE18B19C
:1040A0009621032000F010F804B962B60020D2E790
:1040B00070000020FD3D000098410000301A0020F3
:1040C00000C00040454200000EB572B6154A956822
:1040D000D5B1002203466E460A2403E0B0FBF4F09B
:1040E000521CD2B20028F9D1B05409E0B3FBF4F06D
:1040F00004FB1030B3FBF4F3521ED2B23030B05494
:10410000002AF3D13046A847BFF34F8F0648016815
:10411000064A01F4E06111430160BFF34F8F00BF15
:10412000FDE70000700000200CED00E00400FA053F
:10413000064810B581784078014302D04FF0FF3037
:1041400010BD0CF049FD002010BD000070000020E3
:10415000074810B581784278114302D04FF0FF3004
:1041600010BD0121C1700CF049FD002010BD000000
:1041700070000020064810B581784078014302D0D5
:104180004FF0FF3010BD0CF04BFD002010BD0000C3
:10419000700000200100000001010100001B1B0352
:1041A000020000004C1D000003001F000200000080
:1041B000DFC04ED61F7C66090AF52BA098F2436437
:1041C00062C5A62A054A10B5526812B1BDE8104072
:1041D000104783210420FFF777FF0000481A0020D2
:1041E000054A10B5126812B1BDE8104010477D2194
:1041F0000420FFF769FF0000481A0020054A10B5A7
:10420000926812B1BDE81040104789210420FFF7E1
:104210005BFF0000481A00200548016829B1416889
:1042200019B1806808B10120704700207047000074
:10423000481A002002490DC881E80D00002070478F
:10424000481A0020F8B5124C0026256811E00098A5
:10425000022802D003280CD106E0206810B100200B
:10426000266005E028210CE0206868B10120266066
:10427000A847684600F0D6FD0028E8D0052805D0FC
:1042800035210420FFF720FF2D21FAE7F8BD0000BB
:104290007C0000207CB51F4C0546207840B1A278F8
:1042A000611C2846921C0FF0A4F80020207021E029
:1042B00019480CF013FA00281DD0174C2078142848
:1042C00004D10A213E2000F029F818B120780A28EC
:1042D00005D009E0104928460FF0B9FC0AE0052195
:1042E0003E2000F01BF838B10B4928460FF04DFA7C
:1042F000002800D001207CBDA088ADF8000001A9F5
:1043000068460FF0DFFD0028F5D09A210820FFF75E
:10431000DBFE00005C1B0020541A002070B50C4628
:10432000054600F04BF8002802D03E2D01D00120B8
:1043300070BD122C06D106480178022902D04078BF
:104340000028F5D02046BDE8704000F053B80000CA
:10435000EB0300200149487070470000EB03002088
:1043600070B50A7882703AB3012A25D813230370F6
:1043700000230AE001EB430400EB4305A678EE704E
:104380006488240A5B1C2C71DBB29342F2D30023B5
:104390000BE000BF01EB430500EB43042E7966718F
:1043A000AD882D0A5B1CA571DBB29342F2D30121CB
:1043B00001EB8200C0B270BD002070BD01210C4A2B
:1043C00040280CD2202803D8401E8140106802E00B
:1043D000213881405068014207D100207047FF28F2
:1043E00003D0403881409068F5E701207047000015
:1043F000800000200121401E81400448C068014225
:1044000001D001207047002070470000800000208C
:1044100001490068C86070478000002004490268B4
:10442000406842F48C220A60024A10434860704798
:1044300080000020F807400205484FF0FF3101607E
:10444000C90C4160002181601F21C16070470000DC
:104450008000002010B5FFF7EFFF0020FFF77AFF84
:1044600012F097FE04460348006800B180472046DA
:1044700010BD000090000020014908607047000056
:104480009000002002210180418000210171DF2184
:10449000417144F6C061C1800149816000207047CC
:1044A000D61F7C6610B5052804D34FF4D6711720AB
:1044B000FFF70AFE0149085C10BD0000601C0020E7
:1044C000F8B504468A7848780244FF2A02D940F2B7
:1044D0005F111DE00A78824202D940F2631117E0B1
:1044E0000094C4B100264B7891F802C04A790CEBD5
:1044F0000300C5B2AA4200D91546C878A84200D91F
:104500000546E71C27F00307A74206D040F27911C1
:104510001720FFF7D9FD0126E5E7154F3B7087F817
:1045200001C0B8700879F8703A713146684600F0F9
:104530000FF900218C460098C01C20F00300009069
:104540005EB907EB8103D861002004E0DA6942F824
:1045500020C0401CC0B2A842F8D30098491C00EB10
:104560008500C9B200900529E5D3001BF8BD000005
:10457000601C002070B5044610F0D9F908B1102075
:1045800070BD257800F020F902460C48618800EBE8
:1045900085000EE0C36953F8213043B14A1C6280A4
:1045A000A180C06950F82100A060002070BD491CA6
:1045B00089B29142EED36180052070BD601C00205D
:1045C0002DE9F041074611B1002038B901E0012082
:1045D000FBE7012902D0002038B901E00120FBE708
:1045E000022902D0002038B901E00120FBE70329AD
:1045F00002D0002060B901E00120FBE7042907D0C8
:10460000002000281FD000241248012902D002E017
:104610000120F6E7047800234FF6FF7600EB810CCB
:1046200010F801E008E01819DCF81C5080B255F8C9
:10463000205025B15B1C9BB29E45F4D83046388093
:10464000B04202D10020BDE8F081BDE8F04100F0A9
:1046500035B80000601C00202DE9F0410746A0F5A8
:104660007F400C4643F20206FF3820D0052C02D3CF
:104670000720BDE8F081384600F05AF8050016D052
:104680000C48294650F82420384690470A48002113
:1046900000EB8406F06940F82710204600F08AF805
:1046A00002462946B0680FF07FFF0020E1E7304660
:1046B000DFE7000004480000601C00202DE9F04105
:1046C00090460E4607460FF0BBFF48B1164800EB78
:1046D0008604E06950F8270028B14FF49D7115E079
:1046E00040F2391112E0A06800281AD0304600F0DC
:1046F00061F80146A0680FF009FF050010D0E069DD
:10470000052E40F8275004D340F245111720FFF73B
:10471000DBFC06484246294650F826303846984782
:104720002846BDE8F0810000601C0020F047000032
:1047300070B50C4605460FF083FF002805D00348EE
:1047400000EB8400C06950F8250070BD601C00209B
:104750002DE9F843164F8846054600242868C01CFA
:1047600020F003002860204600F024F8395D414322
:10477000B8F1000F01D0002000E02868009018B1C7
:1047800000261EB1002002E00126FAE768460FF07D
:10479000EAFE1EB907EB8401009A8A602968641C4E
:1047A0000844E4B22860052CD8D3BDE8F8830000A3
:1047B000601C0020034931F810004FF6FC71C01C4A
:1047C0000840704718480000084B1878597808448A
:1047D000C1B29878814200D30846DA78904200D27C
:1047E00010461979884200D208467047601C0020A4
:1047F0005546010055460100554601005546010049
:10480000554601003B650100F1600100A957010018
:10481000397A0100F57A0100E001280210016000F8
:10482000580000002DE9FF4F264C804681B02068DB
:104830009A46934658B1027A424503D9416851F8E5
:10484000280040B143F2020005B0BDE8F08FA52179
:104850001820FFF739FC194602980FF013FF87B2B2
:1048600058460E990FF005FF86B2B819001D85B2A3
:104870002068A146294600680FF048FE04001FD0BA
:10488000658026800E98251D009031465A460123EA
:1048900028460FF094FD2088394628440123029AC7
:1048A000CDF800A00FF08BFD2088411928460FF0AD
:1048B000B9FDD9F800004168002041F82840C3E75D
:1048C0000420C1E79400002070B5144C23688BB11C
:1048D000197A814212D95A6852F8201071B1002514
:1048E00042F820504A8818680FF05EFE21680020C8
:1048F0000A7A0CE0C8211820FFF7E6FB43F2020019
:1049000070BD4B6853F8203033B9401CC0B28242AE
:10491000F7D808680FF03DFE002070BD940000201D
:104920002DE9F0410D46040090464FF0000609D0F5
:104930000027E01C20F00300A04205D086211820AB
:10494000FFF7C2FB0127F4E7CDB1114600200FF0BD
:104950000AFE0C3000EB85068FB90A4F04F10C00FB
:10496000AA003C602572606000EB85002060002199
:1049700060680EF0B8FD414638680FF0F4FD30462F
:10498000BDE8F0819400002070B5084D286800282B
:104990000AD0002404E02046FFF796FF641CE4B22E
:1049A0002868007AA042F6D870BD0000940000206C
:1049B000094910B502460968002049B10B7A9342B3
:1049C00005D9496851F82210002900D0081D10BDF2
:1049D000EE211820FFF778FB940000200A4910B55B
:1049E00002460968002059B10B7A934207D94968F9
:1049F00051F82210002902D031F8040B084410BDF0
:104A0000FC211820FFF760FB940000202DE9F04105
:104A10001C4E456804460022A1B1012060707088D8
:104A20008308002004EB400104EB80060A830B841A
:104A300000FB035171602118401C0A750428F1D352
:104A4000BDE8F0816270002004EB40010A830A8413
:104A500004EB80014A602118401C0A750428F3D336
:104A600070880FF08DFE074670880FF090FE65602D
:104A700020842918A1606784E560A0842161E7840F
:104A8000DEE70000980000202DE9F04780B1002605
:104A90001144CFB2DFF89C80C11C002421F0030137
:104AA00088F80070814205D04E210920FFF70CFBE9
:104AB0000126EDE71F2B04D84FF6FF7101EA8301B1
:104AC00009E05900FF2B0BD903F1FF02B2EB430FB2
:104AD00000D2114689B2C91C21F0030536B109E0A4
:104AE0007C22B2EB430FF5D37C21F3E7C8F8040036
:104AF000A8F8025007EB870104EBC10200214FF038
:104B000001090FE05EB9D8F8044001EB810300EB26
:104B1000020C04F8339004EBC303C3F804C0491C2F
:104B20002A44C9B2B942EDD3D21D22F00700BDE834
:104B3000F08700009800002070B51148002421463D
:104B400002780CE0456801EB810315F8333023B19E
:104B500001EB810105EBC10403E0491CC9B291429C
:104B6000F0D344B10025A57001212046FFF74EFF88
:104B70002570204670BDA9210920FFF7A5FA000085
:104B800098000020044810B5408884080FF0FFFD0D
:104B9000844200D3204610BD980000200148407890
:104BA00070470000A00000200148406870470000E6
:104BB000A00000202DE9F8430C46074616461C21AC
:104BC00010460D4622460FF05CFC804657B1384631
:104BD000414632462B4600940FF0F1FB03484760F4
:104BE000047046704046BDE8F8830000A000002035
:104BF0000248427801784068FFF7DCBFA00000203F
:104C0000094910B507480860084B112003EBC004A0
:104C10000022C4F81025C4F81425401CC0B2142882
:104C2000F4D310BD0000FEFF08F5014000F0014084
:104C300070B520240021012320FA01F2D20720D0F0
:104C40004AB2002A10DB00BF4FEA52164FEA86062E
:104C500002F01F0506F1E02603FA05F5C6F88051BB
:104C6000BFF34F8FBFF36F8F0BDB02F01F054FEACF
:104C700052124FEA820202F1E02203FA05F5C2F86D
:104C8000805201F10101A142D6D370BD70B542003E
:104C90004FF0000101D5144A1160C0F38032C0F317
:104CA000C0339A4203D066211B20FFF70DFA10F49F
:104CB000404F14D00D4A01205060831EC2F80833C3
:104CC0000B4A9060C2F80012C2F80833094C216008
:104CD000251D28609060C2F8083321602860BDE877
:104CE0007040FFF78DBF000004E5014000E0004088
:104CF00000F0004000F5004070B50A4C0D46206001
:104D0000FFF7C4FF2068FFF793FF00F077F8FFF785
:104D100077FF0FF001FE284600F0AAF8BDE87040CA
:104D200000F0C2B8A80000202DE9FC5F2F4E83469A
:104D30003068019001272E480EF0B2FADFF8B080FB
:104D400020B9002708F101000EF0C1FA294C002516
:104D50004FF0030901206060C4F80051C4F8045109
:104D6000C6F800B02060DFF890A017E0DAF8000085
:104D7000C00613D50E200FF0C0FDEFF31080009099
:104D800072B6C4F80493D4F8000120B9D4F8040131
:104D900008B9FEF721FF009800B962B6D4F8000107
:104DA00018B9D4F804010028E0D0D4F80401002890
:104DB000D0D137B10198306008F101000EF070FADF
:104DC00011E008F101000EF06BFA0028BAD1C4F826
:104DD0000893C4F80451C4F800510E200FF08DFD63
:104DE00003480EF074FA0020BDE8FC9F04E5004083
:104DF000ED03002000E0004010ED00E010B5084891
:104E00000EF061FA08B1242106E00548401C0EF0BE
:104E10005AFA002803D028211D20FFF755F910BDAC
:104E2000ED03002070B511490A68EAB100231D4660
:104E300001244A68521C4A600C2A00D34D600E7946
:104E400004FA06F20E6816420BD0EFF3108372B626
:104E50000C6894430C6003B962B649680160002095
:104E600070BD5B1C0C2BE4D3052070BDAC00002092
:104E7000024800210160416070470000AC00002042
:104E800010B5084C617809B10F2010BDFEF730FE57
:104E90002070FF2801D0002010BD76211F20FFF7D1
:104EA00013F90000B4000020014900204870704749
:104EB000B400002005498A8C824218BF7047002048
:104EC00081F822004FF6FF7088847047641E00202E
:104ED0000648074A818C5288914205D190F82200F9
:104EE00000281CBF0020704701207047641E00206E
:104EF000D80300200149488070470000D8030020F3
:104F00000848094A818C5288914209D14FF6FF71B5
:104F1000818410F8221F19B100210170012070470F
:104F200000207047641E0020D8030020074901F1CB
:104F3000220091F82220012A04BF0020704701229C
:104F4000027003480088888410467047641E002061
:104F5000D80300200749084B8A8C5B889A4206D107
:104F600091F82220002A1EBF016001207047002016
:104F700070470000641E0020D803002009498A8C75
:104F8000A2F57F43FF3B03D0002101600846704734
:104F900091F822200349012A1ABF01600120002054
:104FA00070470000641E002001490880704700001F
:104FB000D80300200549002081F822004FF6FF7039
:104FC000888403490880488070470000641E0020E0
:104FD000D80300200549002081F822004FF6FF7019
:104FE000888403490880488070470000641E0020C0
:104FF000D80300200A4A10B1012807D00EE05078EB
:1050000060B1D2F802000860D08804E0107828B1BE
:105010009068086090898880012070470020704760
:10502000EF030020094A012340B1012818BF70474F
:105030001370086890608888908170475370086882
:10504000C2F802008888D08070470000EF0300207B
:10505000064910B1012803D006E0487810B903E0F2
:10506000087808B10120704700207047EF03002046
:105070000149487470470000421600200148C0787A
:1050800070470000D0000020014800797047000000
:10509000D000002038B412494A7CF2B10A7C8DF865
:1050A00000209DF80020C2B100224FF0220CA1F593
:1050B000A9730C7C8DF800409DF8004054B10A742F
:1050C000427080F800C0D3F85A41D3F85E51446072
:1050D0008560EEE738BC0120704738BC002070477F
:1050E0004216002070B5084C0546207818B1BD2145
:1050F0002720FEF7E9FF05490020487401210448F4
:105100000FF07CFFE56270BDD00000204216002049
:10511000201600200149012088717047D00000202E
:105120002DE9F84FF54EDDF828C03478002C66D113
:10513000002A1CBF002BBCF1000F60D0C6F81CC0B9
:10514000C6E90E014FF00000C6E90523B071707189
:10515000F070B0703071DFF8A883B081F081D8F8BA
:10516000040000F1780504460CF05EFE0CF010F827
:1051700094F96E000CF0ECFE04F118000DF0D0F97B
:1051800020690DF0C1F995F823000DF027FA98F881
:10519000000041F64C59002836D00420FEF788FD67
:1051A000E068484528BF962003D201200DF076F92B
:1051B0004D200CF037FDD8F8040090F88401002849
:1051C00018BF0CF01FFD94F86B1001200CF00CFBC5
:1051D000002808BFBDE8F88FCA480CF0ADFC208855
:1051E000FFF7FCFB30632088FFF7E2FB706394F865
:1051F00077008DF800009DF8000060BB1BE04FF4C5
:105200008A712720FEF760FF0320FEF751FDE0685A
:10521000484528BF962003D201200DF03FF94D20CC
:105220000CF000FD94F86A1000200CF0DDFA002864
:10523000D2D1BDE8F88F206F68B1688EA988884206
:1052400009D1B4F8741001220844688694F87600F5
:10525000216FFDF7F3FA05F16801AB4891E80E10F4
:1052600000F5847787E80E10A96FC0F82111E96F67
:10527000C0F82511D8F80400012700F1780190F852
:1052800085C0BCF1240F1CBF897B24290CD04FF0B2
:1052900008024FF00203BCF11F0F18BFBCF1200F32
:1052A0002CD0222950D07EE098F80010002990F8E8
:1052B0006A1012D090F8A601002878D0082918BFEB
:1052C00004296DD0082818BF042869D0012918BF07
:1052D000012855D04FF0020169E090F82A0100281A
:1052E00065D0082918BF04295AD0082818BF0428F7
:1052F00056D0012918BF012842D0EBE7222923D03C
:1053000098F80010E9B390F86A1090F8C00110F016
:10531000040F18BF10460CD0082918BF04293FD02D
:10532000082818BF04283BD0012918BF012827D01E
:10533000D0E710F0010F18BF3846EDD110F0020F82
:1053400018BF1846E8D132E098F80010C9B190F8BB
:105350006A1090F8C0C190F863000CEA000010F0E9
:10536000040F18BF104610D0082918BF042917D001
:10537000082818BF042813D0012918BF0128A9D173
:1053800000E010E04FF0010111E010F0010F18BF34
:105390003846E9D110F0020F18BF1846E4D106E0F4
:1053A0004FF0080103E090F86A100429F8D0208F2C
:1053B00011F00C0F18BF4FF429600FF01FFCA18EE5
:1053C000814238BF0846307294F86B10E08F95F830
:1053D00013B0B4F83CA008291ED00FF00FFC00BF9A
:1053E000BBF1000F04BF001D80B2824538BF50469C
:1053F000C2B27272E97C002914BF0420002010445C
:10540000C0B2F071B4F854301B1D834208D240F290
:105410009F112720FEF758FE04210FF0EFFBDFE776
:1054200098F800303948C3B1E9B30776D5E91813C5
:10543000C0E9041394F86B00012808BF00233BD097
:10544000022808BF012337D0042808BF032333D024
:10545000082808BF02232FD018E0A97C21B30776C3
:10546000D5E91612C0E9041294F86A00012808BFB1
:10547000002310D0022808BF01230CD0042808BF45
:10548000032308D0082808BF022304D040F29A3131
:105490000620FEF719FEFB221C4900200BF0CEFE71
:1054A000E068484501E00DE002E028BF0BF02AFF6C
:1054B000012000F02BFC08E0144901200BF0BEFE97
:1054C0000BF020FF012000F0C7FB11480068032803
:1054D00018BF0B280CD00F4E304612F01EFCA888C7
:1054E00070802088308095F823003071BDE8F88FF7
:1054F00040F2C7112720FEF7E7FD0000D000002092
:1055000008010020EC5E0000F0140020F8150020D7
:1055100050150040421600202DE9F047060046488D
:10552000464D406800F17804686A90F8019018BF11
:10553000012E03D1696B0EF0B6F868706878002709
:105540004FF0010850B101282FD0022855D0032870
:1055500067D040F214412720FEF7B6FD012E12D08D
:10556000A86A002844D06989CA1C696A0DF041FF05
:10557000A86A686201224946686B0EF06BFD022E34
:1055800008BFBDE8F087D4E91802411C42F10000D1
:10559000C4E91810207A012801D1277201E084F8AB
:1055A0000880BDE8F0470AF035BF012E11D0A86A87
:1055B000F0B16989CA1C696A0DF01BFFA86A6862AC
:1055C00000224946686B0EF045FD022E08BFBDE87B
:1055D000F087D4E91802411C42F10000C4E9181018
:1055E000207A01280CBF277284F80880BDE8F08774
:1055F00040F25A412720FEF767FD012E06D0686B66
:105600000EF07FFF022E08BFBDE8F087D4E9180234
:10561000411C42F10000C4E91810207A0128BED1D3
:10562000BBE7012E08BFBDE8F087686B0EF069FF8D
:10563000BDE8F0470AF0EEBE08010020D0000020CF
:105640000248C089C0F3802070470000D0000020CD
:105650000448007800281CBF0C2070470020024935
:1056600048747047D00000204216002038B51A4810
:10567000017800F1380449B12178007849B1022855
:105680000ED040F2E3112720FEF71EFD00F09EFA37
:105690000BE0012809D040F2DF112720FEF714FDAE
:1056A0006068D0F818010CF04FFA606890F8771035
:1056B0008DF800109DF80010002918BF38BD016F4B
:1056C000002908BF38BD90F87600BDE838400022B8
:1056D0001146FDF7B3B80000D0000020012984BFB7
:1056E0000120704770B51B4C0546A169884700280A
:1056F0002CD0607950BB04F138000178002908BF34
:10570000012D01D021B31DBB1348027812F0100FF8
:1057100006D1E06A007810F0100F08BF012001D018
:105720004FF00000A36A23B9638913B112F0100F80
:105730000CD000291CBF217B11F0020F03D0216A7D
:10574000C978022904D0A189084301D0012070BD85
:10575000002070BDD0000020E00000202DE9F35FA4
:10576000D34E8346A6F138057068002700F178080B
:105770002878B946022804D040F2B9412720FEF724
:10578000A3FCA87B10F0400F07D140206A690021DC
:105790009047E88940F04000E88198F813004FF006
:1057A000010ABBF1000F00F0E9800BF0DDFD0BF00A
:1057B000BFFD98B998F8130080B1686A417869B163
:1057C000007898F80810C0F3C000884206D185F828
:1057D00002A002B0BDE8F05F00F0F8B9686A417855
:1057E0006981002908BFAF6203D0686B0EF056FED6
:1057F000A862E88940F48070E881686A98F8071028
:105800000078C0F38000884246D0706800F17804C8
:1058100090F87E0000283BD002280DD1286B0EF0B6
:10582000F2FB00284CD0D4E91610491C40F10000CE
:10583000C4E916100AF0EEFDA771307800281CBFED
:10584000E078002809D0E770AA89394642F01002B2
:10585000AA816A694FF010009047A07890B1A770B4
:10586000FFF74EFB88B3AA89082042F00802AA81FC
:105870006A6900219047D4E91602411C42F10000F8
:10588000C4E91610E07901280CBFE77184F807A07D
:10589000E88940F48060E881696A98F808300878FF
:1058A000C0F3C0029A423BD1726800F0030002F1DB
:1058B0007804012818BF02281AD003280AD056E01D
:1058C00040F2AF312720FEF7FFFB40F2C73127201F
:1058D000FEF7FAFB84F801A0EA89504642F4006220
:1058E000EA81AA8942F00102AA816A6990473EE0F2
:1058F0004878E0B3E98941F40061E981A96A79B1A6
:10590000FB2809D8A879002808BFD14608D0202054
:105910006A690021904703E0687940F010006871DF
:1059200098F81200002841D03078746800280CBF25
:10593000012100215F480176D8E91612C0E904125E
:1059400094F86A00012808BF002323D0022808BF6A
:1059500001231FD0042808BF03231BD0082808BF39
:10596000022317D040F29A310620FEF7ADFB207AD1
:1059700001280CBF277284F808A0D1E7002818BFBF
:105980000BF0ECFCE878401CE870E88940F400700B
:10599000E881C5E7FB22474900200BF04FFCE06897
:1059A00041F64C51884228BF0BF0ACFC424C0198A8
:1059B00020B9E9780120FFF791FEA8B30CF074FD3F
:1059C000B9F1000F1CBF0020FFF7A6FDBBF1000FCF
:1059D00022D0EF706079401C6071746804F1780522
:1059E000294620460FF001FA94F82610012916D115
:1059F000A8B13078002870680CBF00F5C67000F5BB
:105A0000017021884180697A0171A97A417180F819
:105A100000A00AF0FFFC02E0A079401CA07102B0D7
:105A2000BDE8F05F00F0D2B8B9F1000F1CBF012053
:105A3000FFF772FD002000F069F9B9F1000F1CBFFB
:105A40000220FFF769FDBBF1000F2BD0EF706079EA
:105A5000401C6071746804F17805294620460FF0F7
:105A6000C4F994F8261001291CBF02B0BDE8F09FCC
:105A7000002804BF02B0BDE8F09F307800287068AD
:105A80000CBF00F5C67000F5017021884180697A6D
:105A90000171A97A417180F800A002B0BDE8F05F01
:105AA0000AF0B8BCA079401CA07102B0BDE8F09F1C
:105AB00008010020F8150020421600202DE9F047CB
:105AC000404E8046A6F1380570680F4600F1780414
:105AD0002878012804D040F269412720FEF7F4FA23
