:1010000000590020897A000061AE0200B97A000020
:10101000B97A0000B97A0000B97A00000000000037
:10102000000000000000000000000000D577000074
:10103000B97A0000000000007D77000029700000F0
:10104000497A000043E20200497A0000497A000030
:10105000497A0000497A0000497A0000497A000084
:10106000497A0000497A0000497A0000497A000074
:10107000497A0000497A0000497A0000497A000064
:10108000497A0000497A0000497A0000497A000054
:10109000497A0000497A0000497A0000497A000044
:1010A000497A0000497A0000497A0000497A000034
:1010B000497A0000497A0000497A0000497A000024
:1010C000497A0000497A0000497A0000497A000014
:1010D000497A0000497A0000497A0000497A000004
:1010E000497A0000497A0000497A0000497A0000F4
:1010F000497A0000497A0000497A0000497A0000E4
:1011000001F0FF01102A2BDB10F0070F08D010F8B8
:10111000013B013A8B422DD010F0070F42B3F6D1BC
:10112000F0B441EA012141EA014122F007047FF0D5
:1011300000070023F0E80256083C85EA010586EA2C
:10114000010685FA47F5A3FA87F586FA47F6A5FA68
:1011500087F68EB9EED1F0BC01F0FF0102F0070274
:1011600032B110F8013B013A83EA010313B1F8D11F
:101170000020704701387047002D06BF3546033800
:10118000073815F0010F07D1013015F4807F02BF39
:10119000013015F4C03F0130F0BC0138704700BF8A
:1011A00081F0004102E000BF83F0004330B54FEA18
:1011B00041044FEA430594EA050F08BF90EA020F85
:1011C0001FBF54EA000C55EA020C7FEA645C7FEA18
:1011D000655C00F0E2804FEA5454D4EB5555B8BF3B
:1011E0006D420CDD2C4480EA020281EA030382EAAC
:1011F000000083EA010180EA020281EA0303362D3E
:1012000088BF30BD11F0004F4FEA01314FF4801C10
:101210004CEA113102D0404261EB410113F0004F22
:101220004FEA03334CEA133302D0524263EB4303D9
:1012300094EA050F00F0A780A4F10104D5F1200E77
:101240000DDB02FA0EFC22FA05F2801841F10001D2
:1012500003FA0EF2801843FA05F359410EE0A5F1A6
:1012600020050EF1200E012A03FA0EFC28BF4CF0D7
:10127000020C43FA05F3C01851EBE37101F000458D
:1012800007D54FF0000EDCF1000C7EEB00006EEB9A
:101290000101B1F5801F1BD3B1F5001F0CD3490824
:1012A0005FEA30004FEA3C0C04F101044FEA44527B
:1012B00012F5800F80F09A80BCF1004F08BF5FEA02
:1012C000500C50F1000041EB045141EA050130BDE2
:1012D0005FEA4C0C404141EB010111F4801FA4F185
:1012E0000104E9D191F0000F04BF01460020B1FADA
:1012F00081F308BF2033A3F10B03B3F120020CDA12
:101300000C3208DD02F1140CC2F10C0201FA0CF0EF
:1013100021FA02F10CE002F11402D8BFC2F1200C54
:1013200001FA02F120FA0CFCDCBF41EA0C0190400A
:10133000E41AA2BF01EB0451294330BD6FEA040453
:101340001F3C1CDA0C340EDC04F11404C4F120023E
:1013500020FA04F001FA02F340EA030021FA04F350
:1013600045EA030130BDC4F10C04C4F1200220FAA7
:1013700002F001FA04F340EA0300294630BD21FAE5
:1013800004F0294630BD94F0000F83F4801306BFAB
:1013900081F480110134013D4EE77FEA645C18BF9F
:1013A0007FEA655C29D094EA050F08BF90EA020F36
:1013B00005D054EA000C04BF1946104630BD91EA2E
:1013C000030F1EBF0021002030BD5FEA545C05D131
:1013D0004000494128BF41F0004130BD14F5800470
:1013E0003CBF01F5801130BD01F0004545F0FE41E4
:1013F00041F470014FF0000030BD7FEA645C1ABF19
:10140000194610467FEA655C1CBF0B46024650EA4F
:10141000013406BF52EA033591EA030F41F400217B
:1014200030BD00BF90F0000F04BF0021704730B501
:101430004FF4806404F132044FF000054FF00001D6
:1014400050E700BF90F0000F04BF0021704730B597
:101450004FF4806404F1320410F0004548BF40426C
:101460004FF000013EE700BF42004FEAE2014FEAC1
:1014700031014FEA02701FBF12F07F4393F07F4F9C
:1014800081F06051704732F07F4208BF704793F09F
:101490007F4F04BF41F40021704730B54FF46074B2
:1014A00001F0004521F000411CE700BF50EA0102B5
:1014B00008BF704730B54FF000050AE050EA01025E
:1014C00008BF704730B511F0004502D5404261EBCE
:1014D00041014FF4806404F132045FEA915C3FF40F
:1014E000D8AE4FF003025FEADC0C18BF03325FEAAC
:1014F000DC0C18BF033202EBDC02C2F1200300FA5D
:1015000003FC20FA02F001FA03FE40EA0E0021FA81
:1015100002F11444BDE600BF70B54FF0FF0C4CF46F
:10152000E06C1CEA11541DBF1CEA135594EA0C0F21
:1015300095EA0C0F00F0DEF82C4481EA030621EA5C
:101540004C5123EA4C5350EA013518BF52EA033597
:1015500041F4801143F4801338D0A0FB02CE4FF049
:101560000005E1FB02E506F00042E0FB03E54FF079
:101570000006E1FB03569CF0000F18BF4EF0010E71
:10158000A4F1FF04B6F5007F64F5407404D25FEA6D
:101590004E0E6D4146EB060642EAC62141EA555120
:1015A0004FEAC52040EA5E504FEACE2EB4F1FD0C62
:1015B00088BFBCF5E06F1ED8BEF1004F08BF5FEAE0
:1015C000500E50F1000041EB045170BD06F0004692
:1015D00046EA010140EA020081EA0301B4EB5C043F
:1015E000C2BFD4EB0C0541EA045170BD41F4801137
:1015F0004FF0000E013C00F3AB8014F1360FDEBF5C
:10160000002001F0004170BDC4F10004203C35DA37
:101610000C341BDC04F11404C4F1200500FA05F3BA
:1016200020FA04F001FA05F240EA020001F000425B
:1016300021F0004110EBD37021FA04F642EB0601D1
:101640005EEA430E08BF20EAD37070BDC4F10C04FB
:10165000C4F1200500FA04F320FA05F001FA04F2BF
:1016600040EA020001F0004110EBD37041F10001AB
:101670005EEA430E08BF20EAD37070BDC4F12005B6
:1016800000FA05F24EEA020E20FA04F301FA05F21E
:1016900043EA020321FA04F001F0004121FA04F2C6
:1016A00020EA020000EBD3705EEA430E08BF20EA96
:1016B000D37070BD94F0000F0FD101F000464000D0
:1016C00041EB010111F4801F08BF013CF7D041EA52
:1016D000060195F0000F18BF704703F00046520056
:1016E00043EB030313F4801F08BF013DF7D043EA27
:1016F0000603704794EA0C0F0CEA135518BF95EADD
:101700000C0F0CD050EA410618BF52EA4306D1D163
:1017100081EA030101F000414FF0000070BD50EA82
:10172000410606BF1046194652EA430619D094EA0C
:101730000C0F02D150EA013613D195EA0C0F05D1F6
:1017400052EA03361CBF104619460AD181EA03014A
:1017500001F0004141F0FE4141F470014FF0000002
:1017600070BD41F0FE4141F4780170BD70B54FF09D
:10177000FF0C4CF4E06C1CEA11541DBF1CEA13551D
:1017800094EA0C0F95EA0C0F00F0A7F8A4EB0504FF
:1017900081EA030E52EA03354FEA013100F08880F6
:1017A0004FEA03334FF0805545EA131343EA1263BF
:1017B0004FEA022245EA111545EA10654FEA002674
:1017C0000EF000419D4208BF964244F1FD0404F52D
:1017D000407402D25B084FEA3202B61A65EB030589
:1017E0005B084FEA32024FF480104FF4002CB6EB46
:1017F000020E75EB030E22BFB61A754640EA0C00C6
:101800005B084FEA3202B6EB020E75EB030E22BF05
:10181000B61A754640EA5C005B084FEA3202B6EB46
:10182000020E75EB030E22BFB61A754640EA9C0005
:101830005B084FEA3202B6EB020E75EB030E22BFD5
:10184000B61A754640EADC0055EA060E18D04FEA93
:10185000051545EA16754FEA06164FEAC30343EA33
:1018600052734FEAC2025FEA1C1CC0D111F4801F00
:101870000BD141EA00014FF000004FF0004CB6E7F9
:1018800011F4801F04BF01430020B4F1FD0C88BF98
:10189000BCF5E06F3FF6AFAEB5EB030C04BFB6EBA3
:1018A000020C5FEA500C50F1000041EB045170BD96
:1018B0000EF0004E4EEA113114EB5C04C2BFD4EBC3
:1018C0000C0541EA045170BD41F480114FF0000E47
:1018D000013C90E645EA060E8DE60CEA135594EAC3
:1018E0000C0F08BF95EA0C0F3FF43BAF94EA0C0FC6
:1018F0000AD150EA01347FF434AF95EA0C0F7FF43B
:1019000025AF104619462CE795EA0C0F06D152EA8E
:1019100003353FF4FDAE1046194622E750EA410672
:1019200018BF52EA43067FF4C5AE50EA41047FF483
:101930000DAF52EA43057FF4EBAE12E74FF0FF3CE8
:1019400006E000BF4FF0010C02E000BF4FF0010CB9
:101950004DF804CD4FEA410C7FEA6C5C4FEA430C32
:1019600018BF7FEA6C5C1BD001B050EA410C0CBF81
:1019700052EA430C91EA030F02BF90EA020F0020E3
:10198000704710F1000F91EA030F58BF994208BF4A
:1019900090422CBFD8176FEAE37040F00100704707
:1019A0004FEA410C7FEA6C5C02D150EA013C07D15E
:1019B0004FEA430C7FEA6C5CD6D152EA033CD3D0A9
:1019C0005DF8040B704700BF8446104662468C46A3
:1019D0001946634600E000BF01B5FFF7B7FF0028D6
:1019E00048BF10F1000F01BD4DF808EDFFF7F4FFFF
:1019F0000CBF012000205DF808FB00BF4DF808ED8A
:101A0000FFF7EAFF34BF012000205DF808FB00BFAC
:101A10004DF808EDFFF7E0FF94BF012000205DF8CE
:101A200008FB00BF4DF808EDFFF7CEFF94BF012083
:101A300000205DF808FB00BF4DF808EDFFF7C4FF7C
:101A400034BF012000205DF808FB00BF4FEA4102CF
:101A500012F5001215D211D56FF47873B3EB625200
:101A600012D94FEAC12343F0004343EA505311F027
:101A7000004F23FA02F018BF404270474FF00000B9
:101A8000704750EA013005D111F0004008BF6FF0F7
:101A9000004070474FF00000704700BF4A0011D26D
:101AA00012F5001211D20DD56FF47873B3EB6252B8
:101AB0000ED44FEAC12343F0004343EA505323FAC4
:101AC00002F070474FF00000704750EA013002D139
:101AD0004FF0FF3070474FF0000070477BB972B98C
:101AE0000029BEBF00204FF0004106E008BF0028DB
:101AF0001CBF6FF000414FF0FF3000F0D3B9ADF1E3
:101B0000080C6DE904CE002909DB002B1ADB00F07C
:101B100061F8DDF804E0DDE9022304B070474042DB
:101B200061EB4101002B1BDB00F054F8DDF804E011
:101B3000DDE9022304B0404261EB4101524263EB14
:101B400043037047524263EB430300F043F8DDF870
:101B500004E0DDE9022304B0404261EB410170473B
:101B6000524263EB430300F035F8DDF804E0DDE9B1
:101B7000022304B0524263EB4303704753B94AB99E
:101B8000002908BF00281CBF4FF0FF314FF0FF3085
:101B900000F088B9ADF1080C6DE904CE00F01AF838
:101BA000DDF804E0DDE9022304B07047430803F0E8
:101BB0005533C01A830803F0333300F03330184430
:101BC00000EB101000F00F3000EB002000EB0040A5
:101BD000000E70472DE9F047089E04468846002B0A
:101BE00040F085808A42154648D9B2FA82F24AB15D
:101BF000C2F1200701FA02F320FA07F7954047EAFD
:101C0000030894404FEA154E230CB8FBFEF71FFA69
:101C100085FC0EFB178843EA084307FB0CF1994249
:101C200009D9EB1807F1FF3080F0E380994240F2C8
:101C3000E080023F2B445B1AA4B2B3FBFEF00EFB24
:101C4000103344EA034400FB0CFCA44509D92C19C9
:101C500000F1FF3380F0CB80A44540F2C880023809
:101C60002C4440EA0740A4EB0C0400271EB1D440EA
:101C70000023C6E900433946BDE8F087002A53D067
:101C8000B2FA82F2002A40F0B680491B4FEA154EA4
:101C90001FFA85F80127B1FBFEFC230C0EFB1C117B
:101CA00043EA014308FB0CF1994207D9EB180CF108
:101CB000FF3002D2994200F2EC808446591AA3B256
:101CC000B1FBFEF00EFB101443EA044408FB00F8DD
:101CD000A04507D92C1900F1FF3302D2A04500F22C
:101CE000DC801846A4EB080440EA0C40BEE78B42B7
:101CF00008D9002E78D00027C6E9000138463946B9
:101D0000BDE8F087B3FA83F77FB98B4202D38242F2
:101D100000F2BD80841A61EB030301209846002E77
:101D2000A9D0C6E90048A6E7FFDEC7F12005BB4001
:101D300022FA05FC4CEA030C01FA07F420FA05F834
:101D400021FA05F34FEA1C4E48EA0404B3FBFEF9FE
:101D5000210C0EFB19331FFA8CF841EA034309FBEF
:101D600008FA9A4502FA07F200FA07F10BD91CEBC0
:101D7000030309F1FF3080F088809A4540F28580A6
:101D8000A9F102096344A3EB0A03A4B2B3FBFEF07A
:101D90000EFB103344EA034400FB08F8A04508D9C1
:101DA0001CEB040400F1FF336BD2A04569D9023863
:101DB000644440EA0940A4EB0804A0FB02894C45B6
:101DC000C6464B4654D351D0002E69D0B1EB0E021B
:101DD00064EB030404FA05F522FA07F3FC401D4303
:101DE000C6E90054002746E73746304643E7184621
:101DF00037E707461FE7C2F1200320FA03F79540B3
:101E000001FA02F021FA03F34FEA154E3843010CB0
:101E1000B3FBFEF71FFA85F80EFB173341EA0341C7
:101E200007FB08F38B4204FA02F407D9691807F19B
:101E3000FF3C28D28B4226D9023F2944CB1A81B2DB
:101E4000B3FBFEF00EFB103341EA034100FB08F345
:101E50008B4207D9691800F1FF3C10D28B420ED992
:101E600002382944C91A40EA074714E74145ABD272
:101E7000B8EB020E69EB0C0201381346A4E760468A
:101E8000F0E7184695E76746D8E781467BE738468E
:101E900045E7ACF1020C2B4410E702382C4421E753
:101EA0003746E8E6704700BF4FEA410C7FEA6C5CBA
:101EB00002D150EA013C0AD14FEA430C7FEA6C5C44
:101EC00002D152EA033C02D14FF0000070474FF0BC
:101ED0000100704710F8012B11F8013B012A28BFBF
:101EE0009A42F7D0D01A7047034613F8012B002A04
:101EF000FBD1181A013870472DE9F843324D0746D7
:101F000028680E4620B93148BDE8F84326F08ABB60
:101F10002F4C236813B94FB9002E2FD12168002907
:101F20004CD02C48BDE8F84326F07CBB83683821B0
:101F3000DB6898472060286883683A461B690D2152
:101F4000984720607868FFF77DFA1DA3D3E9002346
:101F5000FFF70CFC804638688946FFF773FA0246A3
:101F60000B4640464946FFF721F902460B461A4800
:101F700026F058FB2368002BCED0CFE72868836873
:101F800032461B691021984720607068FFF75AFAA3
:101F90000BA3D3E90023FFF7E9FB804630688946AD
:101FA000FFF750FA02460B4640464946FFF7FEF857
:101FB00002460B46094826F035FBAFE7BDE8F8833B
:101FC0000000000080842E41781E00206A1E03005D
:101FD0007C1E0020AD1E0300871E0300991E030017
:101FE0002DE9F8438946D0E90A71066B164D8C1924
:101FF0003034A742904612A3D3E9002315D8A1FBA1
:102000000501FFF7BBFD20F07F40C9F80000E01B91
:102010000BA3D3E90023A0FB0501FFF7AFFD20F0E0
:102020007F40C8F80000BDE8F883A7FB0501FFF773
:10203000A5FD20F07F40C9F8000006F13000E7E779
:102040008D49FD1A0700000000CA9A3B00000000FD
:102050002DE9F04F8DB030B919F026F8064630461C
:102060000DB0BDE8F08FCA4B93F84E6016F0010634
:102070001D4601D00C26F2E793F82D2003EB8202D7
:10208000176B93F8392003EB8203D3F83C8047B1F8
:1020900038462BF077FE3B785A0617D440462BF093
:1020A00071FE3B7813F00E0F40F098806B6A002BA6
:1020B000E0D118F063FA814630B118F06BFA82462D
:1020C00058B9484618F060FA0726C8E706212BF0F1
:1020D00026FB0028E2D11226C1E719F08DFA04464A
:1020E00018B9504618F05CFAEBE74FF6FF7383859A
:1020F000C36E00F11C0B13B900F16403C36604F155
:10210000600204F15C01E06E2BF014FB94F8722085
:10211000C4F8CC9022F0070284F8722094F83D2095
:1021200002F03F0262F07F0284F83D2094F84020E4
:10213000002363F3000284F840200622A4F87420F0
:1021400094F88020E36622F0030284F880208E2237
:10215000C4E92E2394F8C220A4F8703022F00302C0
:1021600084F83F3063866363C4E913336365A4F87E
:102170007830A4F87C30A4F88C3084F88E30C4F821
:102180009C30A4F8A030A4F8B430A4F8C03084F88F
:10219000C22084F8CB30A4F8EC3094F8EE20C5F8D7
:1021A00024B0C5E9119A63F3041284F8EE2094F880
:1021B0002020C4F8143163F30002C4E94833C4E9B1
:1021C0004633C4E90533E46184F820201AF020FF87
:1021D00020B16F4818F0AEFD032640E795F828308F
:1021E0000121C3F342030DF12B008DF82B302BF0AE
:1021F000CDFA002800F0BF803A7802F00F02022AE0
:1022000000F1FF3472D17A781032D200504300F5D9
:10221000AA72642000FB042095F820305D49ED612E
:10222000002464F3000385F8203031232B60C5E9D6
:10223000054455A3D3E900236C60AC60A0FB010109
:10224000FFF79CFCE860B5F84C802BF007FD814659
:10225000B8F1000F05D13C7804F00F04631E5C4216
:102260005C4195F82820EB68DFF83CB164F300028C
:1022700012F001044FF0020A85F828200BAF464AFD
:10228000CDF82CA053D00020CDE905250493CDE94D
:1022900000030321CDE907B7CDE902004B465246C2
:1022A0002BF0A9FC394618F007FA002863D13B4A05
:1022B00006954AF2D833CDE904020093CDE907B779
:1022C000CDE9020001904B4601220321CDF82CA05C
:1022D0002BF091FC394618F0EFF900284BD195F816
:1022E0004E3043F0010385F84E30B8E6012A16D08F
:1022F00098F801301033DB005AB97A78103203F5C0
:102300002773D2009833134402F59A7204FB02300B
:1023100082E7062A07D1797801F11002EFE7162249
:102320004FF42D73EDE710224FF4AA73E9E71C492F
:1023300003F2471008601B48CDE90432CDE9065B83
:102340004FF6FF731FFA88FBCDE90871CDE9024310
:10235000ABFB0001912303FB0B110BA3D3E900237B
:10236000FFF70CFC4B46CDE90040524603212046C6
:1023700016F0E2FCAEE76B6A002B3FF47BAE04483C
:1023800018F0D8FC76E600BF8D49FD1A0700000062
:10239000B433002000CA9A3B45AC010001AF0100F4
:1023A00004340020002AE784E19F010000000000BF
:1023B0002DE9F04F90F82430414F044690F8380052
:1023C00003F0F903C0F3400060F386138DB084F886
:1023D000243004F1250116F07FFD94F82030B4F884
:1023E0003280E461002565F30003A8FB070184F84F
:1023F0002030912303FB0811C4E905552EA3D3E92E
:102400000023FFF7BBFB31232360636B6560093357
:10241000A0F13102934232BFE360E5606563A560DD
:10242000284D06462BF01AFC02230B93651B3C2318
:10243000B5FBF3F5244BB4F832B0CDE90643234B9A
:102440000593BA46E368049307469123ABFB0A0160
:102450004FF000080DF12C0903FB0B1116A3D3E973
:102460000023CDF82090CDF80C80FFF787FB1046B5
:1024700019464FF47A720023FFF780FB0435EDB262
:10248000CDE901600321CDF800803B462A46404655
:102490002BF0B1FB494618F00FF940B994F83830E9
:1024A00043F0010384F838300DB0BDE8F08F0C2004
:1024B000FAE700BFAFF300808D49FD1A0700000066
:1024C000002AE78428340020E19F01009DB201002A
:1024D000F8B50646002015461F4618F04DFF044685
:1024E000F8B190F8382090F82430418667F3420222
:1024F00080F838209DF8182066F3C71362F3C403F0
:1025000080F824300A48ADB2A5FB0001912303FBFB
:10251000051105A3D3E90023FFF730FB606300201A
:10252000F8BD0C20FCE700BF8D49FD1A0700000034
:10253000002AE784000000002DE9F04F934690F850
:102540008C3090F88D2093428DB0044688460BD194
:1025500090F8A12090F8A010914224D00122023BD3
:1025600080F88E2080F88D3094F88C2094F88D308F
:10257000D31A03F00303022B40F05D8294F88E30EF
:10258000012B00F00682022B00F010844FF47872C9
:10259000C649C74826F00CFE404080F311884FF032
:1025A000030002DF47E290F8B53090F8B4108B4298
:1025B0005CD05B1ADE07D7D590F8805015F0010586
:1025C00027D018F01BF801460028CDD094F8B4307D
:1025D00084F8B530A38DC38003230371037F43F0D8
:1025E0000303037709234377C3770023036243621E
:1025F000D4F8BC3080F82030C3F307221B0C80F8DD
:10260000212080F82230086817F0D0FF17F0D8FF9B
:10261000AAE7A8482BF04AF801460028A4D094F86D
:10262000B530013B84F8B5308E23C4F8B830037957
:1026300043F0030303710923437194F93D3085602E
:10264000002BACBF08230E23C560C371D4F8B8308B
:102650000372C3F307221B0C4272837220462BF0D5
:1026600082FCB4F87A30A4F87C307DE790F8C13071
:1026700090F8C0108B425ED05B1ADD077FF574AF17
:1026800090F8C23013F0010523D18A482BF00EF8E0
:10269000014600283FF468AF94F8C130013B84F84C
:1026A000C13094F8C23043F0010384F8C23003799A
:1026B000857243F003030371062343710C23C37136
:1026C0000B230372592343724FF0FF33C37203731A
:1026D000C4E7980722D517F091FF014600283FF480
:1026E00043AF94F8C03084F8C130A38DC380032376
:1026F0000371037F43F003030377062343770C231F
:10270000C37794F8C33080F82030B4F8C430A0F810
:102710002130B4F8C630A0F8233074E740F67A329E
:102720006249634826F044FD404080F311884FF031
:10273000030002DF18E790F8ED1090F8EC309942B2
:102740003FF412AF5C4D2B6813B198427FF40CAF8D
:1027500094F8EE3003F00703052B00F2178101A176
:1027600051F823F07D270000F727000043290000DF
:102770006925000069250000692500004D48E68EA6
:10278000678E2AF093FF014600283FF4EDAE94F8DF
:10279000EE30042262F3020384F8EE30037943F052
:1027A00003030371182343710F23C371B4F8F0308E
:1027B0000381B4F8F2304381B4F8F4308381B4F883
:1027C000F630C3813E4400230374C37403755E4432
:1027D0004FF0FF33A0F8116043758375C37503761E
:1027E00043768376C37603774377837720462BF04F
:1027F000BAFB2C6035E794F8EF60EEB12D482AF073
:1028000055FF014600283FF4AFAE037943F00303C0
:1028100003711123C371032343710F23037294F8CF
:10282000EF30437220462BF09EFB94F8EC3084F896
:10283000ED3000232B6097E694F93D30002B3DDB13
:1028400094F8EE30C4F8AC60052161F3020394F80B
:10285000F81084F8EE30012384F8B03011B3B4F8E6
:10286000F030B3FBF1F3013313FB01F39BB2A4F897
:10287000A430B4F8F430A4F8A630B4F8F630A4F8D4
:10288000A83094F8A230022161F3010394F8EE100D
:10289000C1F3C00161F38203013A84F8A23084F8E5
:1028A000A12061E6B4F8F230E1E700BFD97303007C
:1028B0009220030028360020A435002063482AF027
:1028C000F5FE014600283FF44FAE037943F00303C1
:1028D0000371182343711023C371B4F8F0300381DE
:1028E000B4F8F2304381B4F8F4308381B4F8F630B0
:1028F000C38194F8F8300374B4F8FA30A0F81130BA
:10290000B4F8FC30A0F81330B4F8FE30A0F815305D
:10291000B4F80031A0F81730B4F80231A0F819303B
:10292000B4F80431A0F81B30B4F80631A0F81D301B
:1029300020462BF018FB94F8EC3084F8ED302E6034
:1029400012E617F05BFE014600283FF40DAE94F846
:10295000EE20032363F3020284F8EE20A28D0371BC
:10296000037FC28043F003030377182343770F23C9
:10297000C377B4F8F0300384B4F8F2304384B4F889
:10298000F4308384B4F8F630C3843CE640F68742E2
:10299000C6E62F4B196801B91C60618EE68E0E44A5
:1029A00094F8A2105E4411F00300B6B252D0012098
:1029B00017F00CFE074600283DD024482AF076FE8A
:1029C0000546C0B317F01AFE3B68D4F89C205A6045
:1029D00094F8A230C4F89C706FF3010384F8A2301D
:1029E000238E1E442B790636B6B243F00303A4F8B7
:1029F00090602B710C236B710023EB7194F8B03055
:102A00002B7240F2E242D4F8AC30B3FBF2F3A5F8FB
:102A10000930B4F8A430A5F80B30B4F8A630A5F806
:102A20000D30B4F8A830A5F80F30A5F8116029468C
:102A300020462BF098FA94F8C92094F8C8309A42AE
:102A400040F0038200200DB0BDE8F08F2836002052
:102A5000A4350020B4F890100A91771ABFB2390457
:102A6000E9D494F8A01084F8A11084F88D2094F88B
:102A7000EC1094F8ED208A4209D094F8EE2002F090
:102A80000702052A04BF84F8ED10A4F87C001A6838
:102A9000D4F89C50944204BF00221A600DB12B68F8
:102AA0005BB940F60E12B849B84826F081FB4040A9
:102AB00080F311884FF0030002DF2868B4F8A420E7
:102AC0004368C4F89C30E38DB4F8A6C0B4F8A810ED
:102AD0009A4213D1238E634510D140F2E24303FBA7
:102AE00002FE42F2107303FB01E3013BB3FBFEF372
:102AF000B4F876E09BB29E4500F02081A38DEB8078
:102B000015232B7100232B77EA83A5F820C0698455
:102B1000294617F04BFD17F053FD2368002B0ADA06
:102B2000D4E9012023F0004390422CBF804490441C
:102B30002360A8EB0308E38DB4F8A450DFF868A283
:102B400013FB07F39BB2B3FBF5F11FFA81F915FBF9
:102B500009F292B2934240F2E24080F0F280D31A3E
:102B60005843A0FB0A0186A3D3E90023FFF706F828
:102B700020F07F408044638E9B440A9B9E1B94F907
:102B80003D304E445E44002B40F2E24B66860BFB28
:102B900005F580F2E480E26C636C03FB1727E764C1
:102BA0002BF0BDFB064694F88000C0F382001AF0BB
:102BB0007DFA94F8B02006440BFB02F262656E4386
:102BC0000022C4F8882006F57426E26C704806F2EC
:102BD0003F266B08B6FBF0F606FB09F0963B024475
:102BE000A3649A4294BFE264E364666464A3D3E995
:102BF0000023A0FB0A01FEF7C1FFA8EB0008D4F8F0
:102C0000AC00B0FBFBF00BFB00F05DA3D3E90023AD
:102C1000A0FB0A01FEF7B2FFA5EB060920F07F47F3
:102C2000B4F8A430E385B4F8A6302386B4F8A8300D
:102C300042F2107202FB0353013BB3FBF5F3A4F81D
:102C40007630544B2B44B3FBF5F594F8A230A4F83E
:102C50007A505A0744BF0023A4F87830022101209B
:102C60001BF0D4FF002202210646012015F0FCFAD9
:102C7000204618F0CDFC0530C5B2474B00942A46DB
:102C80000121002016F0EEF830F002030BD040F6E0
:102C9000B7123D493D4826F08BFA404080F3118839
:102CA0004FF0030002DFA9FB0A23CDE90A23DDE987
:102CB0000A0133A3D3E90023FEF760FF374B0894E2
:102CC000CDE90643364B0593E36804934FF6FE7354
:102CD0000393344B0A9920F07F44A4FB03ABB1EB80
:102CE0000A004FF007030B9903FB04BB61EB0B01D8
:102CF0004FF47A720023FEF741FF4346CDE90140CD
:102D000000972A46012100202AF075FF30F00203C7
:102D10000BD040F6D1121C491C4826F049FA40401D
:102D200080F311884FF0030002DF26B10122022157
:102D3000104615F099FA6FF08B0084E601232B7191
:102D4000E6E605FB113189B248430DA3D3E9002320
:102D5000A0FB0A01FEF712FFA8EB00080BE740F604
:102D600087120949094826F023FA404080F3118868
:102D70004FF0030002DF0027A94651E7AFF30080C0
:102D80008D49FD1A07000000D9730300922003004B
:102D900040420F00FF596202B9B401006DB4010056
:102DA00081C701008D49FD1A00CA9A3BE38E618EEE
:102DB0000B449B4494F89030DB071FFA8BFB25D51E
:102DC00035482AF073FC014600283FF434AE94F8ED
:102DD00090306FF3000384F89030238E9B44037986
:102DE0000BF1060B43F00303A4F896B0037108231C
:102DF00043710123C371234653F8910F88601B79F7
:102E00000B73B4F89630A1F80D3011E6B4F8963093
:102E1000ABEB030B1BF4004F7FF40DAE234684F89D
:102E20008D2053F8912FA26304F138001B790371B0
:102E300005212AF0ABFC94F83D3060F3050384F8DB
:102E40003D30012384F82831F5E513482AF02EFCA3
:102E5000014680B194F8C83084F8C930037943F052
:102E60000303037102234371C37194F8CA300372E0
:102E700020462BF078F8B4F87C0000287FF4E2AD0F
:102E8000B4F87630012B02D9A4F87C30DAE50133AE
:102E9000A4F87C30D7E500BF2836002000000000F1
:102EA0002DE9F04F1D46136891460A46D3F800A05D
:102EB0002B460C4632F82E1F53F80C6BA9819278E2
:102EC0009A70D4F82A30AB602346834653F83A2FE1
:102ED000EA6105F11C001B79037191B005212AF00C
:102EE00055FC95F8213000F03F0060F30503012800
:102EF00085F8213040F22B8194F83F30C3F304036E
:102F000085F82230053B03F0FF030B2B00F21F81F5
:102F1000D9F800304FF00008C3F80880A78E6F8200
:102F200094F8372094F8363043EA0223AB82638E5C
:102F30000A9340F2E2435F4394F83F3096F88020D2
:102F40005B0963F3840286F880202BF0E8F90D908A
:102F500096F88000C0F382001AF0A8F80D9B184480
:102F6000784300F574207E4B00F23F20B0FBF3F075
:102F70007B08963BEB6294F83130A86240F2E24263
:102F80005343EB63228F42F2107303FB0273013B46
:102F9000B3FBF7F3A6F87630724B3B44B3FBF7F381
:102FA000A6F87A30AB68C6F884302146237F51F802
:102FB0001E0F0E908988ADF83C10C3F38013A377E1
:102FC0004FF48071BDF83C30A183C4F81F00A4F811
:102FD00023306B8AE384AB8A238596F88030628540
:102FE000C3F3820384F82C30304618F011FB2146DD
:102FF0002882E080584617F0D9FA17F0E1FA4146E6
:1030000040462BF060F9DFF878B1C6F8048004463A
:10301000312300F252403360C6F808804EA3D3E952
:103020000023A0FB0B01FEF7A9FDAB6A0A99FF1A6A
:10303000D9F80C3040F2E24202FB013320F07F402D
:1030400003F2863342460221F06001201C1B15F07A
:103050000BF9504618F006F8821C434BCDF800A03F
:10306000D2B20121404615F0FDFE514619F06EFB2B
:103070009AF8283013F0010F5D4607D00122CDF8F1
:10308000008043461146404615F0ECFE304618F0ED
:10309000BFFAA7FB0523CDE90A2380462EA3D3E977
:1030A0000023DDE90A01FEF769FDD9F808300A9925
:1030B000A3F131094FF4B67308932C4BCDE90663A5
:1030C0002B4B0593F36804932A4B20F07F46A6FB15
:1030D00003ABB1EB0A004FF007030B9903FB06BBF0
:1030E00061EB0B0108F105074FF47A724FF000080D
:1030F0000023CDF80C80FEF741FD17A3D3E9002390
:10310000CDE90160A4FB0501FEF738FDFFB220F018
:103110007F4000904B463A46012140462AF06BFD25
:1031200030F002030BD04FF4B7721349134826F066
:103130003FF8404080F311884FF0030002DF012286
:103140000221104611B0BDE8F04F15F08DB811B056
:10315000BDE8F08FAFF300808D49FD1A0700000035
:1031600040420F00FF5962024DC7010025C7010010
:1031700081C701008D49FD1A2B74030092200300C2
:1031800000CA9A3B00000000114B10B5C3F8E400E0
:10319000FEF748F90CA3D3E90023FEF7E7FAFEF7A0
:1031A0007DFC0446C0F3074106202BF0D0FDC4F39C
:1031B000072107202BF0CBFDE1B20820BDE810402D
:1031C0002BF0C5BDAFF300800000000080844E40AE
:1031D000643A00200000000038B509202BF0C2FD41
:1031E000054606202BF0BEFD044607202BF0BAFD55
:1031F000000240EA044408202BF0B4FD2043FEF70F
:1032000011F91BA3D3E90023FEF786F9FEF746FC6C
:103210000021044609202BF09AFD3B202BF0A2FD53
:1032200040F04001C9B23B202BF091FD3B202BF038
:1032300099FD8206FAD41048FFF7A6FF3B202BF039
:1032400091FD40F04001C9B23B202BF080FD3B20B6
:103250002BF088FD8306FAD4294609202BF077FD50
:103260002046BDE83840FFF78FBF00BFAFF30080B6
:103270000000000080844E4000A1BC33000000002C
:103280002DE9F84F884620B1012855D00020BDE82F
:10329000F88F6F4C2720B4F8FC502BF063FD0135FC
:1032A00020F0F8002844FEF7CDF894F8FE30002214
:1032B000002B3CD1674BFDF779FF064630200F46C7
:1032C0002BF050FD30F0F9030CBF0023614B0022BE
:1032D00030463946FDF76AFF064640460F46FEF780
:1032E000B1F802460B4630463946FDF75FFF94F8C9
:1032F00000310022EBB90023FDF758FF0022564BA6
:10330000FEF70AF90646D4F8F8000F46FEF78AF8E9
:1033100002460B4630463946FEF728FA00224F4B4C
:10332000FEF7FAF824F056FDFEF7B8FBAFE70023EE
:10333000C1E74FF08043DFE7454CD4F82031073B2D
:10334000022B78D8464A02EBC303D3E90067D4F8CE
:1033500024510120A840FEF775F802460B4630467E
:103360003946FEF703FA02460B4600203949FEF7BC
:10337000FDF90646B4F82A010F46FEF763F800226D
:10338000384BFDF713FF32463B46FEF7C5F894F87D
:103390002C3182468B4694F82E01A900C1F11C0104
:1033A000002B01EB001101EBC80114BF1420002019
:1033B000081AFEF737F894F82831002B804614BF1E
:1033C00002200020281A80008946FEF72BF80246CA
:1033D0000B4640464946FEF7C9F900F0D9FC804645
:1033E00094F8290189460430FEF72CF842464B46F2
:1033F000FEF792F80022002304460D46FEF71CFB60
:10340000E0B10022144B20462946FDF7CFFE32469C
:103410003B46FEF781F852465B46FDF7C7FE0022A9
:103420000E4BFEF779F808A3D3E90023FDF7BEFEA3
:1034300000F032FD78E70026002788E700200649E3
:10344000E5E700BFAFF300802B8716D9CEF7EF3F3B
:10345000643A00200000F03F0000204000408F4010
:10346000D80B0300000011402DE9F04F89B005464C
:103470000093129B0393BDF8503002939DF8603087
:1034800004930C469DF864309DF8681007919046AF
:103490009DF86C200692BDF84C609DF854709DF824
:1034A00058A09DF85CB005931DF01EFDDDE90621D6
:1034B0002DB1012D00F0858009B0BDE8F08FAA4D37
:1034C000039BC5F8F880C5F8F43085F80221C5F8EB
:1034D000F04085F8FE7085F8FFA085F800B185F80A
:1034E0000111A5F8FC604046FDF79CFF02460B4623
:1034F0008046894600209D49FEF738F900229C4B02
:10350000FEF70AF8CDE900010298FDF79BFF02469D
:103510000B46DDE90001FDF7FFFF0022954BFDF7AB
:10352000FBFFFEF7BBFA42464B46C5F808018CA1EB
:10353000D1E90001FEF71AF9FEF7B0FA85B2290ABF
:1035400002202BF004FCE9B203202BF000FC204603
:103550001DF0E0FA014612202BF0F9FB03981DF054
:10356000D9FA014613202BF0F2FB310A25202BF06B
:10357000EEFBF1B226202BF0EAFB07B351463220D6
:103580002BF0E5FB30202BF0EDFB002F00F06F005F
:1035900014BF00216FF07F0140EA0B100143C9B254
:1035A00030202BF0D4FB31202BF0DCFB40F040012D
:1035B000C9B2312009B0BDE8F04F2BF0C8BBFF21E4
:1035C000DDE7022C00D9FEE704F10709664C009BF9
:1035D00084F82931049B84F82F31B8F10C0F059B36
:1035E000A4F82A61C4E9489884F82C7184F82DA1C4
:1035F00084F82EB184F8303184F8311184F8322106
:1036000000F29F80B8F1050F40F2A280B9F1070FD8
:1036100075D0B9F1080F79D000251D2084F8285104
:103620002BF0A0FB009B47EA430141EA0911C9B214
:103630001D202BF08CFB1E202BF094FB029BC3F370
:10364000012100F0080041EA8B01014341EA081121
:10365000C9B21E202BF07BFB26202BF083FB94F8B5
:10366000281120F0080040EAC101C9B226202BF041
:103670006EFB9DF808101F202BF069FB310A2020FB
:103680002BF065FBF1B221202BF061FB1FB15146FD
:1036900022202BF05CFB94F82F216AB144202BF000
:1036A00061FB60F07F01C9B244202BF050FB94F81D
:1036B000301124202BF04BFBB9F1090F33D1D4F892
:1036C000E4202D4B9A424FF002014FF0360026D9EC
:1036D0002BF03DFB64213A202BF039FBB8F1060FAB
:1036E0004FF0310022D12BF03DFB00F0F80141F00A
:1036F000050131202BF02BFB0C2137205AE7A8F1D4
:103700000B05012D8CBF0025012586E7A8F10C03D0
:103710005D425D4181E700254FF006087DE72BF013
:1037200016FB7F21D7E703213620D5E72BF01AFBC4
:1037300000F0F80141F0030131202BF008FB0A21D1
:10374000DBE7B9F1070F4FF00C087FF462AF64E7D5
:10375000B9F1070FDFD04FF006085AE7AFF300804A
:103760000000000080847E41643A00200000F03FA9
:103770000000204000408F4040DD4A1F0000000054
:103780002DE9F04F87B01E469DF8543001939DF807
:10379000583002938A469DF85C301899059204933C
:1037A00003910546109C9DF844B0BDF848909DF8E3
:1037B0004C809DF850701DF097FB50461DF05AF953
:1037C000DDE90313059A25B1012D63D007B0BDE8EB
:1037D000F08F8148C0E93B26C0F8F84080F80071BE
:1037E00080F8013180F8E8A0A0F8FC9080F8FE8015
:1037F000C0F804111046FDF715FE73A3D3E90023AA
:10380000FDF7B4FFFEF74AF985B2290A04202BF030
:103810009EFAE9B205202BF09AFA2046FDF702FE47
:1038200002460B466AA1D1E90001FDF79FFFFEF7B2
:1038300035F984B2210A02202BF089FAE1B2032083
:103840002BF085FA4FEA192125202BF080FA5FFA38
:1038500089F126202BF07BFA30202BF083FAB8F187
:10386000000F00F06F0014BF00216FF07F0140EAED
:1038700007173943C9B230202BF069FA31202BF0F9
:1038800071FA40F04001C9B2312007B0BDE8F04FF5
:103890002BF05DBA504A022E82F81CA1924600D944
:1038A000FEE70736C2E9486482F829B1A2F82A91F6
:1038B00082F82C81019A8AF82F210C2C029A8AF81E
:1038C00030218AF82E718AF83131CAF8341171D852
:1038D000052C74D9072E53D0082E58D00025019BF3
:1038E0008AF828516BB144202BF03CFA60F07F013C
:1038F000C9B244202BF02BFA9AF8301124202BF077
:1039000026FA48EA4B081D2048EA06162BF02AFA48
:10391000F1B21D202BF01BFA1E202BF023FABF0062
:1039200000F00B0047EA04170743F9B21E202BF002
:103930000EFA26202BF016FA9AF8281120F008002B
:1039400040EAC101C9B226202BF001FA4FEA192141
:1039500020202BF0FCF921205FFA89F12BF0F7F9F8
:10396000062C4FF031001AD12BF0FCF900F0F801D1
:1039700041F0050131202BF0EAF90C21372084E7D2
:10398000A4F10B05012D8CBF00250125A7E7A4F1AB
:103990000C035D425D41A2E7002506249FE72BF062
:1039A000E1F900F0F80141F0030131202BF0CFF9EB
:1039B0000A21E3E7072E4FF00C048DD18FE7072E85
:1039C000EAD0062488E700BF0000000080844E4053
:1039D0000000000080847E41643A00200000000066
:1039E000314B93F8E010012970B51C4602D0022932
:1039F0004CD070BD93F8E120CAB1012AF9D193F8F7
:103A00002F31002BF5D0022112202BF0A0F9274BEB
:103A10001B68002BEDD05C69002CEAD01C202BF039
:103A2000A1F9234600F03F00BDE8704018479B6EA7
:103A30000BB984F80C11B4F80C51012DD9D11C48E4
:103A40001DF082FE112084F80D512BF08BF94008F7
:103A5000404284F80E011B202BF084F905461C20FF
:103A60002BF080F940EA0520FDF7ECFC0CA3D3E92C
:103A70000023FDF751FDFDF7E9FFC4F810010C200C
:103A80002BF070F9400984F81401B2E793F8E120B3
:103A9000012AAED193F82F31002BAAD0B4E700BF92
:103AA0000000000080844E40643A0020303A00203C
:103AB000343A0020000000002DE9F04F8FB083461B
:103AC0000DF137010DF136002AF055F9DFF8D880F5
:103AD0009DF836300A939DF837300B93DFF8CC9081
:103AE0002AF0BCF8D8F80040A4FB094528A3D3E984
:103AF0000023824629462046FEF740F80646D8F8BD
:103B00000400254B0593002721A3D3E90023A0FB44
:103B10000901CDF818B0CDE90777FEF72FF81F4B54
:103B200026F07F46A6FB03BC20F07F40072303FB63
:103B300006CCCDE90370B4EB0B0065EB0C014FF440
:103B40007A720023FEF71AF85346CDE90160009718
:103B50000B9A0A9803212AF04EF830F0020314D190
:103B60000F4A1048002322F085F858B19DF83720FD
:103B70009DF8360003211DF0D5FF6FF073000FB0E4
:103B8000BDE8F08FD8F80C00F9E76FF08B00F6E78E
:103B90008D49FD1A07000000C91B02008D49FD1A5E
:103BA000447B0B00F43B0020E43B002000CA9A3B1E
:103BB00038B50F4D04462AF051F8A9682AF050F89C
:103BC0000C49B0FBF4F40444686807A3D3E900236C
:103BD000A0FB0101FDF7D2FF20F07F40844294BF9B
:103BE0000020012038BD00BF8D49FD1A07000000EC
:103BF000E43B002000CA9A3BD0E9132C2DE9F8439E
:103C00004E680C681E49A6EB0C06A41AF717C1FBF8
:103C10000467002E77F1000328DA046BC36A76424A
:103C200067EB4707E517C1FB034590F82010012912
:103C300014D1134800FB02C02BF0B7FE00FB05F3C4
:103C40004FEAE07904FB0933A0FB040119440AA3FD
:103C5000D3E90023FDF742FF04460D46B44275EB5D
:103C60000703B4BF01200020BDE8F883846A436ADB
:103C7000E517D8E7AFF3008000E1F505000000008C
:103C800040420F00000000002DE9F0430B688BB0AC
:103C90000C46198805462AF0B1FE6B462822002101
:103CA00018462BF0CFFE6468374A002C08BF044644
:103CB000D4E9001330A7D7E9006702FB0131CB1725
:103CC0009F4208BF8E424FD30FF2B409D9E9008951
:103CD00040F6FF70C0FB0189404632463B464946EC
:103CE000FDF74CFF1FFA80F8D4E90232264901FBA8
:103CF000032C6246D3179F4208BF664537D320A1E5
:103D0000D1E9000140F6FF76C6FB0C011AA3D3E906
:103D10000023FDF733FF86B25FFA88F128462AF0C8
:103D200066FE310141EA1821C9B228462AF05FFE39
:103D3000C6F3071128462AF05AFE217C28462AF0AD
:103D400056FED4E906011EF047FF014628462AF038
:103D50004EFED4E908011EF03FFF014628460BB095
:103D6000BDE8F0432AF043BE4FF00008BCE7002650
:103D7000D2E700BFAFF3008000E1F50500000000CE
:103D800080F0FA020000000040420F000000000036
:103D9000C1F30A522DE9F041A2F2FF36132E0B4671
:103DA0000D460446074634DC002E1FDB384A42FA33
:103DB00006F808EA0102024330D033A3D3E9002316
:103DC000FDF7F4F900220023FDF736FE48B1002D7F
:103DD00004DD4FF4801343FA06F6354425EA08055E
:103DE00000273C4629462046BDE8F08126A3D3E9BA
:103DF0000023FDF7DBF900220023FDF71DFE00285C
:103E0000EFD0002D3ADB55EA040733D00027214DCF
:103E1000E7E7332E06DDB6F5806F26D0194620463B
:103E2000BDE8F081A2F213424FF0FF3828FA02F801
:103E300018EA000FF2D014A3D3E90023FDF7B6F976
:103E400000220023FDF7F8FD0028CAD0002D09DD6F
:103E5000142E11D00123C6F1340603FA06F63719E1
:103E600028BFED1827EA0807BBE70246FDF79EF9D1
:103E70000446D4E73D46B4E70135F3E700274FF0A9
:103E80000045AEE7AFF300809C7500883CE4377EC8
:103E9000FFFF0F000000F03FC1F30A522DE9F0418F
:103EA000A2F2FF36132E0B460D460446074631DCC0
:103EB000002E1FDB384A42FA06F808EA01020243E4
:103EC0002DD033A3D3E90023FDF770F9002200239E
:103ED000FDF7B2FD48B1002D04DA4FF4801343FA28
:103EE00006F6354425EA080500273C4629462046C3
:103EF000BDE8F08126A3D3E90023FDF757F900229E
:103F00000023FDF799FD0028EFD0002D29DB0027C5
:103F10003D46EAE7332E06DDB6F5806F1CD0194624
:103F20002046BDE8F081A2F213424FF0FF3828FA94
:103F300002F818EA000FF2D015A3D3E90023FDF729
:103F400035F900220023FDF777FD0028CDD0002DA4
:103F500010DB27EA0807C8E70246FDF727F9044601
:103F6000DEE725F000430D4A1F43002F18BF15461A
:103F70000027BAE7142E08D00123C6F1340603FA4D
:103F800006F6371928BFED18E3E70135E1E700BF72
:103F90009C7500883CE4377EFFFF0F000000F0BFF7
:103FA0002DE9F04F476A97B080461D46239E924602
:103FB0009B4647B9102023F055FFC0E90177C8F8A8
:103FC00024000760C760D8F82430196859B15A68CE
:103FD0004A60012393408B6040462BF09CFFD8F849
:103FE000243000221A602B1EAABF002323F0004BAE
:103FF0003360A74BBCBF0122326033EA0B035C463F
:104000001AD1229A42F20F731360CBF3130353EACF
:104010000A0300F05E85249B53B99E4B21E09E4B22
:1040200005930833249A1360059817B0BDE8F08F04
:10403000984B05930333F5E7002200235046594679
:10404000CDE90CABFDF7D0FC074660B1229A012305
:104050001360249B002B00F03985904B249A136049
:10406000013B0593E0E714AB019315AB0093404689
:10407000DDE90C232CF054F9CBF30A560390002E03
:104080007FD00D9B1297C3F31303DDE90C4543F07A
:104090007F5545F44015A6F2FF360022804B20469E
:1040A0002946FDF781F874A3D3E90023FDF734FA1C
:1040B00073A3D3E90023FDF779F8044630460D4693
:1040C000FDF7C0F970A3D3E90023FDF725FA0246F6
:1040D0000B4620462946FDF769F804460D46FDF7D4
:1040E000B5FC00228146002320462946FDF786FCC8
:1040F00048B14846FDF7A6F922462B46FDF774FC69
:1041000008B909F1FF39B9F1160F57D8654B03EB20
:10411000C903D3E90023DDE90C01FDF76FFC00289A
:104120004ED009F1FF3900231193149B9E1B731E7F
:10413000099345BFC6F101030893002300234CBF38
:1041400009930893B9F1000F3CDB099BCDF840902F
:104150004B44099300230A93209B092B00F2A6806D
:10416000052BC4BF043B2093209BA3F10203CCBFCB
:1041700000240124032B00F2A480DFE803F02D3A91
:10418000387BDDE914631E4406F232402028C1BFAB
:10419000C0F14000844006F212402AFA00F0D6BF77
:1041A000C0F1200020430AFA00F0FDF73BF901239B
:1041B0000446A1F1F875013E12936EE70123B3E7BF
:1041C0001190B2E7089BA3EB09030893C9F1000320
:1041D0000A9300231093BFE700230B93219B002B2E
:1041E00072DC0123069304931A4621920BE001230B
:1041F000F3E700230B93219B4B4406930133012BE0
:104200000493B8BF0123D8F8245000226A60042226
:1042100002F11400984269685AD940462BF047FED3
:10422000D8F8243028601B680593049B0E2B00F2FD
:10423000D280002C00F0CF80B9F1000F66DD194A62
:1042400009F00F0302EBC303D3E90034CDE90E34C8
:104250004FEA2914E00657D5134BDDE90C01D3E9E9
:104260000823FDF783FA04F00F0482468B460327E8
:104270000D4D3EE00123BDE761436F63A787D23F49
:10428000B3C8608B288AC63FFB799F501344D33F45
:104290000000F07FF0850300E78503000B79030041
:1042A0000000F83FD80C0300B00C030001240023E9
:1042B00020930B944FF0FF330693049300221223B4
:1042C00093E701230B93F5E7219B069304939AE769
:1042D0000131696052009BE7E10708D5DDE90E0175
:1042E000D5E90023FDF718F9CDE90E010137641077
:1042F0000835002CF0D1DDE90E2350465946FDF774
:1043000035FA82468B461AE00227B1E700F09D801D
:10431000C9F100049C4B9D4D04F00F0203EBC20356
:10432000D3E90023DDE90C01FDF7F6F824118246FC
:104330008B4600230227002C7CD1002BE1D1119B5E
:10434000002B00F084800022914B504659465D4678
:10435000FDF754FB00287AD0049B002B77D0069BF6
:10436000002B36DD5046594600228A4BFDF7D4F823
:10437000069C09F1FF3682468B4601373846FDF729
:1043800061F852465B46FDF7C7F80022824BFCF706
:104390000DFFA1F15075CDE90E010F95002C59D1FB
:1043A00000227E4B50465946FCF7FEFE0E9A2B46E5
:1043B00082468B46FDF740FB002840F088820E9A2B
:1043C00005F1004350465946FDF718FB002840F020
:1043D0007C82DDE90CAB159B002BC0F24D81B9F15D
:1043E0000E0F00F34981684B03EBC903D3E9003496
:1043F000CDE90634219B002B80F2D480049B002B56
:1044000000F3D08040F060820022644BDDE90601B9
:10441000FDF782F852465B46FDF704FB049C2646F6
:10442000002840F03982059D312305F8013B09F150
:10443000010935E2E20705D5D5E90023FDF76CF85F
:10444000013701236410083575E7022777E74E46E8
:10445000049C93E74C4B03EBC40353E90201059B17
:104460001C440B9B002B44D002460B4600204C49B9
:10447000FDF77CF9DDE90E23FCF796FECDE90E0190
:10448000059D59465046FDF7E1FA0746FCF7DAFF6D
:1044900002460B4650465946FCF786FE303705F873
:1044A000017BDDE90E2382468B46FDF7A7FA002843
:1044B00060D152465B4600203549FCF775FEDDE9C8
:1044C0000E23FDF79BFA002840F0B680A54280D06D
:1044D0000022304BDDE90E01FDF71EF80022CDE988
:1044E0000E012C4B50465946FDF716F882468B4676
:1044F000C7E7DDE90E23FDF70FF8CDE90E01059FB3
:10450000254659465046FDF7A1FA1390FCF79AFF4D
:1045100002460B4650465946FCF746FE139B303385
:1045200007F8013BA74282468B464FF0000225D197
:104530001B4BDDE90E01FCF739FE02460B465046E7
:104540005946FDF779FA002876D1DDE90E230020DF
:104550001349FCF729FE02460B4650465946FDF723
:104560004DFA00283FF435AF15F8013C302B05F12A
:10457000FF3201D0B1464EE01546F5E7054BFCF79A
:10458000CBFF82468B46BCE7D80C0300B00C03007F
:104590000000F03F0000244000001C4000001440D8
:1045A0000000E03F5F46059DDFF84CB556464FF0F2
:1045B000000ADDE9062330463946FDF7D7F8FDF756
:1045C00045FA0446FCF73EFFDDE90623FCF7A4FFAD
:1045D00002460B463046394604F13006FCF7E4FD4E
:1045E00005F8016B059E049FAE1BB74202460B46C1
:1045F00035D1FCF7DBFDDDE9062306460F46FDF766
:104600001BFAC0B9DDE9062330463946FDF7ECF95F
:1046100008B1E3070FD4039940462BF07CFC00233C
:10462000229A2B7009F101031360249B002B3FF4A5
:10463000FBAC1D60F8E44E4615F8012C392A05F153
:10464000FF3306D1059A9A4207D1059930220136E7
:104650000A701A7801321A708CE71D46ECE7524650
:104660005B46FCF759FF0022002306460F46FDF784
:10467000BBF900289DD0CEE70B9A002A00F0CC8031
:10468000209A012A00F3AE80129A002A00F0A68038
:1046900003F233430A9C089D089A1A440892099A27
:1046A00001211A44404609922BF0D7FC0646002D02
:1046B0000CDD099B002B09DDAB42089AA8BF2B46F5
:1046C000D21A0892099AED1AD31A09930A9BF3B1E8
:1046D0000B9B002B00F0A480002C10DD31462246FD
:1046E000404624F019F9039A0146064640462BF04D
:1046F000BDFC0399074640462BF00DFC03970A9B2F
:104700001A1B04D00399404624F006F903900121B6
:1047100040462BF0A2FC109B002B044640F3828005
:104720001A460146404624F0F7F8209B012B044628
:104730007BDD0027236904EB830318692BF03DFC24
:10474000C0F12000099B184410F01F0000F08B807E
:10475000C0F12003042B40F38480C0F11C00089BAF
:1047600003440893099B034405440993089B002BC9
:1047700005DD1A46039940462BF008FD0390099B7E
:10478000002B05DD21461A4640462BF0FFFC04466F
:10479000119B002B69D0214603982BF04AFD00287D
:1047A00063DA00230A22039940462BF0CBFB0B9BD4
:1047B000039009F1FF39002B00F09281002331466C
:1047C0000A2240462BF0BEFB069B002B064600F358
:1047D0008780209B022B40F383804EE0149BC3F123
:1047E000360357E7049B5C1E0A9BA342BFBF0A9B8C
:1047F0000A94E21A109BB6BF9B181C1B1093049BD3
:10480000B8BF0024002BB9BF089B049A089D049BE5
:10481000BCBF9D1A00233FE70A9C089D0B9E46E7FC
:104820000A9A6FE7209B012B17DCBAF1000F14D115
:10483000CBF313039BB92BF000473F0D3F0537B176
:10484000089B01330893099B013309930127109BAF
:10485000002B7FF46FAF012074E70027F7E757467E
:10486000F5E783D018461C3079E7049B002B31DC38
:10487000209B022B2EDD049B0693069B63B92146E9
:10488000052240462BF05EFB0146044603982BF0C0
:10489000D0FC00283FF7C7AD219B059D6FEA0309B7
:1048A0000027214640462BF036FB002E3FF4B3AEE6
:1048B0002FB1B74203D0394640462BF02CFB31468E
:1048C00040462BF028FBA6E600242646E4E7B14646
:1048D0002646A8E50B9B002B00F0BC80049B0693AA
:1048E000002D05DD31462A4640462BF04FFC06469A
:1048F000002F52D0716840462BF0D9FA326902324B
:104900000546920006F10C010C302BF060F80122F4
:10491000294640462BF03AFC059B01330493DDE920
:10492000052313440A930AF0010337460993064608
:10493000049B0398214603F1FF3A2BF0F8F939461E
:10494000069000F1300B03982BF073FC3246089070
:10495000214640462BF087FCC2680546FAB901465D
:1049600003982BF066FC0246294640460B922BF03A
:10497000D2FA209B0B9A049D43EA0201099B0B4348
:104980000FD1BBF1390F28D0089B002B02DD069B0D
:1049900003F1310B8AF800B083E73046BCE701220F
:1049A000E2E7089B002B04DB20990B4309990B439A
:1049B0001ED1002AEEDD0122039940462BF0E6FBD2
:1049C000214603902BF035FC002803DCE2D11BF0DC
:1049D000010FDFD0BBF1390FD9D139238AF800306C
:1049E00015F8013C392B05F1FF3264D0013369E041
:1049F000002A07DDBBF1390FEFD00BF101038AF874
:104A000000304EE7049B0A9A03F801BC93423AD067
:104A100000230A22039940462BF094FAB7420390F0
:104A20004FF000034FF00A023946404607D12BF001
:104A300089FA07460646049B0133049378E72BF076
:104A400081FA3146074600230A2240462BF07AFAC3
:104A50000646F0E7049B0693059D039821462BF03C
:104A600066F900F1300B059B05F801BBEA1A069BBD
:104A7000934207DD00230A22039940462BF062FA95
:104A80000390EAE700270122039940462BF07EFBC2
:104A9000214603902BF0CDFB0028A1DC02D11BF0B6
:104AA000010F9DD115F8013C302B05F1FF327FF449
:104AB000F8AE1546F6E7059B934205D1059A09F134
:104AC000010931231370ECE6154689E7084BFFF71F
:104AD000C8BA249B002B7FF4A2AA064BFFF7C1BAE9
:104AE000069B002BB8DC209B022B3FF7C6AEB3E73A
:104AF0000A790300E785030000002440014824F000
:104B000057BB00BFBC1D0300014824F051BB00BFD0
:104B10007B1D030008B5024824F04AFB002008BDB5
:104B2000531D030008B50146024824F041FB002054
:104B300008BD00BFAC1D0300082808B504D1064815
:104B400024F036FB002008BD012801D10348F7E717
:104B50006FF08500F7E700BF8A1D03009A1D030070
:104B600010B5224824F024FB214C1021204625F0CA
:104B700072F862782378134062791340FF2B0DD1CD
:104B80001C4B1A7822705A7862709A78A270DB787F
:104B9000E370194B1A7822715B78637100F076F834
:104BA0000146164827F067FC014620B11448BDE8CD
:104BB000104024F0FDBA134824F0FAFA124824F009
:104BC000F7FA24F0FBFE032012F0E2F910F1780F5F
:104BD000014606D10D4824F0EBFA0D4B01221A7064
:104BE00010BD08B10B48E2E70B48F4E7A01C030036
:104BF000DE3D0020A4000010A80000108803002063
:104C0000AE1C0300D11C0300E31C0300F41C0300D2
:104C1000EE3D00201D1D03003B1D030038B50F486D
:104C20000F4D24F0C5FA0F4805F048FA04462B78DA
:104C300033B15CB121460C48BDE8384024F0B8BA25
:104C400000214FF4A47020F0A3FFF0E7074824F000
:104C5000AFFA0748BDE8384024F0AABA401C030068
:104C6000EE3D0020614B0000571C0300771C030041
:104C70008E1C0300014824F09BBA00BFD91D03001D
:104C8000014824F095BA00BFEA1D030000487047B0
:104C9000A00D0300836801491B681847681E0020A7
:104CA00008B510481FF014F90F4A106028B90D49D3
:104CB0000E48BDE8084024F07BBA0D4B0D4A1A603F
:104CC0004FF420629A8001229A710B4A9A60FFF792
:104CD000E1FF002804DA0948BDE8084024F068BA7A
:104CE00008BD00BFFA1D0300741E0020011E030052
:104CF000681E0020E060903308000401161E0300C7
:104D000070B50F4C054620680E4620B90D48BDE829
:104D1000704024F04DBA0C4B4FF482725A81FFF769
:104D2000B9FF002801DA0948F1E7206883683246B4
:104D30005B68294698470028B4BF05480548E6E760
:104D4000741E00202A1E0300681E0020161E030089
:104D5000451E0300571E030008B506481FF0B8F8AB
:104D6000054B186020B90548BDE8084023F05ABC3F
:104D700008BD00BF631E0300781E00206A1E0300EA
:104D80002DE9F84312F44065064688461446D0F8EB
:104D90000490C7680CD093050AD41949194840F209
:104DA000362224F005FA40F23621154824F079FC29
:104DB000E00404D51DB1E10748BF84F4E0540123A9
:104DC00003FA08F5D9F800301D420AD10C490D4804
:104DD00040F2452224F0ECF940F24521084824F045
:104DE00060FCB36822461B6841463046984728B9A4
:104DF0003B68E2074CBF2B43AB433B60BDE8F88305
:104E0000682003009220030010B52A481FF060F8C4
:104E1000294A106020B92948BDE8104024F0C8B9DB
:104E2000062141F20162FFF7ABFF254C0028014645
:104E3000206004DA2348BDE8104024F0B9B91D48C9
:104E40001FF046F8204A106008B92048E4E708211E
:104E500041F20162FFF794FF00280146206001DA69
:104E60001B48E8E71B481FF033F81B4A106008B9DD
:104E70001A48D1E7092141F20162FFF781FF0028BA
:104E80000146206001DA1648D5E70A481FF020F8ED
:104E9000144A106008B91448BEE70C2141F20162BF
:104EA000FFF76EFF00280146206001DA0F48C2E7D5
:104EB00010BD00BF611F0300801E0020681F03009B
:104EC000901E00207C1F0300841E0020A81F0300EA
:104ED000BC1F0300C11E0300881E0020E81F030042
:104EE000FC1F03008C1E0020282003003C20030030
:104EF00038B51848184C24F05BF94FF08053174828
:104F0000D3F8A420114624F053F9154824F050F9A1
:104F1000FFF77AFF134824F04BF9134824F048F9BF
:104F2000FFF71AFF114824F043F9FFF7B9FEFFF726
:104F300075FEA4F1080521460D48FCF7DDFF1021A0
:104F40002846FFF7DDFE00214FF4702020F020FE00
:104F5000F1E700BFAA200300F73D0020C3200300B3
:104F6000FF20030019210300372103004B21030018
:104F7000EF3D002010B5094C0A44914200D110BD0C
:104F800011F8013B43401809205C80EA0310C3B2CA
:104F90001809205C80EA0310C0B2EEE75621030036
:104FA000436870B503F003030546022B0E46A96063
:104FB00010D0032B04D0012B0FD10024204601E098
:104FC0000468002000236B6010B1314621F0B4FF6B
:104FD000204670BD00680024F4E7452204490548D6
:104FE00024F0E6F84521024824F05BFB0024E8E7C2
:104FF00066210300922003000B6801330B60014B14
:105000001B6818470805002007B5002301930246D6
:105010000B46034801A900F0ADFC03B05DF804FBAA
:10502000F94F000030B585B0CDE9010104460025F7
:1050300001A90548039500F09DFCDDE90230984286
:10504000B8BF255405B030BD8B9102002DE9F74F54
:10505000B0F81C8018F0080F044693461CD00129B4
:105060000CBF48F0100848F02008A0F81C8004F19C
:10507000140020F0C7FF40B9B949BA48A72224F06C
:1050800097F8A721B64824F00CFB8BF31188BFF3E7
:105090006F8F03B0BDE8F08FB34EDFF8C89208F011
:1050A0000708022906D1204624F09CF80028DED00B
:1050B000012861D1D4F818A0A38BBAF1000F19DA36
:1050C0000027256823F00703C4E9007743F00103B4
:1050D000A383A38B03F007024245009203D0A2688A
:1050E000002A40F0EF8015B9002F00F029814FF021
:1050F0000008E9E003F00702511F01291ED8002132
:1051000023F00703062A25689BB2C4E900110AD1DF
:105110003DB1E28B29460968013292B20029FAD1E9
:10512000E28343F00203A383204624F05BF818B126
:10513000A38B43F02003A3830027CAE7042A0FD1DF
:1051400023F007039AB2A283204624F04BF80028EC
:1051500000F0B68042F02002A28300252F46B8E777
:105160003146484640F2191224F022F840F2191153
:10517000304624F096FAF0E7032831D1B8F1000F59
:105180000AD0314648464FF4AA7224F011F84FF481
:10519000AA71304624F085FA236853B9314648464F
:1051A00040F2551224F004F840F25511304624F034
:1051B00078FA23691F6857B9314648464FF4AC72F4
:1051C00023F0F6FF4FF4AC71304624F06AFAA38B5B
:1051D00023F0070343F00603A3830025AA4678E7DC
:1051E00004282ED1B8F1020F0AD03146484640F2C9
:1051F0005B1223F0DDFF40F25B11304624F051FAE0
:10520000E38B53B1314648464FF4AE7223F0D0FFE2
:105210004FF4AE71304624F044FA23695F6857B901
:105220003146484640F25F1223F0C2FF40F25F1160
:10523000304624F036FAA38B23F0070343F004032F
:10524000CAE705282ED1B8F1010F0AD031464846E9
:105250004FF4B17223F0ACFF4FF4B171304624F03B
:1052600020FA236853B93146484640F2631223F0CE
:105270009FFF40F26311304624F013FA23699F68C0
:1052800057B9314648464FF4B37223F091FF4FF4BB
:10529000B371304624F005FAA38B23F0070343F0E3
:1052A000050399E740F269123146484623F080FF32
:1052B000002540F26911304624F0F3F92F468DE7BE
:1052C00005464BE74FF0010843F00803A38304F1C0
:1052D00014031846019320F095FE40B92049484632
:1052E000A72223F065FFA7211D4824F0DAF98BF3EC
:1052F0001188BFF36F8FB8F1000F39D1002D49D15C
:1053000017B11A492046B8474FF02003EFF3118B2D
:1053100083F31188BFF36F8F019820F065FE40B9C9
:105320000F4948467C2223F043FF7C210C4824F09F
:10533000B8F9019820F076FEA38B23F00803A3832D
:10534000A38BDA0630D523F01003A3830121B4F830
:105350001C8008F0070800297FF4A3AE87E600BF91
:10536000AB2103009220030089210300B953000000
:10537000A1680029C2D0D1F80080D1F804B0009A09
:1053800053462046D847B8F1000FB7D04146D8F869
:105390000080F2E7D5F80080009A2946534620465F
:1053A00023F03CFF4546A9E713F020011EBF23F080
:1053B0002003A3830221CAE7F8B504460F4600F193
:1053C00014054FF02003EFF3118683F31188BFF328
:1053D0006F8F284620F008FE40B90A490A487C220F
:1053E00023F0E6FE7C21074824F05BF9284620F0F4
:1053F00019FEA761324620460121BDE8F840FFF7BB
:1054000025BE00BFAB210300922003002DE9F04729
:105410000446884623F018FF061E52DB04F11409E7
:105420004FF02003EFF3118A83F31188BFF36F8FDE
:10543000484620F0D9FD40B9324933487C2223F058
:10544000B7FE7C212F4824F02CF9484620F0EAFDD5
:10545000E38BA28B4FF6FF718B4202F007054AD017
:10546000022D1CD10133E3832E460127484620F04C
:10547000C9FD40B923492448A72223F099FEA7215A
:10548000204824F00EF98AF31188BFF36F8FC7B15B
:1054900000232A464146204623F0C0FE11E0930730
:1054A00001D0062D10D10023C8F800306368EBB995
:1054B000C4E900882E4605BB524602212046FFF76C
:1054C000C5FD3046BDE8F087052D18D0012D0AD066
:1054D0000E490D4840F2C51223F06AFE40F2C51194
:1054E0000A4824F0DEF86FF0040606E0C3F80080F6
:1054F000C4F80480DEE76FF00A060027B6E76FF015
:105500008506FAE7AB2103009220030089210300FE
:1055100070B5044600F114054FF02003EFF3118637
:1055200083F31188BFF36F8F284620F05DFD40B9EB
:10553000224923487C2223F03BFE7C211F4824F093
:10554000B0F8284620F06EFDA38B03F00703022B72
:1055500017D0012B0CBF6FF004046FF085042846B0
:1055600020F050FD40B915491548A72223F020FE30
:10557000A721124824F095F886F31188BFF36F8FA6
:1055800017E0E38B53B90F490D484FF4F67223F03F
:105590000FFE4FF4F6710B4824F083F8E38B013BC8
:1055A0009BB2E3833BB9204632460221FFF74EFD12
:1055B0000224204670BD0224D1E700BFAB210300C6
:1055C00092200300892103002DE9F041164DDFF8F8
:1055D0005C8007464FF0FF324FF0FF3338461FF034
:1055E0002DFA04460028F5D0466846B929464046BB
:1055F0001C2223F0DDFD1C21284624F052F8BFF3C5
:105600005B8F04F1080353E8002F22F0010143E807
:1056100000100028F7D1BFF35B8FD30701D52046D8
:10562000B04720F0A7F9D5E7D1210300922003006D
:1056300070B5002937D00568AB68B3F5004F2CBFB3
:10564000082404240C1B641BE4082146284623F08C
:1056500051FE40B9144915489B2223F0A9FD9B2116
:10566000114824F01EF82146284623F04AFE261849
:1056700000223146284623F027FE301A844208D003
:1056800009490A48A42223F093FDA421064824F0E6
:1056900008F821462846002223F039FE2146BDE8BD
:1056A000704023F077BF70BDF42103009220030007
:1056B0002DE9F04701F1FF3A1AEA010F0646894643
:1056C0001446056808D032493248FC2223F070FDA8
:1056D000FC212F4823F0E5FFAA68B2F5004F2CBF4C
:1056E00008230423994505D821463046BDE8F047F4
:1056F00023F08EBF1CB900273846BDE8F087B2EB17
:10570000D40FF8D909EB0401C91A284623F01BFE6F
:105710000146284623F0B8FE80460028EBD0AB684F
:10572000B3F5004F2CBF0826042606EBC0072F4414
:105730005744C9F1000907EA0907BE1B3C44761B20
:105740000734F60824F00704641BB0424FEAE4046F
:1057500008D201463246284623F029FE4146284613
:1057600023F0D3FE3146284623F0CBFD304484425B
:1057700008D231462846224623F019FE2146284603
:1057800023F0C3FE01223146284623F0C0FDB3E7D3
:10579000F421030092200300B2F5802FF8B50746EC
:1057A0000D4616460ED2042A0AD83D493D484FF40C
:1057B000B67223F0FDFC4FF4B671394823F071FF47
:1057C000042300E00823F61AEC1D354424F00704F6
:1057D00025F007052D1B172D4FEAD5060AD83049AD
:1057E000304840F2751223F0E3FC40F275112C486A
:1057F00023F057FF002200233C60C4E9002300236C
:10580000E3603146A660204623F0A7FD0121850014
:10581000471C204623F097FD1B35ED082844B04275
:105820000AD31F491F4840F2811223F0C1FC40F205
:1058300081111B4823F035FF002304F110021946A3
:10584000BB4229DB2A462046002123F078FD771B46
:1058500020460122002123F05AFD3A46294623F032
:105860006EFD2B4629462046002223F038FD3146A6
:105870002046002223F063FD3B46314620460022AD
:1058800023F02DFD31462046012223F040FD29461C
:10589000BDE8F84023F039BE42F8041B0133CFE7DE
:1058A000F421030092200300F0B50268074E0023A4
:1058B0000A27114601320C78A55D6D0702D40160FC
:1058C0001846F0BD07FB0343303BF2E7B584030005
:1058D0002DE9F74F14460193D378254A13F8029027
:1058E0006F2B06460F4609F003092ED029D8582BF6
:1058F0000CBF10250A25DDF83080AA464FF0000BBA
:1059000052465B4630463946FCF738F9092AD3B28D
:1059100022D830335F45DBB208BF564508F8013D59
:1059200002D3019B984514D823789B0605D5082DF2
:1059300018D1A37843F00803A370404603B0BDE834
:10594000F08F702B03D0782BD2E70825D3E71025F2
:10595000D1E706460F46D3E7B9F1010F0CBF373345
:105960005733D7E7102DE8D1A37843F01003E3E7CE
:10597000B58403002DE9F04F814693B08A469346E3
:105980001C4600259BF8000008B92846D9E20BF117
:1059900001032528029306D05146C8470028C0F2CB
:1059A000D0820135B2E1182200210CA82AF04AF871
:1059B0009BF80130252B55D0029A164612F8013B70
:1059C0002B2B00F0878075D8202B00F08880232BAC
:1059D00000F08A809DF8383003F04402442A03D155
:1059E0006FF386138DF838309DF83830059643F004
:1059F00080038DF8383033782A2B7AD19DF83930EE
:105A000043F001038DF83930721C059213782E2B68
:105A10009DF839300CBF0121002161F341038DF85D
:105A200039300BD1531C059353782A2B75D19DF82F
:105A3000393043F004038DF839300232114611F841
:105A4000010B6A2800F0B68077D84C2800F0BA80A5
:105A500068287FD09DF839306FF3C6038DF8393050
:105A6000114682E00BF1020202928DF83B309DF864
:105A70003930D90740F10E8154F8048BB8F1000F8A
:105A800007DA9DF8382042F004028DF83820C8F17A
:105A900000085A0740F1078154F8047B002F80F278
:105AA00006819DF839306FF341038DF839304FF09E
:105AB000FF37FCE02D2B06D0302B8BD19DF83830F2
:105AC00043F0400303E09DF8383043F004038DF8C1
:105AD000383072E79DF8383043F00803F7E79DF857
:105AE000383043F01003F2E79DF8383043F02003DC
:105AF000EDE705A8FFF7D8FE059AB24285D09DF8DC
:105B000038300F9043F08003C3F3400141EAD07175
:105B100061F341038DF8383077E705A8FFF7C4FE3D
:105B20009DF838301090C3F3400242EAD07262F31D
:105B300041038DF83830059A80E774289DF8393094
:105B40003ED07A283AD06C2884D150786C282FD156
:105B5000042105E05378682B9DF8393022D10121CA
:105B600061F3C6038DF83930911C0B4613F8012BF5
:105B70000293672A8DF83B209DF839303DD8652A7D
:105B800032D2582A74D02AD8412A2DD002D3453A8D
:105B9000022A29D99DF8383043F001038DF83830B6
:105BA000002348E0022262F3C6038DF83930DCE7B7
:105BB0000322F8E79DF839300522F4E70622F2E7E0
:105BC0000722F0E7BDF8383023F4F04323F0020356
:105BD00043F4804343F00203ADF83830C5E7632A4D
:105BE00046D012D8612AD5D19DF83A30042262F30A
:105BF00002038DF83A3001231DE0702A2BD024D8FF
:105C00006E2A39D034D8692AC4D19DF83A100120BF
:105C100003F0780360F30201402B8DF83A1002BFC5
:105C20009DF8381041F001018DF83810632AB7D182
:105C3000003318BF01239DF83820C2F340010B4305
:105C400063F341028DF8382011E7752A10D0782AC5
:105C50000ED0732A9ED19DF83A20032113F0780FBD
:105C600061F302028DF83A2014BF01230023E2E71A
:105C70009DF83A100220CBE79DF83A2003F0780314
:105C8000A3F14000032161F3020243428DF83A2060
:105C90004341D0E79DF93820002AB4BFDDF83C80AD
:105CA0004FF0FF38F5E69F077FF501AF109F9DF895
:105CB0003A200023CDE90F3302F007029DF8393076
:105CC000012AC3F3C30337D1DA1E042A21D8DFE83F
:105CD00002F003070720200054F8040BC11704E06A
:105CE000073424F00704F4E80201CDE90C019DF823
:105CF000382012F0030655D0029B5A4651464846BA
:105D000023F0B9FC0028C0F21C810544DDF808B07E
:105D100038E654F8040B012B4FEAE071CDE90C0191
:105D200005D19DF830200C9200220D92DFE7022B66
:105D3000DDD1BDF93000D1E7022A23D1DA1E042AD1
:105D400013D8DFE802F0030A0A12120020680C9050
:105D50000021221D0D911446C9E7073424F00702E3
:105D6000F2E80201CDE90C01F5E754F8042B0C929E
:105D7000012B4FF000020D92D3D0022BB7D1BDF80A
:105D80003020D0E7042A07D1073424F00704F4E8D0
:105D90000201CDE90C01AAE7032A04BF54F8042B41
:105DA0000C92A4E79DF83B006E2800F0A4803AD83E
:105DB00063286ED020D825283FF4EEAD5828A5D111
:105DC0000DF12E0300930EAA06ABDDE90C01FFF7DF
:105DD0007FFD8346002F0DF12E000BDB9DF8382050
:105DE000A0EB0B036FF386129F428DF8382001D988
:105DF000FF1A0F97074644E0642801D0692885D12F
:105E0000160776D412F0100618BF2026DDE90C2301
:105E1000002A73F10001D3DA524263EB4303CDE968
:105E20000C232D26CCE7732820D01BD86F28C7D091
:105E300070287FF46BAF0C98002871D00DF12E0301
:105E400000930EAA06AB3146FFF742FDBDF83A308B
:105E500003F0EF0343F4F04343F010038346ADF83F
:105E60003A30B7E77528ABD07828A8E7002FDDF8DF
:105E700030B00ADB3946584629F04DFF0BEB0007DE
:105E80000026BBF1000F0BD140E75846FCF72CF879
:105E9000F4E70C9B8DF818300DF119070DF1180B74
:105EA000A7EB0B0306B101339DF83A20D0063CD591
:105EB000023352060F9948BF109A0B4448BF9B18F3
:105EC000B8F1000F4ADD9DF83820A8EB0308C2F3B3
:105ED00080030393002B41D1500635D53EB1514686
:105EE0003046C84700282CDB039B01351E46302373
:105EF0002BE02B268AE70C9A072B3FF607AFDFE84B
:105F000003F00D04060D08080D0D1570FEE6158052
:105F1000FCE62846E917C2E90001F7E61560F5E658
:105F20002E4F0646A7F1050BBAE7110748BF01330C
:105F3000BFE7184651460393C84700284246039BD3
:105F400005DA13B0BDE8F08F202342464544002A0D
:105F5000A5EB020102F1FF38EBDC0D462EB15146F4
:105F60003046C8470028ECDB01359DF83A30D906A9
:105F700001D41A0705D551463020C8470028E0DB78
:105F800001359DF83A30DB0606D551469DF83B00B9
:105F9000C8470028D5DB01350F9E2E44731B002B0C
:105FA00015DC3B465A465146484623F064FB002820
:105FB000C7DB0544A844A8EB0503002B7FF7A6AE7A
:105FC00051462020C8470028BBDB0135F3E7514686
:105FD0003020C8470028B4DB0135DFE71A22030070
:105FE0002DE9F7430F4681460821C06A124E23F07F
:105FF000D4FB3C68241A80463C6004EA0605AC42A7
:1060000003D8002003B0BDE8F08308236A46214688
:10601000484623F051FB0028F4D1684623F0A8FB42
:1060200038B9BDF80230BDF804203C603540134457
:106030001D44A4EB0804E2E70000FFFF2DE9F04F48
:10604000044693B00821C06A23F0A7FB63681B0CC9
:106050001B04814601A9E089019323F0A8FB019B61
:10606000A18904AD1944A1EB09012A460823204661
:10607000029123F021FB021EC0F29580E36A1A7997
:106080000023E95C91427FD10133082BF9D10199BA
:10609000204623F096FB024685E0029BBDF81220C5
:1060A0001B0C1B0413440293DFF804B1DDF808A0B5
:1060B00006AA02A9204623F0ACFB0246002872D1B2
:1060C00006A823F055FB002835D16368039308AA7E
:1060D00003A92046039D23F09CFB0246002862D1C1
:1060E000BDF82020BDF818309A4227D06268039B83
:1060F0009A42ECD155451ED1BDF81C30DBB1BDF83C
:106100001A300AEA0B071F4406A8A368ADF81A3034
:1061100023F03AFBE36ABDF81C801E68764206F065
:106120002006B8F1000F0FD106A9204623F00AFC83
:106130000246002837D1CA45B8D1A8E708A823F0FD
:1061400017FB0028D2D1D5E74645354628BF45463E
:106150000AAA2B463946204623F0AEFA024610BB67
:1061600035B10AAA2B46A168204623F0A2FB0246BD
:106170002946E06A23F011FBA3681844A06092B995
:10618000A8EB05082F44CCE7029B2846A3EB09099E
:1061900023F0EEFA002880D002A92046FFF720FF66
:1061A0000246002880D0104613B0BDE8F08F00BF33
:1061B0000000FFFF2DE9F047044686B00D4600F1D0
:1061C0001406304629F033FA28461DF081FEA062FD
:1061D00048B94521884822F0EBFF6FF005052846B5
:1061E00006B0BDE8F08783681B699847E06230B964
:1061F0008248452122F0DCFF6FF01505EFE7A06A29
:1062000083681B6998470368013B1F2B02D945210E
:106210007B48EFE7A06A216803AA28F0C7FE10B107
:1062200045217848E6E7A3892BB1049AB3FBF2F540
:1062300002FB153515B145217348DBE7E389012BD6
:1062400002D845217148D5E7E36A009593F8049098
:106250004FF0FF324FF0FF3330461EF065F9082152
:10626000E06A23F09AFA2F468046E3891FFA85FAFE
:10627000534565D8E389BB4200F0A28053450CD159
:10628000009908234A46A1EB0801204623F04BFA67
:1062900018B96946E08923F08AFA009B5C4FA3EBAA
:1062A00008023B406260A360D4E9011399420ED317
:1062B000082301AA204623F0FFF9054618BB01ABCD
:1062C00013F8012B91457ED10135082DF8D1D4E981
:1062D00001318B4207D95B1A4A46204623F023FA44
:1062E000051E10DB50D16368494FE0893B40694689
:1062F000009323F05CFAA38900994A46204623F0D4
:1063000012FA051E46DA30461EF0E2F9002D7FF43F
:1063100066AF01232374E289A3893E48492122F014
:1063200047FF62683C4893B24921120C22F040FFBB
:10633000A2683A4893B24921120C22F039FF4EE785
:10634000A1892B04A1EB080113FA81F14A46082325
:106350002046009123F0E7F970B16946E08923F007
:1063600026FA013708234A4600992046BFB223F097
:10637000DAF900283FF47EAF013576E7BAF1000F75
:1063800036D06FF01C05BEE7E26AA36812681344BA
:10639000A3609CE7B7D06168204623F012FA054657
:1063A0000028B0D16068A38938401844A0EB4800A9
:1063B00060603840A0602046FFF740FE0546A2E737
:1063C0006FF02C059FE701A823F0D2F9656878B932
:1063D000009ABDF80600BDF808A03A400244A26049
:1063E0005146E06A23F0D9F91044A842A060C5D014
:1063F000A5EB0805656057E734220300552203002A
:106400007C2203009E220300BB220300D42203004F
:106410000000FFFFFC220300182303002F230300CA
:106420002DE9F04F1E46037C89B00446894690460C
:106430004BB94521654822F0BBFE6FF00C0528469C
:1064400009B0BDE8F08FC26A0821104623F0A5F913
:1064500031468246104623F0A0F9A3890AEB4A028E
:106460009B1AB3420746C0F0AB801EB1B8F1000FD3
:1064700000F0A6806368039304AA03A92046DDF810
:106480000CB023F0C6F905460028D8D1BDF810306D
:106490004B4505D06268039B9A42EDD1DEB9CEE749
:1064A00004A823F065F90028F4D1BDF8143086B1B2
:1064B000B34210D1BDF812004FEA1B410904014458
:1064C00033464246204623F005F9002803DC054602
:1064D000B5E7002BB3D0002F3FD104F1140A4FF0E1
:1064E000FF334FF0FF325046DFF8E4B01EF01CF8E7
:1064F0000023E289934260D0D4E9012178188242D6
:106500002ED3FF2306A8ADF81890ADF81A10ADF8F9
:106510001C608DF81E3023F037F936B13346424601
:10652000A168204623F0C5F905463146E06A23F00C
:1065300034F9A3681844A060002D44D106A9204670
:1065400023F000FA054600283DD13246019250461C
:106550001EF0BEF8019A154671E75744BFB2BCE77A
:106560000821E06A019323F018F94FF6FF71ADF8A6
:1065700018100021ADF81C101118ADF81A10A189DF
:1065800002EA0B020A44121A626006A823F0FCF821
:1065900006A9204623F0D6F9211DE08923F007F94A
:1065A000626802EA0B02A2602046FFF747FD02463E
:1065B0000028CBD1019B01339BE76FF01B02C5E79D
:1065C0006FF015053BE72A46C0E700BF1B2203001A
:1065D0000000FFFF2DE9FF471F46037CBDF8308018
:1065E00004468A46914643B92648452122F0E0FDFB
:1065F0006FF00C0004B0BDE8F0870821C06A23F0FA
:10660000CCF8A389A3EB4000B84238D36368019368
:10661000002502AA01A92046019E23F0FAF80028CD
:10662000E8D1BDF80830534505D102A823F0A0F801
:1066300008B90135ADB26268019B9A4218D0454550
:10664000E7D9BDF80C30BBB1454515D3BDF80A00FC
:10665000310CBB424FEA014128BF3B4601444A4648
:10666000204623F029F80028C4D1BDF80C00C1E76A
:10667000BDF808305345E4D06FF00100BAE76FF081
:106680001500B7E71B220300084B30B51D68084B07
:10669000196800239D4202DC0022104630BD1C0117
:1066A0000A190C5D8442F8D00133F3E7200E030091
:1066B0000C050020084B1B6810B50C462BB1FFF7EA
:1066C000E3FF28B12060002010BD6FF00C00FBE755
:1066D0006FF00100F8E700BF0C05002030B589B06D
:1066E0000C4615460190FFF7CFFFB8B143680293FF
:1066F00083682268C068CDE9033500230593CDE99E
:10670000062323F03BF960B101AA074928F052FCA7
:10671000079808B9059B236009B030BD6FF01500DC
:10672000FAE76FF01200F7E7819902000F4B2DE9AD
:10673000F0411C6806460F469046A4B14FF0FF3268
:106740004FF0FF330A481DF0EFFE63683A469D683C
:10675000314643462046A847044605481DF0B8FF89
:106760002046BDE8F0816FF00104F9E79C1E00208F
:106770004410002000230360044B5A6812B9C3E997
:106780000000704710605860704700BF941E0020E2
:10679000014B1860704700BF9C1E002030B585B0CB
:1067A00000230546CDE9023301904FF0FF334FF04F
:1067B000FF320B481DF0B8FE0A4B1C6834B1636809
:1067C00020461B6801A998472468F7E7284600F08F
:1067D000CBF8044602481DF07BFF204605B030BDD3
:1067E00044100020941E00201FB5CDE90101039242
:1067F0004FF0FF334FF0FF3209481DF095FE094B73
:106800001C6834B1636820461B6801A99847246856
:10681000F7E703481DF05CFF002004B010BD00BF87
:1068200044100020941E0020024B0022C3E90022E5
:10683000704700BF941E0020024B0022C3E90022D3
:10684000FFF7F2BFA01E00202DE9F34707460E46D2
:1068500009B100230B60DFF89880224CDFF8949098
:106860000025C246444508D949461F48942222F0D3
:106870009FFC9421484622F014FF544508D31B4B3B
:106880001C680CB1143CC4B9284602B0BDE8F087BE
:1068900001AA2168384623F098F860B125B90EB1F5
:1068A000019B3360254606E000222968206823F01A
:1068B0008CF80028F3D11434D4E701AA21683846B3
:1068C00023F083F860B125B90EB1019B33602546F2
:1068D00006E000222968206823F077F80028F3D129
:1068E0006469CEE79807030092200300A01E0020F1
:1068F000EC080300892303002DE9F04385B0054629
:106900000C9C03900E4617469846B4B1216879B1A5
:1069100003AA23F05AF858B9002006E0A3680093B0
:106920003A46434631460398C84705B0BDE8F08370
:10693000D4F80490B9F1000FF0D103A92846FFF76D
:1069400083FF0028E8D08468039843463A463146DE
:10695000A04703460028DFD02A464521014822F0FF
:1069600027FCD9E75F2303002DE9F8431F4F204C94
:10697000DFF8888006460025B946BC4208D9414662
:106980001C48F42222F014FCF421404622F089FE37
:106990004C4507D3184B1C680CB1143CA4B92846CD
:1069A000BDE8F8831EB9E3684BB91434E5E700226B
:1069B0003146206823F009F80028F4D1F5E798471C
:1069C000002D08BF0546F0E71EB9E3684BB96469BE
:1069D000E2E700223146206822F0F7FF0028F4D1D8
:1069E000F5E79847002D08BF0546F0E7EC080300DF
:1069F0009807030092200300A01E002089230300B3
:106A000010B5064C23783BB9FFF716FF00F064F889
:106A100008B90123237010BD0020FCE7FF3D0020D2
:106A20002DE9F047048FDFF8AC90013498B0804630
:106A30008A46A4B200F10806651EADB2B5F5004F56
:106A400045D04A2305AA2946304622F090FF04F596
:106A50007F543F34A4B20746214601230DF10B02B7
:106A6000304622F084FF002F014603DC002803DCBF
:106A70002C46E1E7002816DCB8F83830AB4209D1E3
:106A800042466B1E22F8383F4FF400410223304645
:106A9000FFF7C6FC2946304622F065FF2146304606
:106AA00022F061FFE4E718AB1F44002307F84C3CD9
:106AB0004A46CDF800A003AB05A80396ADF81040F8
:106AC000FFF71AFF0028D3D018B0BDE8F0870020E8
:106AD000FAE700BF379A02007FB501236946032019
