:10000000C05D0020814A00009D3F0200B14A00000F
:10001000B14A0000B14A0000B14A000000000000EF
:10002000000000000000000000000000CD470000BC
:10003000B14A0000000000007547000021400000A8
:10004000414A00003D780200414A0000414A000058
:10005000414A0000414A0000414A0000414A000074
:10006000414A0000414A0000414A0000414A000064
:10007000414A0000414A0000414A0000414A000054
:10008000414A0000414A0000414A0000414A000044
:10009000414A0000414A0000414A0000414A000034
:1000A000414A0000414A0000414A0000414A000024
:1000B000414A0000414A0000414A0000414A000014
:1000C000414A0000414A0000414A0000414A000004
:1000D000414A0000414A0000414A0000414A0000F4
:1000E000414A0000414A0000414A0000414A0000E4
:1000F000414A0000414A0000414A0000414A0000D4
:1001000053B94AB9002908BF00281CBF4FF0FF317E
:100110004FF0FF3000F088B9ADF1080C6DE904CE66
:1001200000F01AF8DDF804E0DDE9022304B07047BE
:10013000430803F05533C01A830803F0333300F04B
:100140003330184400EB101000F00F3000EB0020AB
:1001500000EB0040000E70472DE9F047089E044672
:100160008846002B40F085808A42154648D9B2FA6D
:1001700082F24AB1C2F1200701FA02F320FA07F72E
:10018000954047EA030894404FEA154E230CB8FB0C
:10019000FEF71FFA85FC0EFB178843EA084307FBAE
:1001A0000CF1994209D9EB1807F1FF3080F0E38098
:1001B000994240F2E080023F2B445B1AA4B2B3FBA9
:1001C000FEF00EFB103344EA034400FB0CFCA44594
:1001D00009D92C1900F1FF3380F0CB80A44540F2FF
:1001E000C88002382C4440EA0740A4EB0C040027E6
:1001F0001EB1D4400023C6E900433946BDE8F0876C
:10020000002A53D0B2FA82F2002A40F0B680491B8D
:100210004FEA154E1FFA85F80127B1FBFEFC230CAF
:100220000EFB1C1143EA014308FB0CF1994207D96C
:10023000EB180CF1FF3002D2994200F2EC808446B8
:10024000591AA3B2B1FBFEF00EFB101443EA0444AA
:1002500008FB00F8A04507D92C1900F1FF3302D2A2
:10026000A04500F2DC801846A4EB080440EA0C40EC
:10027000BEE78B4208D9002E78D00027C6E90001DE
:1002800038463946BDE8F087B3FA83F77FB98B4229
:1002900002D3824200F2BD80841A61EB0303012085
:1002A0009846002EA9D0C6E90048A6E7FFDEC7F1B0
:1002B0002005BB4022FA05FC4CEA030C01FA07F4C6
:1002C00020FA05F821FA05F34FEA1C4E48EA040427
:1002D000B3FBFEF9210C0EFB19331FFA8CF841EA2F
:1002E000034309FB08FA9A4502FA07F200FA07F1FC
:1002F0000BD91CEB030309F1FF3080F088809A458D
:1003000040F28580A9F102096344A3EB0A03A4B279
:10031000B3FBFEF00EFB103344EA034400FB08F885
:10032000A04508D91CEB040400F1FF336BD2A045B3
:1003300069D90238644440EA0940A4EB0804A0FBF0
:1003400002894C45C6464B4654D351D0002E69D045
:10035000B1EB0E0264EB030404FA05F522FA07F38D
:10036000FC401D43C6E90054002746E737463046A7
:1003700043E7184637E707461FE7C2F1200320FA94
:1003800003F7954001FA02F021FA03F34FEA154E04
:100390003843010CB3FBFEF71FFA85F80EFB173349
:1003A00041EA034107FB08F38B4204FA02F407D940
:1003B000691807F1FF3C28D28B4226D9023F294415
:1003C000CB1A81B2B3FBFEF00EFB103341EA0341BE
:1003D00000FB08F38B4207D9691800F1FF3C10D2EB
:1003E0008B420ED902382944C91A40EA074714E75C
:1003F0004145ABD2B8EB020E69EB0C020138134653
:10040000A4E76046F0E7184695E76746D8E78146D7
:100410007BE7384645E7ACF1020C2B4410E7023885
:100420002C4421E73746E8E6704700BF0000000093
:100430002DE9F8438946D0E90A71066B164D8C19EF
:100440003034A742904612A3D3E9002315D8A1FB6C
:100450000501FFF755FE20F07F40C9F80000E01BC2
:100460000BA3D3E90023A0FB0501FFF749FE20F011
:100470007F40C8F80000BDE8F883A7FB0501FFF73F
:100480003FFE20F07F40C9F8000006F13000E7E7AA
:100490008D49FD1A0700000000CA9A3B00000000C9
:1004A0002DE9F04F8DB030B918F050F906463046BE
:1004B0000DB0BDE8F08FCA4B93F84E6016F0010600
:1004C0001D4601D00C26F2E793F82D2003EB8202A3
:1004D000176B93F8392003EB8203D3F83C8047B1C4
:1004E000384626F046FF3B785A0617D4404626F099
:1004F00040FF3B7813F00E0F40F098806B6A002BA2
:10050000E0D117F091FB814630B117F099FB82469C
:1005100058B9484617F08EFB0726C8E7062126F093
:10052000F5FB0028E2D11226C1E718F0B9FB04461A
:1005300018B9504617F08AFBEBE74FF6FF73838537
:10054000C36E00F11C0B13B900F16403C36604F120
:10055000600204F15C01E06E26F0E3FB94F8722087
:10056000C4F8CC9022F0070284F8722094F83D2061
:1005700002F03F0262F07F0284F83D2094F84020B0
:10058000002363F3000284F840200622A4F87420BC
:1005900094F88020E36622F0030284F880208E2203
:1005A000C4E92E2394F8C220A4F8703022F003028C
:1005B00084F83F3063866363C4E913336365A4F84A
:1005C0007830A4F87C30A4F88C3084F88E30C4F8ED
:1005D0009C30A4F8A030A4F8B430A4F8C03084F85B
:1005E000C22084F8CB30A4F8EC3094F8EE20C5F8A3
:1005F00024B0C5E9119A63F3041284F8EE2094F84C
:100600002020C4F8143163F30002C4E94833C4E97C
:100610004633C4E90533E46184F820201AF054F825
:1006200020B16F4817F018FF032640E795F82830EF
:100630000121C3F342030DF12B008DF82B3026F07E
:100640009CFB002800F0BF803A7802F00F02022ADB
:1006500000F1FF3472D17A781032D200504300F5A5
:10066000AA72642000FB042095F820305D49ED61FA
:10067000002464F3000385F8203031232B60C5E9A2
:10068000054455A3D3E900236C60AC60A0FB0101D5
:10069000FFF736FDE860B5F84C8026F0D6FD8146C0
:1006A000B8F1000F05D13C7804F00F04631E5C42E2
:1006B0005C4195F82820EB68DFF83CB164F3000258
:1006C00012F001044FF0020A85F828200BAF464AC9
:1006D000CDF82CA053D00020CDE905250493CDE919
:1006E00000030321CDE907B7CDE902004B4652468E
:1006F00026F078FD394617F035FB002863D13B4AD8
:1007000006954AF2D833CDE904020093CDE907B744
:10071000CDE9020001904B4601220321CDF82CA027
:1007200026F060FD394617F01DFB00284BD195F8E7
:100730004E3043F0010385F84E30B8E6012A16D05A
:1007400098F801301033DB005AB97A78103203F58B
:100750002773D2009833134402F59A7204FB0230D7
:1007600082E7062A07D1797801F11002EFE7162215
:100770004FF42D73EDE710224FF4AA73E9E71C49FB
:1007800003F2471008601B48CDE90432CDE9065B4F
:100790004FF6FF731FFA88FBCDE90871CDE90243DC
:1007A000ABFB0001912303FB0B110BA3D3E9002347
:1007B000FFF7A6FC4B46CDE90040524603212046F8
:1007C00015F006FEAEE76B6A002B3FF47BAE0448E3
:1007D00017F042FE76E600BF8D49FD1A07000000C3
:1007E0007438002000CA9A3B69830100A985010082
:1007F000C4380020002AE7848D7601000000000044
:100800002DE9F04F90F82430414F044690F838001D
:1008100003F0F903C0F3400060F386138DB084F851
:10082000243004F1250115F0A3FE94F82030B4F82B
:100830003280E461002565F30003A8FB070184F81A
:100840002030912303FB0811C4E905552EA3D3E9F9
:100850000023FFF755FC31232360636B6560093388
:10086000A0F13102934232BFE360E5606563A560A9
:10087000284D064626F0E9FC02230B93651B3C231A
:10088000B5FBF3F5244BB4F832B0CDE90643234B66
:100890000593BA46E368049307469123ABFB0A012C
:1008A0004FF000080DF12C0903FB0B1116A3D3E93F
:1008B0000023CDF82090CDF80C80FFF721FC1046E6
:1008C00019464FF47A720023FFF71AFC0435EDB293
:1008D000CDE901600321CDF800803B462A46404621
:1008E00026F080FC494617F03DFA40B994F83830BC
:1008F00043F0010384F838300DB0BDE8F08F0C20D0
:10090000FAE700BFAFF300808D49FD1A0700000031
:10091000002AE784E83800208D7601003D89010037
:10092000F8B50646002015461F4618F075F804462F
:10093000F8B190F8382090F82430418667F34202ED
:1009400080F838209DF8182066F3C71362F3C403BB
:1009500080F824300A48ADB2A5FB0001912303FBC7
:10096000051105A3D3E90023FFF7CAFB606300204C
:10097000F8BD0C20FCE700BF8D49FD1A0700000000
:10098000002AE784000000002DE9F04F934690F81C
:100990008C3090F88D2093428DB0044688460BD160
:1009A00090F8A12090F8A010914224D00122023B9F
:1009B00080F88E2080F88D3094F88C2094F88D305B
:1009C000D31A03F00303022B40F0658294F88E30B3
:1009D000012B00F00E82022B00F018844FF4787285
:1009E000CA49CB4821F071FA404080F311884FF09A
:1009F000030002DF4FE290F8B53090F8B4108B425C
:100A000063D05B1ADE07D7D590F8801011F001068D
:100A10002AD017F049F905460028CDD094F8B43013
:100A200084F8B530A38DC38003230371037F43F0A3
:100A30000303037709234377C3770822002120307B
:100A400023F0AFFBD4F8BC3085F82030C3F3072285
:100A50001B0C85F8212085F822302946086817F0FC
:100A6000FBF817F003F9A7E7AA4826F00AF90546AC
:100A70000028A1D094F8B530013B84F8B5308E231E
:100A8000C4F8B830037943F00303037109234371B9
:100A900094F93D30002BACBF08230E230822C3710C
:100AA0003146104423F07DFBD4F8B8302B72C3F3E9
:100AB00007221B0C6A72AB722946204626F04CFDB9
:100AC000B4F87A30A4F87C3076E790F8C13090F82A
:100AD000C0108B425ED05B1ADD077FF56DAF90F8DA
:100AE000C23013F0010523D18A4826F0CAF8014626
:100AF00000283FF461AF94F8C130013B84F8C13065
:100B000094F8C23043F0010384F8C230037985724F
:100B100043F003030371062343710C23C3710B23BA
:100B20000372592343724FF0FF33C3720373C4E758
:100B3000980722D517F0B8F8014600283FF43CAFDB
:100B400094F8C03084F8C130A38DC38003230371AF
:100B5000037F43F003030377062343770C23C37714
:100B600094F8C33080F82030B4F8C430A0F82130B5
:100B7000B4F8C630A0F8233070E740F67A32634903
:100B8000634821F0A2F9404080F311884FF0030040
:100B900002DF11E790F8ED1090F8EC3099423FF445
:100BA0000BAF5D4D2B6813B198427FF405AF94F8FD
:100BB000EE3003F00703052B00F2188101A151F874
:100BC00023F000BFDD0B0000570C0000A30D000058
:100BD000B9090000B9090000B90900004D48E68EC6
:100BE000678E26F04EF8014600283FF4E5AE94F8F3
:100BF000EE30042262F3020384F8EE30037943F00E
:100C000003030371182343710F23C371B4F8F03049
:100C10000381B4F8F2304381B4F8F4308381B4F83E
:100C2000F630C3813E4400230374C37403755E44ED
:100C30004FF0FF33A0F8116043758375C3750376D9
:100C400043768376C376037743778377204626F00F
:100C500083FC2C6034E794F8EF60EEB12D4826F069
:100C600010F8014600283FF4A7AE037943F00303D0
:100C700003711123C371032343710F23037294F88B
:100C8000EF304372204626F067FC94F8EC3084F88D
:100C9000ED3000232B608FE694F93D30002B3DDBD7
:100CA00094F8EE30C4F8AC60052161F3020394F8C7
:100CB000F81084F8EE30012384F8B03011B3B4F8A2
:100CC000F030B3FBF1F3013313FB01F39BB2A4F853
:100CD000A430B4F8F430A4F8A630B4F8F630A4F890
:100CE000A83094F8A230022161F3010394F8EE10C9
:100CF000C1F3C00161F38203013A84F8A23084F8A1
:100D0000A12059E6B4F8F230E1E700BF6EF402002A
:100D100026A00200403D0020BC3C0020634825F096
:100D2000B0FF014600283FF447AE037943F00303C8
:100D30000371182343711023C371B4F8F030038199
:100D4000B4F8F2304381B4F8F4308381B4F8F6306B
:100D5000C38194F8F8300374B4F8FA30A0F8113075
:100D6000B4F8FC30A0F81330B4F8FE30A0F8153019
:100D7000B4F80031A0F81730B4F80231A0F81930F7
:100D8000B4F80431A0F81B30B4F80631A0F81D30D7
:100D9000204626F0E1FB94F8EC3084F8ED302E602C
:100DA0000AE616F081FF014600283FF405AE94F8EC
:100DB000EE20032363F3020284F8EE20A28D037178
:100DC000037FC28043F003030377182343770F2385
:100DD000C377B4F8F0300384B4F8F2304384B4F845
:100DE000F4308384B4F8F630C38437E640F68742A3
:100DF000C5E62F4B196801B91C60618EE68E0E4462
:100E000094F8A2105E4411F00300B6B252D0012053
:100E100016F032FF074600283DD0244825F031FF68
:100E20000546C0B316F040FF3B68D4F89C205A60DA
:100E300094F8A230C4F89C706FF3010384F8A230D8
:100E4000238E1E442B790636B6B243F00303A4F872
:100E500090602B710C236B710023EB7194F8B03010
:100E60002B7240F2E242D4F8AC30B3FBF2F3A5F8B7
:100E70000930B4F8A430A5F80B30B4F8A630A5F8C2
:100E80000D30B4F8A830A5F80F30A5F81160294648
:100E9000204626F061FB94F8C92094F8C8309A42A5
:100EA00040F0048200200DB0BDE8F08F403D0020EE
:100EB000BC3C0020B4F890100A91771ABFB23904F4
:100EC000E9D494F8A01084F8A11084F88D2094F847
:100ED000EC1094F8ED208A4209D094F8EE2002F04C
:100EE0000702052A04BF84F8ED10A4F87C001A68F4
:100EF000D4F89C50944204BF00221A600DB12B68B4
:100F00005BB940F60E12B849B84820F0DEFF404009
:100F100080F311884FF0030002DF2868B4F8A420A2
:100F20004368C4F89C30E38DB4F8A6C0B4F8A810A8
:100F30009A4213D1238E634510D140F2E24303FB62
:100F400002FE42F2107303FB01E3013BB3FBFEF32D
:100F5000B4F876E09BB29E4500F02081A38DEB8033
:100F600015232B7100232B77EA83A5F820C0698411
:100F7000294616F071FE16F079FE2368002B0ADA76
:100F8000D4E9012023F0004390422CBF80449044D8
:100F90002360A8EB0308E38DB4F8A450DFF868A23F
:100FA00013FB07F39BB2B3FBF5F11FFA81F915FBB5
:100FB00009F292B2934240F2E24080F0F280D31AFA
:100FC0005843A0FB0A0186A3D3E90023FFF798F852
:100FD00020F07F408044638E9B440A9B9E1B94F9C3
:100FE0003D304E445E44002B40F2E24B66860BFBE4
:100FF00005F580F2E480E26C636C03FB1727E7647D
:1010000026F08AFC064694F88000C0F3820019F0AE
:10101000A9FB94F8B02006440BFB02F262656E4314
:101020000022C4F8882006F57426E26C704806F2A7
:101030003F266B08B6FBF0F606FB09F0963B024430
:10104000A3649A4294BFE264E364666464A3D3E950
:101050000023A0FB0A01FFF753F8A8EB0008D4F81F
:10106000AC00B0FBFBF00BFB00F05DA3D3E9002369
:10107000A0FB0A01FFF744F8A5EB060920F07F4723
:10108000B4F8A430E385B4F8A6302386B4F8A830C9
:1010900042F2107202FB0353013BB3FBF5F3A4F8D9
:1010A0007630544B2B44B3FBF5F594F8A230A4F8FA
:1010B0007A505A0744BF0023A4F878300221012057
:1010C0001BF0FCF8002202210646012014F018FC57
:1010D000204617F0F1FD0530C5B2474B00942A4673
:1010E0000121002015F00AFA30F002030BD040F67F
:1010F000B7123D493D4820F0E8FE404080F311889A
:101100004FF0030002DFA9FB0A23CDE90A23DDE942
:101110000A0133A3D3E90023FEF7F2FF374B08940B
:10112000CDE90643364B0593E36804934FF6FE730F
:101130000393344B0A9920F07F44A4FB03ABB1EB3B
:101140000A004FF007030B9903FB04BB61EB0B0193
:101150004FF47A720023FEF7D3FF4346CDE90140F6
:1011600000972A460121002026F03CF830F00203C7
:101170000BD040F6D1121C491C4820F0A6FE40407E
:1011800080F311884FF0030002DF26B10122022113
:10119000104614F0B5FB6FF0470084E601232B7175
:1011A000E6E605FB113189B248430DA3D3E90023DC
:1011B000A0FB0A01FEF7A4FFA8EB00080BE740F62E
:1011C00087120949094820F080FE404080F31188C9
:1011D0004FF0030002DF0027A94651E7AFF300807C
:1011E0008D49FD1A070000006EF4020026A00200DF
:1011F00040420F00FF596202598B01000D8B010024
:101200003D9E01008D49FD1A00CA9A3BE38E618E16
:101210000B449B4494F89030DB071FFA8BFB25D5D9
:10122000354825F02EFD054600283FF434AE94F8ED
:1012300090306FF3000384F89030238E9B44037941
:101240000BF1060B43F00303A4F896B003710823D7
:1012500043710123C371052204F19101083022F08A
:1012600076FFB4F89630A5F80D3010E6B4F8963055
:10127000ABEB030B1BF4004F7FF40DAE04F138050C
:1012800084F88D2004F191010522284622F05FFFA9
:101290000521284625F071FD94F83D3060F30503E3
:1012A00084F83D30012384F82831F4E5124825F014
:1012B000E8FC014680B194F8C83084F8C93003795D
:1012C00043F00303037102234371C37194F8CA30DE
:1012D0000372204626F040F9B4F87C0000287FF421
:1012E000E1ADB4F87630012B02D9A4F87C30D9E511
:1012F0000133A4F87C30D6E5403D0020000000001A
:101300002DE9F04F91B01E460C903046136850F80E
:101310000C5BD3F800A00C4691462E31032206F157
:10132000080B22F014FF06F11C07042204F12A0125
:10133000584622F00CFF052204F13A01384622F00B
:1013400006FF0521384625F018FD96F8213000F0FB
:101350003F0060F30503012886F8213040F22A811E
:1013600094F83F30C3F3040386F82230053B03F0C2
:10137000FF030B2B00F21E81D9F800304FF000085C
:10138000C3F80880A78E778294F8372094F8363017
:1013900043EA0223B382638E0B9340F2E2435F433E
:1013A00094F83F3095F880205B0963F3840285F858
:1013B000802026F0B1FA0D9095F88000C0F38200ED
:1013C00019F0D0F90D9B1844784300F574207E4B3A
:1013D00000F23F20B0FBF3F07B08963BF36294F8F9
:1013E0003130B06240F2E2425343F363238F0D93F6
:1013F00042F2107202FB0372013AB2FBF7F2A5F857
:101400007620724A59463A4405F18400B2FBF7F25D
:10141000A5F87A20042222F09AFE94F81CB004F178
:101420001E0106220EA822F092FECBF3801B4FF481
:101430008072A28384F81EB00EA9062204F11F0058
:1014400022F085FE728A0D9BE284B28A638595F84C
:1014500080302285C3F3820384F82C30284617F0AD
:101460002BFC21463082E0800C98594C16F0F4FB9E
:1014700016F0FCFB4146404626F022FA3123834613
:1014800000F252402B60C5F804804DA3D3E900233D
:10149000C5F80880A0FB0401FEF732FEB36A0B9981
:1014A000FF1AD9F80C3040F2E24202FB013320F07F
:1014B0007F4003F28633A3EB0B0342460221E86030
:1014C00001200B9314F01CFA504617F01DF9821CF2
:1014D000404BCDF800A0D2B20121404615F00EF8E5
:1014E000514618F091FC9AF82830DB0707D5012205
:1014F000CDF8008043461146404614F0FFFF2846D1
:1015000017F0DAFBA7FB04672DA3D3E9002380467D
:1015100039463046FEF7F4FDD9F80830A3F1310919
:101520004FF4B67308932C4BCDE906532B4B059320
:10153000EB6804932A4B20F07F45A5FB03BC0723EF
:1015400003FB05CCB6EB0B0067EB0C014FF0000A78
:101550004FF47A720023CDF80CA0FEF7D1FD0B9961
:1015600017A3D3E90023CDE90150A1FB0401FEF745
:10157000C7FD08F1050820F07F405FFA88F8009069
:101580004B4642460121504625F02CFE30F0020326
:101590000BD04FF4B7721349134820F096FC40402B
:1015A00080F311884FF0030002DF01220221104670
:1015B00014F0A6F911B0BDE8F08F00BFAFF30080C2
:1015C0008D49FD1A0700000040420F00FF596202DA
:1015D00000CA9A3B099E0100E19D01003D9E010069
:1015E0008D49FD1AC0F4020026A002000000000090
:1015F0002DE9F04F8FB083460DF137010DF1360024
:1016000025F0B0FEDFF8D8809DF836300A939DF8BB
:1016100037300B93DFF8CC9025F017FED8F8004058
:10162000A4FB094528A3D3E9002382462946204686
:10163000FEF766FD0646D8F80400254B0593002703
:1016400021A3D3E90023A0FB0901CDF818B0CDE90F
:101650000777FEF755FD1F4B26F07F46A6FB03BC20
:1016600020F07F40072303FB06CCCDE90370B4EBE9
:101670000B0065EB0C014FF47A720023FEF740FD7E
:101680005346CDE9016000970B9A0A98032125F093
:10169000A9FD30F0020314D10F4A104800231EF0B8
:1016A00029FB58B19DF837209DF8360003211BF027
:1016B0006BFE6FF03B000FB0BDE8F08FD8F80C0068
:1016C000F9E76FF04700F6E78D49FD1A07000000C3
:1016D0002DD401008D49FD1A447B0B0014420020DB
:1016E0000442002000CA9A3B38B50F4D044625F04D
:1016F000ACFDA96825F0ABFD0C49B0FBF4F4044443
:10170000686807A3D3E90023A0FB0101FEF7F8FCFA
:1017100020F07F40844294BF0020012038BD00BFEC
:101720008D49FD1A070000000442002000CA9A3BC0
:10173000014820F0CABB00BF9C9D0200014820F078
:10174000C4BB00BF5B9D020008B5024820F0BDFB92
:10175000002008BD339D020008B50146024820F074
:10176000B4FB002008BD00BF8C9D0200082808B50E
:1017700004D1064820F0A9FB002008BD012801D1B2
:101780000348F7E76FF02200F7E700BF6A9D020009
:101790007A9D020010B5254820F097FB244820F0E0
:1017A00094FB244820F091FB234C1021204621F08B
:1017B000F1FA62782378134062791340FF2B0DD140
:1017C0001E4B1A7822705A7862709A78A270DB7871
:1017D000E3701B4B1A7822715B78637100F0CEF8CE
:1017E0000146184824F021F8014620B11648BDE80A
:1017F000104020F06ABB154820F067FB144820F029
:1018000064FB21F09CF9032012F0BCFB10F1450FA2
:10181000014606D10F4820F058FB0F4B01221A70E9
:1018200010BD08B10D48E2E70D48F4E7489C0200FE
:10183000629C0200809C0200AA430020A4000010C9
:10184000A8000010680400208E9C0200B19C0200D9
:10185000C39C0200D49C0200BA430020FD9C0200FD
:101860001B9D020038B50F480F4D20F02EFB0F488E
:1018700005F0B6FB04462B7833B15CB121460C4829
:10188000BDE8384020F021BB00214FF4A4701EF0C9
:10189000BFF9F0E7074820F018FB0748BDE83840DB
:1018A00020F013BBE89B0200BA430020951700000C
:1018B000FF9B02001F9C0200369C0200014820F0A2
:1018C00004BB00BFB99D0200014820F0FEBA00BF72
:1018D000CA9D02002DE9734326F0C7FF4FF47A73C7
:1018E000A0FB0345164803FB0155D0E90010E20BAD
:1018F00042EA4542B2EB01084FEAD5334FF47A721F
:1019000063EB00090023424573EB09034FF0000627
:1019100012DACDE9006600F097FB33468DF800003F
:101920006A463146074826F017FE00F071FB80F04A
:101930000100C0B200F05CFB02B0BDE8708300BFE4
:1019400088110020800000202DE93048107800F038
:1019500065FB26F08AFF4FF47A75A0FB05BC05FBFA
:1019600001CC054C4FEADB3242EA4C424FEADC3311
:10197000C4E90023BDE830888811002010B5064C6A
:10198000204600F065F9204600F022FA034800F0F6
:10199000BFF9034810BD00BFD51800006D1D02003F
:1019A000D88F0200034A137883F001031370024BAF
:1019B0001B681847BB43002028220020034A1378E5
:1019C00083F001031370024B1B681847BE430020CD
:1019D0006C220020034A137883F001031370024B3A
:1019E0001B681847E80D00205822002002F4C0436D
:1019F000B3F5C04F2DE9F04705460F461446D0E930
:101A000001A8D0F80C904FD12D492E484FF4F67212
:101A100020F05BFA4FF4F671294820F008FD04F439
:101A2000E823B3F5C82F0AD1254926484FF4FB72A5
:101A300020F04BFA4FF4FB71214820F0F8FC04F43D
:101A4000C823B3F5804F0AD11D491E4840F2FB124E
:101A500020F03BFA40F2FB11194820F0E8FC012687
:101A6000DAF80030BE401E420AD11549154840F24E
:101A7000FF1220F02AFA40F2FF11114820F0D7FCA3
:101A8000230405D5D9F800301E4218BF84F4C024C1
:101A9000D8F8186004F4C02304F4B032394628465C
:101AA000B446BDE8F0476047002BB8D1044905486B
:101AB00040F2EF1220F009FA40F2EF11ACE700BF5C
:101AC000FC9F020026A002002DE9F84302F030033B
:101AD000302B064688461446D0F80490C7680AD1D1
:101AE0002149224840F22B2220F0EFF940F22B212D
:101AF0001D4820F09CFC14F440650CD0A3050AD4CA
:101B000019491A4840F2362220F0DFF940F2362116
:101B1000154820F08CFCE00404D51DB1E10748BF56
:101B200084F4E054012303FA08F5D9F800301D428B
:101B30000AD10D490D4840F2452220F0C6F940F285
:101B40004521094820F073FCB36822461B684146D2
:101B50003046984728B93B68E2074CBF2B43AB435C
:101B60003B60BDE8F88300BFFC9F020026A0020096
:101B700043682DE9F0411B68C76801258D401D426F
:101B8000044616460AD11549154840F2EB3220F0BA
:101B90009CF940F2EB31114820F049FC3B681D42B2
:101BA00063681B6818BF86F001061D420AD10B4905
:101BB0000B4840F2C13220F088F940F2C1310748A9
:101BC00020F035FC36B1A368DB6829462046BDE825
:101BD000F0411847A3681B69F7E700BFFC9F0200AC
:101BE00026A00200054B1B68834206D14FF48042B9
:101BF0000023034903481EF0AFBA70474C2200206F
:101C0000C011002070210020054B1B68834206D1C3
:101C100041F2C3520023034903481EF09DBA7047A6
:101C2000382200209011002070210020054B1B68F5
:101C3000834206D14FF480420023034903481EF03B
:101C40008BBA704750220020F01100207021002034
:101C50002DE9F04107462148214D20F099F82860F0
:101C600028B91E491F48BDE8F04120F02EB90621D1
:101C70001D4A1E4EFFF728FF0146306030B1174A5B
:101C80001B480623BDE8F04120F01FB928684FF437
:101C9000B8220621FFF7AAFE0446306020B10146B3
:101CA00006230E4A1348EDE71349144B4B6028688E
:101CB00040238B6020F064F806220849104820F089
:101CC00004F9104B1F60104B30222146184622F0B9
:101CD00068FA0E4A4260BDE8F08100BFDA9D02005A
:101CE00038220020E19D0200110108006822002036
:101CF000FF9D0200289E02002C220020091C0000EB
:101D00005E9E02002822002090110020A5190000EC
:101D10002DE9F04107462248224D20F039F828608D
:101D200028B91F492048BDE8F04120F0CEB80D2168
:101D30004FF49072FFF7C8FE1C4E0146306030B180
:101D4000174A1B480D23BDE8F04120F0BEB82868B3
:101D50004FF4B8220D21FFF749FE0446306020B150
:101D600001460D230E4A1348EDE71349134B4B6010
:101D700028684FF400538B6020F002F80D220849C8
:101D80000F4820F0A2F80F4B1F600F4B3022214666
:101D9000184622F006FA0D4A4260BDE8F08100BF05
:101DA000DA9D020050220020E19D020068220020FE
:101DB000FF9D0200289E0200702200202D1C0000C2
:101DC0009C9F02006C220020F0110020BD19000031
:101DD0002DE9F04107462248224D1FF0D9FF286027
:101DE00028B91F492048BDE8F04120F06EB80F2106
:101DF0004FF49072FFF768FE1C4E0146306030B120
:101E0000174A1B480F23BDE8F04120F05EB8286850
:101E10004FF4B8220F21FFF7E9FD0446306020B1EE
:101E200001460F230E4A1348EDE71349134B4B604D
:101E300028684FF400438B601FF0A2FF0F2208496F
:101E40000F4820F042F80F4B1F600F4B3022214605
:101E5000184622F0A6F90D4A4260BDE8F08100BFA5
:101E6000DA9D02004C220020E19D02006822002041
:101E7000FF9D0200289E02005C220020E51B00005E
:101E8000819F020058220020C0110020D5190000B7
:101E900010B52A481FF07CFF294A106020B9294854
:101EA000BDE8104020F011B8062141F20162FFF7B1
:101EB0000BFE254C00280146206004DA2348BDE8CB
:101EC000104020F002B81D481FF062FF204A106049
:101ED00008B92048E4E7082141F20162FFF7F4FD68
:101EE00000280146206001DA1B48E8E71B481FF084
:101EF0004FFF1B4A106008B91A48D1E7092141F287
:101F00000162FFF7E1FD00280146206001DA164872
:101F1000D5E70A481FF03CFF144A106008B914487E
:101F2000BEE70C2141F20162FFF7CEFD0028014619
:101F3000206001DA0F48C2E710BD00BF7A9E0200A0
:101F40003C220020819E020068220020959E020013
:101F500040220020C19E0200D59E0200DA9D0200B0
:101F600044220020019F0200159F02004822002009
:101F7000419F0200559F020008B50D481FF008FF61
:101F80000C4A106020B90C48BDE808401FF09DBF06
:101F90000A214FF4B052FFF797FD084B0028014685
:101FA000186004DA0648BDE808401FF08EBF08BD7F
:101FB000DA9D020054220020B89F0200682200200F
:101FC000CE9F0200054B10B5024604460821186852
:101FD000FFF7CEFD024B1C7010BD00BF4022002059
:101FE000BC430020014B1878704700BFBC43002061
:101FF000054B10B50246044609211868FFF7B8FDE5
:10200000024B1C7010BD00BF44220020BD430020C5
:10201000014B1878704700BFBD430020054B10B539
:10202000024604460A211868FFF7A2FD024B1C7005
:1020300010BD00BF54220020E90D0020014B18788C
:10204000704700BFE90D0020114B37B51C6863686D
:102050001B689B040AD40F490F4840F29F321FF0BF
:1020600034FF40F29F310B4820F0E1F9E568A368A6
:1020700001A95B682046984720B92B680198584011
:10208000C0F34030003018BF012003B030BD00BFA6
:1020900050220020FC9F020026A0020008B509483B
:1020A0001FF013FF4FF080530748D3F8A4201146C8
:1020B0001FF00BFFFFF7ECFEFFF75EFFBDE80840E7
:1020C000FFF7D0BB3EA0020057A0020010B5094C9C
:1020D0000A44914200D110BD11F8013B4340180958
:1020E000205C80EA0310C3B21809205C80EA031068
:1020F000C0B2EEE793A00200436870B503F003039B
:102100000546022B0E46A96010D0032B04D0012BEC
:102110000FD10024204601E00468002000236B60FA
:1021200010B131461EF0CAFE204670BD0068002482
:10213000F4E74522044905481FF0C7FE452102483F
:1021400020F075F90024E8E7A3A0020026A0020011
:102150000B6801330B60014B1B68184738050020E2
:1021600007B50023019302460B46034801A900F07E
:1021700047FC03B05DF804FB5121000030B585B089
:10218000CDE901010446002501A90548039500F0A9
:1021900037FCDDE902309842B8BF255405B030BDA8
:1021A000A51E02002DE9F74FB0F81C8018F0080FAB
:1021B000044693461CD001290CBF48F0100848F093
:1021C0002008A0F81C8004F114001DF05BFF40B94A
:1021D000B949BA48A7221FF078FEA721B64820F0D7
:1021E00026F98BF31188BFF36F8F03B0BDE8F08F32
:1021F000B34EDFF8C89208F00708022906D120463E
:102200001FF07DFE0028DED0012861D1D4F818A08F
:10221000A38BBAF1000F19DA0027256823F0070312
:10222000C4E9007743F00103A383A38B03F0070203
:102230004245009203D0A268002A40F0EF8015B911
:10224000002F00F029814FF00008E9E003F00702B9
:10225000511F01291ED8002123F00703062A2568F3
:102260009BB2C4E900110AD13DB1E28B294609684D
:10227000013292B20029FAD1E28343F00203A38330
:1022800020461FF03CFE18B1A38B43F02003A3832C
:102290000027CAE7042A0FD123F007039AB2A283CA
:1022A00020461FF02CFE002800F0B68042F02002ED
:1022B000A28300252F46B8E73146484640F219125E
:1022C0001FF003FE40F21911304620F0B0F8F0E79D
:1022D000032831D1B8F1000F0AD0314648464FF4F7
:1022E000AA721FF0F2FD4FF4AA71304620F09FF859
:1022F000236853B93146484640F255121FF0E5FDB8
:1023000040F25511304620F092F823691F6857B902
:10231000314648464FF4AC721FF0D7FD4FF4AC7114
:10232000304620F084F8A38B23F0070343F0060324
:10233000A3830025AA4678E704282ED1B8F1020F1E
:102340000AD03146484640F25B121FF0BEFD40F213
:102350005B11304620F06BF8E38B53B131464846B1
:102360004FF4AE721FF0B1FD4FF4AE71304620F065
:102370005EF823695F6857B93146484640F25F12FC
:102380001FF0A3FD40F25F11304620F050F8A38B00
:1023900023F0070343F00403CAE705282ED1B8F160
:1023A000010F0AD0314648464FF4B1721FF08DFD3F
:1023B0004FF4B171304620F03AF8236853B93146F2
:1023C000484640F263121FF080FD40F26311304630
:1023D00020F02DF823699F6857B9314648464FF4DD
:1023E000B3721FF072FD4FF4B371304620F01FF846
:1023F000A38B23F0070343F0050399E740F269122A
:10240000314648461FF061FD002540F26911304613
:1024100020F00DF82F468DE705464BE74FF00108F9
:1024200043F00803A38304F11403184601931DF03D
:1024300029FE40B920494846A7221FF046FDA721A2
:102440001D481FF0F4FF8BF31188BFF36F8FB8F1B5
:10245000000F39D1002D49D117B11A492046B8478C
:102460004FF02003EFF3118B83F31188BFF36F8FCD
:1024700001981DF0F9FD40B90F4948467C221FF034
:1024800024FD7C210C481FF0D2FF01981DF00AFEAC
:10249000A38B23F00803A383A38BDA0630D523F0A4
:1024A0001003A3830121B4F81C8008F00708002959
:1024B0007FF4A3AE87E600BFE8A0020026A00200DA
:1024C000C6A0020011250000A1680029C2D0D1F8E1
:1024D0000080D1F804B0009A53462046D847B8F19E
:1024E000000FB7D04146D8F80080F2E7D5F8008059
:1024F000009A2946534620461FF01DFD4546A9E790
:1025000013F020011EBF23F02003A3830221CAE79A
:10251000F8B504460F4600F114054FF02003EFF321
:10252000118683F31188BFF36F8F28461DF09CFD41
:1025300040B90A490A487C221FF0C7FC7C210748A1
:102540001FF075FF28461DF0ADFDA76132462046FD
:102550000121BDE8F840FFF725BE00BFE8A002005A
:1025600026A002002DE9F047044688461FF0F9FC3A
:10257000061E52DB04F114094FF02003EFF3118A19
:1025800083F31188BFF36F8F48461DF06DFD40B98E
:10259000324933487C221FF098FC7C212F481FF0E1
:1025A00046FF48461DF07EFDE38BA28B4FF6FF7180
:1025B0008B4202F007054AD0022D1CD10133E38380
:1025C0002E46012748461DF05DFD40B923492448A9
:1025D000A7221FF07AFCA72120481FF028FF8AF3CA
:1025E0001188BFF36F8FC7B100232A4641462046AA
:1025F0001FF0A1FC11E0930701D0062D10D100239C
:10260000C8F800306368EBB9C4E900882E4605BB02
:10261000524602212046FFF7C5FD3046BDE8F0874F
:10262000052D18D0012D0AD00E490D4840F2C512D3
:102630001FF04BFC40F2C5110A481FF0F8FE6FF086
:10264000040606E0C3F80080C4F80480DEE76FF0FB
:102650000A060027B6E76FF02206FAE7E8A00200B4
:1026600026A00200C6A0020070B5044600F11405C1
:102670004FF02003EFF3118683F31188BFF36F8FC0
:1026800028461DF0F1FC40B9224923487C221FF066
:102690001CFC7C211F481FF0CAFE28461DF002FDCD
:1026A000A38B03F00703022B17D0012B0CBF6FF095
:1026B00004046FF0220428461DF0E4FC40B91549DB
:1026C0001548A7221FF001FCA72112481FF0AFFEFA
:1026D00086F31188BFF36F8F17E0E38B53B90F496F
:1026E0000D484FF4F6721FF0F0FB4FF4F6710B48F3
:1026F0001FF09DFEE38B013B9BB2E3833BB9204679
:1027000032460221FFF74EFD0224204670BD02240E
:10271000D1E700BFE8A0020026A00200C6A0020088
:102720002DE9F041164DDFF85C8007464FF0FF328F
:102730004FF0FF3338461CF02FFA04460028F5D03E
:10274000466846B9294640461C221FF0BEFB1C21A4
:1027500028461FF06CFEBFF35B8F04F1080353E8BB
:10276000002F22F0010143E800100028F7D1BFF349
:102770005B8FD30701D52046B0471DF03BF9D5E765
:102780000EA1020026A0020070B5002937D005680E
:10279000AB68B3F5004F2CBF082404240C1B641B4A
:1027A000E408214628461FF01EFC40B9144915488C
:1027B0009B221FF08AFB9B2111481FF038FE214607
:1027C00028461FF017FC26180022314628461FF025
:1027D000F4FB301A844208D009490A48A4221FF0A9
:1027E00074FBA42106481FF022FE21462846002241
:1027F0001FF006FC2146BDE870401FF044BD70BDCF
:1028000031A1020026A002002DE9F04701F1FF3AB4
:102810001AEA010F064689461446056808D032496F
:102820003248FC221FF051FBFC212F481FF0FFFD16
:10283000AA68B2F5004F2CBF08230423994505D898
:1028400021463046BDE8F0471FF05BBD1CB90027AC
:102850003846BDE8F087B2EBD40FF8D909EB040194
:10286000C91A28461FF0E8FB014628461FF085FCE0
:1028700080460028EBD0AB68B3F5004F2CBF08268C
:10288000042606EBC0072F445744C9F1000907EAA4
:102890000907BE1B3C44761B0734F60824F00704E6
:1028A000641BB0424FEAE40408D20146324628468F
:1028B0001FF0F6FB414628461FF0A0FC3146284693
:1028C0001FF098FB3044844208D231462846224605
:1028D0001FF0E6FB214628461FF090FC01223146FE
:1028E00028461FF08DFBB3E731A1020026A00200AD
:1028F000B2F5802FF8B507460D4616460ED2042ACB
:102900000AD83D493D484FF4B6721FF0DEFA4FF445
:10291000B67139481FF08BFD042300E00823F61A36
:10292000EC1D354424F0070425F007052D1B172D59
:102930004FEAD5060AD83049304840F275121FF0E8
:10294000C4FA40F275112C481FF071FD00220023DB
:102950003C60C4E900230023E3603146A6602046C2
:102960001FF074FB01218500471C20461FF064FB0B
:102970001B35ED082844B0420AD31F491F4840F2D6
:1029800081121FF0A2FA40F281111B481FF04FFD87
:10299000002304F110021946BB4229DB2A462046D7
:1029A00000211FF045FB771B2046012200211FF06C
:1029B00027FB3A4629461FF03BFB2B46294620467B
:1029C00000221FF005FB3146204600221FF030FB9D
:1029D0003B463146204600221FF0FAFA3146204697
:1029E00001221FF00DFB2946BDE8F8401FF006BC90
:1029F00042F8041B0133CFE731A1020026A00200F8
:102A00002DE9F04F93B08A46039093461C4600256B
:102A10009BF8000008B9284617E325280BF10107A9
:102A200007D05146039B98470028C0F20E8301351A
:102A300000E2182200210CA821F0B3FB9BF8013022
:102A4000252B7CD00022CDE90422BC4610469146BD
:102A5000174690461646964663461CF8011B2B29DE
:102A600000F09F8000F29580202900F09D802329AE
:102A700000F09D802EB19DF838606EF382068DF8CF
:102A800038602FB19DF8386068F3C3068DF8386060
:102A900028B19DF8380069F304108DF838000498C7
:102AA00028B19DF8380040F020008DF8380032B190
:102AB0009DF83820059860F386128DF838209DF82F
:102AC000382002F04400442803D16FF386128DF8B9
:102AD00038209DF838202A2942F080028DF83820CD
:102AE00040F081805A1C9DF8393043F001038DF885
:102AF000393013782E2B9DF839300CBF012100217D
:102B000061F341038DF8393079D153782A2B6FD096
:102B1000013200210A26104610F8013BA3F13007CC
:102B2000092F40F293809DF838301091C3F3400094
:102B300040EAD17161F341038DF838305FE00BF169
:102B400002078DF83B309DF83930D90740F11981E3
:102B500054F8049BB9F1000F07DA9DF8382042F0D1
:102B600004028DF83820C9F100095A0740F112819A
:102B7000234653F8048BB8F1000F80F225819DF8AD
:102B800039206FF341028DF839201C464FF0FF3891
:102B900005E12D290ED030297FF46CAF012205927A
:102BA0005AE70127B84657E70120814654E7012339
:102BB000049351E70126B6464EE70CFB010130397C
:102BC0003246164616F8010BA0F13007092FF4D94A
:102BD00093428ED09DF838300F91C90F61F34103B5
:102BE0008DF8383085E71A4600214FF00A0CE8E7E7
:102BF0009DF8393043F004038DF83930023217461E
:102C000017F8013B6A2B47D025D84C2B50D0682BA6
:102C10002ED0174617F8012B8DF83B20672A9DF818
:102C2000393060D8652A55D2582A00F098804CD89F
:102C3000412A4FD002D3453A022A4BD99DF8383069
:102C400043F001038DF8383000236AE006FB0131C0
:102C5000303902465FE7742B26D07A2B20D06C2BBC
:102C6000D7D153786C2B9DF8393013D1042105E06E
:102C70005378682B9DF8393006D1012161F3C603E2
:102C80008DF83930971CC5E7022262F3C6038DF830
:102C90003930BFE70322F8E79DF839300522F4E721
:102CA0009DF839300622F0E79DF839300722ECE72D
:102CB000BDF8383023F4F04323F0020343F480439B
:102CC00043F00203ADF83830A4E7632A47D012D8A6
:102CD000612AB3D19DF83A30042262F302038DF8E1
:102CE0003A3001231DE0702A2CD024D86E2A3AD025
:102CF00035D8692AA2D19DF83A10012003F0780353
:102D000060F30201402B8DF83A1002BF9DF8381095
:102D100041F001018DF83810632A95D1003318BFB6
:102D200001239DF83820C2F340010B4363F34102B5
:102D30008DF8382007E7752A11D0782A0FD0732A2A
:102D40007FF47CAF9DF83A20032113F0780F61F3F4
:102D500002028DF83A2014BF01230023E1E79DF819
:102D60003A100220CAE79DF83A2003F07803A3F155
:102D70004000032161F3020243428DF83A204341AF
:102D8000CFE79DF93820002AB4BFDDF83C904FF022
:102D9000FF39EAE69B077FF5F9AEDDF840809DF844
:102DA00039200023CDE90F339DF83A3003F00703B3
:102DB000012BC2F3C3023FD1D31E042B14D8DFE88A
:102DC00003F0050D0D1313001C46E8E7234653F8E6
:102DD000040BC117CDE90C011C461CE0073424F09C
:102DE0000703F3E80201F5E72346012A53F8040B31
:102DF0004FEAE071CDE90C011C4605D19DF8303059
:102E00000C9300230D9306E0022A04D1BDF9300093
:102E1000C117CDE90C019DF8383013F003063FD0FF
:102E20003B465A46514603981FF0EBFA0028C0F281
:102E30000C810544BB46EBE5022B20D1D31E042BAD
:102E40000ED8DFE803F00309090D0D0020680C908F
:102E50000021231D0D91BFE7E31D23F00703C0E709
:102E60002346012A53F8041B0C914FF000010D91E9
:102E70001C46C3D0022ACED1BDF83030C0E7042BA7
:102E800007D1E31D23F00704F4E80201CDE90C01AA
:102E9000C1E7032BBFD1234653F8041B0C919BE7DA
:102EA0009DF83B006E2800F0A8803CD8632871D0C4
:102EB00022D825283FF4B5AD5828BBD10DF12E03FB
:102EC00000930EAA06ABDDE90C011FF04DFA834614
:102ED000B8F1000F0DF12E000CDB9DF83820A0EBAF
:102EE0000B036FF3861298458DF8382002D9A8EBB2
:102EF00003030F93804645E0642801D0692899D1E7
:102F00001E0778D413F0100618BF2026DDE90C2325
:102F1000002A73F10001D1DA524263EB4303CDE999
:102F20000C232D26CAE7732820D01BD86F28C5D0C4
:102F300070287FF47FAF0C98002873D00DF12E031A
:102F400000930EAA06AB31461FF00EFABDF83A30D8
:102F500003F0EF0343F4F04343F010038346ADF86E
:102F60003A30B5E77528A9D07828A6E7B8F1000F60
:102F7000DDF830B00ADB4146584621F09DF80BEBF6
:102F800000080026BBF1000F0BD153E7584621F093
:102F90008CF8F4E70C9B8DF818300DF119080DF141
:102FA000180BA8EB0B0306B101339DF83A20D006AD
:102FB0003ED5023352060F9948BF109A0B4448BFC2
:102FC0009B18B9F1000F4DDD9DF83820A9EB0309DE
:102FD000C2F380030493002B44D1500638D546B188
:102FE00051463046039B984700282EDB049B013551
:102FF0001E4630232DE02B2688E70C9B072A3FF640
:1030000019AFDFE802F00D04060D08080D0D1D7064
:1030100010E71D800EE72846E917C3E9000109E71C
:103020001D6007E7DFF8C8800646A8F1050BB8E782
:10303000110748BF0133BDE7184604935146039B6F
:10304000984700284A46049B05DA13B0BDE8F08F84
:1030500020234A464D44002AA5EB020102F1FF3924
:10306000EADC0D4636B151463046039B98470028AE
:10307000EBDB01359DF83A30D90601D41A0706D5A5
:1030800051463020039B98470028DEDB01359DF830
:103090003A30DB0607D551469DF83B00039B984725
:1030A0000028D2DB01350F9E2E44731B002B16DC4B
:1030B00043465A46514603981FF0A3F90028C4DB43
:1030C0000544A944A9EB0503002B7FF7B3AE514695
:1030D0002020039B98470028B7DB0135F2E75146D3
:1030E0003020039B98470028AFDB0135DDE700BFA8
:1030F00057A102002DE9F04F85B00D4617460A464C
:1031000002A904461FF033FAB0F1000873DB94F80B
:103110003630012B1FFA88F606D9591E013D5A4256
:103120000E441D4416401540012B86BF5A421340E1
:1031300001232DB21D44082EADB208DD35493648B5
:103140004B221EF0C2FE4B2132481FF070F904F1F1
:103150000C0A4FF0FF324FF0FF3350461BF092FA4B
:103160008046002853D1D4E9091333444A682B44DC
:1031700093422BD994F806B0814620461FF0A9FB54
:10318000236AB9F1000F08BF81469842014638D042
:10319000C34508F1010332DCB9F1000F31D006F16B
:1031A0000803D9F804202B449A422AD3A28E013274
:1031B00092B2494620461FF01CFA8046C0B9082347
:1031C000A362A38EC4F824900133A386009602ABB9
:1031D000D4E9091220461FF098F98046A0B9636A25
:1031E0003B60A36A7B60A36A1E44BE602E44A66255
:1031F00050461BF01BFB404605B0BDE8F08F9846DB
:10320000BBE76FF01B08F3E76FF00408F0E76FF01F
:103210001508F0E758A1020026A00200084B30B5BF
:103220001D68084B196800239D4202DC00221046ED
:1032300030BD1C010A190C5D8442F8D00133F3E75C
:10324000589002003C050020084B1B6810B50C4646
:103250002BB1FFF7E3FF28B12060002010BD6FF015
:103260000C00FBE76FF00100F8E700BF3C05002011
:1032700030B589B00C4615460190FFF7CFFFB8B1C5
:103280004368029383682268C068CDE90335002350
:103290000593CDE906231FF0BCFB60B101AA0749E5
:1032A00024F045FF079808B9059B236009B030BD9D
:1032B0006FF01500FAE76FF01200F7E7172A020027
:1032C0000F4B2DE9F0411C6806460F469046A4B10D
:1032D0004FF0FF324FF0FF330A481BF0D3F9636819
:1032E0003A469D68314643462046A847044605486D
:1032F0001BF09CFA2046BDE8F0816FF00104F9E76D
:10330000842200204C0F002000230360044B5A68E5
:1033100012B9C3E90000704710605860704700BFE1
:103320007C220020014B1860704700BF84220020DF
:1033300030B585B000230546CDE9023301904FF04A
:10334000FF334FF0FF320B481BF09CF90A4B1C680F
:1033500034B1636820461B6801A998472468F7E7E1
:10336000284600F0CBF8044602481BF05FFA2046DE
:1033700005B030BD4C0F00207C2200201FB5CDE9E8
:10338000010103924FF0FF334FF0FF3209481BF069
:1033900079F9094B1C6834B1636820461B6801A9A0
:1033A00098472468F7E703481BF040FA002004B070
:1033B00010BD00BF4C0F00207C220020024B0022D9
:1033C000C3E90022704700BF7C220020024B00228C
:1033D000C3E90022FFF7F2BF882200202DE9F3475E
:1033E00007460E4609B100230B60DFF89880224C97
:1033F000DFF894900025C246444508D949461F4845
:1034000094221EF062FD942148461FF010F85445A6
:1034100008D31B4B1C680CB1143CC4B9284602B03D
:10342000BDE8F08701AA216838461FF08FFB60B124
:1034300025B90EB1019B3360254606E000222968BC
:1034400020681FF083FB0028F3D11434D4E701AACD
:10345000216838461FF07AFB60B125B90EB1019B97
:103460003360254606E00022296820681FF06EFBC5
:103470000028F3D16469CEE7D08B020026A00200B9
:1034800088220020248D0200C3A102002DE9F04310
:1034900085B005460C9C03900E4617469846B4B17D
:1034A000216879B103AA1FF051FB58B9002006E04A
:1034B000A36800933A46434631460398C84705B08F
:1034C000BDE8F083D4F80490B9F1000FF0D103A95E
:1034D0002846FFF783FF0028E8D084680398434616
:1034E0003A463146A04703460028DFD02A46452108
:1034F00001481EF0EAFCD9E799A102002DE9F84342
:103500001F4F204CDFF8888006460025B946BC4294
:1035100008D941461C48F4221EF0D7FCF42140464D
:103520001EF085FF4C4507D3184B1C680CB1143CAA
:10353000A4B92846BDE8F8831EB9E3684BB9143432
:10354000E5E70022314620681FF000FB0028F4D197
:10355000F5E79847002D08BF0546F0E71EB9E36878
:103560004BB96469E2E70022314620681FF0EEFAA9
:103570000028F4D1F5E79847002D08BF0546F0E78D
:10358000248D0200D08B020026A002008822002099
:10359000C3A1020010B5064C23783BB9FFF716FF14
:1035A00000F094FA08B90123237010BD0020FCE755
:1035B000BF4300202DE9F04F8BB08A4602932A4B7F
:1035C000197B019180461546002A46D01646994639
:1035D00010230593019B98FBF3F45C43D9F800702A
:1035E000159805AB06AA2146B8470746002837D1EB
:1035F000A8EB040B059C06ABA4EB0B049B44149BAB
:10360000B44228BF344623B322461978584620F0E6
:10361000EAFD00B3A0EB0B040123224659465046B5
:10362000039320F094FD059A039B0F2AA6EB040652
:1036300004D91BB9A244A044002EC9D1029AAD1BE3
:103640001560149A0AB183F0010738460BB0BDE843
:10365000F08F149BE1E73B46DFE76FF01507F4E7D7
:103660006FF00407F1E700BF902200202DE9F04F32
:10367000DFF8B8A087B09AF80C70019383468946AA
:10368000904620F012FDB0FBF7F407FB1404051B75
:103690002B465A4601991098DAF80460B047019B0E
:1036A0002B4401932CB122460BEB050102A820F01C
:1036B0004EFD06AB23443D2203F8102C01340F2CA1
:1036C0000DD90025234602AA01991098DAF8046062
:1036D000B04730BB3DBB019B234401932C46B8F15E
:1036E000000F0FD0C4F11005454528BF454602AB79
:1036F000494618192A4620F02AFDA944A8EB0508D6
:103700002C44DCE7B4FBF7F507FB15453DB17D1B09
:1037100002AB18192A46414620F043FD2C440125EE
:10372000D0E76FF0040007B0BDE8F08F90220020D2
:10373000034B10B59B68044608469847001B10BD14
:10374000902200202DE9F04786B0194FDDF838802F
:1037500081460D4692461E466FF01500B8F1000FE7
:1037600002D106B0BDE8F0874346102B28BF1023D6
:10377000019302AA01AB314650463C68A04700289D
:10378000EFD1019B397BB3FBF1F201FB12320AB19D
:103790000B449B1A02AA294648467C68A047002889
:1037A000DFD1019B1E441D44A8EB0308D6E700BFF0
:1037B0009022002010B5034CC4E90001A2602373DD
:1037C00010BD00BF9022002030B5044685B01046E1
:1037D0001D46CDE90212FFF7ABFF0095014602AB93
:1037E000024A2046FFF752FE05B030BDD92B020039
:1037F0002DE9F04F0746B3B08846914600211022CC
:1038000002A89A46DFF8ACB020F0CBFC3B6C0693E4
:1038100007F1080602A930461FF0A5F818B10020EC
:1038200033B0BDE8F08F6A4602AB4A210CA81FF006
:10383000E2F9024620B145211D481EF046FBE7E7AC
:10384000009B32A9194401F8980CBAF1000F0FD06F
:10385000BDF8142001339342DADA02AD0FCD07AC84
:103860000FC42B68236007A930461FF07CF830B1E5
:10387000009A4B46013202A90CA8C047C8E707AB23
:1038800001AA4A211FA81FF0B6F920B145215846C8
:103890001EF01BFBE7E7019B32AA13441FA903F8A4
:1038A0004C0C0CA820F011FC0028DCD1B0E700BFC4
:1038B000F5A1020017A202000A4601230149FFF701
:1038C00097BF00BFC93700002DE9F04F0646BFB0D3
:1038D0000F469246984603B17AB10024234605AAC2
:1038E0005B493046CDE9057ACDE90784FFF780FFD3
:1038F000089B012B00F0A78017B96FF01504A2E018
:10390000414638461FF058F98346737B9C42F4DAEF
:1039100006F108050DF124094A461FFA8BF12846E5
:10392000FFF7E8FB10F11C0F034676D1737B013BD8
:10393000A3421BDD28461EF082FD8146B0B9306CE3
:103940001FF0F4F8336C1293CDE90E99DFF808916B
:103950000EA928461FF007F850B128461FF01DF8A1
:10396000024618B145213B481EF0AFFA0134CCE7BE
:10397000B36A0E9A9A42F0D10EAB03AA492118A855
:103980001FF039F90028E3D1039BBDF8442001332F
:103990009342DDD00DF1380EBEE80F000DF14C0C56
:1039A000ACE80F00DEF80030CCF8003013A9284650
:1039B0001EF0D9FFF0B113AABDF844102846FFF756
:1039C00099FB03460028C3D1BDF84420009201466C
:1039D0000EAA13A8FFF7B6FE0028B9D113A92846EE
:1039E0001EF049FD02460028B2D0452148461EF08F
:1039F0006CFAADE713AB04AA49212BA81FF0FBF822
:103A00000028D3D1DDE903239A42CFD12BA918A8EE
:103A100020F076FB0028C9D19AE700287FF46DAF2B
:103A2000326C0D92CDF80090424651463846FFF771
:103A30001DFE431D044606D0494628461EF01BFDC8
:103A4000002C08BF044620463FB0BDE8F08F00BF01
:103A5000172C020056A2020030A20200012370B50A
:103A600004460373837300F10806314603201EF0F9
:103A700006FE0546B0B930461EF067FD00280ADC98
:103A8000E36A206CD3E900121FF02AF80028ECD07A
:103A90006FF0040504E0054B63602046FFF734FC3B
:103AA000284670BD6FF01505FAE700BF5C90020074
:103AB00090F83E30024A03490348FFF77BBE00BF3F
:103AC000932C0200972C0200AB2C020037B509237F
:103AD000224A009369460320FFF7CAFB10F1130F37
:103AE0003AD038B10C3005D0404080F311884FF007
:103AF000040002DF1A4C009B63732046FFF7AEFF01
:103B000008B301A90320FFF79FFB014660B14040C5
:103B100080F311884FF0040002DF404080F31188E9
:103B20004FF0040002DF0EE0019882681EF0D8FF1B
:103B3000054601981EF08DFF002DE8D12046FFF7C5
:103B40008DFF0028E9D1074B05486360FFF7EAFBCA
:103B50000348FFF7ADFF002003B030BDA0220020D6
:103B6000400500205C90020008B504464FF020029A
:103B7000EFF3118382F31188BFF36F8F1FF03BF9CE
:103B8000204601F0F3FA03481EF09FF900F0ECFE26
:103B9000FCE700BF7BA202002DE9F0410E4C051BA3
:103BA000C5F347130C255D43074605F148000E4653
:103BB000204440211FF091F8011E08DB074B2C44E4
:103BC000C4E91036064B5B59BDE8F041184738464A
:103BD0003346BDE8F0411847F82200203D2D020091
:103BE0008090020038B5CCB2012C054608D90849AE
:103BF00008487E221EF069F97E2105481EF017FC58
:103C0000EB680C2104FB0131886C00F0070038BD23
:103C1000A4A2020026A00200F8B5CCB2012C0546F1
:103C20001746C6680AD91849184840F253121EF0C0
:103C30004CF940F2531114481EF0F9FB4FF02003E9
:103C4000EFF3118183F31188BFF36F8F0C2303FB14
:103C50000462926C12F0C00201D0974211D103FBB2
:103C6000046301229A64002081F31188BFF36F8FEF
:103C700030B96B680C2202FB04346368984700205B
:103C8000F8BD4FF0FF30EFE7A4A2020026A002002B
:103C900070B50D460649411A0446491140220548AF
:103CA000FFF7BAFF2B4601462046BDE87040184793
:103CB000F82200201C0E0020002270B501210446CD
:103CC000104600F0C5FD002000F090FD0F4819F0EF
:103CD00079FF0F4B984215D119F094FFE6680D4912
:103CE00030461EF04DF900280BDB0125B564E46871
:103CF000084904F120001EF043F9002801DB656546
:103D0000002070BD6FF00400FBE700BF4D3D0000D8
:103D10000000AD0B9890020001460C2309484B436C
:103D200070B5C418D4E910560022483322641844F0
:103D30001EF0F1FF2DB132462B460348BDE870401E
:103D4000184770BDF82200201C0E0020012808B57D
:103D500010D050B1032811D00F49104840F26A2208
:103D60001EF0B3F840F26A2110E00D4B986C10F091
:103D7000070010D1BDE80840FFF7CEBF064907484D
:103D800040F266221EF0A1F840F266210248BDE82A
:103D900008401EF04CBB08BDA4A2020026A00200F1
:103DA000F822002008B54FF02003EFF3118183F3D0
:103DB0001188BFF36F8F124A136843F0020013F0AB
:103DC000010310600CD04FF08042D2F80C34D2F8CE
:103DD0000C2413F0010303D00A481EF09CFF0123BA
:103DE00081F31188BFF36F8F23B10020BDE8084035
:103DF000FFF792BF0120BDE8084019F01FBF00BFC8
:103E00005023002040230020094BBFF35B8F53E871
:103E1000002F22F0020143E800100028F7D1BFF381
:103E20005B8FD30702D4012019F056BF704700BF43
:103E3000502300207FB500220123CDE9022304ABEB
:103E4000CDE90433094ACDF800D06B46CDF804D053
:103E50001EF086FF002805DB4FF4804200236846F1
:103E60001BF048FF07B05DF804FB00BF5B2D0200AC
:103E7000024BC0B203EB4010704700BFF822002095
:103E8000094BBFF35B8F53E8002F42F0010143E879
:103E900000100028F7D1BFF35B8F930702D40120F5
:103EA00019F0CCBE704700BF50230020094BBFF370
:103EB0005B8F53E8002F22F0010143E80010002837
:103EC000F7D1BFF35B8F930702D4012019F004BF31
:103ED000704700BF502300202DE9F8434749BFF346
:103EE0005B8F0546012251E8003F41E80020002891
:103EF000F9D1BFF35B8F9BB9414942484B60CB601E
:103F00008A60FEF72FFB00280ADA3F493F4840F25B
:103F100026221DF0DAFF40F226213B481EF087FAE8
:103F200095B3022D54D8012D07D14FF08043D3F81B
:103F30001C3403F00303012B26D024F011FC18B924
:103F4000334B1B78002B50D14FF02003EFF3118936
:103F500083F31188BFF36F8F01242E4E2E4FDFF8AD
:103F6000BC804FF08042D2F81834D2F81824D20323
:103F70000CD503F00303012B01D0012D06D10CB3A6
:103F800089F31188BFF36F8FBDE8F883ACB1484661
:103F900000F0F8FC4FF08042D2F81835002BE0D149
:103FA00031680029DDD0336033680123C2F8183549
:103FB000C7F88031C8F80030D3E7002121201BF07A
:103FC00027FEE7E74FF080430222C3F80423DBE734
:103FD0000D490E484FF40E721DF077FF4FF40E712D
:103FE0000948BDE8F8431EF022BA4FF08043022290
:103FF000C3F8082304468146AFE700BF54230020DE
:10400000E822002018230020A4A2020026A002001B
:104010006E4500200401004000E100E0080000407F
:1040200010B5064C0648214617221DF04EFF2046CB
:104030001721BDE810401EF0FAB900BF0BA3020023
:1040400026A00200044A1368C91A21F07F400344E5
:1040500013601CF06BBB00BF642300202DE9F84FF8
:10406000850005F1804500F1500405F58835A40070
:10407000A4B2DFF87C80D5F84025DFF878A004F101
:1040800080444FF4803721F07F4604F58834874020
:10409000C146D8F804B5A2EB0B0222F07F422BF008
:1040A0007F43012AC5F8403502D1132024F05EFB7E
:1040B0000BF10202B31A23F07F43534528BF164683
:1040C000002323602368C9F8447326F07F43C5F8B2
:1040D0004035D9F804359B4507D0F31A023B23F04D
:1040E0007F43B3F5000F3246D3D8BDE8F88F00BF49
:1040F0000010014001008000F8B5104E104F00255F
:10410000104B00201C681A4605B1F8BDD6F8041300
:10411000C903FAD539680029F7D03D6039684FF4F2
:104120008031C6F84813D6F8401501251CB1186037
:104130005A68A047E4E71460E7E700BF00100140B9
:10414000401101405823002038B5104D00244FF491
:104150008033C5F80845C5F804330D4B4FF40032E1
:10416000C3F8802101212246112000F071FB1120AB
:1041700000F03CFB074A01231360074A2B60022032
:104180001360FFF7A9FE204638BD00BF00100140B4
:1041900000E100E00810014060230020134BB0F163
:1041A000FF3F08BF1846013800281CDD9842A8BF11
:1041B00018460F4BD3F804250E4B1968521A12F407
:1041C000000F22F07F4318BF00200B4A0133034445
:1041D0000A48106000205060044A934294BFC918F6
:1041E0008918FFF73BBF0020E3E700BFFFFF7F0018
:1041F00000100140642300205823002045400000A7
:1042000038B54FF02003EFF3118583F31188BFF326
:104210006F8F15481BF028FF40B9144914487C22C1
:104220001DF053FE7C2111481EF001F90E481BF0D1
:1042300039FF104B0C48D3F804450F4B1B68E41AA8
:1042400024F07F441BF01EFF40B908490848A7220C
:104250001DF03BFEA72105481EF0E9F885F3118803
:10426000BFF36F8F204638BD68230020E8A002000E
:1042700026A00200001001406423002001481CF029
:10428000E5BE00BFA490020008B5D0B14368042B7E
:1042900011D100220368BFF35B8F53E8001F01298F
:1042A00003D143E800200028F7D1BFF35B8F074814
:1042B00008BF104608BD3BB100681AF0B7FA0020ED
:1042C000F8E76FF4E040F5E70148F3E7E98FFFFF17
:1042D000EA8FFFFF10B5044618B90D4B0D485B6817
:1042E0009847616808290DD031F004030AD011F015
:1042F000020108D0214608481AF076F9002323600D
:104300000023636010BD142220681FF04AFFF7E706
:10431000BC0C00206EA302006C23002010B50446E4
:1043200018B9164B16485B6898476368042B23D06E
:10433000082B21D0CBB92368BBB94FF0FF324FF027
:10434000FF3321460F481AF0F5F808B923681BB966
:104350000A4B0D485B6898471422002120681FF023
:1043600020FF636843F002036360206824F06FF964
:10437000636843F00103636010BD00BFBC0C002004
:104380006EA302006C23002094A3020008B5F8B1CC
:104390004368042B10D101220368BFF35B8F53E8FD
:1043A000001F002903D143E800200028F7D1BFF304
:1043B0005B8F0BD1002008BD6BB100684FF0FF325E
:1043C0004FF0FF331AF05EF90028F3D00348F2E70C
:1043D0006FF4E040EFE70248EDE700BFE98FFFFF31
:1043E000EA8FFFFF08B5064906484023142224F04F
:1043F00013F905490548BDE808401CF0A5BE00BFFB
:10440000882300206C230020BC900200AC900200A6
:10441000014B1868704700BFA8050020F0B50822BE
:1044200089B00C4606461EF0A9FECB6A03930B6BBF
:1044300004934B6B05938B6B0693CB6B0793002711
:1044400008236A4669466846CDE9017700971EF061
:104450009AFD082305466A46314630461EF093FD14
:10446000236B0393636B0493A36B0593E36B054486
:10447000CDE906376A460823694668461EF083FD83
:104480003146054408236A4630461EF07CFD236A07
:104490000093636A0193A36A0293A36B0693E36B91
:1044A0000793054408236A463046CDE9047703970D
:1044B0001EF069FD636A0093A36AA26B0193E36A2D
:1044C00002930492636BE26B0393CDE90523236AA5
:1044D0000793054408236A4630461EF054FDE36AFC
:1044E0000093236B0193636B0293236A0693A36A81
:1044F0000793054408236A463046CDE904770397BD
:104500001EF072FE236B0093636B0193A36B029307
:10451000E36B0393636A0693E36A07932D1A0823F8
:104520006A463046CDE904771EF05EFE636B009369
:10453000A36B0193E36B0293236A0393636A04936F
:10454000A36ACDE90537236B07932D1A08236A4622
:1045500030461EF049FEA36B0093E36BCDE90137B3
:10456000636A0393A36A0493E36ACDE90537636B37
:1045700007932D1A08236A4630461EF035FE2D1A81
:104580000D4C0FD435B90822314620461EF002FEEC
:1045900001280FD008232246314630461EF024FE63
:1045A0002D1AEFE708232246314630461EF0EBFC79
:1045B0002D18F7D409B0F0BDD4900200F0B5284E04
:1045C00007460C460FCE8DB001AD0FC50FCE0FC5FF
:1045D00096E8070085E80700002F3CD0002C3CD06F
:1045E000381F2146024610344B780D781B0443EAED
:1045F0000563CD782B438D78043143EA05238C4243
:1046000042F8043FF0D1174C04218A07036918D1FE
:104610004FEA33631A0EA55CDAB2A25C42EA056285
:10462000C3F30745C3F30723655DE35C42EA054234
:1046300042EA03220CAD21F003032B4453F82C3C37
:10464000534050F8042F013153402C290361DCD131
:1046500001200DB0F0BD3846FBE72046F9E700BF6A
:10466000308F0200C1A302002DE9F043154689B046
:104670000746002859D000295AD0002A5AD01023C2
:104680000A46684619461EF0BAFB29466846DFF816
:10469000A8901FF0C0FA05F11006C846A0356C4678
:1046A0006A4610231178013B19F8011002F8011B2A
:1046B000F8D168461FF0F4FA694604A81FF029FBF8
:1046C00001A905A81FF025FB02A906A81FF021FBE0
:1046D00003A907A81FF01DFB102319460DEB0302C9
:1046E00068461EF08CFB3146684610361FF093FA80
:1046F000AE42D4D110262378013E18F8033004F8D6
:10470000013BF8D168461FF0CBFA294668461FF0F6
:1047100082FA102319466A4638461EF070FB684636
:10472000102231461EF078FB012009B0BDE8F0836D
:104730000846FAE71046F8E7C1A302000A4A0B4907
:1047400093680968C3F888100949C3F884004B6866
:1047500043F080534B60002383F31188BFF36F8FC6
:104760009368D3F888007047F0420020C89A02008E
:1047700000ED00E013498A684FF040001044EFF369
:10478000098C80E8F01F202080F31188BFF36F8F21
:104790000D4F4FF000668A6A8A603E60D2F884004E
:1047A0000023C2F8843080F3118804B5104600F06D
:1047B000C5FBBDE8044002F1400090E8F01F8CF317
:1047C00009887047F042002004ED00E01EF0040F5D
:1047D0000CBFEFF30880EFF30980816911F8021C28
:1047E0000229FFD001B51FF0D5FB01BD43B2002B5C
:1047F00008DB012200F01F0002FA00F05B09024A08
:1048000042F82300704700BF00E100E043B2002BF4
:104810000DDB01225B0900F01F0002FA00F02033DB
:10482000034A42F82300BFF34F8FBFF36F8F7047E7
:1048300000E100E04209054B00F01F0053F8222080
:10484000012303FA00F01040704700BF00E100E0D0
:1048500038B54C1C072C054608D90E490E485F2276
:104860001DF033FB5F210B481DF0E1FD6BB2002B07
:10487000A8BF03F160434FEA4414BCBF05F00F0525
:10488000064BE4B2AABF03F561435C5583F80043CD
:1048900038BD00BFC1A4020026A0020014ED00E054
:1048A00008B572B6044B586A18B100225A6223F058
:1048B000A9FE62B608BD00BFF042002042F8203CCD
:1048C000009B42F81C3C0A49019B42F8183C029BA1
:1048D00042F8143C21F001014FF0807342F8043C8F
:1048E00042F8081C0023203A0266C0F88430704762
:1048F000A71F02000B4B0246986890B112F1160FE9
:10490000406F05D0A0F12003934206D8824204D222
:1049100081422CBF0021012100E00021002908BFB5
:1049200000207047F042002008B504460E461546A8
:1049300000F0F8FA084B20469C6000F0FFFA284689
:1049400086F30988002163B681F31188BFF36F8F66
:10495000002200231DF027FBF04200200149102215
:104960000A60704710ED00E072B6404080F3118895
:10497000BFF36F8FBFF34F8F30BF62B6BFF36F8F40
:10498000704700BF72B6494081F3118820BF80F3A1
:10499000118862B6704700BF37B505460C46C9B1ED
:1049A0008B680093D1E900230E4845211DF08DFA54
:1049B00063690093D4E9032345210B481DF085FA70
:1049C000E2690A4845211DF080FAA269084845219C
:1049D0001DF07BFA2146284603B0BDE8304019F0AF
:1049E0004DBB00BFF7A402002BA502005FA502008B
:1049F00073A5020030BFFFF7FDBF00BF0E4A08B528
:104A00000E4B22F07F029A60BFF34F8FBFF36F8F80
:104A1000D3F8882022F47002C3F88820EFF31483BF
:104A200023F0040383F3148819F0B4FB1BF040FC5B
:104A300000F04AFA19F0D2FB0000000000ED00E09F
:104A400001B572B60B4A506A00281EBF00215162A0
:104A500023F0D8FD62B6EFF30580A0F110004FEA15
:104A6000C0000549014409C99847BDE80140034910
:104A700008470000F0420020088A0200AD4E000006
:104A80001FF0C1FB202080F3118808484FF4026119
:104A9000401880F30988EFF314800221084380F363
:104AA0001488BFF36F8FFFF7A9FF0000405F00205D
:104AB000EFF30880EFF3098101B5724600F02CF99D
:104AC00001BD00BF2DE9F041364C05468846364809
:104AD000452116461DF0F9F9A26AD70603D54521EE
:104AE00032481DF0F2F9A36A180703D54521304872
:104AF0001DF0EBF92B4CA36A990722D46FF0150730
:104B0000284CA26AD30703D545212A481DF0DDF9B8
:104B1000A36A9C0603D5452127481DF0D6F9214CF0
:104B2000A36AD80622D4A36A99071FD400251D4A78
:104B3000936A43F0FF039362002333702846BDE875
:104B4000F08145211D481DF0C0F9676BA36A1A0664
:104B5000D4D53A4645211A481DF0B7F9B8F1000FEF
:104B6000CED0A36A23F08003A362C9E763681A0565
:104B7000DCD529463846FFF7BDFE054618B180F35F
:104B800009880225D3E7A36ADB06CFD54FF4A172CB
:104B90000C490D481DF099F94FF4A17109481DF019
:104BA00046FCC4E700ED00E04CA6020067A6020048
:104BB0009FA60200EFA6020013A70200B7A60200FC
:104BC000D4A6020047A7020026A0020070B5234C1D
:104BD00006460D46224845211DF077F9A26AD10408
:104BE00003D545211F481DF070F9A36A1A0503D5A6
:104BF00045211D481DF069F9184CA36A9B0510D585
:104C00001A4845211DF061F9A26BA36A180408D562
:104C1000452117481DF059F91EB1A36A23F400433A
:104C2000A3620E4CA36A590503D5452111481DF016
:104C30004CF9A36ADA050BD50F4845211DF045F95B
:104C4000064A936A002043F47F439362287070BD44
:104C5000A36A9B04F4D545210848EFE700ED00E086
:104C6000A6A50200C1A502009FA60200D7A50200CA
:104C7000F5A502000FA602002FA6020013A702004E
:104C800010B51D4C1D4845211DF01FF9A26A930166
:104C900003D545211A481DF018F9A36ADC0103D594
:104CA000452118481DF011F9134CA26A100303D5D1
:104CB000452115481DF009F9A36A590303D545217B
:104CC00012481DF002F90C4CA26A920303D545214B
:104CD0000F481DF0FAF8A36ADB0303D545210D4800
:104CE0001DF0F3F8044A936A6FEA03436FEA134333
:104CF0009362002010BD00BF00ED00E081A702001C
:104D00009EA70200B6A70200D5A70200F8A70200DE
:104D100022A8020041A802002DE9F041514BD3F82E
:104D200004808AB0C8F30807002585F31188BFF313
:104D30006F8F02F07F43B3F17F4F07D102F00C0376
:104D4000082B10D1452148481DF0BFF840F2C5326C
:104D5000464947481DF0B9F840F2C53143481DF0B7
:104D600066FB002606E012074EBF0E4606460125EA
:104D7000002EEBD00023FA1E8DF807301C46134698
:104D8000092B5CD8DFE803F0055054345B5B5B5BB8
:104D90005B58452137481DF098F8324B8DF8074095
:104DA000DC6A14F0020405D0334845211DF08DF86B
:104DB000002420E0DB6A5B001DD545212F481DF053
:104DC00084F82F4B1B7833B10DF1070201213046D7
:104DD000FFF778FE0EE02B4B1B782BB10DF107018E
:104DE0000120FFF7F3FE05E0274B1B889BB213B1B0
:104DF000FFF746FF04469DF8073093B9202231465D
:104E000002A81FF0A4F9099B35B3C3F3080222B925
:104E10006FEA53236FEA4323099302A92046FFF761
:104E2000BBFD0AB0BDE8F0810DF107020021CEE71D
:104E30000DF107010020D4E745211448B6E71449D5
:104E4000144A154818F4F87F08BF0A46A7F1100362
:104E500045211DF03AF8ABE723F4FF7323F001037B
:104E6000DAE700BF00ED00E09FA8020047A70200BC
:104E700026A00200CFA80200EBA8020011A90200A0
:104E800028ED00E029ED00E02AED00E035A9020060
:104E900071A8020086A8020070A90200024A5369A4
:104EA00043F010035361704700ED00E0044B996834
:104EB000986A884203D003494FF080520A607047D5
:104EC000F042002004ED00E0044800232021C21835
:104ED0000133302B82F80013F9D1704700E100E074
:104EE00008B50E4B9B68834207D1EFF3058393B15E
:104EF0000B4A536843F0805353601AF0B9FA4FF0ED
:104F00002003EFF3118083F31188BFF36F8FBDE8A7
:104F1000084023F0DABB1BF0CDF800BFF0420020C0
:104F200000ED00E0024B034A0348012100F0C0B845
:104F3000000004200000002080910200426F054B19
:104F4000203A1A60044A2021C3E9011218460121BF
:104F500000F0CCB88828002000000B15F8B5224FCF
:104F600000268E420FDA4468002C39D09BB104F140
:104F7000FF3C14EA0C0F08D01C48324645211CF0B7
:104F8000A4FF6FF015021046F8BD1F2CF4D9056878
:104F90001CEA050FF0D1202CD2B20568D0F808C069
:104FA0000FD9B4F1004F0ED8013CB4FA84F4C4F127
:104FB0001F046400072A4CEA040406D945210C4862
:104FC000DDE70824F6E73E24F4E725F01F05154346
:104FD00045F0100544F00104BA60FD6001323C6107
:104FE00001360C30BDE700BF90ED00E0CCA9020017
:104FF000F4A90200034B05225A60BFF34F8FBFF3A1
:105000006F8F704790ED00E0BFF35F8F014B002280
:105010005A60704790ED00E0204910B50C68082CEC
:105020000DD940F23F121E491E481CF04EFF1C488D
:1050300040F23F111DF0FBF94FF0FF3010BDFFF7BC
:10504000E3FF486818490022944200F10C0015D192
:10505000164B1C70FFF7CEFF0B68C3F30723082B1A
:105060000AD00F490F484FF4B2721CF02EFF4FF4D4
:10507000B2710B481DF0DBF90020DFE78A6050F8C1
:105080000C3C23F01F03134343F01003CB6050F894
:10509000043C43F001030B610132D5E78C9102001F
:1050A0008CA9020026A0020090ED00E0C043002081
:1050B00010B50B4C01232278FFF750FF20701630FB
:1050C0000CD10849084840F205121CF0FEFE40F2DF
:1050D00005110448BDE810401DF0A9B910BD00BF7E
:1050E000C04300208CA9020026A0020008B50F4A88
:1050F00000231278FFF732FF10F1160F08D00C4B87
:105100000022072800DD08BD98601A610130F8E729
:10511000084909484FF492721CF0D7FE4FF492717F
:105120000448BDE808401DF082B900BFC04300201C
:1051300090ED00E08CA9020026A002004FF02003B1
:10514000EFF3118283F31188BFF36F8F06490123B8
:10515000C1F840354FF08041C1F8783582F31188AD
:10516000BFF36F8F0020704700E001404FF0804395
:10517000C0B2C3F81C05BFF34F8F0549054BCA6881
:1051800002F4E0621343CB60BFF34F8F00BFFDE733
:1051900000ED00E00400FA0520B1034B800143F06C
:1051A00001031847704700BFD08F02004FF08043C3
:1051B000D3F84036DB072ED54FF01023D3F8043355
:1051C00003F00703072B26D1144B0122C3F8042553
:1051D000D3F80024002AFBD04FF01021D1F804238B
:1051E00022F0070242F00402C1F804230022C3F8AF
:1051F00004250A4AD2F80034002BFBD0BFF34F8FAE
:105200000749084BCA6802F4E0621343CB60BFF35E
:105210004F8F00BFFDE70020704700BF00E0014056
:1052200000ED00E00400FA0540290E4B70B528BFE0
:1052300040210D4C46181D46B04203F1020304D133
:10524000002305F81130074870BD02781209A25CEE
:1052500003F8022C10F8012B02F00F02A25C03F8F5
:10526000012CE9E7C14300207EAA020030B5037893
:105270008BB0044607AD032B21D8DFE803F0021AF8
:105280001C1E124928461EF006FF63780493A3787B
:105290000393E3780293237901936379009305954F
:1052A000A3790B4A0B481E211CF01CFE09480BB0C9
:1052B00030BD0949E6E70949E4E70949E2E7094A57
:1052C0000A2128461CF00EFEDFE700BF32AA0200CA
:1052D0005BAA02004244002039AA020040AA020050
:1052E0004AAA020054AA0200884270B504460E463B
:1052F00001F1200515D9A8420AD20C490C4840F208
:1053000019221CF0E2FD40F2192108481DF08FF827
:105310002B46013C13F8012D04F8012FB342F9D1BB
:1053200070BDEAD000F120039942E5E748AB0200E6
:1053300026A002002DE9F843604EDFF8A88135462B
:105340004FF0FF324FF0FF3340461AF0D3FCBFF36B
:105350005B8F3468BFF35B8F14F0010454D0DFF827
:105360007491574C574F58484A4621461DF05FFDEF
:10537000C0BB452155481CF0A8FD1F244FF0FF324B
:105380004FF0FF33012000F091FA00F108070221ED
:105390008146384617F0B8FB3E2303704223437022
:1053A0000121384617F0B0FB08230370412138462D
:1053B00017F0AAFB074600F8014BE4B14022002198
:1053C0001EF0EFFEBFF35B8F55E8003F23F00103B3
:1053D00045E80032002AF7D1BFF35B8F484601F061
:1053E00055FBADE72022394620461EF089FE0028F5
:1053F000B9D00024C2E73449FFF776FF344907F1FA
:105400002100FFF771FFDDE7BFF35B8F3368BFF368
:105410005B8F9B0748D52F492B481EF0D9FB021EF6
:1054200033DA45212C481CF050FD4FF0FF324FF08D
:10543000FF33012000F03AFA00F10807022181460B
:10544000384617F061FB3E2303702223437001218D
:10545000384617F059FB092303702121384617F00D
:1054600053FB03460130CCB91F221A70FF212022C2
:105470001EF097FEBFF35B8F55E8003F23F0020359
:1054800045E80032002AA7D0F6E70F4A114BA2F1F7
:10549000200110461DF01AFD0446C6E700221A70CE
:1054A0000949FFF721FFE5E7E0220C490C481CF011
:1054B0000CFDE02109481CF0BAFF41E794280020C8
:1054C0006044002096AA020080440020B6AA020090
:1054D000A0440020AC910200E4AA02000AAB020042
:1054E00026A00200740F002070B5057D0446ADB9FA
:1054F00083681A8842F225018A4217D042F22601B7
:105500008A423CD042F201018A4207D1DA7802F0A5
:105510007F02DA701A7922F001021A71324BD3F845
:10552000183120461B69BDE8704018470321083038
:1055300017F0B0FA204617F097F9BFF35B8F2B4BAB
:105540001A68BFF35B8F900707D50C25294642F2F6
:1055500025001EF05AFE002070BDBFF35B8F53E89C
:10556000002F42F0010143E800100028F7D1BFF3FB
:105570005B8FD107E9D41E481AF080FBE6E70321D0
:10558000083017F087FABFF35B8F184B1A68BFF328
:105590005B8FD20707D50C25204617F065F9294601
:1055A00042F22600D5E7A2893F2A1BD9BFF35B8FC1
:1055B00053E8002F42F0020143E800100028F7D121
:1055C000BFF35B8F9307E6D4A6680A483146FFF71E
:1055D0008BFE06F120010848FFF786FE04481AF00A
:1055E0004DFBD9E71225D7E7980100209428002029
:1055F000740F002080440020A044002010B588B023
:105600000C4C0D4900220023CDE9062300230A2279
:10561000CDE90323CDE9013300934FF48A62074BB0
:1056200020461AF05BFC0649204608B0BDE8104051
:1056300023F0A0B820120020804500203553000040
:105640008FAA020008B5492109481CF03EFC09490F
:105650000948CA79C2EBC202FDF732FE024628B100
:1056600045210648BDE808401CF02FBC08BD00BF1E
:105670000BAC0200980100201AAC020020AC020022
:105680002DE9F34117469846044630B945211D4897
:105690001CF01BFC6FF0010418E001A91DF076FA64
:1056A0001949024620461EF01CFD06460028F1D18D
:1056B000BFF35B8F154D2C68BFF35B8FC4F3800481
:1056C00044B1572112481CF000FC3446204602B079
:1056D000BDE8F081943D072229464046B847062898
:1056E0000AD845210B481CF0F0FB0722214628462A
:1056F0001EF057FDEC71E9E70723B0FBF3F0E8710A
:10570000E4E700BF40AC020047AA02002C020020E0
:1057100066AC02008FAC02002DE9F04188B09C79A4
:10572000DDF838805D791E79DF7893F802C093F850
:1057300001E01B78B8F1000F0ED0CDE90638CDE9B5
:1057400004CE1346CDE90267CDE90045084A1CF0B6
:10575000C9FB08B0BDE8F081CDE905E3CDE9037CE4
:105760001346CDE901560094024A1CF0BBFBF0E75A
:1057700073AB020097AB02000949BFF35B8F51E89E
:10578000003F43F0010241E800200028F7D1BFF3B9
:105790005B8FDB0703D40839024822F078BF7047DB
:1057A000B40500207021002038B5174CE3796BB99F
:1057B00001F0BEFCE3794BB901F046FD044628B187
:1057C000452112481CF081FB204638BD104DBFF327
:1057D0005B8F2B68BFF35B8F9B0701D401F01AFA34
:1057E000BFF35B8F55E8004F24F4004345E80032D7
:1057F000002AF7D1BFF35B8F14F40044E4D0FFF725
:10580000BBFF0024E0E700BF98010020E2AB0200EC
:105810002C02002010B5FDF7BDFE044620B1024663
:10582000452102481CF051FB204610BDB8AB0200D8
:10583000F0B40278012A04460B4617D01AB1022AA6
:105840002CD0F0BC7047184A0D4602F110071068C2
:1058500051682E4603C60832BA423546F7D112784F
:10586000327062885A73120A9A73EAE70E4A0D463A
:1058700002F11007106851682E4603C60832BA427A
:105880003546F7D11278327062685A73C2F3072135
:10589000120CDA73120A99731A74D2E701461122B4
:1058A0001846F0BC1EF053BCD3AC0200F8B51F463E
:1058B00000F0FD03012B054616460AD0052808D046
:1058C0000B490C4834221CF000FB342108481CF022
:1058D000AEFD32463B46084822F0ECFA044620B1C1
:1058E0000021083016F0D6FE25752046F8BD00BF11
:1058F000E4AC020026A0020000110020D0B50F4643
:105900004FF02003EFF3118283F31188BFF36F8F01
:105910000D4B0021D3F8F840C3F8F81082F311883A
:10592000BFF36F8F34B902463B460120BDE8D0403B
:10593000FFF7BCBF012304F108002375A18116F015
:10594000A9FE2046D0BD00BF9801002070B50446D6
:105950000E2C0D461046194614D30F2C0ED9132CBD
:1059600010D10D4822F0A6FA044628B100210830D3
:1059700016F090FE01232375204670BDBDE87040EF
:10598000FFF7BCBF02460B460DB10448EAE7012011
:10599000BDE87040FFF78ABF58110020501000206A
:1059A00005490B6833B1826800200860117801B99D
:1059B000501C1847704700BFB02800208368024879
:1059C0001A7857211CF081BA76B1020038B5836885
:1059D0001A78AAB9B3F80140204602F0FDFA05464C
:1059E00030B9224645210748BDE838401CF06DBA61
:1059F000012102F0F9FA2846BDE8384002F0C0BAA9
:105A000038BD00BFA3B10200F8B586683578C5B9C6
:105A1000B6F80170384602F0DFFA044630B93A466B
:105A200045210848BDE8F8401CF04FBAF3784372AE
:105A3000294602F0D9FA25802046BDE8F84002F058
:105A40009FBAF8BDA3B10200F8B586680F486FF0A1
:105A500010011EF06BFE337843B9711C40220C48D4
:105A60001EF075FB082109481EF046FE094D084F3F
:105A70002C680CB92C60F8BD32782368002A0CBF62
:105A80003846002098476468F3E700BF2C020020E6
:105A9000C0440020B428002008B50121083017F0C8
:105AA00015F8452102780248BDE808401CF00DBAFF
:105AB000CEB1020008B581898068FFF7B5FB572198
:105AC0000246BDE8084001481CF0FFB9F1B20200EF
:105AD00073B58568B5F80160304602F07DFA04467A
