:1000000000770020A95C00002BB40200D95C00003E
:10001000D95C0000D95C0000D95C00000000000041
:1000200000000000000000000000000099590000DE
:10003000D95C00000000000041590000155000008C
:10004000695C00006BED0200695C0000695C000007
:10005000695C0000695C0000695C0000695C00008C
:10006000695C0000695C0000695C0000695C00007C
:10007000695C0000695C0000695C0000695C00006C
:10008000695C0000695C0000695C0000695C00005C
:10009000695C0000695C0000695C0000695C00004C
:1000A000695C0000695C0000695C0000695C00003C
:1000B000695C0000695C0000695C0000695C00002C
:1000C000695C0000695C0000695C0000695C00001C
:1000D000695C0000695C0000695C0000695C00000C
:1000E000695C0000695C0000695C0000695C0000FC
:1000F000695C0000695C0000695C0000695C0000EC
:1001000080F0004002E000BF81F0004142001FBFCC
:100110005FEA410392EA030F7FEA226C7FEA236CD5
:100120006AD04FEA1262D2EB1363C1BFD2184140CA
:1001300048404140B8BF5B42192B88BF704710F060
:10014000004F40F4000020F07F4018BF404211F003
:10015000004F41F4000121F07F4118BF494292EA6B
:10016000030F3FD0A2F1010241FA03FC10EB0C0097
:10017000C3F1200301FA03F100F0004302D5494224
:1001800060EB4000B0F5000F13D3B0F1807F06D3D1
:1001900040084FEA310102F10102FE2A51D2B1F1C9
:1001A000004F40EBC25008BF20F0010040EA0300BE
:1001B0007047490040EB000010F4000FA2F101026B
:1001C000EDD1B0FA80FCACF1080CB2EB0C0200FAF5
:1001D0000CF0AABF00EBC25052421843BCBFD04043
:1001E0001843704792F0000F81F4000106BF80F4BD
:1001F00000000132013BB5E74FEA41037FEA226C80
:1002000018BF7FEA236C21D092EA030F04D092F04A
:10021000000F08BF0846704790EA010F1CBF00207E
:10022000704712F07F4F04D1400028BF40F00040DB
:10023000704712F100723CBF00F50000704700F0FB
:10024000004343F0FE4040F4000070477FEA226222
:1002500016BF08467FEA23630146420206BF5FEAF3
:10026000412390EA010F40F4800070474FF00003F3
:1002700004E000BF10F0004348BF40425FEA000CBA
:1002800008BF704743F0964301464FF000001CE062
:1002900050EA010208BF70474FF000030AE000BFB8
:1002A00050EA010208BF704711F0004302D54042F6
:1002B00061EB41015FEA010C02BF84460146002068
:1002C00043F0B64308BFA3F18053A3F50003BCFA83
:1002D0008CF2083AA3EBC25310DB01FA02FC634430
:1002E00000FA02FCC2F12002BCF1004F20FA02F237
:1002F00043EB020008BF20F00100704702F120022A
:1003000001FA02FCC2F1200250EA4C0021FA02F28A
:1003100043EB020008BF20EADC7070474FF0FF0C8F
:100320001CEAD0521EBF1CEAD15392EA0C0F93EA8A
:100330000C0F6FD01A4480EA010C400218BF5FEA2C
:1003400041211ED04FF0006343EA501043EA51119F
:10035000A0FB01310CF00040B1F5000F3EBF490099
:1003600041EAD3715B0040EA010062F17F02FD2A9D
:100370001DD8B3F1004F40EBC25008BF20F0010080
:10038000704790F0000F0CF0004C08BF49024CEA97
:10039000502040EA51207F3AC2BFD2F1FF0340EA29
:1003A000C250704740F400004FF00003013A5DDC9A
:1003B00012F1190FDCBF00F000407047C2F10002DB
:1003C000410021FA02F1C2F1200200FA02FC5FEAC8
:1003D000310040F1000053EA4C0308BF20EADC7012
:1003E000704792F0000F00F0004C02BF400010F484
:1003F000000F013AF9D040EA0C0093F0000F01F031
:10040000004C02BF490011F4000F013BF9D041EA52
:100410000C018FE70CEAD15392EA0C0F18BF93EA54
:100420000C0F0AD030F0004C18BF31F0004CD8D17E
:1004300080EA010000F00040704790F0000F17BF05
:1004400090F0004F084691F0000F91F0004F14D04B
:1004500092EA0C0F01D142020FD193EA0C0F03D1A3
:100460004B0218BF084608D180EA010000F00040A6
:1004700040F0FE4040F40000704740F0FE4040F481
:10048000400070474FF0FF0C1CEAD0521EBF1CEA20
:10049000D15392EA0C0F93EA0C0F69D0A2EB03023E
:1004A00080EA010C49024FEA402037D04FF08053D8
:1004B00043EA111143EA10130CF000408B4238BF9D
:1004C0005B0042F17D024FF4000C8B4224BF5B1AAB
:1004D00040EA0C00B3EB510F24BFA3EB510340EAF9
:1004E0005C00B3EB910F24BFA3EB910340EA9C00A7
:1004F000B3EBD10F24BFA3EBD10340EADC001B0117
:1005000018BF5FEA1C1CE0D1FD2A3FF650AF8B42BA
:1005100040EBC25008BF20F0010070470CF0004CC7
:100520004CEA50207F32C2BFD2F1FF0340EAC250F2
:10053000704740F400004FF00003013A37E792F0B3
:10054000000F00F0004C02BF400010F4000F013A11
:10055000F9D040EA0C0093F0000F01F0004C02BF0C
:10056000490011F4000F013BF9D041EA0C0195E775
:100570000CEAD15392EA0C0F08D142027FF47DAF0E
:1005800093EA0C0F7FF470AF084676E793EA0C0FFE
:1005900004D14B023FF44CAF08466EE730F0004CFC
:1005A00018BF31F0004CCAD130F000427FF45CAF8C
:1005B00031F000437FF43CAF5FE700BF42000ED252
:1005C000B2F1FE4F0BD34FF09E03B3EB126209D48E
:1005D0004FEA002343F0004323FA02F070474FF044
:1005E0000000704712F1610F01D1420202D14FF0B9
:1005F000FF3070474FF00000704700BF7BB972B901
:100600000029BEBF00204FF0004106E008BF0028CF
:100610001CBF6FF000414FF0FF3000F0D3B9ADF1D7
:10062000080C6DE904CE002909DB002B1ADB00F071
:1006300061F8DDF804E0DDE9022304B070474042D0
:1006400061EB4101002B1BDB00F054F8DDF804E006
:10065000DDE9022304B0404261EB4101524263EB09
:1006600043037047524263EB430300F043F8DDF865
:1006700004E0DDE9022304B0404261EB4101704730
:10068000524263EB430300F035F8DDF804E0DDE9A6
:10069000022304B0524263EB4303704753B94AB993
:1006A000002908BF00281CBF4FF0FF314FF0FF307A
:1006B00000F088B9ADF1080C6DE904CE00F01AF82D
:1006C000DDF804E0DDE9022304B07047430803F0DD
:1006D0005533C01A830803F0333300F03330184425
:1006E00000EB101000F00F3000EB002000EB00409A
:1006F000000E70472DE9F047089E04468846002BFF
:1007000040F085808A42154648D9B2FA82F24AB151
:10071000C2F1200701FA02F320FA07F7954047EAF1
:10072000030894404FEA154E230CB8FBFEF71FFA5E
:1007300085FC0EFB178843EA084307FB0CF199423E
:1007400009D9EB1807F1FF3080F0E380994240F2BD
:10075000E080023F2B445B1AA4B2B3FBFEF00EFB19
:10076000103344EA034400FB0CFCA44509D92C19BE
:1007700000F1FF3380F0CB80A44540F2C8800238FE
:100780002C4440EA0740A4EB0C0400271EB1D440DF
:100790000023C6E900433946BDE8F087002A53D05C
:1007A000B2FA82F2002A40F0B680491B4FEA154E99
:1007B0001FFA85F80127B1FBFEFC230C0EFB1C1170
:1007C00043EA014308FB0CF1994207D9EB180CF1FD
:1007D000FF3002D2994200F2EC808446591AA3B24B
:1007E000B1FBFEF00EFB101443EA044408FB00F8D2
:1007F000A04507D92C1900F1FF3302D2A04500F221
:10080000DC801846A4EB080440EA0C40BEE78B42AB
:1008100008D9002E78D00027C6E9000138463946AD
:10082000BDE8F087B3FA83F77FB98B4202D38242E7
:1008300000F2BD80841A61EB030301209846002E6C
:10084000A9D0C6E90048A6E7FFDEC7F12005BB40F6
:1008500022FA05FC4CEA030C01FA07F420FA05F829
:1008600021FA05F34FEA1C4E48EA0404B3FBFEF9F3
:10087000210C0EFB19331FFA8CF841EA034309FBE4
:1008800008FA9A4502FA07F200FA07F10BD91CEBB5
:10089000030309F1FF3080F088809A4540F285809B
:1008A000A9F102096344A3EB0A03A4B2B3FBFEF06F
:1008B0000EFB103344EA034400FB08F8A04508D9B6
:1008C0001CEB040400F1FF336BD2A04569D9023858
:1008D000644440EA0940A4EB0804A0FB02894C45AB
:1008E000C6464B4654D351D0002E69D0B1EB0E0210
:1008F00064EB030404FA05F522FA07F3FC401D43F8
:10090000C6E90054002746E73746304643E7184615
:1009100037E707461FE7C2F1200320FA03F79540A7
:1009200001FA02F021FA03F34FEA154E3843010CA5
:10093000B3FBFEF71FFA85F80EFB173341EA0341BC
:1009400007FB08F38B4204FA02F407D9691807F190
:10095000FF3C28D28B4226D9023F2944CB1A81B2D0
:10096000B3FBFEF00EFB103341EA034100FB08F33A
:100970008B4207D9691800F1FF3C10D28B420ED987
:1009800002382944C91A40EA074714E74145ABD267
:10099000B8EB020E69EB0C0201381346A4E760467F
:1009A000F0E7184695E76746D8E781467BE7384683
:1009B00045E7ACF1020C2B4410E702382C4421E748
:1009C0003746E8E6704700BF2DE9F8438946D0E98D
:1009D0000A71066B164D8C193034A742904612A34B
:1009E000D3E9002315D8A1FB0501FFF757FE20F03E
:1009F0007F40C9F80000E01B0BA3D3E90023A0FB54
:100A00000501FFF74BFE20F07F40C8F80000BDE86D
:100A1000F883A7FB0501FFF741FE20F07F40C9F8EE
:100A2000000006F13000E7E78D49FD1A07000000DD
:100A300000CA9A3B000000002DE9F04F8DB030B99C
:100A40001CF098FA064630460DB0BDE8F08FCA4B50
:100A500093F84E6016F001061D4601D00C26F2E711
:100A600093F82D2003EB8202176B93F8392003EBE8
:100A70008203D3F83C8047B138462DF011FF3B7814
:100A80005A0617D440462DF00BFF3B7813F00E0F9B
:100A900040F098806B6A002BE0D11BF099FC8146F6
:100AA00030B11BF0A1FC824658B948461BF096FCB9
:100AB0000726C8E706212DF0C0FB0028E2D1122648
:100AC000C1E71CF031FD044618B950461BF092FCFA
:100AD000EBE74FF6FF738385C36E00F11C0B13B970
:100AE00000F16403C36604F1600204F15C01E06E8E
:100AF0002DF0AEFB94F87220C4F8CC9022F00702DF
:100B000084F8722094F83D2002F03F0262F07F02E8
:100B100084F83D2094F84020002363F3000284F819
:100B200040200622A4F8742094F88020E36622F086
:100B3000030284F880208E22C4E92E2394F8C22078
:100B4000A4F8703022F0030284F83F3063866363B8
:100B5000C4E913336365A4F87830A4F87C30A4F8B2
:100B60008C3084F88E30C4F89C30A4F8A030A4F8FF
:100B7000B430A4F8C03084F8C22084F8CB30A4F894
:100B8000EC3094F8EE20C5F824B0C5E9119A63F36F
:100B9000041284F8EE2094F82020C4F8143163F392
:100BA0000002C4E94833C4E94633C4E90533E461CB
:100BB00084F820201EF046FA20B16F481CF04AF855
:100BC000032640E795F828300121C3F342030DF1D5
:100BD0002B008DF82B302DF067FB002800F0BF8034
:100BE0003A7802F00F02022A00F1FF3472D17A78CB
:100BF0001032D200504300F5AA72642000FB04209A
:100C000095F820305D49ED61002464F3000385F818
:100C1000203031232B60C5E9054455A3D3E90023D7
:100C20006C60AC60A0FB0101FFF738FDE860B5F82F
:100C30004C802DF0A1FD8146B8F1000F05D13C7824
:100C400004F00F04631E5C425C4195F82820EB68B9
:100C5000DFF83CB164F3000212F001044FF0020A25
:100C600085F828200BAF464ACDF82CA053D00020A1
:100C7000CDE905250493CDE900030321CDE907B7AC
:100C8000CDE902004B4652462DF043FD39461BF09C
:100C900041FC002863D13B4A06954AF2D833CDE99E
:100CA00004020093CDE907B7CDE9020001904B465D
:100CB00001220321CDF82CA02DF02BFD39461BF08D
:100CC00029FC00284BD195F84E3043F0010385F8FC
:100CD0004E30B8E6012A16D098F801301033DB0008
:100CE0005AB97A78103203F52773D2009833134437
:100CF00002F59A7204FB023082E7062A07D179785E
:100D000001F11002EFE716224FF42D73EDE71022E8
:100D10004FF4AA73E9E71C4903F2471008601B4827
:100D2000CDE90432CDE9065B4FF6FF731FFA88FB6D
:100D3000CDE90871CDE90243ABFB0001912303FB30
:100D40000B110BA3D3E90023FFF7A8FC4B46CDE919
:100D5000004052460321204619F04EFEAEE76B6A72
:100D6000002B3FF47BAE04481BF074FF76E600BF17
:100D70008D49FD1A07000000E03D002000CA9A3BA3
:100D800051CB0100C5CD0100303E0020002AE78490
:100D9000D9BD0100000000002DE9F04F90F824308B
:100DA000414F044690F8380003F0F903C0F34000C7
:100DB00060F386138DB084F8243004F1250119F016
:100DC000EBFE94F82030B4F83280E461002565F33E
:100DD0000003A8FB070184F82030912303FB0811CE
:100DE000C4E905552EA3D3E90023FFF757FC3123AF
:100DF0002360636B65600933A0F13102934232BF17
:100E0000E360E5606563A560284D06462DF0B4FCFF
:100E100002230B93651B3C23B5FBF3F5244BB4F87D
:100E200032B0CDE90643234B0593BA46E3680493F9
:100E300007469123ABFB0A014FF000080DF12C0986
:100E400003FB0B1116A3D3E90023CDF82090CDF8B6
:100E50000C80FFF723FC104619464FF47A720023EA
:100E6000FFF71CFC0435EDB2CDE901600321CDF89C
:100E700000803B462A4640462DF04BFC49461BF07D
:100E800049FB40B994F8383043F0010384F8383016
:100E90000DB0BDE8F08F0C20FAE700BFAFF3008083
:100EA0008D49FD1A07000000002AE784543E002007
:100EB000D9BD010085D10100F8B5064600201546D0
:100EC0001F461CF0D7F90446F8B190F8382090F886
:100ED0002430418667F3420280F838209DF81820BC
:100EE00066F3C71362F3C40380F824300A48ADB236
:100EF000A5FB0001912303FB051105A3D3E9002302
:100F0000FFF7CCFB60630020F8BD0C20FCE700BFBE
:100F10008D49FD1A07000000002AE7840000000048
:100F20002DE9F04F934690F88C3090F88D20934245
:100F30008DB0044688460BD190F8A12090F8A010FF
:100F4000914225D00122023B80F88E2080F88D301E
:100F500094F88C2094F88D30D31A03F00303022BFD
:100F600040F0698294F88E30012B00F01282022B3F
:100F700000F026844FF47873CB4ACC49CC4828F053
:100F8000BAF8404080F311884FF0030002DF52E2CC
:100F900090F8B53090F8B4108B4263D05B1ADE073E
:100FA000D6D590F8801011F001062AD01BF050FA27
:100FB00005460028CCD094F8B43084F8B530A38D21
:100FC000C38003230371037F43F0030303770923E3
:100FD0004377C3770822002120302AF03CFBD4F865
:100FE000BC3085F82030C3F307221B0C85F8212084
:100FF00085F82230294608681BF002FA1BF00AFA2D
:10100000A6E7AC482DF0D4F805460028A0D094F807
:10101000B530013B84F8B5308E23C4F8B83003797D
:1010200043F0030303710923437194F93D30002B0E
:10103000ACBF08230E230822C371314610442AF0A6
:101040000AFBD4F8B8302B72C3F307221B0C6A7268
:10105000AB72294620462DF016FDB4F87A30A4F87C
:101060007C3075E790F8C13090F8C0108B425FD0AB
:101070005B1ADD077FF56CAF90F8C23013F0010505
:1010800023D18C482DF094F8014600283FF460AF3E
:1010900094F8C130013B84F8C13094F8C23043F079
:1010A000010384F8C2300379857243F003030371AE
:1010B000062343710C23C3710B230372592343721C
:1010C0004FF0FF33C3720373C4E7980722D51BF0B8
:1010D000BFF9014600283FF43BAF94F8C03084F8D4
:1010E000C130A38DC38003230371037F43F0030347
:1010F0000377062343770C23C37794F8C33080F833
:101100002030B4F8C430A0F82130B4F8C630A0F8CC
:10111000233070E740F67A33634A6449644827F025
:10112000EAFF404080F311884FF0030002DF0FE731
:1011300090F8ED1090F8EC3099423FF409AF5E4D15
:101140002B6813B198427FF403AF94F8EE3003F0AC
:101150000703052B00F21A8101A151F823F000BF0B
:1011600079110000F311000043130000510F00003B
:10117000510F0000510F00004E48E68E678E2DF093
:1011800017F8014600283FF4E3AE94F8EE3004224D
:1011900062F3020384F8EE30037943F00303037132
:1011A000182343710F23C371B4F8F0300381B4F8EE
:1011B000F2304381B4F8F4308381B4F8F630C3815F
:1011C0003E4400230374C37403755E444FF0FF3341
:1011D000A0F8116043758375C375037643768376F3
:1011E000C37603774377837720462DF04CFC2C6041
:1011F00033E794F8EF60EEB12E482CF0D9FF0146AA
:1012000000283FF4A5AE037943F0030303711123D3
:10121000C371032343710F23037294F8EF304372B9
:1012200020462DF030FC94F8EC3084F8ED300023AB
:101230002B608DE694F93D30002B3FDB94F8EE30C7
:10124000C4F8AC60052161F3020394F8F81084F847
:10125000EE30012384F8B03011B3B4F8F030B3FBB2
:10126000F1F3013313FB01F39BB2A4F8A430B4F8FB
:10127000F430A4F8A630B4F8F630A4F8A83094F806
:10128000A230022161F3010394F8EE10C1F3C00112
:1012900061F38203013A84F8A23084F8A12057E672
:1012A000B4F8F230E1E700BF7A7703008A52030016
:1012B000611D0300AC4200202842002063482CF04E
:1012C00077FF014600283FF443AE037943F0030360
:1012D0000371182343711023C371B4F8F0300381F4
:1012E000B4F8F2304381B4F8F4308381B4F8F630C6
:1012F000C38194F8F8300374B4F8FA30A0F81130D0
:10130000B4F8FC30A0F81330B4F8FE30A0F8153073
:10131000B4F80031A0F81730B4F80231A0F8193051
:10132000B4F80431A0F81B30B4F80631A0F81D3031
:1013300020462DF0A8FB94F8EC3084F8ED302E60B8
:1013400006E61BF085F8014600283FF401AE94F84C
:10135000EE20032363F3020284F8EE20A28D0371D2
:10136000037FC28043F003030377182343770F23DF
:10137000C377B4F8F0300384B4F8F2304384B4F89F
:10138000F4308384B4F8F630C38434E640F68743FF
:10139000C2E62F4B196801B91C60618EE68E0E44BF
:1013A00094F8A2105E4411F00300B6B252D00120AE
:1013B0001BF036F8074600283DD024482CF0F8FEF4
:1013C0000546C0B31BF044F83B68D4F89C205A6033
:1013D00094F8A230C4F89C706FF3010384F8A23033
:1013E000238E1E442B790636B6B243F00303A4F8CD
:1013F00090602B710C236B710023EB7194F8B0306B
:101400002B7240F2E242D4F8AC30B3FBF2F3A5F811
:101410000930B4F8A430A5F80B30B4F8A630A5F81C
:101420000D30B4F8A830A5F80F30A5F811602946A2
:1014300020462DF028FB94F8C92094F8C8309A4231
:1014400040F00E8200200DB0BDE8F08FAC420020CD
:1014500028420020B4F890100A91771ABFB23904DC
:10146000E9D494F8A01084F8A11084F88D2094F8A1
:10147000EC1094F8ED208A4209D094F8EE2002F0A6
:101480000702052A04BF84F8ED10A4F87C001A684E
:10149000D4F89C50944204BF00221A600DB12B680E
:1014A00063B940F60E13BA4ABA49BB4827F023FE87
:1014B000404080F311884FF0030002DF2868B4F841
:1014C000A4204368C4F89C30E38DB4F8A6C0B4F8F7
:1014D000A8109A4213D1238E634510D140F2E24303
:1014E00003FB02FE42F2107303FB01E3013BB3FB7B
:1014F000FEF3B4F876E09BB29E4500F02281A38D06
:10150000EB8015232B7100232B77EA83A5F820C0ED
:10151000698429461AF074FF1AF07CFF2368002BB7
:101520000ADAD4E9012023F0004390422CBF804422
:1015300090442360A8EB0308E38DB4F8A450DFF8CF
:101540007CA213FB07F39BB2B3FBF5F11FFA81F901
:1015500015FB09F292B2934240F2E24080F0F4802F
:10156000D31A5843A0FB0A0187A3D3E90023FFF74E
:1015700095F820F07F408044638E9B440A9B9E1B1D
:1015800094F93D304E445E44002B40F2E24B6686B7
:101590000BFB05F580F2E680E26C636C03FB17271A
:1015A000E7642DF050FC064694F88000C0F38200FA
:1015B0001DF096FD94F8B02006440BFB02F2626524
:1015C0006E430022C4F8882006F57426E26C734846
:1015D00006F23F266B08B6FBF0F606FB09F0963BD9
:1015E0000244A3649A4294BFE264E364666466A31F
:1015F000D3E90023A0FB0A01FFF750F8A8EB00088D
:10160000D4F8AC00B0FBFBF00BFB00F05EA3D3E919
:101610000023A0FB0A01FFF741F8A5EB060920F023
:101620007F47B4F8A430E385B4F8A6302386B4F835
:10163000A83042F2107202FB0353013BB3FBF5F3F7
:10164000A4F87630564B2B44B3FBF5F594F8A23052
:10165000A4F87A505A0744BF0023A4F87830022136
:1016600001201FF069FB002202210646012018F02C
:1016700057FC20461BF064FF0530C5B2494B00946F
:101680002A460121002019F04DFA30F002030CD057
:1016900040F6B7133E4A44493F4827F02CFD4040EE
:1016A00080F311884FF0030002DFA9FB0A23CDE984
:1016B0000A23DDE90A0134A3D3E90023FEF7EEFF94
:1016C0003A4B0894CDE90643394B0593E3680493FC
:1016D0004FF6FE730393374B0A9920F07F44A4FB27
:1016E00003ABB1EB0A004FF007030B9903FB04BBFC
:1016F00061EB0B014FF47A720023FEF7CFFF4346F4
:10170000CDE9014000972A46012100202DF001F883
:1017100030F002030CD040F6D1131D4A22491E4876
:1017200027F0E9FC404080F311884FF0030002DF0E
:1017300026B101220221104618F0F2FB6FF047009B
:1017400081E601232B71E4E605FB113189B24843A0
:101750000DA3D3E90023A0FB0A01FEF79FFFA8EB2E
:10176000000809E740F68713094A13490A4827F099
:10177000C2FC404080F311884FF0030002DF0027D5
:10178000A9464EE7AFF300808D49FD1A070000001F
:101790007A77030076780300611D030040420F0052
:1017A000FF596202CDD301008978030075D301008F
:1017B00031E701008D49FD1A8A52030000CA9A3BA5
:1017C000E38E618E0B449B4494F89030DB071FFA44
:1017D0008BFB25D535482CF0EBFC054600283FF463
:1017E0002AAE94F890306FF3000384F89030238E83
:1017F0009B4403790BF1060B43F00303A4F896B066
:101800000371082343710123C371052204F191017F
:10181000083029F0F6FEB4F89630A5F80D3006E64B
:10182000B4F89630ABEB030B1BF4004F7FF403AE20
:1018300004F1380584F88D2004F191010522284631
:1018400029F0DFFE052128462CF02EFD94F83D30CE
:1018500060F3050384F83D30012384F82831EAE57C
:1018600012482CF0A5FC014680B194F8C83084F8E9
:10187000C930037943F00303037102234371C37139
:1018800094F8CA30037220462DF0FDF8B4F87C00BD
:1018900000287FF4D7ADB4F87630012B02D9A4F834
:1018A0007C30CFE50133A4F87C30CCE5AC4200209D
:1018B0002DE9F04F91B01E460C903046136850F859
:1018C0000C5BD3F800A00C4691462E31032206F1A2
:1018D000080B29F096FE06F11C07042204F12A01E8
:1018E000584629F08EFE052204F13A01384629F0C7
:1018F00088FE052138462CF0D7FC96F8213000F000
:101900003F0060F30503012886F8213040F22B8167
:1019100094F83F30C3F3040386F82230053B03F00C
:10192000FF030B2B00F21F81D9F800304FF00008A5
:10193000C3F80880A78E778294F8372094F8363061
:1019400043EA0223B382638E0B9340F2E2435F4388
:1019500094F83F3095F880205B0963F3840285F8A2
:1019600080202DF070FA0D9095F88000C0F3820071
:101970001DF0B6FB0D9B1844784300F574207E4B98
:1019800000F23F20B0FBF3F07B08963BF36294F843
:101990003130B06240F2E2425343F363238F0D9340
:1019A00042F2107202FB0372013AB2FBF7F2A5F8A1
:1019B0007620724A59463A4405F18400B2FBF7F2A8
:1019C000A5F87A20042229F01CFE94F81CB004F13A
:1019D0001E0106220EA829F014FECBF3801B4FF443
:1019E0008072A28384F81EB00EA9062204F11F00A3
:1019F00029F007FE728A0D9BE284B28A638595F80E
:101A000080302285C3F3820384F82C3028461BF0F3
:101A100097FD21463082E0800C98594C1AF0F0FC7A
:101A20001AF0F8FC414640462DF0E1F93123834697
:101A300000F252402B60C5F804804DA3D3E9002387
:101A4000C5F80880A0FB0401FEF728FEB36A0B99D5
:101A5000FF1AD9F80C3040F2E24202FB013320F0C9
:101A60007F4003F28633A3EB0B0342460221E8607A
:101A700001200B9318F054FA50461BF059FA821CBF
:101A8000404BCDF800A0D2B20121404619F04AF8EF
:101A900051461CF031FE9AF82830DB0707D50122A9
:101AA000CDF8008043461146404619F03BF82846E1
:101AB0001BF046FDA7FB04672DA3D3E90023804656
:101AC00039463046FEF7EAFDD9F80830A3F131096E
:101AD0004FF4B67308932C4BCDE906532B4B05936B
:101AE000EB6804932A4B20F07F45A5FB03BC07233A
:101AF00003FB05CCB6EB0B0067EB0C014FF0000AC3
:101B00004FF47A720023CDF80CA0FEF7C7FD0B99B5
:101B100017A3D3E90023CDE90150A1FB0401FEF78F
:101B2000BDFD08F1050820F07F405FFA88F80090BD
:101B30004B464246012150462CF0EBFD30F00203AB
:101B40000CD04FF4B773134A1349144827F0D3FA53
:101B5000404080F311884FF0030002DF0122022190
:101B6000104618F0DDF911B0BDE8F08FAFF300803A
:101B70008D49FD1A0700000040420F00FF59620224
:101B800000CA9A3BF9E60100CDE6010031E7010009
:101B90008D49FD1A4C79030089780300611D03000B
:101BA0002DE9F04F8FB083460DF137010DF136006E
:101BB0002CF06FFEDFF8D8809DF836300A939DF840
:101BC00037300B93DFF8CC902CF0D6FDD8F80040DE
:101BD000A4FB094528A3D3E90023824629462046D1
:101BE000FEF75CFD0646D8F80400254B0593002758
:101BF00021A3D3E90023A0FB0901CDF818B0CDE95A
:101C00000777FEF74BFD1F4B26F07F46A6FB03BC74
:101C100020F07F40072303FB06CCCDE90370B4EB33
:101C20000B0065EB0C014FF47A720023FEF736FDD2
:101C30005346CDE9016000970B9A0A9803212CF0D6
:101C400068FD30F0020314D10F4A1048002324F03D
:101C500023FF58B19DF837209DF83600032120F06E
:101C60009BF96FF03B000FB0BDE8F08FD8F80C0087
:101C7000F9E76FF04700F6E78D49FD1A070000000D
:101C80004D2002008D49FD1A447B0B008047002047
:101C90007047002000CA9A3B38B50F4D04462CF01F
:101CA0006BFDA9682CF06AFD0C49B0FBF4F4044408
:101CB000686807A3D3E90023A0FB0101FEF7EEFC4F
:101CC00020F07F40844294BF0020012038BD00BF37
:101CD0008D49FD1A070000007047002000CA9A3B9A
:101CE00010B5044628B101461148BDE8104027F060
:101CF00002BA104827F0FFF921F01EF9204621F022
:101D0000C7F921F085FB044600F0CAF801462046D9
:101D10002AF0D6FF014608B10748E6E728F02DF97A
:101D2000032016F0F3F90548BDE8104027F0E3B9A9
:101D3000041C0300241C03003B1C03005E1C030066
:101D400008B5074827F0D7F9064806F089FD01468F
:101D500020B10548BDE8084027F0CDB908BD00BF57
:101D6000701C0300E11C0000041C030070B5059802
:101D70008469056A103022F0DFF82A4603462146BE
:101D80000248BDE8704027F0B6B900BFFC1C030054
:101D900070B515461C4613881A4A12889A420E4698
:101DA00011D1204622F0C8F80146174827F0A3F9C0
:101DB000204622F0C1F82B88B2880146BDE8704069
:101DC000124827F098B9124A12889A4205D1204643
:101DD00022F0B2F801460F48E8E70F4A12889A420B
:101DE00005D1204622F0A8F801460C48DEE70C4A4F
:101DF00012889A42DCD1204622F09EF8014609481A
:101E0000D4E700BF58A60300811C0300DF1C0300B9
:101E100020A60300941C030030A60300A51C0300A9
:101E200008A60300C21C030008B5044825F04AF9BF
:101E30000020BDE808402DF004BD00BFF8100020D0
:101E400007B50E4A0E4B01931368591C11605A4294
:101E500002F0030203F0030358BF534202AA1344E3
:101E600013F8040C2DF0EDFC064907484FF4767288
:101E7000002303B05DF804EB25F09CB8E8220020B5
:101E800003060C09F8100020302200200022002355
:101E90000149024825F08EB8F810002030220020B9
:101EA00008B5054B30220021184629F0D4FB034A1F
:101EB0004260034808BD00BFF8100020411E00002A
:101EC000340A030010B5094C0A44914200D110BDF8
:101ED00011F8013B43401809205C80EA0310C3B2AB
:101EE0001809205C80EA0310C0B2EEE72E1D030043
:101EF000436870B503F003030546022B0E46A96044
:101F000010D0032B04D0012B0FD10024204601E078
:101F10000468002000236B6010B1314626F0F0F811
:101F2000204670BD00680024F4E74523054A0649B1
:101F3000064827F0E0F84521024827F08EFB0024F0
:101F4000E7E700BF3E1D03008A520300611D030046
:101F5000014B1860704700BF6804002030B585B0A1
:101F6000CDE901010446002501A90548039500F0CB
:101F7000E9FCDDE902309842B8BF255405B030BD18
:101F8000D19002002DE9F74FB0F81CB01BF0080FFC
:101F90000446924621D001290CBF4BF0100B4BF0A8
:101FA000200BA0F81CB01434204624F089FF68B937
:101FB000A723A74AA749A84827F09DF82146A74884
:101FC00027F099F8A721A24827F047FB8AF3118848
:101FD000BFF36F8F03B0BDE8F08FA14EDFF87882BA
:101FE0000BF0070B022907D1204627F09EF80028A6
:101FF000D9D0012840F0BE80D4F81890A38BB9F155
:10200000000F71DA00272568009723F00703C4E961
:10201000007743F00103A383A38B03F007025A4523
:10202000019203D0A268002A40F07681002D40F092
:102030007681009A002A47D02F4643F0080304F126
:10204000140BA383584624F03BFF68B9A723804AAA
:102050008049404627F04FF85946804827F04BF812
:10206000A7217B4827F0F9FA8AF31188BFF36F8F15
:10207000002F40F05681002D40F06781009B13B186
:102080007849204698474FF02003EFF3118A83F3F5
:102090001188BFF36F8F584624F004FF68B97C2382
:1020A0006B4A7149404627F026F859466F4827F099
:1020B00022F87C21664827F0D0FA584624F010FF19
:1020C000A38B23F00803A383A38BDA0640F1478197
:1020D00023F01003A3830121B4F81CB00BF0070B0D
:1020E00000297FF47FAF5EE703F00702511F01294B
:1020F00021D8002123F00703062A25689BB2C4E9F2
:1021000000110AD13DB1E28B29460968013292B231
:102110000029FAD1E28343F00203A383204627F08B
:1021200004F8002800F0F480A38B43F02003A3837D
:102130000023009370E7042A0FD123F007039AB21B
:10214000A283204626F0F1FF002800F0E38042F051
:102150002002A283002500955EE7404640F2191355
:102160003246434926F0C7FF40F21911304627F0A6
:1021700074FAEFE7032835D1BBF1000F0BD03D49CE
:1021800040464FF4AA73324626F0B5FF4FF4AA71C9
:10219000304627F062FA23685BB93749404640F27F
:1021A0005513324626F0A7FF40F25511304627F06E
:1021B00054FA23691B6800935BB9304940464FF4D9
:1021C000AC73324626F097FF4FF4AC71304627F0DF
:1021D00044FAA38B23F0070343F00603A3830025EF
:1021E000A94619E704284FD1BBF1020F0BD02449AF
:1021F000404640F25B13324626F07DFF40F25B1111
:10220000304627F02AFAE38B5BB11E4940464FF473
:10221000AE73324626F06FFF4FF4AE71304627F0B2
:102220001CFA23695B6800935BB91449404640F28D
:102230005F13324626F05FFF40F25F11304627F011
:102240000CFAA38B23F0070343F00403C6E700BF97
:102250002F1E0300551E0300611D03006C1E0300AA
:102260008C1D030081230000811E0300961E0300C5
:102270008A520300AE1D0300BA1D0300DD1D0300DA
:10228000F41D03000A1E0300052832D1BBF1010F23
:102290000BD0374940464FF4B173324626F02BFF3E
:1022A0004FF4B171304627F0D8F923685BB9314952
:1022B000404640F26313324626F01DFF40F26311A0
:1022C000304627F0CAF923699B6800935BB92A4915
:1022D00040464FF4B373324626F00DFF4FF4B3710E
:1022E000304627F0BAF9A38B23F0070343F0050328
:1022F00074E740F2691332462049404626F0FBFE5F
:10230000002540F26911304627F0A7F9009567E7EC
:10231000009081E605461EE7012217468DE6002261
:10232000FBE7A16800293FF4A6AED1F800A04B68F6
:10233000019A1F4620464B46B847BAF1000F3FF4BA
:102340009AAE5146DAF800A0F1E7D5F800A0019A5C
:1023500029464B46204626F004FF55468BE613F0EF
:1023600020011EBF23F02003A3830221B4E600BF97
:10237000191E0300BA1D0300DD1D03008A5203006D
:10238000F8B504460F4600F114054FF02003EFF3B3
:10239000118683F31188BFF36F8F284624F082FDE6
:1023A00068B97C230B4A0C490C4826F0A4FE294648
:1023B0000B4826F0A0FE7C21064827F04EF928465F
:1023C00024F08EFDA761324620460121BDE8F84089
:1023D000FFF7D8BD2F1E0300811E0300611D0300FF
:1023E000961E03002DE9F0470446884626F0CFFEEE
:1023F000061E5CDB04F114094FF02003EFF3118A91
:1024000083F31188BFF36F8F484624F04BFD68B902
:102410007C23384A3849394826F06DFE4946384809
:1024200026F069FE7C21334827F017F9484624F04E
:1024300057FDE38BA28B4FF6FF718B4202F007052D
:1024400050D0022D21D10133E3832E460127484687
:1024500024F036FD68B9A723264A2A49274826F0E2
:102460004AFE4946284826F046FEA721214827F083
:10247000F4F88AF31188BFF36F8FC7B100232A469F
:102480004146204626F06DFE11E0930701D0062D4F
:1024900010D10023C8F800306368F3B9C4E900889C
:1024A0002E460DBB524602212046FFF76BFD3046FB
:1024B000BDE8F087052D19D0012D0BD013490F4829
:1024C000134A40F2C51326F016FE40F2C51110481B
:1024D00027F0C3F86FF0040606E0C3F80080C4F8E4
:1024E0000480DDE76FF00A060027B0E76FF02206F0
:1024F000FAE700BF2F1E0300811E0300611D0300C9
:10250000961E0300551E03006C1E0300191E0300D7
:102510008C1D030070B5044600F114054FF0200334
:10252000EFF3118683F31188BFF36F8F284624F0F1
:10253000B9FC68B97C23274A2749284826F0DBFDE7
:102540002946274826F0D7FD7C21224827F085F828
:10255000284624F0C5FCA38B03F00703022B1CD0F4
:10256000012B0CBF6FF004046FF02204284624F006
:10257000A7FC68B9A723174A1A49184826F0BBFDDB
:102580002946194826F0B7FDA721124827F065F81B
:1025900086F31188BFF36F8F18E0E38B5BB91349A3
:1025A0000E48134A4FF4F67326F0A5FD4FF4F6716A
:1025B0000F4827F052F8E38B013B9BB2E3833BB912
:1025C000204632460221FFF7DDFC0224204670BD82
:1025D0000224CBE72F1E0300811E0300611D0300B0
:1025E000961E0300551E03006C1E03007E1D030093
:1025F0008C1D03002DE9F041184DDFF86C80074673
:102600004FF0FF324FF0FF33384622F043FF0446CD
:102610000028F5D0466866B941461C232A46104872
:1026200026F069FD0F4826F066FD1C21284627F09C
:1026300014F8BFF35B8F04F1080353E8002F22F076
:10264000010143E800100028F7D1BFF35B8FD307E7
:1026500001D52046B04724F051F8D1E7AE1E030063
:10266000611D0300E81E0300D11E0300F8B50E46ED
:10267000002941D00568AB68B3F5004F2CBF082492
:1026800004240C1B641BE4082146284626F0C1FDE7
:1026900068B99B23194A1A491A4826F02CFD31467D
:1026A000194826F028FD9B21144826F0D6FF214624
:1026B000284626F0B5FD271800223946284626F080
:1026C00092FD381A84420DD0A4230C4A0F490D48BC
:1026D00026F011FD31460E4826F00DFDA4210748D5
:1026E00026F0BBFF21462846002226F09FFD21460A
:1026F000BDE8F84026F0DDBEF8BD00BF3B1F03007B
:102700005C1F0300611D03006D1F0300A51F030074
:10271000CB1F03002DE9F04701F1FF3A1AEA010F40
:1027200006468946144605680CD03449344A354873
:10273000FC2326F0E0FC344826F0DDFCFC21304888
:1027400026F08BFFAA68B2F5004F2CBF08230423A4
:10275000994505D821463046BDE8F04726F0E7BE4A
:102760001CB900273846BDE8F087B2EBD40FF8D982
:1027700009EB0401C91A284626F074FD01462846D3
:1027800026F011FE80460028EBD0AB68B3F5004F71
:102790002CBF0826042606EBC0072F445744C9F176
:1027A000000907EA0907BE1B3C44761B0734F608FC
:1027B00024F00704641BB0424FEAE40408D2014647
:1027C0003246284626F082FD4146284626F02CFE59
:1027D0003146284626F024FD3044844208D2314652
:1027E0002846224626F072FD2146284626F01CFE89
:1027F00001223146284626F019FDB3E7031F0300E6
:102800003B1F0300611D03001E1F0300B2F5802F54
:10281000F8B507460D46164612D2042A0ED843498B
:10282000434A44484FF4B67326F065FC424826F00C
:1028300062FC4FF4B6713E4826F00FFF042300E01F
:102840000823F61AEC1D354424F0070425F007058B
:102850002D1B172D4FEAD5060ED83849344A354876
:1028600040F2751326F047FC334826F044FC40F252
:1028700075112F4826F0F1FE002200233C60C4E9C8
:1028800000230023E3603146A660204626F0F4FCD6
:1028900001218500471C204626F0E4FC1B35ED088D
:1028A0002844B0420ED32649214A224840F28113DF
:1028B00026F021FC204826F01EFC40F281111C4825
:1028C00026F0CBFE002304F110021946BB4229DB9F
:1028D0002A462046002126F0C1FC771B2046012213
:1028E000002126F0A3FC3A46294626F0B7FC2B46E9
:1028F00029462046002226F081FC3146204600224F
:1029000026F0ACFC3B4631462046002226F076FC01
:1029100031462046012226F089FC2946BDE8F840D0
:1029200026F082BD42F8041B0133CFE707200300E5
:102930003B1F0300611D030028200300412003000A
:10294000692003002DE9F04F93B08A460390934627
:102950001C4600259BF8000008B9284617E32528E7
:102960000BF1010707D05146039B98470028C0F29E
:102970000E83013500E2182200210CA828F06BFE1E
:102980009BF80130252B7CD00022CDE90422BC46E7
:1029900010469146174690461646964663461CF8E2
:1029A000011B2B2900F09F8000F29580202900F068
:1029B0009D80232900F09D802EB19DF838606EF334
:1029C00082068DF838602FB19DF8386068F3C30631
:1029D0008DF8386028B19DF8380069F304108DF83F
:1029E0003800049828B19DF8380040F020008DF898
:1029F000380032B19DF83820059860F386128DF8C2
:102A000038209DF8382002F04400442803D16FF3A9
:102A100086128DF838209DF838202A2942F080024D
:102A20008DF8382040F081805A1C9DF8393043F0F1
:102A300001038DF8393013782E2B9DF839300CBFF7
:102A40000121002161F341038DF8393079D15378A8
:102A50002A2B6FD0013200210A26104610F8013BC4
:102A6000A3F13007092F40F293809DF83830109180
:102A7000C3F3400040EAD17161F341038DF838306F
:102A80005FE00BF102078DF83B309DF83930D90734
:102A900040F1198154F8049BB9F1000F07DA9DF851
:102AA000382042F004028DF83820C9F100095A0795
:102AB00040F11281234653F8048BB8F1000F80F2E5
:102AC00025819DF839206FF341028DF839201C468D
:102AD0004FF0FF3805E12D290ED030297FF46CAF7F
:102AE000012205925AE70127B84657E7012081469F
:102AF00054E70123049351E70126B6464EE70CFB49
:102B0000010130393246164616F8010BA0F13007A4
:102B1000092FF4D993428ED09DF838300F91C90F08
:102B200061F341038DF8383085E71A4600214FF0F4
:102B30000A0CE8E79DF8393043F004038DF839308A
:102B40000232174617F8013B6A2B47D025D84C2B89
:102B500050D0682B2ED0174617F8012B8DF83B204C
:102B6000672A9DF8393060D8652A55D2582A00F076
:102B700098804CD8412A4FD002D3453A022A4BD9EB
:102B80009DF8383043F001038DF8383000236AE0B7
:102B900006FB0131303902465FE7742B26D07A2BD1
:102BA00020D06C2BD7D153786C2B9DF8393013D1B2
:102BB000042105E05378682B9DF8393006D10121B6
:102BC00061F3C6038DF83930971CC5E7022262F322
:102BD000C6038DF83930BFE70322F8E79DF8393096
:102BE0000522F4E79DF839300622F0E79DF83930E8
:102BF0000722ECE7BDF8383023F4F04323F002035A
:102C000043F4804343F00203ADF83830A4E7632A6D
:102C100047D012D8612AB3D19DF83A30042262F32A
:102C200002038DF83A3001231DE0702A2CD024D8FD
:102C30006E2A3AD035D8692AA2D19DF83A100120DF
:102C400003F0780360F30201402B8DF83A1002BFC5
:102C50009DF8381041F001018DF83810632A95D1A4
:102C6000003318BF01239DF83820C2F340010B4305
:102C700063F341028DF8382007E7752A11D0782ACE
:102C80000FD0732A7FF47CAF9DF83A20032113F014
:102C9000780F61F302028DF83A2014BF012300235C
:102CA000E1E79DF83A100220CAE79DF83A2003F0C8
:102CB0007803A3F14000032161F3020243428DF83F
:102CC0003A204341CFE79DF93820002AB4BFDDF810
:102CD0003C904FF0FF39EAE69B077FF5F9AEDDF84F
:102CE00040809DF839200023CDE90F339DF83A301C
:102CF00003F00703012BC2F3C3023FD1D31E042B01
:102D000014D8DFE803F0050D0D1313001C46E8E7A7
:102D1000234653F8040BC117CDE90C011C461CE0F7
:102D2000073424F00703F3E80201F5E72346012AFC
:102D300053F8040B4FEAE071CDE90C011C4605D1B4
:102D40009DF830300C9300230D9306E0022A04D145
:102D5000BDF93000C117CDE90C019DF8383013F0F2
:102D600003063FD03B465A465146039826F05FFC87
:102D70000028C0F20C810544BB46EBE5022B20D1B4
:102D8000D31E042B0ED8DFE803F00309090D0D0054
:102D900020680C900021231D0D91BFE7E31D23F057
:102DA0000703C0E72346012A53F8041B0C914FF098
:102DB00000010D911C46C3D0022ACED1BDF830309F
:102DC000C0E7042B07D1E31D23F00704F4E8020158
:102DD000CDE90C01C1E7032BBFD1234653F8041BF7
:102DE0000C919BE79DF83B006E2800F0A8803CD832
:102DF000632871D022D825283FF4B5AD5828BBD11F
:102E00000DF12E0300930EAA06ABDDE90C0126F0AE
:102E1000C1FB8346B8F1000F0DF12E000CDB9DF8CD
:102E20003820A0EB0B036FF3861298458DF83820FD
:102E300002D9A8EB03030F93804645E0642801D034
:102E4000692899D11E0778D413F0100618BF2026E0
:102E5000DDE90C23002A73F10001D1DA524263EB61
:102E60004303CDE90C232D26CAE7732820D01BD8B5
:102E70006F28C5D070287FF47FAF0C98002873D0DE
:102E80000DF12E0300930EAA06AB314626F082FB0D
:102E9000BDF83A3003F0EF0343F4F04343F010037E
:102EA0008346ADF83A30B5E77528A9D07828A6E76B
:102EB000B8F1000FDDF830B00ADB4146584628F083
:102EC00055FB0BEB00080026BBF1000F0BD153E7BD
:102ED000584628F044FBF4E70C9B8DF818300DF1B0
:102EE00019080DF1180BA8EB0B0306B101339DF87F
:102EF0003A20D0063ED5023352060F9948BF109AA9
:102F00000B4448BF9B18B9F1000F4DDD9DF83820E8
:102F1000A9EB0309C2F380030493002B44D15006AC
:102F200038D546B151463046039B984700282EDBE2
:102F3000049B01351E4630232DE02B2688E70C9B91
:102F4000072A3FF619AFDFE802F00D04060D080866
:102F50000D0D1D7010E71D800EE72846E917C3E927
:102F6000000109E71D6007E7DFF8C8800646A8F101
:102F7000050BB8E7110748BF0133BDE718460493B6
:102F80005146039B984700284A46049B05DA13B034
:102F9000BDE8F08F20234A464D44002AA5EB0201EC
:102FA00002F1FF39EADC0D4636B151463046039B4B
:102FB00098470028EBDB01359DF83A30D90601D45B
:102FC0001A0706D551463020039B98470028DEDBC0
:102FD00001359DF83A30DB0607D551469DF83B0098
:102FE000039B98470028D2DB01350F9E2E44731BAC
:102FF000002B16DC43465A465146039826F017FB31
:103000000028C4DB0544A944A9EB0503002B7FF786
:10301000B3AE51462020039B98470028B7DB01350B
:10302000F2E751463020039B98470028AFDB01357B
:10303000DDE700BF9720030030B5002289B00F49BB
:103040000F482CF09EFF0F4D0F4900220023CDE9C1
:10305000062300240E23CDE90334CDE90144009476
:103060000A4B4FF44072284623F03EFE084928469A
:103070002CF0E2FE204609B030BD00BF95300000C4
:103080002811002060110020A04F0020753500009D
:1030900098200300014823F0BBBC00BFE80E0020CD
:1030A0002029F8B506460D4609D914491448154A91
:1030B0005B2326F020F85B21124826F0CEFA002090
:1030C00003460246012716F8011B09B1AB4200D3A3
:1030D000F8BD252902D182F00102F4E7002AF2D0DE
:1030E00041F02004613C192CEDD8732904BF07FA84
:1030F00003F2104301330022E5E700BFB4210300CF
:10310000611D03008721030008B500F0B1FA0948EA
:1031100026F0ABFA04232822074908482CF0DEFDEC
:10312000074B084A1A604FF40040BDE8084000F021
:103130008FBD00BFF82200208094002000230020D3
:103140006C040020AF960200F8B5104BBFF35B8F04
:10315000002553E8007F43E80052002AF9D1BFF36D
:103160005B8F0B4C0B4E361B3611B54200DBF8BDA6
:10317000204626F090FA28B12368DB6813B139465F
:103180002046984701351034EFE700BFF0220020B9
:1031900090060300B0060300064BBFF35B8F53E8B5
:1031A000002F013243E800210029F8D1BFF35B8FE3
:1031B000704700BFF0220020044A054B9B1AB1EB78
:1031C000D30F34BF52F83100002070476004030071
:1031D0009006030070B5104C041B24110134054601
:1031E0000E46E4B248B90D490D480E4AC02325F0F9
:1031F00082FFC0210B4826F030FA6B681C710A4C24
:103200001E6001225A71227812B9084823F000FC8E
:103210000123237070BD00BF90060300D12003007E
:10322000611D0300A02003008A490020E80E002051
:1032300070B5184B184CE41A2411092C0BD91749F6
:103240001748184A40F20E2325F055FF40F20E2190
:10325000144826F002FABFF35B8F134B53E8005F6C
:103260006A1C43E800210029F8D1BFF35B8F15B930
:10327000084EA54200DB70BD337B43B133685B6908
:1032800003B19847042200213046FFF7A3FF013520
:103290001036EEE790060300B0060300E8200300B6
:1032A000611D030087210300F4220020164B984281
:1032B00037B5044602D3154B984220D30022002391
:1032C00001A9134821F016FD0546D8B90122019B3A
:1032D000BFF35B8F53E8001F43E800200028F9D1BB
:1032E000BFF35B8F019821461F22043028F024F998
:1032F000019C7E2384F8233084F824500434204633
:1033000003B030BD034CFAE7AC000300B8930300F0
:10331000002300202821030048B1054B984205D323
:10332000A03398422CBF0020012070470020704736
:10333000809400204E4B1B782DE9F74F054603B9CA
:1033400060B34FF02003EFF3118683F31188BFF3CE
:103350006F8F484826F099F9044686F31188BFF329
:103360006F8F78B1BFF35B8F434B53E8002F013A67
:1033700043E800210029F8D1BFF35B8F95B12046C7
:1033800026F092FA25B93D4B1B680BB1FFF7DCFE26
:10339000384826F078F9051C18BF0125284603B0E7
:1033A000BDE8F08F364B1B78C3B9237ADB0715D401
:1033B00026F08DFA8146204626F056FA0146484608
:1033C000FFF76EFE2F4A304BDFF8E0A001929B1A08
:1033D00080464FEAD30BB8F1000F06D12B4E2C4F8D
:1033E000BF1B3F114FF000083FE0B8FA88F6C6F166
:1033F0001F063146204626F03AFA264B98420246EE
:1034000002D3254B98421ED31046FFF785FFD0B953
:10341000224B9A4217D0638921499B095B453ABFE9
:10342000019A52F833700746AE2352461D4825F0E4
:1034300062FE31461C484B463A4625F05CFEAE2102
:10344000504626F00AF9012303FA06F628EA060890
:10345000C1E7304626F01FF920B1336821461B68CA
:103460003046984708F101081036B845F1DB86E789
:103470008A490020F8220020EC220020F0220020BF
:103480008B490020600403009006030090060300AF
:10349000B0060300AC000300B8930300282103002A
:1034A0008A520300611D03004621030087210300A7
:1034B000294B73B51B68418105469847274CE86046
:1034C000BFF35B8F54E8003F013344E80032002A29
:1034D000F8D1BFF35B8F4FF02003EFF3118683F336
:1034E0001188BFF36F8F1E48294626F0C2F886F375
:1034F0001188BFF36F8F1B4B1B7883B14FF02003F4
:10350000EFF3118483F31188BFF36F8F0020FFF76F
:1035100011FF84F31188BFF36F8F02B070BD124AA0
:1035200023681268002AF8D0012B0AD10022002358
:10353000CDE900230D484FF40042002324F0FEF9AA
:10354000EBE70A2BE9D109482CF027FD084802B027
:10355000BDE8704023F05CBA6C040020EC2200202F
:10356000F82200208B4900201C2300202811002075
:10357000E80E0020164B174A9B1A002B10B50BDCE7
:1035800015491648164A40F29C4325F0B4FD40F216
:103590009C41134826F061F8FFF74AFE23F032FA07
:1035A000104B186030B1104B1B68092B02DD0F481F
:1035B00023F02EFA0D4C0020FFF7BCFE0028FAD1B4
:1035C0004FF0FF324FF0FF33204623F065FAF2E769
:1035D000B0060300900603000C210300611D0300E8
:1035E000872103001C230020EC220020E80E00208D
:1035F000F8B50F4F3D7875B90E4C0F4EFFF718FE1A
:10360000361B3611B54207DB0020FFF793FE00287A
:10361000FAD101233B70F8BD204626F03CF818B1E2
:10362000236820461B69984701351034EAE700BF3C
:103630008B49002090060300B006030007B504384C
:103640000190BFF35B8F50E8003F5A1E40E8002115
:103650000029F8D1BFF35B8F012B03D101A90348E7
:1036600021F0B4FB03B05DF804FB00BF0023002091
:1036700020231A46014902482CF030BB2095002037
:103680002023002037B50023094D01930120FFF7C7
:1036900051FE0446FFF780FD0022002301A92846C1
:1036A00021F028FB08B1002CF0D1019803B030BD07
:1036B0002023002007B5002301930022002301A945
:1036C000054821F017FB10B1FFF7DCFF01900198CE
:1036D00003B05DF804FB00BF20230020F0B5047A9E
:1036E000457A85B014F0010401904FEA15151BD1FD
:1036F000D5B126463146019826F0B9F80746FFF7BE
:103700000BFE70B134B9019B29461869FFF7C8FC5C
:10371000044648B124FA06F3D90702D53846FFF724
:103720008DFF0136AE42E5D3019B1A7A920704D58C
:103730005B69084C0393039B2BB901A9054821F051
:1037400045FB05B0F0BD1D6803A9204621F03EFBF6
:103750000395F0E7202300200E2A2DE9F84F82463A
:10376000884615460BD92D492D482E4A40F237136D
:1037700025F0C1FC40F237112A4825F06EFFFFF713
:1037800099FF044630B301230026032D43600681D0
:1037900009D902220281A5F1020900F1140B466148
:1037A000B9F1000F0EDC637AC4F810A065F30713BB
:1037B000032D637218D8AA00414604F1140027F0C3
:1037C00020FF07E0FFF776FF074630B92046FFF7F6
:1037D00085FF3C462046BDE8F88FCBF80000A9F1F4
:1037E000070906608346DBE74146082204F118001A
:1037F000676927F006FF023D08F10808072D2E46ED
:1038000028BF07264FEA86094146381D4A4627F059
:10381000F8FEAD1BC8443F68F0D1DBE7F821030098
:10382000611D0300CC2103000EB403B503AB0146B8
:1038300053F8042B04480193FFF784F802B05DF8B5
:1038400004EB03B0704700BF7D3A00002DE9F04F54
:1038500085B011F00204064690469DF8387001F0DC
:10386000010901F0080507D011F0440F37D11A46BD
:103870003249FFF7D9FF0446B9F1000F0AD0304BA7
:10388000304953F82720304B3046002A08BF1A46EB
:10389000FFF7CAFF3DB12D4B2D4953F82720304685
:1038A000FFF7C2FF0546B8F1000F44D0012303FA29
:1038B00007F7284B17F0100F274F18BF1F46BDF80A
:1038C00040109DF83C00FFF777FC39460246304631
:1038D000FFF7AAFF2844204405B0BDE8F08F1F4A37
:1038E000116831B31E4A4FF4616E1468B3FBF4F3F0
:1038F0004FF47A7CB3FBF1F4B4FBFEF20EFB124EF4
:1039000001FB14340CFB04F44FF03C0AB4FBF1FB54
:1039100001FB1B44BEFBFAF30CFB04F4B4FBF1F116
:10392000CDE901B10AFB13E100910E49FFF77CFFDD
:10393000A1E708469FE7084FC1E700BFBD2203008B
:103940005C0A030045380300AF220300700A03003D
:10395000E2220300B9220300B42203003C2300202A
:1039600040230020C622030038B50C46E107054677
:1039700003D5084A0849FFF757FFE20608D4A30613
:1039800028464CBF05490649BDE83840FFF74CBF03
:1039900038BD00BFAF22030045380300C57E0300D9
:1039A000A02203002DE9F0479846089BDD06044657
:1039B0000E46174605D499064CBF29492949FFF7F9
:1039C00033FFDFF8A890002545452ADBDFF8A0800B
:1039D000DFF8A090DFF894A00025BD422ED2725DE2
:1039E00049462046FFF720FF0135102D1FD11E4903
:1039F000DFF87880DFF880902046FFF715FF00257C
:103A0000AF4227D9725DA2F120035F2B28BF2E227F
:103A100049462046FFF708FF0135102D13D1BDE8B8
:103A2000F08749462046FFF7FFFE0135CCE76A07DD
:103A3000D3D151462046FFF7F7FECEE74146204658
:103A4000FFF7F2FED0E76B07DAD141462046FFF7D9
:103A5000EBFED5E741462046FFF7E6FEDCE700BF78
:103A6000C57E0300A02203000D2203000B220300E9
:103A700009220300032203000F22030038B54B681C
:103A80001A68CB689A4205460C4602D1084626F0D1
:103A9000E4F86368BFF35B8F53E8002F511C43E8E1
:103AA00000100028F8D1BFF35B8FA3689D546368B2
:103AB0001A68E3689A4209D905490648064A7423F8
:103AC00025F019FB7421044825F0C7FD002038BDFE
:103AD00054220300611D0300252203002DE9F04755
:103AE0008B7A13F0070617468AB004460D460A7A09
:103AF0001DD04989C3F3C2038909D2430291CDE99C
:103B0000006302F00102EB683946FFF79FFE814631
:103B10002B7ADA070DD42146284625F041FF002EE6
:103B200039D0324639462046FFF71EFF33E0B14612
:103B3000EEE7002E35D1E3685BB92A492A482B4AC3
:103B40004FF4D97325F0D7FA4FF4D971274825F0EF
:103B500084FD00263746E368069306AA3B46A16823
:103B6000284625F009FF069A63681A603AB1A368EF
:103B7000134413F8016CA6F10A035E425E4120462D
:103B800026F06BF8069B1F44002BE4D11EB11849A8
:103B90002046FFF749FE204626F05FF80AB0BDE850
:103BA000F087284625F093FE124902462046FFF78B
:103BB0003BFE4FF000084FF0100A05AA434606A945
:103BC0002846CDF814A025F0D7FE059A002AA8D0E3
:103BD0004B46009706A92046FFF7E4FE059B984454
:103BE000EBE700BF12220300611D03002522030042
:103BF000232203004538030073B542F20F738B4252
:103C000028BF0B4605680F4A04460521684625F083
:103C10007FFA63680C495B6806460B22284625F04C
:103C2000B2FE63683246694628465B6825F0ABFE03
:103C3000636806495B681B22284625F0A4FE02B093
:103C400070BD00BFC7650300A322030084220300E8
:103C5000084A10B50123084C13600021A04204D883
:103C600001B11360054B186010BD40085B000121D5
:103C7000F4E700BF4023002040420F003C23002017
:103C8000F8B5074F0D4604464618B44201D1284600
:103C9000F8BD386814F8011B83685B689847F4E73F
:103CA00058230020014825F0D8BF00BF9C0A03001C
:103CB0000148FFF7A1BF00BF9C0A030008B50948EF
:103CC00020F02AFD084B186058B92D2307490848F1
:103CD000084A25F010FA2D210648BDE8084025F0D5
:103CE000BCBC08BD0423030058230020402303006C
:103CF000611D03000B23030010B508460C4625F098
:103D0000A6FD214604480F22FFF7E8FE2046BDE845
:103D1000104025F0C9BD00BF9C0A0300014B0122E1
:103D20001A7070479D490020024B034801221A7007
:103D300025F093BF9E490020C40A03000148FFF705
:103D40005BBF00BFC40A030010B508460C4625F04F
:103D50007EFD214604480F22FFF7C0FE2046BDE845
:103D6000104025F0A1BD00BFC40A0300054B1B781D
:103D70001BB141F288302CF05BB8A420002122F066
:103D800009BE00BF9E4900202DE9F84F224FDFF801
:103D9000909082460E460424B8463B7833B94FF0E3
:103DA000FF324FF0FF33484621F070F8324651465B
:103DB000002001F0BDFB98F80030834613B9484657
:103DC00021F062F9154DBBF1000F18D001232B70C3
:103DD00098F8003033B93046BDE8F88F5CB92C70E4
:103DE0004FF0FF34002001F0EFFB0028F3D02B78D8
:103DF000002BF3D1EFE7013CFFF7B8FFF2E72B7898
:103E000013B1013C04D12C702B78002BC5D1E2E713
:103E1000FFF7ACFFF8E700BF9E4900209D49002056
:103E2000940E00202DE9F7430F4681460821C06A11
:103E3000124E25F092FF3C68241A80463C6004EA4A
:103E40000605AC4203D8002003B0BDE8F083082388
:103E50006A462146484625F010FF0028F4D16846FE
:103E600025F066FF38B9BDF80230BDF804203C608B
:103E7000354013441D44A4EB0804E2E70000FFFFB3
:103E80002DE9F04F044693B00821C06A25F065FF84
:103E900063681B0C1B04814601A9E089019325F08E
:103EA00066FF019BA18904AD1944A1EB09012A46D3
:103EB00008232046029125F0E0FE021EC0F2958004
:103EC000E36A1A790023E95C91427FD10133082B20
:103ED000F9D10199204625F054FF024685E0029B66
:103EE000BDF812201B0C1B0413440293DFF804B12D
:103EF000DDF808A006AA02A9204625F06AFF0246BE
:103F0000002872D106A825F013FF002835D1636878
:103F1000039308AA03A92046039D25F05AFF0246F1
:103F2000002862D1BDF82020BDF818309A4227D071
:103F30006268039B9A42ECD155451ED1BDF81C30F6
:103F4000DBB1BDF81A300AEA0B071F4406A8A368C4
:103F5000ADF81A3025F0F8FEE36ABDF81C801E6843
:103F6000764206F02006B8F1000F0FD106A92046D0
:103F700025F0C7FF0246002837D1CA45B8D1A8E7C7
:103F800008A825F0D5FE0028D2D1D5E7464535460C
:103F900028BF45460AAA2B463946204625F06DFE25
:103FA000024610BB35B10AAA2B46A168204625F06F
:103FB00060FF02462946E06A25F0CFFEA368184458
:103FC000A06092B9A8EB05082F44CCE7029B2846D5
:103FD000A3EB090925F0ACFE002880D002A92046F9
:103FE000FFF720FF0246002880D0104613B0BDE83E
:103FF000F08F00BF0000FFFF2DE9F047044686B0B8
:104000000D4600F1140630462BF083FE284620F0C2
:1040100083FBA06298B901234FF0000163F307010D
:10402000B04AB14BB1489B1ADB0863F38F1125F0FE
:1040300042FB6FF00505284606B0BDE8F0878368AF
:104040001B699847E06280B901234FF0000163F3D8
:104050000701A44AA44BA6489B1ADB0863F38F11FF
:1040600025F029FB6FF01505E5E7A06A83681B6959
:1040700098470368013B1F2B0CD901234FF0000127
:1040800063F30701974A984B9A489B1ADB0863F33E
:104090008F11E5E7A06A216803AA2BF044FB60B109
:1040A00001234FF0000163F307018E4A8E4B9248C3
:1040B0009B1ADB0863F38F11D2E7A3892BB1049A13
:1040C000B3FBF2F502FB153565B101234FF000019A
:1040D00063F30701834A844B88489B1ADB0863F328
:1040E0008F11BDE7E389012B0CD801234FF00001AC
:1040F00063F307017B4A7C4B81489B1ADB0863F31F
:104100008F11ADE7E36A009593F804904FF0FF320A
:104110004FF0FF33304620F0B9FE0821E06A25F069
:104120001CFE2F468046E3891FFA85FA53457DD849
:10413000E389BB4200F0BA809A450CD1009908236C
:104140004A46A1EB0801204625F0CEFD18B9694684
:10415000E08925F00CFE009B6A4FA3EB08023B4070
:104160006260A360D4E9011399420FD3082301AA26
:10417000204625F082FD054620BB01AB13F8012B3C
:10418000914540F096800135082DF7D1D4E90131F1
:104190008B4207D95B1A4A46204625F0A5FD051E2D
:1041A00010DB67D16368574FE0893B406946009355
:1041B00025F0DDFDA38900994A46204625F094FDAF
:1041C000051E5DDA304620F05FFF002D7FF433AF2F
:1041D0000123237403224FF0000362F30703424ECE
:1041E000404AE1894848B61AC6F3C90666F38F13F8
:1041F000A28925F081FA6168444803224FF0000348
:1042000062F3070366F38F138AB2090C25F074FA80
:10421000A1683F4803224FF0000362F3070366F3EF
:104220008F138AB2090C25F067FA04E7A1892B04E1
:10423000A1EB080113FA81F14A46082320460091B8
:1042400025F052FD70B16946E08925F090FD0137F7
:1042500008234A4600992046BFB225F045FD0028B4
:104260003FF466AF01355EE7BAF1000F36D06FF06C
:104270001C05A7E7E26AA36812681344A36085E7F8
:10428000A0D06168204625F07CFD0546002899D124
:104290006068A38938401844A0EB4800606038404B
:1042A000A0602046FFF7ECFD05468BE76FF0200588
:1042B00088E701A825F03CFD656878B9009ABDF84B
:1042C0000600BDF808A03A400244A2605146E06AE8
:1042D00025F043FD1044A842A060C5D0A5EB080519
:1042E00065603FE76004030048060300862303007F
:1042F000A2230300C4230300E1230300F9230300E6
:104300000D2403000000FFFF3024030047240300B6
:10431000592403002DE9F04F1E46037C89B0044662
:10432000894690469BB901234FF0000163F30701D2
:10433000684A694B69489B1ADB0863F38F1125F0C3
:10434000BAF96FF00C05284609B0BDE8F08FC26AD3
:104350000821104625F001FD31468246104625F021
:10436000FCFCA3890AEB4A029B1AB3420746C0F041
:10437000AB801EB1B8F1000F00F0A6806368039314
:1043800004AA03A92046DDF80CB025F022FD05465D
:104390000028D8D1BDF810304B4505D06268039B8A
:1043A0009A42EDD1DEB9CEE704A825F0C1FC002881
:1043B000F4D1BDF8143086B1B34210D1BDF812006B
:1043C0004FEA1B410904014433464246204625F08A
:1043D00062FC002803DC0546B5E7002BB3D0002FB4
:1043E0003FD104F1140A4FF0FF334FF0FF32504633
:1043F000DFF8ECB020F04AFD0023E289934260D060
:10440000D4E90121781882422ED3FF2306A8ADF803
:104410001890ADF81A10ADF81C608DF81E3025F01C
:1044200093FC36B133464246A168204625F021FD73
:1044300005463146E06A25F090FCA3681844A06068
:10444000002D44D106A9204625F05BFD0546002835
:104450003DD132460192504620F016FE019A154693
:1044600071E75744BFB2BCE70821E06A019325F029
:1044700074FC4FF6FF71ADF818100021ADF81C1058
:104480001118ADF81A10A18902EA0B020A44121A97
:10449000626006A825F058FC06A9204625F031FDEB
:1044A000211DE08925F063FC626802EA0B02A2602C
:1044B0002046FFF7E5FC02460028CBD1019B0133E3
:1044C0009BE76FF01B02C5E76FF015053BE72A4637
:1044D000C0E700BF60040300480603007223030026
:1044E0000000FFFF2DE9FF471F46037CBDF8308029
:1044F00004468A46914693B901234FF0000163F3C5
:104500000701294A294B2A489B1ADB0863F38F11BC
:1045100025F0D1F86FF00C0004B0BDE8F087082159
:10452000C06A25F01AFCA389A3EB4000B84238D337
:1045300063680193002502AA01A92046019E25F087
:1045400048FC0028E8D1BDF80830534505D102A841
:1045500025F0EEFB08B90135ADB26268019B9A42C5
:1045600018D04545E7D9BDF80C30BBB1454515D34A
:10457000BDF80A00310CBB424FEA014128BF3B465F
:1045800001444A46204625F078FB0028C4D1BDF8F6
:104590000C00C1E7BDF808305345E4D06FF00100CE
:1045A000BAE76FF01500B7E76004030048060300A0
:1045B00072230300084B30B51D68084B19680023AF
:1045C0009D4202DC0022104630BD1C010A190C5D20
:1045D0008442F8D00133F3E7240B03007004002079
:1045E000084B1B6810B50C462BB1FFF7E3FF28B151
:1045F0002060002010BD6FF00C00FBE76FF00100A1
:10460000F8E700BF7004002030B589B00C461546AD
:104610000190FFF7CFFFB8B1436802938368226827
:10462000C068CDE9033500230593CDE9062325F0C5
:1046300084FC60B101AA07492BF079F8079808B902
:10464000059B236009B030BD6FF01500FAE76FF0ED
:104650001200F7E73F9F02000F4B2DE9F0411C6865
:1046600006460F469046A4B14FF0FF324FF0FF339D
:104670000A4820F00BFC63683A469D683146434681
:104680002046A8470446054820F0FEFC2046BDE829
:10469000F0816FF00104F9E778230020A80E0020D4
:1046A00000230360044B5A6812B9C3E90000704745
:1046B00010605860704700BF70230020014B1860E5
:1046C000704700BF7823002030B585B00023054631
:1046D000CDE9023301904FF0FF334FF0FF320B482A
:1046E00020F0D4FB0A4B1C6834B1636820461B6879
:1046F00001A998472468F7E7284600F0E7F8044640
:10470000024820F0C1FC204605B030BDA80E0020B4
:10471000702300201FB5CDE9010103924FF0FF3354
:104720004FF0FF32094820F0B1FB094B1C6834B14F
:10473000636820461B6801A998472468F7E7034887
:1047400020F0A2FC002004B010BD00BFA80E002085
:1047500070230020024B0022C3E90022704700BFF3
:1047600070230020024B0022C3E90022FFF7F2BFB2
:104770007C2300202DE9F34707460E4609B10023AC
:104780000B60DFF8A880244CDFF8A4900025C24617
:1047900044450CD92149224894234A4624F0ABFCD5
:1047A000204824F0A8FC9421484624F056FF5445A4
:1047B00008D31D4B1C680CB1143CC4B9284602B088
:1047C000BDE8F08701AA2168384625F0DDFB60B11D
:1047D00025B90EB1019B3360254606E00022296809
:1047E000206825F0D1FB0028F3D11434D0E701AACA
:1047F0002168384625F0C8FB60B125B90EB1019B90
:104800003360254606E000222968206825F0BCFBBD
:104810000028F3D16469CEE70C030300DB24030016
:10482000611D0300032503007C23002060040300B6
:10483000A92403002DE9F04385B005460C9C0390A4
:104840000E4617469846B4B1216879B103AA25F0FF
:104850009BFB58B9002006E0A36800933A46434604
:1048600031460398C84705B0BDE8F083D4F80490FA
:10487000B9F1000FF0D103A92846FFF77BFF00280C
:10488000E8D084680398314643463A46A047064636
:104890000028DFD001234FF0000463F30704084928
:1048A000084BC91AC908284661F38F14FEF7FEFCAD
:1048B000234601463246044824F01EFFCAE700BFE3
:1048C0007806030060040300842403002DE9F84304
:1048D000214F224CDFF8988006460025B946BC429D
:1048E0000CD91F491F48F423424624F004FC1E48FB
:1048F00024F001FCF421404624F0AFFE4C4507D3E0
:104900001A4B1C680CB1143CA4B92846BDE8F883C6
:104910001EB9E3684BB91434E1E700223146206840
:1049200025F032FB0028F4D1F5E79847002D08BFA9
:104930000546F0E71EB9E3684BB96469E2E7002277
:104940003146206825F020FB0028F4D1F5E7984790
:10495000002D08BF0546F0E7600403000C030300C8
:10496000DB240300611D0300032503007C230020DA
:10497000A924030010B5064C23783BB9FFF7F2FEDB
:1049800000F064F808B90123237010BD0020FCE793
:104990009F4900202DE9F047048FDFF8AC900134E7
:1049A00098B080468A46A4B200F10806651EADB2F2
:1049B000B5F5004F45D04A2305AA2946304625F0D3
:1049C000B5FA04F57F543F34A4B2074621460123CB
:1049D0000DF10B02304625F0A9FA002F014603DC49
:1049E000002803DC2C46E1E7002816DCB8F8383054
:1049F000AB4209D142466B1E22F8383F4FF40041CA
:104A000002233046FFF786FC2946304625F08AFA15
:104A10002146304625F086FAE4E718AB1F44002310
:104A200007F84C3C4A46CDF800A003AB05A8039616
:104A3000ADF81040FFF7FEFE0028D3D018B0BDE857
:104A4000F0870020FAE700BFF59F02007FB5012341
:104A5000694604200193FFF7C3FD0446002837D1BF
:104A600002AA01A90420FFF7CFFD10F1130F04469D
:104A70002ED040B110F10C0405D0404080F31188D5
:104A80004FF0040002DF0399B1F5803F23D2009A72
:104A9000002395681846084485429CB203D301332D
:104AA000082BF8D11C460D4D5368AB602846D368DF
:104AB000EC82A982EB6325F034FB044640B9084E32
:104AC0006E602846FFF7ECFD28466E60FFF7F6FDA6
:104AD000204604B070BD6FF02404F9E78423002061
:104AE0007404002008B504464FF02002EFF3118350
:104AF00082F31188BFF36F8F25F0BDFB204601F0D4
:104B00007FFD034824F0F7FA01F01EF8FCE700BF30
:104B10002825030010B50748074C1FF0FDFD074B83
:104B20001860204601F04EFD2046FDF711FA0020E6
:104B300010BD00BF04230300414B0000C42300202C
:104B40000A2838B50446074D04D1286883680D212A
:104B50005B68984728688368E1B25B68984720469D
:104B600038BD00BFC42300202DE9F0410E4C051BC9
:104B7000C5F347130C255D43074605F148000E4673
:104B80002044402125F0E9FA011E08DB074B2C44A4
:104B9000C4E91036064B5B59BDE8F041184738466A
:104BA0003346BDE8F0411847D8230020BDA10200DC
:104BB0003C0B030038B5CCB2012C054609D9094994
:104BC00009480A4A7E2324F096FA7E21074824F0F9
:104BD00044FDEB680C2104FB0131886C00F00700F8
:104BE00038BD00BF8E250300611D03005125030061
:104BF000F8B5CCB2012C05461746C6680BD9194941
:104C000019481A4A40F2531324F075FA40F253112E
:104C1000164824F022FD4FF02003EFF3118183F3B7
:104C20001188BFF36F8F0C2303FB0462926C12F0A8
:104C3000C00201D0974211D103FB046301229A64A0
:104C4000002081F31188BFF36F8F30B96B680C229D
:104C500002FB0434636898470020F8BD4FF0FF3032
:104C6000EFE700BF8E250300611D030051250300FF
:104C700070B50D460649411A0446491140220548BF
:104C8000FFF7B6FF2B4601462046BDE870401847A7
:104C9000D8230020440D0020002270B501210446D5
:104CA000104600F0BBFE002000F086FE0F481FF00B
:104CB000ADFA0F4B984215D11FF0CCFAE6680D49BA
:104CC000304624F073FA00280BDB0125B564E46854
:104CD000084904F1200024F069FA002801DB656529
:104CE000002070BD6FF00400FBE700BF2D4D0000F9
:104CF0000000AD0B540B030001460C2309484B4345
:104D000070B5C418D4E91056002248332264184400
:104D100025F041FA2DB132462B460348BDE87040DC
:104D2000184770BDD8230020440D0020012808B585
:104D300011D058B1032812D01049114A114840F23D
:104D40006A2324F0D8F940F26A2111E00E4B986CE6
:104D500010F0070011D1BDE80840FFF7CDBF0749AB
:104D6000074A084840F2662324F0C5F940F266215C
:104D70000348BDE8084024F070BC08BD8A52030017
:104D800051250300611D0300D823002008B54FF012
:104D90002003EFF3118183F31188BFF36F8F124A61
:104DA000136843F0020013F0010310600CD04FF0C1
:104DB0008042D2F80C34D2F80C2413F0010303D053
:104DC0000A4825F0E8F9012381F31188BFF36F8FBA
:104DD00023B10020BDE80840FFF78EBF0120BDE8E9
:104DE00008401FF057BA00BF3024002020240020C4
:104DF000094BBFF35B8F53E8002F22F0020143E819
:104E000000100028F7D1BFF35B8FD30702D4012035
:104E10001FF094BA704700BF302400207FB50022F5
:104E20000123CDE9022304ABCDE90433094ACDF8CF
:104E300000D06B46CDF804D025F0D2F9002805DB70
:104E40004FF480420023684621F026FE07B05DF84B
:104E500004FB00BFDBA10200024BC0B203EB401019
:104E6000704700BFD8230020094BBFF35B8F53E886
:104E7000002F42F0010143E800100028F7D1BFF3F2
:104E80005B8F930702D401201FF004BA704700BF64
:104E900030240020094BBFF35B8F53E8002F22F032
:104EA000010143E800100028F7D1BFF35B8F93079F
:104EB00002D401201FF042BA704700BF3024002006
:104EC0002DE9F8434849BFF35B8F0546012251E8BD
:104ED000003F41E800200028F9D1BFF35B8FA3B960
:104EE000424943484B60CB608A60FDF77BFA00285B
:104EF0000BDA40494048414A40F2262324F0FBF8AF
:104F000040F226213D4824F0A8FB95B3022D54D849
:104F1000012D07D14FF08043D3F81C3403F0030375
:104F2000012B26D02AF07EFF18B9354B1B78002BB9
:104F300051D14FF02003EFF3118983F31188BFF3B0
:104F40006F8F01242F4E304FDFF8C4804FF0804226
:104F5000D2F81834D2F81824D2030CD503F0030386
:104F6000012B01D0012D06D10CB389F31188BFF3B9
:104F70006F8FBDE8F883ACB1484600F0F3FD4FF009
:104F80008042D2F81835002BE0D131680029DDD0FD
:104F9000336033680123C2F81835C7F88031C8F888
:104FA0000030D3E70021212021F0F4FCE7E74FF0A7
:104FB00080430222C3F80423DBE74FF40E73134946
:104FC0000D480E4A24F097F84FF40E710B48BDE8D7
:104FD000F84324F042BB4FF080430222C3F8082379
:104FE00004468146AEE700BF34240020C8230020D9
:104FF000F8230020D2250300611D03005125030082
:10500000824F00200401004000E100E08A520300CA
:105010000800004010B5064C0649074822461723F1
:1050200024F069F820461721BDE8104024F015BB94
:10503000E52503008A520300611D0300044A13683A
:10504000C91A21F07F400344136022F035BB00BF32
:10505000442400202DE9F84F850005F1804500F13A
:10506000500405F58835A400A4B2DFF87C80D5F89B
:105070004025DFF878A004F180444FF4803721F018
:105080007F4604F588348740C146D8F804B5A2EBC2
:105090000B0222F07F422BF07F43012AC5F84035F6
:1050A00002D113202AF0C4FE0BF10202B31A23F03E
:1050B0007F43534528BF1646002323602368C9F861
:1050C000447326F07F43C5F84035D9F804359B4535
:1050D00007D0F31A023B23F07F43B3F5000F3246AB
:1050E000D3D8BDE8F88F00BF001001400100800058
:1050F000F8B5104E104F0025104B00201C681A46C2
:1051000005B1F8BDD6F80413C903FAD539680029EA
:10511000F7D03D6039684FF48031C6F84813D6F8AF
:10512000401501251CB118605A68A047E4E71460D7
:10513000E7E700BF00100140401101403824002083
:1051400038B5104D00244FF48033C5F80845C5F834
:1051500004330D4B4FF40032C3F880210121224665
:10516000112000F05BFC112000F026FC074A01230F
:105170001360074A2B6002201360FFF7A1FE204650
:1051800038BD00BF0010014000E100E00810014000
:1051900040240020134BB0F1FF3F08BF18460138F0
:1051A00000281CDD9842A8BF18460F4BD3F80425F1
:1051B0000E4B1968521A12F4000F22F07F4318BFE9
:1051C00000200B4A013303440A481060002050605D
:1051D000044A934294BFC9188918FFF73BBF0020C7
:1051E000E3E700BFFFFF7F000010014044240020E0
:1051F000382400203D50000038B54FF02003EFF375
:10520000118583F31188BFF36F8F1A4821F04AFE8E
:1052100068B97C23184A1949194823F06CFF1549CD
:10522000184823F068FF7C21134824F016FA11482F
:1052300021F056FE144B0F48D3F80445134B1B685E
:10524000E41A24F07F4421F03BFE68B9A7230A4A00
:105250000F490B4823F04FFF06490E4823F04BFF40
:10526000A721054824F0F9F985F31188BFF36F8F62
:10527000204638BD482400202F1E0300811E030055
:10528000611D0300961E030000100140442400200D
:10529000551E03006C1E030038B54FF02003EFF3DA
:1052A000118583F31188BFF36F8F1B4821F0FAFD3E
:1052B00068B97C23194A1A491A4823F01CFF164979
:1052C000194823F018FF7C21144824F0C6F912482D
:1052D00021F006FE154B1048D3F80445144B1B680B
:1052E000E41A24F07F441C4421F0EAFD68B9A723A6
:1052F0000A4A10490B4823F0FEFE07490E4823F0E6
:10530000FAFEA721054824F0A8F985F31188BFF318
:105310006F8F204638BD00BF482400202F1E030099
:10532000811E0300611D0300961E03000010014052
:1053300044240020551E03006C1E0300014822F087
:10534000B9BF00BF600B030008B5D0B14368042BA0
:1053500011D100220368BFF35B8F53E8001F0129BE
:1053600003D143E800200028F7D1BFF35B8F074843
:1053700008BF104608BD3BB100681FF085FE002045
:10538000F8E76FF4E040F5E70148F3E7E98FFFFF46
:10539000EA8FFFFF10B5044618B90D4B0D485B6846
:1053A0009847616808290DD031F004030AD011F044
:1053B000020108D0214608481FF008FD00232360A1
:1053C0000023636010BD1422206826F044F9F7E73B
:1053D000E40B0020572603004C24002010B504469F
:1053E00018B9164B16485B6898476368042B23D09E
:1053F000082B21D0CBB92368BBB94FF0FF324FF057
:10540000FF3321460F481FF075FC08B923681BB90C
:105410000A4B0D485B68984714220021206826F04B
:105420001AF9636843F00203636020682AF071FC94
:10543000636843F00103636010BD00BFE40B00200C
:10544000572603004C2400207D26030008B5F8B140
:105450004368042B10D101220368BFF35B8F53E82C
:10546000001F002903D143E800200028F7D1BFF333
:105470005B8F0BD1002008BD6BB100684FF0FF328D
:105480004FF0FF331FF002FD0028F3D00348F2E78E
:105490006FF4E040EFE70248EDE700BFE98FFFFF60
:1054A000EA8FFFFF08B506490648402314222AF078
:1054B00015FC05490548BDE8084022F079BF00BF4A
:1054C000682400204C240020780B0300680B0300A4
:1054D00010B5114C114AA2610323C4E90433104BE7
:1054E000E36122664FF480630E4A23626266002302
:1054F00010220D49A362E01D6362E3622367E36645
:105500006367A26626F00EF80849204626F00AF8DE
:105510002023A37110BD00BF68290020AA26030024
:10552000B0490020A0490020B3260300B72603009D
:105530002DE9F84F234E4FF0180B14460BFB006279
:105540000746936A556AAB42884634D8D2F820A001
:10555000AAEB050909F1FF32A24211D34FF0180955
:1055600007FB09933344224658684146284426F0F5
:1055700048F809FB07662C4474620120BDE8F88FE7
:1055800013449C421BD800FB0BBBB3444A46DBF8D8
:1055900004002C44284426F034F8B4EB0A0406D066
:1055A000224608EB0901DBF8040026F02AF818234C
:1055B00003FB0766E0E7013B5B1B9C42CED9002062
:1055C000DCE700BF68290020034A182303FB0023FF
:1055D0009A6A586A801A704768290020014B186837
:1055E000704700BFA4040020F0B5082289B00C4623
:1055F000064625F00AF8CB6A03930B6B04934B6BBA
:1056000005938B6B0693CB6B0793002708236A46A1
:1056100069466846CDE90177009724F0FBFE082330
:1056200005466A463146304624F0F4FE236B039368
:10563000636B0493A36B0593E36B0544CDE90637D5
:105640006A4608236946684624F0E4FE314605446C
:1056500008236A46304624F0DDFE236A0093636A1D
:105660000193A36A0293A36B0693E36B079305442C
:1056700008236A463046CDE90477039724F0CAFE32
:10568000636A0093A36AA26B0193E36A0293049294
:10569000636BE26B0393CDE90523236A079305440B
:1056A00008236A46304624F0B5FEE36A0093236B74
:1056B0000193636B0293236A0693A36A07930544DD
:1056C00008236A463046CDE90477039724F0D3FFD8
:1056D000236B0093636B0193A36B0293E36B0393C0
:1056E000636A0693E36A07932D1A08236A463046D5
:1056F000CDE9047724F0BFFF636B0093A36B0193A4
:10570000E36B0293236A0393636A0493A36ACDE96C
:105710000537236B07932D1A08236A46304624F079
:10572000AAFFA36B0093E36BCDE90137636A039390
:10573000A36A0493E36ACDE90537636B07932D1AD7
:1057400008236A46304624F096FF2D1A0D4C0FD4DC
:1057500035B908223146204624F063FF01280FD0D6
:10576000082322463146304624F085FF2D1AEFE704
:10577000082322463146304624F04CFE2D18F7D43B
:1057800009B0F0BD900B0300F0B5284E07460C465B
:105790000FCE8DB001AD0FC50FCE0FC596E8070037
:1057A00085E80700002F3CD0002C3CD0381F214654
:1057B000024610344B780D781B0443EA0563CD781C
:1057C0002B438D78043143EA05238C4242F8043F91
:1057D000F0D1174C04218A07036918D14FEA3363CB
:1057E0001A0EA55CDAB2A25C42EA0562C3F3074571
:1057F000C3F30723655DE35C42EA054242EA032204
:105800000CAD21F003032B4453F82C3C534050F8CB
:10581000042F013153402C290361DCD101200DB04C
:10582000F0BD3846FBE72046F9E700BFB0060300AD
:10583000BE2603002DE9F043154689B0074600282F
:1058400059D000295AD0002A5AD010230A46684657
:10585000194624F01BFD29466846DFF8A89025F07C
:1058600021FC05F11006C846A0356C466A46102397
:105870001178013B19F8011002F8011BF8D16846B4
:1058800025F055FC694604A825F08AFC01A905A865
:1058900025F086FC02A906A825F082FC03A907A82A
:1058A00025F07EFC102319460DEB0302684624F018
:1058B000EDFC31466846103625F0F4FBAE42D4D1FB
:1058C00010262378013E18F8033004F8013BF8D184
:1058D000684625F02CFC2946684625F0E3FB10239A
:1058E00019466A46384624F0D1FC684610223146F3
:1058F00024F0D9FC012009B0BDE8F0830846FAE79E
:105900001046F8E7BE2603000A4A0B499368096867
:10591000C3F888100949C3F884004B6843F08053EA
:105920004B60002383F31188BFF36F8F9368D3F824
:1059300088007047D0480020E41A030000ED00E022
:1059400013498A684FF040001044EFF3098C80E857
:10595000F01F202080F31188BFF36F8F0D4F4FF0A1
:1059600000668A6A8A603E60D2F884000023C2F82A
:10597000843080F3118804B5104600F0E5FCBDE8E2
:10598000044002F1400090E8F01F8CF30988704752
:10599000D048002004ED00E01EF0040F0CBFEFF330
:1059A0000880EFF30980816911F8021C0229FFD0F9
:1059B00001B525F036FD01BD43B2002B08DB012205
:1059C00000F01F0002FA00F05B09024A42F82300CF
:1059D000704700BF00E100E043B2002B0DDB012265
:1059E0005B0900F01F0002FA00F02033034A42F87E
:1059F0002300BFF34F8FBFF36F8F704700E100E0CC
:105A00004209054B00F01F0053F82220012303FA3E
:105A100000F01040704700BF00E100E070B54C1C82
:105A2000072C05460E460ED95F23104A104911482F
:105A300023F061FB31461048072223F05CFB5F2115
:105A40000A4823F00AFE6BB2002BA8BF03F16043A3
:105A50004FEA4414BCBF05F00F05084BE4B2AABFDF
:105A600003F561435C5583F8004370BDBE27030016
:105A7000F4270300611D03000F28030014ED00E06C
:105A800008B572B6044B586A18B100225A622AF05F
:105A90001BF962B608BD00BFD048002042F8203C88
:105AA000009B42F81C3C0A49019B42F8183C029BAF
:105AB00042F8143C21F001014FF0807342F8043C9D
:105AC00042F8081C0023203A0266C0F88430704770
:105AD000D39102000B4B0246986890B112F1160F59
