:10100000E075002009810000A9F20200398100008A
:1010100039810000398100003981000000000000A2
:10102000000000000000000000000000F97D00004A
:101030003981000000000000A17D000081750000E2
:10104000C98000003B290300C9800000C98000005E
:10105000C9800000C9800000C9800000C98000006C
:10106000C9800000C9800000C9800000C98000005C
:10107000C9800000C9800000C9800000C98000004C
:10108000C9800000C9800000C9800000C98000003C
:10109000C9800000C9800000C9800000C98000002C
:1010A000C9800000C9800000C9800000C98000001C
:1010B000C9800000C9800000C9800000C98000000C
:1010C000C9800000C9800000C9800000C9800000FC
:1010D000C9800000C9800000C9800000C9800000EC
:1010E000C9800000C9800000C9800000C9800000DC
:1010F000C9800000C9800000C9800000C9800000CC
:1011000081F0004102E000BF83F0004330B54FEAB8
:1011100041044FEA430594EA050F08BF90EA020F25
:101120001FBF54EA000C55EA020C7FEA645C7FEAB8
:10113000655C00F0E2804FEA5454D4EB5555B8BFDB
:101140006D420CDD2C4480EA020281EA030382EA4C
:10115000000083EA010180EA020281EA0303362DDE
:1011600088BF30BD11F0004F4FEA01314FF4801CB1
:101170004CEA113102D0404261EB410113F0004FC3
:101180004FEA03334CEA133302D0524263EB43037A
:1011900094EA050F00F0A780A4F10104D5F1200E18
:1011A0000DDB02FA0EFC22FA05F2801841F1000173
:1011B00003FA0EF2801843FA05F359410EE0A5F147
:1011C00020050EF1200E012A03FA0EFC28BF4CF078
:1011D000020C43FA05F3C01851EBE37101F000452E
:1011E00007D54FF0000EDCF1000C7EEB00006EEB3B
:1011F0000101B1F5801F1BD3B1F5001F0CD34908C5
:101200005FEA30004FEA3C0C04F101044FEA44521B
:1012100012F5800F80F09A80BCF1004F08BF5FEAA2
:10122000500C50F1000041EB045141EA050130BD82
:101230005FEA4C0C404141EB010111F4801FA4F125
:101240000104E9D191F0000F04BF01460020B1FA7A
:1012500081F308BF2033A3F10B03B3F120020CDAB2
:101260000C3208DD02F1140CC2F10C0201FA0CF090
:1012700021FA02F10CE002F11402D8BFC2F1200CF5
:1012800001FA02F120FA0CFCDCBF41EA0C019040AB
:10129000E41AA2BF01EB0451294330BD6FEA0404F4
:1012A0001F3C1CDA0C340EDC04F11404C4F12002DF
:1012B00020FA04F001FA02F340EA030021FA04F3F1
:1012C00045EA030130BDC4F10C04C4F1200220FA48
:1012D00002F001FA04F340EA0300294630BD21FA86
:1012E00004F0294630BD94F0000F83F4801306BF4C
:1012F00081F480110134013D4EE77FEA645C18BF40
:101300007FEA655C29D094EA050F08BF90EA020FD6
:1013100005D054EA000C04BF1946104630BD91EACE
:10132000030F1EBF0021002030BD5FEA545C05D1D1
:101330004000494128BF41F0004130BD14F5800410
:101340003CBF01F5801130BD01F0004545F0FE4184
:1013500041F470014FF0000030BD7FEA645C1ABFB9
:10136000194610467FEA655C1CBF0B46024650EAF0
:10137000013406BF52EA033591EA030F41F400211C
:1013800030BD00BF90F0000F04BF0021704730B5A2
:101390004FF4806404F132044FF000054FF0000177
:1013A00050E700BF90F0000F04BF0021704730B538
:1013B0004FF4806404F1320410F0004548BF40420D
:1013C0004FF000013EE700BF42004FEAE2014FEA62
:1013D00031014FEA02701FBF12F07F4393F07F4F3D
:1013E00081F06051704732F07F4208BF704793F040
:1013F0007F4F04BF41F40021704730B54FF4607453
:1014000001F0004521F000411CE700BF50EA010255
:1014100008BF704730B54FF000050AE050EA0102FE
:1014200008BF704730B511F0004502D5404261EB6E
:1014300041014FF4806404F132045FEA915C3FF4AF
:10144000D8AE4FF003025FEADC0C18BF03325FEA4C
:10145000DC0C18BF033202EBDC02C2F1200300FAFD
:1014600003FC20FA02F001FA03FE40EA0E0021FA22
:1014700002F11444BDE600BF70B54FF0FF0C4CF410
:10148000E06C1CEA11541DBF1CEA135594EA0C0FC2
:1014900095EA0C0F00F0DEF82C4481EA030621EAFD
:1014A0004C5123EA4C5350EA013518BF52EA033538
:1014B00041F4801143F4801338D0A0FB02CE4FF0EA
:1014C0000005E1FB02E506F00042E0FB03E54FF01A
:1014D0000006E1FB03569CF0000F18BF4EF0010E12
:1014E000A4F1FF04B6F5007F64F5407404D25FEA0E
:1014F0004E0E6D4146EB060642EAC62141EA5551C1
:101500004FEAC52040EA5E504FEACE2EB4F1FD0C02
:1015100088BFBCF5E06F1ED8BEF1004F08BF5FEA80
:10152000500E50F1000041EB045170BD06F0004632
:1015300046EA010140EA020081EA0301B4EB5C04DF
:10154000C2BFD4EB0C0541EA045170BD41F48011D7
:101550004FF0000E013C00F3AB8014F1360FDEBFFC
:10156000002001F0004170BDC4F10004203C35DAD8
:101570000C341BDC04F11404C4F1200500FA05F35B
:1015800020FA04F001FA05F240EA020001F00042FC
:1015900021F0004110EBD37021FA04F642EB060172
:1015A0005EEA430E08BF20EAD37070BDC4F10C049C
:1015B000C4F1200500FA04F320FA05F001FA04F260
:1015C00040EA020001F0004110EBD37041F100014C
:1015D0005EEA430E08BF20EAD37070BDC4F1200557
:1015E00000FA05F24EEA020E20FA04F301FA05F2BF
:1015F00043EA020321FA04F001F0004121FA04F267
:1016000020EA020000EBD3705EEA430E08BF20EA36
:10161000D37070BD94F0000F0FD101F00046400070
:1016200041EB010111F4801F08BF013CF7D041EAF2
:10163000060195F0000F18BF704703F000465200F6
:1016400043EB030313F4801F08BF013DF7D043EAC7
:101650000603704794EA0C0F0CEA135518BF95EA7D
:101660000C0F0CD050EA410618BF52EA4306D1D104
:1016700081EA030101F000414FF0000070BD50EA23
:10168000410606BF1046194652EA430619D094EAAD
:101690000C0F02D150EA013613D195EA0C0F05D197
:1016A00052EA03361CBF104619460AD181EA0301EB
:1016B00001F0004141F0FE4141F470014FF00000A3
:1016C00070BD41F0FE4141F4780170BD70B54FF03E
:1016D000FF0C4CF4E06C1CEA11541DBF1CEA1355BE
:1016E00094EA0C0F95EA0C0F00F0A7F8A4EB0504A0
:1016F00081EA030E52EA03354FEA013100F0888097
:101700004FEA03334FF0805545EA131343EA12635F
:101710004FEA022245EA111545EA10654FEA002614
:101720000EF000419D4208BF964244F1FD0404F5CD
:10173000407402D25B084FEA3202B61A65EB030529
:101740005B084FEA32024FF480104FF4002CB6EBE6
:10175000020E75EB030E22BFB61A754640EA0C0066
:101760005B084FEA3202B6EB020E75EB030E22BFA6
:10177000B61A754640EA5C005B084FEA3202B6EBE7
:10178000020E75EB030E22BFB61A754640EA9C00A6
:101790005B084FEA3202B6EB020E75EB030E22BF76
:1017A000B61A754640EADC0055EA060E18D04FEA34
:1017B000051545EA16754FEA06164FEAC30343EAD4
:1017C00052734FEAC2025FEA1C1CC0D111F4801FA1
:1017D0000BD141EA00014FF000004FF0004CB6E79A
:1017E00011F4801F04BF01430020B4F1FD0C88BF39
:1017F000BCF5E06F3FF6AFAEB5EB030C04BFB6EB44
:10180000020C5FEA500C50F1000041EB045170BD36
:101810000EF0004E4EEA113114EB5C04C2BFD4EB63
:101820000C0541EA045170BD41F480114FF0000EE7
:10183000013C90E645EA060E8DE60CEA135594EA63
:101840000C0F08BF95EA0C0F3FF43BAF94EA0C0F66
:101850000AD150EA01347FF434AF95EA0C0F7FF4DB
:1018600025AF104619462CE795EA0C0F06D152EA2F
:1018700003353FF4FDAE1046194622E750EA410613
:1018800018BF52EA43067FF4C5AE50EA41047FF424
:101890000DAF52EA43057FF4EBAE12E74FF0FF3C89
:1018A00006E000BF4FF0010C02E000BF4FF0010C5A
:1018B0004DF804CD4FEA410C7FEA6C5C4FEA430CD3
:1018C00018BF7FEA6C5C1BD001B050EA410C0CBF22
:1018D00052EA430C91EA030F02BF90EA020F002084
:1018E000704710F1000F91EA030F58BF994208BFEB
:1018F00090422CBFD8176FEAE37040F001007047A8
:101900004FEA410C7FEA6C5C02D150EA013C07D1FE
:101910004FEA430C7FEA6C5CD6D152EA033CD3D049
:101920005DF8040B704700BF8446104662468C4643
:101930001946634600E000BF01B5FFF7B7FF002876
:1019400048BF10F1000F01BD4DF808EDFFF7F4FF9F
:101950000CBF012000205DF808FB00BF4DF808ED2A
:10196000FFF7EAFF34BF012000205DF808FB00BF4D
:101970004DF808EDFFF7E0FF94BF012000205DF86F
:1019800008FB00BF4DF808EDFFF7CEFF94BF012024
:1019900000205DF808FB00BF4DF808EDFFF7C4FF1D
:1019A00034BF012000205DF808FB00BF4FEA410270
:1019B00012F5001215D211D56FF47873B3EB6252A1
:1019C00012D94FEAC12343F0004343EA505311F0C8
:1019D000004F23FA02F018BF404270474FF000005A
:1019E000704750EA013005D111F0004008BF6FF098
:1019F000004070474FF00000704700BF4A0011D20E
:101A000012F5001211D20DD56FF47873B3EB625258
:101A10000ED44FEAC12343F0004343EA505323FA64
:101A200002F070474FF00000704750EA013002D1D9
:101A30004FF0FF3070474FF00000704780F00040DB
:101A400002E000BF81F0004142001FBF5FEA410396
:101A500092EA030F7FEA226C7FEA236C6AD04FEA96
:101A60001262D2EB1363C1BFD218414048404140DB
:101A7000B8BF5B42192B88BF704710F0004F40F48D
:101A8000000020F07F4018BF404211F0004F41F4A9
:101A9000000121F07F4118BF494292EA030F3FD075
:101AA000A2F1010241FA03FC10EB0C00C3F1200388
:101AB00001FA03F100F0004302D5494260EB400017
:101AC000B0F5000F13D3B0F1807F06D340084FEA82
:101AD000310102F10102FE2A51D2B1F1004F40EB77
:101AE000C25008BF20F0010040EA030070474900DF
:101AF00040EB000010F4000FA2F10102EDD1B0FAAA
:101B000080FCACF1080CB2EB0C0200FA0CF0AABF9E
:101B100000EBC25052421843BCBFD040184370473C
:101B200092F0000F81F4000106BF80F40000013242
:101B3000013BB5E74FEA41037FEA226C18BF7FEA19
:101B4000236C21D092EA030F04D092F0000F08BF5B
:101B50000846704790EA010F1CBF0020704712F042
:101B60007F4F04D1400028BF40F00040704712F181
:101B700000723CBF00F50000704700F0004343F0E6
:101B8000FE4040F4000070477FEA226216BF08461C
:101B90007FEA23630146420206BF5FEA412390EADF
:101BA000010F40F4800070474FF0000304E000BFD5
:101BB00010F0004348BF40425FEA000C08BF704786
:101BC00043F0964301464FF000001CE050EA01024A
:101BD00008BF70474FF000030AE000BF50EA01025F
:101BE00008BF704711F0004302D5404261EB41014C
:101BF0005FEA010C02BF84460146002043F0B64371
:101C000008BFA3F18053A3F50003BCFA8CF2083A95
:101C1000A3EBC25310DB01FA02FC634400FA02FC9E
:101C2000C2F12002BCF1004F20FA02F243EB0200A5
:101C300008BF20F00100704702F1200201FA02FC07
:101C4000C2F1200250EA4C0021FA02F243EB0200FA
:101C500008BF20EADC7070474FF0FF0C1CEAD0523E
:101C60001EBF1CEAD15392EA0C0F93EA0C0F6FD0FF
:101C70001A4480EA010C400218BF5FEA41211ED0DD
:101C80004FF0006343EA501043EA5111A0FB0131C9
:101C90000CF00040B1F5000F3EBF490041EAD3719E
:101CA0005B0040EA010062F17F02FD2A1DD8B3F11A
:101CB000004F40EBC25008BF20F00100704790F089
:101CC000000F0CF0004C08BF49024CEA502040EADB
:101CD00051207F3AC2BFD2F1FF0340EAC2507047A1
:101CE00040F400004FF00003013A5DDC12F1190FDF
:101CF000DCBF00F000407047C2F10002410021FA51
:101D000002F1C2F1200200FA02FC5FEA310040F168
:101D1000000053EA4C0308BF20EADC70704792F0E1
:101D2000000F00F0004C02BF400010F4000F013A19
:101D3000F9D040EA0C0093F0000F01F0004C02BF14
:101D4000490011F4000F013BF9D041EA0C018FE783
:101D50000CEAD15392EA0C0F18BF93EA0C0F0AD089
:101D600030F0004C18BF31F0004CD8D180EA0100AF
:101D700000F00040704790F0000F17BF90F0004F48
:101D8000084691F0000F91F0004F14D092EA0C0F2A
:101D900001D142020FD193EA0C0F03D14B0218BFBD
:101DA000084608D180EA010000F0004040F0FE4003
:101DB00040F40000704740F0FE4040F4400070479F
:101DC0004FF0FF0C1CEAD0521EBF1CEAD15392EA1E
:101DD0000C0F93EA0C0F69D0A2EB030280EA010C0E
:101DE00049024FEA402037D04FF0805343EA1111A7
:101DF00043EA10130CF000408B4238BF5B0042F105
:101E00007D024FF4000C8B4224BF5B1A40EA0C00A9
:101E1000B3EB510F24BFA3EB510340EA5C00B3EBDB
:101E2000910F24BFA3EB910340EA9C00B3EBD10FC9
:101E300024BFA3EBD10340EADC001B0118BF5FEA1B
:101E40001C1CE0D1FD2A3FF650AF8B4240EBC25044
:101E500008BF20F0010070470CF0004C4CEA502005
:101E60007F32C2BFD2F1FF0340EAC250704740F454
:101E700000004FF00003013A37E792F0000F00F046
:101E8000004C02BF400010F4000F013AF9D040EAC4
:101E90000C0093F0000F01F0004C02BF490011F458
:101EA000000F013BF9D041EA0C0195E70CEAD15350
:101EB00092EA0C0F08D142027FF47DAF93EA0C0F37
:101EC0007FF470AF084676E793EA0C0F04D14B021B
:101ED0003FF44CAF08466EE730F0004C18BF31F0CD
:101EE000004CCAD130F000427FF45CAF31F00043C7
:101EF0007FF43CAF5FE700BF42000ED2B2F1FE4F6D
:101F00000BD34FF09E03B3EB126209D44FEA0023C8
:101F100043F0004323FA02F070474FF0000070478F
:101F200012F1610F01D1420202D14FF0FF30704730
:101F30004FF00000704700BF7BB972B90029BEBFE7
:101F400000204FF0004106E008BF00281CBF6FF0E2
:101F500000414FF0FF3000F0D3B9ADF1080C6DE94E
:101F600004CE002909DB002B1ADB00F061F8DDF854
:101F700004E0DDE9022304B07047404261EB410117
:101F8000002B1BDB00F054F8DDF804E0DDE9022350
:101F900004B0404261EB4101524263EB430370479E
:101FA000524263EB430300F043F8DDF804E0DDE95F
:101FB000022304B0404261EB41017047524263EB9F
:101FC000430300F035F8DDF804E0DDE9022304B056
:101FD000524263EB4303704753B94AB9002908BF23
:101FE00000281CBF4FF0FF314FF0FF3000F088B9E0
:101FF000ADF1080C6DE904CE00F01AF8DDF804E04C
:10200000DDE9022304B07047430803F05533C01ADA
:10201000830803F0333300F03330184400EB101022
:1020200000F00F3000EB002000EB0040000E704786
:102030002DE9F047089E04468846002B40F0858035
:102040008A42154648D9B2FA82F24AB1C2F1200753
:1020500001FA02F320FA07F7954047EA0308944093
:102060004FEA154E230CB8FBFEF71FFA85FC0EFB5A
:10207000178843EA084307FB0CF1994209D9EB188A
:1020800007F1FF3080F0E380994240F2E080023FA8
:102090002B445B1AA4B2B3FBFEF00EFB103344EAF0
:1020A000034400FB0CFCA44509D92C1900F1FF33B3
:1020B00080F0CB80A44540F2C88002382C4440EA2E
:1020C0000740A4EB0C0400271EB1D4400023C6E94E
:1020D00000433946BDE8F087002A53D0B2FA82F2B5
:1020E000002A40F0B680491B4FEA154E1FFA85F8CA
:1020F0000127B1FBFEFC230C0EFB1C1143EA01433C
:1021000008FB0CF1994207D9EB180CF1FF3002D211
:10211000994200F2EC808446591AA3B2B1FBFEF05A
:102120000EFB101443EA044408FB00F8A04507D94D
:102130002C1900F1FF3302D2A04500F2DC801846D2
:10214000A4EB080440EA0C40BEE78B4208D9002EFD
:1021500078D00027C6E9000138463946BDE8F08747
:10216000B3FA83F77FB98B4202D3824200F2BD807B
:10217000841A61EB030301209846002EA9D0C6E91A
:102180000048A6E7FFDEC7F12005BB4022FA05FCA8
:102190004CEA030C01FA07F420FA05F821FA05F3DA
:1021A0004FEA1C4E48EA0404B3FBFEF9210C0EFB77
:1021B00019331FFA8CF841EA034309FB08FA9A45E0
:1021C00002FA07F200FA07F10BD91CEB030309F13D
:1021D000FF3080F088809A4540F28580A9F102099D
:1021E0006344A3EB0A03A4B2B3FBFEF00EFB10336F
:1021F00044EA034400FB08F8A04508D91CEB04049A
:1022000000F1FF336BD2A04569D90238644440EA3B
:102210000940A4EB0804A0FB02894C45C6464B4686
:1022200054D351D0002E69D0B1EB0E0264EB0304FD
:1022300004FA05F522FA07F3FC401D43C6E90054F1
:10224000002746E73746304643E7184637E7074654
:102250001FE7C2F1200320FA03F7954001FA02F0CC
:1022600021FA03F34FEA154E3843010CB3FBFEF796
:102270001FFA85F80EFB173341EA034107FB08F309
:102280008B4204FA02F407D9691807F1FF3C28D2FF
:102290008B4226D9023F2944CB1A81B2B3FBFEF010
:1022A0000EFB103341EA034100FB08F38B4207D9D0
:1022B000691800F1FF3C10D28B420ED90238294434
:1022C000C91A40EA074714E74145ABD2B8EB020E02
:1022D00069EB0C0201381346A4E76046F0E71846A4
:1022E00095E76746D8E781467BE7384645E7ACF196
:1022F000020C2B4410E702382C4421E73746E8E66D
:10230000704700BF10F8012B11F8013B012A28BFCC
:102310009A42F7D0D01A7047034613F8012B002ACF
:10232000FBD1181A013870472DE9F8438946D0E9E6
:102330000A71066B164D8C193034A742904612A3D1
:10234000D3E9002315D8A1FB0501FFF745FE20F0D6
:102350007F40C9F80000E01B0BA3D3E90023A0FBDA
:102360000501FFF739FE20F07F40C8F80000BDE806
:10237000F883A7FB0501FFF72FFE20F07F40C9F887
:10238000000006F13000E7E78D49FD1A0700000064
:1023900000CA9A3B000000002DE9F04F8DB030B923
:1023A0001DF0BEF8064630460DB0BDE8F08FCA4BB2
:1023B00093F84E6016F001061D4601D00C26F2E798
:1023C00093F82D2003EB8202176B93F8392003EB6F
:1023D0008203D3F83C8047B1384630F04CF83B7864
:1023E0005A0617D4404630F046F83B7813F00E0FEB
:1023F00040F098806B6A002BE0D11CF0BBFA81465C
:1024000030B11CF0C3FA824658B948461CF0B8FAFD
:102410000726C8E706212FF0FBFC0028E2D1122690
:10242000C1E71DF055FB044618B950461CF0B4FA3C
:10243000EBE74FF6FF738385C36E00F11C0B13B9F6
:1024400000F16403C36604F1600204F15C01E06E14
:102450002FF0E9FC94F87220C4F8CC9022F0070227
:1024600084F8722094F83D2002F03F0262F07F026F
:1024700084F83D2094F84020002363F3000284F8A0
:1024800040200622A4F8742094F88020E36622F00D
:10249000030284F880208E22C4E92E2394F8C220FF
:1024A000A4F8703022F0030284F83F30638663633F
:1024B000C4E913336365A4F87830A4F87C30A4F839
:1024C0008C3084F88E30C4F89C30A4F8A030A4F886
:1024D000B430A4F8C03084F8C22084F8CB30A4F81B
:1024E000EC3094F8EE20C5F824B0C5E9119A63F3F6
:1024F000041284F8EE2094F82020C4F8143163F319
:102500000002C4E94833C4E94633C4E90533E46151
:1025100084F820201FF06AF820B16F481CF02AFED2
:10252000032640E795F828300121C3F342030DF15B
:102530002B008DF82B302FF0A2FC002800F0BF807C
:102540003A7802F00F02022A00F1FF3472D17A7851
:102550001032D200504300F5AA72642000FB042020
:1025600095F820305D49ED61002464F3000385F89F
:10257000203031232B60C5E9054455A3D3E900235E
:102580006C60AC60A0FB0101FFF726FDE860B5F8C8
:102590004C802FF0DCFE8146B8F1000F05D13C786D
:1025A00004F00F04631E5C425C4195F82820EB6840
:1025B000DFF83CB164F3000212F001044FF0020AAC
:1025C00085F828200BAF464ACDF82CA053D0002028
:1025D000CDE905250493CDE900030321CDE907B733
:1025E000CDE902004B4652462FF07EFE39461CF0E4
:1025F00063FA002863D13B4A06954AF2D833CDE905
:1026000004020093CDE907B7CDE9020001904B46E3
:1026100001220321CDF82CA02FF066FE39461CF0D4
:102620004BFA00284BD195F84E3043F0010385F862
:102630004E30B8E6012A16D098F801301033DB008E
:102640005AB97A78103203F52773D20098331344BD
:1026500002F59A7204FB023082E7062A07D17978E4
:1026600001F11002EFE716224FF42D73EDE710226F
:102670004FF4AA73E9E71C4903F2471008601B48AE
:10268000CDE90432CDE9065B4FF6FF731FFA88FBF4
:10269000CDE90871CDE90243ABFB0001912303FBB7
:1026A0000B110BA3D3E90023FFF796FC4B46CDE9B2
:1026B00000405246032120461AF07AFCAEE76B6ACE
:1026C000002B3FF47BAE04481CF054FD76E600BFBF
:1026D0008D49FD1A07000000FC3D002000CA9A3B0E
:1026E00071F001006DF301004C3E0020002AE784E8
:1026F0007DE30100000000002DE9F04F90F8243048
:10270000414F044690F8380003F0F903C0F340004D
:1027100060F386138DB084F8243004F125011AF09B
:1027200017FD94F82030B4F83280E461002565F399
:102730000003A8FB070184F82030912303FB081154
:10274000C4E905552EA3D3E90023FFF745FC312347
:102750002360636B65600933A0F13102934232BF9D
:10276000E360E5606563A560284D06462FF0EFFD48
:1027700002230B93651B3C23B5FBF3F5244BB4F804
:1027800032B0CDE90643234B0593BA46E368049380
:1027900007469123ABFB0A014FF000080DF12C090D
:1027A00003FB0B1116A3D3E90023CDF82090CDF83D
:1027B0000C80FFF711FC104619464FF47A72002383
:1027C000FFF70AFC0435EDB2CDE901600321CDF835
:1027D00000803B462A4640462FF086FD49461CF0C5
:1027E0006BF940B994F8383043F0010384F838307D
:1027F0000DB0BDE8F08F0C20FAE700BFAFF300800A
:102800008D49FD1A07000000002AE784703E002071
:102810007DE3010035F70100F8B5064600201546B6
:102820001F461CF0FFFF0446F8B190F8382090F8DE
:102830002430418667F3420280F838209DF8182042
:1028400066F3C71362F3C40380F824300A48ADB2BC
:10285000A5FB0001912303FB051105A3D3E9002388
:10286000FFF7BAFB60630020F8BD0C20FCE700BF57
:102870008D49FD1A07000000002AE78400000000CF
:102880002DE9F04F934690F88C3090F88D209342CC
:102890008DB0044688460BD190F8A12090F8A01086
:1028A000914225D00122023B80F88E2080F88D30A5
:1028B00094F88C2094F88D30D31A03F00303022B84
:1028C00040F0618294F88E30012B00F00A82022BD6
:1028D00000F01E844FF47873C74AC849C8482AF0EC
:1028E0009BFB404080F311884FF0030002DF4AE277
:1028F00090F8B53090F8B4108B425CD05B1ADE07CC
:10290000D6D590F8805015F0010527D01CF072F84C
:1029100001460028CCD094F8B43084F8B530A38DAB
:10292000C38003230371037F43F003030377092369
:102930004377C377002303624362D4F8BC3080F846
:102940002030C3F307221B0C80F8212080F82230AE
:1029500008681CF027F81CF02FF8A9E7A9482FF009
:102960001EFA01460028A3D094F8B530013B84F844
:10297000B5308E23C4F8B830037943F003030371F4
:102980000923437194F93D308560002BACBF0823C7
:102990000E23C560C371D4F8B8300372C3F30722A5
:1029A0001B0C4272837220462FF056FEB4F87A3028
:1029B000A4F87C307CE790F8C13090F8C0108B42CE
:1029C0005FD05B1ADD077FF573AF90F8C23013F06C
:1029D000010523D18B482FF0E2F9014600283FF48E
:1029E00067AF94F8C130013B84F8C13094F8C2302D
:1029F00043F0010384F8C2300379857243F0030386
:102A00000371062343710C23C3710B2303725923F3
:102A100043724FF0FF33C3720373C4E7980722D5A4
:102A20001BF0E8FF014600283FF442AF94F8C030A5
:102A300084F8C130A38DC38003230371037F43F067
:102A400003030377062343770C23C37794F8C3303B
:102A500080F82030B4F8C430A0F82130B4F8C63083
:102A6000A0F8233074E740F67A33634A6349644838
:102A70002AF0D2FA404080F311884FF0030002DFC1
:102A800016E790F8ED1090F8EC3099423FF410AF53
:102A90005D4D2B6813B198427FF40AAF94F8EE3085
:102AA00003F00703052B00F2198101A151F823F06F
:102AB000C92A0000432B0000932C0000B12800001D
:102AC000B1280000B12800004E48E68E678E2FF036
:102AD00066F9014600283FF4EBAE94F8EE3004228C
:102AE00062F3020384F8EE30037943F003030371C9
:102AF000182343710F23C371B4F8F0300381B4F885
:102B0000F2304381B4F8F4308381B4F8F630C381F5
:102B10003E4400230374C37403755E444FF0FF33D7
:102B2000A0F8116043758375C37503764376837689
:102B3000C37603774377837720462FF08DFD2C6093
:102B400034E794F8EF60EEB12E482FF028F90146F3
:102B500000283FF4ADAE037943F003030371112362
:102B6000C371032343710F23037294F8EF30437250
:102B700020462FF071FD94F8EC3084F8ED300023FE
:102B80002B6095E694F93D30002B3FDB94F8EE3056
:102B9000C4F8AC60052161F3020394F8F81084F8DE
:102BA000EE30012384F8B03011B3B4F8F030B3FB49
:102BB000F1F3013313FB01F39BB2A4F8A430B4F892
:102BC000F430A4F8A630B4F8F630A4F8A83094F89D
:102BD000A230022161F3010394F8EE10C1F3C001A9
:102BE00061F38203013A84F8A23084F8A1205FE601
:102BF000B4F8F230E1E700BF78BA0300879503002C
:102C000073600300C84200204442002063482FF054
:102C1000C6F8014600283FF44BAE037943F00303A6
:102C20000371182343711023C371B4F8F03003818A
:102C3000B4F8F2304381B4F8F4308381B4F8F6305C
:102C4000C38194F8F8300374B4F8FA30A0F8113066
:102C5000B4F8FC30A0F81330B4F8FE30A0F815300A
:102C6000B4F80031A0F81730B4F80231A0F81930E8
:102C7000B4F80431A0F81B30B4F80631A0F81D30C8
:102C800020462FF0E9FC94F8EC3084F8ED302E600B
:102C90000EE61BF0AFFE014600283FF409AE94F8A3
:102CA000EE20032363F3020284F8EE20A28D037169
:102CB000037FC28043F003030377182343770F2376
:102CC000C377B4F8F0300384B4F8F2304384B4F836
:102CD000F4308384B4F8F630C38439E640F6874391
:102CE000C3E62F4B196801B91C60618EE68E0E4455
:102CF00094F8A2105E4411F00300B6B252D0012045
:102D00001BF060FE074600283DD024482FF047F80E
:102D10000546C0B31BF06EFE3B68D4F89C205A6099
:102D200094F8A230C4F89C706FF3010384F8A230C9
:102D3000238E1E442B790636B6B243F00303A4F863
:102D400090602B710C236B710023EB7194F8B03001
:102D50002B7240F2E242D4F8AC30B3FBF2F3A5F8A8
:102D60000930B4F8A430A5F80B30B4F8A630A5F8B3
:102D70000D30B4F8A830A5F80F30A5F81160294639
:102D800020462FF069FC94F8C92094F8C8309A4284
:102D900040F00D8200200DB0BDE8F08FC842002049
:102DA00044420020B4F890100A91771ABFB2390457
:102DB000E9D494F8A01084F8A11084F88D2094F838
:102DC000EC1094F8ED208A4209D094F8EE2002F03D
:102DD0000702052A04BF84F8ED10A4F87C001A68E5
:102DE000D4F89C50944204BF00221A600DB12B68A5
:102DF00063B940F60E13BA4ABA49BB482AF00CF937
:102E0000404080F311884FF0030002DF2868B4F8D7
:102E1000A4204368C4F89C30E38DB4F8A6C0B4F88D
:102E2000A8109A4213D1238E634510D140F2E24399
:102E300003FB02FE42F2107303FB01E3013BB3FB11
:102E4000FEF3B4F876E09BB29E4500F02281A38D9C
:102E5000EB8015232B7100232B77EA83A5F820C084
:102E6000698429461BF09EFD1BF0A6FD2368002BFC
:102E70000ADAD4E9012023F0004390422CBF8044B9
:102E800090442360A8EB0308E38DB4F8A450DFF866
:102E90007CA213FB07F39BB2B3FBF5F11FFA81F998
:102EA00015FB09F292B2934240F2E24080F0F480C6
:102EB000D31A5843A0FB0A0187A3D3E90023FFF7E5
:102EC0008BF820F07F408044638E9B440A9B9E1BBE
:102ED00094F93D304E445E44002B40F2E24B66864E
:102EE0000BFB05F580F2E680E26C636C03FB1727B1
:102EF000E7642FF090FD064694F88000C0F382004E
:102F00001EF0C2FB94F8B02006440BFB02F262658F
:102F10006E430022C4F8882006F57426E26C7348DC
:102F200006F23F266B08B6FBF0F606FB09F0963B6F
:102F30000244A3649A4294BFE264E364666466A3B5
:102F4000D3E90023A0FB0A01FFF746F8A8EB00082D
:102F5000D4F8AC00B0FBFBF00BFB00F05EA3D3E9B0
:102F60000023A0FB0A01FFF737F8A5EB060920F0C4
:102F70007F47B4F8A430E385B4F8A6302386B4F8CC
:102F8000A83042F2107202FB0353013BB3FBF5F38E
:102F9000A4F87630564B2B44B3FBF5F594F8A230E9
:102FA000A4F87A505A0744BF0023A4F878300221CD
:102FB000012020F097F9002202210646012019F095
:102FC0008BFA20461CF090FD0530C5B2494B0094A9
:102FD0002A46012100201AF081F830F002030CD0BB
:102FE00040F6B7133E4A44493F482AF015F840409E
:102FF00080F311884FF0030002DFA9FB0A23CDE91B
:103000000A23DDE90A0134A3D3E90023FEF7E4FF34
:103010003A4B0894CDE90643394B0593E368049392
:103020004FF6FE730393374B0A9920F07F44A4FBBD
:1030300003ABB1EB0A004FF007030B9903FB04BB92
:1030400061EB0B014FF47A720023FEF7C5FF434694
:10305000CDE9014000972A46012100202FF044F9D4
:1030600030F002030CD040F6D1131D4A22491E480D
:1030700029F0D2FF404080F311884FF0030002DFB7
:1030800026B101220221104619F026FA6FF08B00BA
:1030900081E601232B71E4E605FB113189B2484337
:1030A0000DA3D3E90023A0FB0A01FEF795FFA8EBCF
:1030B000000809E740F68713094A13490A4829F02E
:1030C000ABFF404080F311884FF0030002DF002780
:1030D000A9464EE7AFF300808D49FD1A07000000B6
:1030E00078BA030074BB03007360030040420F0012
:1030F000FF5962027DF9010087BB030025F9010039
:10310000D50C02008D49FD1A8795030000CA9A3B31
:10311000E38E618E0B449B4494F89030DB071FFADA
:103120008BFB25D535482EF03AFE014600283FF4AA
:103130002AAE94F890306FF3000384F89030238E19
:103140009B4403790BF1060B43F00303A4F896B0FC
:103150000371082343710123C371234653F8910F70
:1031600088601B790B73B4F89630A1F80D3007E630
:10317000B4F89630ABEB030B1BF4004F7FF403AEB7
:10318000234684F88D2053F8912FA26304F1380070
:103190001B79037105212EF072FE94F83D3060F327
:1031A000050384F83D30012384F82831EBE513480A
:1031B0002EF0F5FD014680B194F8C83084F8C9308E
:1031C000037943F00303037102234371C37194F83D
:1031D000CA30037220462FF03FFAB4F87C00002872
:1031E0007FF4D8ADB4F87630012B02D9A4F87C3046
:1031F000D0E50133A4F87C30CDE500BFC842002003
:103200002DE9F04F1D46136891460A46D3F800A0F9
:103210002B460C4632F82E1F53F80C6BA98192787E
:103220009A70D4F82A30AB602346834653F83A2F7D
:10323000EA6105F11C001B79037191B005212EF0A4
:103240001EFE95F8213000F03F0060F305030128D1
:1032500085F8213040F22C8194F83F30C3F3040309
:1032600085F82230053B03F0FF030B2B00F2208191
:10327000D9F800304FF00008C3F80880A78E6F829D
:1032800094F8372094F8363043EA0223AB82638EF9
:103290000A9340F2E2435F4394F83F3096F880206F
:1032A0005B0963F3840286F880202FF0B4FB0D9055
:1032B00096F88000C0F382001EF0E6F90D9B1844DA
:1032C000784300F574207E4B00F23F20B0FBF3F012
:1032D0007B08963BEB6294F83130A86240F2E24200
:1032E0005343EB63228F42F2107303FB0273013BE3
:1032F000B3FBF7F3A6F87630724B3B44B3FBF7F31E
:10330000A6F87A30AB68C6F884302146237F51F89E
:103310001E0F0E908988ADF83C10C3F38013A3777D
:103320004FF48071BDF83C30A183C4F81F00A4F8AD
:1033300023306B8AE384AB8A238596F880306285DC
:10334000C3F3820384F82C3030461CF0CDFB2146B9
:103350002882E08058461BF025FB1BF02DFB4146E0
:1033600040462FF02CFBDFF87CB1C6F80480044601
:10337000312300F252403360C6F808804EA3D3E9EF
:103380000023A0FB0B01FEF727FEAB6A0A99FF1A88
:10339000D9F80C3040F2E24202FB013320F07F40CA
:1033A00003F2863342460221F06001201C1B19F013
:1033B00093F850461CF092F8821C434BCDF800A0C5
:1033C000D2B20121404619F089FE51461DF066FC3B
:1033D0009AF8283013F0010F5D4607D00122CDF88E
:1033E000008043461146404619F078FE30461CF0F6
:1033F0007BFBA7FB0523CDE90A2380462EA3D3E957
:103400000023DDE90A01FEF7E7FDD9F808300A9943
:10341000A3F131094FF4B67308932C4BCDE9066341
:103420002B4B0593F36804932A4B20F07F46A6FBB1
:1034300003ABB1EB0A004FF007030B9903FB06BB8C
:1034400061EB0B0108F105074FF47A724FF00008A9
:103450000023CDF80C80FEF7BFFD17A3D3E90023AE
:10346000CDE90160A4FB0501FEF7B6FDFFB220F037
:103470007F4000904B463A46012140462EF034FFF3
:1034800030F002030CD04FF4B773134A13491448B9
:1034900029F0C2FD404080F311884FF0030002DFA5
:1034A00001220221104611B0BDE8F04F19F014B806
:1034B00011B0BDE8F08F00BF8D49FD1A0700000074
:1034C00040420F00FF5962029D0C0200710C020085
:1034D000D50C02008D49FD1A4ABC030087BB0300CE
:1034E0007360030000CA9A3B114B10B5C3F8E400A7
:1034F000FDF748FF0CA3D3E90023FEF7E7F8FEF73A
:103500007DFA0446C0F3074106202FF03FFFC4F3C5
:10351000072107202FF03AFFE1B20820BDE8104054
:103520002FF034BFAFF300800000000080844E40D5
:10353000384800200000000038B509202FF031FF86
:10354000054606202FF02DFF044607202FF029FF07
:10355000000240EA044408202FF023FF2043FDF737
:1035600011FF1BA3D3E90023FDF786FFFEF746FA00
:103570000021044609202FF009FF3B202FF011FF06
:1035800040F04001C9B23B202FF000FF3B202FF05C
:1035900008FF8206FAD41048FFF7A6FF3B202FF061
:1035A00000FF40F04001C9B23B202FF0EFFE3B206E
:1035B0002FF0F7FE8306FAD4294609202FF0E6FE05
:1035C0002046BDE83840FFF78FBF00BFAFF3008053
:1035D0000000000080844E4000A1BC3300000000C9
:1035E0002DE9F84F884620B1012855D00020BDE8CC
:1035F000F88F6F4C2720B4F8FC502FF0D2FE013525
:1036000020F0F8002844FDF7CDFE94F8FE300022AB
:10361000002B3CD1674BFDF779FD064630200F4665
:103620002FF0BFFE30F0F9030CBF0023614B0022E6
:1036300030463946FDF76AFD064640460F46FDF71F
:10364000B1FE02460B4630463946FDF75FFD94F861
:1036500000310022EBB90023FDF758FD0022564B44
:10366000FDF70AFF0646D4F8F8000F46FDF78AFE7C
:1036700002460B4630463946FEF728F800224F4BEB
:10368000FDF7FAFE29F060FBFEF7B8F9AFE700237B
:10369000C1E74FF08043DFE7454CD4F82031073BCA
:1036A000022B78D8464A02EBC303D3E90067D4F86B
:1036B00024510120A840FDF775FE02460B46304616
:1036C0003946FEF703F802460B4600203949FDF75C
:1036D000FDFF0646B4F82A010F46FDF763FE0022FF
:1036E000384BFDF713FD32463B46FDF7C5FE94F817
:1036F0002C3182468B4694F82E01A900C1F11C01A1
:10370000002B01EB001101EBC80114BF14200020B5
:10371000081AFDF737FE94F82831002B804614BFB5
:1037200002200020281A80008946FDF72BFE024661
:103730000B4640464946FDF7C9FF00F00DFC8046A8
:1037400094F8290189460430FDF72CFE42464B4689
:10375000FDF792FE0022002304460D46FEF71CF9F9
:10376000E0B10022144B20462946FDF7CFFC32463B
:103770003B46FDF781FE52465B46FDF7C7FC002243
:103780000E4BFDF779FE08A3D3E90023FDF7BEFC3D
:1037900000F066FC78E70026002788E7002006494D
:1037A000E5E700BFAFF300802B8716D9CEF7EF3FD8
:1037B000384800200000F03F0000204000408F40CB
:1037C000C8470300000011402DE9F04F89B00546BD
:1037D0000093129B0393BDF8503002939DF8603024
:1037E00004930C469DF864309DF86810079190464C
:1037F0009DF86C200692BDF84C609DF854709DF8C1
:1038000058A09DF85CB0059321F0C8FFDDE90621C2
:103810002DB1012D00F0858009B0BDE8F08FAA4DD3
:10382000039BC5F8F880C5F8F43085F80221C5F887
:10383000F04085F8FE7085F8FFA085F800B185F8A6
:103840000111A5F8FC604046FDF79CFD02460B46C1
:103850008046894600209D49FDF738FF00229C4B99
:10386000FDF70AFECDE900010298FDF79BFD024637
:103870000B46DDE90001FDF7FFFD0022954BFDF74A
:10388000FBFDFEF7BBF842464B46C5F808018CA18C
:10389000D1E90001FDF71AFFFEF7B0F885B2290A59
:1038A00002202FF073FDE9B203202FF06FFD2046B8
:1038B00021F08AFD014612202FF068FD039821F0C7
:1038C00083FD014613202FF061FD310A25202FF0E2
:1038D0005DFDF1B226202FF059FD07B3514632208D
:1038E0002FF054FD30202FF05CFD002F00F06F0012
:1038F00014BF00216FF07F0140EA0B100143C9B2F1
:1039000030202FF043FD31202FF04BFD40F04001DF
:10391000C9B2312009B0BDE8F04F2FF037BDFF210B
:10392000DDE7022C00D9FEE704F10709664C009B95
:1039300084F82931049B84F82F31B8F10C0F059BD2
:10394000A4F82A61C4E9489884F82C7184F82DA160
:1039500084F82EB184F8303184F8311184F83221A2
:1039600000F29F80B8F1050F40F2A280B9F1070F75
:1039700075D0B9F1080F79D000251D2084F82851A1
:103980002FF00FFD009B47EA430141EA0911C9B23C
:103990001D202FF0FBFC1E202FF003FD029BC3F324
:1039A000012100F0080041EA8B01014341EA0811BE
:1039B000C9B21E202FF0EAFC26202FF0F2FC94F86A
:1039C000281120F0080040EAC101C9B226202FF0DA
:1039D000DDFC9DF808101F202FF0D8FC310A2020B4
:1039E0002FF0D4FCF1B221202FF0D0FC1FB15146B2
:1039F00022202FF0CBFC94F82F216AB144202FF025
:103A0000D0FC60F07F01C9B244202FF0BFFC94F8D5
:103A1000301124202FF0BAFCB9F1090F33D1D4F8BA
:103A2000E4202D4B9A424FF002014FF0360026D988
:103A30002FF0ACFC64213A202FF0A8FCB8F1060F5F
:103A40004FF0310022D12FF0ACFC00F0F80141F032
:103A5000050131202FF09AFC0C2137205AE7A8F1FC
:103A60000B05012D8CBF0025012586E7A8F10C036D
:103A70005D425D4181E700254FF006087DE72FF0AC
:103A800085FC7F21D7E703213620D5E72FF089FC7D
:103A900000F0F80141F0030131202FF077FC0A21FA
:103AA000DBE7B9F1070F4FF00C087FF462AF64E772
:103AB000B9F1070FDFD04FF006085AE7AFF30080E7
:103AC0000000000080847E41384800200000F03F64
:103AD0000000204000408F4040DD4A1F00000000F1
:103AE0002DE9F04F87B01E469DF8543001939DF8A4
:103AF000583002938A469DF85C30189905920493D9
:103B000003910546109C9DF844B0BDF848909DF87F
:103B10004C809DF8507021F041FE504621F0E2FBB0
:103B2000DDE90313059A25B1012D63D007B0BDE887
:103B3000F08F8148C0E93B26C0F8F84080F800715A
:103B400080F8013180F8E8A0A0F8FC9080F8FE80B1
:103B5000C0F804111046FDF715FC73A3D3E9002348
:103B6000FDF7B4FDFDF74AFF85B2290A04202FF0C6
:103B70000DFCE9B205202FF009FC2046FDF702FC00
:103B800002460B466AA1D1E90001FDF79FFDFDF752
:103B900035FF84B2210A02202FF0F8FBE1B20320A6
:103BA0002FF0F4FB4FEA192125202FF0EFFB5FFAED
:103BB00089F126202FF0EAFB30202FF0F2FBB8F13C
:103BC000000F00F06F0014BF00216FF07F0140EA8A
:103BD00007173943C9B230202FF0D8FB31202FF01E
:103BE000E0FB40F04001C9B2312007B0BDE8F04F22
:103BF0002FF0CCBB504A022E82F81CA1924600D96D
:103C0000FEE70736C2E9486482F829B1A2F82A9192
:103C100082F82C81019A8AF82F210C2C029A8AF8BA
:103C200030218AF82E718AF83131CAF8341171D8EE
:103C3000052C74D9072E53D0082E58D00025019B8F
:103C40008AF828516BB144202FF0ABFB60F07F0164
:103C5000C9B244202FF09AFB9AF8301124202FF09B
:103C600095FB48EA4B081D2048EA06162FF099FB01
:103C7000F1B21D202FF08AFB1E202FF092FBBF0017
:103C800000F00B0047EA04170743F9B21E202FF09B
:103C90007DFB26202FF085FB9AF8281120F00800E4
:103CA00040EAC101C9B226202FF070FB4FEA19216A
:103CB00020202FF06BFB21205FFA89F12FF066FBAB
:103CC000062C4FF031001AD12FF06BFB00F0F801F9
:103CD00041F0050131202FF059FB0C21372084E7FA
:103CE000A4F10B05012D8CBF00250125A7E7A4F148
:103CF0000C035D425D41A2E7002506249FE72FF0FB
:103D000050FB00F0F80141F0030131202FF03EFBA1
:103D10000A21E3E7072E4FF00C048DD18FE7072E21
:103D2000EAD0062488E700BF0000000080844E40EF
:103D30000000000080847E41384800200000000020
:103D4000314B93F8E010012970B51C4602D00229CE
:103D50004CD070BD93F8E120CAB1012AF9D193F893
:103D60002F31002BF5D0022112202FF00FFB274B13
:103D70001B68002BEDD05C69002CEAD01C202FF0D2
:103D800010FB234600F03F00BDE8704018479B6ED3
:103D90000BB984F80C11B4F80C51012DD9D11C4881
:103DA00022F02CF9112084F80D512FF0FAFA400876
:103DB000404284F80E011B202FF0F3FA05461C2028
:103DC0002FF0EFFA40EA0520FDF7ECFA0CA3D3E957
:103DD0000023FDF751FBFDF7E9FDC4F810010C20AD
:103DE0002FF0DFFA400984F81401B2E793F8E120DC
:103DF000012AAED193F82F31002BAAD0B4E700BF2F
:103E00000000000080844E40384800200448002014
:103E100008480020000000002DE9F04F8FB08346D5
:103E20000DF137010DF136002EF01EFBDFF8D880C2
:103E30009DF836300A939DF837300B93DFF8CC901D
:103E40002EF085FAD8F80040A4FB094528A3D3E951
:103E50000023824629462046FEF7BEF80646D8F8DB
:103E60000400254B0593002721A3D3E90023A0FBE1
:103E70000901CDF818B0CDE90777FEF7ADF81F4B73
:103E800026F07F46A6FB03BC20F07F40072303FB00
:103E900006CCCDE90370B4EB0B0065EB0C014FF4DD
:103EA0007A720023FEF798F85346CDE90160009737
:103EB0000B9A0A9803212EF017FA30F0020314D15E
:103EC0000F4A1048002326F0ABFC58B19DF837206C
:103ED0009DF83600032122F0BFFA6FF073000FB097
:103EE000BDE8F08FD8F80C00F9E76FF08B00F6E72B
:103EF0008D49FD1A070000000D6502008D49FD1A6D
:103F0000447B0B00C8490020B849002000CA9A3BF6
:103F100038B50F4D04462EF01AFAA9682EF019FA9A
:103F20000C49B0FBF4F40444686807A3D3E9002308
:103F3000A0FB0101FEF750F820F07F40844294BFBF
:103F40000020012038BD00BF8D49FD1A0700000088
:103F5000B849002000CA9A3BC1F30A522DE9F0414A
:103F6000A2F2FF36132E0B460D460446074634DCFC
:103F7000002E1FDB384A42FA06F808EA0102024323
:103F800030D033A3D3E90023FDF7C0F8002200238B
:103F9000FDF702FD48B1002D04DD4FF4801343FA14
:103FA00006F6354425EA080500273C462946204602
:103FB000BDE8F08126A3D3E90023FDF7A7F800228E
:103FC0000023FDF7E9FC0028EFD0002D3ADB55EA8D
:103FD000040733D00027214DE7E7332E06DDB6F581
:103FE000806F26D019462046BDE8F081A2F2134228
:103FF0004FF0FF3828FA02F818EA000FF2D014A3A5
:10400000D3E90023FDF782F800220023FDF7C4FC6A
:104010000028CAD0002D09DD142E11D00123C6F1CD
:10402000340603FA06F6371928BFED1827EA080701
:10403000BBE70246FDF76AF80446D4E73D46B4E71D
:104040000135F3E700274FF00045AEE7AFF30080FE
:104050009C7500883CE4377EFFFF0F000000F03FB6
:10406000C1F30A522DE9F041A2F2FF36132E0B469E
:104070000D460446074631DC002E1FDB384A42FA63
:1040800006F808EA010202432DD033A3D3E9002346
:10409000FDF73CF800220023FDF77EFC48B1002D1F
:1040A00004DA4FF4801343FA06F6354425EA08058E
:1040B00000273C4629462046BDE8F08126A3D3E9E7
:1040C0000023FDF723F800220023FDF765FC0028FC
:1040D000EFD0002D29DB00273D46EAE7332E06DD31
:1040E000B6F5806F1CD019462046BDE8F081A2F2DB
:1040F00013424FF0FF3828FA02F818EA000FF2D006
:1041000015A3D3E90023FDF701F800220023FDF7F2
:1041100043FC0028CDD0002D10DB27EA0807C8E7B4
:104120000246FCF7F3FF0446DEE725F000430D4AA4
:104130001F43002F18BF15460027BAE7142E08D0DA
:104140000123C6F1340603FA06F6371928BFED1825
:10415000E3E70135E1E700BF9C7500883CE4377E6A
:10416000FFFF0F000000F0BF014828F055BF00BF5F
:10417000A15E0300014828F04FBF00BF16AF030047
:1041800008B5024828F048FF002008BD475E03003C
:1041900008B50146024828F03FFF002008BD00BFD7
:1041A000915E0300082808B504D1064828F034FFC2
:1041B000002008BD012801D10348F7E76FF0850012
:1041C000F7E700BF6F5E03007F5E030010B5224873
:1041D00028F022FF214C1021204629F060FF627850
:1041E0002378134062791340FF2B0DD11C4B1A78B2
:1041F00022705A7862709A78A270DB78E370194B5B
:104200001A7822715B78637100F0C2F80146164893
:104210002CF057FB014620B11448BDE8104028F0AF
:10422000FBBE134828F0F8FE124828F0F5FE29F0EE
:10423000E9FD032016F04EFA10F1780F014606D181
:104240000D4828F0E9FE0D4B01221A7010BD08B18F
:104250000B48E2E70B48F4E7945D03008C4B002029
:10426000A4000010A8000010F8030020A25D0300C5
:10427000C55D0300D75D0300E85D03009C4B002093
:10428000115E03002F5E030038B50F480F4D28F074
:10429000C3FE0F4806F086FD04462B7833B15CB1AF
:1042A00021460C48BDE8384028F0B6BE00214FF446
:1042B000A47026F033FAF0E7074828F0ADFE07486F
:1042C000BDE8384028F0A8BE345D03009C4B0020B8
:1042D000CD4100004B5D03006B5D0300825D030078
:1042E00070B515461C4613881A4A12889A420E4623
:1042F00011D1204623F0E4FA0146174828F08CFE3D
:10430000204623F0DDFA2B88B2880146BDE87040D4
:10431000124828F081BE124A12889A4205D12046DE
:1043200023F0CEFA01460F48E8E70F4A12889A4276
:1043300005D1204623F0C4FA01460C48DEE70C4ABA
:1043400012889A42DCD1204623F0BAFA0146094885
:10435000D4E700BFF4F00300DF5E03003D5F03001D
:10436000BCF00300F25E0300CCF00300035F030027
:10437000A4F00300205F0300014828F04DBE00BFF9
:10438000BE5E0300014828F047BE00BFCF5E0300B9
:1043900000487047BC4A0300836801491B681847FE
:1043A000B023002008B5104824F080F80F4A1060B0
:1043B00028B90D490E48BDE8084028F02DBE0D4B28
:1043C0000D4A1A604FF420629A8001229A710B4ABA
:1043D0009A60FFF7E1FF002804DA0948BDE80840C9
:1043E00028F01ABE08BD00BF5A5F0300C02300209A
:1043F000615F0300B0230020E060903308000401F7
:10440000765F03002DE9F0431C4D2C6885B007460C
:1044100034B91B4828F000FE002005B0BDE8F08349
:10442000184B0E225A812046FFF7B6FF002801DA0A
:104430001548EFE72868154E8368154D03964FF031
:10444000FF384FF0FF39CDE9008902959B68114C88
:10445000FF22394698470028206001DA0E48D9E744
:10446000384601F057FA96F90030B5F900200146B8
:104470000A4828F0D1FD2068CFE700BFC023002004
:10448000CA5F0300B0230020765F03009D4B00202D
:10449000444B0020BC2300208A5F03009F5F030081
:1044A00008B5FFF7F1FE0C4C0C4EFFF77BFF04F153
:1044B00008052046FFF7A6FF204623F001FA014633
:1044C000304628F0A9FD284623F0FAF901460448B1
:1044D00028F0A2FDEDE700BF9E4B00200360030023
:1044E0002260030010B5094C0A44914200D110BD6E
:1044F00011F8013B43401809205C80EA0310C3B265
:104500001809205C80EA0310C0B2EEE740600300A7
:10451000436870B503F003030546022B0E46A960FD
:1045200010D0032B04D0012B0FD10024204601E032
:104530000468002000236B6010B1314627F0A4FC12
:10454000204670BD00680024F4E74523054A06496B
:10455000064828F061FD4521024828F0C2FF0024EA
:10456000E7E700BF50600300879503007360030016
:10457000014B1860704700BFAC04002030B585B017
:10458000CDE901010446002501A90548039500F085
:104590004FFDDDE902309842B8BF255405B030BD6B
:1045A000F3CF02002DE9F74FB0F81CB01BF0080F55
:1045B0000446924621D001290CBF4BF0100B4BF062
:1045C000200BA0F81CB01434204626F03DFB68B93F
:1045D000A723A74AA749A84828F01EFD2146A748B7
:1045E00028F01AFDA721A24828F07BFF8AF3118842
:1045F000BFF36F8F03B0BDE8F08FA14EDFF8788274
:104600000BF0070B022907D1204628F01FFD0028D8
:10461000D9D0012840F0BE80D4F81890A38BB9F10E
:10462000000F71DA00272568009723F00703C4E91B
:10463000007743F00103A383A38B03F007025A45DD
:10464000019203D0A268002A40F07681002D40F04C
:104650007681009A002A47D02F4643F0080304F1E0
:10466000140BA383584626F0EFFA68B9A723804AB3
:104670008049404628F0D0FC5946804828F0CCFCC0
:10468000A7217B4828F02DFF8AF31188BFF36F8F95
:10469000002F40F05681002D40F06781009B13B140
:1046A0007849204698474FF02003EFF3118A83F3AF
:1046B0001188BFF36F8F584626F0B8FA68B97C238B
:1046C0006B4A7149404628F0A7FC59466F4828F0CC
:1046D000A3FC7C21664828F004FF584626F0C4FA63
:1046E000A38B23F00803A383A38BDA0640F1478151
:1046F00023F01003A3830121B4F81CB00BF0070BC7
:1047000000297FF47FAF5EE703F00702511F012904
:1047100021D8002123F00703062A25689BB2C4E9AB
:1047200000110AD13DB1E28B29460968013292B2EB
:104730000029FAD1E28343F00203A383204628F044
:1047400085FC002800F0F480A38B43F02003A383B2
:104750000023009370E7042A0FD123F007039AB2D5
:10476000A283204628F072FC002800F0E38042F08B
:104770002002A283002500955EE7404640F219130F
:104780003246434928F048FC40F21911304628F0DF
:10479000A8FEEFE7032835D1BBF1000F0BD03D4950
:1047A00040464FF4AA73324628F036FC4FF4AA7103
:1047B000304628F096FE23685BB93749404640F200
:1047C0005513324628F028FC40F25511304628F0A7
:1047D00088FE23691B6800935BB9304940464FF45B
:1047E000AC73324628F018FC4FF4AC71304628F018
:1047F00078FEA38B23F0070343F00603A383002571
:10480000A94619E704284FD1BBF1020F0BD0244968
:10481000404640F25B13324628F0FEFB40F25B114B
:10482000304628F05EFEE38B5BB11E4940464FF4F4
:10483000AE73324628F0F0FB4FF4AE71304628F0EC
:1048400050FE23695B6800935BB91449404640F20F
:104850005F13324628F0E0FB40F25F11304628F04B
:1048600040FEA38B23F0070343F00403C6E700BF19
:104870004161030067610300736003007E61030010
:104880009E600300A149000093610300A86103003A
:1048900087950300C0600300CC600300EF60030055
:1048A000066103001C610300052832D1BBF1010F32
:1048B0000BD0374940464FF4B173324628F0ACFB79
:1048C0004FF4B171304628F00CFE23685BB93149D2
:1048D000404640F26313324628F09EFB40F26311DB
:1048E000304628F0FEFD23699B6800935BB92A4996
:1048F00040464FF4B373324628F08EFB4FF4B37149
:10490000304628F0EEFDA38B23F0070343F00503A8
:1049100074E740F2691332462049404628F07CFB98
:10492000002540F26911304628F0DBFD009567E76D
:10493000009081E605461EE7012217468DE600221B
:10494000FBE7A16800293FF4A6AED1F800A04B68B0
:10495000019A1F4620464B46B847BAF1000F3FF474
:104960009AAE5146DAF800A0F1E7D5F800A0019A16
:1049700029464B46204628F085FB55468BE613F02A
:1049800020011EBF23F02003A3830221B4E600BF51
:104990002B610300CC600300EF60030087950300E8
:1049A000F8B504460F4600F114054FF02003EFF36D
:1049B000118683F31188BFF36F8F284626F036F9EE
:1049C00068B97C230B4A0C490C4828F025FB294682
:1049D0000B4828F021FB7C21064828F082FD284660
:1049E00026F042F9A761324620460121BDE8F84091
:1049F000FFF7D8BD416103009361030073600300BA
:104A0000A86103002DE9F0470446884628F050FBD2
:104A1000061E5CDB04F114094FF02003EFF3118A4A
:104A200083F31188BFF36F8F484626F0FFF868B90B
:104A30007C23384A3849394828F0EEFA4946384844
:104A400028F0EAFA7C21334828F04BFD484626F04E
:104A50000BF9E38BA28B4FF6FF718B4202F0070537
:104A600050D0022D21D10133E3832E460127484641
:104A700026F0EAF868B9A723264A2A49274828F0E9
:104A8000CBFA4946284828F0C7FAA721214828F040
:104A900028FD8AF31188BFF36F8FC7B100232A4620
:104AA0004146204628F0EEFA11E0930701D0062D8A
:104AB00010D10023C8F800306368F3B9C4E9008856
:104AC0002E460DBB524602212046FFF76BFD3046B5
:104AD000BDE8F087052D19D0012D0BD013490F48E3
:104AE000134A40F2C51328F097FA40F2C511104856
:104AF00028F0F7FC6FF0040606E0C3F80080C4F865
:104B00000480DDE76FF00A060027B0E76FF0850646
:104B1000FAE700BF41610300936103007360030083
:104B2000A8610300676103007E6103002B6103003D
:104B30009E60030070B5044600F114054FF0200399
:104B4000EFF3118683F31188BFF36F8F284626F0A9
:104B50006DF868B97C23274A2749284828F05CFA71
:104B60002946274828F058FA7C21224828F0B9FC29
:104B7000284626F079F8A38B03F00703022B1CD0FC
:104B8000012B0CBF6FF004046FF08504284626F05B
:104B90005BF868B9A723174A1A49184828F03CFA65
:104BA0002946194828F038FAA721124828F099FC1C
:104BB00086F31188BFF36F8F18E0E38B5BB913495D
:104BC0000E48134A4FF4F67328F026FA4FF4F671A4
:104BD0000F4828F086FCE38B013B9BB2E3833BB993
:104BE000204632460221FFF7DDFC0224204670BD3C
:104BF0000224CBE74161030093610300736003006B
:104C0000A8610300676103007E61030090600300F8
:104C10009E6003002DE9F041184DDFF86C800746D7
:104C20004FF0FF324FF0FF33384624F0F7FA0446D6
:104C30000028F5D0466866B941461C232A4610482C
:104C400028F0EAF90F4828F0E7F91C21284628F057
:104C500048FCBFF35B8F04F1080353E8002F22F0F8
:104C6000010143E800100028F7D1BFF35B8FD307A1
:104C700001D52046B04725F005FCD1E7C06103000F
:104C800073600300FA610300E3610300F8B50E46A8
:104C9000002941D00568AB68B3F5004F2CBF08244C
:104CA00004240C1B641BE4082146284628F042FA21
:104CB00068B99B23194A1A491A4828F0ADF93146B8
:104CC000194828F0A9F99B21144828F00AFC21462C
:104CD000284628F036FA271800223946284628F0B8
:104CE00013FA381A84420DD0A4230C4A0F490D48F8
:104CF00028F092F931460E4828F08EF9A421074891
:104D000028F0EFFB21462846002228F020FA214611
:104D1000BDE8F84028F05EBBF8BD00BF4D6203005F
:104D20006E620300736003007F620300B7620300DA
:104D3000DD6203002DE9F04701F1FF3A1AEA010FA5
:104D400006468946144605680CD03449344A35482D
:104D5000FC2328F061F9344828F05EF9FC21304842
:104D600028F0BFFBAA68B2F5004F2CBF082304232C
:104D7000994505D821463046BDE8F04728F068BB84
:104D80001CB900273846BDE8F087B2EBD40FF8D93C
:104D900009EB0401C91A284628F0F5F9014628460E
:104DA00028F092FA80460028EBD0AB68B3F5004FAC
:104DB0002CBF0826042606EBC0072F445744C9F130
:104DC000000907EA0907BE1B3C44761B0734F608B6
:104DD00024F00704641BB0424FEAE40408D2014601
:104DE0003246284628F003FA4146284628F0ADFA14
:104DF0003146284628F0A5F93044844208D231468D
:104E00002846224628F0F3F92146284628F09DFA44
:104E100001223146284628F09AF9B3E715620300CB
:104E20004D6203007360030030620300B2F5802F0F
:104E3000F8B507460D46164612D2042A0ED8434945
:104E4000434A44484FF4B67328F0E6F8424828F045
:104E5000E3F84FF4B6713E4828F043FB042300E02A
:104E60000823F61AEC1D354424F0070425F0070545
:104E70002D1B172D4FEAD5060ED83849344A354830
:104E800040F2751328F0C8F8334828F0C5F840F20E
:104E900075112F4828F025FB002200233C60C4E94F
:104EA00000230023E3603146A660204628F075F910
:104EB00001218500471C204628F065F91B35ED08C7
:104EC0002844B0420ED32649214A224840F2811399
:104ED00028F0A2F8204828F09FF840F281111C48E1
:104EE00028F0FFFA002304F110021946BB4229DB27
:104EF0002A462046002128F042F9771B204601224D
:104F0000002128F024F93A46294628F038F92B46A2
:104F100029462046002228F002F931462046002288
:104F200028F02DF93B4631462046002228F0F7F8BC
:104F300031462046012228F00AF92946BDE8F8400A
:104F400028F003BA42F8041B0133CFE719630300CA
:104F50004D620300736003003A6303005363030070
:104F60007B630300F0B50268074E00230A27114651
:104F700001320C78A55D6D0702D401601846F0BDC2
:104F800007FB0343303BF2E700DC03002DE9F74F5A
:104F900014460193D378254A13F802906F2B0646E6
:104FA0000F4609F003092ED029D8582B0CBF102525
:104FB0000A25DDF83080AA464FF0000B52465B46CA
:104FC00030463946FDF708F8092AD3B222D83033E3
:104FD0005F45DBB208BF564508F8013D02D3019B8F
:104FE000984514D823789B0605D5082D18D1A378A9
:104FF00043F00803A370404603B0BDE8F08F702B68
:1050000003D0782BD2E70825D3E71025D1E7064651
:105010000F46D3E7B9F1010F0CBF37335733D7E74A
:10502000102DE8D1A37843F01003E3E700DC030080
:105030002DE9F04F814693B08A4693461C460025E1
:105040009BF8000008B92846D9E20BF10103252896
:10505000029306D05146C8470028C0F2D0820135DD
:10506000B2E1182200210CA82FF00CF89BF80130B7
:10507000252B55D0029A164612F8013B2B2B00F037
:10508000878075D8202B00F08880232B00F08A8041
:105090009DF8383003F04402442A03D16FF386139D
:1050A0008DF838309DF83830059643F080038DF840
:1050B000383033782A2B7AD19DF8393043F0010308
:1050C0008DF83930721C059213782E2B9DF83930EB
:1050D0000CBF0121002161F341038DF839300BD160
:1050E000531C059353782A2B75D19DF8393043F022
:1050F00004038DF839300232114611F8010B6A2889
:1051000000F0B68077D84C2800F0BA8068287FD0AD
:105110009DF839306FF3C6038DF83930114682E0BF
:105120000BF1020202928DF83B309DF83930D9071D
:1051300040F10E8154F8048BB8F1000F07DA9DF8A6
:10514000382042F004028DF83820C8F100085A07D0
:1051500040F1078154F8047B002F80F206819DF80E
:1051600039306FF341038DF839304FF0FF37FCE0F1
:105170002D2B06D0302B8BD19DF8383043F04003D7
:1051800003E09DF8383043F004038DF8383072E7BF
:105190009DF8383043F00803F7E79DF8383043F0C6
:1051A0001003F2E79DF8383043F02003EDE705A83F
:1051B000FFF7D8FE059AB24285D09DF838300F909F
:1051C00043F08003C3F3400141EAD07161F341032E
:1051D0008DF8383077E705A8FFF7C4FE9DF8383022
:1051E0001090C3F3400242EAD07262F341038DF89B
:1051F0003830059A80E774289DF839303ED07A28F7
:105200003AD06C2884D150786C282FD1042105E045
:105210005378682B9DF8393022D1012161F3C60300
:105220008DF83930911C0B4613F8012B0293672A35
:105230008DF83B209DF839303DD8652A32D2582A66
:1052400074D02AD8412A2DD002D3453A022A29D92E
:105250009DF8383043F001038DF83830002348E0E2
:10526000022262F3C6038DF83930DCE70322F8E747
:105270009DF839300522F4E70622F2E70722F0E72D
:10528000BDF8383023F4F04323F0020343F48043A5
:1052900043F00203ADF83830C5E7632A46D012D890
:1052A000612AD5D19DF83A30042262F302038DF8C9
:1052B0003A3001231DE0702A2BD024D86E2A39D031
:1052C00034D8692AC4D19DF83A10012003F078033C
:1052D00060F30201402B8DF83A1002BF9DF83810A0
:1052E00041F001018DF83810632AB7D1003318BF9F
:1052F00001239DF83820C2F340010B4363F34102C0
:105300008DF8382011E7752A10D0782A0ED0732A2C
:105310009ED19DF83A20032113F0780F61F3020229
:105320008DF83A2014BF01230023E2E79DF83A10DC
:105330000220CBE79DF83A2003F07803A3F1400068
:10534000032161F3020243428DF83A204341D0E742
:105350009DF93820002AB4BFDDF83C804FF0FF38BB
:10536000F5E69F077FF501AF109F9DF83A200023D7
:10537000CDE90F3302F007029DF83930012AC3F35B
:10538000C30337D1DA1E042A21D8DFE802F003076D
:105390000720200054F8040BC11704E0073424F060
:1053A0000704F4E80201CDE90C019DF8382012F061
:1053B000030655D0029B5A465146484628F07BF8D2
:1053C0000028C0F21C810544DDF808B038E654F826
:1053D000040B012B4FEAE071CDE90C0105D19DF8DA
:1053E00030200C9200220D92DFE7022BDDD1BDF9B7
:1053F0003000D1E7022A23D1DA1E042A13D8DFE8CD
:1054000002F0030A0A12120020680C900021221DEB
:105410000D911446C9E7073424F00702F2E80201AF
:10542000CDE90C01F5E754F8042B0C92012B4FF059
:1054300000020D92D3D0022BB7D1BDF83020D0E7B7
:10544000042A07D1073424F00704F4E80201CDE967
:105450000C01AAE7032A04BF54F8042B0C92A4E71A
:105460009DF83B006E2800F0A4803AD863286ED0E7
:1054700020D825283FF4EEAD5828A5D10DF12E03F4
:1054800000930EAA06ABDDE90C01FFF77FFD834612
:10549000002F0DF12E000BDB9DF83820A0EB0B0345
:1054A0006FF386129F428DF8382001D9FF1A0F97AB
:1054B000074644E0642801D0692885D1160776D4D0
:1054C00012F0100618BF2026DDE90C23002A73F124
:1054D0000001D3DA524263EB4303CDE90C232D26BE
:1054E000CCE7732820D01BD86F28C7D070287FF452
:1054F0006BAF0C98002871D00DF12E0300930EAA0B
:1055000006AB3146FFF742FDBDF83A3003F0EF033A
:1055100043F4F04343F010038346ADF83A30B7E765
:105520007528ABD07828A8E7002FDDF830B00ADB6B
:10553000394658462EF0E4FD0BEB00070026BBF180
:10554000000F0BD140E75846FCF7E6FEF4E70C9B52
:105550008DF818300DF119070DF1180BA7EB0B039F
:1055600006B101339DF83A20D0063CD502335206ED
:105570000F9948BF109A0B4448BF9B18B8F1000F11
:105580004ADD9DF83820A8EB0308C2F3800303939B
:10559000002B41D1500635D53EB151463046C84763
:1055A00000282CDB039B01351E4630232BE02B26E5
:1055B0008AE70C9A072B3FF607AFDFE803F00D04EC
:1055C000060D08080D0D1570FEE61580FCE6284650
:1055D000E917C2E90001F7E61560F5E62E4F064629
:1055E000A7F1050BBAE7110748BF0133BFE718461B
:1055F00051460393C84700284246039B05DA13B07F
:10560000BDE8F08F202342464544002AA5EB020165
:1056100002F1FF38EBDC0D462EB151463046C8474B
:105620000028ECDB01359DF83A30D90601D41A0781
:1056300005D551463020C8470028E0DB01359DF8EC
:105640003A30DB0606D551469DF83B00C847002896
:10565000D5DB01350F9E2E44731B002B15DC3B461A
:105660005A465146484627F026FF0028C7DB054426
:10567000A844A8EB0503002B7FF7A6AE51462020D7
:10568000C8470028BBDB0135F3E751463020C84747
:105690000028B4DB0135DFE7A963030030B5002241
:1056A00089B00F490F482EF00FFC0F4D0F49002213
:1056B0000023CDE9062300240E23CDE90334CDE9F0
:1056C000014400940A4B4FF44072284625F0D0F96B
:1056D000084928462EF053FB204609B030BD00BFD4
:1056E000F95600005012002088120020804E002041
:1056F000E15B0000AA630300014825F04DB800BF3C
:105700003C1000202029F8B505460C4609D914495B
:105710001448154A5B2327F07FFC5B21124827F0D1
:10572000E0FE0020114E03460246012715F8011B3A
:1057300009B1A34200D3F8BD252902D182F00102AC
:10574000F4E7002AF2D011F806C01CF0030FEDD0E8
:10575000732904BF07FA03F2104301330022E5E77F
:10576000C6640300736003009964030000DC030057
:1057700008B500F0B3FA094827F0BBFE042328223D
:10578000074908482EF04DFA074B084A1A604FF4B3
:105790000040BDE8084000F095BD00BFD0230020C8
:1057A00060930020D8230020B004002037D50200E9
:1057B000F8B5104BBFF35B8F002553E8007F43E83B
:1057C0000052002AF9D1BFF35B8F0B4C0B4E361BF6
:1057D0003611B54200DBF8BD204627F0A0FE28B107
:1057E0002368DB6813B139462046984701351034E9
:1057F000EFE700BFC823002024470300344703001D
:10580000064BBFF35B8F53E8002F013243E80021C2
:105810000029F8D1BFF35B8F704700BFC823002079
:10582000044A054B9B1AB1EBD30F34BF52F8310039
:1058300000207047DC4403002447030070B5104C7F
:10584000041B2411013405460E46E4B248B90D4943
:105850000D480E4AC02327F0DFFBC0210B4827F07C
:1058600040FE6B681C710A4C1E6001225A7122783E
:1058700012B9084824F090FF0123237070BD00BFC7
:1058800024470300E363030073600300B263030073
:10589000AE4B00203C10002070B5184B184CE41A99
:1058A0002411092C0BD917491748184A40F20E2326
:1058B00027F0B2FB40F20E21144827F012FEBFF38E
:1058C0005B8F134B53E8005F6A1C43E800210029FB
:1058D000F8D1BFF35B8F15B9084EA54200DB70BD50
:1058E000337B43B133685B6903B1984704220021DD
:1058F0003046FFF7A3FF01351036EEE724470300DB
:1059000034470300FA6303007360030099640300E3
:10591000CC230020174B984273B5044602D3164B94
:10592000984221D30022002301A9144823F0A6F8AD
:105930000646E0B90122019BBFF35B8F53E8001FCD
:1059400043E800200028F9D1BFF35B8F019D2B1D98
:105950001F22184621462EF0C0FB7E22034685F802
:10596000232085F824601C46204602B070BD044BFD
:10597000F9E700BF2041030000DD0300D823002029
:105980003A64030048B1054B984205D3A0339842CE
:105990002CBF00200120704700207047609300203A
:1059A0004E4B1B782DE9F74F054603B960B34FF016
:1059B0002003EFF3118683F31188BFF36F8F4848FC
:1059C00027F0A7FD044686F31188BFF36F8F78B1E7
:1059D000BFF35B8F434B53E8002F013A43E80021AC
:1059E0000029F8D1BFF35B8F95B1204627F0A0FEC8
:1059F00025B93D4B1B680BB1FFF7DAFE384827F09D
:105A000086FD051C18BF0125284603B0BDE8F08FB0
:105A1000364B1B78C3B9237ADB0715D427F09BFEDE
:105A20008146204627F064FE01464846FFF76AFE9D
:105A30002F4A304BDFF8E0A001929B1A80464FEAD4
:105A4000D30BB8F1000F06D12B4E2C4FBF1B3F11CB
:105A50004FF000083FE0B8FA88F6C6F11F0631465D
:105A6000204627F048FE264B9842024602D3254B9B
:105A700098421ED31046FFF785FFD0B9224B9A42B9
:105A800017D0638921499B095B453ABF019A52F8B7
:105A900033700746AE2352461D4827F0BDFA314603
:105AA0001C484B463A4627F0B7FAAE21504627F03D
:105AB00018FD012303FA06F628EA0608C1E7304676
:105AC00027F02DFD20B1336821461B6830469847EA
:105AD00008F101081036B845F1DB86E7AE4B00202F
:105AE000D0230020C4230020C8230020AF4B002077
:105AF000DC44030024470300244703003447030029
:105B00002041030000DD03003A6403008795030091
:105B1000736003005864030099640300294B73B554
:105B20001B68418105469847274CE860BFF35B8FAF
:105B300054E8003F013344E80032002AF8D1BFF3B3
:105B40005B8F4FF02003EFF3118683F31188BFF3CF
:105B50006F8F1E48294627F0D0FC86F31188BFF3CB
:105B60006F8F1B4B1B7883B14FF02003EFF3118431
:105B700083F31188BFF36F8F0020FFF711FF84F3C9
:105B80001188BFF36F8F02B070BD124A236812688C
:105B9000002AF8D0012B0AD100220023CDE90023EE
:105BA0000D484FF40042002325F08CFDEBE70A2B53
:105BB000E9D109482EF094F9084802B0BDE87040D8
:105BC00024F0EABDB0040020C4230020D02300202C
:105BD000AF4B0020F4230020501200203C10002086
:105BE000164B174A9B1A002B10B50BDC15491648AB
:105BF000164A40F29C4327F00FFA40F29C411348AA
:105C000027F06FFCFFF748FE24F0C0FD104B186032
:105C100030B1104B1B68092B02DD0F4824F0BCFD8E
:105C20000D4C0020FFF7BCFE0028FAD14FF0FF32E8
:105C30004FF0FF33204624F0F3FDF2E73447030032
:105C4000244703001E64030073600300996403008B
:105C5000F4230020C42300203C100020F8B50F4F8F
:105C60003D7875B90E4C0F4EFFF716FE361B3611F8
:105C7000B54207DB0020FFF793FE0028FAD101238D
:105C80003B70F8BD204627F04AFC18B12368204637
:105C90001B69984701351034EAE700BFAF4B00207D
:105CA000244703003447030007B504380190BFF3CD
:105CB0005B8F50E8003F5A1E40E800210029F8D1D0
:105CC000BFF35B8F012B03D101A9034822F042FFF0
:105CD00003B05DF804FB00BFD823002020231A4640
:105CE000014902482DF09DBF00940020F8230020B8
:105CF00037B50023094D01930120FFF751FE0446FB
:105D0000FFF77EFD0022002301A9284622F0B6FEFF
:105D100008B1002CF0D1019803B030BDF823002069
:105D200007B5002301930022002301A9054822F0B2
:105D3000A5FE10B1FFF7DCFF0190019803B05DF8FC
:105D400004FB00BFF8230020F0B5047A457A85B043
:105D500014F0010401904FEA15151BD1D5B1264668
:105D60003146019827F0C7FC0746FFF70BFE70B1DC
:105D700034B9019B29461869FFF7C4FC044648B1B1
:105D800024FA06F3D90702D53846FFF78DFF01360E
:105D9000AE42E5D3019B1A7A920704D55B69084CA1
:105DA0000393039B2BB901A9054822F0D3FE05B04C
:105DB000F0BD1D6803A9204622F0CCFE0395F0E754
:105DC000F82300200E2A2DE9F84F82468846154612
:105DD0000BD92D492D482E4A40F2371327F01CF9D4
:105DE00040F237112A4827F07CFBFFF799FF044661
:105DF00030B301230026032D4360068109D9022216
:105E00000281A5F1020900F1140B4661B9F1000FFE
:105E10000EDC637AC4F810A065F30713032D6372D8
:105E200018D8AA00414604F114002EF0F0F807E05B
:105E3000FFF776FF074630B92046FFF785FF3C465F
:105E40002046BDE8F88FCBF80000A9F107090660ED
:105E50008346DBE7D8F80030A361D8F804306769DF
:105E6000E361023D08F10808072D2E4628BF0726EA
:105E70004FEA86094146381D4A462EF0C8F8AD1B48
:105E8000C8443F68F0D1DBE70A6503007360030094
:105E9000DE6403000EB403B503AB014653F8042BD4
:105EA00004480193FFF7C4F802B05DF804EB03B0B7
:105EB000704700BFF16000002DE9F04F85B011F090
:105EC0000204064690469DF8387001F0010901F081
:105ED000080507D011F0440F37D11A463249FFF7B1
:105EE000D9FF0446B9F1000F0AD0304B304953F8BE
:105EF0002720304B3046002A08BF1A46FFF7CAFF5A
:105F00003DB12D4B2D4953F827203046FFF7C2FFF6
:105F10000546B8F1000F44D0012303FA07F7284BD8
:105F200017F0100F274F18BF1F46BDF840109DF8FF
:105F30003C00FFF775FC394602463046FFF7AAFFE2
:105F40002844204405B0BDE8F08F1F4A116831B3E2
:105F50001E4A4FF4616E1468B3FBF4F34FF47A7C7D
:105F6000B3FBF1F4B4FBFEF20EFB124E01FB143452
:105F70000CFB04F44FF03C0AB4FBF1FB01FB1B44A7
:105F8000BEFBFAF30CFB04F4B4FBF1F1CDE901B173
:105F90000AFB13E100910E49FFF77CFFA1E70846D9
:105FA0009FE7084FC1E700BFCF650300E44A030045
:105FB00049C40300C1650300F84A0300F465030007
:105FC000CB650300C66503001424002018240020BC
:105FD000D865030038B50C46E107054603D5084AE5
:105FE0000849FFF757FFE20608D4A30628464CBF2E
:105FF00005490649BDE83840FFF74CBF38BD00BF32
:10600000C165030049C40300C6C10300B2650300B3
:106010002DE9F0479846089BDD0604460E461746D4
:1060200005D499064CBF2A492A49FFF733FFDFF808
:10603000AC90002545452DDBDFF8A480DFF8A49067
:10604000DFF898A00025BD4231D2725D4946204656
:10605000FFF720FF0135102D22D11F49DFF87C808A
:10606000DFF88490DFF884A02046FFF713FF0025B7
:10607000AF4228D9725D12F8093013F0970F08BFAC
:106080002E2251462046FFF705FF0135102D13D172
:10609000BDE8F08749462046FFF7FCFE0135C9E719
:1060A0006A07D0D151462046FFF7F4FECBE74146C0
:1060B0002046FFF7EFFECDE76B07D9D141462046DA
:1060C000FFF7E8FED4E741462046FFF7E3FEDCE7B2
:1060D000C6C10300B26503001F6503001D65030010
:1060E0001B6503001565030000DC03002165030048
:1060F00038B54B681A68CB689A4205460C4602D1FF
:10610000084627F0EDFC6368BFF35B8F53E8002F70
:10611000511C43E800100028F8D1BFF35B8FA3683F
:106120009D5463681A68E3689A4209D9054906488C
:10613000064A742326F070FF7421044827F0D1F931
:10614000002038BD666503007360030037650300F7
:106150002DE9F0478B7A13F0070617468AB00446FC
:106160000D460A7A1DD04989C3F3C2038909D24377
:106170000291CDE9006302F00102EB683946FFF7B6
:106180009BFE81462B7ADA070DD42146284627F05C
:106190004AFB002E39D0324639462046FFF71AFF17
:1061A00033E0B146EEE7002E35D1E3685BB92A490A
:1061B0002A482B4A4FF4D97326F02EFF4FF4D97199
:1061C000274827F08EF900263746E368069306AA8B
:1061D0003B46A168284627F012FB069A63681A60BE
:1061E0003AB1A368134413F8016CA6F10A035E42A6
:1061F0005E41204627F074FC069B1F44002BE4D12F
:106200001EB118492046FFF745FE204627F068FCDE
:106210000AB0BDE8F087284627F09DFA12490246E9
:106220002046FFF737FE4FF000084FF0100A05AA8E
:10623000434606A92846CDF814A027F0E0FA059AAF
:10624000002AA8D04B46009706A92046FFF7E0FE9B
:10625000059B9844EBE700BF2465030073600300CF
:10626000376503003565030049C4030073B542F286
:106270000F738B4228BF0B4605680F4A0446052161
:10628000684626F0D6FE63680C495B6806460B221A
:10629000284627F0BBFA63683246694628465B68A1
:1062A00027F0B4FA636806495B681B22284627F08A
:1062B000ADFA02B070BD00BFC4A80300B56503000D
:1062C00096650300084A10B50123084C13600021AD
:1062D000A04204D801B11360054B186010BD4008FE
:1062E0005B000121F4E700BF1824002040420F00AA
:1062F00014240020F8B5074F0D4604464618B44252
:1063000001D12846F8BD386814F8011B83685B6822
:106310009847F4E730240020014827F0E1BB00BF94
:10632000244B03000148FFF7A1BF00BF244B03002B
:1063300008B5094822F0BAF8084B186058B92D235F
:1063400007490848084A26F067FE2D210648BDE89F
:10635000084027F0C6B808BD1666030030240020A8
:1063600052660300736003001D66030010B5084603
:106370000C4627F0B0F9214604480F22FFF7E8FE4B
:106380002046BDE8104027F0D3B900BF244B0300DE
:106390002DE9F7430F4681460821C06A124E27F0C7
:1063A00020FC3C68241A80463C6004EA0605AC42A6
:1063B00003D8002003B0BDE8F08308236A462146D5
:1063C000484627F09DFB0028F4D1684627F0F4FBEF
:1063D00038B9BDF80230BDF804203C6035401344A4
:1063E0001D44A4EB0804E2E70000FFFF2DE9F04F95
:1063F000044693B00821C06A27F0F3FB63681B0CC6
:106400001B04814601A9E089019327F0F4FB019B5D
:10641000A18904AD1944A1EB09012A4608232046AD
:10642000029127F06DFB021EC0F29580E36A1A7993
:106430000023E95C91427FD10133082BF9D1019906
:10644000204627F0E2FB024685E0029BBDF81220C1
:106450001B0C1B0413440293DFF804B1DDF808A001
:1064600006AA02A9204627F0F8FB0246002872D1AE
:1064700006A827F0A1FB002835D16368039308AA7A
:1064800003A92046039D27F0E8FB0246002862D1BD
:10649000BDF82020BDF818309A4227D06268039BCF
:1064A0009A42ECD155451ED1BDF81C30DBB1BDF888
:1064B0001A300AEA0B071F4406A8A368ADF81A3081
:1064C00027F086FBE36ABDF81C801E68764206F062
:1064D0002006B8F1000F0FD106A9204627F056FC80
:1064E0000246002837D1CA45B8D1A8E708A827F046
:1064F00063FB0028D2D1D5E74645354628BF45463F
:106500000AAA2B463946204627F0FAFA024610BB63
:1065100035B10AAA2B46A168204627F0EEFB0246B9
:106520002946E06A27F05DFBA3681844A06092B991
:10653000A8EB05082F44CCE7029B2846A3EB0909EA
:1065400027F03AFB002880D002A92046FFF720FF61
:106550000246002880D0104613B0BDE8F08F00BF7F
:106560000000FFFF2DE9F047044686B00D4600F11C
:10657000140630462DF070FB284621F097FFA062EC
:1065800098B901234FF0000163F30701B04AB14B02
:10659000B1489B1ADB0863F38F1126F0D0FF6FF030
:1065A0000505284606B0BDE8F08783681B69984753
:1065B000E06280B901234FF0000163F30701A44AB0
:1065C000A44BA6489B1ADB0863F38F1126F0B7FF94
:1065D0006FF01505E5E7A06A83681B6998470368B3
:1065E000013B1F2B0CD901234FF0000163F307017E
:1065F000974A984B9A489B1ADB0863F38F11E5E79B
:10660000A06A216803AA2CF0F0FF60B101234FF0CB
:10661000000163F307018E4A8E4B92489B1ADB08F8
:1066200063F38F11D2E7A3892BB1049AB3FBF2F580
:1066300002FB153565B101234FF0000163F307013B
:10664000834A844B88489B1ADB0863F38F11BDE7AC
:10665000E389012B0CD801234FF0000163F30701FC
:106660007B4A7C4B81489B1ADB0863F38F11ADE7B3
:10667000E36A009593F804904FF0FF324FF0FF3338
:10668000304622F0C7FA0821E06A27F0AAFA2F461E
:106690008046E3891FFA85FA53457DD8E389BB42DA
:1066A00000F0BA809A450CD1009908234A46A1EB24
:1066B0000801204627F05BFA18B96946E08927F0FF
:1066C0009AFA009B6A4FA3EB08023B406260A3600A
:1066D000D4E9011399420FD3082301AA204627F0D9
:1066E0000FFA054620BB01AB13F8012B914540F092
:1066F00096800135082DF7D1D4E901318B4207D9B5
:106700005B1A4A46204627F032FA051E10DB67D195
:106710006368574FE0893B406946009327F06BFA66
:10672000A38900994A46204627F021FA051E5DDA22
:10673000304622F06DFB002D7FF433AF012323742C
:1067400003224FF0000362F30703424E404AE189FF
:106750004848B61AC6F3C90666F38F13A28926F015
:106760000FFF6168444803224FF0000362F3070300
:1067700066F38F138AB2090C26F002FFA1683F4826
:1067800003224FF0000362F3070366F38F138AB20C
:10679000090C26F0F5FE04E7A1892B04A1EB080102
:1067A00013FA81F14A4608232046009127F0DFF9C9
:1067B00070B16946E08927F01EFA013708234A467E
:1067C00000992046BFB227F0D2F900283FF466AF07
:1067D00001355EE7BAF1000F36D06FF01C05A7E770
:1067E000E26AA36812681344A36085E7A0D06168D9
:1067F000204627F00AFA0546002899D16068A38947
:1068000038401844A0EB480060603840A060204643
:10681000FFF7ECFD05468BE76FF02C0588E701A834
:1068200027F0CAF9656878B9009ABDF80600BDF886
:1068300008A03A400244A2605146E06A27F0D1F92C
:106840001044A842A060C5D0A5EB080565603FE7ED
:10685000DC440300C446030088660300A46603000A
:10686000C6660300E3660300FB6603000F670300D0
:106870000000FFFF32670300496703005B67030006
:106880002DE9F04F1E46037C89B0044689469046A8
:106890009BB901234FF0000163F30701684A694B7C
:1068A00069489B1ADB0863F38F1126F048FE6FF0EE
:1068B0000C05284609B0BDE8F08FC26A08211046D1
:1068C00027F08FF931468246104627F08AF9A389CE
:1068D0000AEB4A029B1AB3420746C0F0AB801EB1D6
:1068E000B8F1000F00F0A6806368039304AA03A91F
:1068F0002046DDF80CB027F0B0F905460028D8D1C5
:10690000BDF810304B4505D06268039B9A42EDD12B
:10691000DEB9CEE704A827F04FF90028F4D1BDF87E
:10692000143086B1B34210D1BDF812004FEA1B41BA
:106930000904014433464246204627F0EFF8002878
:1069400003DC0546B5E7002BB3D0002F3FD104F19F
:10695000140A4FF0FF334FF0FF325046DFF8ECB02F
:1069600022F058F90023E289934260D0D4E9012152
:10697000781882422ED3FF2306A8ADF81890ADF800
:106980001A10ADF81C608DF81E3027F021F936B1D1
:1069900033464246A168204627F0AFF90546314606
:1069A000E06A27F01EF9A3681844A060002D44D1C6
:1069B00006A9204627F0EAF9054600283DD13246CF
:1069C0000192504622F024FA019A154671E7574485
:1069D000BFB2BCE70821E06A019327F002F94FF645
:1069E000FF71ADF818100021ADF81C101118ADF8AA
:1069F0001A10A18902EA0B020A44121A626006A860
:106A000027F0E6F806A9204627F0C0F9211DE08905
:106A100027F0F1F8626802EA0B02A2602046FFF755
:106A2000E5FC02460028CBD1019B01339BE76FF0C8
:106A30001B02C5E76FF015053BE72A46C0E700BF1C
:106A4000DC440300C4460300746603000000FFFF3B
:106A50002DE9FF471F46037CBDF8308004468A4677
:106A6000914693B901234FF0000163F30701294ACE
:106A7000294B2A489B1ADB0863F38F1126F05FFD30
:106A80006FF00C0004B0BDE8F0870821C06A27F061
:106A9000A8F8A389A3EB4000B84238D363680193F8
:106AA000002502AA01A92046019E27F0D6F8002859
:106AB000E8D1BDF80830534505D102A827F07CF88D
:106AC00008B90135ADB26268019B9A4218D04545BC
:106AD000E7D9BDF80C30BBB1454515D3BDF80A0068
